{
  "abi": [
    {
      "anonymous": false,
      "inputs": [
        {
          "indexed": true,
          "internalType": "int256",
          "name": "current",
          "type": "int256"
        },
        {
          "indexed": true,
          "internalType": "uint256",
          "name": "roundId",
          "type": "uint256"
        },
        {
          "indexed": false,
          "internalType": "uint256",
          "name": "timestamp",
          "type": "uint256"
        }
      ],
      "name": "AnswerUpdated",
      "type": "event"
    },
    {
      "anonymous": false,
      "inputs": [
        {
          "indexed": true,
          "internalType": "uint256",
          "name": "roundId",
          "type": "uint256"
        },
        {
          "indexed": true,
          "internalType": "address",
          "name": "startedBy",
          "type": "address"
        },
        {
          "indexed": false,
          "internalType": "uint256",
          "name": "startedAt",
          "type": "uint256"
        }
      ],
      "name": "NewRound",
      "type": "event"
    },
    {
      "inputs": [
        {
          "internalType": "uint256",
          "name": "roundId",
          "type": "uint256"
        }
      ],
      "name": "getAnswer",
      "outputs": [
        {
          "internalType": "int256",
          "name": "",
          "type": "int256"
        }
      ],
      "stateMutability": "view",
      "type": "function"
    },
    {
      "inputs": [
        {
          "internalType": "uint256",
          "name": "roundId",
          "type": "uint256"
        }
      ],
      "name": "getTimestamp",
      "outputs": [
        {
          "internalType": "uint256",
          "name": "",
          "type": "uint256"
        }
      ],
      "stateMutability": "view",
      "type": "function"
    },
    {
      "inputs": [],
      "name": "latestAnswer",
      "outputs": [
        {
          "internalType": "int256",
          "name": "",
          "type": "int256"
        }
      ],
      "stateMutability": "view",
      "type": "function"
    },
    {
      "inputs": [],
      "name": "latestRound",
      "outputs": [
        {
          "internalType": "uint256",
          "name": "",
          "type": "uint256"
        }
      ],
      "stateMutability": "view",
      "type": "function"
    },
    {
      "inputs": [],
      "name": "latestTimestamp",
      "outputs": [
        {
          "internalType": "uint256",
          "name": "",
          "type": "uint256"
        }
      ],
      "stateMutability": "view",
      "type": "function"
    }
  ],
  "address": "0xaa8751Df9FC4b9424831Fb361F0C14096FC0C204",
  "args": [],
  "bytecode": "0x60806040526305f5e10060005534801561001857600080fd5b5061019d806100286000396000f3fe608060405234801561001057600080fd5b50600436106100575760003560e01c806350d25bcd1461005c578063668a0f021461007a5780638205bf6a14610098578063b5ab58dc146100b6578063b633620c146100f8575b600080fd5b61006461013a565b6040518082815260200191505060405180910390f35b610082610143565b6040518082815260200191505060405180910390f35b6100a061014b565b6040518082815260200191505060405180910390f35b6100e2600480360360208110156100cc57600080fd5b8101908080359060200190929190505050610153565b6040518082815260200191505060405180910390f35b6101246004803603602081101561010e57600080fd5b810190808035906020019092919050505061015d565b6040518082815260200191505060405180910390f35b60008054905090565b600080905090565b600080905090565b6000809050919050565b600080905091905056fea264697066735822122095488defe68fe38769fafcc15244ba17614b2df6f18dae7d598fd493591cf06a64736f6c63430006080033"
}