{
  "abi": [
    {
      "inputs": [
        {
          "internalType": "uint256",
          "name": "_price",
          "type": "uint256"
        }
      ],
      "stateMutability": "nonpayable",
      "type": "constructor"
    },
    {
      "inputs": [],
      "name": "price",
      "outputs": [
        {
          "internalType": "uint256",
          "name": "",
          "type": "uint256"
        }
      ],
      "stateMutability": "view",
      "type": "function"
    },
    {
      "inputs": [
        {
          "internalType": "uint256",
          "name": "_price",
          "type": "uint256"
        }
      ],
      "name": "setPrice",
      "outputs": [],
      "stateMutability": "nonpayable",
      "type": "function"
    }
  ],
  "address": "0xfE82e8f24A51E670133f4268cDfc164c49FC3b37",
  "args": [
    {
      "_hex": "0x032bfea4f4ca978a5c76ec0000"
    }
  ],
  "bytecode": "0x608060405234801561001057600080fd5b5060405161011e38038061011e8339818101604052602081101561003357600080fd5b8101908080519060200190929190505050806000819055505060c48061005a6000396000f3fe6080604052348015600f57600080fd5b506004361060325760003560e01c806391b7f5ed146037578063a035b1fe146062575b600080fd5b606060048036036020811015604b57600080fd5b8101908080359060200190929190505050607e565b005b60686088565b6040518082815260200191505060405180910390f35b8060008190555050565b6000548156fea2646970667358221220e175faee5091dd6c1044de6f152c261273b450889e057f15d204ef7e5a5f824e64736f6c63430006080033"
}