{
  "abi": [
    {
      "inputs": [],
      "name": "med",
      "outputs": [
        {
          "internalType": "address",
          "name": "",
          "type": "address"
        }
      ],
      "stateMutability": "view",
      "type": "function"
    },
    {
      "inputs": [
        {
          "internalType": "uint256",
          "name": "val_",
          "type": "uint256"
        },
        {
          "internalType": "uint32",
          "name": "zzz_",
          "type": "uint32"
        },
        {
          "internalType": "address",
          "name": "med_",
          "type": "address"
        }
      ],
      "name": "post",
      "outputs": [],
      "stateMutability": "nonpayable",
      "type": "function"
    },
    {
      "inputs": [],
      "name": "read",
      "outputs": [
        {
          "internalType": "bytes32",
          "name": "",
          "type": "bytes32"
        }
      ],
      "stateMutability": "view",
      "type": "function"
    },
    {
      "inputs": [],
      "name": "zzz",
      "outputs": [
        {
          "internalType": "uint32",
          "name": "",
          "type": "uint32"
        }
      ],
      "stateMutability": "view",
      "type": "function"
    }
  ],
  "address": "0x26b4AFb60d6C903165150C6F0AA14F8016bE4aec",
  "args": [],
  "bytecode": "0x608060405234801561001057600080fd5b5061022d806100206000396000f3fe608060405234801561001057600080fd5b506004361061004c5760003560e01c806357de26a41461005157806371a8dc011461006f578063a4dff0a2146100cd578063cd53c747146100f7575b600080fd5b610059610141565b6040518082815260200191505060405180910390f35b6100cb6004803603606081101561008557600080fd5b8101908080359060200190929190803563ffffffff169060200190929190803573ffffffffffffffffffffffffffffffffffffffff16906020019092919050505061014d565b005b6100d56101bb565b604051808263ffffffff1663ffffffff16815260200191505060405180910390f35b6100ff6101d1565b604051808273ffffffffffffffffffffffffffffffffffffffff1673ffffffffffffffffffffffffffffffffffffffff16815260200191505060405180910390f35b6000805460001b905090565b8260008190555081600160006101000a81548163ffffffff021916908363ffffffff16021790555080600160046101000a81548173ffffffffffffffffffffffffffffffffffffffff021916908373ffffffffffffffffffffffffffffffffffffffff160217905550505050565b600160009054906101000a900463ffffffff1681565b600160049054906101000a900473ffffffffffffffffffffffffffffffffffffffff168156fea2646970667358221220a3953e2cf87e11af87da4b9c2d44f1b68b67be12f684b6f50f3a98131ab2a84064736f6c63430006080033"
}