{
  "abi": [
    {
      "anonymous": false,
      "inputs": [
        {
          "indexed": true,
          "internalType": "address",
          "name": "_owner",
          "type": "address"
        },
        {
          "indexed": true,
          "internalType": "uint256",
          "name": "_id",
          "type": "uint256"
        },
        {
          "indexed": false,
          "internalType": "uint256",
          "name": "_amount",
          "type": "uint256"
        }
      ],
      "name": "LogAddCollateral",
      "type": "event"
    },
    {
      "anonymous": false,
      "inputs": [
        {
          "indexed": true,
          "internalType": "address",
          "name": "_owner",
          "type": "address"
        },
        {
          "indexed": true,
          "internalType": "uint256",
          "name": "_id",
          "type": "uint256"
        },
        {
          "indexed": false,
          "internalType": "uint256",
          "name": "_amount",
          "type": "uint256"
        }
      ],
      "name": "LogBurn",
      "type": "event"
    },
    {
      "anonymous": false,
      "inputs": [
        {
          "indexed": true,
          "internalType": "address",
          "name": "_owner",
          "type": "address"
        },
        {
          "indexed": true,
          "internalType": "uint256",
          "name": "_id",
          "type": "uint256"
        }
      ],
      "name": "LogCreateVault",
      "type": "event"
    },
    {
      "anonymous": false,
      "inputs": [
        {
          "indexed": true,
          "internalType": "address",
          "name": "_owner",
          "type": "address"
        },
        {
          "indexed": true,
          "internalType": "uint256",
          "name": "_id",
          "type": "uint256"
        },
        {
          "indexed": false,
          "internalType": "uint256",
          "name": "_amount",
          "type": "uint256"
        }
      ],
      "name": "LogMint",
      "type": "event"
    },
    {
      "anonymous": false,
      "inputs": [
        {
          "indexed": true,
          "internalType": "address",
          "name": "_owner",
          "type": "address"
        },
        {
          "indexed": true,
          "internalType": "uint256",
          "name": "_id",
          "type": "uint256"
        },
        {
          "indexed": false,
          "internalType": "uint256",
          "name": "_amount",
          "type": "uint256"
        }
      ],
      "name": "LogRemoveCollateral",
      "type": "event"
    },
    {
      "anonymous": false,
      "inputs": [
        {
          "indexed": true,
          "internalType": "address",
          "name": "_owner",
          "type": "address"
        },
        {
          "indexed": false,
          "internalType": "contract ERC20",
          "name": "_collateralContract",
          "type": "address"
        }
      ],
      "name": "LogSetCollateralContract",
      "type": "event"
    },
    {
      "anonymous": false,
      "inputs": [
        {
          "indexed": true,
          "internalType": "address",
          "name": "_owner",
          "type": "address"
        },
        {
          "indexed": false,
          "internalType": "uint256",
          "name": "_divisor",
          "type": "uint256"
        }
      ],
      "name": "LogSetDivisor",
      "type": "event"
    },
    {
      "anonymous": false,
      "inputs": [
        {
          "indexed": true,
          "internalType": "address",
          "name": "_owner",
          "type": "address"
        },
        {
          "indexed": false,
          "internalType": "uint256",
          "name": "_ratio",
          "type": "uint256"
        }
      ],
      "name": "LogSetRatio",
      "type": "event"
    },
    {
      "anonymous": false,
      "inputs": [
        {
          "indexed": true,
          "internalType": "address",
          "name": "_owner",
          "type": "address"
        },
        {
          "indexed": false,
          "internalType": "contract Oracle",
          "name": "_oracle",
          "type": "address"
        }
      ],
      "name": "LogSetTCAPOracle",
      "type": "event"
    },
    {
      "anonymous": false,
      "inputs": [
        {
          "indexed": true,
          "internalType": "address",
          "name": "_owner",
          "type": "address"
        },
        {
          "indexed": false,
          "internalType": "contract TCAPX",
          "name": "_token",
          "type": "address"
        }
      ],
      "name": "LogSetTCAPXContract",
      "type": "event"
    },
    {
      "anonymous": false,
      "inputs": [
        {
          "indexed": true,
          "internalType": "address",
          "name": "previousOwner",
          "type": "address"
        },
        {
          "indexed": true,
          "internalType": "address",
          "name": "newOwner",
          "type": "address"
        }
      ],
      "name": "OwnershipTransferred",
      "type": "event"
    },
    {
      "anonymous": false,
      "inputs": [
        {
          "indexed": true,
          "internalType": "bytes32",
          "name": "role",
          "type": "bytes32"
        },
        {
          "indexed": true,
          "internalType": "address",
          "name": "account",
          "type": "address"
        },
        {
          "indexed": true,
          "internalType": "address",
          "name": "sender",
          "type": "address"
        }
      ],
      "name": "RoleGranted",
      "type": "event"
    },
    {
      "anonymous": false,
      "inputs": [
        {
          "indexed": true,
          "internalType": "bytes32",
          "name": "role",
          "type": "bytes32"
        },
        {
          "indexed": true,
          "internalType": "address",
          "name": "account",
          "type": "address"
        },
        {
          "indexed": true,
          "internalType": "address",
          "name": "sender",
          "type": "address"
        }
      ],
      "name": "RoleRevoked",
      "type": "event"
    },
    {
      "inputs": [],
      "name": "DEFAULT_ADMIN_ROLE",
      "outputs": [
        {
          "internalType": "bytes32",
          "name": "",
          "type": "bytes32"
        }
      ],
      "stateMutability": "view",
      "type": "function"
    },
    {
      "inputs": [],
      "name": "INVESTOR_ROLE",
      "outputs": [
        {
          "internalType": "bytes32",
          "name": "",
          "type": "bytes32"
        }
      ],
      "stateMutability": "view",
      "type": "function"
    },
    {
      "inputs": [],
      "name": "TCAPXPrice",
      "outputs": [
        {
          "internalType": "uint256",
          "name": "price",
          "type": "uint256"
        }
      ],
      "stateMutability": "view",
      "type": "function"
    },
    {
      "inputs": [],
      "name": "TCAPXToken",
      "outputs": [
        {
          "internalType": "contract TCAPX",
          "name": "",
          "type": "address"
        }
      ],
      "stateMutability": "view",
      "type": "function"
    },
    {
      "inputs": [
        {
          "internalType": "uint256",
          "name": "_amount",
          "type": "uint256"
        }
      ],
      "name": "addCollateral",
      "outputs": [],
      "stateMutability": "nonpayable",
      "type": "function"
    },
    {
      "inputs": [
        {
          "internalType": "address",
          "name": "_investor",
          "type": "address"
        }
      ],
      "name": "addInvestor",
      "outputs": [],
      "stateMutability": "nonpayable",
      "type": "function"
    },
    {
      "inputs": [
        {
          "internalType": "uint256",
          "name": "_amount",
          "type": "uint256"
        }
      ],
      "name": "burn",
      "outputs": [],
      "stateMutability": "nonpayable",
      "type": "function"
    },
    {
      "inputs": [],
      "name": "collateralContract",
      "outputs": [
        {
          "internalType": "contract ERC20",
          "name": "",
          "type": "address"
        }
      ],
      "stateMutability": "view",
      "type": "function"
    },
    {
      "inputs": [],
      "name": "createVault",
      "outputs": [],
      "stateMutability": "nonpayable",
      "type": "function"
    },
    {
      "inputs": [],
      "name": "divisor",
      "outputs": [
        {
          "internalType": "uint256",
          "name": "",
          "type": "uint256"
        }
      ],
      "stateMutability": "view",
      "type": "function"
    },
    {
      "inputs": [
        {
          "internalType": "bytes32",
          "name": "role",
          "type": "bytes32"
        }
      ],
      "name": "getRoleAdmin",
      "outputs": [
        {
          "internalType": "bytes32",
          "name": "",
          "type": "bytes32"
        }
      ],
      "stateMutability": "view",
      "type": "function"
    },
    {
      "inputs": [
        {
          "internalType": "bytes32",
          "name": "role",
          "type": "bytes32"
        },
        {
          "internalType": "uint256",
          "name": "index",
          "type": "uint256"
        }
      ],
      "name": "getRoleMember",
      "outputs": [
        {
          "internalType": "address",
          "name": "",
          "type": "address"
        }
      ],
      "stateMutability": "view",
      "type": "function"
    },
    {
      "inputs": [
        {
          "internalType": "bytes32",
          "name": "role",
          "type": "bytes32"
        }
      ],
      "name": "getRoleMemberCount",
      "outputs": [
        {
          "internalType": "uint256",
          "name": "",
          "type": "uint256"
        }
      ],
      "stateMutability": "view",
      "type": "function"
    },
    {
      "inputs": [
        {
          "internalType": "uint256",
          "name": "_id",
          "type": "uint256"
        }
      ],
      "name": "getVault",
      "outputs": [
        {
          "internalType": "uint256",
          "name": "",
          "type": "uint256"
        },
        {
          "internalType": "uint256",
          "name": "",
          "type": "uint256"
        },
        {
          "internalType": "address",
          "name": "",
          "type": "address"
        },
        {
          "internalType": "uint256",
          "name": "",
          "type": "uint256"
        }
      ],
      "stateMutability": "view",
      "type": "function"
    },
    {
      "inputs": [
        {
          "internalType": "uint256",
          "name": "_vaultId",
          "type": "uint256"
        }
      ],
      "name": "getVaultRatio",
      "outputs": [
        {
          "internalType": "uint256",
          "name": "currentRatio",
          "type": "uint256"
        }
      ],
      "stateMutability": "view",
      "type": "function"
    },
    {
      "inputs": [
        {
          "internalType": "bytes32",
          "name": "role",
          "type": "bytes32"
        },
        {
          "internalType": "address",
          "name": "account",
          "type": "address"
        }
      ],
      "name": "grantRole",
      "outputs": [],
      "stateMutability": "nonpayable",
      "type": "function"
    },
    {
      "inputs": [
        {
          "internalType": "bytes32",
          "name": "role",
          "type": "bytes32"
        },
        {
          "internalType": "address",
          "name": "account",
          "type": "address"
        }
      ],
      "name": "hasRole",
      "outputs": [
        {
          "internalType": "bool",
          "name": "",
          "type": "bool"
        }
      ],
      "stateMutability": "view",
      "type": "function"
    },
    {
      "inputs": [
        {
          "internalType": "uint256",
          "name": "_amount",
          "type": "uint256"
        }
      ],
      "name": "mint",
      "outputs": [],
      "stateMutability": "nonpayable",
      "type": "function"
    },
    {
      "inputs": [],
      "name": "owner",
      "outputs": [
        {
          "internalType": "address",
          "name": "",
          "type": "address"
        }
      ],
      "stateMutability": "view",
      "type": "function"
    },
    {
      "inputs": [],
      "name": "ratio",
      "outputs": [
        {
          "internalType": "uint256",
          "name": "",
          "type": "uint256"
        }
      ],
      "stateMutability": "view",
      "type": "function"
    },
    {
      "inputs": [
        {
          "internalType": "uint256",
          "name": "_amount",
          "type": "uint256"
        }
      ],
      "name": "removeCollateral",
      "outputs": [],
      "stateMutability": "nonpayable",
      "type": "function"
    },
    {
      "inputs": [
        {
          "internalType": "address",
          "name": "_investor",
          "type": "address"
        }
      ],
      "name": "removeInvestor",
      "outputs": [],
      "stateMutability": "nonpayable",
      "type": "function"
    },
    {
      "inputs": [],
      "name": "renounceOwnership",
      "outputs": [],
      "stateMutability": "nonpayable",
      "type": "function"
    },
    {
      "inputs": [
        {
          "internalType": "bytes32",
          "name": "role",
          "type": "bytes32"
        },
        {
          "internalType": "address",
          "name": "account",
          "type": "address"
        }
      ],
      "name": "renounceRole",
      "outputs": [],
      "stateMutability": "nonpayable",
      "type": "function"
    },
    {
      "inputs": [
        {
          "internalType": "uint256",
          "name": "_amount",
          "type": "uint256"
        }
      ],
      "name": "requiredCollateral",
      "outputs": [
        {
          "internalType": "uint256",
          "name": "collateral",
          "type": "uint256"
        }
      ],
      "stateMutability": "view",
      "type": "function"
    },
    {
      "inputs": [
        {
          "internalType": "bytes32",
          "name": "role",
          "type": "bytes32"
        },
        {
          "internalType": "address",
          "name": "account",
          "type": "address"
        }
      ],
      "name": "revokeRole",
      "outputs": [],
      "stateMutability": "nonpayable",
      "type": "function"
    },
    {
      "inputs": [
        {
          "internalType": "contract ERC20",
          "name": "_collateralContract",
          "type": "address"
        }
      ],
      "name": "setCollateralContract",
      "outputs": [],
      "stateMutability": "nonpayable",
      "type": "function"
    },
    {
      "inputs": [
        {
          "internalType": "uint256",
          "name": "_divisor",
          "type": "uint256"
        }
      ],
      "name": "setDivisor",
      "outputs": [],
      "stateMutability": "nonpayable",
      "type": "function"
    },
    {
      "inputs": [
        {
          "internalType": "uint256",
          "name": "_ratio",
          "type": "uint256"
        }
      ],
      "name": "setRatio",
      "outputs": [],
      "stateMutability": "nonpayable",
      "type": "function"
    },
    {
      "inputs": [
        {
          "internalType": "contract Oracle",
          "name": "_oracle",
          "type": "address"
        }
      ],
      "name": "setTCAPOracle",
      "outputs": [],
      "stateMutability": "nonpayable",
      "type": "function"
    },
    {
      "inputs": [
        {
          "internalType": "contract TCAPX",
          "name": "_TCAPXToken",
          "type": "address"
        }
      ],
      "name": "setTCAPXContract",
      "outputs": [],
      "stateMutability": "nonpayable",
      "type": "function"
    },
    {
      "inputs": [],
      "name": "tcapOracle",
      "outputs": [
        {
          "internalType": "contract Oracle",
          "name": "",
          "type": "address"
        }
      ],
      "stateMutability": "view",
      "type": "function"
    },
    {
      "inputs": [
        {
          "internalType": "address",
          "name": "newOwner",
          "type": "address"
        }
      ],
      "name": "transferOwnership",
      "outputs": [],
      "stateMutability": "nonpayable",
      "type": "function"
    },
    {
      "inputs": [
        {
          "internalType": "address",
          "name": "",
          "type": "address"
        }
      ],
      "name": "vaultToUser",
      "outputs": [
        {
          "internalType": "uint256",
          "name": "",
          "type": "uint256"
        }
      ],
      "stateMutability": "view",
      "type": "function"
    },
    {
      "inputs": [
        {
          "internalType": "uint256",
          "name": "",
          "type": "uint256"
        }
      ],
      "name": "vaults",
      "outputs": [
        {
          "internalType": "uint256",
          "name": "Id",
          "type": "uint256"
        },
        {
          "internalType": "uint256",
          "name": "Collateral",
          "type": "uint256"
        },
        {
          "internalType": "address",
          "name": "Owner",
          "type": "address"
        },
        {
          "internalType": "uint256",
          "name": "Debt",
          "type": "uint256"
        }
      ],
      "stateMutability": "view",
      "type": "function"
    }
  ],
  "address": "0xe5608e4945998aB5E4548Bc95b421E188095DA8E",
  "args": [],
  "bytecode": "0x60806040523480156200001157600080fd5b506000620000246200010f60201b60201c565b9050806000806101000a81548173ffffffffffffffffffffffffffffffffffffffff021916908373ffffffffffffffffffffffffffffffffffffffff1602179055508073ffffffffffffffffffffffffffffffffffffffff16600073ffffffffffffffffffffffffffffffffffffffff167f8be0079c531659141344cd1fd0a4f28419497f9722a3daafe3b4186f6b6457e060405160405180910390a3506001600260006101000a81548160ff021916908315150217905550620000f460036200011760201b620030101760201c565b620001096000801b336200012d60201b60201c565b620002bc565b600033905090565b6001816000016000828254019250508190555050565b6200013f82826200014360201b60201c565b5050565b620001728160016000858152602001908152602001600020600001620001e760201b620030261790919060201c565b15620001e357620001886200010f60201b60201c565b73ffffffffffffffffffffffffffffffffffffffff168173ffffffffffffffffffffffffffffffffffffffff16837f2f8788117e7eff1d82e926ec794901d17c78024a50270940304540a733656f0d60405160405180910390a45b5050565b600062000217836000018373ffffffffffffffffffffffffffffffffffffffff1660001b6200021f60201b60201c565b905092915050565b60006200023383836200029960201b60201c565b6200028e57826000018290806001815401808255809150506001900390600052602060002001600090919091909150558260000180549050836001016000848152602001908152602001600020819055506001905062000293565b600090505b92915050565b600080836001016000848152602001908152602001600020541415905092915050565b61392880620002cc6000396000f3fe608060405234801561001057600080fd5b50600436106102115760003560e01c80639010d07c11610125578063bcc46e83116100ad578063d547741f1161007c578063d547741f14610950578063e641bde11461099e578063e941cd06146109e2578063f2fde38b14610a26578063f31e65ad14610a6a57610211565b8063bcc46e8314610852578063c543a1a014610880578063c6e1c7c9146108c4578063ca15c8731461090e57610211565b8063a0712d68116100f4578063a0712d6814610752578063a217fddf14610780578063a4ec7c6b1461079e578063abb7bc4a146107e2578063b2237ba31461082457610211565b80639010d07c146105a757806391d148541461061f5780639403b6341461068557806398130f301461070857610211565b806342966c68116101a857806371ca337d1161017757806371ca337d1461045c57806376082a5e1461047a5780638c01f211146104985780638c64ea4a146104da5780638da5cb5b1461055d57610211565b806342966c68146103ec5780635d12928b1461041a578063709f5ccc14610424578063715018a61461045257610211565b80633237c158116101e45780633237c1581461030e57806336568abe1461033c57806341af25191461038a57806342714978146103a857610211565b80631cc244ba146102165780631f2dc5ef14610260578063248a9ca31461027e5780632f2ff15d146102c0575b600080fd5b61021e610ac2565b604051808273ffffffffffffffffffffffffffffffffffffffff1673ffffffffffffffffffffffffffffffffffffffff16815260200191505060405180910390f35b610268610ae8565b6040518082815260200191505060405180910390f35b6102aa6004803603602081101561029457600080fd5b8101908080359060200190929190505050610aee565b6040518082815260200191505060405180910390f35b61030c600480360360408110156102d657600080fd5b8101908080359060200190929190803573ffffffffffffffffffffffffffffffffffffffff169060200190929190505050610b0e565b005b61033a6004803603602081101561032457600080fd5b8101908080359060200190929190505050610b98565b005b6103886004803603604081101561035257600080fd5b8101908080359060200190929190803573ffffffffffffffffffffffffffffffffffffffff169060200190929190505050610f96565b005b61039261102f565b6040518082815260200191505060405180910390f35b6103ea600480360360208110156103be57600080fd5b81019080803573ffffffffffffffffffffffffffffffffffffffff1690602001909291905050506110f2565b005b6104186004803603602081101561040257600080fd5b81019080803590602001909291905050506111fd565b005b610422611572565b005b6104506004803603602081101561043a57600080fd5b810190808035906020019092919050505061183b565b005b61045a61195c565b005b610464611ae4565b6040518082815260200191505060405180910390f35b610482611aea565b6040518082815260200191505060405180910390f35b6104c4600480360360208110156104ae57600080fd5b8101908080359060200190929190505050611b23565b6040518082815260200191505060405180910390f35b610506600480360360208110156104f057600080fd5b8101908080359060200190929190505050611c3e565b604051808581526020018481526020018373ffffffffffffffffffffffffffffffffffffffff1673ffffffffffffffffffffffffffffffffffffffff16815260200182815260200194505050505060405180910390f35b610565611c8e565b604051808273ffffffffffffffffffffffffffffffffffffffff1673ffffffffffffffffffffffffffffffffffffffff16815260200191505060405180910390f35b6105dd600480360360408110156105bd57600080fd5b810190808035906020019092919080359060200190929190505050611cb7565b604051808273ffffffffffffffffffffffffffffffffffffffff1673ffffffffffffffffffffffffffffffffffffffff16815260200191505060405180910390f35b61066b6004803603604081101561063557600080fd5b8101908080359060200190929190803573ffffffffffffffffffffffffffffffffffffffff169060200190929190505050611ce9565b604051808215151515815260200191505060405180910390f35b6106b16004803603602081101561069b57600080fd5b8101908080359060200190929190505050611d1b565b604051808581526020018481526020018373ffffffffffffffffffffffffffffffffffffffff1673ffffffffffffffffffffffffffffffffffffffff16815260200182815260200194505050505060405180910390f35b610710611de1565b604051808273ffffffffffffffffffffffffffffffffffffffff1673ffffffffffffffffffffffffffffffffffffffff16815260200191505060405180910390f35b61077e6004803603602081101561076857600080fd5b8101908080359060200190929190505050611e07565b005b6107886121f1565b6040518082815260200191505060405180910390f35b6107e0600480360360208110156107b457600080fd5b81019080803573ffffffffffffffffffffffffffffffffffffffff1690602001909291905050506121f8565b005b61080e600480360360208110156107f857600080fd5b810190808035906020019092919050505061237f565b6040518082815260200191505060405180910390f35b6108506004803603602081101561083a57600080fd5b81019080803590602001909291905050506123d6565b005b61087e6004803603602081101561086857600080fd5b81019080803590602001909291905050506124f7565b005b6108c26004803603602081101561089657600080fd5b81019080803573ffffffffffffffffffffffffffffffffffffffff1690602001909291905050506128fb565b005b6108cc612a82565b604051808273ffffffffffffffffffffffffffffffffffffffff1673ffffffffffffffffffffffffffffffffffffffff16815260200191505060405180910390f35b61093a6004803603602081101561092457600080fd5b8101908080359060200190929190505050612aa8565b6040518082815260200191505060405180910390f35b61099c6004803603604081101561096657600080fd5b8101908080359060200190929190803573ffffffffffffffffffffffffffffffffffffffff169060200190929190505050612acf565b005b6109e0600480360360208110156109b457600080fd5b81019080803573ffffffffffffffffffffffffffffffffffffffff169060200190929190505050612b59565b005b610a24600480360360208110156109f857600080fd5b81019080803573ffffffffffffffffffffffffffffffffffffffff169060200190929190505050612c64565b005b610a6860048036036020811015610a3c57600080fd5b81019080803573ffffffffffffffffffffffffffffffffffffffff169060200190929190505050612deb565b005b610aac60048036036020811015610a8057600080fd5b81019080803573ffffffffffffffffffffffffffffffffffffffff169060200190929190505050612ff8565b6040518082815260200191505060405180910390f35b600560009054906101000a900473ffffffffffffffffffffffffffffffffffffffff1681565b60075481565b600060016000838152602001908152602001600020600201549050919050565b610b356001600084815260200190815260200160002060020154610b30613056565b611ce9565b610b8a576040517f08c379a000000000000000000000000000000000000000000000000000000000815260040180806020018281038252602f8152602001806137bb602f913960400191505060405180910390fd5b610b94828261305e565b5050565b600260009054906101000a900460ff16610c1a576040517f08c379a000000000000000000000000000000000000000000000000000000000815260040180806020018281038252601f8152602001807f5265656e7472616e637947756172643a207265656e7472616e742063616c6c0081525060200191505060405180910390fd5b6000600260006101000a81548160ff0219169083151502179055506000600960003373ffffffffffffffffffffffffffffffffffffffff1673ffffffffffffffffffffffffffffffffffffffff168152602001908152602001600020541415610ceb576040517f08c379a00000000000000000000000000000000000000000000000000000000081526004018080602001828103825260108152602001807f4e6f205661756c7420637265617465640000000000000000000000000000000081525060200191505060405180910390fd5b6000600a6000600960003373ffffffffffffffffffffffffffffffffffffffff1673ffffffffffffffffffffffffffffffffffffffff16815260200190815260200160002054815260200190815260200160002090506000610d508260000154611b23565b90508282600101541015610daf576040517f08c379a00000000000000000000000000000000000000000000000000000000081526004018080602001828103825260408152602001806138846040913960400191505060405180910390fd5b610dc68383600101546130f290919063ffffffff16565b826001018190555060008114610e3e57600854610de68360000154611b23565b1015610e3d576040517f08c379a00000000000000000000000000000000000000000000000000000000081526004018080602001828103825260238152602001806137ea6023913960400191505060405180910390fd5b5b600660009054906101000a900473ffffffffffffffffffffffffffffffffffffffff1673ffffffffffffffffffffffffffffffffffffffff1663a9059cbb33856040518363ffffffff1660e01b8152600401808373ffffffffffffffffffffffffffffffffffffffff1673ffffffffffffffffffffffffffffffffffffffff16815260200182815260200192505050602060405180830381600087803b158015610ee757600080fd5b505af1158015610efb573d6000803e3d6000fd5b505050506040513d6020811015610f1157600080fd5b81019080805190602001909291905050505081600001543373ffffffffffffffffffffffffffffffffffffffff167f9b849e292191860667c493bd0657a5c71fd2350e4645303bddfc435da85c7c20856040518082815260200191505060405180910390a350506001600260006101000a81548160ff02191690831515021790555050565b610f9e613056565b73ffffffffffffffffffffffffffffffffffffffff168173ffffffffffffffffffffffffffffffffffffffff1614611021576040517f08c379a000000000000000000000000000000000000000000000000000000000815260040180806020018281038252602f8152602001806138c4602f913960400191505060405180910390fd5b61102b828261313c565b5050565b600080600560009054906101000a900473ffffffffffffffffffffffffffffffffffffffff1673ffffffffffffffffffffffffffffffffffffffff1663a035b1fe6040518163ffffffff1660e01b815260040160206040518083038186803b15801561109a57600080fd5b505afa1580156110ae573d6000803e3d6000fd5b505050506040513d60208110156110c457600080fd5b810190808051906020019092919050505090506110ec600754826131d090919063ffffffff16565b91505090565b6110fa613056565b73ffffffffffffffffffffffffffffffffffffffff166000809054906101000a900473ffffffffffffffffffffffffffffffffffffffff1673ffffffffffffffffffffffffffffffffffffffff16146111bb576040517f08c379a00000000000000000000000000000000000000000000000000000000081526004018080602001828103825260208152602001807f4f776e61626c653a2063616c6c6572206973206e6f7420746865206f776e657281525060200191505060405180910390fd5b6111fa60405180807f494e564553544f525f524f4c4500000000000000000000000000000000000000815250600d019050604051809103902082612acf565b50565b600260009054906101000a900460ff1661127f576040517f08c379a000000000000000000000000000000000000000000000000000000000815260040180806020018281038252601f8152602001807f5265656e7472616e637947756172643a207265656e7472616e742063616c6c0081525060200191505060405180910390fd5b6000600260006101000a81548160ff0219169083151502179055506000600960003373ffffffffffffffffffffffffffffffffffffffff1673ffffffffffffffffffffffffffffffffffffffff168152602001908152602001600020541415611350576040517f08c379a00000000000000000000000000000000000000000000000000000000081526004018080602001828103825260108152602001807f4e6f205661756c7420637265617465640000000000000000000000000000000081525060200191505060405180910390fd5b6000600a6000600960003373ffffffffffffffffffffffffffffffffffffffff1673ffffffffffffffffffffffffffffffffffffffff16815260200190815260200160002054815260200190815260200160002090508181600301541015611420576040517f08c379a00000000000000000000000000000000000000000000000000000000081526004018080602001828103825260188152602001807f416d6f756e742067726561746572207468616e2064656274000000000000000081525060200191505060405180910390fd5b6114378282600301546130f290919063ffffffff16565b8160030181905550600460009054906101000a900473ffffffffffffffffffffffffffffffffffffffff1673ffffffffffffffffffffffffffffffffffffffff16639dc29fac33846040518363ffffffff1660e01b8152600401808373ffffffffffffffffffffffffffffffffffffffff1673ffffffffffffffffffffffffffffffffffffffff16815260200182815260200192505050600060405180830381600087803b1580156114e857600080fd5b505af11580156114fc573d6000803e3d6000fd5b5050505080600001543373ffffffffffffffffffffffffffffffffffffffff167f21cb60dab84f5815c7c4197b8935326f424383c894633344b495319ada0658aa846040518082815260200191505060405180910390a3506001600260006101000a81548160ff02191690831515021790555050565b6115b160405180807f494e564553544f525f524f4c4500000000000000000000000000000000000000815250600d019050604051809103902033611ce9565b611623576040517f08c379a00000000000000000000000000000000000000000000000000000000081526004018080602001828103825260168152602001807f43616c6c6572206973206e6f7420696e766573746f720000000000000000000081525060200191505060405180910390fd5b6000600960003373ffffffffffffffffffffffffffffffffffffffff1673ffffffffffffffffffffffffffffffffffffffff16815260200190815260200160002054146116d8576040517f08c379a00000000000000000000000000000000000000000000000000000000081526004018080602001828103825260158152602001807f5661756c7420616c72656164792063726561746564000000000000000000000081525060200191505060405180910390fd5b60006116e4600361321a565b905080600960003373ffffffffffffffffffffffffffffffffffffffff1673ffffffffffffffffffffffffffffffffffffffff1681526020019081526020016000208190555061173261375a565b6040518060800160405280838152602001600081526020013373ffffffffffffffffffffffffffffffffffffffff1681526020016000815250905080600a6000848152602001908152602001600020600082015181600001556020820151816001015560408201518160020160006101000a81548173ffffffffffffffffffffffffffffffffffffffff021916908373ffffffffffffffffffffffffffffffffffffffff160217905550606082015181600301559050506117f36003613010565b813373ffffffffffffffffffffffffffffffffffffffff167f2fc6c3ac0740e97bb7c9a7b06221dafe87b5286c5076d86c8cb78bf1de9bd40a60405160405180910390a35050565b611843613056565b73ffffffffffffffffffffffffffffffffffffffff166000809054906101000a900473ffffffffffffffffffffffffffffffffffffffff1673ffffffffffffffffffffffffffffffffffffffff1614611904576040517f08c379a00000000000000000000000000000000000000000000000000000000081526004018080602001828103825260208152602001807f4f776e61626c653a2063616c6c6572206973206e6f7420746865206f776e657281525060200191505060405180910390fd5b806007819055503373ffffffffffffffffffffffffffffffffffffffff167ff5deac769e4391f28d78f7a013b140c7dbae3a75931f63039d566c556a525ad1826040518082815260200191505060405180910390a250565b611964613056565b73ffffffffffffffffffffffffffffffffffffffff166000809054906101000a900473ffffffffffffffffffffffffffffffffffffffff1673ffffffffffffffffffffffffffffffffffffffff1614611a25576040517f08c379a00000000000000000000000000000000000000000000000000000000081526004018080602001828103825260208152602001807f4f776e61626c653a2063616c6c6572206973206e6f7420746865206f776e657281525060200191505060405180910390fd5b600073ffffffffffffffffffffffffffffffffffffffff166000809054906101000a900473ffffffffffffffffffffffffffffffffffffffff1673ffffffffffffffffffffffffffffffffffffffff167f8be0079c531659141344cd1fd0a4f28419497f9722a3daafe3b4186f6b6457e060405160405180910390a360008060006101000a81548173ffffffffffffffffffffffffffffffffffffffff021916908373ffffffffffffffffffffffffffffffffffffffff160217905550565b60085481565b60405180807f494e564553544f525f524f4c4500000000000000000000000000000000000000815250600d019050604051809103902081565b6000611b2d61375a565b600a600084815260200190815260200160002060405180608001604052908160008201548152602001600182015481526020016002820160009054906101000a900473ffffffffffffffffffffffffffffffffffffffff1673ffffffffffffffffffffffffffffffffffffffff1673ffffffffffffffffffffffffffffffffffffffff1681526020016003820154815250509050600081600001511480611bd8575060008160600151145b15611be65760009150611c38565b611c35611c07611bf461102f565b836060015161322890919063ffffffff16565b611c2768056bc75e2d63100000846020015161322890919063ffffffff16565b6131d090919063ffffffff16565b91505b50919050565b600a6020528060005260406000206000915090508060000154908060010154908060020160009054906101000a900473ffffffffffffffffffffffffffffffffffffffff16908060030154905084565b60008060009054906101000a900473ffffffffffffffffffffffffffffffffffffffff16905090565b6000611ce182600160008681526020019081526020016000206000016132ae90919063ffffffff16565b905092915050565b6000611d1382600160008681526020019081526020016000206000016132c890919063ffffffff16565b905092915050565b600080600080611d2961375a565b600a600087815260200190815260200160002060405180608001604052908160008201548152602001600182015481526020016002820160009054906101000a900473ffffffffffffffffffffffffffffffffffffffff1673ffffffffffffffffffffffffffffffffffffffff1673ffffffffffffffffffffffffffffffffffffffff168152602001600382015481525050905080600001518160200151826040015183606001519450945094509450509193509193565b600460009054906101000a900473ffffffffffffffffffffffffffffffffffffffff1681565b600260009054906101000a900460ff16611e89576040517f08c379a000000000000000000000000000000000000000000000000000000000815260040180806020018281038252601f8152602001807f5265656e7472616e637947756172643a207265656e7472616e742063616c6c0081525060200191505060405180910390fd5b6000600260006101000a81548160ff0219169083151502179055506000600960003373ffffffffffffffffffffffffffffffffffffffff1673ffffffffffffffffffffffffffffffffffffffff168152602001908152602001600020541415611f5a576040517f08c379a00000000000000000000000000000000000000000000000000000000081526004018080602001828103825260108152602001807f4e6f205661756c7420637265617465640000000000000000000000000000000081525060200191505060405180910390fd5b6000600a6000600960003373ffffffffffffffffffffffffffffffffffffffff1673ffffffffffffffffffffffffffffffffffffffff16815260200190815260200160002054815260200190815260200160002090506000611fbb8361237f565b90508082600101541015612037576040517f08c379a00000000000000000000000000000000000000000000000000000000081526004018080602001828103825260158152602001807f4e6f7420656e6f75676820636f6c6c61746572616c000000000000000000000081525060200191505060405180910390fd5b61204e8383600301546132f890919063ffffffff16565b82600301819055506008546120668360000154611b23565b10156120bd576040517f08c379a00000000000000000000000000000000000000000000000000000000081526004018080602001828103825260238152602001806137ea6023913960400191505060405180910390fd5b600460009054906101000a900473ffffffffffffffffffffffffffffffffffffffff1673ffffffffffffffffffffffffffffffffffffffff166340c10f1933856040518363ffffffff1660e01b8152600401808373ffffffffffffffffffffffffffffffffffffffff1673ffffffffffffffffffffffffffffffffffffffff16815260200182815260200192505050600060405180830381600087803b15801561216657600080fd5b505af115801561217a573d6000803e3d6000fd5b5050505081600001543373ffffffffffffffffffffffffffffffffffffffff167fa82a7ea15c804d00dba1b969024b510969fde70fac8e0d5da860cf1f7376d317856040518082815260200191505060405180910390a350506001600260006101000a81548160ff02191690831515021790555050565b6000801b81565b612200613056565b73ffffffffffffffffffffffffffffffffffffffff166000809054906101000a900473ffffffffffffffffffffffffffffffffffffffff1673ffffffffffffffffffffffffffffffffffffffff16146122c1576040517f08c379a00000000000000000000000000000000000000000000000000000000081526004018080602001828103825260208152602001807f4f776e61626c653a2063616c6c6572206973206e6f7420746865206f776e657281525060200191505060405180910390fd5b80600460006101000a81548173ffffffffffffffffffffffffffffffffffffffff021916908373ffffffffffffffffffffffffffffffffffffffff1602179055503373ffffffffffffffffffffffffffffffffffffffff167f64f31c0bdd687daf803f7f5b20218283be476d42c80c7491d11d1de9aeb2374882604051808273ffffffffffffffffffffffffffffffffffffffff1673ffffffffffffffffffffffffffffffffffffffff16815260200191505060405180910390a250565b60008061238a61102f565b90506123ce68056bc75e2d631000006123c06008546123b2878661322890919063ffffffff16565b61322890919063ffffffff16565b6131d090919063ffffffff16565b915050919050565b6123de613056565b73ffffffffffffffffffffffffffffffffffffffff166000809054906101000a900473ffffffffffffffffffffffffffffffffffffffff1673ffffffffffffffffffffffffffffffffffffffff161461249f576040517f08c379a00000000000000000000000000000000000000000000000000000000081526004018080602001828103825260208152602001807f4f776e61626c653a2063616c6c6572206973206e6f7420746865206f776e657281525060200191505060405180910390fd5b806008819055503373ffffffffffffffffffffffffffffffffffffffff167f745333eadc1991720ed6c94ad80c7b81898a7d7ca230f4107bc38eecd95e9e45826040518082815260200191505060405180910390a250565b61253660405180807f494e564553544f525f524f4c4500000000000000000000000000000000000000815250600d019050604051809103902033611ce9565b6125a8576040517f08c379a00000000000000000000000000000000000000000000000000000000081526004018080602001828103825260168152602001807f43616c6c6572206973206e6f7420696e766573746f720000000000000000000081525060200191505060405180910390fd5b600260009054906101000a900460ff1661262a576040517f08c379a000000000000000000000000000000000000000000000000000000000815260040180806020018281038252601f8152602001807f5265656e7472616e637947756172643a207265656e7472616e742063616c6c0081525060200191505060405180910390fd5b6000600260006101000a81548160ff0219169083151502179055506000600960003373ffffffffffffffffffffffffffffffffffffffff1673ffffffffffffffffffffffffffffffffffffffff1681526020019081526020016000205414156126fb576040517f08c379a00000000000000000000000000000000000000000000000000000000081526004018080602001828103825260108152602001807f4e6f205661756c7420637265617465640000000000000000000000000000000081525060200191505060405180910390fd5b600660009054906101000a900473ffffffffffffffffffffffffffffffffffffffff1673ffffffffffffffffffffffffffffffffffffffff166323b872dd3330846040518463ffffffff1660e01b8152600401808473ffffffffffffffffffffffffffffffffffffffff1673ffffffffffffffffffffffffffffffffffffffff1681526020018373ffffffffffffffffffffffffffffffffffffffff1673ffffffffffffffffffffffffffffffffffffffff1681526020018281526020019350505050602060405180830381600087803b1580156127d857600080fd5b505af11580156127ec573d6000803e3d6000fd5b505050506040513d602081101561280257600080fd5b8101908080519060200190929190505050506000600a6000600960003373ffffffffffffffffffffffffffffffffffffffff1673ffffffffffffffffffffffffffffffffffffffff16815260200190815260200160002054815260200190815260200160002090506128818282600101546132f890919063ffffffff16565b816001018190555080600001543373ffffffffffffffffffffffffffffffffffffffff167f31ac33c8e5d32723055870a2be01442545a84680341c886373c957110bc175dc846040518082815260200191505060405180910390a3506001600260006101000a81548160ff02191690831515021790555050565b612903613056565b73ffffffffffffffffffffffffffffffffffffffff166000809054906101000a900473ffffffffffffffffffffffffffffffffffffffff1673ffffffffffffffffffffffffffffffffffffffff16146129c4576040517f08c379a00000000000000000000000000000000000000000000000000000000081526004018080602001828103825260208152602001807f4f776e61626c653a2063616c6c6572206973206e6f7420746865206f776e657281525060200191505060405180910390fd5b80600560006101000a81548173ffffffffffffffffffffffffffffffffffffffff021916908373ffffffffffffffffffffffffffffffffffffffff1602179055503373ffffffffffffffffffffffffffffffffffffffff167f5d19e13c5fcca5f56b1af0f7e4fb4a7a63031196b48f3a411cfbc4ea967ab3be82604051808273ffffffffffffffffffffffffffffffffffffffff1673ffffffffffffffffffffffffffffffffffffffff16815260200191505060405180910390a250565b600660009054906101000a900473ffffffffffffffffffffffffffffffffffffffff1681565b6000612ac860016000848152602001908152602001600020600001613380565b9050919050565b612af66001600084815260200190815260200160002060020154612af1613056565b611ce9565b612b4b576040517f08c379a00000000000000000000000000000000000000000000000000000000081526004018080602001828103825260308152602001806138336030913960400191505060405180910390fd5b612b55828261313c565b5050565b612b61613056565b73ffffffffffffffffffffffffffffffffffffffff166000809054906101000a900473ffffffffffffffffffffffffffffffffffffffff1673ffffffffffffffffffffffffffffffffffffffff1614612c22576040517f08c379a00000000000000000000000000000000000000000000000000000000081526004018080602001828103825260208152602001807f4f776e61626c653a2063616c6c6572206973206e6f7420746865206f776e657281525060200191505060405180910390fd5b612c6160405180807f494e564553544f525f524f4c4500000000000000000000000000000000000000815250600d019050604051809103902082610b0e565b50565b612c6c613056565b73ffffffffffffffffffffffffffffffffffffffff166000809054906101000a900473ffffffffffffffffffffffffffffffffffffffff1673ffffffffffffffffffffffffffffffffffffffff1614612d2d576040517f08c379a00000000000000000000000000000000000000000000000000000000081526004018080602001828103825260208152602001807f4f776e61626c653a2063616c6c6572206973206e6f7420746865206f776e657281525060200191505060405180910390fd5b80600660006101000a81548173ffffffffffffffffffffffffffffffffffffffff021916908373ffffffffffffffffffffffffffffffffffffffff1602179055503373ffffffffffffffffffffffffffffffffffffffff167fc8740b8e1db0dd680a749baa2f7018dd94245006fc3d465c54b32c931144e7b782604051808273ffffffffffffffffffffffffffffffffffffffff1673ffffffffffffffffffffffffffffffffffffffff16815260200191505060405180910390a250565b612df3613056565b73ffffffffffffffffffffffffffffffffffffffff166000809054906101000a900473ffffffffffffffffffffffffffffffffffffffff1673ffffffffffffffffffffffffffffffffffffffff1614612eb4576040517f08c379a00000000000000000000000000000000000000000000000000000000081526004018080602001828103825260208152602001807f4f776e61626c653a2063616c6c6572206973206e6f7420746865206f776e657281525060200191505060405180910390fd5b600073ffffffffffffffffffffffffffffffffffffffff168173ffffffffffffffffffffffffffffffffffffffff161415612f3a576040517f08c379a000000000000000000000000000000000000000000000000000000000815260040180806020018281038252602681526020018061380d6026913960400191505060405180910390fd5b8073ffffffffffffffffffffffffffffffffffffffff166000809054906101000a900473ffffffffffffffffffffffffffffffffffffffff1673ffffffffffffffffffffffffffffffffffffffff167f8be0079c531659141344cd1fd0a4f28419497f9722a3daafe3b4186f6b6457e060405160405180910390a3806000806101000a81548173ffffffffffffffffffffffffffffffffffffffff021916908373ffffffffffffffffffffffffffffffffffffffff16021790555050565b60096020528060005260406000206000915090505481565b6001816000016000828254019250508190555050565b600061304e836000018373ffffffffffffffffffffffffffffffffffffffff1660001b613395565b905092915050565b600033905090565b613086816001600085815260200190815260200160002060000161302690919063ffffffff16565b156130ee57613093613056565b73ffffffffffffffffffffffffffffffffffffffff168173ffffffffffffffffffffffffffffffffffffffff16837f2f8788117e7eff1d82e926ec794901d17c78024a50270940304540a733656f0d60405160405180910390a45b5050565b600061313483836040518060400160405280601e81526020017f536166654d6174683a207375627472616374696f6e206f766572666c6f770000815250613405565b905092915050565b61316481600160008581526020019081526020016000206000016134c590919063ffffffff16565b156131cc57613171613056565b73ffffffffffffffffffffffffffffffffffffffff168173ffffffffffffffffffffffffffffffffffffffff16837ff6391f5c32d9c69d2a47ea670b442974b53935d1edc7fd64eb21e047a839171b60405160405180910390a45b5050565b600061321283836040518060400160405280601a81526020017f536166654d6174683a206469766973696f6e206279207a65726f0000000000008152506134f5565b905092915050565b600081600001549050919050565b60008083141561323b57600090506132a8565b600082840290508284828161324c57fe5b04146132a3576040517f08c379a00000000000000000000000000000000000000000000000000000000081526004018080602001828103825260218152602001806138636021913960400191505060405180910390fd5b809150505b92915050565b60006132bd83600001836135bb565b60001c905092915050565b60006132f0836000018373ffffffffffffffffffffffffffffffffffffffff1660001b61363e565b905092915050565b600080828401905083811015613376576040517f08c379a000000000000000000000000000000000000000000000000000000000815260040180806020018281038252601b8152602001807f536166654d6174683a206164646974696f6e206f766572666c6f77000000000081525060200191505060405180910390fd5b8091505092915050565b600061338e82600001613661565b9050919050565b60006133a1838361363e565b6133fa5782600001829080600181540180825580915050600190039060005260206000200160009091909190915055826000018054905083600101600084815260200190815260200160002081905550600190506133ff565b600090505b92915050565b60008383111582906134b2576040517f08c379a00000000000000000000000000000000000000000000000000000000081526004018080602001828103825283818151815260200191508051906020019080838360005b8381101561347757808201518184015260208101905061345c565b50505050905090810190601f1680156134a45780820380516001836020036101000a031916815260200191505b509250505060405180910390fd5b5060008385039050809150509392505050565b60006134ed836000018373ffffffffffffffffffffffffffffffffffffffff1660001b613672565b905092915050565b600080831182906135a1576040517f08c379a00000000000000000000000000000000000000000000000000000000081526004018080602001828103825283818151815260200191508051906020019080838360005b8381101561356657808201518184015260208101905061354b565b50505050905090810190601f1680156135935780820380516001836020036101000a031916815260200191505b509250505060405180910390fd5b5060008385816135ad57fe5b049050809150509392505050565b60008183600001805490501161361c576040517f08c379a00000000000000000000000000000000000000000000000000000000081526004018080602001828103825260228152602001806137996022913960400191505060405180910390fd5b82600001828154811061362b57fe5b9060005260206000200154905092915050565b600080836001016000848152602001908152602001600020541415905092915050565b600081600001805490509050919050565b6000808360010160008481526020019081526020016000205490506000811461374e57600060018203905060006001866000018054905003905060008660000182815481106136bd57fe5b90600052602060002001549050808760000184815481106136da57fe5b906000526020600020018190555060018301876001016000838152602001908152602001600020819055508660000180548061371257fe5b60019003818190600052602060002001600090559055866001016000878152602001908152602001600020600090556001945050505050613754565b60009150505b92915050565b60405180608001604052806000815260200160008152602001600073ffffffffffffffffffffffffffffffffffffffff16815260200160008152509056fe456e756d657261626c655365743a20696e646578206f7574206f6620626f756e6473416363657373436f6e74726f6c3a2073656e646572206d75737420626520616e2061646d696e20746f206772616e74436f6c6c61746572616c2062656c6f77206d696e20726571756972656420726174696f4f776e61626c653a206e6577206f776e657220697320746865207a65726f2061646472657373416363657373436f6e74726f6c3a2073656e646572206d75737420626520616e2061646d696e20746f207265766f6b65536166654d6174683a206d756c7469706c69636174696f6e206f766572666c6f775472616e73616374696f6e207265766572746564207769746820526574726965766520616d6f756e7420686967686572207468616e20636f6c6c61746572616c416363657373436f6e74726f6c3a2063616e206f6e6c792072656e6f756e636520726f6c657320666f722073656c66a2646970667358221220f503eee8ba7cce3c5873c1d86a5948fe04f5f25a0a73581790442a8a2ebf717764736f6c63430006080033"
}