{
  "address": "0x1b77E4f83dB522536e5C074139e75Ae024C41345",
  "abi": [
    {
      "inputs": [
        {
          "internalType": "address",
          "name": "_owner",
          "type": "address"
        },
        {
          "internalType": "address",
          "name": "_polygonMessenger",
          "type": "address"
        }
      ],
      "stateMutability": "nonpayable",
      "type": "constructor"
    },
    {
      "anonymous": false,
      "inputs": [
        {
          "indexed": true,
          "internalType": "address",
          "name": "previousOwner",
          "type": "address"
        },
        {
          "indexed": true,
          "internalType": "address",
          "name": "newOwner",
          "type": "address"
        }
      ],
      "name": "OwnershipTransferred",
      "type": "event"
    },
    {
      "anonymous": false,
      "inputs": [
        {
          "indexed": true,
          "internalType": "address",
          "name": "target",
          "type": "address"
        },
        {
          "indexed": false,
          "internalType": "uint256",
          "name": "value",
          "type": "uint256"
        },
        {
          "indexed": false,
          "internalType": "string",
          "name": "signature",
          "type": "string"
        },
        {
          "indexed": false,
          "internalType": "bytes",
          "name": "data",
          "type": "bytes"
        }
      ],
      "name": "TransactionExecuted",
      "type": "event"
    },
    {
      "anonymous": false,
      "inputs": [
        {
          "indexed": false,
          "internalType": "contract PolygonL2Messenger",
          "name": "oldPolygonMessenger",
          "type": "address"
        },
        {
          "indexed": false,
          "internalType": "contract PolygonL2Messenger",
          "name": "newPolygonMessenger",
          "type": "address"
        }
      ],
      "name": "UpdatedPolygonMessenger",
      "type": "event"
    },
    {
      "inputs": [
        {
          "internalType": "address",
          "name": "target",
          "type": "address"
        },
        {
          "internalType": "uint256",
          "name": "value",
          "type": "uint256"
        },
        {
          "internalType": "string",
          "name": "signature",
          "type": "string"
        },
        {
          "internalType": "bytes",
          "name": "data",
          "type": "bytes"
        }
      ],
      "name": "executeTransaction",
      "outputs": [
        {
          "internalType": "bytes",
          "name": "",
          "type": "bytes"
        }
      ],
      "stateMutability": "payable",
      "type": "function"
    },
    {
      "inputs": [],
      "name": "owner",
      "outputs": [
        {
          "internalType": "address",
          "name": "",
          "type": "address"
        }
      ],
      "stateMutability": "view",
      "type": "function"
    },
    {
      "inputs": [],
      "name": "polygonMessenger",
      "outputs": [
        {
          "internalType": "contract PolygonL2Messenger",
          "name": "",
          "type": "address"
        }
      ],
      "stateMutability": "view",
      "type": "function"
    },
    {
      "inputs": [],
      "name": "renounceOwnership",
      "outputs": [],
      "stateMutability": "nonpayable",
      "type": "function"
    },
    {
      "inputs": [
        {
          "internalType": "address",
          "name": "_to",
          "type": "address"
        }
      ],
      "name": "retrieveETH",
      "outputs": [],
      "stateMutability": "nonpayable",
      "type": "function"
    },
    {
      "inputs": [
        {
          "internalType": "address",
          "name": "newOwner",
          "type": "address"
        }
      ],
      "name": "transferOwnership",
      "outputs": [],
      "stateMutability": "nonpayable",
      "type": "function"
    },
    {
      "inputs": [
        {
          "internalType": "address",
          "name": "newPolygonMessenger",
          "type": "address"
        }
      ],
      "name": "updatePolygonMessenger",
      "outputs": [],
      "stateMutability": "nonpayable",
      "type": "function"
    },
    {
      "stateMutability": "payable",
      "type": "receive"
    }
  ],
  "transactionHash": "0xbbd2bd233fece75e794ed63295204e52ad392403a1337602f46823a55ec325e6",
  "args": [
    "0x15A149958B48dC899FB005e38ef9C1445A1CB6E3",
    "0xB1B50029de9deFC4ebE6ac1BAeB8fF15d1e46a02"
  ],
  "solcInputHash": "21d2302792d9dd0dfff5b9f691cd70b9",
  "bytecode": "0x608060405234801561001057600080fd5b50604051610f61380380610f618339818101604052604081101561003357600080fd5b50805160209091015181806001600160a01b0381166100835760405162461bcd60e51b815260040180806020018281038252602e815260200180610f33602e913960400191505060405180910390fd5b600080546001600160a01b0319166001600160a01b0383811691909117808355604051911691907f8be0079c531659141344cd1fd0a4f28419497f9722a3daafe3b4186f6b6457e0908290a350506001600160a01b0381166101165760405162461bcd60e51b8152600401808060200182810382526033815260200180610f006033913960400191505060405180910390fd5b600180546001600160a01b0319166001600160a01b039290921691909117905550610dba806101466000396000f3fe6080604052600436106100745760003560e01c8063715018a61161004e578063715018a61461029d5780638da5cb5b146102b25780639793f45e146102c7578063f2fde38b146102fa5761007b565b806310a76fb1146100805780632224fa25146100b5578063500199a21461026c5761007b565b3661007b57005b600080fd5b34801561008c57600080fd5b506100b3600480360360208110156100a357600080fd5b50356001600160a01b031661032d565b005b6101f7600480360360808110156100cb57600080fd5b6001600160a01b03823516916020810135918101906060810160408201356401000000008111156100fb57600080fd5b82018360208201111561010d57600080fd5b8035906020019184600183028401116401000000008311171561012f57600080fd5b91908080601f016020809104026020016040519081016040528093929190818152602001838380828437600092019190915250929594936020810193503591505064010000000081111561018257600080fd5b82018360208201111561019457600080fd5b803590602001918460018302840111640100000000831117156101b657600080fd5b91908080601f016020809104026020016040519081016040528093929190818152602001838380828437600092019190915250929550610482945050505050565b6040805160208082528351818301528351919283929083019185019080838360005b83811015610231578181015183820152602001610219565b50505050905090810190601f16801561025e5780820380516001836020036101000a031916815260200191505b509250505060405180910390f35b34801561027857600080fd5b50610281610837565b604080516001600160a01b039092168252519081900360200190f35b3480156102a957600080fd5b506100b3610846565b3480156102be57600080fd5b50610281610963565b3480156102d357600080fd5b506100b3600480360360208110156102ea57600080fd5b50356001600160a01b0316610972565b34801561030657600080fd5b506100b36004803603602081101561031d57600080fd5b50356001600160a01b0316610af4565b6001546001600160a01b0316331480156103c5575060005460015460408051636e296e4560e01b815290516001600160a01b039384169390921691636e296e4591600480820192602092909190829003018186803b15801561038e57600080fd5b505afa1580156103a2573d6000803e3d6000fd5b505050506040513d60208110156103b857600080fd5b50516001600160a01b0316145b6104005760405162461bcd60e51b8152600401808060200182810382526028815260200180610cfc6028913960400191505060405180910390fd5b6001600160a01b0381166104455760405162461bcd60e51b815260040180806020018281038252602d815260200180610ccf602d913960400191505060405180910390fd5b60405147906001600160a01b0383169082156108fc029083906000818181858888f1935050505015801561047d573d6000803e3d6000fd5b505050565b6001546060906001600160a01b03163314801561051d575060005460015460408051636e296e4560e01b815290516001600160a01b039384169390921691636e296e4591600480820192602092909190829003018186803b1580156104e657600080fd5b505afa1580156104fa573d6000803e3d6000fd5b505050506040513d602081101561051057600080fd5b50516001600160a01b0316145b6105585760405162461bcd60e51b8152600401808060200182810382526028815260200180610cfc6028913960400191505060405180910390fd5b606083516000141561056b5750816105ee565b83805190602001208360405160200180836001600160e01b031916815260040182805190602001908083835b602083106105b65780518252601f199092019160209182019101610597565b6001836020036101000a0380198251168184511680821785525050505050509050019250505060405160208183030381529060405290505b6001600160a01b0386166106335760405162461bcd60e51b8152600401808060200182810382526033815260200180610d246033913960400191505060405180910390fd5b60006060876001600160a01b031687846040518082805190602001908083835b602083106106725780518252601f199092019160209182019101610653565b6001836020036101000a03801982511681845116808217855250505050505090500191505060006040518083038185875af1925050503d80600081146106d4576040519150601f19603f3d011682016040523d82523d6000602084013e6106d9565b606091505b50915091508161071a5760405162461bcd60e51b815260040180806020018281038252603e815260200180610c68603e913960400191505060405180910390fd5b876001600160a01b03167f02351f450e2fc766dda692922cd0e080a07d702d68757f2154bf686ee052be6e888888604051808481526020018060200180602001838103835285818151815260200191508051906020019080838360005b8381101561078f578181015183820152602001610777565b50505050905090810190601f1680156107bc5780820380516001836020036101000a031916815260200191505b50838103825284518152845160209182019186019080838360005b838110156107ef5781810151838201526020016107d7565b50505050905090810190601f16801561081c5780820380516001836020036101000a031916815260200191505b509550505050505060405180910390a2979650505050505050565b6001546001600160a01b031681565b6001546001600160a01b0316331480156108de575060005460015460408051636e296e4560e01b815290516001600160a01b039384169390921691636e296e4591600480820192602092909190829003018186803b1580156108a757600080fd5b505afa1580156108bb573d6000803e3d6000fd5b505050506040513d60208110156108d157600080fd5b50516001600160a01b0316145b6109195760405162461bcd60e51b8152600401808060200182810382526028815260200180610cfc6028913960400191505060405180910390fd5b600080546040516001600160a01b03909116907f8be0079c531659141344cd1fd0a4f28419497f9722a3daafe3b4186f6b6457e0908390a3600080546001600160a01b0319169055565b6000546001600160a01b031681565b6001546001600160a01b031633148015610a0a575060005460015460408051636e296e4560e01b815290516001600160a01b039384169390921691636e296e4591600480820192602092909190829003018186803b1580156109d357600080fd5b505afa1580156109e7573d6000803e3d6000fd5b505050506040513d60208110156109fd57600080fd5b50516001600160a01b0316145b610a455760405162461bcd60e51b8152600401808060200182810382526028815260200180610cfc6028913960400191505060405180910390fd5b6001600160a01b038116610a8a5760405162461bcd60e51b815260040180806020018281038252602e815260200180610d57602e913960400191505060405180910390fd5b600154604080516001600160a01b039283168152918316602083015280517fc6aae698437b640e0d7047108dcb6ed23997f4ebe68bb452512d449b1ec778519281900390910190a1600180546001600160a01b0319166001600160a01b0392909216919091179055565b6001546001600160a01b031633148015610b8c575060005460015460408051636e296e4560e01b815290516001600160a01b039384169390921691636e296e4591600480820192602092909190829003018186803b158015610b5557600080fd5b505afa158015610b69573d6000803e3d6000fd5b505050506040513d6020811015610b7f57600080fd5b50516001600160a01b0316145b610bc75760405162461bcd60e51b8152600401808060200182810382526028815260200180610cfc6028913960400191505060405180910390fd5b6001600160a01b038116610c0c5760405162461bcd60e51b8152600401808060200182810382526029815260200180610ca66029913960400191505060405180910390fd5b600080546040516001600160a01b03808516939216917f8be0079c531659141344cd1fd0a4f28419497f9722a3daafe3b4186f6b6457e091a3600080546001600160a01b0319166001600160a01b039290921691909117905556fe4954726561737572793a3a657865637574655472616e73616374696f6e3a205472616e73616374696f6e20657865637574696f6e2072657665727465642e50726f70726965746f723a206e6577206f776e657220697320746865207a65726f20616464726573734954726561737572793a3a72657472696576654554483a20616464726573732063616e2774206265207a65726f506f6c79676f6e54726561737572793a2063616c6c6572206973206e6f7420746865206f776e65724954726561737572793a3a657865637574655472616e73616374696f6e3a207461726765742063616e2774206265207a65726f506f6c79676f6e54726561737572793a206e6577206f776e657220697320746865207a65726f2061646472657373a2646970667358221220384ff7b109af6748f4c3d81c409faf6b2ed336c985a6de271d774011189499a064736f6c63430007050033506f6c79676f6e54726561737572793a3a636f6e7374727563746f723a20616464726573732063616e2774206265207a65726f50726f70726965746f723a3a636f6e7374727563746f723a20616464726573732063616e2774206265207a65726f",
  "devdoc": {
    "author": "Cryptex.finance",
    "kind": "dev",
    "methods": {
      "constructor": {
        "params": {
          "_owner": "the owner of the contract",
          "_polygonMessenger": "address of the polygon PolygonL2Messenger"
        }
      },
      "executeTransaction(address,uint256,string,bytes)": {
        "details": "Only owner can call it",
        "params": {
          "data": "bytes",
          "signature": "string",
          "target": "address",
          "value": "uint256"
        }
      },
      "renounceOwnership()": {
        "details": "Leaves the contract without owner. It will not be possible to call `onlyOwner` functions anymore. Can only be called by the current owner. NOTE: Renouncing ownership will leave the contract without an owner, thereby removing any functionality that is only available to the owner."
      },
      "retrieveETH(address)": {
        "details": "Only owner can call it",
        "params": {
          "_to": "address"
        }
      },
      "transferOwnership(address)": {
        "details": "Transfers ownership of the contract to a new account (`newOwner`). Can only be called by the current owner."
      },
      "updatePolygonMessenger(address)": {
        "params": {
          "newPolygonMessenger": "address of the new PolygonL2Messenger contract*"
        }
      }
    },
    "title": "TCAP Polygon Treasury",
    "version": 1
  },
  "userdoc": {
    "events": {
      "TransactionExecuted(address,uint256,string,bytes)": {
        "notice": "An event emitted when a transaction is executed"
      },
      "UpdatedPolygonMessenger(address,address)": {
        "notice": "event emitted when polygonMessenger is updated."
      }
    },
    "kind": "user",
    "methods": {
      "constructor": {
        "notice": "Constructor"
      },
      "executeTransaction(address,uint256,string,bytes)": {
        "notice": "Allows the owner to execute custom transactions"
      },
      "polygonMessenger()": {
        "notice": "Address of the polygonMessenger contract."
      },
      "retrieveETH(address)": {
        "notice": "Retrieves the eth stuck on the treasury"
      },
      "updatePolygonMessenger(address)": {
        "notice": "updates the polygonMessenger instance"
      }
    },
    "notice": "This contract will hold the assets generated by the polygon network.",
    "version": 1
  },
  "storageLayout": {
    "storage": [
      {
        "astId": 7130,
        "contract": "contracts/polygon/PolygonTreasury.sol:PolygonTreasury",
        "label": "owner",
        "offset": 0,
        "slot": "0",
        "type": "t_address"
      },
      {
        "astId": 11541,
        "contract": "contracts/polygon/PolygonTreasury.sol:PolygonTreasury",
        "label": "polygonMessenger",
        "offset": 0,
        "slot": "1",
        "type": "t_contract(PolygonL2Messenger)11429"
      }
    ],
    "types": {
      "t_address": {
        "encoding": "inplace",
        "label": "address",
        "numberOfBytes": "20"
      },
      "t_contract(PolygonL2Messenger)11429": {
        "encoding": "inplace",
        "label": "contract PolygonL2Messenger",
        "numberOfBytes": "20"
      }
    }
  }
}