{
  "address": "0xB1B50029de9deFC4ebE6ac1BAeB8fF15d1e46a02",
  "abi": [
    {
      "inputs": [
        {
          "internalType": "address",
          "name": "_fxRootSender",
          "type": "address"
        },
        {
          "internalType": "address",
          "name": "_fxChild",
          "type": "address"
        }
      ],
      "stateMutability": "nonpayable",
      "type": "constructor"
    },
    {
      "anonymous": false,
      "inputs": [
        {
          "indexed": false,
          "internalType": "address",
          "name": "previousFxChild",
          "type": "address"
        },
        {
          "indexed": false,
          "internalType": "address",
          "name": "newFxChild",
          "type": "address"
        }
      ],
      "name": "FxChildUpdate",
      "type": "event"
    },
    {
      "anonymous": false,
      "inputs": [
        {
          "indexed": false,
          "internalType": "address",
          "name": "previousFxRootSender",
          "type": "address"
        },
        {
          "indexed": false,
          "internalType": "address",
          "name": "newFxRootSender",
          "type": "address"
        }
      ],
      "name": "FxRootSenderUpdate",
      "type": "event"
    },
    {
      "inputs": [],
      "name": "fxChild",
      "outputs": [
        {
          "internalType": "address",
          "name": "",
          "type": "address"
        }
      ],
      "stateMutability": "view",
      "type": "function"
    },
    {
      "inputs": [],
      "name": "fxRootSender",
      "outputs": [
        {
          "internalType": "address",
          "name": "",
          "type": "address"
        }
      ],
      "stateMutability": "view",
      "type": "function"
    },
    {
      "inputs": [
        {
          "internalType": "uint256",
          "name": "",
          "type": "uint256"
        },
        {
          "internalType": "address",
          "name": "rootMessageSender",
          "type": "address"
        },
        {
          "internalType": "bytes",
          "name": "data",
          "type": "bytes"
        }
      ],
      "name": "processMessageFromRoot",
      "outputs": [],
      "stateMutability": "nonpayable",
      "type": "function"
    },
    {
      "inputs": [
        {
          "internalType": "address",
          "name": "_fxChild",
          "type": "address"
        }
      ],
      "name": "updateFxChild",
      "outputs": [],
      "stateMutability": "nonpayable",
      "type": "function"
    },
    {
      "inputs": [
        {
          "internalType": "address",
          "name": "_fxRootSender",
          "type": "address"
        }
      ],
      "name": "updateFxRootSender",
      "outputs": [],
      "stateMutability": "nonpayable",
      "type": "function"
    },
    {
      "inputs": [],
      "name": "xDomainMessageSender",
      "outputs": [
        {
          "internalType": "address",
          "name": "",
          "type": "address"
        }
      ],
      "stateMutability": "view",
      "type": "function"
    },
    {
      "inputs": [],
      "name": "xDomainMsgSender",
      "outputs": [
        {
          "internalType": "address",
          "name": "",
          "type": "address"
        }
      ],
      "stateMutability": "view",
      "type": "function"
    }
  ],
  "transactionHash": "0x8527e61fb698da9d415d588899b7e5cdb2df253b293a8ee1150ce3f0f546c809",
  "args": [
    "0x570f581D23a2AB09FD1990279D9DB6f5DcE18F4A",
    "0xCf73231F28B7331BBe3124B907840A94851f9f11"
  ],
  "solcInputHash": "21d2302792d9dd0dfff5b9f691cd70b9",
  "bytecode": "0x6080604052600380546001600160a01b03191661dead17905534801561002457600080fd5b506040516108e93803806108e98339818101604052604081101561004757600080fd5b5080516020909101516001600081905580546001600160a01b039384166001600160a01b03199182161790915560028054939092169216919091179055610856806100936000396000f3fe608060405234801561001057600080fd5b506004361061007d5760003560e01c80636e296e451161005b5780636e296e45146100b65780639a7c4b71146100be578063dc7571a114610145578063f5635d201461016b5761007d565b806304c59ec1146100825780631543a2b3146100a6578063450d11f0146100ae575b600080fd5b61008a610191565b604080516001600160a01b039092168252519081900360200190f35b61008a6101a0565b61008a6101af565b61008a6101be565b610143600480360360608110156100d457600080fd5b8135916001600160a01b036020820135169181019060608101604082013564010000000081111561010457600080fd5b82018360208201111561011657600080fd5b8035906020019184600183028401116401000000008311171561013857600080fd5b509092509050610233565b005b6101436004803603602081101561015b57600080fd5b50356001600160a01b031661052b565b6101436004803603602081101561018157600080fd5b50356001600160a01b031661062e565b6001546001600160a01b031681565b6003546001600160a01b031681565b6002546001600160a01b031681565b6003546000906001600160a01b031661dead1415610223576040805162461bcd60e51b815260206004820152601f60248201527f78446f6d61696e4d65737361676553656e646572206973206e6f742073657400604482015290519081900360640190fd5b506003546001600160a01b031690565b6002600054141561028b576040805162461bcd60e51b815260206004820152601f60248201527f5265656e7472616e637947756172643a207265656e7472616e742063616c6c00604482015290519081900360640190fd5b60026000819055546001600160a01b031633146102ef576040805162461bcd60e51b815260206004820152601960248201527f554e415554484f52495a45445f4348494c445f4f524947494e00000000000000604482015290519081900360640190fd5b6001546001600160a01b0384811691161461033b5760405162461bcd60e51b81526004018080602001828103825260438152602001806107de6043913960600191505060405180910390fd5b600060608383604081101561034f57600080fd5b6001600160a01b03823516919081019060408101602082013564010000000081111561037a57600080fd5b82018360208201111561038c57600080fd5b803590602001918460018302840111640100000000831117156103ae57600080fd5b91908080601f016020809104026020016040519081016040528093929190818152602001838380828437600081840152601f19601f8201169050808301925050505050505091929192905050509150915084600360006101000a8154816001600160a01b0302191690836001600160a01b031602179055506000826001600160a01b0316826040518082805190602001908083835b602083106104625780518252601f199092019160209182019101610443565b6001836020036101000a0380198251168184511680821785525050505050509050019150506000604051808303816000865af19150503d80600081146104c4576040519150601f19603f3d011682016040523d82523d6000602084013e6104c9565b606091505b5050600380546001600160a01b03191661dead17905590508061051d5760405162461bcd60e51b81526004018080602001828103825260478152602001806107676047913960600191505060405180910390fd5b505060016000555050505050565b33301461057f576040805162461bcd60e51b815260206004820152601d60248201527f554e415554484f52495a45445f4f524947494e5f4f4e4c595f54484953000000604482015290519081900360640190fd5b6001600160a01b0381166105c45760405162461bcd60e51b81526004018080602001828103825260358152602001806107326035913960400191505060405180910390fd5b600154604080516001600160a01b039283168152918316602083015280517fc2614f76a98d7d78c7f43ee7d2a00d2e27d46ac1182930019fba7fa81d5071ed9281900390910190a1600180546001600160a01b0319166001600160a01b0392909216919091179055565b333014610682576040805162461bcd60e51b815260206004820152601d60248201527f554e415554484f52495a45445f4f524947494e5f4f4e4c595f54484953000000604482015290519081900360640190fd5b6001600160a01b0381166106c75760405162461bcd60e51b81526004018080602001828103825260308152602001806107ae6030913960400191505060405180910390fd5b600254604080516001600160a01b039283168152918316602083015280517f5f351a861f38c63b3d6a956408ed6a02bd6976bf9ed7fbabdb9dd0c55603162a9281900390910190a1600280546001600160a01b0319166001600160a01b039290921691909117905556fe506f6c79676f6e4c324d657373656e6765723a205f6678526f6f7453656e64657220697320746865207a65726f2061646472657373506f6c79676f6e4c324d657373656e6765723a3a70726f636573734d65737361676546726f6d526f6f743a204d65737361676520657865637574696f6e2072657665727465642e506f6c79676f6e4c324d657373656e6765723a205f66784368696c6420697320746865207a65726f2061646472657373506f6c79676f6e4c324d657373656e6765723a3a70726f636573734d65737361676546726f6d526f6f743a554e415554484f52495a45445f524f4f545f4f524947494ea2646970667358221220d06eb933c1f7d4a986307773a08c2c95ae11eed74b5e50c54ad0a0163532d78f64736f6c63430007050033",
  "devdoc": {
    "kind": "dev",
    "methods": {
      "updateFxChild(address)": {
        "details": "Update the address of the FxChild contract",
        "params": {
          "_fxChild": "the address of the contract used to foward cross-chain transactions on Polygon*"
        }
      },
      "updateFxRootSender(address)": {
        "details": "Update the expected address of contract originating from a cross-chain transaction",
        "params": {
          "_fxRootSender": "contract originating a cross-chain transaction- likely the cryptex timelock*"
        }
      },
      "xDomainMessageSender()": {
        "details": "Get the xDomainMsgSender address",
        "returns": {
          "_0": "xDomainMsgSender the address that sent the cross-domain transaction*"
        }
      }
    },
    "version": 1
  },
  "userdoc": {
    "events": {
      "FxChildUpdate(address,address)": {
        "notice": "An event emitted when the fxChild is updated"
      },
      "FxRootSenderUpdate(address,address)": {
        "notice": "An event emitted when the fxRootSender is updated"
      }
    },
    "kind": "user",
    "methods": {
      "fxChild()": {
        "notice": "Address of the polygon FxChild contract."
      },
      "fxRootSender()": {
        "notice": "Address of the contract that is allowed to make calls to this contract."
      },
      "xDomainMsgSender()": {
        "notice": "temporarily stores the cross domain sender address when processMessageFromRoot is called"
      }
    },
    "version": 1
  },
  "storageLayout": {
    "storage": [
      {
        "astId": 2509,
        "contract": "contracts/polygon/PolygonL2Messenger.sol:PolygonL2Messenger",
        "label": "_status",
        "offset": 0,
        "slot": "0",
        "type": "t_uint256"
      },
      {
        "astId": 11230,
        "contract": "contracts/polygon/PolygonL2Messenger.sol:PolygonL2Messenger",
        "label": "fxRootSender",
        "offset": 0,
        "slot": "1",
        "type": "t_address"
      },
      {
        "astId": 11233,
        "contract": "contracts/polygon/PolygonL2Messenger.sol:PolygonL2Messenger",
        "label": "fxChild",
        "offset": 0,
        "slot": "2",
        "type": "t_address"
      },
      {
        "astId": 11254,
        "contract": "contracts/polygon/PolygonL2Messenger.sol:PolygonL2Messenger",
        "label": "xDomainMsgSender",
        "offset": 0,
        "slot": "3",
        "type": "t_address"
      }
    ],
    "types": {
      "t_address": {
        "encoding": "inplace",
        "label": "address",
        "numberOfBytes": "20"
      },
      "t_uint256": {
        "encoding": "inplace",
        "label": "uint256",
        "numberOfBytes": "32"
      }
    }
  }
}