{
  "abi": [
    {
      "inputs": [
        {
          "internalType": "address",
          "name": "_aggregator",
          "type": "address"
        }
      ],
      "stateMutability": "nonpayable",
      "type": "constructor"
    },
    {
      "anonymous": false,
      "inputs": [
        {
          "indexed": true,
          "internalType": "address",
          "name": "previousOwner",
          "type": "address"
        },
        {
          "indexed": true,
          "internalType": "address",
          "name": "newOwner",
          "type": "address"
        }
      ],
      "name": "OwnershipTransferred",
      "type": "event"
    },
    {
      "inputs": [],
      "name": "getLatestAnswer",
      "outputs": [
        {
          "internalType": "uint256",
          "name": "",
          "type": "uint256"
        }
      ],
      "stateMutability": "view",
      "type": "function"
    },
    {
      "inputs": [],
      "name": "getLatestTimestamp",
      "outputs": [
        {
          "internalType": "uint256",
          "name": "",
          "type": "uint256"
        }
      ],
      "stateMutability": "view",
      "type": "function"
    },
    {
      "inputs": [
        {
          "internalType": "uint256",
          "name": "_back",
          "type": "uint256"
        }
      ],
      "name": "getPreviousAnswer",
      "outputs": [
        {
          "internalType": "int256",
          "name": "",
          "type": "int256"
        }
      ],
      "stateMutability": "view",
      "type": "function"
    },
    {
      "inputs": [
        {
          "internalType": "uint256",
          "name": "_back",
          "type": "uint256"
        }
      ],
      "name": "getPreviousTimestamp",
      "outputs": [
        {
          "internalType": "uint256",
          "name": "",
          "type": "uint256"
        }
      ],
      "stateMutability": "view",
      "type": "function"
    },
    {
      "inputs": [],
      "name": "owner",
      "outputs": [
        {
          "internalType": "address",
          "name": "",
          "type": "address"
        }
      ],
      "stateMutability": "view",
      "type": "function"
    },
    {
      "inputs": [],
      "name": "renounceOwnership",
      "outputs": [],
      "stateMutability": "nonpayable",
      "type": "function"
    },
    {
      "inputs": [
        {
          "internalType": "address",
          "name": "_aggregator",
          "type": "address"
        }
      ],
      "name": "setReferenceContract",
      "outputs": [],
      "stateMutability": "nonpayable",
      "type": "function"
    },
    {
      "inputs": [
        {
          "internalType": "address",
          "name": "newOwner",
          "type": "address"
        }
      ],
      "name": "transferOwnership",
      "outputs": [],
      "stateMutability": "nonpayable",
      "type": "function"
    }
  ],
  "address": "0x7CD98f9932A25dADc305EC3C9f7B9e1c5783D578",
  "args": [
    "0x5498BB86BC934c8D34FDA08E81D444153d0D06aD"
  ],
  "bytecode": "0x608060405234801561001057600080fd5b506040516108a83803806108a88339818101604052602081101561003357600080fd5b505160006100486001600160e01b036100b716565b600080546001600160a01b0319166001600160a01b0383169081178255604051929350917f8be0079c531659141344cd1fd0a4f28419497f9722a3daafe3b4186f6b6457e0908290a350600180546001600160a01b0319166001600160a01b03929092169190911790556100bb565b3390565b6107de806100ca6000396000f3fe608060405234801561001057600080fd5b50600436106100885760003560e01c806396237c021161005b57806396237c0214610110578063d8d7e95014610118578063f2fde38b14610135578063f43b52cb1461015b57610088565b8063038921251461008d5780633cf8a697146100bc578063715018a6146100e45780638da5cb5b146100ec575b600080fd5b6100aa600480360360208110156100a357600080fd5b5035610163565b60408051918252519081900360200190f35b6100e2600480360360208110156100d257600080fd5b50356001600160a01b03166102ac565b005b6100e2610338565b6100f46103ec565b604080516001600160a01b039092168252519081900360200190f35b6100aa6103fb565b6100aa6004803603602081101561012e57600080fd5b503561048d565b6100e26004803603602081101561014b57600080fd5b50356001600160a01b03166105a3565b6100aa6106ad565b600080600160009054906101000a90046001600160a01b03166001600160a01b031663668a0f026040518163ffffffff1660e01b815260040160206040518083038186803b1580156101b457600080fd5b505afa1580156101c8573d6000803e3d6000fd5b505050506040513d60208110156101de57600080fd5b505190508083111561022c576040805162461bcd60e51b81526020600482015260126024820152714e6f7420656e6f75676820686973746f727960701b604482015290519081900360640190fd5b60015460408051632d8cd88360e21b8152858403600482015290516001600160a01b039092169163b633620c91602480820192602092909190829003018186803b15801561027957600080fd5b505afa15801561028d573d6000803e3d6000fd5b505050506040513d60208110156102a357600080fd5b50519392505050565b6102b4610723565b6000546001600160a01b03908116911614610316576040805162461bcd60e51b815260206004820181905260248201527f4f776e61626c653a2063616c6c6572206973206e6f7420746865206f776e6572604482015290519081900360640190fd5b600180546001600160a01b0319166001600160a01b0392909216919091179055565b610340610723565b6000546001600160a01b039081169116146103a2576040805162461bcd60e51b815260206004820181905260248201527f4f776e61626c653a2063616c6c6572206973206e6f7420746865206f776e6572604482015290519081900360640190fd5b600080546040516001600160a01b03909116907f8be0079c531659141344cd1fd0a4f28419497f9722a3daafe3b4186f6b6457e0908390a3600080546001600160a01b0319169055565b6000546001600160a01b031690565b600080610487600160009054906101000a90046001600160a01b03166001600160a01b03166350d25bcd6040518163ffffffff1660e01b815260040160206040518083038186803b15801561044f57600080fd5b505afa158015610463573d6000803e3d6000fd5b505050506040513d602081101561047957600080fd5b50516402540be40002610727565b91505090565b600080600160009054906101000a90046001600160a01b03166001600160a01b031663668a0f026040518163ffffffff1660e01b815260040160206040518083038186803b1580156104de57600080fd5b505afa1580156104f2573d6000803e3d6000fd5b505050506040513d602081101561050857600080fd5b5051905080831115610556576040805162461bcd60e51b81526020600482015260126024820152714e6f7420656e6f75676820686973746f727960701b604482015290519081900360640190fd5b60015460408051632d6ad63760e21b8152858403600482015290516001600160a01b039092169163b5ab58dc91602480820192602092909190829003018186803b15801561027957600080fd5b6105ab610723565b6000546001600160a01b0390811691161461060d576040805162461bcd60e51b815260206004820181905260248201527f4f776e61626c653a2063616c6c6572206973206e6f7420746865206f776e6572604482015290519081900360640190fd5b6001600160a01b0381166106525760405162461bcd60e51b81526004018080602001828103825260268152602001806107836026913960400191505060405180910390fd5b600080546040516001600160a01b03808516939216917f8be0079c531659141344cd1fd0a4f28419497f9722a3daafe3b4186f6b6457e091a3600080546001600160a01b0319166001600160a01b0392909216919091179055565b60015460408051634102dfb560e11b815290516000926001600160a01b031691638205bf6a916004808301926020929190829003018186803b1580156106f257600080fd5b505afa158015610706573d6000803e3d6000fd5b505050506040513d602081101561071c57600080fd5b5051905090565b3390565b60008082121561077e576040805162461bcd60e51b815260206004820181905260248201527f53616665436173743a2076616c7565206d75737420626520706f736974697665604482015290519081900360640190fd5b509056fe4f776e61626c653a206e6577206f776e657220697320746865207a65726f2061646472657373a26469706673582212200794b7895d64706a15ca77aa9255f1d808c2d96108f5ec9d3b46c3b68bb7dcc364736f6c63430006080033"
}