{
  "abi": [
    {
      "inputs": [
        {
          "internalType": "contract Orchestrator",
          "name": "orchestrator",
          "type": "address"
        }
      ],
      "stateMutability": "nonpayable",
      "type": "constructor"
    },
    {
      "anonymous": false,
      "inputs": [
        {
          "indexed": true,
          "internalType": "address",
          "name": "_owner",
          "type": "address"
        },
        {
          "indexed": true,
          "internalType": "uint256",
          "name": "_id",
          "type": "uint256"
        },
        {
          "indexed": false,
          "internalType": "uint256",
          "name": "_amount",
          "type": "uint256"
        }
      ],
      "name": "LogAddCollateral",
      "type": "event"
    },
    {
      "anonymous": false,
      "inputs": [
        {
          "indexed": true,
          "internalType": "address",
          "name": "_owner",
          "type": "address"
        },
        {
          "indexed": true,
          "internalType": "uint256",
          "name": "_id",
          "type": "uint256"
        },
        {
          "indexed": false,
          "internalType": "uint256",
          "name": "_amount",
          "type": "uint256"
        }
      ],
      "name": "LogBurn",
      "type": "event"
    },
    {
      "anonymous": false,
      "inputs": [
        {
          "indexed": true,
          "internalType": "address",
          "name": "_owner",
          "type": "address"
        },
        {
          "indexed": true,
          "internalType": "uint256",
          "name": "_id",
          "type": "uint256"
        }
      ],
      "name": "LogCreateVault",
      "type": "event"
    },
    {
      "anonymous": false,
      "inputs": [
        {
          "indexed": true,
          "internalType": "uint256",
          "name": "_vaultId",
          "type": "uint256"
        },
        {
          "indexed": true,
          "internalType": "address",
          "name": "_liquidator",
          "type": "address"
        },
        {
          "indexed": false,
          "internalType": "uint256",
          "name": "_liquidationCollateral",
          "type": "uint256"
        },
        {
          "indexed": false,
          "internalType": "uint256",
          "name": "_reward",
          "type": "uint256"
        }
      ],
      "name": "LogLiquidateVault",
      "type": "event"
    },
    {
      "anonymous": false,
      "inputs": [
        {
          "indexed": true,
          "internalType": "address",
          "name": "_owner",
          "type": "address"
        },
        {
          "indexed": true,
          "internalType": "uint256",
          "name": "_id",
          "type": "uint256"
        },
        {
          "indexed": false,
          "internalType": "uint256",
          "name": "_amount",
          "type": "uint256"
        }
      ],
      "name": "LogMint",
      "type": "event"
    },
    {
      "anonymous": false,
      "inputs": [
        {
          "indexed": true,
          "internalType": "address",
          "name": "_owner",
          "type": "address"
        },
        {
          "indexed": true,
          "internalType": "uint256",
          "name": "_id",
          "type": "uint256"
        },
        {
          "indexed": false,
          "internalType": "uint256",
          "name": "_amount",
          "type": "uint256"
        }
      ],
      "name": "LogRemoveCollateral",
      "type": "event"
    },
    {
      "anonymous": false,
      "inputs": [
        {
          "indexed": true,
          "internalType": "address",
          "name": "_owner",
          "type": "address"
        },
        {
          "indexed": false,
          "internalType": "uint256",
          "name": "_amount",
          "type": "uint256"
        }
      ],
      "name": "LogRetrieveFees",
      "type": "event"
    },
    {
      "anonymous": false,
      "inputs": [
        {
          "indexed": true,
          "internalType": "address",
          "name": "_owner",
          "type": "address"
        },
        {
          "indexed": false,
          "internalType": "uint256",
          "name": "_burnFee",
          "type": "uint256"
        }
      ],
      "name": "LogSetBurnFee",
      "type": "event"
    },
    {
      "anonymous": false,
      "inputs": [
        {
          "indexed": true,
          "internalType": "address",
          "name": "_owner",
          "type": "address"
        },
        {
          "indexed": false,
          "internalType": "contract IERC20",
          "name": "_collateralContract",
          "type": "address"
        }
      ],
      "name": "LogSetCollateralContract",
      "type": "event"
    },
    {
      "anonymous": false,
      "inputs": [
        {
          "indexed": true,
          "internalType": "address",
          "name": "_owner",
          "type": "address"
        },
        {
          "indexed": false,
          "internalType": "contract ChainlinkOracle",
          "name": "_priceOracle",
          "type": "address"
        }
      ],
      "name": "LogSetCollateralPriceOracle",
      "type": "event"
    },
    {
      "anonymous": false,
      "inputs": [
        {
          "indexed": true,
          "internalType": "address",
          "name": "_owner",
          "type": "address"
        },
        {
          "indexed": false,
          "internalType": "uint256",
          "name": "_divisor",
          "type": "uint256"
        }
      ],
      "name": "LogSetDivisor",
      "type": "event"
    },
    {
      "anonymous": false,
      "inputs": [
        {
          "indexed": true,
          "internalType": "address",
          "name": "_owner",
          "type": "address"
        },
        {
          "indexed": false,
          "internalType": "contract ChainlinkOracle",
          "name": "_priceOracle",
          "type": "address"
        }
      ],
      "name": "LogSetETHPriceOracle",
      "type": "event"
    },
    {
      "anonymous": false,
      "inputs": [
        {
          "indexed": true,
          "internalType": "address",
          "name": "_owner",
          "type": "address"
        },
        {
          "indexed": false,
          "internalType": "uint256",
          "name": "_liquidationPenalty",
          "type": "uint256"
        }
      ],
      "name": "LogSetLiquidationPenalty",
      "type": "event"
    },
    {
      "anonymous": false,
      "inputs": [
        {
          "indexed": true,
          "internalType": "address",
          "name": "_owner",
          "type": "address"
        },
        {
          "indexed": false,
          "internalType": "uint256",
          "name": "_ratio",
          "type": "uint256"
        }
      ],
      "name": "LogSetRatio",
      "type": "event"
    },
    {
      "anonymous": false,
      "inputs": [
        {
          "indexed": true,
          "internalType": "address",
          "name": "_owner",
          "type": "address"
        },
        {
          "indexed": false,
          "internalType": "contract TCAP",
          "name": "_token",
          "type": "address"
        }
      ],
      "name": "LogSetTCAPContract",
      "type": "event"
    },
    {
      "anonymous": false,
      "inputs": [
        {
          "indexed": true,
          "internalType": "address",
          "name": "_owner",
          "type": "address"
        },
        {
          "indexed": false,
          "internalType": "contract ChainlinkOracle",
          "name": "_oracle",
          "type": "address"
        }
      ],
      "name": "LogSetTCAPOracle",
      "type": "event"
    },
    {
      "anonymous": false,
      "inputs": [
        {
          "indexed": true,
          "internalType": "address",
          "name": "previousOwner",
          "type": "address"
        },
        {
          "indexed": true,
          "internalType": "address",
          "name": "newOwner",
          "type": "address"
        }
      ],
      "name": "OwnershipTransferred",
      "type": "event"
    },
    {
      "anonymous": false,
      "inputs": [
        {
          "indexed": false,
          "internalType": "address",
          "name": "account",
          "type": "address"
        }
      ],
      "name": "Paused",
      "type": "event"
    },
    {
      "anonymous": false,
      "inputs": [
        {
          "indexed": true,
          "internalType": "bytes32",
          "name": "role",
          "type": "bytes32"
        },
        {
          "indexed": true,
          "internalType": "bytes32",
          "name": "previousAdminRole",
          "type": "bytes32"
        },
        {
          "indexed": true,
          "internalType": "bytes32",
          "name": "newAdminRole",
          "type": "bytes32"
        }
      ],
      "name": "RoleAdminChanged",
      "type": "event"
    },
    {
      "anonymous": false,
      "inputs": [
        {
          "indexed": true,
          "internalType": "bytes32",
          "name": "role",
          "type": "bytes32"
        },
        {
          "indexed": true,
          "internalType": "address",
          "name": "account",
          "type": "address"
        },
        {
          "indexed": true,
          "internalType": "address",
          "name": "sender",
          "type": "address"
        }
      ],
      "name": "RoleGranted",
      "type": "event"
    },
    {
      "anonymous": false,
      "inputs": [
        {
          "indexed": true,
          "internalType": "bytes32",
          "name": "role",
          "type": "bytes32"
        },
        {
          "indexed": true,
          "internalType": "address",
          "name": "account",
          "type": "address"
        },
        {
          "indexed": true,
          "internalType": "address",
          "name": "sender",
          "type": "address"
        }
      ],
      "name": "RoleRevoked",
      "type": "event"
    },
    {
      "anonymous": false,
      "inputs": [
        {
          "indexed": false,
          "internalType": "address",
          "name": "account",
          "type": "address"
        }
      ],
      "name": "Unpaused",
      "type": "event"
    },
    {
      "inputs": [],
      "name": "DEFAULT_ADMIN_ROLE",
      "outputs": [
        {
          "internalType": "bytes32",
          "name": "",
          "type": "bytes32"
        }
      ],
      "stateMutability": "view",
      "type": "function"
    },
    {
      "inputs": [],
      "name": "ETHPriceOracle",
      "outputs": [
        {
          "internalType": "contract ChainlinkOracle",
          "name": "",
          "type": "address"
        }
      ],
      "stateMutability": "view",
      "type": "function"
    },
    {
      "inputs": [],
      "name": "TCAPPrice",
      "outputs": [
        {
          "internalType": "uint256",
          "name": "price",
          "type": "uint256"
        }
      ],
      "stateMutability": "view",
      "type": "function"
    },
    {
      "inputs": [],
      "name": "TCAPToken",
      "outputs": [
        {
          "internalType": "contract TCAP",
          "name": "",
          "type": "address"
        }
      ],
      "stateMutability": "view",
      "type": "function"
    },
    {
      "inputs": [
        {
          "internalType": "uint256",
          "name": "_amount",
          "type": "uint256"
        }
      ],
      "name": "addCollateral",
      "outputs": [],
      "stateMutability": "nonpayable",
      "type": "function"
    },
    {
      "inputs": [
        {
          "internalType": "uint256",
          "name": "_amount",
          "type": "uint256"
        }
      ],
      "name": "burn",
      "outputs": [],
      "stateMutability": "payable",
      "type": "function"
    },
    {
      "inputs": [],
      "name": "burnFee",
      "outputs": [
        {
          "internalType": "uint256",
          "name": "",
          "type": "uint256"
        }
      ],
      "stateMutability": "view",
      "type": "function"
    },
    {
      "inputs": [],
      "name": "collateralContract",
      "outputs": [
        {
          "internalType": "contract IERC20",
          "name": "",
          "type": "address"
        }
      ],
      "stateMutability": "view",
      "type": "function"
    },
    {
      "inputs": [],
      "name": "collateralPriceOracle",
      "outputs": [
        {
          "internalType": "contract ChainlinkOracle",
          "name": "",
          "type": "address"
        }
      ],
      "stateMutability": "view",
      "type": "function"
    },
    {
      "inputs": [],
      "name": "createVault",
      "outputs": [],
      "stateMutability": "nonpayable",
      "type": "function"
    },
    {
      "inputs": [],
      "name": "divisor",
      "outputs": [
        {
          "internalType": "uint256",
          "name": "",
          "type": "uint256"
        }
      ],
      "stateMutability": "view",
      "type": "function"
    },
    {
      "inputs": [
        {
          "internalType": "uint256",
          "name": "_amount",
          "type": "uint256"
        }
      ],
      "name": "getFee",
      "outputs": [
        {
          "internalType": "uint256",
          "name": "fee",
          "type": "uint256"
        }
      ],
      "stateMutability": "view",
      "type": "function"
    },
    {
      "inputs": [
        {
          "internalType": "bytes32",
          "name": "role",
          "type": "bytes32"
        }
      ],
      "name": "getRoleAdmin",
      "outputs": [
        {
          "internalType": "bytes32",
          "name": "",
          "type": "bytes32"
        }
      ],
      "stateMutability": "view",
      "type": "function"
    },
    {
      "inputs": [
        {
          "internalType": "bytes32",
          "name": "role",
          "type": "bytes32"
        },
        {
          "internalType": "uint256",
          "name": "index",
          "type": "uint256"
        }
      ],
      "name": "getRoleMember",
      "outputs": [
        {
          "internalType": "address",
          "name": "",
          "type": "address"
        }
      ],
      "stateMutability": "view",
      "type": "function"
    },
    {
      "inputs": [
        {
          "internalType": "bytes32",
          "name": "role",
          "type": "bytes32"
        }
      ],
      "name": "getRoleMemberCount",
      "outputs": [
        {
          "internalType": "uint256",
          "name": "",
          "type": "uint256"
        }
      ],
      "stateMutability": "view",
      "type": "function"
    },
    {
      "inputs": [
        {
          "internalType": "uint256",
          "name": "_id",
          "type": "uint256"
        }
      ],
      "name": "getVault",
      "outputs": [
        {
          "internalType": "uint256",
          "name": "",
          "type": "uint256"
        },
        {
          "internalType": "uint256",
          "name": "",
          "type": "uint256"
        },
        {
          "internalType": "address",
          "name": "",
          "type": "address"
        },
        {
          "internalType": "uint256",
          "name": "",
          "type": "uint256"
        }
      ],
      "stateMutability": "view",
      "type": "function"
    },
    {
      "inputs": [
        {
          "internalType": "uint256",
          "name": "_vaultId",
          "type": "uint256"
        }
      ],
      "name": "getVaultRatio",
      "outputs": [
        {
          "internalType": "uint256",
          "name": "currentRatio",
          "type": "uint256"
        }
      ],
      "stateMutability": "view",
      "type": "function"
    },
    {
      "inputs": [
        {
          "internalType": "bytes32",
          "name": "role",
          "type": "bytes32"
        },
        {
          "internalType": "address",
          "name": "account",
          "type": "address"
        }
      ],
      "name": "grantRole",
      "outputs": [],
      "stateMutability": "nonpayable",
      "type": "function"
    },
    {
      "inputs": [
        {
          "internalType": "bytes32",
          "name": "role",
          "type": "bytes32"
        },
        {
          "internalType": "address",
          "name": "account",
          "type": "address"
        }
      ],
      "name": "hasRole",
      "outputs": [
        {
          "internalType": "bool",
          "name": "",
          "type": "bool"
        }
      ],
      "stateMutability": "view",
      "type": "function"
    },
    {
      "inputs": [
        {
          "internalType": "uint256",
          "name": "_divisor",
          "type": "uint256"
        },
        {
          "internalType": "uint256",
          "name": "_ratio",
          "type": "uint256"
        },
        {
          "internalType": "uint256",
          "name": "_burnFee",
          "type": "uint256"
        },
        {
          "internalType": "uint256",
          "name": "_liquidationPenalty",
          "type": "uint256"
        },
        {
          "internalType": "address",
          "name": "_tcapOracle",
          "type": "address"
        },
        {
          "internalType": "contract TCAP",
          "name": "_tcapAddress",
          "type": "address"
        },
        {
          "internalType": "address",
          "name": "_collateralAddress",
          "type": "address"
        },
        {
          "internalType": "address",
          "name": "_collateralOracle",
          "type": "address"
        },
        {
          "internalType": "address",
          "name": "_ethOracle",
          "type": "address"
        }
      ],
      "name": "initialize",
      "outputs": [],
      "stateMutability": "nonpayable",
      "type": "function"
    },
    {
      "inputs": [
        {
          "internalType": "uint256",
          "name": "_vaultId",
          "type": "uint256"
        },
        {
          "internalType": "uint256",
          "name": "requiredCollateral",
          "type": "uint256"
        }
      ],
      "name": "liquidateVault",
      "outputs": [],
      "stateMutability": "payable",
      "type": "function"
    },
    {
      "inputs": [],
      "name": "liquidationPenalty",
      "outputs": [
        {
          "internalType": "uint256",
          "name": "",
          "type": "uint256"
        }
      ],
      "stateMutability": "view",
      "type": "function"
    },
    {
      "inputs": [
        {
          "internalType": "uint256",
          "name": "_vaultId",
          "type": "uint256"
        }
      ],
      "name": "liquidationReward",
      "outputs": [
        {
          "internalType": "uint256",
          "name": "rewardCollateral",
          "type": "uint256"
        }
      ],
      "stateMutability": "view",
      "type": "function"
    },
    {
      "inputs": [
        {
          "internalType": "uint256",
          "name": "_amount",
          "type": "uint256"
        }
      ],
      "name": "mint",
      "outputs": [],
      "stateMutability": "nonpayable",
      "type": "function"
    },
    {
      "inputs": [],
      "name": "owner",
      "outputs": [
        {
          "internalType": "address",
          "name": "",
          "type": "address"
        }
      ],
      "stateMutability": "view",
      "type": "function"
    },
    {
      "inputs": [],
      "name": "pause",
      "outputs": [],
      "stateMutability": "nonpayable",
      "type": "function"
    },
    {
      "inputs": [],
      "name": "paused",
      "outputs": [
        {
          "internalType": "bool",
          "name": "",
          "type": "bool"
        }
      ],
      "stateMutability": "view",
      "type": "function"
    },
    {
      "inputs": [],
      "name": "ratio",
      "outputs": [
        {
          "internalType": "uint256",
          "name": "",
          "type": "uint256"
        }
      ],
      "stateMutability": "view",
      "type": "function"
    },
    {
      "inputs": [
        {
          "internalType": "uint256",
          "name": "_amount",
          "type": "uint256"
        }
      ],
      "name": "removeCollateral",
      "outputs": [],
      "stateMutability": "nonpayable",
      "type": "function"
    },
    {
      "inputs": [],
      "name": "renounceOwnership",
      "outputs": [],
      "stateMutability": "nonpayable",
      "type": "function"
    },
    {
      "inputs": [
        {
          "internalType": "bytes32",
          "name": "role",
          "type": "bytes32"
        },
        {
          "internalType": "address",
          "name": "account",
          "type": "address"
        }
      ],
      "name": "renounceRole",
      "outputs": [],
      "stateMutability": "nonpayable",
      "type": "function"
    },
    {
      "inputs": [
        {
          "internalType": "uint256",
          "name": "_amount",
          "type": "uint256"
        }
      ],
      "name": "requiredCollateral",
      "outputs": [
        {
          "internalType": "uint256",
          "name": "collateral",
          "type": "uint256"
        }
      ],
      "stateMutability": "view",
      "type": "function"
    },
    {
      "inputs": [
        {
          "internalType": "uint256",
          "name": "_vaultId",
          "type": "uint256"
        }
      ],
      "name": "requiredLiquidationCollateral",
      "outputs": [
        {
          "internalType": "uint256",
          "name": "collateral",
          "type": "uint256"
        }
      ],
      "stateMutability": "view",
      "type": "function"
    },
    {
      "inputs": [],
      "name": "retrieveFees",
      "outputs": [],
      "stateMutability": "nonpayable",
      "type": "function"
    },
    {
      "inputs": [
        {
          "internalType": "bytes32",
          "name": "role",
          "type": "bytes32"
        },
        {
          "internalType": "address",
          "name": "account",
          "type": "address"
        }
      ],
      "name": "revokeRole",
      "outputs": [],
      "stateMutability": "nonpayable",
      "type": "function"
    },
    {
      "inputs": [
        {
          "internalType": "uint256",
          "name": "_burnFee",
          "type": "uint256"
        }
      ],
      "name": "setBurnFee",
      "outputs": [],
      "stateMutability": "nonpayable",
      "type": "function"
    },
    {
      "inputs": [
        {
          "internalType": "contract IERC20",
          "name": "_collateralContract",
          "type": "address"
        }
      ],
      "name": "setCollateralContract",
      "outputs": [],
      "stateMutability": "nonpayable",
      "type": "function"
    },
    {
      "inputs": [
        {
          "internalType": "contract ChainlinkOracle",
          "name": "_collateral",
          "type": "address"
        }
      ],
      "name": "setCollateralPriceOracle",
      "outputs": [],
      "stateMutability": "nonpayable",
      "type": "function"
    },
    {
      "inputs": [
        {
          "internalType": "uint256",
          "name": "_divisor",
          "type": "uint256"
        }
      ],
      "name": "setDivisor",
      "outputs": [],
      "stateMutability": "nonpayable",
      "type": "function"
    },
    {
      "inputs": [
        {
          "internalType": "contract ChainlinkOracle",
          "name": "_ethPriceOracle",
          "type": "address"
        }
      ],
      "name": "setETHPriceOracle",
      "outputs": [],
      "stateMutability": "nonpayable",
      "type": "function"
    },
    {
      "inputs": [
        {
          "internalType": "uint256",
          "name": "_liquidationPenalty",
          "type": "uint256"
        }
      ],
      "name": "setLiquidationPenalty",
      "outputs": [],
      "stateMutability": "nonpayable",
      "type": "function"
    },
    {
      "inputs": [
        {
          "internalType": "uint256",
          "name": "_ratio",
          "type": "uint256"
        }
      ],
      "name": "setRatio",
      "outputs": [],
      "stateMutability": "nonpayable",
      "type": "function"
    },
    {
      "inputs": [
        {
          "internalType": "contract TCAP",
          "name": "_TCAPToken",
          "type": "address"
        }
      ],
      "name": "setTCAPContract",
      "outputs": [],
      "stateMutability": "nonpayable",
      "type": "function"
    },
    {
      "inputs": [
        {
          "internalType": "contract ChainlinkOracle",
          "name": "_oracle",
          "type": "address"
        }
      ],
      "name": "setTCAPOracle",
      "outputs": [],
      "stateMutability": "nonpayable",
      "type": "function"
    },
    {
      "inputs": [
        {
          "internalType": "bytes4",
          "name": "interfaceId",
          "type": "bytes4"
        }
      ],
      "name": "supportsInterface",
      "outputs": [
        {
          "internalType": "bool",
          "name": "",
          "type": "bool"
        }
      ],
      "stateMutability": "view",
      "type": "function"
    },
    {
      "inputs": [],
      "name": "tcapOracle",
      "outputs": [
        {
          "internalType": "contract ChainlinkOracle",
          "name": "",
          "type": "address"
        }
      ],
      "stateMutability": "view",
      "type": "function"
    },
    {
      "inputs": [
        {
          "internalType": "address",
          "name": "newOwner",
          "type": "address"
        }
      ],
      "name": "transferOwnership",
      "outputs": [],
      "stateMutability": "nonpayable",
      "type": "function"
    },
    {
      "inputs": [],
      "name": "unpause",
      "outputs": [],
      "stateMutability": "nonpayable",
      "type": "function"
    },
    {
      "inputs": [
        {
          "internalType": "address",
          "name": "",
          "type": "address"
        }
      ],
      "name": "vaultToUser",
      "outputs": [
        {
          "internalType": "uint256",
          "name": "",
          "type": "uint256"
        }
      ],
      "stateMutability": "view",
      "type": "function"
    },
    {
      "inputs": [
        {
          "internalType": "uint256",
          "name": "",
          "type": "uint256"
        }
      ],
      "name": "vaults",
      "outputs": [
        {
          "internalType": "uint256",
          "name": "Id",
          "type": "uint256"
        },
        {
          "internalType": "uint256",
          "name": "Collateral",
          "type": "uint256"
        },
        {
          "internalType": "uint256",
          "name": "Debt",
          "type": "uint256"
        },
        {
          "internalType": "address",
          "name": "Owner",
          "type": "address"
        }
      ],
      "stateMutability": "view",
      "type": "function"
    }
  ],
  "address": "0x28d87376B3686390B058e5c654A838e833B293A3",
  "args": [
    "0x589461339aF187D98Df29042B866bcb922799844"
  ],
  "solcInputHash": "0x1ee89c808e69d10593f6a05f86f58297bb2a2c0590398db98c083e0dd5c7ab55",
  "bytecode": "0x60806040523480156200001157600080fd5b50604051620037cb380380620037cb833981810160405260208110156200003757600080fd5b50518060006200004f6001600160e01b03620000e116565b600080546001600160a01b0319166001600160a01b038316908117825560405192935091600080516020620037ab833981519152908290a35060016002556003805460ff19169055620000af6004620000e5602090811b62002a4f17901c565b620000c56000336001600160e01b03620000ee16565b620000d9816001600160e01b036200010716565b50506200032b565b3390565b80546001019055565b6200010382826001600160e01b036200020e16565b5050565b6200011a6001600160e01b03620000e116565b6000546001600160a01b039081169116146200017d576040805162461bcd60e51b815260206004820181905260248201527f4f776e61626c653a2063616c6c6572206973206e6f7420746865206f776e6572604482015290519081900360640190fd5b6001600160a01b038116620001c45760405162461bcd60e51b8152600401808060200182810382526026815260200180620037856026913960400191505060405180910390fd5b600080546040516001600160a01b0380851693921691600080516020620037ab83398151915291a3600080546001600160a01b0319166001600160a01b0392909216919091179055565b60008281526001602090815260409091206200023591839062002a5862000292821b17901c565b1562000103576200024e6001600160e01b03620000e116565b6001600160a01b0316816001600160a01b0316837f2f8788117e7eff1d82e926ec794901d17c78024a50270940304540a733656f0d60405160405180910390a45050565b6000620002b2836001600160a01b0384166001600160e01b03620002bb16565b90505b92915050565b6000620002d283836001600160e01b036200031316565b6200030a57508154600181810184556000848152602080822090930184905584548482528286019093526040902091909155620002b5565b506000620002b5565b60009081526001919091016020526040902054151590565b61344a806200033b6000396000f3fe6080604052600436106102c95760003560e01c80638c64ea4a11610175578063bcc46e83116100dc578063e941cd0611610095578063f4bfd3461161006f578063f4bfd34614610a0d578063f58bc29e14610a7c578063fce589d814610aa6578063fcee45f414610abb576102c9565b8063e941cd0614610974578063f2fde38b146109a7578063f31e65ad146109da576102c9565b8063bcc46e831461086c578063c543a1a014610896578063c6e1c7c9146108c9578063ca15c873146108de578063d547741f14610908578063e5d8a65114610941576102c9565b806397994e301161012e57806397994e30146107af578063a0712d68146107c4578063a217fddf146107ee578063abb7bc4a14610803578063b2237ba31461082d578063bae8cae514610857576102c9565b80638c64ea4a1461065d5780638da5cb5b146106b65780639010d07c146106cb57806391d14854146106fb5780639403b63414610734578063952cc86a1461078c576102c9565b806342966c6811610234578063709f5ccc116101ed578063787eb306116101c7578063787eb306146105d6578063842e357c146106095780638456cb591461061e5780638c01f21114610633576102c9565b8063709f5ccc14610582578063715018a6146105ac57806371ca337d146105c1576102c9565b806342966c68146104e757806346dc9007146105045780634bf2c7c9146105195780635c975abb146105435780635d12928b146105585780636ca2143c1461056d576102c9565b8063248a9ca311610286578063248a9ca3146103e25780632806a7431461040c5780632f2ff15d146104365780633237c1581461046f57806336568abe146104995780633f4ba83a146104d2576102c9565b806301ffc9a7146102ce57806311d850e8146103165780631cc244ba146103525780631f2dc5ef146103835780631fd0c43e1461039857806323f5589a146103cd575b600080fd5b3480156102da57600080fd5b50610302600480360360208110156102f157600080fd5b50356001600160e01b031916610ae5565b604080519115158252519081900360200190f35b34801561032257600080fd5b506103406004803603602081101561033957600080fd5b5035610b1c565b60408051918252519081900360200190f35b34801561035e57600080fd5b50610367610c2a565b604080516001600160a01b039092168252519081900360200190f35b34801561038f57600080fd5b50610340610c39565b3480156103a457600080fd5b506103cb600480360360208110156103bb57600080fd5b50356001600160a01b0316610c3f565b005b3480156103d957600080fd5b50610340610cee565b3480156103ee57600080fd5b506103406004803603602081101561040557600080fd5b5035610cf4565b34801561041857600080fd5b506103cb6004803603602081101561042f57600080fd5b5035610d09565b34801561044257600080fd5b506103cb6004803603604081101561045957600080fd5b50803590602001356001600160a01b0316610d9f565b34801561047b57600080fd5b506103cb6004803603602081101561049257600080fd5b5035610e0b565b3480156104a557600080fd5b506103cb600480360360408110156104bc57600080fd5b50803590602001356001600160a01b03166110d6565b3480156104de57600080fd5b506103cb611137565b6103cb600480360360208110156104fd57600080fd5b5035611199565b34801561051057600080fd5b5061034061137c565b34801561052557600080fd5b506103cb6004803603602081101561053c57600080fd5b50356113f6565b34801561054f57600080fd5b5061030261148c565b34801561056457600080fd5b506103cb611495565b34801561057957600080fd5b50610367611606565b34801561058e57600080fd5b506103cb600480360360208110156105a557600080fd5b5035611615565b3480156105b857600080fd5b506103cb6116ab565b3480156105cd57600080fd5b5061034061174d565b3480156105e257600080fd5b506103cb600480360360208110156105f957600080fd5b50356001600160a01b0316611753565b34801561061557600080fd5b50610367611801565b34801561062a57600080fd5b506103cb611810565b34801561063f57600080fd5b506103406004803603602081101561065657600080fd5b5035611870565b34801561066957600080fd5b506106876004803603602081101561068057600080fd5b503561198e565b604080519485526020850193909352838301919091526001600160a01b03166060830152519081900360800190f35b3480156106c257600080fd5b506103676119be565b3480156106d757600080fd5b50610367600480360360408110156106ee57600080fd5b50803590602001356119cd565b34801561070757600080fd5b506103026004803603604081101561071e57600080fd5b50803590602001356001600160a01b03166119f2565b34801561074057600080fd5b5061075e6004803603602081101561075757600080fd5b5035611a10565b6040805194855260208501939093526001600160a01b03909116838301526060830152519081900360800190f35b6103cb600480360360408110156107a257600080fd5b5080359060200135611a77565b3480156107bb57600080fd5b50610367611d1f565b3480156107d057600080fd5b506103cb600480360360208110156107e757600080fd5b5035611d2e565b3480156107fa57600080fd5b50610340611fea565b34801561080f57600080fd5b506103406004803603602081101561082657600080fd5b5035611fef565b34801561083957600080fd5b506103cb6004803603602081101561085057600080fd5b503561207c565b34801561086357600080fd5b506103cb612112565b34801561087857600080fd5b506103cb6004803603602081101561088f57600080fd5b50356121e5565b3480156108a257600080fd5b506103cb600480360360208110156108b957600080fd5b50356001600160a01b0316612411565b3480156108d557600080fd5b506103676124c0565b3480156108ea57600080fd5b506103406004803603602081101561090157600080fd5b50356124cf565b34801561091457600080fd5b506103cb6004803603604081101561092b57600080fd5b50803590602001356001600160a01b03166124e6565b34801561094d57600080fd5b506103cb6004803603602081101561096457600080fd5b50356001600160a01b031661253f565b34801561098057600080fd5b506103cb6004803603602081101561099757600080fd5b50356001600160a01b03166125ee565b3480156109b357600080fd5b506103cb600480360360208110156109ca57600080fd5b50356001600160a01b031661269d565b3480156109e657600080fd5b50610340600480360360208110156109fd57600080fd5b50356001600160a01b0316612795565b348015610a1957600080fd5b506103cb6004803603610120811015610a3157600080fd5b508035906020810135906040810135906060810135906001600160a01b03608082013581169160a081013582169160c082013581169160e081013582169161010090910135166127a7565b348015610a8857600080fd5b5061034060048036036020811015610a9f57600080fd5b5035612876565b348015610ab257600080fd5b506103406129cf565b348015610ac757600080fd5b5061034060048036036020811015610ade57600080fd5b50356129d5565b60006001600160e01b0319821663409e4a0f60e01b1480610b1657506001600160e01b031982166301ffc9a760e01b145b92915050565b600080610b2883612876565b90506000610b3461137c565b90506000610bcf6402540be400610bc3600860009054906101000a90046001600160a01b03166001600160a01b03166396237c026040518163ffffffff1660e01b815260040160206040518083038186803b158015610b9257600080fd5b505afa158015610ba6573d6000803e3d6000fd5b505050506040513d6020811015610bbc57600080fd5b5051612a6d565b9063ffffffff612ac816565b90506000610c0a6064610bfe610bf16064600d54612b2190919063ffffffff16565b879063ffffffff612ac816565b9063ffffffff612b7b16565b9050610c2082610bfe838663ffffffff612ac816565b9695505050505050565b6006546001600160a01b031681565b600a5481565b610c47612bbd565b6000546001600160a01b03908116911614610c97576040805162461bcd60e51b8152602060048201819052602482015260008051602061335c833981519152604482015290519081900360640190fd5b600880546001600160a01b0383166001600160a01b03199091168117909155604080519182525133917f66e2fd6dbdcf5f01b6b838597eaff18e974d846a5db5a38a8faf8d5e875aeec4919081900360200190a250565b600d5481565b60009081526001602052604090206002015490565b610d11612bbd565b6000546001600160a01b03908116911614610d61576040805162461bcd60e51b8152602060048201819052602482015260008051602061335c833981519152604482015290519081900360640190fd5b600d81905560408051828152905133917f6fdf5e426cb97389332e6d1c998d5123734bd7f204aa29b4a8284734c7aaa0ae919081900360200190a250565b600082815260016020526040902060020154610dc290610dbd612bbd565b6119f2565b610dfd5760405162461bcd60e51b815260040180806020018281038252602f815260200180613273602f913960400191505060405180910390fd5b610e078282612bc1565b5050565b600280541415610e50576040805162461bcd60e51b815260206004820152601f60248201526000805160206132a2833981519152604482015290519081900360640190fd5b60028055336000908152600e6020526040902054610ea8576040805162461bcd60e51b815260206004820152601060248201526f139bc815985d5b1d0818dc99585d195960821b604482015290519081900360640190fd5b60035460ff1615610ef3576040805162461bcd60e51b815260206004820152601060248201526f14185d5cd8589b194e881c185d5cd95960821b604482015290519081900360640190fd5b8080610f39576040805162461bcd60e51b815260206004820152601060248201526f056616c75652063616e277420626520360841b604482015290519081900360640190fd5b336000908152600e60209081526040808320548352600f90915281208054909190610f6390611870565b90508382600101541015610fa85760405162461bcd60e51b81526004018080602001828103825260408152602001806133a66040913960400191505060405180910390fd5b6001820154610fbd908563ffffffff612c3016565b6001830155801561101357600b548254610fd690611870565b10156110135760405162461bcd60e51b81526004018080602001828103825260238152602001806132c26023913960400191505060405180910390fd5b6007546040805163a9059cbb60e01b81523360048201526024810187905290516001600160a01b039092169163a9059cbb916044808201926020929091908290030181600087803b15801561106757600080fd5b505af115801561107b573d6000803e3d6000fd5b505050506040513d602081101561109157600080fd5b5050815460408051868152905133917f9b849e292191860667c493bd0657a5c71fd2350e4645303bddfc435da85c7c20919081900360200190a3505060016002555050565b6110de612bbd565b6001600160a01b0316816001600160a01b03161461112d5760405162461bcd60e51b815260040180806020018281038252602f8152602001806133e6602f913960400191505060405180910390fd5b610e078282612c72565b61113f612bbd565b6000546001600160a01b0390811691161461118f576040805162461bcd60e51b8152602060048201819052602482015260008051602061335c833981519152604482015290519081900360640190fd5b611197612ce1565b565b6002805414156111de576040805162461bcd60e51b815260206004820152601f60248201526000805160206132a2833981519152604482015290519081900360640190fd5b60028055336000908152600e6020526040902054611236576040805162461bcd60e51b815260206004820152601060248201526f139bc815985d5b1d0818dc99585d195960821b604482015290519081900360640190fd5b60035460ff1615611281576040805162461bcd60e51b815260206004820152601060248201526f14185d5cd8589b194e881c185d5cd95960821b604482015290519081900360640190fd5b80806112c7576040805162461bcd60e51b815260206004820152601060248201526f056616c75652063616e277420626520360841b604482015290519081900360640190fd5b6112cf61321f565b50336000908152600e60209081526040808320548352600f8252918290208251608081018452815481526001820154928101929092526002810154928201929092526003909101546001600160a01b0316606082015261132e83612d7f565b805161133a9084612de0565b805160408051858152905133917f21cb60dab84f5815c7c4197b8935326f424383c894633344b495319ada0658aa919081900360200190a35050600160025550565b6000806113d96402540be400610bc3600660009054906101000a90046001600160a01b03166001600160a01b03166396237c026040518163ffffffff1660e01b815260040160206040518083038186803b158015610b9257600080fd5b90506113f0600a5482612b7b90919063ffffffff16565b91505090565b6113fe612bbd565b6000546001600160a01b0390811691161461144e576040805162461bcd60e51b8152602060048201819052602482015260008051602061335c833981519152604482015290519081900360640190fd5b600c81905560408051828152905133917f8cee12d433ab3655cf1b6189969ae35611c638f002d75202b4c8f260746ef20f919081900360200190a250565b60035460ff1690565b60035460ff16156114e0576040805162461bcd60e51b815260206004820152601060248201526f14185d5cd8589b194e881c185d5cd95960821b604482015290519081900360640190fd5b336000908152600e60205260409020541561153a576040805162461bcd60e51b815260206004820152601560248201527415985d5b1d08185b1c9958591e4818dc99585d1959605a1b604482015290519081900360640190fd5b60006115466004612ed1565b336000908152600e60205260409020819055905061156261321f565b5060408051608081018252828152600060208083018281528385018381523360608601908152878552600f909352949092208351815591516001830155925160028201559151600390920180546001600160a01b0319166001600160a01b03909316929092179091556115d56004612a4f565b604051829033907f2fc6c3ac0740e97bb7c9a7b06221dafe87b5286c5076d86c8cb78bf1de9bd40a90600090a35050565b6005546001600160a01b031681565b61161d612bbd565b6000546001600160a01b0390811691161461166d576040805162461bcd60e51b8152602060048201819052602482015260008051602061335c833981519152604482015290519081900360640190fd5b600a81905560408051828152905133917ff5deac769e4391f28d78f7a013b140c7dbae3a75931f63039d566c556a525ad1919081900360200190a250565b6116b3612bbd565b6000546001600160a01b03908116911614611703576040805162461bcd60e51b8152602060048201819052602482015260008051602061335c833981519152604482015290519081900360640190fd5b600080546040516001600160a01b03909116907f8be0079c531659141344cd1fd0a4f28419497f9722a3daafe3b4186f6b6457e0908390a3600080546001600160a01b0319169055565b600b5481565b61175b612bbd565b6000546001600160a01b039081169116146117ab576040805162461bcd60e51b8152602060048201819052602482015260008051602061335c833981519152604482015290519081900360640190fd5b600980546001600160a01b0383166001600160a01b03199091168117909155604080519182525133917ecf639fbd3d2b82ae84c47d4403b21b1e360751f0cca32fbc932bdcbe548c5e919081900360200190a250565b6008546001600160a01b031681565b611818612bbd565b6000546001600160a01b03908116911614611868576040805162461bcd60e51b8152602060048201819052602482015260008051602061335c833981519152604482015290519081900360640190fd5b611197612ed5565b600061187a61321f565b506000828152600f602090815260409182902082516080810184528154808252600183015493820193909352600282015493810193909352600301546001600160a01b0316606083015215806118d257506040810151155b156118e05760009150611988565b600061193c6402540be400610bc3600860009054906101000a90046001600160a01b03166001600160a01b03166396237c026040518163ffffffff1660e01b815260040160206040518083038186803b158015610b9257600080fd5b905061198461195d61194c61137c565b60408501519063ffffffff612ac816565b6020840151610bfe9061197790606463ffffffff612ac816565b849063ffffffff612ac816565b9250505b50919050565b600f602052600090815260409020805460018201546002830154600390930154919290916001600160a01b031684565b6000546001600160a01b031690565b60008281526001602052604081206119eb908363ffffffff612f5616565b9392505050565b60008281526001602052604081206119eb908363ffffffff612f6216565b600080600080611a1e61321f565b50505060009283525050600f602090815260409182902082516080810184528154808252600183015493820184905260028301549482018590526003909201546001600160a01b03166060909101819052909391929091565b600280541415611abc576040805162461bcd60e51b815260206004820152601f60248201526000805160206132a2833981519152604482015290519081900360640190fd5b6002805560035460ff1615611b0b576040805162461bcd60e51b815260206004820152601060248201526f14185d5cd8589b194e881c185d5cd95960821b604482015290519081900360640190fd5b6000828152600f602052604090208054611b5f576040805162461bcd60e51b815260206004820152601060248201526f139bc815985d5b1d0818dc99585d195960821b604482015290519081900360640190fd5b6000611b6e8260000154611870565b9050600b548110611bc6576040805162461bcd60e51b815260206004820152601760248201527f5661756c74206973206e6f74206c697175696461626c65000000000000000000604482015290519081900360640190fd5b6000611bd58360000154612876565b9050808414611c155760405162461bcd60e51b815260040180806020018281038252602a81526020018061337c602a913960400191505060405180910390fd5b6000611c248460000154610b1c565b9050611c2f85612d7f565b8354611c3b9086612de0565b6001840154611c50908263ffffffff612c3016565b60018501556007546040805163a9059cbb60e01b81523360048201526024810184905290516001600160a01b039092169163a9059cbb916044808201926020929091908290030181600087803b158015611ca957600080fd5b505af1158015611cbd573d6000803e3d6000fd5b505050506040513d6020811015611cd357600080fd5b50508354604080518481526020810184905281513393927fc07e3ac2fb130a0f07f1bdea4de0051bd1d99076a5a19c5d04e4a88cd73cdd5b928290030190a35050600160025550505050565b6009546001600160a01b031681565b600280541415611d73576040805162461bcd60e51b815260206004820152601f60248201526000805160206132a2833981519152604482015290519081900360640190fd5b60028055336000908152600e6020526040902054611dcb576040805162461bcd60e51b815260206004820152601060248201526f139bc815985d5b1d0818dc99585d195960821b604482015290519081900360640190fd5b60035460ff1615611e16576040805162461bcd60e51b815260206004820152601060248201526f14185d5cd8589b194e881c185d5cd95960821b604482015290519081900360640190fd5b8080611e5c576040805162461bcd60e51b815260206004820152601060248201526f056616c75652063616e277420626520360841b604482015290519081900360640190fd5b336000908152600e60209081526040808320548352600f909152812090611e8284611fef565b90508082600101541015611ed5576040805162461bcd60e51b8152602060048201526015602482015274139bdd08195b9bdd59da0818dbdb1b185d195c985b605a1b604482015290519081900360640190fd5b6002820154611eea908563ffffffff612b2116565b6002830155600b548254611efd90611870565b1015611f3a5760405162461bcd60e51b81526004018080602001828103825260238152602001806132c26023913960400191505060405180910390fd5b600554604080516340c10f1960e01b81523360048201526024810187905290516001600160a01b03909216916340c10f199160448082019260009290919082900301818387803b158015611f8d57600080fd5b505af1158015611fa1573d6000803e3d6000fd5b505083546040805188815290519193503392507fa82a7ea15c804d00dba1b969024b510969fde70fac8e0d5da860cf1f7376d317919081900360200190a3505060016002555050565b600081565b600080611ffa61137c565b905060006120586402540be400610bc3600860009054906101000a90046001600160a01b03166001600160a01b03166396237c026040518163ffffffff1660e01b815260040160206040518083038186803b158015610b9257600080fd5b905061198481610bfe6064610bfe600b54610bc38a89612ac890919063ffffffff16565b612084612bbd565b6000546001600160a01b039081169116146120d4576040805162461bcd60e51b8152602060048201819052602482015260008051602061335c833981519152604482015290519081900360640190fd5b600b81905560408051828152905133917f745333eadc1991720ed6c94ad80c7b81898a7d7ca230f4107bc38eecd95e9e45919081900360200190a250565b61211a612bbd565b6000546001600160a01b0390811691161461216a576040805162461bcd60e51b8152602060048201819052602482015260008051602061335c833981519152604482015290519081900360640190fd5b476121736119be565b6001600160a01b03166108fc829081150290604051600060405180830381858888f193505050501580156121ab573d6000803e3d6000fd5b5060408051828152905133917fa0f15d6e433e5a79b54bc760ff6406f0a5f45d6b6ce085ff9a7d0481f6d28158919081900360200190a250565b60028054141561222a576040805162461bcd60e51b815260206004820152601f60248201526000805160206132a2833981519152604482015290519081900360640190fd5b60028055336000908152600e6020526040902054612282576040805162461bcd60e51b815260206004820152601060248201526f139bc815985d5b1d0818dc99585d195960821b604482015290519081900360640190fd5b60035460ff16156122cd576040805162461bcd60e51b815260206004820152601060248201526f14185d5cd8589b194e881c185d5cd95960821b604482015290519081900360640190fd5b8080612313576040805162461bcd60e51b815260206004820152601060248201526f056616c75652063616e277420626520360841b604482015290519081900360640190fd5b600754604080516323b872dd60e01b81523360048201523060248201526044810185905290516001600160a01b03909216916323b872dd916064808201926020929091908290030181600087803b15801561236d57600080fd5b505af1158015612381573d6000803e3d6000fd5b505050506040513d602081101561239757600080fd5b5050336000908152600e60209081526040808320548352600f909152902060018101546123ca908463ffffffff612b2116565b6001820155805460408051858152905133917f31ac33c8e5d32723055870a2be01442545a84680341c886373c957110bc175dc919081900360200190a35050600160025550565b612419612bbd565b6000546001600160a01b03908116911614612469576040805162461bcd60e51b8152602060048201819052602482015260008051602061335c833981519152604482015290519081900360640190fd5b600680546001600160a01b0383166001600160a01b03199091168117909155604080519182525133917f5d19e13c5fcca5f56b1af0f7e4fb4a7a63031196b48f3a411cfbc4ea967ab3be919081900360200190a250565b6007546001600160a01b031681565b6000818152600160205260408120610b1690612f77565b60008281526001602052604090206002015461250490610dbd612bbd565b61112d5760405162461bcd60e51b815260040180806020018281038252603081526020018061330b6030913960400191505060405180910390fd5b612547612bbd565b6000546001600160a01b03908116911614612597576040805162461bcd60e51b8152602060048201819052602482015260008051602061335c833981519152604482015290519081900360640190fd5b600580546001600160a01b0383166001600160a01b03199091168117909155604080519182525133917f31a1001df848f4c2283a73f19049d2b8922af595ba150545490fd92d08731723919081900360200190a250565b6125f6612bbd565b6000546001600160a01b03908116911614612646576040805162461bcd60e51b8152602060048201819052602482015260008051602061335c833981519152604482015290519081900360640190fd5b600780546001600160a01b0383166001600160a01b03199091168117909155604080519182525133917fc8740b8e1db0dd680a749baa2f7018dd94245006fc3d465c54b32c931144e7b7919081900360200190a250565b6126a5612bbd565b6000546001600160a01b039081169116146126f5576040805162461bcd60e51b8152602060048201819052602482015260008051602061335c833981519152604482015290519081900360640190fd5b6001600160a01b03811661273a5760405162461bcd60e51b81526004018080602001828103825260268152602001806132e56026913960400191505060405180910390fd5b600080546040516001600160a01b03808516939216917f8be0079c531659141344cd1fd0a4f28419497f9722a3daafe3b4186f6b6457e091a3600080546001600160a01b0319166001600160a01b0392909216919091179055565b600e6020526000908152604090205481565b6127af612bbd565b6000546001600160a01b039081169116146127ff576040805162461bcd60e51b8152602060048201819052602482015260008051602061335c833981519152604482015290519081900360640190fd5b600a98909855600b96909655600c94909455600d92909255600680546001600160a01b03199081166001600160a01b03938416179091556007805482169483169490941790935560088054841694821694909417909355600980548316948416949094179093556005805490911691909216179055565b600061288061321f565b506000828152600f60209081526040808320815160808101835281548152600182015493810193909352600281015491830191909152600301546001600160a01b03166060820152906128d161137c565b9050600061292f6402540be400610bc3600860009054906101000a90046001600160a01b03166001600160a01b03166396237c026040518163ffffffff1660e01b815260040160206040518083038186803b158015610b9257600080fd5b9050600061294e83610bfe848760200151612ac890919063ffffffff16565b905060006129856064610bc3846129796064610bfe600b548c60400151612ac890919063ffffffff16565b9063ffffffff612c3016565b905060006129b16129a26064600d54612b2190919063ffffffff16565b600b549063ffffffff612c3016565b90506129c3828263ffffffff612b7b16565b98975050505050505050565b600c5481565b600080612a326402540be400610bc3600960009054906101000a90046001600160a01b03166001600160a01b03166396237c026040518163ffffffff1660e01b815260040160206040518083038186803b158015610b9257600080fd5b90506119eb81610bfe6064610bfe600c54610bc389610bc361137c565b80546001019055565b60006119eb836001600160a01b038416612f82565b600080821215612ac4576040805162461bcd60e51b815260206004820181905260248201527f53616665436173743a2076616c7565206d75737420626520706f736974697665604482015290519081900360640190fd5b5090565b600082612ad757506000610b16565b82820282848281612ae457fe5b04146119eb5760405162461bcd60e51b815260040180806020018281038252602181526020018061333b6021913960400191505060405180910390fd5b6000828201838110156119eb576040805162461bcd60e51b815260206004820152601b60248201527f536166654d6174683a206164646974696f6e206f766572666c6f770000000000604482015290519081900360640190fd5b60006119eb83836040518060400160405280601a81526020017f536166654d6174683a206469766973696f6e206279207a65726f000000000000815250612fcc565b3390565b6000828152600160205260409020612bdf908263ffffffff612a5816565b15610e0757612bec612bbd565b6001600160a01b0316816001600160a01b0316837f2f8788117e7eff1d82e926ec794901d17c78024a50270940304540a733656f0d60405160405180910390a45050565b60006119eb83836040518060400160405280601e81526020017f536166654d6174683a207375627472616374696f6e206f766572666c6f77000081525061306e565b6000828152600160205260409020612c90908263ffffffff6130c816565b15610e0757612c9d612bbd565b6001600160a01b0316816001600160a01b0316837ff6391f5c32d9c69d2a47ea670b442974b53935d1edc7fd64eb21e047a839171b60405160405180910390a45050565b60035460ff16612d2f576040805162461bcd60e51b815260206004820152601460248201527314185d5cd8589b194e881b9bdd081c185d5cd95960621b604482015290519081900360640190fd5b6003805460ff191690557f5db9ee0a495bf2e6ff9c91a7834c1ba4fdd244a5e8aa4e537bd38aeae4b073aa612d62612bbd565b604080516001600160a01b039092168252519081900360200190a1565b6000612d8a826129d5565b9050348114610e07576040805162461bcd60e51b815260206004820181905260248201527f4275726e2066656520646966666572656e74207468616e207265717569726564604482015290519081900360640190fd5b6000828152600f602052604090206002810154821115612e47576040805162461bcd60e51b815260206004820152601860248201527f416d6f756e742067726561746572207468616e20646562740000000000000000604482015290519081900360640190fd5b6002810154612e5c908363ffffffff612c3016565b600282015560055460408051632770a7eb60e21b81523360048201526024810185905290516001600160a01b0390921691639dc29fac9160448082019260009290919082900301818387803b158015612eb457600080fd5b505af1158015612ec8573d6000803e3d6000fd5b50505050505050565b5490565b60035460ff1615612f20576040805162461bcd60e51b815260206004820152601060248201526f14185d5cd8589b194e881c185d5cd95960821b604482015290519081900360640190fd5b6003805460ff191660011790557f62e78cea01bee320cd4e420270b5ea74000d11b0c9f74754ebdbfc544b05a258612d62612bbd565b60006119eb83836130dd565b60006119eb836001600160a01b038416613141565b6000610b1682612ed1565b6000612f8e8383613141565b612fc457508154600181810184556000848152602080822090930184905584548482528286019093526040902091909155610b16565b506000610b16565b600081836130585760405162461bcd60e51b81526004018080602001828103825283818151815260200191508051906020019080838360005b8381101561301d578181015183820152602001613005565b50505050905090810190601f16801561304a5780820380516001836020036101000a031916815260200191505b509250505060405180910390fd5b50600083858161306457fe5b0495945050505050565b600081848411156130c05760405162461bcd60e51b815260206004820181815283516024840152835190928392604490910191908501908083836000831561301d578181015183820152602001613005565b505050900390565b60006119eb836001600160a01b038416613159565b8154600090821061311f5760405162461bcd60e51b81526004018080602001828103825260228152602001806132516022913960400191505060405180910390fd5b82600001828154811061312e57fe5b9060005260206000200154905092915050565b60009081526001919091016020526040902054151590565b60008181526001830160205260408120548015613215578354600019808301919081019060009087908390811061318c57fe5b90600052602060002001549050808760000184815481106131a957fe5b6000918252602080832090910192909255828152600189810190925260409020908401905586548790806131d957fe5b60019003818190600052602060002001600090559055866001016000878152602001908152602001600020600090556001945050505050610b16565b6000915050610b16565b604051806080016040528060008152602001600081526020016000815260200160006001600160a01b03168152509056fe456e756d657261626c655365743a20696e646578206f7574206f6620626f756e6473416363657373436f6e74726f6c3a2073656e646572206d75737420626520616e2061646d696e20746f206772616e745265656e7472616e637947756172643a207265656e7472616e742063616c6c00436f6c6c61746572616c2062656c6f77206d696e20726571756972656420726174696f4f776e61626c653a206e6577206f776e657220697320746865207a65726f2061646472657373416363657373436f6e74726f6c3a2073656e646572206d75737420626520616e2061646d696e20746f207265766f6b65536166654d6174683a206d756c7469706c69636174696f6e206f766572666c6f774f776e61626c653a2063616c6c6572206973206e6f7420746865206f776e65724c69717569646174696f6e20616d6f756e7420646966666572656e74207468616e2072657175697265645472616e73616374696f6e207265766572746564207769746820526574726965766520616d6f756e7420686967686572207468616e20636f6c6c61746572616c416363657373436f6e74726f6c3a2063616e206f6e6c792072656e6f756e636520726f6c657320666f722073656c66a2646970667358221220f245b831139145363e904b83c0ce3b1a695a6b28dbfd122f8d74286a3aa6938264736f6c634300060800334f776e61626c653a206e6577206f776e657220697320746865207a65726f20616464726573738be0079c531659141344cd1fd0a4f28419497f9722a3daafe3b4186f6b6457e0",
  "devdoc": {
    "author": "Cristian Espinoza",
    "methods": {
      "TCAPPrice()": {
        "details": "TCAP token is 18 decimalsoracle totalMarketPrice must be in wei formatP = M / d P = TCAP Token Price M = Total Crypto Market Cap d = Divisor",
        "returns": {
          "price": "of the TCAP Token"
        }
      },
      "addCollateral(uint256)": {
        "details": "_amount should be higher than 0",
        "params": {
          "_amount": "of collateral to add"
        }
      },
      "burn(uint256)": {
        "details": "_amount should be higher than 0",
        "params": {
          "_amount": "of tokens to burn"
        }
      },
      "createVault()": {
        "details": "Only one vault per address can be created"
      },
      "getFee(uint256)": {
        "details": "The returned value is returned on ETHf = ((P * A * b)/ 100) f = Burn Fee Value P = TCAP Token Price A = Amount to Burn b = Burn Fee %",
        "params": {
          "_amount": "to burn"
        },
        "returns": {
          "fee": "fee"
        }
      },
      "getRoleAdmin(bytes32)": {
        "details": "Returns the admin role that controls `role`. See {grantRole} and {revokeRole}.     * To change a role's admin, use {_setRoleAdmin}."
      },
      "getRoleMember(bytes32,uint256)": {
        "details": "Returns one of the accounts that have `role`. `index` must be a value between 0 and {getRoleMemberCount}, non-inclusive.     * Role bearers are not sorted in any particular way, and their ordering may change at any point.     * WARNING: When using {getRoleMember} and {getRoleMemberCount}, make sure you perform all queries on the same block. See the following https://forum.openzeppelin.com/t/iterating-over-elements-on-enumerableset-in-openzeppelin-contracts/2296[forum post] for more information."
      },
      "getRoleMemberCount(bytes32)": {
        "details": "Returns the number of accounts that have `role`. Can be used together with {getRoleMember} to enumerate all bearers of a role."
      },
      "getVault(uint256)": {
        "params": {
          "_id": "of vault"
        },
        "returns": {
          "_0": "Id, Collateral, Owner, Debt"
        }
      },
      "getVaultRatio(uint256)": {
        "details": "vr = (cp * (C * 100)) / D - P vr = Vault Ratio C = Vault Collateral cp = Collateral Price D = Vault Debt P = TCAP Token Price",
        "params": {
          "_vaultId": "id of vault"
        },
        "returns": {
          "currentRatio": "currentRatio"
        }
      },
      "grantRole(bytes32,address)": {
        "details": "Grants `role` to `account`.     * If `account` had not been already granted `role`, emits a {RoleGranted} event.     * Requirements:     * - the caller must have ``role``'s admin role."
      },
      "hasRole(bytes32,address)": {
        "details": "Returns `true` if `account` has been granted `role`."
      },
      "initialize(uint256,uint256,uint256,uint256,address,address,address,address,address)": {
        "details": "Only owner can call itCan only be called once",
        "params": {
          "_burnFee": "uint256",
          "_collateralAddress": "address",
          "_collateralOracle": "address",
          "_divisor": "uint256",
          "_ethOracle": "address",
          "_liquidationPenalty": "uint256",
          "_ratio": "uint256",
          "_tcapAddress": "address",
          "_tcapOracle": "address"
        }
      },
      "liquidateVault(uint256,uint256)": {
        "params": {
          "_vaultId": "to liquidate"
        }
      },
      "liquidationReward(uint256)": {
        "details": "the returned value is returned on the vault collateralR = (LC * (p  + 100)) / 100 R = Liquidation Reward LC = Required Liquidation Collateral p = liquidation penalty",
        "params": {
          "_vaultId": "of the vault to liquidate"
        },
        "returns": {
          "rewardCollateral": "for liquidating Vault"
        }
      },
      "mint(uint256)": {
        "details": "_amount should be higher than 0",
        "params": {
          "_amount": "of tokens to mint"
        }
      },
      "owner()": {
        "details": "Returns the address of the current owner."
      },
      "paused()": {
        "details": "Returns true if the contract is paused, and false otherwise."
      },
      "removeCollateral(uint256)": {
        "details": "_amount should be higher than 0",
        "params": {
          "_amount": "of collateral to remove"
        }
      },
      "renounceOwnership()": {
        "details": "Leaves the contract without owner. It will not be possible to call `onlyOwner` functions anymore. Can only be called by the current owner.     * NOTE: Renouncing ownership will leave the contract without an owner, thereby removing any functionality that is only available to the owner."
      },
      "renounceRole(bytes32,address)": {
        "details": "Revokes `role` from the calling account.     * Roles are often managed via {grantRole} and {revokeRole}: this function's purpose is to provide a mechanism for accounts to lose their privileges if they are compromised (such as when a trusted device is misplaced).     * If the calling account had been granted `role`, emits a {RoleRevoked} event.     * Requirements:     * - the caller must be `account`."
      },
      "requiredCollateral(uint256)": {
        "details": "TCAP token is 18 decimalsC = ((P * A * r) / 100) / cp C = Required Collateral P = TCAP Token Price A = Amount to Mint cp = Collateral Price Is only divided by 100 as eth price comes in wei to cancel the additional 0s",
        "params": {
          "_amount": "uint amount to mint"
        },
        "returns": {
          "collateral": "of the TCAP Token"
        }
      },
      "requiredLiquidationCollateral(uint256)": {
        "details": "LC = ((((D * r) / 100) - cTcap) * 100) / (r - (p + 100)) cTcap = ((C * cp) / P) LC = Required Liquidation Collateral D = Vault Debt C = Required Collateral P = TCAP Token Price cp = Collateral Price r = Min Vault Ratio p = Liquidation Penalty",
        "params": {
          "_vaultId": "of the vault to liquidate"
        },
        "returns": {
          "collateral": "required of the TCAP Token"
        }
      },
      "revokeRole(bytes32,address)": {
        "details": "Revokes `role` from `account`.     * If `account` had been granted `role`, emits a {RoleRevoked} event.     * Requirements:     * - the caller must have ``role``'s admin role."
      },
      "setBurnFee(uint256)": {
        "details": "Only owner can call it",
        "params": {
          "_burnFee": "uint"
        }
      },
      "setCollateralContract(address)": {
        "details": "Only owner can call it",
        "params": {
          "_collateralContract": "address"
        }
      },
      "setCollateralPriceOracle(address)": {
        "details": "Only owner can call it",
        "params": {
          "_collateral": "address"
        }
      },
      "setDivisor(uint256)": {
        "details": "Only owner can call it",
        "params": {
          "_divisor": "uint"
        }
      },
      "setETHPriceOracle(address)": {
        "details": "Only owner can call it",
        "params": {
          "_ethPriceOracle": "address"
        }
      },
      "setLiquidationPenalty(uint256)": {
        "details": "Only owner can call it",
        "params": {
          "_liquidationPenalty": "uint"
        }
      },
      "setRatio(uint256)": {
        "details": "Only owner can call it",
        "params": {
          "_ratio": "uint"
        }
      },
      "setTCAPContract(address)": {
        "details": "Only owner can call it",
        "params": {
          "_TCAPToken": "address"
        }
      },
      "setTCAPOracle(address)": {
        "details": "Only owner can call it",
        "params": {
          "_oracle": "address"
        }
      },
      "supportsInterface(bytes4)": {
        "params": {
          "interfaceId": "bytes of interface"
        },
        "returns": {
          "_0": "bool"
        }
      },
      "transferOwnership(address)": {
        "details": "Transfers ownership of the contract to a new account (`newOwner`). Can only be called by the current owner."
      }
    },
    "title": "TCAP Vault"
  },
  "userdoc": {
    "methods": {
      "TCAPPrice()": {
        "notice": "Returns the price of the TCAP token"
      },
      "addCollateral(uint256)": {
        "notice": "Adds collateral to vault"
      },
      "burn(uint256)": {
        "notice": "Burns TCAP Tokens releasing the staked collateral"
      },
      "createVault()": {
        "notice": "Creates a Vault"
      },
      "getFee(uint256)": {
        "notice": "Returns the required fee to burn the TCAP tokens"
      },
      "getVault(uint256)": {
        "notice": "Returns the Vault information"
      },
      "getVaultRatio(uint256)": {
        "notice": "Returns the Collateral Ratio fo the Vault"
      },
      "initialize(uint256,uint256,uint256,uint256,address,address,address,address,address)": {
        "notice": "Allows the orchestrator to initialize the contract"
      },
      "liquidateVault(uint256,uint256)": {
        "notice": "Allow users to liquidate vaults with low collateral ratio"
      },
      "liquidationReward(uint256)": {
        "notice": "Returns Reward for liquidating a vault"
      },
      "mint(uint256)": {
        "notice": "Mints TCAP Tokens staking the collateral"
      },
      "pause()": {
        "notice": "Allows owner to Pause the Contract"
      },
      "removeCollateral(uint256)": {
        "notice": "Removes not used collateral from collateral"
      },
      "requiredCollateral(uint256)": {
        "notice": "Returns the minimal required collateral to mint TCAP token"
      },
      "requiredLiquidationCollateral(uint256)": {
        "notice": "Returns the minimal required TCAP to liquidate a Vault"
      },
      "retrieveFees()": {
        "notice": "Sends the owner of the contract the Fees saved on ETH"
      },
      "setBurnFee(uint256)": {
        "notice": "Sets the collateral ratio needed to mint tokens"
      },
      "setCollateralContract(address)": {
        "notice": "Sets the address of the collateral contract"
      },
      "setCollateralPriceOracle(address)": {
        "notice": "Sets the address of the oracle contract for the price feed"
      },
      "setDivisor(uint256)": {
        "notice": "Sets the divisor amount for token price calculation"
      },
      "setETHPriceOracle(address)": {
        "notice": "Sets the address of the oracle contract for the ETH price feed"
      },
      "setLiquidationPenalty(uint256)": {
        "notice": "Sets the liquidation penalty % charged on liquidation"
      },
      "setRatio(uint256)": {
        "notice": "Sets the collateral ratio needed to mint tokens"
      },
      "setTCAPContract(address)": {
        "notice": "Sets the address of the TCAP ERC20 contract"
      },
      "setTCAPOracle(address)": {
        "notice": "Sets the address of the oracle contract for the price feed"
      },
      "supportsInterface(bytes4)": {
        "notice": "ERC165 Standard for support of interfaces"
      },
      "unpause()": {
        "notice": "Allows owner to Unpause the Contract"
      }
    },
    "notice": "Contract in charge of handling the TCAP Vault and stake using a Collateral ERC20"
  },
  "storageLayout": {
    "storage": [
      {
        "astId": 359,
        "contract": "contracts/ERC20VaultHandler.sol:ERC20VaultHandler",
        "label": "_owner",
        "offset": 0,
        "slot": "0",
        "type": "t_address"
      },
      {
        "astId": 91,
        "contract": "contracts/ERC20VaultHandler.sol:ERC20VaultHandler",
        "label": "_roles",
        "offset": 0,
        "slot": "1",
        "type": "t_mapping(t_bytes32,t_struct(RoleData)87_storage)"
      },
      {
        "astId": 2175,
        "contract": "contracts/ERC20VaultHandler.sol:ERC20VaultHandler",
        "label": "_status",
        "offset": 0,
        "slot": "2",
        "type": "t_uint256"
      },
      {
        "astId": 2092,
        "contract": "contracts/ERC20VaultHandler.sol:ERC20VaultHandler",
        "label": "_paused",
        "offset": 0,
        "slot": "3",
        "type": "t_bool"
      },
      {
        "astId": 2891,
        "contract": "contracts/ERC20VaultHandler.sol:ERC20VaultHandler",
        "label": "counter",
        "offset": 0,
        "slot": "4",
        "type": "t_struct(Counter)1639_storage"
      },
      {
        "astId": 2902,
        "contract": "contracts/ERC20VaultHandler.sol:ERC20VaultHandler",
        "label": "TCAPToken",
        "offset": 0,
        "slot": "5",
        "type": "t_contract(TCAP)5380"
      },
      {
        "astId": 2904,
        "contract": "contracts/ERC20VaultHandler.sol:ERC20VaultHandler",
        "label": "tcapOracle",
        "offset": 0,
        "slot": "6",
        "type": "t_contract(ChainlinkOracle)6171"
      },
      {
        "astId": 2906,
        "contract": "contracts/ERC20VaultHandler.sol:ERC20VaultHandler",
        "label": "collateralContract",
        "offset": 0,
        "slot": "7",
        "type": "t_contract(IERC20)1425"
      },
      {
        "astId": 2908,
        "contract": "contracts/ERC20VaultHandler.sol:ERC20VaultHandler",
        "label": "collateralPriceOracle",
        "offset": 0,
        "slot": "8",
        "type": "t_contract(ChainlinkOracle)6171"
      },
      {
        "astId": 2910,
        "contract": "contracts/ERC20VaultHandler.sol:ERC20VaultHandler",
        "label": "ETHPriceOracle",
        "offset": 0,
        "slot": "9",
        "type": "t_contract(ChainlinkOracle)6171"
      },
      {
        "astId": 2912,
        "contract": "contracts/ERC20VaultHandler.sol:ERC20VaultHandler",
        "label": "divisor",
        "offset": 0,
        "slot": "10",
        "type": "t_uint256"
      },
      {
        "astId": 2914,
        "contract": "contracts/ERC20VaultHandler.sol:ERC20VaultHandler",
        "label": "ratio",
        "offset": 0,
        "slot": "11",
        "type": "t_uint256"
      },
      {
        "astId": 2916,
        "contract": "contracts/ERC20VaultHandler.sol:ERC20VaultHandler",
        "label": "burnFee",
        "offset": 0,
        "slot": "12",
        "type": "t_uint256"
      },
      {
        "astId": 2918,
        "contract": "contracts/ERC20VaultHandler.sol:ERC20VaultHandler",
        "label": "liquidationPenalty",
        "offset": 0,
        "slot": "13",
        "type": "t_uint256"
      },
      {
        "astId": 2922,
        "contract": "contracts/ERC20VaultHandler.sol:ERC20VaultHandler",
        "label": "vaultToUser",
        "offset": 0,
        "slot": "14",
        "type": "t_mapping(t_address,t_uint256)"
      },
      {
        "astId": 2926,
        "contract": "contracts/ERC20VaultHandler.sol:ERC20VaultHandler",
        "label": "vaults",
        "offset": 0,
        "slot": "15",
        "type": "t_mapping(t_uint256,t_struct(Vault)2900_storage)"
      }
    ],
    "types": {
      "t_address": {
        "encoding": "inplace",
        "label": "address",
        "numberOfBytes": "20"
      },
      "t_array(t_bytes32)dyn_storage": {
        "base": "t_bytes32",
        "encoding": "dynamic_array",
        "label": "bytes32[]",
        "numberOfBytes": "32"
      },
      "t_bool": {
        "encoding": "inplace",
        "label": "bool",
        "numberOfBytes": "1"
      },
      "t_bytes32": {
        "encoding": "inplace",
        "label": "bytes32",
        "numberOfBytes": "32"
      },
      "t_contract(ChainlinkOracle)6171": {
        "encoding": "inplace",
        "label": "contract ChainlinkOracle",
        "numberOfBytes": "20"
      },
      "t_contract(IERC20)1425": {
        "encoding": "inplace",
        "label": "contract IERC20",
        "numberOfBytes": "20"
      },
      "t_contract(TCAP)5380": {
        "encoding": "inplace",
        "label": "contract TCAP",
        "numberOfBytes": "20"
      },
      "t_mapping(t_address,t_uint256)": {
        "encoding": "mapping",
        "key": "t_address",
        "label": "mapping(address => uint256)",
        "numberOfBytes": "32",
        "value": "t_uint256"
      },
      "t_mapping(t_bytes32,t_struct(RoleData)87_storage)": {
        "encoding": "mapping",
        "key": "t_bytes32",
        "label": "mapping(bytes32 => struct AccessControl.RoleData)",
        "numberOfBytes": "32",
        "value": "t_struct(RoleData)87_storage"
      },
      "t_mapping(t_bytes32,t_uint256)": {
        "encoding": "mapping",
        "key": "t_bytes32",
        "label": "mapping(bytes32 => uint256)",
        "numberOfBytes": "32",
        "value": "t_uint256"
      },
      "t_mapping(t_uint256,t_struct(Vault)2900_storage)": {
        "encoding": "mapping",
        "key": "t_uint256",
        "label": "mapping(uint256 => struct IVaultHandler.Vault)",
        "numberOfBytes": "32",
        "value": "t_struct(Vault)2900_storage"
      },
      "t_struct(AddressSet)1870_storage": {
        "encoding": "inplace",
        "label": "struct EnumerableSet.AddressSet",
        "members": [
          {
            "astId": 1869,
            "contract": "contracts/ERC20VaultHandler.sol:ERC20VaultHandler",
            "label": "_inner",
            "offset": 0,
            "slot": "0",
            "type": "t_struct(Set)1690_storage"
          }
        ],
        "numberOfBytes": "64"
      },
      "t_struct(Counter)1639_storage": {
        "encoding": "inplace",
        "label": "struct Counters.Counter",
        "members": [
          {
            "astId": 1638,
            "contract": "contracts/ERC20VaultHandler.sol:ERC20VaultHandler",
            "label": "_value",
            "offset": 0,
            "slot": "0",
            "type": "t_uint256"
          }
        ],
        "numberOfBytes": "32"
      },
      "t_struct(RoleData)87_storage": {
        "encoding": "inplace",
        "label": "struct AccessControl.RoleData",
        "members": [
          {
            "astId": 84,
            "contract": "contracts/ERC20VaultHandler.sol:ERC20VaultHandler",
            "label": "members",
            "offset": 0,
            "slot": "0",
            "type": "t_struct(AddressSet)1870_storage"
          },
          {
            "astId": 86,
            "contract": "contracts/ERC20VaultHandler.sol:ERC20VaultHandler",
            "label": "adminRole",
            "offset": 0,
            "slot": "2",
            "type": "t_bytes32"
          }
        ],
        "numberOfBytes": "96"
      },
      "t_struct(Set)1690_storage": {
        "encoding": "inplace",
        "label": "struct EnumerableSet.Set",
        "members": [
          {
            "astId": 1685,
            "contract": "contracts/ERC20VaultHandler.sol:ERC20VaultHandler",
            "label": "_values",
            "offset": 0,
            "slot": "0",
            "type": "t_array(t_bytes32)dyn_storage"
          },
          {
            "astId": 1689,
            "contract": "contracts/ERC20VaultHandler.sol:ERC20VaultHandler",
            "label": "_indexes",
            "offset": 0,
            "slot": "1",
            "type": "t_mapping(t_bytes32,t_uint256)"
          }
        ],
        "numberOfBytes": "64"
      },
      "t_struct(Vault)2900_storage": {
        "encoding": "inplace",
        "label": "struct IVaultHandler.Vault",
        "members": [
          {
            "astId": 2893,
            "contract": "contracts/ERC20VaultHandler.sol:ERC20VaultHandler",
            "label": "Id",
            "offset": 0,
            "slot": "0",
            "type": "t_uint256"
          },
          {
            "astId": 2895,
            "contract": "contracts/ERC20VaultHandler.sol:ERC20VaultHandler",
            "label": "Collateral",
            "offset": 0,
            "slot": "1",
            "type": "t_uint256"
          },
          {
            "astId": 2897,
            "contract": "contracts/ERC20VaultHandler.sol:ERC20VaultHandler",
            "label": "Debt",
            "offset": 0,
            "slot": "2",
            "type": "t_uint256"
          },
          {
            "astId": 2899,
            "contract": "contracts/ERC20VaultHandler.sol:ERC20VaultHandler",
            "label": "Owner",
            "offset": 0,
            "slot": "3",
            "type": "t_address"
          }
        ],
        "numberOfBytes": "128"
      },
      "t_uint256": {
        "encoding": "inplace",
        "label": "uint256",
        "numberOfBytes": "32"
      }
    }
  },
  "gasEstimates": {
    "creation": {
      "codeDepositCost": "2677200",
      "executionCost": "infinite",
      "totalCost": "infinite"
    },
    "external": {
      "DEFAULT_ADMIN_ROLE()": "287",
      "ETHPriceOracle()": "1082",
      "TCAPPrice()": "infinite",
      "TCAPToken()": "1193",
      "addCollateral(uint256)": "infinite",
      "burn(uint256)": "infinite",
      "burnFee()": "1108",
      "collateralContract()": "1126",
      "collateralPriceOracle()": "1126",
      "createVault()": "96523",
      "divisor()": "1111",
      "getFee(uint256)": "infinite",
      "getRoleAdmin(bytes32)": "1158",
      "getRoleMember(bytes32,uint256)": "infinite",
      "getRoleMemberCount(bytes32)": "infinite",
      "getVault(uint256)": "4054",
      "getVaultRatio(uint256)": "infinite",
      "grantRole(bytes32,address)": "infinite",
      "hasRole(bytes32,address)": "infinite",
      "initialize(uint256,uint256,uint256,uint256,address,address,address,address,address)": "infinite",
      "liquidateVault(uint256,uint256)": "infinite",
      "liquidationPenalty()": "1155",
      "liquidationReward(uint256)": "infinite",
      "mint(uint256)": "infinite",
      "owner()": "1105",
      "pause()": "infinite",
      "paused()": "1122",
      "ratio()": "1110",
      "removeCollateral(uint256)": "infinite",
      "renounceOwnership()": "infinite",
      "renounceRole(bytes32,address)": "infinite",
      "requiredCollateral(uint256)": "infinite",
      "requiredLiquidationCollateral(uint256)": "infinite",
      "retrieveFees()": "infinite",
      "revokeRole(bytes32,address)": "infinite",
      "setBurnFee(uint256)": "infinite",
      "setCollateralContract(address)": "infinite",
      "setCollateralPriceOracle(address)": "infinite",
      "setDivisor(uint256)": "infinite",
      "setETHPriceOracle(address)": "infinite",
      "setLiquidationPenalty(uint256)": "infinite",
      "setRatio(uint256)": "infinite",
      "setTCAPContract(address)": "infinite",
      "setTCAPOracle(address)": "infinite",
      "supportsInterface(bytes4)": "412",
      "tcapOracle()": "1128",
      "transferOwnership(address)": "infinite",
      "unpause()": "infinite",
      "vaultToUser(address)": "1235",
      "vaults(uint256)": "3696"
    }
  }
}