{
  "abi": [
    {
      "inputs": [
        {
          "internalType": "contract Orchestrator",
          "name": "orchestrator",
          "type": "address"
        }
      ],
      "stateMutability": "nonpayable",
      "type": "constructor"
    },
    {
      "anonymous": false,
      "inputs": [
        {
          "indexed": true,
          "internalType": "address",
          "name": "_owner",
          "type": "address"
        },
        {
          "indexed": true,
          "internalType": "uint256",
          "name": "_id",
          "type": "uint256"
        },
        {
          "indexed": false,
          "internalType": "uint256",
          "name": "_amount",
          "type": "uint256"
        }
      ],
      "name": "LogAddCollateral",
      "type": "event"
    },
    {
      "anonymous": false,
      "inputs": [
        {
          "indexed": true,
          "internalType": "address",
          "name": "_owner",
          "type": "address"
        },
        {
          "indexed": true,
          "internalType": "uint256",
          "name": "_id",
          "type": "uint256"
        },
        {
          "indexed": false,
          "internalType": "uint256",
          "name": "_amount",
          "type": "uint256"
        }
      ],
      "name": "LogBurn",
      "type": "event"
    },
    {
      "anonymous": false,
      "inputs": [
        {
          "indexed": true,
          "internalType": "address",
          "name": "_owner",
          "type": "address"
        },
        {
          "indexed": true,
          "internalType": "uint256",
          "name": "_id",
          "type": "uint256"
        }
      ],
      "name": "LogCreateVault",
      "type": "event"
    },
    {
      "anonymous": false,
      "inputs": [
        {
          "indexed": false,
          "internalType": "uint256",
          "name": "_divisor",
          "type": "uint256"
        },
        {
          "indexed": false,
          "internalType": "uint256",
          "name": "_ratio",
          "type": "uint256"
        },
        {
          "indexed": false,
          "internalType": "uint256",
          "name": "_burnFee",
          "type": "uint256"
        },
        {
          "indexed": false,
          "internalType": "uint256",
          "name": "_liquidationPenalty",
          "type": "uint256"
        },
        {
          "indexed": false,
          "internalType": "address",
          "name": "_tcapOracle",
          "type": "address"
        },
        {
          "indexed": false,
          "internalType": "contract TCAP",
          "name": "_tcapAddress",
          "type": "address"
        },
        {
          "indexed": false,
          "internalType": "address",
          "name": "_collateralAddress",
          "type": "address"
        },
        {
          "indexed": false,
          "internalType": "address",
          "name": "_collateralOracle",
          "type": "address"
        },
        {
          "indexed": false,
          "internalType": "address",
          "name": "_ethOracle",
          "type": "address"
        }
      ],
      "name": "LogInitializeVault",
      "type": "event"
    },
    {
      "anonymous": false,
      "inputs": [
        {
          "indexed": true,
          "internalType": "uint256",
          "name": "_vaultId",
          "type": "uint256"
        },
        {
          "indexed": true,
          "internalType": "address",
          "name": "_liquidator",
          "type": "address"
        },
        {
          "indexed": false,
          "internalType": "uint256",
          "name": "_liquidationCollateral",
          "type": "uint256"
        },
        {
          "indexed": false,
          "internalType": "uint256",
          "name": "_reward",
          "type": "uint256"
        }
      ],
      "name": "LogLiquidateVault",
      "type": "event"
    },
    {
      "anonymous": false,
      "inputs": [
        {
          "indexed": true,
          "internalType": "address",
          "name": "_owner",
          "type": "address"
        },
        {
          "indexed": true,
          "internalType": "uint256",
          "name": "_id",
          "type": "uint256"
        },
        {
          "indexed": false,
          "internalType": "uint256",
          "name": "_amount",
          "type": "uint256"
        }
      ],
      "name": "LogMint",
      "type": "event"
    },
    {
      "anonymous": false,
      "inputs": [
        {
          "indexed": true,
          "internalType": "address",
          "name": "_owner",
          "type": "address"
        },
        {
          "indexed": true,
          "internalType": "uint256",
          "name": "_id",
          "type": "uint256"
        },
        {
          "indexed": false,
          "internalType": "uint256",
          "name": "_amount",
          "type": "uint256"
        }
      ],
      "name": "LogRemoveCollateral",
      "type": "event"
    },
    {
      "anonymous": false,
      "inputs": [
        {
          "indexed": true,
          "internalType": "address",
          "name": "_owner",
          "type": "address"
        },
        {
          "indexed": false,
          "internalType": "uint256",
          "name": "_amount",
          "type": "uint256"
        }
      ],
      "name": "LogRetrieveFees",
      "type": "event"
    },
    {
      "anonymous": false,
      "inputs": [
        {
          "indexed": true,
          "internalType": "address",
          "name": "_owner",
          "type": "address"
        },
        {
          "indexed": false,
          "internalType": "uint256",
          "name": "_burnFee",
          "type": "uint256"
        }
      ],
      "name": "LogSetBurnFee",
      "type": "event"
    },
    {
      "anonymous": false,
      "inputs": [
        {
          "indexed": true,
          "internalType": "address",
          "name": "_owner",
          "type": "address"
        },
        {
          "indexed": false,
          "internalType": "uint256",
          "name": "_liquidationPenalty",
          "type": "uint256"
        }
      ],
      "name": "LogSetLiquidationPenalty",
      "type": "event"
    },
    {
      "anonymous": false,
      "inputs": [
        {
          "indexed": true,
          "internalType": "address",
          "name": "_owner",
          "type": "address"
        },
        {
          "indexed": false,
          "internalType": "uint256",
          "name": "_ratio",
          "type": "uint256"
        }
      ],
      "name": "LogSetRatio",
      "type": "event"
    },
    {
      "anonymous": false,
      "inputs": [
        {
          "indexed": true,
          "internalType": "address",
          "name": "previousOwner",
          "type": "address"
        },
        {
          "indexed": true,
          "internalType": "address",
          "name": "newOwner",
          "type": "address"
        }
      ],
      "name": "OwnershipTransferred",
      "type": "event"
    },
    {
      "anonymous": false,
      "inputs": [
        {
          "indexed": false,
          "internalType": "address",
          "name": "account",
          "type": "address"
        }
      ],
      "name": "Paused",
      "type": "event"
    },
    {
      "anonymous": false,
      "inputs": [
        {
          "indexed": true,
          "internalType": "bytes32",
          "name": "role",
          "type": "bytes32"
        },
        {
          "indexed": true,
          "internalType": "bytes32",
          "name": "previousAdminRole",
          "type": "bytes32"
        },
        {
          "indexed": true,
          "internalType": "bytes32",
          "name": "newAdminRole",
          "type": "bytes32"
        }
      ],
      "name": "RoleAdminChanged",
      "type": "event"
    },
    {
      "anonymous": false,
      "inputs": [
        {
          "indexed": true,
          "internalType": "bytes32",
          "name": "role",
          "type": "bytes32"
        },
        {
          "indexed": true,
          "internalType": "address",
          "name": "account",
          "type": "address"
        },
        {
          "indexed": true,
          "internalType": "address",
          "name": "sender",
          "type": "address"
        }
      ],
      "name": "RoleGranted",
      "type": "event"
    },
    {
      "anonymous": false,
      "inputs": [
        {
          "indexed": true,
          "internalType": "bytes32",
          "name": "role",
          "type": "bytes32"
        },
        {
          "indexed": true,
          "internalType": "address",
          "name": "account",
          "type": "address"
        },
        {
          "indexed": true,
          "internalType": "address",
          "name": "sender",
          "type": "address"
        }
      ],
      "name": "RoleRevoked",
      "type": "event"
    },
    {
      "anonymous": false,
      "inputs": [
        {
          "indexed": false,
          "internalType": "address",
          "name": "account",
          "type": "address"
        }
      ],
      "name": "Unpaused",
      "type": "event"
    },
    {
      "inputs": [],
      "name": "DEFAULT_ADMIN_ROLE",
      "outputs": [
        {
          "internalType": "bytes32",
          "name": "",
          "type": "bytes32"
        }
      ],
      "stateMutability": "view",
      "type": "function"
    },
    {
      "inputs": [],
      "name": "ETHPriceOracle",
      "outputs": [
        {
          "internalType": "contract ChainlinkOracle",
          "name": "",
          "type": "address"
        }
      ],
      "stateMutability": "view",
      "type": "function"
    },
    {
      "inputs": [],
      "name": "TCAPPrice",
      "outputs": [
        {
          "internalType": "uint256",
          "name": "price",
          "type": "uint256"
        }
      ],
      "stateMutability": "view",
      "type": "function"
    },
    {
      "inputs": [],
      "name": "TCAPToken",
      "outputs": [
        {
          "internalType": "contract TCAP",
          "name": "",
          "type": "address"
        }
      ],
      "stateMutability": "view",
      "type": "function"
    },
    {
      "inputs": [
        {
          "internalType": "uint256",
          "name": "_amount",
          "type": "uint256"
        }
      ],
      "name": "addCollateral",
      "outputs": [],
      "stateMutability": "nonpayable",
      "type": "function"
    },
    {
      "inputs": [
        {
          "internalType": "uint256",
          "name": "_amount",
          "type": "uint256"
        }
      ],
      "name": "burn",
      "outputs": [],
      "stateMutability": "payable",
      "type": "function"
    },
    {
      "inputs": [],
      "name": "burnFee",
      "outputs": [
        {
          "internalType": "uint256",
          "name": "",
          "type": "uint256"
        }
      ],
      "stateMutability": "view",
      "type": "function"
    },
    {
      "inputs": [],
      "name": "collateralContract",
      "outputs": [
        {
          "internalType": "contract IERC20",
          "name": "",
          "type": "address"
        }
      ],
      "stateMutability": "view",
      "type": "function"
    },
    {
      "inputs": [],
      "name": "collateralPriceOracle",
      "outputs": [
        {
          "internalType": "contract ChainlinkOracle",
          "name": "",
          "type": "address"
        }
      ],
      "stateMutability": "view",
      "type": "function"
    },
    {
      "inputs": [],
      "name": "counter",
      "outputs": [
        {
          "internalType": "uint256",
          "name": "_value",
          "type": "uint256"
        }
      ],
      "stateMutability": "view",
      "type": "function"
    },
    {
      "inputs": [],
      "name": "createVault",
      "outputs": [],
      "stateMutability": "nonpayable",
      "type": "function"
    },
    {
      "inputs": [],
      "name": "divisor",
      "outputs": [
        {
          "internalType": "uint256",
          "name": "",
          "type": "uint256"
        }
      ],
      "stateMutability": "view",
      "type": "function"
    },
    {
      "inputs": [
        {
          "internalType": "uint256",
          "name": "_amount",
          "type": "uint256"
        }
      ],
      "name": "getFee",
      "outputs": [
        {
          "internalType": "uint256",
          "name": "fee",
          "type": "uint256"
        }
      ],
      "stateMutability": "view",
      "type": "function"
    },
    {
      "inputs": [
        {
          "internalType": "contract ChainlinkOracle",
          "name": "_oracle",
          "type": "address"
        }
      ],
      "name": "getOraclePrice",
      "outputs": [
        {
          "internalType": "uint256",
          "name": "price",
          "type": "uint256"
        }
      ],
      "stateMutability": "view",
      "type": "function"
    },
    {
      "inputs": [
        {
          "internalType": "bytes32",
          "name": "role",
          "type": "bytes32"
        }
      ],
      "name": "getRoleAdmin",
      "outputs": [
        {
          "internalType": "bytes32",
          "name": "",
          "type": "bytes32"
        }
      ],
      "stateMutability": "view",
      "type": "function"
    },
    {
      "inputs": [
        {
          "internalType": "bytes32",
          "name": "role",
          "type": "bytes32"
        },
        {
          "internalType": "uint256",
          "name": "index",
          "type": "uint256"
        }
      ],
      "name": "getRoleMember",
      "outputs": [
        {
          "internalType": "address",
          "name": "",
          "type": "address"
        }
      ],
      "stateMutability": "view",
      "type": "function"
    },
    {
      "inputs": [
        {
          "internalType": "bytes32",
          "name": "role",
          "type": "bytes32"
        }
      ],
      "name": "getRoleMemberCount",
      "outputs": [
        {
          "internalType": "uint256",
          "name": "",
          "type": "uint256"
        }
      ],
      "stateMutability": "view",
      "type": "function"
    },
    {
      "inputs": [
        {
          "internalType": "uint256",
          "name": "_id",
          "type": "uint256"
        }
      ],
      "name": "getVault",
      "outputs": [
        {
          "internalType": "uint256",
          "name": "",
          "type": "uint256"
        },
        {
          "internalType": "uint256",
          "name": "",
          "type": "uint256"
        },
        {
          "internalType": "address",
          "name": "",
          "type": "address"
        },
        {
          "internalType": "uint256",
          "name": "",
          "type": "uint256"
        }
      ],
      "stateMutability": "view",
      "type": "function"
    },
    {
      "inputs": [
        {
          "internalType": "uint256",
          "name": "_vaultId",
          "type": "uint256"
        }
      ],
      "name": "getVaultRatio",
      "outputs": [
        {
          "internalType": "uint256",
          "name": "currentRatio",
          "type": "uint256"
        }
      ],
      "stateMutability": "view",
      "type": "function"
    },
    {
      "inputs": [
        {
          "internalType": "bytes32",
          "name": "role",
          "type": "bytes32"
        },
        {
          "internalType": "address",
          "name": "account",
          "type": "address"
        }
      ],
      "name": "grantRole",
      "outputs": [],
      "stateMutability": "nonpayable",
      "type": "function"
    },
    {
      "inputs": [
        {
          "internalType": "bytes32",
          "name": "role",
          "type": "bytes32"
        },
        {
          "internalType": "address",
          "name": "account",
          "type": "address"
        }
      ],
      "name": "hasRole",
      "outputs": [
        {
          "internalType": "bool",
          "name": "",
          "type": "bool"
        }
      ],
      "stateMutability": "view",
      "type": "function"
    },
    {
      "inputs": [
        {
          "internalType": "uint256",
          "name": "_divisor",
          "type": "uint256"
        },
        {
          "internalType": "uint256",
          "name": "_ratio",
          "type": "uint256"
        },
        {
          "internalType": "uint256",
          "name": "_burnFee",
          "type": "uint256"
        },
        {
          "internalType": "uint256",
          "name": "_liquidationPenalty",
          "type": "uint256"
        },
        {
          "internalType": "address",
          "name": "_tcapOracle",
          "type": "address"
        },
        {
          "internalType": "contract TCAP",
          "name": "_tcapAddress",
          "type": "address"
        },
        {
          "internalType": "address",
          "name": "_collateralAddress",
          "type": "address"
        },
        {
          "internalType": "address",
          "name": "_collateralOracle",
          "type": "address"
        },
        {
          "internalType": "address",
          "name": "_ethOracle",
          "type": "address"
        }
      ],
      "name": "initialize",
      "outputs": [],
      "stateMutability": "nonpayable",
      "type": "function"
    },
    {
      "inputs": [],
      "name": "isInitialized",
      "outputs": [
        {
          "internalType": "bool",
          "name": "",
          "type": "bool"
        }
      ],
      "stateMutability": "view",
      "type": "function"
    },
    {
      "inputs": [
        {
          "internalType": "uint256",
          "name": "_vaultId",
          "type": "uint256"
        },
        {
          "internalType": "uint256",
          "name": "_requiredTCAP",
          "type": "uint256"
        }
      ],
      "name": "liquidateVault",
      "outputs": [],
      "stateMutability": "payable",
      "type": "function"
    },
    {
      "inputs": [],
      "name": "liquidationPenalty",
      "outputs": [
        {
          "internalType": "uint256",
          "name": "",
          "type": "uint256"
        }
      ],
      "stateMutability": "view",
      "type": "function"
    },
    {
      "inputs": [
        {
          "internalType": "uint256",
          "name": "_vaultId",
          "type": "uint256"
        }
      ],
      "name": "liquidationReward",
      "outputs": [
        {
          "internalType": "uint256",
          "name": "rewardCollateral",
          "type": "uint256"
        }
      ],
      "stateMutability": "view",
      "type": "function"
    },
    {
      "inputs": [
        {
          "internalType": "uint256",
          "name": "_amount",
          "type": "uint256"
        }
      ],
      "name": "mint",
      "outputs": [],
      "stateMutability": "nonpayable",
      "type": "function"
    },
    {
      "inputs": [],
      "name": "oracleDigits",
      "outputs": [
        {
          "internalType": "uint256",
          "name": "",
          "type": "uint256"
        }
      ],
      "stateMutability": "view",
      "type": "function"
    },
    {
      "inputs": [],
      "name": "owner",
      "outputs": [
        {
          "internalType": "address",
          "name": "",
          "type": "address"
        }
      ],
      "stateMutability": "view",
      "type": "function"
    },
    {
      "inputs": [],
      "name": "pause",
      "outputs": [],
      "stateMutability": "nonpayable",
      "type": "function"
    },
    {
      "inputs": [],
      "name": "paused",
      "outputs": [
        {
          "internalType": "bool",
          "name": "",
          "type": "bool"
        }
      ],
      "stateMutability": "view",
      "type": "function"
    },
    {
      "inputs": [],
      "name": "ratio",
      "outputs": [
        {
          "internalType": "uint256",
          "name": "",
          "type": "uint256"
        }
      ],
      "stateMutability": "view",
      "type": "function"
    },
    {
      "inputs": [
        {
          "internalType": "uint256",
          "name": "_amount",
          "type": "uint256"
        }
      ],
      "name": "removeCollateral",
      "outputs": [],
      "stateMutability": "nonpayable",
      "type": "function"
    },
    {
      "inputs": [],
      "name": "renounceOwnership",
      "outputs": [],
      "stateMutability": "nonpayable",
      "type": "function"
    },
    {
      "inputs": [
        {
          "internalType": "bytes32",
          "name": "role",
          "type": "bytes32"
        },
        {
          "internalType": "address",
          "name": "account",
          "type": "address"
        }
      ],
      "name": "renounceRole",
      "outputs": [],
      "stateMutability": "nonpayable",
      "type": "function"
    },
    {
      "inputs": [
        {
          "internalType": "uint256",
          "name": "_amount",
          "type": "uint256"
        }
      ],
      "name": "requiredCollateral",
      "outputs": [
        {
          "internalType": "uint256",
          "name": "collateral",
          "type": "uint256"
        }
      ],
      "stateMutability": "view",
      "type": "function"
    },
    {
      "inputs": [
        {
          "internalType": "uint256",
          "name": "_vaultId",
          "type": "uint256"
        }
      ],
      "name": "requiredLiquidationTCAP",
      "outputs": [
        {
          "internalType": "uint256",
          "name": "amount",
          "type": "uint256"
        }
      ],
      "stateMutability": "view",
      "type": "function"
    },
    {
      "inputs": [],
      "name": "retrieveFees",
      "outputs": [],
      "stateMutability": "nonpayable",
      "type": "function"
    },
    {
      "inputs": [
        {
          "internalType": "bytes32",
          "name": "role",
          "type": "bytes32"
        },
        {
          "internalType": "address",
          "name": "account",
          "type": "address"
        }
      ],
      "name": "revokeRole",
      "outputs": [],
      "stateMutability": "nonpayable",
      "type": "function"
    },
    {
      "inputs": [
        {
          "internalType": "uint256",
          "name": "_burnFee",
          "type": "uint256"
        }
      ],
      "name": "setBurnFee",
      "outputs": [],
      "stateMutability": "nonpayable",
      "type": "function"
    },
    {
      "inputs": [
        {
          "internalType": "uint256",
          "name": "_liquidationPenalty",
          "type": "uint256"
        }
      ],
      "name": "setLiquidationPenalty",
      "outputs": [],
      "stateMutability": "nonpayable",
      "type": "function"
    },
    {
      "inputs": [
        {
          "internalType": "uint256",
          "name": "_ratio",
          "type": "uint256"
        }
      ],
      "name": "setRatio",
      "outputs": [],
      "stateMutability": "nonpayable",
      "type": "function"
    },
    {
      "inputs": [
        {
          "internalType": "bytes4",
          "name": "interfaceId",
          "type": "bytes4"
        }
      ],
      "name": "supportsInterface",
      "outputs": [
        {
          "internalType": "bool",
          "name": "",
          "type": "bool"
        }
      ],
      "stateMutability": "view",
      "type": "function"
    },
    {
      "inputs": [],
      "name": "tcapOracle",
      "outputs": [
        {
          "internalType": "contract ChainlinkOracle",
          "name": "",
          "type": "address"
        }
      ],
      "stateMutability": "view",
      "type": "function"
    },
    {
      "inputs": [
        {
          "internalType": "address",
          "name": "newOwner",
          "type": "address"
        }
      ],
      "name": "transferOwnership",
      "outputs": [],
      "stateMutability": "nonpayable",
      "type": "function"
    },
    {
      "inputs": [],
      "name": "unpause",
      "outputs": [],
      "stateMutability": "nonpayable",
      "type": "function"
    },
    {
      "inputs": [
        {
          "internalType": "address",
          "name": "",
          "type": "address"
        }
      ],
      "name": "userToVault",
      "outputs": [
        {
          "internalType": "uint256",
          "name": "",
          "type": "uint256"
        }
      ],
      "stateMutability": "view",
      "type": "function"
    },
    {
      "inputs": [
        {
          "internalType": "uint256",
          "name": "",
          "type": "uint256"
        }
      ],
      "name": "vaults",
      "outputs": [
        {
          "internalType": "uint256",
          "name": "Id",
          "type": "uint256"
        },
        {
          "internalType": "uint256",
          "name": "Collateral",
          "type": "uint256"
        },
        {
          "internalType": "uint256",
          "name": "Debt",
          "type": "uint256"
        },
        {
          "internalType": "address",
          "name": "Owner",
          "type": "address"
        }
      ],
      "stateMutability": "view",
      "type": "function"
    }
  ],
  "address": "0x661b59E286B4fe1F04920223AF161E62fFECCE5c",
  "args": [
    "0x60AE8D263AE80892c36F7824D99EE3B4336E5d83"
  ],
  "solcInputHash": "0xbcb7b267486579aa44f7927aa02bf1b0a7b224229b638e64190c341127d33829",
  "bytecode": "0x60806040526010805460ff191690553480156200001b57600080fd5b506040516200344838038062003448833981810160405260208110156200004157600080fd5b5051806000620000596001600160e01b03620000eb16565b600080546001600160a01b0319166001600160a01b03831690811782556040519293509160008051602062003428833981519152908290a35060016002556003805460ff19169055620000b96004620000ef602090811b620026c217901c565b620000cf6000336001600160e01b03620000f816565b620000e3816001600160e01b036200011116565b505062000335565b3390565b80546001019055565b6200010d82826001600160e01b036200021816565b5050565b620001246001600160e01b03620000eb16565b6000546001600160a01b0390811691161462000187576040805162461bcd60e51b815260206004820181905260248201527f4f776e61626c653a2063616c6c6572206973206e6f7420746865206f776e6572604482015290519081900360640190fd5b6001600160a01b038116620001ce5760405162461bcd60e51b8152600401808060200182810382526026815260200180620034026026913960400191505060405180910390fd5b600080546040516001600160a01b03808516939216916000805160206200342883398151915291a3600080546001600160a01b0319166001600160a01b0392909216919091179055565b60008281526001602090815260409091206200023f918390620026cb6200029c821b17901c565b156200010d57620002586001600160e01b03620000eb16565b6001600160a01b0316816001600160a01b0316837f2f8788117e7eff1d82e926ec794901d17c78024a50270940304540a733656f0d60405160405180910390a45050565b6000620002bc836001600160a01b0384166001600160e01b03620002c516565b90505b92915050565b6000620002dc83836001600160e01b036200031d16565b6200031457508154600181810184556000848152602080822090930184905584548482528286019093526040902091909155620002bf565b506000620002bf565b60009081526001919091016020526040902054151590565b6130bd80620003456000396000f3fe6080604052600436106102935760003560e01c80638456cb591161015a578063b2237ba3116100c1578063d547741f1161007a578063d547741f146108b4578063de9952c9146108ed578063f2fde38b14610917578063f4bfd3461461094a578063fce589d8146109b9578063fcee45f4146109ce57610293565b8063b2237ba3146107d9578063bae8cae514610803578063bc721a9614610818578063bcc46e831461084b578063c6e1c7c914610875578063ca15c8731461088a57610293565b80639403b634116101135780639403b634146106e0578063952cc86a1461073857806397994e301461075b578063a0712d6814610770578063a217fddf1461079a578063abb7bc4a146107af57610293565b80638456cb59146105ca5780638c01f211146105df5780638c64ea4a146106095780638da5cb5b146106625780639010d07c1461067757806391d14854146106a757610293565b806342966c68116101fe5780636ae7adc1116101b75780636ae7adc11461052e5780636ca2143c14610543578063715018a61461055857806371ca337d1461056d57806375f620ac14610582578063842e357c146105b557610293565b806342966c681461049357806346dc9007146104b05780634bf2c7c9146104c55780635c975abb146104ef5780635d12928b1461050457806361bc221a1461051957610293565b80632806a743116102505780632806a743146103a15780632f2ff15d146103cd5780633237c1581461040657806336568abe14610430578063392e53cd146104695780633f4ba83a1461047e57610293565b806301ffc9a71461029857806311d850e8146102e05780631cc244ba1461031c5780631f2dc5ef1461034d57806323f5589a14610362578063248a9ca314610377575b600080fd5b3480156102a457600080fd5b506102cc600480360360208110156102bb57600080fd5b50356001600160e01b0319166109f8565b604080519115158252519081900360200190f35b3480156102ec57600080fd5b5061030a6004803603602081101561030357600080fd5b5035610a2f565b60408051918252519081900360200190f35b34801561032857600080fd5b50610331610abd565b604080516001600160a01b039092168252519081900360200190f35b34801561035957600080fd5b5061030a610acc565b34801561036e57600080fd5b5061030a610ad2565b34801561038357600080fd5b5061030a6004803603602081101561039a57600080fd5b5035610ad8565b3480156103ad57600080fd5b506103cb600480360360208110156103c457600080fd5b5035610aed565b005b3480156103d957600080fd5b506103cb600480360360408110156103f057600080fd5b50803590602001356001600160a01b0316610be9565b34801561041257600080fd5b506103cb6004803603602081101561042957600080fd5b5035610c55565b34801561043c57600080fd5b506103cb6004803603604081101561045357600080fd5b50803590602001356001600160a01b0316610f71565b34801561047557600080fd5b506102cc610fd2565b34801561048a57600080fd5b506103cb610fdb565b6103cb600480360360208110156104a957600080fd5b503561103d565b3480156104bc57600080fd5b5061030a611220565b3480156104d157600080fd5b506103cb600480360360208110156104e857600080fd5b5035611257565b3480156104fb57600080fd5b506102cc6112ed565b34801561051057600080fd5b506103cb6112f6565b34801561052557600080fd5b5061030a611467565b34801561053a57600080fd5b5061030a61146d565b34801561054f57600080fd5b50610331611476565b34801561056457600080fd5b506103cb611485565b34801561057957600080fd5b5061030a611527565b34801561058e57600080fd5b5061030a600480360360208110156105a557600080fd5b50356001600160a01b031661152d565b3480156105c157600080fd5b506103316115b1565b3480156105d657600080fd5b506103cb6115c0565b3480156105eb57600080fd5b5061030a6004803603602081101561060257600080fd5b5035611620565b34801561061557600080fd5b506106336004803603602081101561062c57600080fd5b50356116fa565b604080519485526020850193909352838301919091526001600160a01b03166060830152519081900360800190f35b34801561066e57600080fd5b5061033161172a565b34801561068357600080fd5b506103316004803603604081101561069a57600080fd5b5080359060200135611739565b3480156106b357600080fd5b506102cc600480360360408110156106ca57600080fd5b50803590602001356001600160a01b031661175e565b3480156106ec57600080fd5b5061070a6004803603602081101561070357600080fd5b503561177c565b6040805194855260208501939093526001600160a01b03909116838301526060830152519081900360800190f35b6103cb6004803603604081101561074e57600080fd5b50803590602001356117e3565b34801561076757600080fd5b50610331611adc565b34801561077c57600080fd5b506103cb6004803603602081101561079357600080fd5b5035611aeb565b3480156107a657600080fd5b5061030a611da7565b3480156107bb57600080fd5b5061030a600480360360208110156107d257600080fd5b5035611dac565b3480156107e557600080fd5b506103cb600480360360208110156107fc57600080fd5b5035611df6565b34801561080f57600080fd5b506103cb611e8c565b34801561082457600080fd5b5061030a6004803603602081101561083b57600080fd5b50356001600160a01b0316611f5f565b34801561085757600080fd5b506103cb6004803603602081101561086e57600080fd5b5035611f71565b34801561088157600080fd5b506103316121ee565b34801561089657600080fd5b5061030a600480360360208110156108ad57600080fd5b50356121fd565b3480156108c057600080fd5b506103cb600480360360408110156108d757600080fd5b50803590602001356001600160a01b0316612214565b3480156108f957600080fd5b5061030a6004803603602081101561091057600080fd5b503561226d565b34801561092357600080fd5b506103cb6004803603602081101561093a57600080fd5b50356001600160a01b0316612383565b34801561095657600080fd5b506103cb600480360361012081101561096e57600080fd5b508035906020810135906040810135906060810135906001600160a01b03608082013581169160a081013582169160c082013581169160e0810135821691610100909101351661247b565b3480156109c557600080fd5b5061030a612685565b3480156109da57600080fd5b5061030a600480360360208110156109f157600080fd5b503561268b565b60006001600160e01b0319821663279d6ac360e21b1480610a2957506001600160e01b031982166301ffc9a760e01b145b92915050565b600080610a3b8361226d565b90506000610a47611220565b600854909150600090610a62906001600160a01b031661152d565b90506000610a9d6064610a91610a846064600d546126e090919063ffffffff16565b879063ffffffff61273a16565b9063ffffffff61279316565b9050610ab382610a91838663ffffffff61273a16565b9695505050505050565b6006546001600160a01b031681565b600a5481565b600d5481565b60009081526001602052604090206002015490565b610af56127d5565b6000546001600160a01b03908116911614610b45576040805162461bcd60e51b81526020600482018190526024820152600080516020612fcf833981519152604482015290519081900360640190fd5b600b54610b5982606463ffffffff6126e016565b10610bab576040805162461bcd60e51b815260206004820152601c60248201527f4c69717569646174696f6e2070656e616c747920746f6f206869676800000000604482015290519081900360640190fd5b600d81905560408051828152905133917f6fdf5e426cb97389332e6d1c998d5123734bd7f204aa29b4a8284734c7aaa0ae919081900360200190a250565b600082815260016020526040902060020154610c0c90610c076127d5565b61175e565b610c475760405162461bcd60e51b815260040180806020018281038252602f815260200180612ee6602f913960400191505060405180910390fd5b610c5182826127d9565b5050565b600280541415610c9a576040805162461bcd60e51b815260206004820152601f6024820152600080516020612f15833981519152604482015290519081900360640190fd5b60028055336000908152600e6020526040902054610cf2576040805162461bcd60e51b815260206004820152601060248201526f139bc815985d5b1d0818dc99585d195960821b604482015290519081900360640190fd5b60035460ff1615610d3d576040805162461bcd60e51b815260206004820152601060248201526f14185d5cd8589b194e881c185d5cd95960821b604482015290519081900360640190fd5b8080610d83576040805162461bcd60e51b815260206004820152601060248201526f056616c75652063616e277420626520360841b604482015290519081900360640190fd5b336000908152600e60209081526040808320548352600f90915281208054909190610dad90611620565b90508382600101541015610df25760405162461bcd60e51b81526004018080602001828103825260408152602001806130196040913960400191505060405180910390fd5b6001820154610e07908563ffffffff61284816565b60018301558015610e5d57600b548254610e2090611620565b1015610e5d5760405162461bcd60e51b8152600401808060200182810382526023815260200180612f356023913960400191505060405180910390fd5b6007546040805163a9059cbb60e01b81523360048201526024810187905290516001600160a01b039092169163a9059cbb916044808201926020929091908290030181600087803b158015610eb157600080fd5b505af1158015610ec5573d6000803e3d6000fd5b505050506040513d6020811015610edb57600080fd5b5051610f2e576040805162461bcd60e51b815260206004820152601e60248201527f4552433230207472616e7366657220646964206e6f7420737563636565640000604482015290519081900360640190fd5b815460408051868152905133917f9b849e292191860667c493bd0657a5c71fd2350e4645303bddfc435da85c7c20919081900360200190a3505060016002555050565b610f796127d5565b6001600160a01b0316816001600160a01b031614610fc85760405162461bcd60e51b815260040180806020018281038252602f815260200180613059602f913960400191505060405180910390fd5b610c51828261288a565b60105460ff1681565b610fe36127d5565b6000546001600160a01b03908116911614611033576040805162461bcd60e51b81526020600482018190526024820152600080516020612fcf833981519152604482015290519081900360640190fd5b61103b6128f9565b565b600280541415611082576040805162461bcd60e51b815260206004820152601f6024820152600080516020612f15833981519152604482015290519081900360640190fd5b60028055336000908152600e60205260409020546110da576040805162461bcd60e51b815260206004820152601060248201526f139bc815985d5b1d0818dc99585d195960821b604482015290519081900360640190fd5b60035460ff1615611125576040805162461bcd60e51b815260206004820152601060248201526f14185d5cd8589b194e881c185d5cd95960821b604482015290519081900360640190fd5b808061116b576040805162461bcd60e51b815260206004820152601060248201526f056616c75652063616e277420626520360841b604482015290519081900360640190fd5b611173612e92565b50336000908152600e60209081526040808320548352600f8252918290208251608081018452815481526001820154928101929092526002810154928201929092526003909101546001600160a01b031660608201526111d283612997565b80516111de90846129f8565b805160408051858152905133917f21cb60dab84f5815c7c4197b8935326f424383c894633344b495319ada0658aa919081900360200190a35050600160025550565b600654600090819061123a906001600160a01b031661152d565b9050611251600a548261279390919063ffffffff16565b91505090565b61125f6127d5565b6000546001600160a01b039081169116146112af576040805162461bcd60e51b81526020600482018190526024820152600080516020612fcf833981519152604482015290519081900360640190fd5b600c81905560408051828152905133917f8cee12d433ab3655cf1b6189969ae35611c638f002d75202b4c8f260746ef20f919081900360200190a250565b60035460ff1690565b60035460ff1615611341576040805162461bcd60e51b815260206004820152601060248201526f14185d5cd8589b194e881c185d5cd95960821b604482015290519081900360640190fd5b336000908152600e60205260409020541561139b576040805162461bcd60e51b815260206004820152601560248201527415985d5b1d08185b1c9958591e4818dc99585d1959605a1b604482015290519081900360640190fd5b60006113a76004612ae9565b336000908152600e6020526040902081905590506113c3612e92565b5060408051608081018252828152600060208083018281528385018381523360608601908152878552600f909352949092208351815591516001830155925160028201559151600390920180546001600160a01b0319166001600160a01b039093169290921790915561143660046126c2565b604051829033907f2fc6c3ac0740e97bb7c9a7b06221dafe87b5286c5076d86c8cb78bf1de9bd40a90600090a35050565b60045481565b6402540be40081565b6005546001600160a01b031681565b61148d6127d5565b6000546001600160a01b039081169116146114dd576040805162461bcd60e51b81526020600482018190526024820152600080516020612fcf833981519152604482015290519081900360640190fd5b600080546040516001600160a01b03909116907f8be0079c531659141344cd1fd0a4f28419497f9722a3daafe3b4186f6b6457e0908390a3600080546001600160a01b0319169055565b600b5481565b6000610a296402540be4006115a5846001600160a01b03166396237c026040518163ffffffff1660e01b815260040160206040518083038186803b15801561157457600080fd5b505afa158015611588573d6000803e3d6000fd5b505050506040513d602081101561159e57600080fd5b5051612aed565b9063ffffffff61273a16565b6008546001600160a01b031681565b6115c86127d5565b6000546001600160a01b03908116911614611618576040805162461bcd60e51b81526020600482018190526024820152600080516020612fcf833981519152604482015290519081900360640190fd5b61103b612b48565b600061162a612e92565b506000828152600f602090815260409182902082516080810184528154808252600183015493820193909352600282015493810193909352600301546001600160a01b03166060830152158061168257506040810151155b1561169057600091506116f4565b6008546000906116a8906001600160a01b031661152d565b90506116f06116c96116b8611220565b60408501519063ffffffff61273a16565b6020840151610a91906116e390606463ffffffff61273a16565b849063ffffffff61273a16565b9250505b50919050565b600f602052600090815260409020805460018201546002830154600390930154919290916001600160a01b031684565b6000546001600160a01b031690565b6000828152600160205260408120611757908363ffffffff612bc916565b9392505050565b6000828152600160205260408120611757908363ffffffff612bd516565b60008060008061178a612e92565b50505060009283525050600f602090815260409182902082516080810184528154808252600183015493820184905260028301549482018590526003909201546001600160a01b03166060909101819052909391929091565b600280541415611828576040805162461bcd60e51b815260206004820152601f6024820152600080516020612f15833981519152604482015290519081900360640190fd5b6002805560035460ff1615611877576040805162461bcd60e51b815260206004820152601060248201526f14185d5cd8589b194e881c185d5cd95960821b604482015290519081900360640190fd5b6000828152600f6020526040902080546118cb576040805162461bcd60e51b815260206004820152601060248201526f139bc815985d5b1d0818dc99585d195960821b604482015290519081900360640190fd5b60006118da8260000154611620565b9050600b548110611932576040805162461bcd60e51b815260206004820152601760248201527f5661756c74206973206e6f74206c697175696461626c65000000000000000000604482015290519081900360640190fd5b6000611941836000015461226d565b90508084146119815760405162461bcd60e51b815260040180806020018281038252602a815260200180612fef602a913960400191505060405180910390fd5b60006119908460000154610a2f565b905061199b85612997565b83546119a790866129f8565b60018401546119bc908263ffffffff61284816565b60018501556007546040805163a9059cbb60e01b81523360048201526024810184905290516001600160a01b039092169163a9059cbb916044808201926020929091908290030181600087803b158015611a1557600080fd5b505af1158015611a29573d6000803e3d6000fd5b505050506040513d6020811015611a3f57600080fd5b5051611a92576040805162461bcd60e51b815260206004820152601e60248201527f4552433230207472616e7366657220646964206e6f7420737563636565640000604482015290519081900360640190fd5b8354604080518481526020810184905281513393927fc07e3ac2fb130a0f07f1bdea4de0051bd1d99076a5a19c5d04e4a88cd73cdd5b928290030190a35050600160025550505050565b6009546001600160a01b031681565b600280541415611b30576040805162461bcd60e51b815260206004820152601f6024820152600080516020612f15833981519152604482015290519081900360640190fd5b60028055336000908152600e6020526040902054611b88576040805162461bcd60e51b815260206004820152601060248201526f139bc815985d5b1d0818dc99585d195960821b604482015290519081900360640190fd5b60035460ff1615611bd3576040805162461bcd60e51b815260206004820152601060248201526f14185d5cd8589b194e881c185d5cd95960821b604482015290519081900360640190fd5b8080611c19576040805162461bcd60e51b815260206004820152601060248201526f056616c75652063616e277420626520360841b604482015290519081900360640190fd5b336000908152600e60209081526040808320548352600f909152812090611c3f84611dac565b90508082600101541015611c92576040805162461bcd60e51b8152602060048201526015602482015274139bdd08195b9bdd59da0818dbdb1b185d195c985b605a1b604482015290519081900360640190fd5b6002820154611ca7908563ffffffff6126e016565b6002830155600b548254611cba90611620565b1015611cf75760405162461bcd60e51b8152600401808060200182810382526023815260200180612f356023913960400191505060405180910390fd5b600554604080516340c10f1960e01b81523360048201526024810187905290516001600160a01b03909216916340c10f199160448082019260009290919082900301818387803b158015611d4a57600080fd5b505af1158015611d5e573d6000803e3d6000fd5b505083546040805188815290519193503392507fa82a7ea15c804d00dba1b969024b510969fde70fac8e0d5da860cf1f7376d317919081900360200190a3505060016002555050565b600081565b600080611db7611220565b600854909150600090611dd2906001600160a01b031661152d565b90506116f081610a916064610a91600b546115a58a8961273a90919063ffffffff16565b611dfe6127d5565b6000546001600160a01b03908116911614611e4e576040805162461bcd60e51b81526020600482018190526024820152600080516020612fcf833981519152604482015290519081900360640190fd5b600b81905560408051828152905133917f745333eadc1991720ed6c94ad80c7b81898a7d7ca230f4107bc38eecd95e9e45919081900360200190a250565b611e946127d5565b6000546001600160a01b03908116911614611ee4576040805162461bcd60e51b81526020600482018190526024820152600080516020612fcf833981519152604482015290519081900360640190fd5b47611eed61172a565b6001600160a01b03166108fc829081150290604051600060405180830381858888f19350505050158015611f25573d6000803e3d6000fd5b5060408051828152905133917fa0f15d6e433e5a79b54bc760ff6406f0a5f45d6b6ce085ff9a7d0481f6d28158919081900360200190a250565b600e6020526000908152604090205481565b600280541415611fb6576040805162461bcd60e51b815260206004820152601f6024820152600080516020612f15833981519152604482015290519081900360640190fd5b60028055336000908152600e602052604090205461200e576040805162461bcd60e51b815260206004820152601060248201526f139bc815985d5b1d0818dc99585d195960821b604482015290519081900360640190fd5b60035460ff1615612059576040805162461bcd60e51b815260206004820152601060248201526f14185d5cd8589b194e881c185d5cd95960821b604482015290519081900360640190fd5b808061209f576040805162461bcd60e51b815260206004820152601060248201526f056616c75652063616e277420626520360841b604482015290519081900360640190fd5b600754604080516323b872dd60e01b81523360048201523060248201526044810185905290516001600160a01b03909216916323b872dd916064808201926020929091908290030181600087803b1580156120f957600080fd5b505af115801561210d573d6000803e3d6000fd5b505050506040513d602081101561212357600080fd5b5051612176576040805162461bcd60e51b815260206004820152601e60248201527f4552433230207472616e7366657220646964206e6f7420737563636565640000604482015290519081900360640190fd5b336000908152600e60209081526040808320548352600f909152902060018101546121a7908463ffffffff6126e016565b6001820155805460408051858152905133917f31ac33c8e5d32723055870a2be01442545a84680341c886373c957110bc175dc919081900360200190a35050600160025550565b6007546001600160a01b031681565b6000818152600160205260408120610a2990612bea565b60008281526001602052604090206002015461223290610c076127d5565b610fc85760405162461bcd60e51b8152600401808060200182810382526030815260200180612f7e6030913960400191505060405180910390fd5b6000612277612e92565b506000828152600f60209081526040808320815160808101835281548152600182015493810193909352600281015491830191909152600301546001600160a01b03166060820152906122c8611220565b6008549091506000906122e3906001600160a01b031661152d565b9050600061230283610a9184876020015161273a90919063ffffffff16565b9050600061233960646115a58461232d6064610a91600b548c6040015161273a90919063ffffffff16565b9063ffffffff61284816565b905060006123656123566064600d546126e090919063ffffffff16565b600b549063ffffffff61284816565b9050612377828263ffffffff61279316565b98975050505050505050565b61238b6127d5565b6000546001600160a01b039081169116146123db576040805162461bcd60e51b81526020600482018190526024820152600080516020612fcf833981519152604482015290519081900360640190fd5b6001600160a01b0381166124205760405162461bcd60e51b8152600401808060200182810382526026815260200180612f586026913960400191505060405180910390fd5b600080546040516001600160a01b03808516939216917f8be0079c531659141344cd1fd0a4f28419497f9722a3daafe3b4186f6b6457e091a3600080546001600160a01b0319166001600160a01b0392909216919091179055565b6124836127d5565b6000546001600160a01b039081169116146124d3576040805162461bcd60e51b81526020600482018190526024820152600080516020612fcf833981519152604482015290519081900360640190fd5b60105460ff161561252b576040805162461bcd60e51b815260206004820152601c60248201527f436f6e747261637420616c726561647920696e697469616c697a656400000000604482015290519081900360640190fd5b8761253d87606463ffffffff6126e016565b1061258f576040805162461bcd60e51b815260206004820152601c60248201527f4c69717569646174696f6e2070656e616c747920746f6f206869676800000000604482015290519081900360640190fd5b6010805460ff19166001179055600a899055600b889055600c879055600d869055600680546001600160a01b038088166001600160a01b0319928316811790935560078054878316908416811790915560088054878416908516811790915560098054878516908616811790915560058054948b16949095168417909455604080518f8152602081018f90528082018e9052606081018d9052608081019690965260a086019390935260c085019190915260e0840152610100830191909152517fb9a545ccd588c3c684fce5229e17f46fcc82a229a43f23e82b745443f999ba01918190036101200190a1505050505050505050565b600c5481565b60095460009081906126a5906001600160a01b031661152d565b905061175781610a916064610a91600c546115a5896115a5611220565b80546001019055565b6000611757836001600160a01b038416612bf5565b600082820183811015611757576040805162461bcd60e51b815260206004820152601b60248201527f536166654d6174683a206164646974696f6e206f766572666c6f770000000000604482015290519081900360640190fd5b60008261274957506000610a29565b8282028284828161275657fe5b04146117575760405162461bcd60e51b8152600401808060200182810382526021815260200180612fae6021913960400191505060405180910390fd5b600061175783836040518060400160405280601a81526020017f536166654d6174683a206469766973696f6e206279207a65726f000000000000815250612c3f565b3390565b60008281526001602052604090206127f7908263ffffffff6126cb16565b15610c51576128046127d5565b6001600160a01b0316816001600160a01b0316837f2f8788117e7eff1d82e926ec794901d17c78024a50270940304540a733656f0d60405160405180910390a45050565b600061175783836040518060400160405280601e81526020017f536166654d6174683a207375627472616374696f6e206f766572666c6f770000815250612ce1565b60008281526001602052604090206128a8908263ffffffff612d3b16565b15610c51576128b56127d5565b6001600160a01b0316816001600160a01b0316837ff6391f5c32d9c69d2a47ea670b442974b53935d1edc7fd64eb21e047a839171b60405160405180910390a45050565b60035460ff16612947576040805162461bcd60e51b815260206004820152601460248201527314185d5cd8589b194e881b9bdd081c185d5cd95960621b604482015290519081900360640190fd5b6003805460ff191690557f5db9ee0a495bf2e6ff9c91a7834c1ba4fdd244a5e8aa4e537bd38aeae4b073aa61297a6127d5565b604080516001600160a01b039092168252519081900360200190a1565b60006129a28261268b565b9050348114610c51576040805162461bcd60e51b815260206004820181905260248201527f4275726e2066656520646966666572656e74207468616e207265717569726564604482015290519081900360640190fd5b6000828152600f602052604090206002810154821115612a5f576040805162461bcd60e51b815260206004820152601860248201527f416d6f756e742067726561746572207468616e20646562740000000000000000604482015290519081900360640190fd5b6002810154612a74908363ffffffff61284816565b600282015560055460408051632770a7eb60e21b81523360048201526024810185905290516001600160a01b0390921691639dc29fac9160448082019260009290919082900301818387803b158015612acc57600080fd5b505af1158015612ae0573d6000803e3d6000fd5b50505050505050565b5490565b600080821215612b44576040805162461bcd60e51b815260206004820181905260248201527f53616665436173743a2076616c7565206d75737420626520706f736974697665604482015290519081900360640190fd5b5090565b60035460ff1615612b93576040805162461bcd60e51b815260206004820152601060248201526f14185d5cd8589b194e881c185d5cd95960821b604482015290519081900360640190fd5b6003805460ff191660011790557f62e78cea01bee320cd4e420270b5ea74000d11b0c9f74754ebdbfc544b05a25861297a6127d5565b60006117578383612d50565b6000611757836001600160a01b038416612db4565b6000610a2982612ae9565b6000612c018383612db4565b612c3757508154600181810184556000848152602080822090930184905584548482528286019093526040902091909155610a29565b506000610a29565b60008183612ccb5760405162461bcd60e51b81526004018080602001828103825283818151815260200191508051906020019080838360005b83811015612c90578181015183820152602001612c78565b50505050905090810190601f168015612cbd5780820380516001836020036101000a031916815260200191505b509250505060405180910390fd5b506000838581612cd757fe5b0495945050505050565b60008184841115612d335760405162461bcd60e51b8152602060048201818152835160248401528351909283926044909101919085019080838360008315612c90578181015183820152602001612c78565b505050900390565b6000611757836001600160a01b038416612dcc565b81546000908210612d925760405162461bcd60e51b8152600401808060200182810382526022815260200180612ec46022913960400191505060405180910390fd5b826000018281548110612da157fe5b9060005260206000200154905092915050565b60009081526001919091016020526040902054151590565b60008181526001830160205260408120548015612e885783546000198083019190810190600090879083908110612dff57fe5b9060005260206000200154905080876000018481548110612e1c57fe5b600091825260208083209091019290925582815260018981019092526040902090840190558654879080612e4c57fe5b60019003818190600052602060002001600090559055866001016000878152602001908152602001600020600090556001945050505050610a29565b6000915050610a29565b604051806080016040528060008152602001600081526020016000815260200160006001600160a01b03168152509056fe456e756d657261626c655365743a20696e646578206f7574206f6620626f756e6473416363657373436f6e74726f6c3a2073656e646572206d75737420626520616e2061646d696e20746f206772616e745265656e7472616e637947756172643a207265656e7472616e742063616c6c00436f6c6c61746572616c2062656c6f77206d696e20726571756972656420726174696f4f776e61626c653a206e6577206f776e657220697320746865207a65726f2061646472657373416363657373436f6e74726f6c3a2073656e646572206d75737420626520616e2061646d696e20746f207265766f6b65536166654d6174683a206d756c7469706c69636174696f6e206f766572666c6f774f776e61626c653a2063616c6c6572206973206e6f7420746865206f776e65724c69717569646174696f6e20616d6f756e7420646966666572656e74207468616e2072657175697265645472616e73616374696f6e207265766572746564207769746820526574726965766520616d6f756e7420686967686572207468616e20636f6c6c61746572616c416363657373436f6e74726f6c3a2063616e206f6e6c792072656e6f756e636520726f6c657320666f722073656c66a2646970667358221220b42aa62873270eb7758f6795343b1364456f5e936e7b77ce4fb8dc427df178c964736f6c634300060800334f776e61626c653a206e6577206f776e657220697320746865207a65726f20616464726573738be0079c531659141344cd1fd0a4f28419497f9722a3daafe3b4186f6b6457e0",
  "devdoc": {
    "author": "Cristian Espinoza",
    "methods": {
      "TCAPPrice()": {
        "details": "TCAP token is 18 decimalsoracle totalMarketPrice must be in wei formatP = M / d P = TCAP Token Price M = Total Crypto Market Cap d = Divisor",
        "returns": {
          "price": "of the TCAP Token"
        }
      },
      "addCollateral(uint256)": {
        "details": "_amount should be higher than 0",
        "params": {
          "_amount": "of collateral to add"
        }
      },
      "burn(uint256)": {
        "details": "_amount should be higher than 0",
        "params": {
          "_amount": "of tokens to burn"
        }
      },
      "createVault()": {
        "details": "Only one vault per address can be created"
      },
      "getFee(uint256)": {
        "details": "The returned value is returned in weif = ((P * A * b)/ 100) f = Burn Fee Value P = TCAP Token Price A = Amount to Burn b = Burn Fee %",
        "params": {
          "_amount": "to burn"
        },
        "returns": {
          "fee": "fee"
        }
      },
      "getRoleAdmin(bytes32)": {
        "details": "Returns the admin role that controls `role`. See {grantRole} and {revokeRole}.     * To change a role's admin, use {_setRoleAdmin}."
      },
      "getRoleMember(bytes32,uint256)": {
        "details": "Returns one of the accounts that have `role`. `index` must be a value between 0 and {getRoleMemberCount}, non-inclusive.     * Role bearers are not sorted in any particular way, and their ordering may change at any point.     * WARNING: When using {getRoleMember} and {getRoleMemberCount}, make sure you perform all queries on the same block. See the following https://forum.openzeppelin.com/t/iterating-over-elements-on-enumerableset-in-openzeppelin-contracts/2296[forum post] for more information."
      },
      "getRoleMemberCount(bytes32)": {
        "details": "Returns the number of accounts that have `role`. Can be used together with {getRoleMember} to enumerate all bearers of a role."
      },
      "getVault(uint256)": {
        "params": {
          "_id": "of vault"
        },
        "returns": {
          "_0": "Id, Collateral, Owner, Debt"
        }
      },
      "getVaultRatio(uint256)": {
        "details": "vr = (cp * (C * 100)) / D * P vr = Vault Ratio C = Vault Collateral cp = Collateral Price D = Vault Debt P = TCAP Token Price",
        "params": {
          "_vaultId": "id of vault"
        },
        "returns": {
          "currentRatio": "currentRatio"
        }
      },
      "grantRole(bytes32,address)": {
        "details": "Grants `role` to `account`.     * If `account` had not been already granted `role`, emits a {RoleGranted} event.     * Requirements:     * - the caller must have ``role``'s admin role."
      },
      "hasRole(bytes32,address)": {
        "details": "Returns `true` if `account` has been granted `role`."
      },
      "initialize(uint256,uint256,uint256,uint256,address,address,address,address,address)": {
        "details": "Only owner can call itCan only be called once",
        "params": {
          "_burnFee": "uint256",
          "_collateralAddress": "address",
          "_collateralOracle": "address",
          "_divisor": "uint256",
          "_ethOracle": "address",
          "_liquidationPenalty": "uint256",
          "_ratio": "uint256",
          "_tcapAddress": "address",
          "_tcapOracle": "address"
        }
      },
      "liquidateVault(uint256,uint256)": {
        "params": {
          "_requiredTCAP": "amount of TCAP to liquidate vault",
          "_vaultId": "to liquidate"
        }
      },
      "liquidationReward(uint256)": {
        "details": "the returned value is returned on the vault collateralR = (LT * (p  + 100)) / 100 R = Liquidation Reward LT = Required Liquidation TCAP p = liquidation penalty",
        "params": {
          "_vaultId": "of the vault to liquidate"
        },
        "returns": {
          "rewardCollateral": "for liquidating Vault"
        }
      },
      "mint(uint256)": {
        "details": "_amount should be higher than 0",
        "params": {
          "_amount": "of tokens to mint"
        }
      },
      "owner()": {
        "details": "Returns the address of the current owner."
      },
      "paused()": {
        "details": "Returns true if the contract is paused, and false otherwise."
      },
      "removeCollateral(uint256)": {
        "details": "_amount should be higher than 0",
        "params": {
          "_amount": "of collateral to remove"
        }
      },
      "renounceOwnership()": {
        "details": "Leaves the contract without owner. It will not be possible to call `onlyOwner` functions anymore. Can only be called by the current owner.     * NOTE: Renouncing ownership will leave the contract without an owner, thereby removing any functionality that is only available to the owner."
      },
      "renounceRole(bytes32,address)": {
        "details": "Revokes `role` from the calling account.     * Roles are often managed via {grantRole} and {revokeRole}: this function's purpose is to provide a mechanism for accounts to lose their privileges if they are compromised (such as when a trusted device is misplaced).     * If the calling account had been granted `role`, emits a {RoleRevoked} event.     * Requirements:     * - the caller must be `account`."
      },
      "requiredCollateral(uint256)": {
        "details": "TCAP token is 18 decimalsC = ((P * A * r) / 100) / cp C = Required Collateral P = TCAP Token Price A = Amount to Mint cp = Collateral Price r = Minimun Ratio for Liquidation Is only divided by 100 as eth price comes in wei to cancel the additional 0s",
        "params": {
          "_amount": "uint amount to mint"
        },
        "returns": {
          "collateral": "of the TCAP Token"
        }
      },
      "requiredLiquidationTCAP(uint256)": {
        "details": "LT = ((((D * r) / 100) - cTcap) * 100) / (r - (p + 100)) cTcap = ((C * cp) / P) LT = Required TCAP D = Vault Debt C = Required Collateral P = TCAP Token Price cp = Collateral Price r = Min Vault Ratio p = Liquidation Penalty",
        "params": {
          "_vaultId": "of the vault to liquidate"
        },
        "returns": {
          "amount": "required of the TCAP Token"
        }
      },
      "revokeRole(bytes32,address)": {
        "details": "Revokes `role` from `account`.     * If `account` had been granted `role`, emits a {RoleRevoked} event.     * Requirements:     * - the caller must have ``role``'s admin role."
      },
      "setBurnFee(uint256)": {
        "details": "Only owner can call it",
        "params": {
          "_burnFee": "uint"
        }
      },
      "setLiquidationPenalty(uint256)": {
        "details": "Only owner can call it",
        "params": {
          "_liquidationPenalty": "uint"
        }
      },
      "setRatio(uint256)": {
        "details": "Only owner can call it",
        "params": {
          "_ratio": "uint"
        }
      },
      "supportsInterface(bytes4)": {
        "params": {
          "interfaceId": "bytes of interface"
        },
        "returns": {
          "_0": "bool"
        }
      },
      "transferOwnership(address)": {
        "details": "Transfers ownership of the contract to a new account (`newOwner`). Can only be called by the current owner."
      }
    },
    "title": "TCAP Vault"
  },
  "userdoc": {
    "methods": {
      "TCAPPrice()": {
        "notice": "Returns the price of the TCAP token"
      },
      "addCollateral(uint256)": {
        "notice": "Adds collateral to vault"
      },
      "burn(uint256)": {
        "notice": "Burns TCAP Tokens releasing the staked collateral"
      },
      "createVault()": {
        "notice": "Creates a Vault"
      },
      "getFee(uint256)": {
        "notice": "Returns the required fee to burn the TCAP tokens"
      },
      "getVault(uint256)": {
        "notice": "Returns the Vault information"
      },
      "getVaultRatio(uint256)": {
        "notice": "Returns the Collateral Ratio of the Vault"
      },
      "initialize(uint256,uint256,uint256,uint256,address,address,address,address,address)": {
        "notice": "Allows the orchestrator to initialize the contract"
      },
      "liquidateVault(uint256,uint256)": {
        "notice": "Allow users to liquidate vaults with low collateral ratio"
      },
      "liquidationReward(uint256)": {
        "notice": "Returns Reward for liquidating a vault"
      },
      "mint(uint256)": {
        "notice": "Mints TCAP Tokens staking the collateral"
      },
      "pause()": {
        "notice": "Allows owner to Pause the Contract"
      },
      "removeCollateral(uint256)": {
        "notice": "Removes not used collateral from vault"
      },
      "requiredCollateral(uint256)": {
        "notice": "Returns the minimal required collateral to mint TCAP token"
      },
      "requiredLiquidationTCAP(uint256)": {
        "notice": "Returns the minimal required TCAP to liquidate a Vault"
      },
      "retrieveFees()": {
        "notice": "Sends the owner of the contract the Fees saved on ETH"
      },
      "setBurnFee(uint256)": {
        "notice": "Sets the burn fee percentage an user pays when burning tcap tokens"
      },
      "setLiquidationPenalty(uint256)": {
        "notice": "Sets the liquidation penalty % charged on liquidation"
      },
      "setRatio(uint256)": {
        "notice": "Sets the collateral ratio needed to mint tokens"
      },
      "supportsInterface(bytes4)": {
        "notice": "ERC165 Standard for support of interfaces"
      },
      "unpause()": {
        "notice": "Allows owner to Unpause the Contract"
      }
    },
    "notice": "Contract in charge of handling the TCAP Vault and stake using a Collateral ERC20"
  },
  "storageLayout": {
    "storage": [
      {
        "astId": 359,
        "contract": "contracts/ERC20VaultHandler.sol:ERC20VaultHandler",
        "label": "_owner",
        "offset": 0,
        "slot": "0",
        "type": "t_address"
      },
      {
        "astId": 91,
        "contract": "contracts/ERC20VaultHandler.sol:ERC20VaultHandler",
        "label": "_roles",
        "offset": 0,
        "slot": "1",
        "type": "t_mapping(t_bytes32,t_struct(RoleData)87_storage)"
      },
      {
        "astId": 2175,
        "contract": "contracts/ERC20VaultHandler.sol:ERC20VaultHandler",
        "label": "_status",
        "offset": 0,
        "slot": "2",
        "type": "t_uint256"
      },
      {
        "astId": 2092,
        "contract": "contracts/ERC20VaultHandler.sol:ERC20VaultHandler",
        "label": "_paused",
        "offset": 0,
        "slot": "3",
        "type": "t_bool"
      },
      {
        "astId": 2875,
        "contract": "contracts/ERC20VaultHandler.sol:ERC20VaultHandler",
        "label": "counter",
        "offset": 0,
        "slot": "4",
        "type": "t_struct(Counter)1639_storage"
      },
      {
        "astId": 2886,
        "contract": "contracts/ERC20VaultHandler.sol:ERC20VaultHandler",
        "label": "TCAPToken",
        "offset": 0,
        "slot": "5",
        "type": "t_contract(TCAP)5047"
      },
      {
        "astId": 2888,
        "contract": "contracts/ERC20VaultHandler.sol:ERC20VaultHandler",
        "label": "tcapOracle",
        "offset": 0,
        "slot": "6",
        "type": "t_contract(ChainlinkOracle)5838"
      },
      {
        "astId": 2890,
        "contract": "contracts/ERC20VaultHandler.sol:ERC20VaultHandler",
        "label": "collateralContract",
        "offset": 0,
        "slot": "7",
        "type": "t_contract(IERC20)1425"
      },
      {
        "astId": 2892,
        "contract": "contracts/ERC20VaultHandler.sol:ERC20VaultHandler",
        "label": "collateralPriceOracle",
        "offset": 0,
        "slot": "8",
        "type": "t_contract(ChainlinkOracle)5838"
      },
      {
        "astId": 2894,
        "contract": "contracts/ERC20VaultHandler.sol:ERC20VaultHandler",
        "label": "ETHPriceOracle",
        "offset": 0,
        "slot": "9",
        "type": "t_contract(ChainlinkOracle)5838"
      },
      {
        "astId": 2896,
        "contract": "contracts/ERC20VaultHandler.sol:ERC20VaultHandler",
        "label": "divisor",
        "offset": 0,
        "slot": "10",
        "type": "t_uint256"
      },
      {
        "astId": 2898,
        "contract": "contracts/ERC20VaultHandler.sol:ERC20VaultHandler",
        "label": "ratio",
        "offset": 0,
        "slot": "11",
        "type": "t_uint256"
      },
      {
        "astId": 2900,
        "contract": "contracts/ERC20VaultHandler.sol:ERC20VaultHandler",
        "label": "burnFee",
        "offset": 0,
        "slot": "12",
        "type": "t_uint256"
      },
      {
        "astId": 2902,
        "contract": "contracts/ERC20VaultHandler.sol:ERC20VaultHandler",
        "label": "liquidationPenalty",
        "offset": 0,
        "slot": "13",
        "type": "t_uint256"
      },
      {
        "astId": 2906,
        "contract": "contracts/ERC20VaultHandler.sol:ERC20VaultHandler",
        "label": "userToVault",
        "offset": 0,
        "slot": "14",
        "type": "t_mapping(t_address,t_uint256)"
      },
      {
        "astId": 2910,
        "contract": "contracts/ERC20VaultHandler.sol:ERC20VaultHandler",
        "label": "vaults",
        "offset": 0,
        "slot": "15",
        "type": "t_mapping(t_uint256,t_struct(Vault)2884_storage)"
      },
      {
        "astId": 2913,
        "contract": "contracts/ERC20VaultHandler.sol:ERC20VaultHandler",
        "label": "isInitialized",
        "offset": 0,
        "slot": "16",
        "type": "t_bool"
      }
    ],
    "types": {
      "t_address": {
        "encoding": "inplace",
        "label": "address",
        "numberOfBytes": "20"
      },
      "t_array(t_bytes32)dyn_storage": {
        "base": "t_bytes32",
        "encoding": "dynamic_array",
        "label": "bytes32[]",
        "numberOfBytes": "32"
      },
      "t_bool": {
        "encoding": "inplace",
        "label": "bool",
        "numberOfBytes": "1"
      },
      "t_bytes32": {
        "encoding": "inplace",
        "label": "bytes32",
        "numberOfBytes": "32"
      },
      "t_contract(ChainlinkOracle)5838": {
        "encoding": "inplace",
        "label": "contract ChainlinkOracle",
        "numberOfBytes": "20"
      },
      "t_contract(IERC20)1425": {
        "encoding": "inplace",
        "label": "contract IERC20",
        "numberOfBytes": "20"
      },
      "t_contract(TCAP)5047": {
        "encoding": "inplace",
        "label": "contract TCAP",
        "numberOfBytes": "20"
      },
      "t_mapping(t_address,t_uint256)": {
        "encoding": "mapping",
        "key": "t_address",
        "label": "mapping(address => uint256)",
        "numberOfBytes": "32",
        "value": "t_uint256"
      },
      "t_mapping(t_bytes32,t_struct(RoleData)87_storage)": {
        "encoding": "mapping",
        "key": "t_bytes32",
        "label": "mapping(bytes32 => struct AccessControl.RoleData)",
        "numberOfBytes": "32",
        "value": "t_struct(RoleData)87_storage"
      },
      "t_mapping(t_bytes32,t_uint256)": {
        "encoding": "mapping",
        "key": "t_bytes32",
        "label": "mapping(bytes32 => uint256)",
        "numberOfBytes": "32",
        "value": "t_uint256"
      },
      "t_mapping(t_uint256,t_struct(Vault)2884_storage)": {
        "encoding": "mapping",
        "key": "t_uint256",
        "label": "mapping(uint256 => struct IVaultHandler.Vault)",
        "numberOfBytes": "32",
        "value": "t_struct(Vault)2884_storage"
      },
      "t_struct(AddressSet)1870_storage": {
        "encoding": "inplace",
        "label": "struct EnumerableSet.AddressSet",
        "members": [
          {
            "astId": 1869,
            "contract": "contracts/ERC20VaultHandler.sol:ERC20VaultHandler",
            "label": "_inner",
            "offset": 0,
            "slot": "0",
            "type": "t_struct(Set)1690_storage"
          }
        ],
        "numberOfBytes": "64"
      },
      "t_struct(Counter)1639_storage": {
        "encoding": "inplace",
        "label": "struct Counters.Counter",
        "members": [
          {
            "astId": 1638,
            "contract": "contracts/ERC20VaultHandler.sol:ERC20VaultHandler",
            "label": "_value",
            "offset": 0,
            "slot": "0",
            "type": "t_uint256"
          }
        ],
        "numberOfBytes": "32"
      },
      "t_struct(RoleData)87_storage": {
        "encoding": "inplace",
        "label": "struct AccessControl.RoleData",
        "members": [
          {
            "astId": 84,
            "contract": "contracts/ERC20VaultHandler.sol:ERC20VaultHandler",
            "label": "members",
            "offset": 0,
            "slot": "0",
            "type": "t_struct(AddressSet)1870_storage"
          },
          {
            "astId": 86,
            "contract": "contracts/ERC20VaultHandler.sol:ERC20VaultHandler",
            "label": "adminRole",
            "offset": 0,
            "slot": "2",
            "type": "t_bytes32"
          }
        ],
        "numberOfBytes": "96"
      },
      "t_struct(Set)1690_storage": {
        "encoding": "inplace",
        "label": "struct EnumerableSet.Set",
        "members": [
          {
            "astId": 1685,
            "contract": "contracts/ERC20VaultHandler.sol:ERC20VaultHandler",
            "label": "_values",
            "offset": 0,
            "slot": "0",
            "type": "t_array(t_bytes32)dyn_storage"
          },
          {
            "astId": 1689,
            "contract": "contracts/ERC20VaultHandler.sol:ERC20VaultHandler",
            "label": "_indexes",
            "offset": 0,
            "slot": "1",
            "type": "t_mapping(t_bytes32,t_uint256)"
          }
        ],
        "numberOfBytes": "64"
      },
      "t_struct(Vault)2884_storage": {
        "encoding": "inplace",
        "label": "struct IVaultHandler.Vault",
        "members": [
          {
            "astId": 2877,
            "contract": "contracts/ERC20VaultHandler.sol:ERC20VaultHandler",
            "label": "Id",
            "offset": 0,
            "slot": "0",
            "type": "t_uint256"
          },
          {
            "astId": 2879,
            "contract": "contracts/ERC20VaultHandler.sol:ERC20VaultHandler",
            "label": "Collateral",
            "offset": 0,
            "slot": "1",
            "type": "t_uint256"
          },
          {
            "astId": 2881,
            "contract": "contracts/ERC20VaultHandler.sol:ERC20VaultHandler",
            "label": "Debt",
            "offset": 0,
            "slot": "2",
            "type": "t_uint256"
          },
          {
            "astId": 2883,
            "contract": "contracts/ERC20VaultHandler.sol:ERC20VaultHandler",
            "label": "Owner",
            "offset": 0,
            "slot": "3",
            "type": "t_address"
          }
        ],
        "numberOfBytes": "128"
      },
      "t_uint256": {
        "encoding": "inplace",
        "label": "uint256",
        "numberOfBytes": "32"
      }
    }
  },
  "gasEstimates": {
    "creation": {
      "codeDepositCost": "2495400",
      "executionCost": "infinite",
      "totalCost": "infinite"
    },
    "external": {
      "DEFAULT_ADMIN_ROLE()": "331",
      "ETHPriceOracle()": "1126",
      "TCAPPrice()": "infinite",
      "TCAPToken()": "1104",
      "addCollateral(uint256)": "infinite",
      "burn(uint256)": "infinite",
      "burnFee()": "1130",
      "collateralContract()": "1170",
      "collateralPriceOracle()": "1192",
      "counter()": "1154",
      "createVault()": "96523",
      "divisor()": "1111",
      "getFee(uint256)": "infinite",
      "getOraclePrice(address)": "infinite",
      "getRoleAdmin(bytes32)": "1269",
      "getRoleMember(bytes32,uint256)": "infinite",
      "getRoleMemberCount(bytes32)": "infinite",
      "getVault(uint256)": "3965",
      "getVaultRatio(uint256)": "infinite",
      "grantRole(bytes32,address)": "infinite",
      "hasRole(bytes32,address)": "infinite",
      "initialize(uint256,uint256,uint256,uint256,address,address,address,address,address)": "infinite",
      "isInitialized()": "1144",
      "liquidateVault(uint256,uint256)": "infinite",
      "liquidationPenalty()": "1133",
      "liquidationReward(uint256)": "infinite",
      "mint(uint256)": "infinite",
      "oracleDigits()": "243",
      "owner()": "1149",
      "pause()": "infinite",
      "paused()": "1122",
      "ratio()": "1109",
      "removeCollateral(uint256)": "infinite",
      "renounceOwnership()": "infinite",
      "renounceRole(bytes32,address)": "infinite",
      "requiredCollateral(uint256)": "infinite",
      "requiredLiquidationTCAP(uint256)": "infinite",
      "retrieveFees()": "infinite",
      "revokeRole(bytes32,address)": "infinite",
      "setBurnFee(uint256)": "infinite",
      "setLiquidationPenalty(uint256)": "infinite",
      "setRatio(uint256)": "infinite",
      "supportsInterface(bytes4)": "412",
      "tcapOracle()": "1128",
      "transferOwnership(address)": "infinite",
      "unpause()": "infinite",
      "userToVault(address)": "1213",
      "vaults(uint256)": "3740"
    }
  }
}