{
  "abi": [
    {
      "inputs": [
        {
          "internalType": "address",
          "name": "_aggregator",
          "type": "address"
        }
      ],
      "stateMutability": "nonpayable",
      "type": "constructor"
    },
    {
      "anonymous": false,
      "inputs": [
        {
          "indexed": true,
          "internalType": "address",
          "name": "previousOwner",
          "type": "address"
        },
        {
          "indexed": true,
          "internalType": "address",
          "name": "newOwner",
          "type": "address"
        }
      ],
      "name": "OwnershipTransferred",
      "type": "event"
    },
    {
      "inputs": [],
      "name": "getLatestAnswer",
      "outputs": [
        {
          "internalType": "int256",
          "name": "price",
          "type": "int256"
        }
      ],
      "stateMutability": "view",
      "type": "function"
    },
    {
      "inputs": [],
      "name": "getLatestRound",
      "outputs": [
        {
          "internalType": "uint80",
          "name": "",
          "type": "uint80"
        },
        {
          "internalType": "int256",
          "name": "",
          "type": "int256"
        },
        {
          "internalType": "uint256",
          "name": "",
          "type": "uint256"
        },
        {
          "internalType": "uint256",
          "name": "",
          "type": "uint256"
        },
        {
          "internalType": "uint80",
          "name": "",
          "type": "uint80"
        }
      ],
      "stateMutability": "view",
      "type": "function"
    },
    {
      "inputs": [],
      "name": "getLatestTimestamp",
      "outputs": [
        {
          "internalType": "uint256",
          "name": "",
          "type": "uint256"
        }
      ],
      "stateMutability": "view",
      "type": "function"
    },
    {
      "inputs": [
        {
          "internalType": "uint80",
          "name": "_id",
          "type": "uint80"
        }
      ],
      "name": "getPreviousAnswer",
      "outputs": [
        {
          "internalType": "int256",
          "name": "",
          "type": "int256"
        }
      ],
      "stateMutability": "view",
      "type": "function"
    },
    {
      "inputs": [
        {
          "internalType": "uint80",
          "name": "_id",
          "type": "uint80"
        }
      ],
      "name": "getPreviousTimestamp",
      "outputs": [
        {
          "internalType": "uint256",
          "name": "",
          "type": "uint256"
        }
      ],
      "stateMutability": "view",
      "type": "function"
    },
    {
      "inputs": [
        {
          "internalType": "uint80",
          "name": "_id",
          "type": "uint80"
        }
      ],
      "name": "getRound",
      "outputs": [
        {
          "internalType": "uint80",
          "name": "",
          "type": "uint80"
        },
        {
          "internalType": "int256",
          "name": "",
          "type": "int256"
        },
        {
          "internalType": "uint256",
          "name": "",
          "type": "uint256"
        },
        {
          "internalType": "uint256",
          "name": "",
          "type": "uint256"
        },
        {
          "internalType": "uint80",
          "name": "",
          "type": "uint80"
        }
      ],
      "stateMutability": "view",
      "type": "function"
    },
    {
      "inputs": [],
      "name": "owner",
      "outputs": [
        {
          "internalType": "address",
          "name": "",
          "type": "address"
        }
      ],
      "stateMutability": "view",
      "type": "function"
    },
    {
      "inputs": [],
      "name": "renounceOwnership",
      "outputs": [],
      "stateMutability": "nonpayable",
      "type": "function"
    },
    {
      "inputs": [
        {
          "internalType": "address",
          "name": "_aggregator",
          "type": "address"
        }
      ],
      "name": "setReferenceContract",
      "outputs": [],
      "stateMutability": "nonpayable",
      "type": "function"
    },
    {
      "inputs": [
        {
          "internalType": "bytes4",
          "name": "interfaceId",
          "type": "bytes4"
        }
      ],
      "name": "supportsInterface",
      "outputs": [
        {
          "internalType": "bool",
          "name": "",
          "type": "bool"
        }
      ],
      "stateMutability": "view",
      "type": "function"
    },
    {
      "inputs": [
        {
          "internalType": "address",
          "name": "newOwner",
          "type": "address"
        }
      ],
      "name": "transferOwnership",
      "outputs": [],
      "stateMutability": "nonpayable",
      "type": "function"
    }
  ],
  "address": "0xEbC58A9572B19b66138D1473175583eaccE97950",
  "args": [
    "0x572dDec9087154dC5dfBB1546Bb62713147e0Ab0"
  ],
  "solcInputHash": "0x5af4e17fd7e3b91982c60391762bd52010b7b6e71c517c22d06f7ce359fa40ae",
  "bytecode": "0x608060405234801561001057600080fd5b50604051610a53380380610a538339818101604052602081101561003357600080fd5b505160006100486001600160e01b036100b716565b600080546001600160a01b0319166001600160a01b0383169081178255604051929350917f8be0079c531659141344cd1fd0a4f28419497f9722a3daafe3b4186f6b6457e0908290a350600180546001600160a01b0319166001600160a01b03929092169190911790556100bb565b3390565b610989806100ca6000396000f3fe608060405234801561001057600080fd5b50600436106100a95760003560e01c8063715018a611610071578063715018a6146101b35780637498e6c2146101bb5780638da5cb5b146101e157806396237c0214610205578063f2fde38b1461020d578063f43b52cb14610233576100a9565b806301ffc9a7146100ae57806324a343fa146100e95780633cf8a6971461014b578063608bf1c314610173578063708fe4df146101ab575b600080fd5b6100d5600480360360208110156100c457600080fd5b50356001600160e01b03191661023b565b604080519115158252519081900360200190f35b61010f600480360360208110156100ff57600080fd5b50356001600160501b0316610272565b604080516001600160501b0396871681526020810195909552848101939093526060840191909152909216608082015290519081900360a00190f35b6101716004803603602081101561016157600080fd5b50356001600160a01b0316610344565b005b6101996004803603602081101561018957600080fd5b50356001600160501b03166103d0565b60408051918252519081900360200190f35b61010f6104c0565b610171610574565b610199600480360360208110156101d157600080fd5b50356001600160501b0316610628565b6101e9610711565b604080516001600160a01b039092168252519081900360200190f35b610199610720565b6101716004803603602081101561022357600080fd5b50356001600160a01b0316610799565b6101996108a3565b60006001600160e01b031982166385be402b60e01b148061026c57506001600160e01b031982166301ffc9a760e01b145b92915050565b600080600080600080600080600080600160009054906101000a90046001600160a01b03166001600160a01b0316639a6fc8f58c6040518263ffffffff1660e01b815260040180826001600160501b03166001600160501b0316815260200191505060a06040518083038186803b1580156102ec57600080fd5b505afa158015610300573d6000803e3d6000fd5b505050506040513d60a081101561031657600080fd5b508051602082015160408301516060840151608090940151929f919e509c50919a5098509650505050505050565b61034c610929565b6000546001600160a01b039081169116146103ae576040805162461bcd60e51b815260206004820181905260248201527f4f776e61626c653a2063616c6c6572206973206e6f7420746865206f776e6572604482015290519081900360640190fd5b600180546001600160a01b0319166001600160a01b0392909216919091179055565b60015460408051639a6fc8f560e01b81526001600160501b03841660048201529051600092839283926001600160a01b0390921691639a6fc8f59160248082019260a092909190829003018186803b15801561042b57600080fd5b505afa15801561043f573d6000803e3d6000fd5b505050506040513d60a081101561045557600080fd5b50805160609091015190925090506001600160501b0380831690851611156104b9576040805162461bcd60e51b81526020600482015260126024820152714e6f7420656e6f75676820686973746f727960701b604482015290519081900360640190fd5b9392505050565b600080600080600080600080600080600160009054906101000a90046001600160a01b03166001600160a01b031663feaf968c6040518163ffffffff1660e01b815260040160a06040518083038186803b15801561051d57600080fd5b505afa158015610531573d6000803e3d6000fd5b505050506040513d60a081101561054757600080fd5b508051602082015160408301516060840151608090940151929e919d509b50919950975095505050505050565b61057c610929565b6000546001600160a01b039081169116146105de576040805162461bcd60e51b815260206004820181905260248201527f4f776e61626c653a2063616c6c6572206973206e6f7420746865206f776e6572604482015290519081900360640190fd5b600080546040516001600160a01b03909116907f8be0079c531659141344cd1fd0a4f28419497f9722a3daafe3b4186f6b6457e0908390a3600080546001600160a01b0319169055565b60015460408051639a6fc8f560e01b81526001600160501b03841660048201529051600092839283926001600160a01b0390921691639a6fc8f59160248082019260a092909190829003018186803b15801561068357600080fd5b505afa158015610697573d6000803e3d6000fd5b505050506040513d60a08110156106ad57600080fd5b50805160209091015190925090506001600160501b0380831690851611156104b9576040805162461bcd60e51b81526020600482015260126024820152714e6f7420656e6f75676820686973746f727960701b604482015290519081900360640190fd5b6000546001600160a01b031690565b60015460408051633fabe5a360e21b815290516000926001600160a01b03169163feaf968c9160048083019260a0929190829003018186803b15801561076557600080fd5b505afa158015610779573d6000803e3d6000fd5b505050506040513d60a081101561078f57600080fd5b5060200151919050565b6107a1610929565b6000546001600160a01b03908116911614610803576040805162461bcd60e51b815260206004820181905260248201527f4f776e61626c653a2063616c6c6572206973206e6f7420746865206f776e6572604482015290519081900360640190fd5b6001600160a01b0381166108485760405162461bcd60e51b815260040180806020018281038252602681526020018061092e6026913960400191505060405180910390fd5b600080546040516001600160a01b03808516939216917f8be0079c531659141344cd1fd0a4f28419497f9722a3daafe3b4186f6b6457e091a3600080546001600160a01b0319166001600160a01b0392909216919091179055565b600080600160009054906101000a90046001600160a01b03166001600160a01b031663feaf968c6040518163ffffffff1660e01b815260040160a06040518083038186803b1580156108f457600080fd5b505afa158015610908573d6000803e3d6000fd5b505050506040513d60a081101561091e57600080fd5b506060015191505090565b339056fe4f776e61626c653a206e6577206f776e657220697320746865207a65726f2061646472657373a264697066735822122061d065e56adfed65030acd908cf694d2583da85f745accc52ea5ab64f53ce85f64736f6c63430006080033",
  "devdoc": {
    "author": "Cristian Espinoza",
    "methods": {
      "getLatestAnswer()": {
        "returns": {
          "price": "price"
        }
      },
      "getPreviousAnswer(uint80)": {
        "params": {
          "_id": "of round"
        },
        "returns": {
          "_0": "price"
        }
      },
      "getPreviousTimestamp(uint80)": {
        "params": {
          "_id": "of round"
        },
        "returns": {
          "_0": "timeStamp"
        }
      },
      "getRound(uint80)": {
        "params": {
          "_id": "of round"
        }
      },
      "owner()": {
        "details": "Returns the address of the current owner."
      },
      "renounceOwnership()": {
        "details": "Leaves the contract without owner. It will not be possible to call `onlyOwner` functions anymore. Can only be called by the current owner.     * NOTE: Renouncing ownership will leave the contract without an owner, thereby removing any functionality that is only available to the owner."
      },
      "setReferenceContract(address)": {
        "details": "Only owner can call it."
      },
      "transferOwnership(address)": {
        "details": "Transfers ownership of the contract to a new account (`newOwner`). Can only be called by the current owner."
      }
    },
    "title": "Chainlink Oracle"
  },
  "userdoc": {
    "methods": {
      "constructor": "Called once the contract is deployed. Set the Chainlink Oracle as an aggregator.",
      "getLatestAnswer()": {
        "notice": "Returns the latest answer from the reference contract."
      },
      "getLatestRound()": {
        "notice": "Returns the latest round from the reference contract."
      },
      "getLatestTimestamp()": {
        "notice": "Returns the last time the Oracle was updated."
      },
      "getPreviousAnswer(uint80)": {
        "notice": "Returns a previous answer updated on the Oracle."
      },
      "getPreviousTimestamp(uint80)": {
        "notice": "Returns a previous time the Oracle was updated."
      },
      "getRound(uint80)": {
        "notice": "Returns a given round from the reference contract."
      },
      "setReferenceContract(address)": {
        "notice": "Changes the reference contract."
      },
      "supportsInterface(bytes4)": {
        "notice": "ERC165 Standard for support of interfaces."
      }
    },
    "notice": "Contract in charge or reading the information from a Chainlink Oracle. TCAP contracts read the price directly from this contract. More information can be found on Chainlink Documentation"
  },
  "storageLayout": {
    "storage": [
      {
        "astId": 359,
        "contract": "contracts/oracles/ChainlinkOracle.sol:ChainlinkOracle",
        "label": "_owner",
        "offset": 0,
        "slot": "0",
        "type": "t_address"
      },
      {
        "astId": 5402,
        "contract": "contracts/oracles/ChainlinkOracle.sol:ChainlinkOracle",
        "label": "aggregatorContract",
        "offset": 0,
        "slot": "1",
        "type": "t_contract(AggregatorV3Interface)45"
      }
    ],
    "types": {
      "t_address": {
        "encoding": "inplace",
        "label": "address",
        "numberOfBytes": "20"
      },
      "t_contract(AggregatorV3Interface)45": {
        "encoding": "inplace",
        "label": "contract AggregatorV3Interface",
        "numberOfBytes": "20"
      }
    }
  },
  "gasEstimates": {
    "creation": {
      "codeDepositCost": "488200",
      "executionCost": "infinite",
      "totalCost": "infinite"
    },
    "external": {
      "getLatestAnswer()": "infinite",
      "getLatestRound()": "infinite",
      "getLatestTimestamp()": "infinite",
      "getPreviousAnswer(uint80)": "infinite",
      "getPreviousTimestamp(uint80)": "infinite",
      "getRound(uint80)": "infinite",
      "owner()": "1081",
      "renounceOwnership()": "24204",
      "setReferenceContract(address)": "21997",
      "supportsInterface(bytes4)": "366",
      "transferOwnership(address)": "infinite"
    }
  }
}