{
  "address": "0xCf64E746bd92a0c27df62DB5ABB332481e43257f",
  "abi": [
    {
      "inputs": [
        {
          "internalType": "address",
          "name": "_owner",
          "type": "address"
        },
        {
          "internalType": "address",
          "name": "_rewardsToken",
          "type": "address"
        },
        {
          "internalType": "address",
          "name": "_vault",
          "type": "address"
        }
      ],
      "stateMutability": "nonpayable",
      "type": "constructor"
    },
    {
      "anonymous": false,
      "inputs": [
        {
          "indexed": true,
          "internalType": "address",
          "name": "previousOwner",
          "type": "address"
        },
        {
          "indexed": true,
          "internalType": "address",
          "name": "newOwner",
          "type": "address"
        }
      ],
      "name": "OwnershipTransferred",
      "type": "event"
    },
    {
      "anonymous": false,
      "inputs": [
        {
          "indexed": false,
          "internalType": "address",
          "name": "account",
          "type": "address"
        }
      ],
      "name": "Paused",
      "type": "event"
    },
    {
      "anonymous": false,
      "inputs": [
        {
          "indexed": false,
          "internalType": "address",
          "name": "token",
          "type": "address"
        },
        {
          "indexed": false,
          "internalType": "uint256",
          "name": "amount",
          "type": "uint256"
        }
      ],
      "name": "Recovered",
      "type": "event"
    },
    {
      "anonymous": false,
      "inputs": [
        {
          "indexed": false,
          "internalType": "uint256",
          "name": "reward",
          "type": "uint256"
        }
      ],
      "name": "RewardAdded",
      "type": "event"
    },
    {
      "anonymous": false,
      "inputs": [
        {
          "indexed": true,
          "internalType": "address",
          "name": "user",
          "type": "address"
        },
        {
          "indexed": false,
          "internalType": "uint256",
          "name": "reward",
          "type": "uint256"
        }
      ],
      "name": "RewardPaid",
      "type": "event"
    },
    {
      "anonymous": false,
      "inputs": [
        {
          "indexed": false,
          "internalType": "uint256",
          "name": "newDuration",
          "type": "uint256"
        }
      ],
      "name": "RewardsDurationUpdated",
      "type": "event"
    },
    {
      "anonymous": false,
      "inputs": [
        {
          "indexed": true,
          "internalType": "bytes32",
          "name": "role",
          "type": "bytes32"
        },
        {
          "indexed": true,
          "internalType": "bytes32",
          "name": "previousAdminRole",
          "type": "bytes32"
        },
        {
          "indexed": true,
          "internalType": "bytes32",
          "name": "newAdminRole",
          "type": "bytes32"
        }
      ],
      "name": "RoleAdminChanged",
      "type": "event"
    },
    {
      "anonymous": false,
      "inputs": [
        {
          "indexed": true,
          "internalType": "bytes32",
          "name": "role",
          "type": "bytes32"
        },
        {
          "indexed": true,
          "internalType": "address",
          "name": "account",
          "type": "address"
        },
        {
          "indexed": true,
          "internalType": "address",
          "name": "sender",
          "type": "address"
        }
      ],
      "name": "RoleGranted",
      "type": "event"
    },
    {
      "anonymous": false,
      "inputs": [
        {
          "indexed": true,
          "internalType": "bytes32",
          "name": "role",
          "type": "bytes32"
        },
        {
          "indexed": true,
          "internalType": "address",
          "name": "account",
          "type": "address"
        },
        {
          "indexed": true,
          "internalType": "address",
          "name": "sender",
          "type": "address"
        }
      ],
      "name": "RoleRevoked",
      "type": "event"
    },
    {
      "anonymous": false,
      "inputs": [
        {
          "indexed": true,
          "internalType": "address",
          "name": "user",
          "type": "address"
        },
        {
          "indexed": false,
          "internalType": "uint256",
          "name": "amount",
          "type": "uint256"
        }
      ],
      "name": "Staked",
      "type": "event"
    },
    {
      "anonymous": false,
      "inputs": [
        {
          "indexed": false,
          "internalType": "address",
          "name": "account",
          "type": "address"
        }
      ],
      "name": "Unpaused",
      "type": "event"
    },
    {
      "anonymous": false,
      "inputs": [
        {
          "indexed": true,
          "internalType": "address",
          "name": "user",
          "type": "address"
        },
        {
          "indexed": false,
          "internalType": "uint256",
          "name": "amount",
          "type": "uint256"
        }
      ],
      "name": "Withdrawn",
      "type": "event"
    },
    {
      "inputs": [],
      "name": "DEFAULT_ADMIN_ROLE",
      "outputs": [
        {
          "internalType": "bytes32",
          "name": "",
          "type": "bytes32"
        }
      ],
      "stateMutability": "view",
      "type": "function"
    },
    {
      "inputs": [
        {
          "internalType": "address",
          "name": "_account",
          "type": "address"
        }
      ],
      "name": "balanceOf",
      "outputs": [
        {
          "internalType": "uint256",
          "name": "",
          "type": "uint256"
        }
      ],
      "stateMutability": "view",
      "type": "function"
    },
    {
      "inputs": [
        {
          "internalType": "address",
          "name": "_account",
          "type": "address"
        }
      ],
      "name": "earned",
      "outputs": [
        {
          "internalType": "uint256",
          "name": "",
          "type": "uint256"
        }
      ],
      "stateMutability": "view",
      "type": "function"
    },
    {
      "inputs": [
        {
          "internalType": "address",
          "name": "_staker",
          "type": "address"
        }
      ],
      "name": "exit",
      "outputs": [],
      "stateMutability": "nonpayable",
      "type": "function"
    },
    {
      "inputs": [],
      "name": "getReward",
      "outputs": [],
      "stateMutability": "nonpayable",
      "type": "function"
    },
    {
      "inputs": [],
      "name": "getRewardForDuration",
      "outputs": [
        {
          "internalType": "uint256",
          "name": "",
          "type": "uint256"
        }
      ],
      "stateMutability": "view",
      "type": "function"
    },
    {
      "inputs": [
        {
          "internalType": "address",
          "name": "_staker",
          "type": "address"
        }
      ],
      "name": "getRewardFromVault",
      "outputs": [],
      "stateMutability": "nonpayable",
      "type": "function"
    },
    {
      "inputs": [
        {
          "internalType": "bytes32",
          "name": "role",
          "type": "bytes32"
        }
      ],
      "name": "getRoleAdmin",
      "outputs": [
        {
          "internalType": "bytes32",
          "name": "",
          "type": "bytes32"
        }
      ],
      "stateMutability": "view",
      "type": "function"
    },
    {
      "inputs": [
        {
          "internalType": "bytes32",
          "name": "role",
          "type": "bytes32"
        },
        {
          "internalType": "uint256",
          "name": "index",
          "type": "uint256"
        }
      ],
      "name": "getRoleMember",
      "outputs": [
        {
          "internalType": "address",
          "name": "",
          "type": "address"
        }
      ],
      "stateMutability": "view",
      "type": "function"
    },
    {
      "inputs": [
        {
          "internalType": "bytes32",
          "name": "role",
          "type": "bytes32"
        }
      ],
      "name": "getRoleMemberCount",
      "outputs": [
        {
          "internalType": "uint256",
          "name": "",
          "type": "uint256"
        }
      ],
      "stateMutability": "view",
      "type": "function"
    },
    {
      "inputs": [
        {
          "internalType": "bytes32",
          "name": "role",
          "type": "bytes32"
        },
        {
          "internalType": "address",
          "name": "account",
          "type": "address"
        }
      ],
      "name": "grantRole",
      "outputs": [],
      "stateMutability": "nonpayable",
      "type": "function"
    },
    {
      "inputs": [
        {
          "internalType": "bytes32",
          "name": "role",
          "type": "bytes32"
        },
        {
          "internalType": "address",
          "name": "account",
          "type": "address"
        }
      ],
      "name": "hasRole",
      "outputs": [
        {
          "internalType": "bool",
          "name": "",
          "type": "bool"
        }
      ],
      "stateMutability": "view",
      "type": "function"
    },
    {
      "inputs": [],
      "name": "lastTimeRewardApplicable",
      "outputs": [
        {
          "internalType": "uint256",
          "name": "",
          "type": "uint256"
        }
      ],
      "stateMutability": "view",
      "type": "function"
    },
    {
      "inputs": [],
      "name": "lastUpdateTime",
      "outputs": [
        {
          "internalType": "uint256",
          "name": "",
          "type": "uint256"
        }
      ],
      "stateMutability": "view",
      "type": "function"
    },
    {
      "inputs": [
        {
          "internalType": "uint256",
          "name": "_a",
          "type": "uint256"
        },
        {
          "internalType": "uint256",
          "name": "_b",
          "type": "uint256"
        }
      ],
      "name": "min",
      "outputs": [
        {
          "internalType": "uint256",
          "name": "",
          "type": "uint256"
        }
      ],
      "stateMutability": "pure",
      "type": "function"
    },
    {
      "inputs": [
        {
          "internalType": "uint256",
          "name": "_reward",
          "type": "uint256"
        }
      ],
      "name": "notifyRewardAmount",
      "outputs": [],
      "stateMutability": "nonpayable",
      "type": "function"
    },
    {
      "inputs": [],
      "name": "owner",
      "outputs": [
        {
          "internalType": "address",
          "name": "",
          "type": "address"
        }
      ],
      "stateMutability": "view",
      "type": "function"
    },
    {
      "inputs": [],
      "name": "paused",
      "outputs": [
        {
          "internalType": "bool",
          "name": "",
          "type": "bool"
        }
      ],
      "stateMutability": "view",
      "type": "function"
    },
    {
      "inputs": [],
      "name": "periodFinish",
      "outputs": [
        {
          "internalType": "uint256",
          "name": "",
          "type": "uint256"
        }
      ],
      "stateMutability": "view",
      "type": "function"
    },
    {
      "inputs": [
        {
          "internalType": "address",
          "name": "_tokenAddress",
          "type": "address"
        },
        {
          "internalType": "uint256",
          "name": "_tokenAmount",
          "type": "uint256"
        }
      ],
      "name": "recoverERC20",
      "outputs": [],
      "stateMutability": "nonpayable",
      "type": "function"
    },
    {
      "inputs": [],
      "name": "renounceOwnership",
      "outputs": [],
      "stateMutability": "nonpayable",
      "type": "function"
    },
    {
      "inputs": [
        {
          "internalType": "bytes32",
          "name": "role",
          "type": "bytes32"
        },
        {
          "internalType": "address",
          "name": "account",
          "type": "address"
        }
      ],
      "name": "renounceRole",
      "outputs": [],
      "stateMutability": "nonpayable",
      "type": "function"
    },
    {
      "inputs": [
        {
          "internalType": "bytes32",
          "name": "role",
          "type": "bytes32"
        },
        {
          "internalType": "address",
          "name": "account",
          "type": "address"
        }
      ],
      "name": "revokeRole",
      "outputs": [],
      "stateMutability": "nonpayable",
      "type": "function"
    },
    {
      "inputs": [],
      "name": "rewardPerToken",
      "outputs": [
        {
          "internalType": "uint256",
          "name": "",
          "type": "uint256"
        }
      ],
      "stateMutability": "view",
      "type": "function"
    },
    {
      "inputs": [],
      "name": "rewardPerTokenStored",
      "outputs": [
        {
          "internalType": "uint256",
          "name": "",
          "type": "uint256"
        }
      ],
      "stateMutability": "view",
      "type": "function"
    },
    {
      "inputs": [],
      "name": "rewardRate",
      "outputs": [
        {
          "internalType": "uint256",
          "name": "",
          "type": "uint256"
        }
      ],
      "stateMutability": "view",
      "type": "function"
    },
    {
      "inputs": [
        {
          "internalType": "address",
          "name": "",
          "type": "address"
        }
      ],
      "name": "rewards",
      "outputs": [
        {
          "internalType": "uint256",
          "name": "",
          "type": "uint256"
        }
      ],
      "stateMutability": "view",
      "type": "function"
    },
    {
      "inputs": [],
      "name": "rewardsDuration",
      "outputs": [
        {
          "internalType": "uint256",
          "name": "",
          "type": "uint256"
        }
      ],
      "stateMutability": "view",
      "type": "function"
    },
    {
      "inputs": [],
      "name": "rewardsToken",
      "outputs": [
        {
          "internalType": "contract IERC20",
          "name": "",
          "type": "address"
        }
      ],
      "stateMutability": "view",
      "type": "function"
    },
    {
      "inputs": [
        {
          "internalType": "uint256",
          "name": "_rewardsDuration",
          "type": "uint256"
        }
      ],
      "name": "setRewardsDuration",
      "outputs": [],
      "stateMutability": "nonpayable",
      "type": "function"
    },
    {
      "inputs": [
        {
          "internalType": "address",
          "name": "_staker",
          "type": "address"
        },
        {
          "internalType": "uint256",
          "name": "_amount",
          "type": "uint256"
        }
      ],
      "name": "stake",
      "outputs": [],
      "stateMutability": "nonpayable",
      "type": "function"
    },
    {
      "inputs": [],
      "name": "totalSupply",
      "outputs": [
        {
          "internalType": "uint256",
          "name": "",
          "type": "uint256"
        }
      ],
      "stateMutability": "view",
      "type": "function"
    },
    {
      "inputs": [
        {
          "internalType": "address",
          "name": "newOwner",
          "type": "address"
        }
      ],
      "name": "transferOwnership",
      "outputs": [],
      "stateMutability": "nonpayable",
      "type": "function"
    },
    {
      "inputs": [
        {
          "internalType": "address",
          "name": "",
          "type": "address"
        }
      ],
      "name": "userRewardPerTokenPaid",
      "outputs": [
        {
          "internalType": "uint256",
          "name": "",
          "type": "uint256"
        }
      ],
      "stateMutability": "view",
      "type": "function"
    },
    {
      "inputs": [],
      "name": "vault",
      "outputs": [
        {
          "internalType": "address",
          "name": "",
          "type": "address"
        }
      ],
      "stateMutability": "view",
      "type": "function"
    },
    {
      "inputs": [
        {
          "internalType": "address",
          "name": "_staker",
          "type": "address"
        },
        {
          "internalType": "uint256",
          "name": "_amount",
          "type": "uint256"
        }
      ],
      "name": "withdraw",
      "outputs": [],
      "stateMutability": "nonpayable",
      "type": "function"
    }
  ],
  "transactionHash": "0x7f9cb7a9d24c78f2dbf65da6172b46e71a96cb618cdb0b8db07d593c70345cc0",
  "args": [
    "0xacBCF96d13031E6D906c0567350d1EdDBc9860A3",
    "0xc0322CEA66dFb3471688f57f6DdAd7A4d4EAb032",
    "0x92C77a7bB3A7bd847523d0cb34078d4F4A42C452"
  ],
  "solcInputHash": "01a0b70a059871db4215d262a86724ef",
  "bytecode": "0x60806040526000600555600060065562093a806007553480156200002257600080fd5b506040516200237f3803806200237f833981810160405260608110156200004857600080fd5b508051602082015160409092015190919060006200006562000102565b600080546001600160a01b0319166001600160a01b0383169081178255604051929350916000805160206200235f833981519152908290a3506001600255600380546001600160a81b0319166101006001600160a01b038581169190910291909117909155600480546001600160a01b031916918316919091179055620000ee60003362000106565b620000f98362000116565b50505062000316565b3390565b62000112828262000214565b5050565b6200012062000102565b6000546001600160a01b0390811691161462000183576040805162461bcd60e51b815260206004820181905260248201527f4f776e61626c653a2063616c6c6572206973206e6f7420746865206f776e6572604482015290519081900360640190fd5b6001600160a01b038116620001ca5760405162461bcd60e51b8152600401808060200182810382526026815260200180620023396026913960400191505060405180910390fd5b600080546040516001600160a01b03808516939216916000805160206200235f83398151915291a3600080546001600160a01b0319166001600160a01b0392909216919091179055565b60008281526001602090815260409091206200023b918390620015cb6200028f821b17901c565b1562000112576200024b62000102565b6001600160a01b0316816001600160a01b0316837f2f8788117e7eff1d82e926ec794901d17c78024a50270940304540a733656f0d60405160405180910390a45050565b6000620002a6836001600160a01b038416620002af565b90505b92915050565b6000620002bd8383620002fe565b620002f557508154600181810184556000848152602080822090930184905584548482528286019093526040902091909155620002a9565b506000620002a9565b60009081526001919091016020526040902054151590565b61201380620003266000396000f3fe608060405234801561001057600080fd5b506004361061021b5760003560e01c80638da5cb5b11610125578063cd3daf9d116100ad578063e0588af71161007c578063e0588af714610554578063ebe2b12b1461057a578063f2fde38b14610582578063f3fef3a3146105a8578063fbfa77cf146105d45761021b565b8063cd3daf9d14610510578063d1af0c7d14610518578063d547741f14610520578063df136d651461054c5761021b565b8063adc9772e116100f4578063adc9772e1461047c578063b42652e9146104a8578063c8f33c91146104ce578063ca15c873146104d6578063cc1a378f146104f35761021b565b80638da5cb5b146104015780639010d07c1461042557806391d1485414610448578063a217fddf146104745761021b565b80633d18b912116101a85780637ae2b5c7116101775780637ae2b5c71461037c5780637b0a47ee1461039f57806380faa57d146103a75780638980f11f146103af5780638b876347146103db5761021b565b80633d18b9121461032a5780635c975abb1461033257806370a082311461034e578063715018a6146103745761021b565b8063248a9ca3116101ef578063248a9ca31461028e5780632f2ff15d146102ab57806336568abe146102d9578063386a9525146103055780633c6b16ab1461030d5761021b565b80628cc262146102205780630700037d1461025857806318160ddd1461027e5780631c1f78eb14610286575b600080fd5b6102466004803603602081101561023657600080fd5b50356001600160a01b03166105dc565b60408051918252519081900360200190f35b6102466004803603602081101561026e57600080fd5b50356001600160a01b031661065a565b61024661066c565b610246610673565b610246600480360360208110156102a457600080fd5b5035610691565b6102d7600480360360408110156102c157600080fd5b50803590602001356001600160a01b03166106a6565b005b6102d7600480360360408110156102ef57600080fd5b50803590602001356001600160a01b0316610712565b610246610773565b6102d76004803603602081101561032357600080fd5b5035610779565b6102d76109c0565b61033a610ae7565b604080519115158252519081900360200190f35b6102466004803603602081101561036457600080fd5b50356001600160a01b0316610af0565b6102d7610b0b565b6102466004803603604081101561039257600080fd5b5080359060200135610bad565b610246610bc5565b610246610bcb565b6102d7600480360360408110156103c557600080fd5b506001600160a01b038135169060200135610bd9565b610246600480360360208110156103f157600080fd5b50356001600160a01b0316610ce7565b610409610cf9565b604080516001600160a01b039092168252519081900360200190f35b6104096004803603604081101561043b57600080fd5b5080359060200135610d08565b61033a6004803603604081101561045e57600080fd5b50803590602001356001600160a01b0316610d20565b610246610d38565b6102d76004803603604081101561049257600080fd5b506001600160a01b038135169060200135610d3d565b6102d7600480360360208110156104be57600080fd5b50356001600160a01b0316610f4a565b610246610fc3565b610246600480360360208110156104ec57600080fd5b5035610fc9565b6102d76004803603602081101561050957600080fd5b5035610fe0565b6102466110b3565b610409611101565b6102d76004803603604081101561053657600080fd5b50803590602001356001600160a01b0316611115565b61024661116e565b6102d76004803603602081101561056a57600080fd5b50356001600160a01b0316611174565b6102466112f9565b6102d76004803603602081101561059857600080fd5b50356001600160a01b03166112ff565b6102d7600480360360408110156105be57600080fd5b506001600160a01b0381351690602001356113f7565b6104096115bc565b6001600160a01b0381166000908152600b6020908152604080832054600a909252822054610654919061064e90670de0b6b3a76400009061064890610629906106236110b3565b906115e0565b6001600160a01b0388166000908152600d602052604090205490611622565b9061167b565b906116bd565b92915050565b600b6020526000908152604090205481565b600c545b90565b600061068c60075460065461162290919063ffffffff16565b905090565b60009081526001602052604090206002015490565b6000828152600160205260409020600201546106c9906106c4611717565b610d20565b6107045760405162461bcd60e51b815260040180806020018281038252602f815260200180611e1c602f913960400191505060405180910390fd5b61070e828261171b565b5050565b61071a611717565b6001600160a01b0316816001600160a01b0316146107695760405162461bcd60e51b815260040180806020018281038252602f815260200180611faf602f913960400191505060405180910390fd5b61070e8282611784565b60075481565b610781611717565b6000546001600160a01b039081169116146107d1576040805162461bcd60e51b81526020600482018190526024820152600080516020611f38833981519152604482015290519081900360640190fd5b60006107db6110b3565b6009556107e6610bcb565b6008556001600160a01b0381161561082d57610801816105dc565b6001600160a01b0382166000908152600b6020908152604080832093909355600954600a909152919020555b600554421061084c5760075461084490839061167b565b60065561088f565b60055460009061085c90426115e0565b905060006108756006548361162290919063ffffffff16565b6007549091506108899061064886846116bd565b60065550505b600354604080516370a0823160e01b8152306004820152905160009261010090046001600160a01b0316916370a08231916024808301926020929190829003018186803b1580156108df57600080fd5b505afa1580156108f3573d6000803e3d6000fd5b505050506040513d602081101561090957600080fd5b505160075490915061091c90829061167b565b6006541115610972576040805162461bcd60e51b815260206004820152601860248201527f50726f76696465642072657761726420746f6f20686967680000000000000000604482015290519081900360640190fd5b42600881905560075461098591906116bd565b6005556040805184815290517fde88a922e0d3b88b24e9623efeb464919c6bf9f66857a65e2bfcf2ce87a9433d9181900360200190a1505050565b600280541415610a05576040805162461bcd60e51b815260206004820152601f6024820152600080516020611e4b833981519152604482015290519081900360640190fd5b6002805533610a126110b3565b600955610a1d610bcb565b6008556001600160a01b03811615610a6457610a38816105dc565b6001600160a01b0382166000908152600b6020908152604080832093909355600954600a909152919020555b336000908152600b60205260409020548015610ade57336000818152600b6020526040812055600354610aa7916101009091046001600160a01b031690836117ed565b60408051828152905133917fe2403640ba68fed3a2f88b7557551d1993f84b99bb10ff833f0cf8db0c5e0486919081900360200190a25b50506001600255565b60035460ff1690565b6001600160a01b03166000908152600d602052604090205490565b610b13611717565b6000546001600160a01b03908116911614610b63576040805162461bcd60e51b81526020600482018190526024820152600080516020611f38833981519152604482015290519081900360640190fd5b600080546040516001600160a01b03909116907f8be0079c531659141344cd1fd0a4f28419497f9722a3daafe3b4186f6b6457e0908390a3600080546001600160a01b0319169055565b6000818310610bbc5781610bbe565b825b9392505050565b60065481565b600061068c42600554610bad565b610be1611717565b6000546001600160a01b03908116911614610c31576040805162461bcd60e51b81526020600482018190526024820152600080516020611f38833981519152604482015290519081900360640190fd5b6003546001600160a01b03838116610100909204161415610c835760405162461bcd60e51b815260040180806020018281038252602d815260200180611f58602d913960400191505060405180910390fd5b610c9f610c8e610cf9565b6001600160a01b03841690836117ed565b604080516001600160a01b03841681526020810183905281517f8c1256b8896378cd5044f80c202f9772b9d77dc85c8a6eb51967210b09bfaa28929181900390910190a15050565b600a6020526000908152604090205481565b6000546001600160a01b031690565b6000828152600160205260408120610bbe9083611844565b6000828152600160205260408120610bbe9083611850565b600081565b6004546001600160a01b03163314610d865760405162461bcd60e51b8152600401808060200182810382526030815260200180611e916030913960400191505060405180910390fd5b600280541415610dcb576040805162461bcd60e51b815260206004820152601f6024820152600080516020611e4b833981519152604482015290519081900360640190fd5b6002805560035460ff1615610e1a576040805162461bcd60e51b815260206004820152601060248201526f14185d5cd8589b194e881c185d5cd95960821b604482015290519081900360640190fd5b81610e236110b3565b600955610e2e610bcb565b6008556001600160a01b03811615610e7557610e49816105dc565b6001600160a01b0382166000908152600b6020908152604080832093909355600954600a909152919020555b60008211610ebb576040805162461bcd60e51b815260206004820152600e60248201526d043616e6e6f74207374616b6520360941b604482015290519081900360640190fd5b600c54610ec890836116bd565b600c556001600160a01b0383166000908152600d6020526040902054610eee90836116bd565b6001600160a01b0384166000818152600d6020908152604091829020939093558051858152905191927f9e71bc8eea02a63969f509818f2dafb9254532904319f9dbda79b67bd34a5f3d92918290030190a25050600160025550565b6004546001600160a01b03163314610f935760405162461bcd60e51b8152600401808060200182810382526030815260200180611e916030913960400191505060405180910390fd5b6001600160a01b0381166000908152600d6020526040902054610fb79082906113f7565b610fc081611174565b50565b60085481565b600081815260016020526040812061065490611865565b610fe8611717565b6000546001600160a01b03908116911614611038576040805162461bcd60e51b81526020600482018190526024820152600080516020611f38833981519152604482015290519081900360640190fd5b60055442116110785760405162461bcd60e51b8152600401808060200182810382526058815260200180611dc46058913960600191505060405180910390fd5b60078190556040805182815290517ffb46ca5a5e06d4540d6387b930a7c978bce0db5f449ec6b3f5d07c6e1d44f2d39181900360200190a150565b6000600c54600014156110c95750600954610670565b61068c6110f8600c54610648670de0b6b3a76400006110f26006546110f2600854610623610bcb565b90611622565b600954906116bd565b60035461010090046001600160a01b031681565b600082815260016020526040902060020154611133906106c4611717565b6107695760405162461bcd60e51b8152600401808060200182810382526030815260200180611ee76030913960400191505060405180910390fd5b60095481565b6004546001600160a01b031633146111bd5760405162461bcd60e51b8152600401808060200182810382526030815260200180611e916030913960400191505060405180910390fd5b600280541415611202576040805162461bcd60e51b815260206004820152601f6024820152600080516020611e4b833981519152604482015290519081900360640190fd5b600280558061120f6110b3565b60095561121a610bcb565b6008556001600160a01b0381161561126157611235816105dc565b6001600160a01b0382166000908152600b6020908152604080832093909355600954600a909152919020555b6001600160a01b0382166000908152600b602052604090205480156112ef576001600160a01b038084166000908152600b60205260408120556003546112af916101009091041684836117ed565b6040805182815290516001600160a01b038516917fe2403640ba68fed3a2f88b7557551d1993f84b99bb10ff833f0cf8db0c5e0486919081900360200190a25b5050600160025550565b60055481565b611307611717565b6000546001600160a01b03908116911614611357576040805162461bcd60e51b81526020600482018190526024820152600080516020611f38833981519152604482015290519081900360640190fd5b6001600160a01b03811661139c5760405162461bcd60e51b8152600401808060200182810382526026815260200180611e6b6026913960400191505060405180910390fd5b600080546040516001600160a01b03808516939216917f8be0079c531659141344cd1fd0a4f28419497f9722a3daafe3b4186f6b6457e091a3600080546001600160a01b0319166001600160a01b0392909216919091179055565b6004546001600160a01b031633146114405760405162461bcd60e51b8152600401808060200182810382526030815260200180611e916030913960400191505060405180910390fd5b600280541415611485576040805162461bcd60e51b815260206004820152601f6024820152600080516020611e4b833981519152604482015290519081900360640190fd5b60028055816114926110b3565b60095561149d610bcb565b6008556001600160a01b038116156114e4576114b8816105dc565b6001600160a01b0382166000908152600b6020908152604080832093909355600954600a909152919020555b6000821161152d576040805162461bcd60e51b8152602060048201526011602482015270043616e6e6f74207769746864726177203607c1b604482015290519081900360640190fd5b600c5461153a90836115e0565b600c556001600160a01b0383166000908152600d602052604090205461156090836115e0565b6001600160a01b0384166000818152600d6020908152604091829020939093558051858152905191927f7084f5476618d8e60b11ef0d7d3f06914655adb8793e28ff7f018d4c76d505d592918290030190a25050600160025550565b6004546001600160a01b031681565b6000610bbe836001600160a01b038416611870565b6000610bbe83836040518060400160405280601e81526020017f536166654d6174683a207375627472616374696f6e206f766572666c6f7700008152506118ba565b60008261163157506000610654565b8282028284828161163e57fe5b0414610bbe5760405162461bcd60e51b8152600401808060200182810382526021815260200180611f176021913960400191505060405180910390fd5b6000610bbe83836040518060400160405280601a81526020017f536166654d6174683a206469766973696f6e206279207a65726f000000000000815250611951565b600082820183811015610bbe576040805162461bcd60e51b815260206004820152601b60248201527f536166654d6174683a206164646974696f6e206f766572666c6f770000000000604482015290519081900360640190fd5b3390565b600082815260016020526040902061173390826115cb565b1561070e57611740611717565b6001600160a01b0316816001600160a01b0316837f2f8788117e7eff1d82e926ec794901d17c78024a50270940304540a733656f0d60405160405180910390a45050565b600082815260016020526040902061179c90826119b6565b1561070e576117a9611717565b6001600160a01b0316816001600160a01b0316837ff6391f5c32d9c69d2a47ea670b442974b53935d1edc7fd64eb21e047a839171b60405160405180910390a45050565b604080516001600160a01b038416602482015260448082018490528251808303909101815260649091019091526020810180516001600160e01b031663a9059cbb60e01b17905261183f9084906119cb565b505050565b6000610bbe8383611a7c565b6000610bbe836001600160a01b038416611ae0565b600061065482611af8565b600061187c8383611ae0565b6118b257508154600181810184556000848152602080822090930184905584548482528286019093526040902091909155610654565b506000610654565b600081848411156119495760405162461bcd60e51b81526004018080602001828103825283818151815260200191508051906020019080838360005b8381101561190e5781810151838201526020016118f6565b50505050905090810190601f16801561193b5780820380516001836020036101000a031916815260200191505b509250505060405180910390fd5b505050900390565b600081836119a05760405162461bcd60e51b815260206004820181815283516024840152835190928392604490910191908501908083836000831561190e5781810151838201526020016118f6565b5060008385816119ac57fe5b0495945050505050565b6000610bbe836001600160a01b038416611afc565b6060611a20826040518060400160405280602081526020017f5361666545524332303a206c6f772d6c6576656c2063616c6c206661696c6564815250856001600160a01b0316611bc29092919063ffffffff16565b80519091501561183f57808060200190516020811015611a3f57600080fd5b505161183f5760405162461bcd60e51b815260040180806020018281038252602a815260200180611f85602a913960400191505060405180910390fd5b81546000908210611abe5760405162461bcd60e51b8152600401808060200182810382526022815260200180611da26022913960400191505060405180910390fd5b826000018281548110611acd57fe5b9060005260206000200154905092915050565b60009081526001919091016020526040902054151590565b5490565b60008181526001830160205260408120548015611bb85783546000198083019190810190600090879083908110611b2f57fe5b9060005260206000200154905080876000018481548110611b4c57fe5b600091825260208083209091019290925582815260018981019092526040902090840190558654879080611b7c57fe5b60019003818190600052602060002001600090559055866001016000878152602001908152602001600020600090556001945050505050610654565b6000915050610654565b6060611bd18484600085611bd9565b949350505050565b606082471015611c1a5760405162461bcd60e51b8152600401808060200182810382526026815260200180611ec16026913960400191505060405180910390fd5b611c2385611d35565b611c74576040805162461bcd60e51b815260206004820152601d60248201527f416464726573733a2063616c6c20746f206e6f6e2d636f6e7472616374000000604482015290519081900360640190fd5b60006060866001600160a01b031685876040518082805190602001908083835b60208310611cb35780518252601f199092019160209182019101611c94565b6001836020036101000a03801982511681845116808217855250505050505090500191505060006040518083038185875af1925050503d8060008114611d15576040519150601f19603f3d011682016040523d82523d6000602084013e611d1a565b606091505b5091509150611d2a828286611d3b565b979650505050505050565b3b151590565b60608315611d4a575081610bbe565b825115611d5a5782518084602001fd5b60405162461bcd60e51b815260206004820181815284516024840152845185939192839260440191908501908083836000831561190e5781810151838201526020016118f656fe456e756d657261626c655365743a20696e646578206f7574206f6620626f756e647350726576696f7573207265776172647320706572696f64206d75737420626520636f6d706c657465206265666f7265206368616e67696e6720746865206475726174696f6e20666f7220746865206e657720706572696f64416363657373436f6e74726f6c3a2073656e646572206d75737420626520616e2061646d696e20746f206772616e745265656e7472616e637947756172643a207265656e7472616e742063616c6c004f776e61626c653a206e6577206f776e657220697320746865207a65726f206164647265737352657761726448616e646c65723a3a4f6e6c795661756c743a206e6f742063616c6c696e672066726f6d207661756c74416464726573733a20696e73756666696369656e742062616c616e636520666f722063616c6c416363657373436f6e74726f6c3a2073656e646572206d75737420626520616e2061646d696e20746f207265766f6b65536166654d6174683a206d756c7469706c69636174696f6e206f766572666c6f774f776e61626c653a2063616c6c6572206973206e6f7420746865206f776e657243616e6e6f7420776974686472617720746865207374616b696e67206f72207265776172647320746f6b656e735361666545524332303a204552433230206f7065726174696f6e20646964206e6f742073756363656564416363657373436f6e74726f6c3a2063616e206f6e6c792072656e6f756e636520726f6c657320666f722073656c66a2646970667358221220cd6e4f8f28a29c4404114c9a3dd83d2fce7ea7d99d9afe696fd4f93b117b45c664736f6c634300070500334f776e61626c653a206e6577206f776e657220697320746865207a65726f20616464726573738be0079c531659141344cd1fd0a4f28419497f9722a3daafe3b4186f6b6457e0",
  "devdoc": {
    "kind": "dev",
    "methods": {
      "balanceOf(address)": {
        "params": {
          "_account": "address"
        }
      },
      "constructor": {
        "params": {
          "_owner": "address",
          "_rewardsToken": "address",
          "_vault": "uint256"
        }
      },
      "earned(address)": {
        "params": {
          "_account": "address"
        }
      },
      "exit(address)": {
        "details": "Only vault can call it",
        "params": {
          "_staker": "address"
        }
      },
      "getReward()": {
        "details": "updates rewards on call"
      },
      "getRewardFromVault(address)": {
        "details": "Only vault can call itupdates rewards on call",
        "params": {
          "_staker": "address"
        }
      },
      "getRoleAdmin(bytes32)": {
        "details": "Returns the admin role that controls `role`. See {grantRole} and {revokeRole}. To change a role's admin, use {_setRoleAdmin}."
      },
      "getRoleMember(bytes32,uint256)": {
        "details": "Returns one of the accounts that have `role`. `index` must be a value between 0 and {getRoleMemberCount}, non-inclusive. Role bearers are not sorted in any particular way, and their ordering may change at any point. WARNING: When using {getRoleMember} and {getRoleMemberCount}, make sure you perform all queries on the same block. See the following https://forum.openzeppelin.com/t/iterating-over-elements-on-enumerableset-in-openzeppelin-contracts/2296[forum post] for more information."
      },
      "getRoleMemberCount(bytes32)": {
        "details": "Returns the number of accounts that have `role`. Can be used together with {getRoleMember} to enumerate all bearers of a role."
      },
      "grantRole(bytes32,address)": {
        "details": "Grants `role` to `account`. If `account` had not been already granted `role`, emits a {RoleGranted} event. Requirements: - the caller must have ``role``'s admin role."
      },
      "hasRole(bytes32,address)": {
        "details": "Returns `true` if `account` has been granted `role`."
      },
      "min(uint256,uint256)": {
        "params": {
          "_a": "uint",
          "_b": "uint"
        }
      },
      "notifyRewardAmount(uint256)": {
        "details": "Only owner  can call itIncreases duration of rewards",
        "params": {
          "_reward": "uint"
        }
      },
      "owner()": {
        "details": "Returns the address of the current owner."
      },
      "paused()": {
        "details": "Returns true if the contract is paused, and false otherwise."
      },
      "recoverERC20(address,uint256)": {
        "details": "Only owner  can call it",
        "params": {
          "_tokenAddress": "address",
          "_tokenAmount": "uint"
        }
      },
      "renounceOwnership()": {
        "details": "Leaves the contract without owner. It will not be possible to call `onlyOwner` functions anymore. Can only be called by the current owner. NOTE: Renouncing ownership will leave the contract without an owner, thereby removing any functionality that is only available to the owner."
      },
      "renounceRole(bytes32,address)": {
        "details": "Revokes `role` from the calling account. Roles are often managed via {grantRole} and {revokeRole}: this function's purpose is to provide a mechanism for accounts to lose their privileges if they are compromised (such as when a trusted device is misplaced). If the calling account had been granted `role`, emits a {RoleRevoked} event. Requirements: - the caller must be `account`."
      },
      "revokeRole(bytes32,address)": {
        "details": "Revokes `role` from `account`. If `account` had been granted `role`, emits a {RoleRevoked} event. Requirements: - the caller must have ``role``'s admin role."
      },
      "setRewardsDuration(uint256)": {
        "details": "Only owner  can call itPrevious rewards must be complete",
        "params": {
          "_rewardsDuration": "uint"
        }
      },
      "stake(address,uint256)": {
        "details": "Only vault can call itupdates rewards on call",
        "params": {
          "_amount": "uint",
          "_staker": "address"
        }
      },
      "transferOwnership(address)": {
        "details": "Transfers ownership of the contract to a new account (`newOwner`). Can only be called by the current owner."
      },
      "withdraw(address,uint256)": {
        "details": "Only vault can call itupdates rewards on call",
        "params": {
          "_amount": "uint",
          "_staker": "address"
        }
      }
    },
    "stateVariables": {
      "_balances": {
        "details": "Tracks the amount of TCAP minted per user"
      },
      "_totalSupply": {
        "details": "Tracks the total supply of the minted TCAPs"
      }
    },
    "version": 1
  },
  "userdoc": {
    "events": {
      "Recovered(address,uint256)": {
        "notice": "An event emitted when a erc20 token is recovered"
      },
      "RewardAdded(uint256)": {
        "notice": "An event emitted when a reward is added"
      },
      "RewardPaid(address,uint256)": {
        "notice": "An event emitted when reward is paid to a user"
      },
      "RewardsDurationUpdated(uint256)": {
        "notice": "An event emitted when the rewards duration is updated"
      },
      "Staked(address,uint256)": {
        "notice": "An event emitted when TCAP is minted and staked to earn rewards"
      },
      "Withdrawn(address,uint256)": {
        "notice": "An event emitted when TCAP is burned and removed of stake"
      }
    },
    "kind": "user",
    "methods": {
      "balanceOf(address)": {
        "notice": "Returns the amount of TCAP tokens minted and getting reward from specific user."
      },
      "constructor": {
        "notice": "Constructor"
      },
      "earned(address)": {
        "notice": "Returns the amount of reward tokens a user has earned."
      },
      "exit(address)": {
        "notice": "Removes all stake and transfers all rewards to the staker."
      },
      "getReward()": {
        "notice": "Transfers to the caller the current amount of rewards tokens earned."
      },
      "getRewardFromVault(address)": {
        "notice": "Called when TCAP is burned or liquidated, transfers to the staker the current amount of rewards tokens earned."
      },
      "lastTimeRewardApplicable()": {
        "notice": "Returns the minimun between current block timestamp or the finish period of rewards."
      },
      "lastUpdateTime()": {
        "notice": "Last time rewards were updated"
      },
      "min(uint256,uint256)": {
        "notice": "Returns the minimun between two variables"
      },
      "notifyRewardAmount(uint256)": {
        "notice": "Notifies the contract that reward has been added to be given."
      },
      "periodFinish()": {
        "notice": "Tracks the period where users stop earning rewards"
      },
      "recoverERC20(address,uint256)": {
        "notice": "Added to support recovering LP Rewards from other systems such as BAL to be distributed to holders"
      },
      "rewardPerToken()": {
        "notice": "Returns the calculated reward per token deposited."
      },
      "rewards(address)": {
        "notice": "Tracks the user rewards"
      },
      "rewardsDuration()": {
        "notice": "How long the rewards lasts, it updates when more rewards are added"
      },
      "rewardsToken()": {
        "notice": "Address of the reward"
      },
      "setRewardsDuration(uint256)": {
        "notice": "Updates the reward duration"
      },
      "stake(address,uint256)": {
        "notice": "Called when TCAP is minted, adds the minted value as stake"
      },
      "totalSupply()": {
        "notice": "Returns the total amount of TCAP tokens minted and getting reward on this vault."
      },
      "userRewardPerTokenPaid(address)": {
        "notice": "Track the rewards paid to users"
      },
      "vault()": {
        "notice": "Address of the vault"
      },
      "withdraw(address,uint256)": {
        "notice": "Called when TCAP is burned or liquidated, removes the burned value as stake"
      }
    },
    "version": 1
  },
  "storageLayout": {
    "storage": [
      {
        "astId": 359,
        "contract": "contracts/RewardHandler.sol:RewardHandler",
        "label": "_owner",
        "offset": 0,
        "slot": "0",
        "type": "t_address"
      },
      {
        "astId": 91,
        "contract": "contracts/RewardHandler.sol:RewardHandler",
        "label": "_roles",
        "offset": 0,
        "slot": "1",
        "type": "t_mapping(t_bytes32,t_struct(RoleData)87_storage)"
      },
      {
        "astId": 2509,
        "contract": "contracts/RewardHandler.sol:RewardHandler",
        "label": "_status",
        "offset": 0,
        "slot": "2",
        "type": "t_uint256"
      },
      {
        "astId": 2426,
        "contract": "contracts/RewardHandler.sol:RewardHandler",
        "label": "_paused",
        "offset": 0,
        "slot": "3",
        "type": "t_bool"
      },
      {
        "astId": 5254,
        "contract": "contracts/RewardHandler.sol:RewardHandler",
        "label": "rewardsToken",
        "offset": 1,
        "slot": "3",
        "type": "t_contract(IERC20)1421"
      },
      {
        "astId": 5257,
        "contract": "contracts/RewardHandler.sol:RewardHandler",
        "label": "vault",
        "offset": 0,
        "slot": "4",
        "type": "t_address"
      },
      {
        "astId": 5261,
        "contract": "contracts/RewardHandler.sol:RewardHandler",
        "label": "periodFinish",
        "offset": 0,
        "slot": "5",
        "type": "t_uint256"
      },
      {
        "astId": 5264,
        "contract": "contracts/RewardHandler.sol:RewardHandler",
        "label": "rewardRate",
        "offset": 0,
        "slot": "6",
        "type": "t_uint256"
      },
      {
        "astId": 5268,
        "contract": "contracts/RewardHandler.sol:RewardHandler",
        "label": "rewardsDuration",
        "offset": 0,
        "slot": "7",
        "type": "t_uint256"
      },
      {
        "astId": 5271,
        "contract": "contracts/RewardHandler.sol:RewardHandler",
        "label": "lastUpdateTime",
        "offset": 0,
        "slot": "8",
        "type": "t_uint256"
      },
      {
        "astId": 5273,
        "contract": "contracts/RewardHandler.sol:RewardHandler",
        "label": "rewardPerTokenStored",
        "offset": 0,
        "slot": "9",
        "type": "t_uint256"
      },
      {
        "astId": 5278,
        "contract": "contracts/RewardHandler.sol:RewardHandler",
        "label": "userRewardPerTokenPaid",
        "offset": 0,
        "slot": "10",
        "type": "t_mapping(t_address,t_uint256)"
      },
      {
        "astId": 5283,
        "contract": "contracts/RewardHandler.sol:RewardHandler",
        "label": "rewards",
        "offset": 0,
        "slot": "11",
        "type": "t_mapping(t_address,t_uint256)"
      },
      {
        "astId": 5286,
        "contract": "contracts/RewardHandler.sol:RewardHandler",
        "label": "_totalSupply",
        "offset": 0,
        "slot": "12",
        "type": "t_uint256"
      },
      {
        "astId": 5291,
        "contract": "contracts/RewardHandler.sol:RewardHandler",
        "label": "_balances",
        "offset": 0,
        "slot": "13",
        "type": "t_mapping(t_address,t_uint256)"
      }
    ],
    "types": {
      "t_address": {
        "encoding": "inplace",
        "label": "address",
        "numberOfBytes": "20"
      },
      "t_array(t_bytes32)dyn_storage": {
        "base": "t_bytes32",
        "encoding": "dynamic_array",
        "label": "bytes32[]",
        "numberOfBytes": "32"
      },
      "t_bool": {
        "encoding": "inplace",
        "label": "bool",
        "numberOfBytes": "1"
      },
      "t_bytes32": {
        "encoding": "inplace",
        "label": "bytes32",
        "numberOfBytes": "32"
      },
      "t_contract(IERC20)1421": {
        "encoding": "inplace",
        "label": "contract IERC20",
        "numberOfBytes": "20"
      },
      "t_mapping(t_address,t_uint256)": {
        "encoding": "mapping",
        "key": "t_address",
        "label": "mapping(address => uint256)",
        "numberOfBytes": "32",
        "value": "t_uint256"
      },
      "t_mapping(t_bytes32,t_struct(RoleData)87_storage)": {
        "encoding": "mapping",
        "key": "t_bytes32",
        "label": "mapping(bytes32 => struct AccessControl.RoleData)",
        "numberOfBytes": "32",
        "value": "t_struct(RoleData)87_storage"
      },
      "t_mapping(t_bytes32,t_uint256)": {
        "encoding": "mapping",
        "key": "t_bytes32",
        "label": "mapping(bytes32 => uint256)",
        "numberOfBytes": "32",
        "value": "t_uint256"
      },
      "t_struct(AddressSet)2204_storage": {
        "encoding": "inplace",
        "label": "struct EnumerableSet.AddressSet",
        "members": [
          {
            "astId": 2203,
            "contract": "contracts/RewardHandler.sol:RewardHandler",
            "label": "_inner",
            "offset": 0,
            "slot": "0",
            "type": "t_struct(Set)1939_storage"
          }
        ],
        "numberOfBytes": "64"
      },
      "t_struct(RoleData)87_storage": {
        "encoding": "inplace",
        "label": "struct AccessControl.RoleData",
        "members": [
          {
            "astId": 84,
            "contract": "contracts/RewardHandler.sol:RewardHandler",
            "label": "members",
            "offset": 0,
            "slot": "0",
            "type": "t_struct(AddressSet)2204_storage"
          },
          {
            "astId": 86,
            "contract": "contracts/RewardHandler.sol:RewardHandler",
            "label": "adminRole",
            "offset": 0,
            "slot": "2",
            "type": "t_bytes32"
          }
        ],
        "numberOfBytes": "96"
      },
      "t_struct(Set)1939_storage": {
        "encoding": "inplace",
        "label": "struct EnumerableSet.Set",
        "members": [
          {
            "astId": 1934,
            "contract": "contracts/RewardHandler.sol:RewardHandler",
            "label": "_values",
            "offset": 0,
            "slot": "0",
            "type": "t_array(t_bytes32)dyn_storage"
          },
          {
            "astId": 1938,
            "contract": "contracts/RewardHandler.sol:RewardHandler",
            "label": "_indexes",
            "offset": 0,
            "slot": "1",
            "type": "t_mapping(t_bytes32,t_uint256)"
          }
        ],
        "numberOfBytes": "64"
      },
      "t_uint256": {
        "encoding": "inplace",
        "label": "uint256",
        "numberOfBytes": "32"
      }
    }
  }
}