{
  "abi": [
    {
      "anonymous": false,
      "inputs": [
        {
          "indexed": true,
          "internalType": "address",
          "name": "_owner",
          "type": "address"
        },
        {
          "indexed": true,
          "internalType": "uint256",
          "name": "_id",
          "type": "uint256"
        },
        {
          "indexed": false,
          "internalType": "uint256",
          "name": "_amount",
          "type": "uint256"
        }
      ],
      "name": "LogAddCollateral",
      "type": "event"
    },
    {
      "anonymous": false,
      "inputs": [
        {
          "indexed": true,
          "internalType": "address",
          "name": "_owner",
          "type": "address"
        },
        {
          "indexed": true,
          "internalType": "uint256",
          "name": "_id",
          "type": "uint256"
        },
        {
          "indexed": false,
          "internalType": "uint256",
          "name": "_amount",
          "type": "uint256"
        }
      ],
      "name": "LogBurn",
      "type": "event"
    },
    {
      "anonymous": false,
      "inputs": [
        {
          "indexed": true,
          "internalType": "address",
          "name": "_owner",
          "type": "address"
        },
        {
          "indexed": true,
          "internalType": "uint256",
          "name": "_id",
          "type": "uint256"
        }
      ],
      "name": "LogCreateVault",
      "type": "event"
    },
    {
      "anonymous": false,
      "inputs": [
        {
          "indexed": true,
          "internalType": "address",
          "name": "_owner",
          "type": "address"
        },
        {
          "indexed": false,
          "internalType": "bool",
          "name": "_enable",
          "type": "bool"
        }
      ],
      "name": "LogEnableWhitelist",
      "type": "event"
    },
    {
      "anonymous": false,
      "inputs": [
        {
          "indexed": true,
          "internalType": "uint256",
          "name": "_vaultId",
          "type": "uint256"
        },
        {
          "indexed": true,
          "internalType": "address",
          "name": "_liquidator",
          "type": "address"
        },
        {
          "indexed": false,
          "internalType": "uint256",
          "name": "_liquidationCollateral",
          "type": "uint256"
        },
        {
          "indexed": false,
          "internalType": "uint256",
          "name": "_reward",
          "type": "uint256"
        }
      ],
      "name": "LogLiquidateVault",
      "type": "event"
    },
    {
      "anonymous": false,
      "inputs": [
        {
          "indexed": true,
          "internalType": "address",
          "name": "_owner",
          "type": "address"
        },
        {
          "indexed": true,
          "internalType": "uint256",
          "name": "_id",
          "type": "uint256"
        },
        {
          "indexed": false,
          "internalType": "uint256",
          "name": "_amount",
          "type": "uint256"
        }
      ],
      "name": "LogMint",
      "type": "event"
    },
    {
      "anonymous": false,
      "inputs": [
        {
          "indexed": true,
          "internalType": "address",
          "name": "_owner",
          "type": "address"
        },
        {
          "indexed": true,
          "internalType": "uint256",
          "name": "_id",
          "type": "uint256"
        },
        {
          "indexed": false,
          "internalType": "uint256",
          "name": "_amount",
          "type": "uint256"
        }
      ],
      "name": "LogRemoveCollateral",
      "type": "event"
    },
    {
      "anonymous": false,
      "inputs": [
        {
          "indexed": true,
          "internalType": "address",
          "name": "_owner",
          "type": "address"
        },
        {
          "indexed": false,
          "internalType": "uint256",
          "name": "_amount",
          "type": "uint256"
        }
      ],
      "name": "LogRetrieveFees",
      "type": "event"
    },
    {
      "anonymous": false,
      "inputs": [
        {
          "indexed": true,
          "internalType": "address",
          "name": "_owner",
          "type": "address"
        },
        {
          "indexed": false,
          "internalType": "uint256",
          "name": "_burnFee",
          "type": "uint256"
        }
      ],
      "name": "LogSetBurnFee",
      "type": "event"
    },
    {
      "anonymous": false,
      "inputs": [
        {
          "indexed": true,
          "internalType": "address",
          "name": "_owner",
          "type": "address"
        },
        {
          "indexed": false,
          "internalType": "contract ERC20",
          "name": "_collateralContract",
          "type": "address"
        }
      ],
      "name": "LogSetCollateralContract",
      "type": "event"
    },
    {
      "anonymous": false,
      "inputs": [
        {
          "indexed": true,
          "internalType": "address",
          "name": "_owner",
          "type": "address"
        },
        {
          "indexed": false,
          "internalType": "contract ChainlinkOracle",
          "name": "_priceOracle",
          "type": "address"
        }
      ],
      "name": "LogSetCollateralPriceOracle",
      "type": "event"
    },
    {
      "anonymous": false,
      "inputs": [
        {
          "indexed": true,
          "internalType": "address",
          "name": "_owner",
          "type": "address"
        },
        {
          "indexed": false,
          "internalType": "uint256",
          "name": "_divisor",
          "type": "uint256"
        }
      ],
      "name": "LogSetDivisor",
      "type": "event"
    },
    {
      "anonymous": false,
      "inputs": [
        {
          "indexed": true,
          "internalType": "address",
          "name": "_owner",
          "type": "address"
        },
        {
          "indexed": false,
          "internalType": "uint256",
          "name": "_liquidationPenalty",
          "type": "uint256"
        }
      ],
      "name": "LogSetLiquidationPenalty",
      "type": "event"
    },
    {
      "anonymous": false,
      "inputs": [
        {
          "indexed": true,
          "internalType": "address",
          "name": "_owner",
          "type": "address"
        },
        {
          "indexed": false,
          "internalType": "uint256",
          "name": "_ratio",
          "type": "uint256"
        }
      ],
      "name": "LogSetRatio",
      "type": "event"
    },
    {
      "anonymous": false,
      "inputs": [
        {
          "indexed": true,
          "internalType": "address",
          "name": "_owner",
          "type": "address"
        },
        {
          "indexed": false,
          "internalType": "contract TcapOracle",
          "name": "_oracle",
          "type": "address"
        }
      ],
      "name": "LogSetTCAPOracle",
      "type": "event"
    },
    {
      "anonymous": false,
      "inputs": [
        {
          "indexed": true,
          "internalType": "address",
          "name": "_owner",
          "type": "address"
        },
        {
          "indexed": false,
          "internalType": "contract TCAPX",
          "name": "_token",
          "type": "address"
        }
      ],
      "name": "LogSetTCAPXContract",
      "type": "event"
    },
    {
      "anonymous": false,
      "inputs": [
        {
          "indexed": true,
          "internalType": "address",
          "name": "previousOwner",
          "type": "address"
        },
        {
          "indexed": true,
          "internalType": "address",
          "name": "newOwner",
          "type": "address"
        }
      ],
      "name": "OwnershipTransferred",
      "type": "event"
    },
    {
      "anonymous": false,
      "inputs": [
        {
          "indexed": false,
          "internalType": "address",
          "name": "account",
          "type": "address"
        }
      ],
      "name": "Paused",
      "type": "event"
    },
    {
      "anonymous": false,
      "inputs": [
        {
          "indexed": true,
          "internalType": "bytes32",
          "name": "role",
          "type": "bytes32"
        },
        {
          "indexed": true,
          "internalType": "address",
          "name": "account",
          "type": "address"
        },
        {
          "indexed": true,
          "internalType": "address",
          "name": "sender",
          "type": "address"
        }
      ],
      "name": "RoleGranted",
      "type": "event"
    },
    {
      "anonymous": false,
      "inputs": [
        {
          "indexed": true,
          "internalType": "bytes32",
          "name": "role",
          "type": "bytes32"
        },
        {
          "indexed": true,
          "internalType": "address",
          "name": "account",
          "type": "address"
        },
        {
          "indexed": true,
          "internalType": "address",
          "name": "sender",
          "type": "address"
        }
      ],
      "name": "RoleRevoked",
      "type": "event"
    },
    {
      "anonymous": false,
      "inputs": [
        {
          "indexed": false,
          "internalType": "address",
          "name": "account",
          "type": "address"
        }
      ],
      "name": "Unpaused",
      "type": "event"
    },
    {
      "inputs": [],
      "name": "DEFAULT_ADMIN_ROLE",
      "outputs": [
        {
          "internalType": "bytes32",
          "name": "",
          "type": "bytes32"
        }
      ],
      "stateMutability": "view",
      "type": "function"
    },
    {
      "inputs": [],
      "name": "INVESTOR_ROLE",
      "outputs": [
        {
          "internalType": "bytes32",
          "name": "",
          "type": "bytes32"
        }
      ],
      "stateMutability": "view",
      "type": "function"
    },
    {
      "inputs": [],
      "name": "TCAPXPrice",
      "outputs": [
        {
          "internalType": "uint256",
          "name": "price",
          "type": "uint256"
        }
      ],
      "stateMutability": "view",
      "type": "function"
    },
    {
      "inputs": [],
      "name": "TCAPXToken",
      "outputs": [
        {
          "internalType": "contract TCAPX",
          "name": "",
          "type": "address"
        }
      ],
      "stateMutability": "view",
      "type": "function"
    },
    {
      "inputs": [
        {
          "internalType": "uint256",
          "name": "_amount",
          "type": "uint256"
        }
      ],
      "name": "addCollateral",
      "outputs": [],
      "stateMutability": "nonpayable",
      "type": "function"
    },
    {
      "inputs": [
        {
          "internalType": "address",
          "name": "_investor",
          "type": "address"
        }
      ],
      "name": "addInvestor",
      "outputs": [],
      "stateMutability": "nonpayable",
      "type": "function"
    },
    {
      "inputs": [
        {
          "internalType": "uint256",
          "name": "_amount",
          "type": "uint256"
        }
      ],
      "name": "burn",
      "outputs": [],
      "stateMutability": "payable",
      "type": "function"
    },
    {
      "inputs": [],
      "name": "burnFee",
      "outputs": [
        {
          "internalType": "uint256",
          "name": "",
          "type": "uint256"
        }
      ],
      "stateMutability": "view",
      "type": "function"
    },
    {
      "inputs": [],
      "name": "collateralContract",
      "outputs": [
        {
          "internalType": "contract ERC20",
          "name": "",
          "type": "address"
        }
      ],
      "stateMutability": "view",
      "type": "function"
    },
    {
      "inputs": [],
      "name": "collateralPriceOracle",
      "outputs": [
        {
          "internalType": "contract ChainlinkOracle",
          "name": "",
          "type": "address"
        }
      ],
      "stateMutability": "view",
      "type": "function"
    },
    {
      "inputs": [],
      "name": "createVault",
      "outputs": [],
      "stateMutability": "nonpayable",
      "type": "function"
    },
    {
      "inputs": [],
      "name": "divisor",
      "outputs": [
        {
          "internalType": "uint256",
          "name": "",
          "type": "uint256"
        }
      ],
      "stateMutability": "view",
      "type": "function"
    },
    {
      "inputs": [
        {
          "internalType": "bool",
          "name": "_enable",
          "type": "bool"
        }
      ],
      "name": "enableWhitelist",
      "outputs": [],
      "stateMutability": "nonpayable",
      "type": "function"
    },
    {
      "inputs": [
        {
          "internalType": "uint256",
          "name": "_amount",
          "type": "uint256"
        }
      ],
      "name": "getFee",
      "outputs": [
        {
          "internalType": "uint256",
          "name": "fee",
          "type": "uint256"
        }
      ],
      "stateMutability": "view",
      "type": "function"
    },
    {
      "inputs": [
        {
          "internalType": "bytes32",
          "name": "role",
          "type": "bytes32"
        }
      ],
      "name": "getRoleAdmin",
      "outputs": [
        {
          "internalType": "bytes32",
          "name": "",
          "type": "bytes32"
        }
      ],
      "stateMutability": "view",
      "type": "function"
    },
    {
      "inputs": [
        {
          "internalType": "bytes32",
          "name": "role",
          "type": "bytes32"
        },
        {
          "internalType": "uint256",
          "name": "index",
          "type": "uint256"
        }
      ],
      "name": "getRoleMember",
      "outputs": [
        {
          "internalType": "address",
          "name": "",
          "type": "address"
        }
      ],
      "stateMutability": "view",
      "type": "function"
    },
    {
      "inputs": [
        {
          "internalType": "bytes32",
          "name": "role",
          "type": "bytes32"
        }
      ],
      "name": "getRoleMemberCount",
      "outputs": [
        {
          "internalType": "uint256",
          "name": "",
          "type": "uint256"
        }
      ],
      "stateMutability": "view",
      "type": "function"
    },
    {
      "inputs": [
        {
          "internalType": "uint256",
          "name": "_id",
          "type": "uint256"
        }
      ],
      "name": "getVault",
      "outputs": [
        {
          "internalType": "uint256",
          "name": "",
          "type": "uint256"
        },
        {
          "internalType": "uint256",
          "name": "",
          "type": "uint256"
        },
        {
          "internalType": "address",
          "name": "",
          "type": "address"
        },
        {
          "internalType": "uint256",
          "name": "",
          "type": "uint256"
        }
      ],
      "stateMutability": "view",
      "type": "function"
    },
    {
      "inputs": [
        {
          "internalType": "uint256",
          "name": "_vaultId",
          "type": "uint256"
        }
      ],
      "name": "getVaultRatio",
      "outputs": [
        {
          "internalType": "uint256",
          "name": "currentRatio",
          "type": "uint256"
        }
      ],
      "stateMutability": "view",
      "type": "function"
    },
    {
      "inputs": [
        {
          "internalType": "bytes32",
          "name": "role",
          "type": "bytes32"
        },
        {
          "internalType": "address",
          "name": "account",
          "type": "address"
        }
      ],
      "name": "grantRole",
      "outputs": [],
      "stateMutability": "nonpayable",
      "type": "function"
    },
    {
      "inputs": [
        {
          "internalType": "bytes32",
          "name": "role",
          "type": "bytes32"
        },
        {
          "internalType": "address",
          "name": "account",
          "type": "address"
        }
      ],
      "name": "hasRole",
      "outputs": [
        {
          "internalType": "bool",
          "name": "",
          "type": "bool"
        }
      ],
      "stateMutability": "view",
      "type": "function"
    },
    {
      "inputs": [
        {
          "internalType": "uint256",
          "name": "_vaultId",
          "type": "uint256"
        },
        {
          "internalType": "uint256",
          "name": "requiredCollateral",
          "type": "uint256"
        }
      ],
      "name": "liquidateVault",
      "outputs": [],
      "stateMutability": "payable",
      "type": "function"
    },
    {
      "inputs": [],
      "name": "liquidationPenalty",
      "outputs": [
        {
          "internalType": "uint256",
          "name": "",
          "type": "uint256"
        }
      ],
      "stateMutability": "view",
      "type": "function"
    },
    {
      "inputs": [
        {
          "internalType": "uint256",
          "name": "_vaultId",
          "type": "uint256"
        }
      ],
      "name": "liquidationReward",
      "outputs": [
        {
          "internalType": "uint256",
          "name": "rewardCollateral",
          "type": "uint256"
        }
      ],
      "stateMutability": "view",
      "type": "function"
    },
    {
      "inputs": [
        {
          "internalType": "uint256",
          "name": "_amount",
          "type": "uint256"
        }
      ],
      "name": "mint",
      "outputs": [],
      "stateMutability": "nonpayable",
      "type": "function"
    },
    {
      "inputs": [],
      "name": "owner",
      "outputs": [
        {
          "internalType": "address",
          "name": "",
          "type": "address"
        }
      ],
      "stateMutability": "view",
      "type": "function"
    },
    {
      "inputs": [],
      "name": "pause",
      "outputs": [],
      "stateMutability": "nonpayable",
      "type": "function"
    },
    {
      "inputs": [],
      "name": "paused",
      "outputs": [
        {
          "internalType": "bool",
          "name": "",
          "type": "bool"
        }
      ],
      "stateMutability": "view",
      "type": "function"
    },
    {
      "inputs": [],
      "name": "ratio",
      "outputs": [
        {
          "internalType": "uint256",
          "name": "",
          "type": "uint256"
        }
      ],
      "stateMutability": "view",
      "type": "function"
    },
    {
      "inputs": [
        {
          "internalType": "uint256",
          "name": "_amount",
          "type": "uint256"
        }
      ],
      "name": "removeCollateral",
      "outputs": [],
      "stateMutability": "nonpayable",
      "type": "function"
    },
    {
      "inputs": [
        {
          "internalType": "address",
          "name": "_investor",
          "type": "address"
        }
      ],
      "name": "removeInvestor",
      "outputs": [],
      "stateMutability": "nonpayable",
      "type": "function"
    },
    {
      "inputs": [],
      "name": "renounceOwnership",
      "outputs": [],
      "stateMutability": "nonpayable",
      "type": "function"
    },
    {
      "inputs": [
        {
          "internalType": "bytes32",
          "name": "role",
          "type": "bytes32"
        },
        {
          "internalType": "address",
          "name": "account",
          "type": "address"
        }
      ],
      "name": "renounceRole",
      "outputs": [],
      "stateMutability": "nonpayable",
      "type": "function"
    },
    {
      "inputs": [
        {
          "internalType": "uint256",
          "name": "_amount",
          "type": "uint256"
        }
      ],
      "name": "requiredCollateral",
      "outputs": [
        {
          "internalType": "uint256",
          "name": "collateral",
          "type": "uint256"
        }
      ],
      "stateMutability": "view",
      "type": "function"
    },
    {
      "inputs": [
        {
          "internalType": "uint256",
          "name": "_vaultId",
          "type": "uint256"
        }
      ],
      "name": "requiredLiquidationCollateral",
      "outputs": [
        {
          "internalType": "uint256",
          "name": "collateral",
          "type": "uint256"
        }
      ],
      "stateMutability": "view",
      "type": "function"
    },
    {
      "inputs": [],
      "name": "retrieveFees",
      "outputs": [],
      "stateMutability": "nonpayable",
      "type": "function"
    },
    {
      "inputs": [
        {
          "internalType": "bytes32",
          "name": "role",
          "type": "bytes32"
        },
        {
          "internalType": "address",
          "name": "account",
          "type": "address"
        }
      ],
      "name": "revokeRole",
      "outputs": [],
      "stateMutability": "nonpayable",
      "type": "function"
    },
    {
      "inputs": [
        {
          "internalType": "uint256",
          "name": "_burnFee",
          "type": "uint256"
        }
      ],
      "name": "setBurnFee",
      "outputs": [],
      "stateMutability": "nonpayable",
      "type": "function"
    },
    {
      "inputs": [
        {
          "internalType": "contract ERC20",
          "name": "_collateralContract",
          "type": "address"
        }
      ],
      "name": "setCollateralContract",
      "outputs": [],
      "stateMutability": "nonpayable",
      "type": "function"
    },
    {
      "inputs": [
        {
          "internalType": "contract ChainlinkOracle",
          "name": "_collateral",
          "type": "address"
        }
      ],
      "name": "setCollateralPriceOracle",
      "outputs": [],
      "stateMutability": "nonpayable",
      "type": "function"
    },
    {
      "inputs": [
        {
          "internalType": "uint256",
          "name": "_divisor",
          "type": "uint256"
        }
      ],
      "name": "setDivisor",
      "outputs": [],
      "stateMutability": "nonpayable",
      "type": "function"
    },
    {
      "inputs": [
        {
          "internalType": "uint256",
          "name": "_liquidationPenalty",
          "type": "uint256"
        }
      ],
      "name": "setLiquidationPenalty",
      "outputs": [],
      "stateMutability": "nonpayable",
      "type": "function"
    },
    {
      "inputs": [
        {
          "internalType": "uint256",
          "name": "_ratio",
          "type": "uint256"
        }
      ],
      "name": "setRatio",
      "outputs": [],
      "stateMutability": "nonpayable",
      "type": "function"
    },
    {
      "inputs": [
        {
          "internalType": "contract TcapOracle",
          "name": "_oracle",
          "type": "address"
        }
      ],
      "name": "setTCAPOracle",
      "outputs": [],
      "stateMutability": "nonpayable",
      "type": "function"
    },
    {
      "inputs": [
        {
          "internalType": "contract TCAPX",
          "name": "_TCAPXToken",
          "type": "address"
        }
      ],
      "name": "setTCAPXContract",
      "outputs": [],
      "stateMutability": "nonpayable",
      "type": "function"
    },
    {
      "inputs": [],
      "name": "tcapOracle",
      "outputs": [
        {
          "internalType": "contract TcapOracle",
          "name": "",
          "type": "address"
        }
      ],
      "stateMutability": "view",
      "type": "function"
    },
    {
      "inputs": [
        {
          "internalType": "address",
          "name": "newOwner",
          "type": "address"
        }
      ],
      "name": "transferOwnership",
      "outputs": [],
      "stateMutability": "nonpayable",
      "type": "function"
    },
    {
      "inputs": [],
      "name": "unpause",
      "outputs": [],
      "stateMutability": "nonpayable",
      "type": "function"
    },
    {
      "inputs": [
        {
          "internalType": "address",
          "name": "",
          "type": "address"
        }
      ],
      "name": "vaultToUser",
      "outputs": [
        {
          "internalType": "uint256",
          "name": "",
          "type": "uint256"
        }
      ],
      "stateMutability": "view",
      "type": "function"
    },
    {
      "inputs": [
        {
          "internalType": "uint256",
          "name": "",
          "type": "uint256"
        }
      ],
      "name": "vaults",
      "outputs": [
        {
          "internalType": "uint256",
          "name": "Id",
          "type": "uint256"
        },
        {
          "internalType": "uint256",
          "name": "Collateral",
          "type": "uint256"
        },
        {
          "internalType": "uint256",
          "name": "Debt",
          "type": "uint256"
        },
        {
          "internalType": "address",
          "name": "Owner",
          "type": "address"
        }
      ],
      "stateMutability": "view",
      "type": "function"
    },
    {
      "inputs": [],
      "name": "whitelistEnabled",
      "outputs": [
        {
          "internalType": "bool",
          "name": "",
          "type": "bool"
        }
      ],
      "stateMutability": "view",
      "type": "function"
    }
  ],
  "address": "0xDcD33B28C8e69656D41391278308686f3Bf7762b",
  "args": [],
  "bytecode": "0x60806040523480156200001157600080fd5b506000620000276001600160e01b03620000c716565b600080546001600160a01b0319166001600160a01b0383169081178255604051929350917f8be0079c531659141344cd1fd0a4f28419497f9722a3daafe3b4186f6b6457e0908290a35060028054600160ff19918216811761ff001916909255600c80549091169091179055620000ab6003620000cb602090811b62002b3c17901c565b620000c16000336001600160e01b03620000d416565b6200020a565b3390565b80546001019055565b620000e982826001600160e01b03620000ed16565b5050565b60008281526001602090815260409091206200011491839062002b4562000171821b17901c565b15620000e9576200012d6001600160e01b03620000c716565b6001600160a01b0316816001600160a01b0316837f2f8788117e7eff1d82e926ec794901d17c78024a50270940304540a733656f0d60405160405180910390a45050565b600062000191836001600160a01b0384166001600160e01b036200019a16565b90505b92915050565b6000620001b183836001600160e01b03620001f216565b620001e95750815460018181018455600084815260208082209093018490558454848252828601909352604090209190915562000194565b50600062000194565b60009081526001919091016020526040902054151590565b6134ea806200021a6000396000f3fe6080604052600436106102e45760003560e01c80638c01f21111610190578063bae8cae5116100dc578063e641bde111610095578063f31e65ad1161006f578063f31e65ad14610a35578063f58bc29e14610a68578063fce589d814610a92578063fcee45f414610aa7576102e4565b8063e641bde11461099c578063e941cd06146109cf578063f2fde38b14610a02576102e4565b8063bae8cae5146108b2578063bcc46e83146108c7578063c543a1a0146108f1578063c6e1c7c914610924578063ca15c87314610939578063d547741f14610963576102e4565b8063952cc86a11610149578063a217fddf11610123578063a217fddf14610816578063a4ec7c6b1461082b578063abb7bc4a1461085e578063b2237ba314610888576102e4565b8063952cc86a146107b457806398130f30146107d7578063a0712d68146107ec576102e4565b80638c01f2111461065b5780638c64ea4a146106855780638da5cb5b146106de5780639010d07c146106f357806391d14854146107235780639403b6341461075c576102e4565b806341af25191161024f5780635d12928b1161020857806371ca337d116101e257806371ca337d1461060757806376082a5e1461061c578063842e357c146106315780638456cb5914610646576102e4565b80635d12928b146105b3578063709f5ccc146105c8578063715018a6146105f2576102e4565b806341af2519146104e657806342714978146104fb57806342966c681461052e5780634bf2c7c91461054b57806351fb012d146105755780635c975abb1461059e576102e4565b8063248a9ca3116102a1578063248a9ca3146103e15780632806a7431461040b5780632f2ff15d146104355780633237c1581461046e57806336568abe146104985780633f4ba83a146104d1576102e4565b8063040b6583146102e957806311d850e8146103175780631cc244ba146103535780631f2dc5ef146103845780631fd0c43e1461039957806323f5589a146103cc575b600080fd5b3480156102f557600080fd5b506103156004803603602081101561030c57600080fd5b50351515610ad1565b005b34801561032357600080fd5b506103416004803603602081101561033a57600080fd5b5035610b7a565b60408051918252519081900360200190f35b34801561035f57600080fd5b50610368610c6d565b604080516001600160a01b039092168252519081900360200190f35b34801561039057600080fd5b50610341610c7c565b3480156103a557600080fd5b50610315600480360360208110156103bc57600080fd5b50356001600160a01b0316610c82565b3480156103d857600080fd5b50610341610d31565b3480156103ed57600080fd5b506103416004803603602081101561040457600080fd5b5035610d37565b34801561041757600080fd5b506103156004803603602081101561042e57600080fd5b5035610d4c565b34801561044157600080fd5b506103156004803603604081101561045857600080fd5b50803590602001356001600160a01b0316610de2565b34801561047a57600080fd5b506103156004803603602081101561049157600080fd5b5035610e4e565b3480156104a457600080fd5b50610315600480360360408110156104bb57600080fd5b50803590602001356001600160a01b03166110e5565b3480156104dd57600080fd5b50610315611146565b3480156104f257600080fd5b506103416111a8565b34801561050757600080fd5b506103156004803603602081101561051e57600080fd5b50356001600160a01b0316611242565b6103156004803603602081101561054457600080fd5b50356112c9565b34801561055757600080fd5b506103156004803603602081101561056e57600080fd5b5035611478565b34801561058157600080fd5b5061058a61150e565b604080519115158252519081900360200190f35b3480156105aa57600080fd5b5061058a611517565b3480156105bf57600080fd5b50610315611525565b3480156105d457600080fd5b50610315600480360360208110156105eb57600080fd5b503561171b565b3480156105fe57600080fd5b506103156117b1565b34801561061357600080fd5b50610341611853565b34801561062857600080fd5b50610341611859565b34801561063d57600080fd5b5061036861187e565b34801561065257600080fd5b5061031561188d565b34801561066757600080fd5b506103416004803603602081101561067e57600080fd5b50356118ed565b34801561069157600080fd5b506106af600480360360208110156106a857600080fd5b5035611a20565b604080519485526020850193909352838301919091526001600160a01b03166060830152519081900360800190f35b3480156106ea57600080fd5b50610368611a50565b3480156106ff57600080fd5b506103686004803603604081101561071657600080fd5b5080359060200135611a5f565b34801561072f57600080fd5b5061058a6004803603604081101561074657600080fd5b50803590602001356001600160a01b0316611a86565b34801561076857600080fd5b506107866004803603602081101561077f57600080fd5b5035611aa4565b6040805194855260208501939093526001600160a01b03909116838301526060830152519081900360800190f35b610315600480360360408110156107ca57600080fd5b5080359060200135611b0b565b3480156107e357600080fd5b50610368611dc5565b3480156107f857600080fd5b506103156004803603602081101561080f57600080fd5b5035611dd4565b34801561082257600080fd5b5061034161205d565b34801561083757600080fd5b506103156004803603602081101561084e57600080fd5b50356001600160a01b0316612062565b34801561086a57600080fd5b506103416004803603602081101561088157600080fd5b5035612111565b34801561089457600080fd5b50610315600480360360208110156108ab57600080fd5b50356121cb565b3480156108be57600080fd5b50610315612261565b3480156108d357600080fd5b50610315600480360360208110156108ea57600080fd5b5035612334565b3480156108fd57600080fd5b506103156004803603602081101561091457600080fd5b50356001600160a01b03166125ad565b34801561093057600080fd5b5061036861265c565b34801561094557600080fd5b506103416004803603602081101561095c57600080fd5b503561266b565b34801561096f57600080fd5b506103156004803603604081101561098657600080fd5b50803590602001356001600160a01b0316612682565b3480156109a857600080fd5b50610315600480360360208110156109bf57600080fd5b50356001600160a01b03166126db565b3480156109db57600080fd5b50610315600480360360208110156109f257600080fd5b50356001600160a01b031661275f565b348015610a0e57600080fd5b5061031560048036036020811015610a2557600080fd5b50356001600160a01b031661280e565b348015610a4157600080fd5b5061034160048036036020811015610a5857600080fd5b50356001600160a01b0316612906565b348015610a7457600080fd5b5061034160048036036020811015610a8b57600080fd5b5035612918565b348015610a9e57600080fd5b50610341612a93565b348015610ab357600080fd5b5061034160048036036020811015610aca57600080fd5b5035612a99565b610ad9612b5a565b6000546001600160a01b03908116911614610b29576040805162461bcd60e51b815260206004820181905260248201526000805160206133fc833981519152604482015290519081900360640190fd5b600c805482151560ff1990911617908190556040805160ff92909216151582525133917ff3c80957efdbca57f7c55dab4b3d92d30e2b68de4789ca37dc45677f9f6ce30f919081900360200190a250565b600080610b8683612918565b90506000610b926111a8565b90506000600760009054906101000a90046001600160a01b03166001600160a01b03166396237c026040518163ffffffff1660e01b815260040160206040518083038186803b158015610be457600080fd5b505afa158015610bf8573d6000803e3d6000fd5b505050506040513d6020811015610c0e57600080fd5b5051600b54909150600090610c4d90606490610c4190610c34908363ffffffff612b5e16565b879063ffffffff612bb816565b9063ffffffff612c1116565b9050610c6382610c41838663ffffffff612bb816565b9695505050505050565b6005546001600160a01b031681565b60085481565b610c8a612b5a565b6000546001600160a01b03908116911614610cda576040805162461bcd60e51b815260206004820181905260248201526000805160206133fc833981519152604482015290519081900360640190fd5b600780546001600160a01b0383166001600160a01b03199091168117909155604080519182525133917f66e2fd6dbdcf5f01b6b838597eaff18e974d846a5db5a38a8faf8d5e875aeec4919081900360200190a250565b600b5481565b60009081526001602052604090206002015490565b610d54612b5a565b6000546001600160a01b03908116911614610da4576040805162461bcd60e51b815260206004820181905260248201526000805160206133fc833981519152604482015290519081900360640190fd5b600b81905560408051828152905133917f6fdf5e426cb97389332e6d1c998d5123734bd7f204aa29b4a8284734c7aaa0ae919081900360200190a250565b600082815260016020526040902060020154610e0590610e00612b5a565b611a86565b610e405760405162461bcd60e51b815260040180806020018281038252602f815260200180613313602f913960400191505060405180910390fd5b610e4a8282612c53565b5050565b60025460ff16610e93576040805162461bcd60e51b815260206004820152601f6024820152600080516020613342833981519152604482015290519081900360640190fd5b6002805460ff19169055336000908152600d6020526040902054610ef1576040805162461bcd60e51b815260206004820152601060248201526f139bc815985d5b1d0818dc99585d195960821b604482015290519081900360640190fd5b600254610100900460ff1615610f41576040805162461bcd60e51b815260206004820152601060248201526f14185d5cd8589b194e881c185d5cd95960821b604482015290519081900360640190fd5b336000908152600d60209081526040808320548352600e90915281208054909190610f6b906118ed565b90508282600101541015610fb05760405162461bcd60e51b81526004018080602001828103825260408152602001806134466040913960400191505060405180910390fd5b6001820154610fc5908463ffffffff612cc216565b6001830155801561101b576009548254610fde906118ed565b101561101b5760405162461bcd60e51b81526004018080602001828103825260238152602001806133626023913960400191505060405180910390fd5b6006546040805163a9059cbb60e01b81523360048201526024810186905290516001600160a01b039092169163a9059cbb916044808201926020929091908290030181600087803b15801561106f57600080fd5b505af1158015611083573d6000803e3d6000fd5b505050506040513d602081101561109957600080fd5b5050815460408051858152905133917f9b849e292191860667c493bd0657a5c71fd2350e4645303bddfc435da85c7c20919081900360200190a350506002805460ff1916600117905550565b6110ed612b5a565b6001600160a01b0316816001600160a01b03161461113c5760405162461bcd60e51b815260040180806020018281038252602f815260200180613486602f913960400191505060405180910390fd5b610e4a8282612d04565b61114e612b5a565b6000546001600160a01b0390811691161461119e576040805162461bcd60e51b815260206004820181905260248201526000805160206133fc833981519152604482015290519081900360640190fd5b6111a6612d73565b565b600080600560009054906101000a90046001600160a01b03166001600160a01b03166396237c026040518163ffffffff1660e01b815260040160206040518083038186803b1580156111f957600080fd5b505afa15801561120d573d6000803e3d6000fd5b505050506040513d602081101561122357600080fd5b505160085490915061123c90829063ffffffff612c1116565b91505090565b61124a612b5a565b6000546001600160a01b0390811691161461129a576040805162461bcd60e51b815260206004820181905260248201526000805160206133fc833981519152604482015290519081900360640190fd5b604080516c494e564553544f525f524f4c4560981b8152905190819003600d0190206112c69082612682565b50565b60025460ff1661130e576040805162461bcd60e51b815260206004820152601f6024820152600080516020613342833981519152604482015290519081900360640190fd5b6002805460ff19169055336000908152600d602052604090205461136c576040805162461bcd60e51b815260206004820152601060248201526f139bc815985d5b1d0818dc99585d195960821b604482015290519081900360640190fd5b600254610100900460ff16156113bc576040805162461bcd60e51b815260206004820152601060248201526f14185d5cd8589b194e881c185d5cd95960821b604482015290519081900360640190fd5b6113c46132bf565b50336000908152600d60209081526040808320548352600e8252918290208251608081018452815481526001820154928101929092526002810154928201929092526003909101546001600160a01b0316606082015261142382612e17565b805161142f9083612e78565b805160408051848152905133917f21cb60dab84f5815c7c4197b8935326f424383c894633344b495319ada0658aa919081900360200190a350506002805460ff19166001179055565b611480612b5a565b6000546001600160a01b039081169116146114d0576040805162461bcd60e51b815260206004820181905260248201526000805160206133fc833981519152604482015290519081900360640190fd5b600a81905560408051828152905133917f8cee12d433ab3655cf1b6189969ae35611c638f002d75202b4c8f260746ef20f919081900360200190a250565b600c5460ff1681565b600254610100900460ff1690565b600c5460ff16156115a657604080516c494e564553544f525f524f4c4560981b8152905190819003600d01902061155c9033611a86565b6115a6576040805162461bcd60e51b815260206004820152601660248201527521b0b63632b91034b9903737ba1034b73b32b9ba37b960511b604482015290519081900360640190fd5b600254610100900460ff16156115f6576040805162461bcd60e51b815260206004820152601060248201526f14185d5cd8589b194e881c185d5cd95960821b604482015290519081900360640190fd5b336000908152600d602052604090205415611650576040805162461bcd60e51b815260206004820152601560248201527415985d5b1d08185b1c9958591e4818dc99585d1959605a1b604482015290519081900360640190fd5b600061165c6003612f6a565b336000908152600d6020526040902081905590506116786132bf565b5060408051608081018252828152600060208083018281528385018381523360608601908152878552600e909352949092208351815591516001830155925160028201559151600392830180546001600160a01b0319166001600160a01b03909216919091179055906116ea90612b3c565b604051829033907f2fc6c3ac0740e97bb7c9a7b06221dafe87b5286c5076d86c8cb78bf1de9bd40a90600090a35050565b611723612b5a565b6000546001600160a01b03908116911614611773576040805162461bcd60e51b815260206004820181905260248201526000805160206133fc833981519152604482015290519081900360640190fd5b600881905560408051828152905133917ff5deac769e4391f28d78f7a013b140c7dbae3a75931f63039d566c556a525ad1919081900360200190a250565b6117b9612b5a565b6000546001600160a01b03908116911614611809576040805162461bcd60e51b815260206004820181905260248201526000805160206133fc833981519152604482015290519081900360640190fd5b600080546040516001600160a01b03909116907f8be0079c531659141344cd1fd0a4f28419497f9722a3daafe3b4186f6b6457e0908390a3600080546001600160a01b0319169055565b60095481565b604080516c494e564553544f525f524f4c4560981b8152905190819003600d01902081565b6007546001600160a01b031681565b611895612b5a565b6000546001600160a01b039081169116146118e5576040805162461bcd60e51b815260206004820181905260248201526000805160206133fc833981519152604482015290519081900360640190fd5b6111a6612f6e565b60006118f76132bf565b506000828152600e602090815260409182902082516080810184528154808252600183015493820193909352600282015493810193909352600301546001600160a01b03166060830152158061194f57506040810151155b1561195d5760009150611a1a565b60075460408051634b11be0160e11b815290516000926001600160a01b0316916396237c02916004808301926020929190829003018186803b1580156119a257600080fd5b505afa1580156119b6573d6000803e3d6000fd5b505050506040513d60208110156119cc57600080fd5b50519050611a166119ef6119de6111a8565b60408501519063ffffffff612bb816565b6020840151610c4190611a0990606463ffffffff612bb816565b849063ffffffff612bb816565b9250505b50919050565b600e602052600090815260409020805460018201546002830154600390930154919290916001600160a01b031684565b6000546001600160a01b031690565b6000828152600160205260408120611a7d908363ffffffff612ff616565b90505b92915050565b6000828152600160205260408120611a7d908363ffffffff61300216565b600080600080611ab26132bf565b50505060009283525050600e602090815260409182902082516080810184528154808252600183015493820184905260028301549482018590526003909201546001600160a01b03166060909101819052909391929091565b60025460ff16611b50576040805162461bcd60e51b815260206004820152601f6024820152600080516020613342833981519152604482015290519081900360640190fd5b6002805460ff191690819055610100900460ff1615611ba9576040805162461bcd60e51b815260206004820152601060248201526f14185d5cd8589b194e881c185d5cd95960821b604482015290519081900360640190fd5b6000828152600e602052604090208054611bfd576040805162461bcd60e51b815260206004820152601060248201526f139bc815985d5b1d0818dc99585d195960821b604482015290519081900360640190fd5b6000611c0c82600001546118ed565b90506009548110611c64576040805162461bcd60e51b815260206004820152601760248201527f5661756c74206973206e6f74206c697175696461626c65000000000000000000604482015290519081900360640190fd5b6000611c738360000154612918565b9050808414611cb35760405162461bcd60e51b815260040180806020018281038252602a81526020018061341c602a913960400191505060405180910390fd5b6000611cc28460000154610b7a565b9050611ccd85612e17565b8354611cd99086612e78565b6001840154611cee908263ffffffff612cc216565b60018501556006546040805163a9059cbb60e01b81523360048201526024810184905290516001600160a01b039092169163a9059cbb916044808201926020929091908290030181600087803b158015611d4757600080fd5b505af1158015611d5b573d6000803e3d6000fd5b505050506040513d6020811015611d7157600080fd5b50508354604080518481526020810184905281513393927fc07e3ac2fb130a0f07f1bdea4de0051bd1d99076a5a19c5d04e4a88cd73cdd5b928290030190a350506002805460ff1916600117905550505050565b6004546001600160a01b031681565b60025460ff16611e19576040805162461bcd60e51b815260206004820152601f6024820152600080516020613342833981519152604482015290519081900360640190fd5b6002805460ff19169055336000908152600d6020526040902054611e77576040805162461bcd60e51b815260206004820152601060248201526f139bc815985d5b1d0818dc99585d195960821b604482015290519081900360640190fd5b600254610100900460ff1615611ec7576040805162461bcd60e51b815260206004820152601060248201526f14185d5cd8589b194e881c185d5cd95960821b604482015290519081900360640190fd5b336000908152600d60209081526040808320548352600e909152812090611eed83612111565b90508082600101541015611f40576040805162461bcd60e51b8152602060048201526015602482015274139bdd08195b9bdd59da0818dbdb1b185d195c985b605a1b604482015290519081900360640190fd5b6002820154611f55908463ffffffff612b5e16565b60028301556009548254611f68906118ed565b1015611fa55760405162461bcd60e51b81526004018080602001828103825260238152602001806133626023913960400191505060405180910390fd5b60048054604080516340c10f1960e01b8152339381019390935260248301869052516001600160a01b03909116916340c10f1991604480830192600092919082900301818387803b158015611ff957600080fd5b505af115801561200d573d6000803e3d6000fd5b505083546040805187815290519193503392507fa82a7ea15c804d00dba1b969024b510969fde70fac8e0d5da860cf1f7376d317919081900360200190a350506002805460ff1916600117905550565b600081565b61206a612b5a565b6000546001600160a01b039081169116146120ba576040805162461bcd60e51b815260206004820181905260248201526000805160206133fc833981519152604482015290519081900360640190fd5b600480546001600160a01b0383166001600160a01b03199091168117909155604080519182525133917f64f31c0bdd687daf803f7f5b20218283be476d42c80c7491d11d1de9aeb23748919081900360200190a250565b60008061211c6111a8565b90506000600760009054906101000a90046001600160a01b03166001600160a01b03166396237c026040518163ffffffff1660e01b815260040160206040518083038186803b15801561216e57600080fd5b505afa158015612182573d6000803e3d6000fd5b505050506040513d602081101561219857600080fd5b5051600954909150611a16908290610c419060649082906121bf888b63ffffffff612bb816565b9063ffffffff612bb816565b6121d3612b5a565b6000546001600160a01b03908116911614612223576040805162461bcd60e51b815260206004820181905260248201526000805160206133fc833981519152604482015290519081900360640190fd5b600981905560408051828152905133917f745333eadc1991720ed6c94ad80c7b81898a7d7ca230f4107bc38eecd95e9e45919081900360200190a250565b612269612b5a565b6000546001600160a01b039081169116146122b9576040805162461bcd60e51b815260206004820181905260248201526000805160206133fc833981519152604482015290519081900360640190fd5b476122c2611a50565b6001600160a01b03166108fc829081150290604051600060405180830381858888f193505050501580156122fa573d6000803e3d6000fd5b5060408051828152905133917fa0f15d6e433e5a79b54bc760ff6406f0a5f45d6b6ce085ff9a7d0481f6d28158919081900360200190a250565b600c5460ff16156123b557604080516c494e564553544f525f524f4c4560981b8152905190819003600d01902061236b9033611a86565b6123b5576040805162461bcd60e51b815260206004820152601660248201527521b0b63632b91034b9903737ba1034b73b32b9ba37b960511b604482015290519081900360640190fd5b60025460ff166123fa576040805162461bcd60e51b815260206004820152601f6024820152600080516020613342833981519152604482015290519081900360640190fd5b6002805460ff19169055336000908152600d6020526040902054612458576040805162461bcd60e51b815260206004820152601060248201526f139bc815985d5b1d0818dc99585d195960821b604482015290519081900360640190fd5b600254610100900460ff16156124a8576040805162461bcd60e51b815260206004820152601060248201526f14185d5cd8589b194e881c185d5cd95960821b604482015290519081900360640190fd5b600654604080516323b872dd60e01b81523360048201523060248201526044810184905290516001600160a01b03909216916323b872dd916064808201926020929091908290030181600087803b15801561250257600080fd5b505af1158015612516573d6000803e3d6000fd5b505050506040513d602081101561252c57600080fd5b5050336000908152600d60209081526040808320548352600e9091529020600181015461255f908363ffffffff612b5e16565b6001820155805460408051848152905133917f31ac33c8e5d32723055870a2be01442545a84680341c886373c957110bc175dc919081900360200190a350506002805460ff19166001179055565b6125b5612b5a565b6000546001600160a01b03908116911614612605576040805162461bcd60e51b815260206004820181905260248201526000805160206133fc833981519152604482015290519081900360640190fd5b600580546001600160a01b0383166001600160a01b03199091168117909155604080519182525133917f5d19e13c5fcca5f56b1af0f7e4fb4a7a63031196b48f3a411cfbc4ea967ab3be919081900360200190a250565b6006546001600160a01b031681565b6000818152600160205260408120611a8090613017565b6000828152600160205260409020600201546126a090610e00612b5a565b61113c5760405162461bcd60e51b81526004018080602001828103825260308152602001806133ab6030913960400191505060405180910390fd5b6126e3612b5a565b6000546001600160a01b03908116911614612733576040805162461bcd60e51b815260206004820181905260248201526000805160206133fc833981519152604482015290519081900360640190fd5b604080516c494e564553544f525f524f4c4560981b8152905190819003600d0190206112c69082610de2565b612767612b5a565b6000546001600160a01b039081169116146127b7576040805162461bcd60e51b815260206004820181905260248201526000805160206133fc833981519152604482015290519081900360640190fd5b600680546001600160a01b0383166001600160a01b03199091168117909155604080519182525133917fc8740b8e1db0dd680a749baa2f7018dd94245006fc3d465c54b32c931144e7b7919081900360200190a250565b612816612b5a565b6000546001600160a01b03908116911614612866576040805162461bcd60e51b815260206004820181905260248201526000805160206133fc833981519152604482015290519081900360640190fd5b6001600160a01b0381166128ab5760405162461bcd60e51b81526004018080602001828103825260268152602001806133856026913960400191505060405180910390fd5b600080546040516001600160a01b03808516939216917f8be0079c531659141344cd1fd0a4f28419497f9722a3daafe3b4186f6b6457e091a3600080546001600160a01b0319166001600160a01b0392909216919091179055565b600d6020526000908152604090205481565b60006129226132bf565b506000828152600e60209081526040808320815160808101835281548152600182015493810193909352600281015491830191909152600301546001600160a01b03166060820152906129736111a8565b90506000600760009054906101000a90046001600160a01b03166001600160a01b03166396237c026040518163ffffffff1660e01b815260040160206040518083038186803b1580156129c557600080fd5b505afa1580156129d9573d6000803e3d6000fd5b505050506040513d60208110156129ef57600080fd5b50516020840151909150600090612a12908490610c41908563ffffffff612bb816565b90506000612a4960646121bf84612a3d6064610c416009548c60400151612bb890919063ffffffff16565b9063ffffffff612cc216565b90506000612a75612a666064600b54612b5e90919063ffffffff16565b6009549063ffffffff612cc216565b9050612a87828263ffffffff612c1116565b98975050505050505050565b600a5481565b600080600760009054906101000a90046001600160a01b03166001600160a01b03166396237c026040518163ffffffff1660e01b815260040160206040518083038186803b158015612aea57600080fd5b505afa158015612afe573d6000803e3d6000fd5b505050506040513d6020811015612b1457600080fd5b5051600a54909150612b35908290610c419060649082906121bf89816111a8565b9392505050565b80546001019055565b6000611a7d836001600160a01b038416613022565b3390565b600082820183811015611a7d576040805162461bcd60e51b815260206004820152601b60248201527f536166654d6174683a206164646974696f6e206f766572666c6f770000000000604482015290519081900360640190fd5b600082612bc757506000611a80565b82820282848281612bd457fe5b0414611a7d5760405162461bcd60e51b81526004018080602001828103825260218152602001806133db6021913960400191505060405180910390fd5b6000611a7d83836040518060400160405280601a81526020017f536166654d6174683a206469766973696f6e206279207a65726f00000000000081525061306c565b6000828152600160205260409020612c71908263ffffffff612b4516565b15610e4a57612c7e612b5a565b6001600160a01b0316816001600160a01b0316837f2f8788117e7eff1d82e926ec794901d17c78024a50270940304540a733656f0d60405160405180910390a45050565b6000611a7d83836040518060400160405280601e81526020017f536166654d6174683a207375627472616374696f6e206f766572666c6f77000081525061310e565b6000828152600160205260409020612d22908263ffffffff61316816565b15610e4a57612d2f612b5a565b6001600160a01b0316816001600160a01b0316837ff6391f5c32d9c69d2a47ea670b442974b53935d1edc7fd64eb21e047a839171b60405160405180910390a45050565b600254610100900460ff16612dc6576040805162461bcd60e51b815260206004820152601460248201527314185d5cd8589b194e881b9bdd081c185d5cd95960621b604482015290519081900360640190fd5b6002805461ff00191690557f5db9ee0a495bf2e6ff9c91a7834c1ba4fdd244a5e8aa4e537bd38aeae4b073aa612dfa612b5a565b604080516001600160a01b039092168252519081900360200190a1565b6000612e2282612a99565b9050348114610e4a576040805162461bcd60e51b815260206004820181905260248201527f4275726e2066656520646966666572656e74207468616e207265717569726564604482015290519081900360640190fd5b6000828152600e602052604090206002810154821115612edf576040805162461bcd60e51b815260206004820152601860248201527f416d6f756e742067726561746572207468616e20646562740000000000000000604482015290519081900360640190fd5b6002810154612ef4908363ffffffff612cc216565b60028201556004805460408051632770a7eb60e21b8152339381019390935260248301859052516001600160a01b0390911691639dc29fac91604480830192600092919082900301818387803b158015612f4d57600080fd5b505af1158015612f61573d6000803e3d6000fd5b50505050505050565b5490565b600254610100900460ff1615612fbe576040805162461bcd60e51b815260206004820152601060248201526f14185d5cd8589b194e881c185d5cd95960821b604482015290519081900360640190fd5b6002805461ff0019166101001790557f62e78cea01bee320cd4e420270b5ea74000d11b0c9f74754ebdbfc544b05a258612dfa612b5a565b6000611a7d838361317d565b6000611a7d836001600160a01b0384166131e1565b6000611a8082612f6a565b600061302e83836131e1565b61306457508154600181810184556000848152602080822090930184905584548482528286019093526040902091909155611a80565b506000611a80565b600081836130f85760405162461bcd60e51b81526004018080602001828103825283818151815260200191508051906020019080838360005b838110156130bd5781810151838201526020016130a5565b50505050905090810190601f1680156130ea5780820380516001836020036101000a031916815260200191505b509250505060405180910390fd5b50600083858161310457fe5b0495945050505050565b600081848411156131605760405162461bcd60e51b81526020600482018181528351602484015283519092839260449091019190850190808383600083156130bd5781810151838201526020016130a5565b505050900390565b6000611a7d836001600160a01b0384166131f9565b815460009082106131bf5760405162461bcd60e51b81526004018080602001828103825260228152602001806132f16022913960400191505060405180910390fd5b8260000182815481106131ce57fe5b9060005260206000200154905092915050565b60009081526001919091016020526040902054151590565b600081815260018301602052604081205480156132b5578354600019808301919081019060009087908390811061322c57fe5b906000526020600020015490508087600001848154811061324957fe5b60009182526020808320909101929092558281526001898101909252604090209084019055865487908061327957fe5b60019003818190600052602060002001600090559055866001016000878152602001908152602001600020600090556001945050505050611a80565b6000915050611a80565b604051806080016040528060008152602001600081526020016000815260200160006001600160a01b03168152509056fe456e756d657261626c655365743a20696e646578206f7574206f6620626f756e6473416363657373436f6e74726f6c3a2073656e646572206d75737420626520616e2061646d696e20746f206772616e745265656e7472616e637947756172643a207265656e7472616e742063616c6c00436f6c6c61746572616c2062656c6f77206d696e20726571756972656420726174696f4f776e61626c653a206e6577206f776e657220697320746865207a65726f2061646472657373416363657373436f6e74726f6c3a2073656e646572206d75737420626520616e2061646d696e20746f207265766f6b65536166654d6174683a206d756c7469706c69636174696f6e206f766572666c6f774f776e61626c653a2063616c6c6572206973206e6f7420746865206f776e65724c69717569646174696f6e20616d6f756e7420646966666572656e74207468616e2072657175697265645472616e73616374696f6e207265766572746564207769746820526574726965766520616d6f756e7420686967686572207468616e20636f6c6c61746572616c416363657373436f6e74726f6c3a2063616e206f6e6c792072656e6f756e636520726f6c657320666f722073656c66a2646970667358221220c929e919f30c5f7fdffcbe919ce452e3ce2d4758c9668b2a9e871b3d525f36a864736f6c63430006080033"
}