{
  "abi": [
    {
      "inputs": [
        {
          "internalType": "contract Orchestrator",
          "name": "orchestrator",
          "type": "address"
        },
        {
          "internalType": "uint256",
          "name": "_divisor",
          "type": "uint256"
        },
        {
          "internalType": "uint256",
          "name": "_ratio",
          "type": "uint256"
        },
        {
          "internalType": "uint256",
          "name": "_burnFee",
          "type": "uint256"
        },
        {
          "internalType": "uint256",
          "name": "_liquidationPenalty",
          "type": "uint256"
        },
        {
          "internalType": "address",
          "name": "_tcapOracle",
          "type": "address"
        },
        {
          "internalType": "contract TCAP",
          "name": "_tcapAddress",
          "type": "address"
        },
        {
          "internalType": "address",
          "name": "_collateralAddress",
          "type": "address"
        },
        {
          "internalType": "address",
          "name": "_collateralOracle",
          "type": "address"
        },
        {
          "internalType": "address",
          "name": "_ethOracle",
          "type": "address"
        }
      ],
      "stateMutability": "nonpayable",
      "type": "constructor"
    },
    {
      "anonymous": false,
      "inputs": [
        {
          "indexed": true,
          "internalType": "address",
          "name": "_owner",
          "type": "address"
        },
        {
          "indexed": true,
          "internalType": "uint256",
          "name": "_id",
          "type": "uint256"
        },
        {
          "indexed": false,
          "internalType": "uint256",
          "name": "_amount",
          "type": "uint256"
        }
      ],
      "name": "LogAddCollateral",
      "type": "event"
    },
    {
      "anonymous": false,
      "inputs": [
        {
          "indexed": true,
          "internalType": "address",
          "name": "_owner",
          "type": "address"
        },
        {
          "indexed": true,
          "internalType": "uint256",
          "name": "_id",
          "type": "uint256"
        },
        {
          "indexed": false,
          "internalType": "uint256",
          "name": "_amount",
          "type": "uint256"
        }
      ],
      "name": "LogBurn",
      "type": "event"
    },
    {
      "anonymous": false,
      "inputs": [
        {
          "indexed": true,
          "internalType": "address",
          "name": "_owner",
          "type": "address"
        },
        {
          "indexed": true,
          "internalType": "uint256",
          "name": "_id",
          "type": "uint256"
        }
      ],
      "name": "LogCreateVault",
      "type": "event"
    },
    {
      "anonymous": false,
      "inputs": [
        {
          "indexed": false,
          "internalType": "uint256",
          "name": "_divisor",
          "type": "uint256"
        },
        {
          "indexed": false,
          "internalType": "uint256",
          "name": "_ratio",
          "type": "uint256"
        },
        {
          "indexed": false,
          "internalType": "uint256",
          "name": "_burnFee",
          "type": "uint256"
        },
        {
          "indexed": false,
          "internalType": "uint256",
          "name": "_liquidationPenalty",
          "type": "uint256"
        },
        {
          "indexed": false,
          "internalType": "address",
          "name": "_tcapOracle",
          "type": "address"
        },
        {
          "indexed": false,
          "internalType": "contract TCAP",
          "name": "_tcapAddress",
          "type": "address"
        },
        {
          "indexed": false,
          "internalType": "address",
          "name": "_collateralAddress",
          "type": "address"
        },
        {
          "indexed": false,
          "internalType": "address",
          "name": "_collateralOracle",
          "type": "address"
        },
        {
          "indexed": false,
          "internalType": "address",
          "name": "_ethOracle",
          "type": "address"
        }
      ],
      "name": "LogInitializeVault",
      "type": "event"
    },
    {
      "anonymous": false,
      "inputs": [
        {
          "indexed": true,
          "internalType": "uint256",
          "name": "_vaultId",
          "type": "uint256"
        },
        {
          "indexed": true,
          "internalType": "address",
          "name": "_liquidator",
          "type": "address"
        },
        {
          "indexed": false,
          "internalType": "uint256",
          "name": "_liquidationCollateral",
          "type": "uint256"
        },
        {
          "indexed": false,
          "internalType": "uint256",
          "name": "_reward",
          "type": "uint256"
        }
      ],
      "name": "LogLiquidateVault",
      "type": "event"
    },
    {
      "anonymous": false,
      "inputs": [
        {
          "indexed": true,
          "internalType": "address",
          "name": "_owner",
          "type": "address"
        },
        {
          "indexed": true,
          "internalType": "uint256",
          "name": "_id",
          "type": "uint256"
        },
        {
          "indexed": false,
          "internalType": "uint256",
          "name": "_amount",
          "type": "uint256"
        }
      ],
      "name": "LogMint",
      "type": "event"
    },
    {
      "anonymous": false,
      "inputs": [
        {
          "indexed": true,
          "internalType": "address",
          "name": "_owner",
          "type": "address"
        },
        {
          "indexed": true,
          "internalType": "uint256",
          "name": "_id",
          "type": "uint256"
        },
        {
          "indexed": false,
          "internalType": "uint256",
          "name": "_amount",
          "type": "uint256"
        }
      ],
      "name": "LogRemoveCollateral",
      "type": "event"
    },
    {
      "anonymous": false,
      "inputs": [
        {
          "indexed": true,
          "internalType": "address",
          "name": "_owner",
          "type": "address"
        },
        {
          "indexed": false,
          "internalType": "uint256",
          "name": "_amount",
          "type": "uint256"
        }
      ],
      "name": "LogRetrieveFees",
      "type": "event"
    },
    {
      "anonymous": false,
      "inputs": [
        {
          "indexed": true,
          "internalType": "address",
          "name": "_owner",
          "type": "address"
        },
        {
          "indexed": false,
          "internalType": "uint256",
          "name": "_burnFee",
          "type": "uint256"
        }
      ],
      "name": "LogSetBurnFee",
      "type": "event"
    },
    {
      "anonymous": false,
      "inputs": [
        {
          "indexed": true,
          "internalType": "address",
          "name": "_owner",
          "type": "address"
        },
        {
          "indexed": false,
          "internalType": "uint256",
          "name": "_liquidationPenalty",
          "type": "uint256"
        }
      ],
      "name": "LogSetLiquidationPenalty",
      "type": "event"
    },
    {
      "anonymous": false,
      "inputs": [
        {
          "indexed": true,
          "internalType": "address",
          "name": "_owner",
          "type": "address"
        },
        {
          "indexed": false,
          "internalType": "uint256",
          "name": "_ratio",
          "type": "uint256"
        }
      ],
      "name": "LogSetRatio",
      "type": "event"
    },
    {
      "anonymous": false,
      "inputs": [
        {
          "indexed": true,
          "internalType": "address",
          "name": "previousOwner",
          "type": "address"
        },
        {
          "indexed": true,
          "internalType": "address",
          "name": "newOwner",
          "type": "address"
        }
      ],
      "name": "OwnershipTransferred",
      "type": "event"
    },
    {
      "anonymous": false,
      "inputs": [
        {
          "indexed": false,
          "internalType": "address",
          "name": "account",
          "type": "address"
        }
      ],
      "name": "Paused",
      "type": "event"
    },
    {
      "anonymous": false,
      "inputs": [
        {
          "indexed": true,
          "internalType": "bytes32",
          "name": "role",
          "type": "bytes32"
        },
        {
          "indexed": true,
          "internalType": "bytes32",
          "name": "previousAdminRole",
          "type": "bytes32"
        },
        {
          "indexed": true,
          "internalType": "bytes32",
          "name": "newAdminRole",
          "type": "bytes32"
        }
      ],
      "name": "RoleAdminChanged",
      "type": "event"
    },
    {
      "anonymous": false,
      "inputs": [
        {
          "indexed": true,
          "internalType": "bytes32",
          "name": "role",
          "type": "bytes32"
        },
        {
          "indexed": true,
          "internalType": "address",
          "name": "account",
          "type": "address"
        },
        {
          "indexed": true,
          "internalType": "address",
          "name": "sender",
          "type": "address"
        }
      ],
      "name": "RoleGranted",
      "type": "event"
    },
    {
      "anonymous": false,
      "inputs": [
        {
          "indexed": true,
          "internalType": "bytes32",
          "name": "role",
          "type": "bytes32"
        },
        {
          "indexed": true,
          "internalType": "address",
          "name": "account",
          "type": "address"
        },
        {
          "indexed": true,
          "internalType": "address",
          "name": "sender",
          "type": "address"
        }
      ],
      "name": "RoleRevoked",
      "type": "event"
    },
    {
      "anonymous": false,
      "inputs": [
        {
          "indexed": false,
          "internalType": "address",
          "name": "account",
          "type": "address"
        }
      ],
      "name": "Unpaused",
      "type": "event"
    },
    {
      "inputs": [],
      "name": "DEFAULT_ADMIN_ROLE",
      "outputs": [
        {
          "internalType": "bytes32",
          "name": "",
          "type": "bytes32"
        }
      ],
      "stateMutability": "view",
      "type": "function"
    },
    {
      "inputs": [],
      "name": "ETHPriceOracle",
      "outputs": [
        {
          "internalType": "contract ChainlinkOracle",
          "name": "",
          "type": "address"
        }
      ],
      "stateMutability": "view",
      "type": "function"
    },
    {
      "inputs": [],
      "name": "TCAPPrice",
      "outputs": [
        {
          "internalType": "uint256",
          "name": "price",
          "type": "uint256"
        }
      ],
      "stateMutability": "view",
      "type": "function"
    },
    {
      "inputs": [],
      "name": "TCAPToken",
      "outputs": [
        {
          "internalType": "contract TCAP",
          "name": "",
          "type": "address"
        }
      ],
      "stateMutability": "view",
      "type": "function"
    },
    {
      "inputs": [
        {
          "internalType": "uint256",
          "name": "_amount",
          "type": "uint256"
        }
      ],
      "name": "addCollateral",
      "outputs": [],
      "stateMutability": "nonpayable",
      "type": "function"
    },
    {
      "inputs": [
        {
          "internalType": "uint256",
          "name": "_amount",
          "type": "uint256"
        }
      ],
      "name": "burn",
      "outputs": [],
      "stateMutability": "payable",
      "type": "function"
    },
    {
      "inputs": [],
      "name": "burnFee",
      "outputs": [
        {
          "internalType": "uint256",
          "name": "",
          "type": "uint256"
        }
      ],
      "stateMutability": "view",
      "type": "function"
    },
    {
      "inputs": [],
      "name": "collateralContract",
      "outputs": [
        {
          "internalType": "contract IERC20",
          "name": "",
          "type": "address"
        }
      ],
      "stateMutability": "view",
      "type": "function"
    },
    {
      "inputs": [],
      "name": "collateralPriceOracle",
      "outputs": [
        {
          "internalType": "contract ChainlinkOracle",
          "name": "",
          "type": "address"
        }
      ],
      "stateMutability": "view",
      "type": "function"
    },
    {
      "inputs": [],
      "name": "counter",
      "outputs": [
        {
          "internalType": "uint256",
          "name": "_value",
          "type": "uint256"
        }
      ],
      "stateMutability": "view",
      "type": "function"
    },
    {
      "inputs": [],
      "name": "createVault",
      "outputs": [],
      "stateMutability": "nonpayable",
      "type": "function"
    },
    {
      "inputs": [],
      "name": "divisor",
      "outputs": [
        {
          "internalType": "uint256",
          "name": "",
          "type": "uint256"
        }
      ],
      "stateMutability": "view",
      "type": "function"
    },
    {
      "inputs": [
        {
          "internalType": "uint256",
          "name": "_amount",
          "type": "uint256"
        }
      ],
      "name": "getFee",
      "outputs": [
        {
          "internalType": "uint256",
          "name": "fee",
          "type": "uint256"
        }
      ],
      "stateMutability": "view",
      "type": "function"
    },
    {
      "inputs": [
        {
          "internalType": "contract ChainlinkOracle",
          "name": "_oracle",
          "type": "address"
        }
      ],
      "name": "getOraclePrice",
      "outputs": [
        {
          "internalType": "uint256",
          "name": "price",
          "type": "uint256"
        }
      ],
      "stateMutability": "view",
      "type": "function"
    },
    {
      "inputs": [
        {
          "internalType": "bytes32",
          "name": "role",
          "type": "bytes32"
        }
      ],
      "name": "getRoleAdmin",
      "outputs": [
        {
          "internalType": "bytes32",
          "name": "",
          "type": "bytes32"
        }
      ],
      "stateMutability": "view",
      "type": "function"
    },
    {
      "inputs": [
        {
          "internalType": "bytes32",
          "name": "role",
          "type": "bytes32"
        },
        {
          "internalType": "uint256",
          "name": "index",
          "type": "uint256"
        }
      ],
      "name": "getRoleMember",
      "outputs": [
        {
          "internalType": "address",
          "name": "",
          "type": "address"
        }
      ],
      "stateMutability": "view",
      "type": "function"
    },
    {
      "inputs": [
        {
          "internalType": "bytes32",
          "name": "role",
          "type": "bytes32"
        }
      ],
      "name": "getRoleMemberCount",
      "outputs": [
        {
          "internalType": "uint256",
          "name": "",
          "type": "uint256"
        }
      ],
      "stateMutability": "view",
      "type": "function"
    },
    {
      "inputs": [
        {
          "internalType": "uint256",
          "name": "_id",
          "type": "uint256"
        }
      ],
      "name": "getVault",
      "outputs": [
        {
          "internalType": "uint256",
          "name": "",
          "type": "uint256"
        },
        {
          "internalType": "uint256",
          "name": "",
          "type": "uint256"
        },
        {
          "internalType": "address",
          "name": "",
          "type": "address"
        },
        {
          "internalType": "uint256",
          "name": "",
          "type": "uint256"
        }
      ],
      "stateMutability": "view",
      "type": "function"
    },
    {
      "inputs": [
        {
          "internalType": "uint256",
          "name": "_vaultId",
          "type": "uint256"
        }
      ],
      "name": "getVaultRatio",
      "outputs": [
        {
          "internalType": "uint256",
          "name": "currentRatio",
          "type": "uint256"
        }
      ],
      "stateMutability": "view",
      "type": "function"
    },
    {
      "inputs": [
        {
          "internalType": "bytes32",
          "name": "role",
          "type": "bytes32"
        },
        {
          "internalType": "address",
          "name": "account",
          "type": "address"
        }
      ],
      "name": "grantRole",
      "outputs": [],
      "stateMutability": "nonpayable",
      "type": "function"
    },
    {
      "inputs": [
        {
          "internalType": "bytes32",
          "name": "role",
          "type": "bytes32"
        },
        {
          "internalType": "address",
          "name": "account",
          "type": "address"
        }
      ],
      "name": "hasRole",
      "outputs": [
        {
          "internalType": "bool",
          "name": "",
          "type": "bool"
        }
      ],
      "stateMutability": "view",
      "type": "function"
    },
    {
      "inputs": [
        {
          "internalType": "uint256",
          "name": "_vaultId",
          "type": "uint256"
        },
        {
          "internalType": "uint256",
          "name": "_requiredTCAP",
          "type": "uint256"
        }
      ],
      "name": "liquidateVault",
      "outputs": [],
      "stateMutability": "payable",
      "type": "function"
    },
    {
      "inputs": [],
      "name": "liquidationPenalty",
      "outputs": [
        {
          "internalType": "uint256",
          "name": "",
          "type": "uint256"
        }
      ],
      "stateMutability": "view",
      "type": "function"
    },
    {
      "inputs": [
        {
          "internalType": "uint256",
          "name": "_vaultId",
          "type": "uint256"
        }
      ],
      "name": "liquidationReward",
      "outputs": [
        {
          "internalType": "uint256",
          "name": "rewardCollateral",
          "type": "uint256"
        }
      ],
      "stateMutability": "view",
      "type": "function"
    },
    {
      "inputs": [
        {
          "internalType": "uint256",
          "name": "_amount",
          "type": "uint256"
        }
      ],
      "name": "mint",
      "outputs": [],
      "stateMutability": "nonpayable",
      "type": "function"
    },
    {
      "inputs": [],
      "name": "oracleDigits",
      "outputs": [
        {
          "internalType": "uint256",
          "name": "",
          "type": "uint256"
        }
      ],
      "stateMutability": "view",
      "type": "function"
    },
    {
      "inputs": [],
      "name": "owner",
      "outputs": [
        {
          "internalType": "address",
          "name": "",
          "type": "address"
        }
      ],
      "stateMutability": "view",
      "type": "function"
    },
    {
      "inputs": [],
      "name": "pause",
      "outputs": [],
      "stateMutability": "nonpayable",
      "type": "function"
    },
    {
      "inputs": [],
      "name": "paused",
      "outputs": [
        {
          "internalType": "bool",
          "name": "",
          "type": "bool"
        }
      ],
      "stateMutability": "view",
      "type": "function"
    },
    {
      "inputs": [],
      "name": "ratio",
      "outputs": [
        {
          "internalType": "uint256",
          "name": "",
          "type": "uint256"
        }
      ],
      "stateMutability": "view",
      "type": "function"
    },
    {
      "inputs": [
        {
          "internalType": "uint256",
          "name": "_amount",
          "type": "uint256"
        }
      ],
      "name": "removeCollateral",
      "outputs": [],
      "stateMutability": "nonpayable",
      "type": "function"
    },
    {
      "inputs": [],
      "name": "renounceOwnership",
      "outputs": [],
      "stateMutability": "nonpayable",
      "type": "function"
    },
    {
      "inputs": [
        {
          "internalType": "bytes32",
          "name": "role",
          "type": "bytes32"
        },
        {
          "internalType": "address",
          "name": "account",
          "type": "address"
        }
      ],
      "name": "renounceRole",
      "outputs": [],
      "stateMutability": "nonpayable",
      "type": "function"
    },
    {
      "inputs": [
        {
          "internalType": "uint256",
          "name": "_amount",
          "type": "uint256"
        }
      ],
      "name": "requiredCollateral",
      "outputs": [
        {
          "internalType": "uint256",
          "name": "collateral",
          "type": "uint256"
        }
      ],
      "stateMutability": "view",
      "type": "function"
    },
    {
      "inputs": [
        {
          "internalType": "uint256",
          "name": "_vaultId",
          "type": "uint256"
        }
      ],
      "name": "requiredLiquidationTCAP",
      "outputs": [
        {
          "internalType": "uint256",
          "name": "amount",
          "type": "uint256"
        }
      ],
      "stateMutability": "view",
      "type": "function"
    },
    {
      "inputs": [],
      "name": "retrieveFees",
      "outputs": [],
      "stateMutability": "nonpayable",
      "type": "function"
    },
    {
      "inputs": [
        {
          "internalType": "bytes32",
          "name": "role",
          "type": "bytes32"
        },
        {
          "internalType": "address",
          "name": "account",
          "type": "address"
        }
      ],
      "name": "revokeRole",
      "outputs": [],
      "stateMutability": "nonpayable",
      "type": "function"
    },
    {
      "inputs": [
        {
          "internalType": "uint256",
          "name": "_burnFee",
          "type": "uint256"
        }
      ],
      "name": "setBurnFee",
      "outputs": [],
      "stateMutability": "nonpayable",
      "type": "function"
    },
    {
      "inputs": [
        {
          "internalType": "uint256",
          "name": "_liquidationPenalty",
          "type": "uint256"
        }
      ],
      "name": "setLiquidationPenalty",
      "outputs": [],
      "stateMutability": "nonpayable",
      "type": "function"
    },
    {
      "inputs": [
        {
          "internalType": "uint256",
          "name": "_ratio",
          "type": "uint256"
        }
      ],
      "name": "setRatio",
      "outputs": [],
      "stateMutability": "nonpayable",
      "type": "function"
    },
    {
      "inputs": [
        {
          "internalType": "bytes4",
          "name": "interfaceId",
          "type": "bytes4"
        }
      ],
      "name": "supportsInterface",
      "outputs": [
        {
          "internalType": "bool",
          "name": "",
          "type": "bool"
        }
      ],
      "stateMutability": "view",
      "type": "function"
    },
    {
      "inputs": [],
      "name": "tcapOracle",
      "outputs": [
        {
          "internalType": "contract ChainlinkOracle",
          "name": "",
          "type": "address"
        }
      ],
      "stateMutability": "view",
      "type": "function"
    },
    {
      "inputs": [
        {
          "internalType": "address",
          "name": "newOwner",
          "type": "address"
        }
      ],
      "name": "transferOwnership",
      "outputs": [],
      "stateMutability": "nonpayable",
      "type": "function"
    },
    {
      "inputs": [],
      "name": "unpause",
      "outputs": [],
      "stateMutability": "nonpayable",
      "type": "function"
    },
    {
      "inputs": [
        {
          "internalType": "address",
          "name": "",
          "type": "address"
        }
      ],
      "name": "userToVault",
      "outputs": [
        {
          "internalType": "uint256",
          "name": "",
          "type": "uint256"
        }
      ],
      "stateMutability": "view",
      "type": "function"
    },
    {
      "inputs": [
        {
          "internalType": "uint256",
          "name": "",
          "type": "uint256"
        }
      ],
      "name": "vaults",
      "outputs": [
        {
          "internalType": "uint256",
          "name": "Id",
          "type": "uint256"
        },
        {
          "internalType": "uint256",
          "name": "Collateral",
          "type": "uint256"
        },
        {
          "internalType": "uint256",
          "name": "Debt",
          "type": "uint256"
        },
        {
          "internalType": "address",
          "name": "Owner",
          "type": "address"
        }
      ],
      "stateMutability": "view",
      "type": "function"
    }
  ],
  "address": "0x424E03b813002601CE68C2D7D7B9e56AC764705C",
  "args": [
    "0x5F671E22bb8EFf4C37b1acDe466c544bd87BaD56",
    "10000000000",
    "150",
    "1",
    "10",
    "0x13E0F3B309a5d6Fe866c4e186AB21f2F7d45c406",
    "0x745a6ACD7cBFDa166Da510Bcdaa9B9B21f06a3C2",
    "0x8ad7af3ACec2455f7CC842a1D725c3e51896C13f",
    "0xEbC58A9572B19b66138D1473175583eaccE97950",
    "0x112fd028a09E0037e021A855c46b1174346ABd07"
  ],
  "solcInputHash": "0x5af4e17fd7e3b91982c60391762bd52010b7b6e71c517c22d06f7ce359fa40ae",
  "bytecode": "0x60806040523480156200001157600080fd5b50604051620035193803806200351983398181016040526101408110156200003857600080fd5b508051602082015160408301516060840151608085015160a086015160c087015160e088015161010089015161012090990151979896979596949593949293919290918989898989898989898960006200009a6001600160e01b036200020016565b600080546001600160a01b0319166001600160a01b038316908117825560405192935091600080516020620034f9833981519152908290a35060016002556003805460ff1916905587620000fc87606462000204602090811b6200233a17901c565b106200013a5760405162461bcd60e51b81526004018080602001828103825260368152602001806200349d6036913960400191505060405180910390fd5b600a899055600b889055600c879055600d869055600680546001600160a01b03199081166001600160a01b038881169190911790925560078054821686841617905560088054821685841617905560098054821684841617905560058054909116918616919091179055620001bc600462000268602090811b6200239417901c565b620001d26000336001600160e01b036200027116565b620001e68a6001600160e01b036200028a16565b5050505050505050505050505050505050505050620004a5565b3390565b6000828201838110156200025f576040805162461bcd60e51b815260206004820152601b60248201527f536166654d6174683a206164646974696f6e206f766572666c6f770000000000604482015290519081900360640190fd5b90505b92915050565b80546001019055565b6200028682826001600160e01b036200039116565b5050565b6200029d6001600160e01b036200020016565b6000546001600160a01b0390811691161462000300576040805162461bcd60e51b815260206004820181905260248201527f4f776e61626c653a2063616c6c6572206973206e6f7420746865206f776e6572604482015290519081900360640190fd5b6001600160a01b038116620003475760405162461bcd60e51b8152600401808060200182810382526026815260200180620034d36026913960400191505060405180910390fd5b600080546040516001600160a01b0380851693921691600080516020620034f983398151915291a3600080546001600160a01b0319166001600160a01b0392909216919091179055565b6000828152600160209081526040909120620003b89183906200239d62000415821b17901c565b156200028657620003d16001600160e01b036200020016565b6001600160a01b0316816001600160a01b0316837f2f8788117e7eff1d82e926ec794901d17c78024a50270940304540a733656f0d60405160405180910390a45050565b60006200025f836001600160a01b0384166001600160e01b036200043516565b60006200044c83836001600160e01b036200048d16565b620004845750815460018181018455600084815260208082209093018490558454848252828601909352604090209190915562000262565b50600062000262565b60009081526001919091016020526040902054151590565b612fe880620004b56000396000f3fe60806040526004361061027d5760003560e01c80638456cb591161014f578063abb7bc4a116100c1578063ca15c8731161007a578063ca15c8731461085f578063d547741f14610889578063de9952c9146108c2578063f2fde38b146108ec578063fce589d81461091f578063fcee45f4146109345761027d565b8063abb7bc4a14610784578063b2237ba3146107ae578063bae8cae5146107d8578063bc721a96146107ed578063bcc46e8314610820578063c6e1c7c91461084a5761027d565b806391d148541161011357806391d148541461067c5780639403b634146106b5578063952cc86a1461070d57806397994e3014610730578063a0712d6814610745578063a217fddf1461076f5761027d565b80638456cb591461059f5780638c01f211146105b45780638c64ea4a146105de5780638da5cb5b146106375780639010d07c1461064c5761027d565b806342966c68116101f35780636ae7adc1116101ac5780636ae7adc1146105035780636ca2143c14610518578063715018a61461052d57806371ca337d1461054257806375f620ac14610557578063842e357c1461058a5761027d565b806342966c681461046857806346dc9007146104855780634bf2c7c91461049a5780635c975abb146104c45780635d12928b146104d957806361bc221a146104ee5761027d565b8063248a9ca311610245578063248a9ca3146103615780632806a7431461038b5780632f2ff15d146103b75780633237c158146103f057806336568abe1461041a5780633f4ba83a146104535761027d565b806301ffc9a71461028257806311d850e8146102ca5780631cc244ba146103065780631f2dc5ef1461033757806323f5589a1461034c575b600080fd5b34801561028e57600080fd5b506102b6600480360360208110156102a557600080fd5b50356001600160e01b03191661095e565b604080519115158252519081900360200190f35b3480156102d657600080fd5b506102f4600480360360208110156102ed57600080fd5b5035610995565b60408051918252519081900360200190f35b34801561031257600080fd5b5061031b610a23565b604080516001600160a01b039092168252519081900360200190f35b34801561034357600080fd5b506102f4610a32565b34801561035857600080fd5b506102f4610a38565b34801561036d57600080fd5b506102f46004803603602081101561038457600080fd5b5035610a3e565b34801561039757600080fd5b506103b5600480360360208110156103ae57600080fd5b5035610a53565b005b3480156103c357600080fd5b506103b5600480360360408110156103da57600080fd5b50803590602001356001600160a01b0316610b39565b3480156103fc57600080fd5b506103b56004803603602081101561041357600080fd5b5035610ba5565b34801561042657600080fd5b506103b56004803603604081101561043d57600080fd5b50803590602001356001600160a01b0316610e99565b34801561045f57600080fd5b506103b5610efa565b6103b56004803603602081101561047e57600080fd5b5035610f5c565b34801561049157600080fd5b506102f461112d565b3480156104a657600080fd5b506103b5600480360360208110156104bd57600080fd5b5035611164565b3480156104d057600080fd5b506102b66111fa565b3480156104e557600080fd5b506103b5611203565b3480156104fa57600080fd5b506102f4611366565b34801561050f57600080fd5b506102f461136c565b34801561052457600080fd5b5061031b611375565b34801561053957600080fd5b506103b5611384565b34801561054e57600080fd5b506102f4611426565b34801561056357600080fd5b506102f46004803603602081101561057a57600080fd5b50356001600160a01b031661142c565b34801561059657600080fd5b5061031b6114b0565b3480156105ab57600080fd5b506103b56114bf565b3480156105c057600080fd5b506102f4600480360360208110156105d757600080fd5b503561151f565b3480156105ea57600080fd5b506106086004803603602081101561060157600080fd5b50356115f9565b604080519485526020850193909352838301919091526001600160a01b03166060830152519081900360800190f35b34801561064357600080fd5b5061031b611629565b34801561065857600080fd5b5061031b6004803603604081101561066f57600080fd5b5080359060200135611638565b34801561068857600080fd5b506102b66004803603604081101561069f57600080fd5b50803590602001356001600160a01b031661165d565b3480156106c157600080fd5b506106df600480360360208110156106d857600080fd5b503561167b565b6040805194855260208501939093526001600160a01b03909116838301526060830152519081900360800190f35b6103b56004803603604081101561072357600080fd5b50803590602001356116e2565b34801561073c57600080fd5b5061031b6119a6565b34801561075157600080fd5b506103b56004803603602081101561076857600080fd5b50356119b5565b34801561077b57600080fd5b506102f4611c51565b34801561079057600080fd5b506102f4600480360360208110156107a757600080fd5b5035611c56565b3480156107ba57600080fd5b506103b5600480360360208110156107d157600080fd5b5035611ca0565b3480156107e457600080fd5b506103b5611d36565b3480156107f957600080fd5b506102f46004803603602081101561081057600080fd5b50356001600160a01b0316611e09565b34801561082c57600080fd5b506103b56004803603602081101561084357600080fd5b5035611e1b565b34801561085657600080fd5b5061031b612070565b34801561086b57600080fd5b506102f46004803603602081101561088257600080fd5b503561207f565b34801561089557600080fd5b506103b5600480360360408110156108ac57600080fd5b50803590602001356001600160a01b0316612096565b3480156108ce57600080fd5b506102f4600480360360208110156108e557600080fd5b50356120ef565b3480156108f857600080fd5b506103b56004803603602081101561090f57600080fd5b50356001600160a01b0316612205565b34801561092b57600080fd5b506102f46122fd565b34801561094057600080fd5b506102f46004803603602081101561095757600080fd5b5035612303565b60006001600160e01b0319821663279d6ac360e21b148061098f57506001600160e01b031982166301ffc9a760e01b145b92915050565b6000806109a1836120ef565b905060006109ad61112d565b6008549091506000906109c8906001600160a01b031661142c565b90506000610a0360646109f76109ea6064600d5461233a90919063ffffffff16565b879063ffffffff6123b216565b9063ffffffff61240b16565b9050610a19826109f7838663ffffffff6123b216565b9695505050505050565b6006546001600160a01b031681565b600a5481565b600d5481565b60009081526001602052604090206002015490565b610a5b61244d565b6000546001600160a01b03908116911614610aab576040805162461bcd60e51b81526020600482018190526024820152600080516020612e65833981519152604482015290519081900360640190fd5b600b54610abf82606463ffffffff61233a16565b10610afb5760405162461bcd60e51b8152600401808060200182810382526041815260200180612d8c6041913960600191505060405180910390fd5b600d81905560408051828152905133917f6fdf5e426cb97389332e6d1c998d5123734bd7f204aa29b4a8284734c7aaa0ae919081900360200190a250565b600082815260016020526040902060020154610b5c90610b5761244d565b61165d565b610b975760405162461bcd60e51b815260040180806020018281038252602f815260200180612b9d602f913960400191505060405180910390fd5b610ba18282612451565b5050565b600280541415610bea576040805162461bcd60e51b815260206004820152601f6024820152600080516020612bcc833981519152604482015290519081900360640190fd5b60028055336000908152600e6020526040902054610c395760405162461bcd60e51b815260040180806020018281038252602b815260200180612bec602b913960400191505060405180910390fd5b60035460ff1615610c84576040805162461bcd60e51b815260206004820152601060248201526f14185d5cd8589b194e881c185d5cd95960821b604482015290519081900360640190fd5b8080610cc15760405162461bcd60e51b8152600401808060200182810382526027815260200180612f2f6027913960400191505060405180910390fd5b336000908152600e60209081526040808320548352600f90915281208054909190610ceb9061151f565b90508382600101541015610d305760405162461bcd60e51b8152600401808060200182810382526046815260200180612d466046913960600191505060405180910390fd5b6001820154610d45908563ffffffff6124c016565b60018301558015610d9b57600b548254610d5e9061151f565b1015610d9b5760405162461bcd60e51b8152600401808060200182810382526043815260200180612dcd6043913960600191505060405180910390fd5b6007546040805163a9059cbb60e01b81523360048201526024810187905290516001600160a01b039092169163a9059cbb916044808201926020929091908290030181600087803b158015610def57600080fd5b505af1158015610e03573d6000803e3d6000fd5b505050506040513d6020811015610e1957600080fd5b5051610e565760405162461bcd60e51b815260040180806020018281038252603e815260200180612ebc603e913960400191505060405180910390fd5b815460408051868152905133917f9b849e292191860667c493bd0657a5c71fd2350e4645303bddfc435da85c7c20919081900360200190a3505060016002555050565b610ea161244d565b6001600160a01b0316816001600160a01b031614610ef05760405162461bcd60e51b815260040180806020018281038252602f815260200180612f84602f913960400191505060405180910390fd5b610ba18282612502565b610f0261244d565b6000546001600160a01b03908116911614610f52576040805162461bcd60e51b81526020600482018190526024820152600080516020612e65833981519152604482015290519081900360640190fd5b610f5a612571565b565b600280541415610fa1576040805162461bcd60e51b815260206004820152601f6024820152600080516020612bcc833981519152604482015290519081900360640190fd5b60028055336000908152600e6020526040902054610ff05760405162461bcd60e51b815260040180806020018281038252602b815260200180612bec602b913960400191505060405180910390fd5b60035460ff161561103b576040805162461bcd60e51b815260206004820152601060248201526f14185d5cd8589b194e881c185d5cd95960821b604482015290519081900360640190fd5b80806110785760405162461bcd60e51b8152600401808060200182810382526027815260200180612f2f6027913960400191505060405180910390fd5b611080612ade565b50336000908152600e60209081526040808320548352600f8252918290208251608081018452815481526001820154928101929092526002810154928201929092526003909101546001600160a01b031660608201526110df8361260f565b80516110eb908461265a565b805160408051858152905133917f21cb60dab84f5815c7c4197b8935326f424383c894633344b495319ada0658aa919081900360200190a35050600160025550565b6006546000908190611147906001600160a01b031661142c565b905061115e600a548261240b90919063ffffffff16565b91505090565b61116c61244d565b6000546001600160a01b039081169116146111bc576040805162461bcd60e51b81526020600482018190526024820152600080516020612e65833981519152604482015290519081900360640190fd5b600c81905560408051828152905133917f8cee12d433ab3655cf1b6189969ae35611c638f002d75202b4c8f260746ef20f919081900360200190a250565b60035460ff1690565b60035460ff161561124e576040805162461bcd60e51b815260206004820152601060248201526f14185d5cd8589b194e881c185d5cd95960821b604482015290519081900360640190fd5b336000908152600e60205260409020541561129a5760405162461bcd60e51b8152600401808060200182810382526030815260200180612b106030913960400191505060405180910390fd5b60006112a66004612735565b336000908152600e6020526040902081905590506112c2612ade565b5060408051608081018252828152600060208083018281528385018381523360608601908152878552600f909352949092208351815591516001830155925160028201559151600390920180546001600160a01b0319166001600160a01b03909316929092179091556113356004612394565b604051829033907f2fc6c3ac0740e97bb7c9a7b06221dafe87b5286c5076d86c8cb78bf1de9bd40a90600090a35050565b60045481565b6402540be40081565b6005546001600160a01b031681565b61138c61244d565b6000546001600160a01b039081169116146113dc576040805162461bcd60e51b81526020600482018190526024820152600080516020612e65833981519152604482015290519081900360640190fd5b600080546040516001600160a01b03909116907f8be0079c531659141344cd1fd0a4f28419497f9722a3daafe3b4186f6b6457e0908390a3600080546001600160a01b0319169055565b600b5481565b600061098f6402540be4006114a4846001600160a01b03166396237c026040518163ffffffff1660e01b815260040160206040518083038186803b15801561147357600080fd5b505afa158015611487573d6000803e3d6000fd5b505050506040513d602081101561149d57600080fd5b5051612739565b9063ffffffff6123b216565b6008546001600160a01b031681565b6114c761244d565b6000546001600160a01b03908116911614611517576040805162461bcd60e51b81526020600482018190526024820152600080516020612e65833981519152604482015290519081900360640190fd5b610f5a612794565b6000611529612ade565b506000828152600f602090815260409182902082516080810184528154808252600183015493820193909352600282015493810193909352600301546001600160a01b03166060830152158061158157506040810151155b1561158f57600091506115f3565b6008546000906115a7906001600160a01b031661142c565b90506115ef6115c86115b761112d565b60408501519063ffffffff6123b216565b60208401516109f7906115e290606463ffffffff6123b216565b849063ffffffff6123b216565b9250505b50919050565b600f602052600090815260409020805460018201546002830154600390930154919290916001600160a01b031684565b6000546001600160a01b031690565b6000828152600160205260408120611656908363ffffffff61281516565b9392505050565b6000828152600160205260408120611656908363ffffffff61282116565b600080600080611689612ade565b50505060009283525050600f602090815260409182902082516080810184528154808252600183015493820184905260028301549482018590526003909201546001600160a01b03166060909101819052909391929091565b600280541415611727576040805162461bcd60e51b815260206004820152601f6024820152600080516020612bcc833981519152604482015290519081900360640190fd5b6002805560035460ff1615611776576040805162461bcd60e51b815260206004820152601060248201526f14185d5cd8589b194e881c185d5cd95960821b604482015290519081900360640190fd5b6000828152600f6020526040902080546117c15760405162461bcd60e51b815260040180806020018281038252602e815260200180612f56602e913960400191505060405180910390fd5b60006117d0826000015461151f565b9050600b5481106118125760405162461bcd60e51b8152600401808060200182810382526035815260200180612efa6035913960400191505060405180910390fd5b600061182183600001546120ef565b90508084146118615760405162461bcd60e51b8152600401808060200182810382526048815260200180612c666048913960600191505060405180910390fd5b60006118708460000154610995565b905061187b8561260f565b8354611887908661265a565b600184015461189c908263ffffffff6124c016565b60018501556007546040805163a9059cbb60e01b81523360048201526024810184905290516001600160a01b039092169163a9059cbb916044808201926020929091908290030181600087803b1580156118f557600080fd5b505af1158015611909573d6000803e3d6000fd5b505050506040513d602081101561191f57600080fd5b505161195c5760405162461bcd60e51b815260040180806020018281038252603c815260200180612cae603c913960400191505060405180910390fd5b8354604080518481526020810184905281513393927fc07e3ac2fb130a0f07f1bdea4de0051bd1d99076a5a19c5d04e4a88cd73cdd5b928290030190a35050600160025550505050565b6009546001600160a01b031681565b6002805414156119fa576040805162461bcd60e51b815260206004820152601f6024820152600080516020612bcc833981519152604482015290519081900360640190fd5b60028055336000908152600e6020526040902054611a495760405162461bcd60e51b815260040180806020018281038252602b815260200180612bec602b913960400191505060405180910390fd5b60035460ff1615611a94576040805162461bcd60e51b815260206004820152601060248201526f14185d5cd8589b194e881c185d5cd95960821b604482015290519081900360640190fd5b8080611ad15760405162461bcd60e51b8152600401808060200182810382526027815260200180612f2f6027913960400191505060405180910390fd5b336000908152600e60209081526040808320548352600f909152812090611af784611c56565b90508082600101541015611b3c5760405162461bcd60e51b8152600401808060200182810382526029815260200180612c3d6029913960400191505060405180910390fd5b6002820154611b51908563ffffffff61233a16565b6002830155600b548254611b649061151f565b1015611ba15760405162461bcd60e51b8152600401808060200182810382526037815260200180612e856037913960400191505060405180910390fd5b600554604080516340c10f1960e01b81523360048201526024810187905290516001600160a01b03909216916340c10f199160448082019260009290919082900301818387803b158015611bf457600080fd5b505af1158015611c08573d6000803e3d6000fd5b505083546040805188815290519193503392507fa82a7ea15c804d00dba1b969024b510969fde70fac8e0d5da860cf1f7376d317919081900360200190a3505060016002555050565b600081565b600080611c6161112d565b600854909150600090611c7c906001600160a01b031661142c565b90506115ef816109f760646109f7600b546114a48a896123b290919063ffffffff16565b611ca861244d565b6000546001600160a01b03908116911614611cf8576040805162461bcd60e51b81526020600482018190526024820152600080516020612e65833981519152604482015290519081900360640190fd5b600b81905560408051828152905133917f745333eadc1991720ed6c94ad80c7b81898a7d7ca230f4107bc38eecd95e9e45919081900360200190a250565b611d3e61244d565b6000546001600160a01b03908116911614611d8e576040805162461bcd60e51b81526020600482018190526024820152600080516020612e65833981519152604482015290519081900360640190fd5b47611d97611629565b6001600160a01b03166108fc829081150290604051600060405180830381858888f19350505050158015611dcf573d6000803e3d6000fd5b5060408051828152905133917fa0f15d6e433e5a79b54bc760ff6406f0a5f45d6b6ce085ff9a7d0481f6d28158919081900360200190a250565b600e6020526000908152604090205481565b600280541415611e60576040805162461bcd60e51b815260206004820152601f6024820152600080516020612bcc833981519152604482015290519081900360640190fd5b60028055336000908152600e6020526040902054611eaf5760405162461bcd60e51b815260040180806020018281038252602b815260200180612bec602b913960400191505060405180910390fd5b60035460ff1615611efa576040805162461bcd60e51b815260206004820152601060248201526f14185d5cd8589b194e881c185d5cd95960821b604482015290519081900360640190fd5b8080611f375760405162461bcd60e51b8152600401808060200182810382526027815260200180612f2f6027913960400191505060405180910390fd5b600754604080516323b872dd60e01b81523360048201523060248201526044810185905290516001600160a01b03909216916323b872dd916064808201926020929091908290030181600087803b158015611f9157600080fd5b505af1158015611fa5573d6000803e3d6000fd5b505050506040513d6020811015611fbb57600080fd5b5051611ff85760405162461bcd60e51b815260040180806020018281038252603b815260200180612b62603b913960400191505060405180910390fd5b336000908152600e60209081526040808320548352600f90915290206001810154612029908463ffffffff61233a16565b6001820155805460408051858152905133917f31ac33c8e5d32723055870a2be01442545a84680341c886373c957110bc175dc919081900360200190a35050600160025550565b6007546001600160a01b031681565b600081815260016020526040812061098f90612836565b6000828152600160205260409020600201546120b490610b5761244d565b610ef05760405162461bcd60e51b8152600401808060200182810382526030815260200180612cea6030913960400191505060405180910390fd5b60006120f9612ade565b506000828152600f60209081526040808320815160808101835281548152600182015493810193909352600281015491830191909152600301546001600160a01b031660608201529061214a61112d565b600854909150600090612165906001600160a01b031661142c565b90506000612184836109f78487602001516123b290919063ffffffff16565b905060006121bb60646114a4846121af60646109f7600b548c604001516123b290919063ffffffff16565b9063ffffffff6124c016565b905060006121e76121d86064600d5461233a90919063ffffffff16565b600b549063ffffffff6124c016565b90506121f9828263ffffffff61240b16565b98975050505050505050565b61220d61244d565b6000546001600160a01b0390811691161461225d576040805162461bcd60e51b81526020600482018190526024820152600080516020612e65833981519152604482015290519081900360640190fd5b6001600160a01b0381166122a25760405162461bcd60e51b8152600401808060200182810382526026815260200180612c176026913960400191505060405180910390fd5b600080546040516001600160a01b03808516939216917f8be0079c531659141344cd1fd0a4f28419497f9722a3daafe3b4186f6b6457e091a3600080546001600160a01b0319166001600160a01b0392909216919091179055565b600c5481565b600954600090819061231d906001600160a01b031661142c565b9050611656816109f760646109f7600c546114a4896114a461112d565b600082820183811015611656576040805162461bcd60e51b815260206004820152601b60248201527f536166654d6174683a206164646974696f6e206f766572666c6f770000000000604482015290519081900360640190fd5b80546001019055565b6000611656836001600160a01b038416612841565b6000826123c15750600061098f565b828202828482816123ce57fe5b04146116565760405162461bcd60e51b8152600401808060200182810382526021815260200180612e446021913960400191505060405180910390fd5b600061165683836040518060400160405280601a81526020017f536166654d6174683a206469766973696f6e206279207a65726f00000000000081525061288b565b3390565b600082815260016020526040902061246f908263ffffffff61239d16565b15610ba15761247c61244d565b6001600160a01b0316816001600160a01b0316837f2f8788117e7eff1d82e926ec794901d17c78024a50270940304540a733656f0d60405160405180910390a45050565b600061165683836040518060400160405280601e81526020017f536166654d6174683a207375627472616374696f6e206f766572666c6f77000081525061292d565b6000828152600160205260409020612520908263ffffffff61298716565b15610ba15761252d61244d565b6001600160a01b0316816001600160a01b0316837ff6391f5c32d9c69d2a47ea670b442974b53935d1edc7fd64eb21e047a839171b60405160405180910390a45050565b60035460ff166125bf576040805162461bcd60e51b815260206004820152601460248201527314185d5cd8589b194e881b9bdd081c185d5cd95960621b604482015290519081900360640190fd5b6003805460ff191690557f5db9ee0a495bf2e6ff9c91a7834c1ba4fdd244a5e8aa4e537bd38aeae4b073aa6125f261244d565b604080516001600160a01b039092168252519081900360200190a1565b600061261a82612303565b9050348114610ba15760405162461bcd60e51b8152600401808060200182810382526034815260200180612e106034913960400191505060405180910390fd5b6000828152600f6020526040902060028101548211156126ab5760405162461bcd60e51b815260040180806020018281038252602c815260200180612d1a602c913960400191505060405180910390fd5b60028101546126c0908363ffffffff6124c016565b600282015560055460408051632770a7eb60e21b81523360048201526024810185905290516001600160a01b0390921691639dc29fac9160448082019260009290919082900301818387803b15801561271857600080fd5b505af115801561272c573d6000803e3d6000fd5b50505050505050565b5490565b600080821215612790576040805162461bcd60e51b815260206004820181905260248201527f53616665436173743a2076616c7565206d75737420626520706f736974697665604482015290519081900360640190fd5b5090565b60035460ff16156127df576040805162461bcd60e51b815260206004820152601060248201526f14185d5cd8589b194e881c185d5cd95960821b604482015290519081900360640190fd5b6003805460ff191660011790557f62e78cea01bee320cd4e420270b5ea74000d11b0c9f74754ebdbfc544b05a2586125f261244d565b6000611656838361299c565b6000611656836001600160a01b038416612a00565b600061098f82612735565b600061284d8383612a00565b6128835750815460018181018455600084815260208082209093018490558454848252828601909352604090209190915561098f565b50600061098f565b600081836129175760405162461bcd60e51b81526004018080602001828103825283818151815260200191508051906020019080838360005b838110156128dc5781810151838201526020016128c4565b50505050905090810190601f1680156129095780820380516001836020036101000a031916815260200191505b509250505060405180910390fd5b50600083858161292357fe5b0495945050505050565b6000818484111561297f5760405162461bcd60e51b81526020600482018181528351602484015283519092839260449091019190850190808383600083156128dc5781810151838201526020016128c4565b505050900390565b6000611656836001600160a01b038416612a18565b815460009082106129de5760405162461bcd60e51b8152600401808060200182810382526022815260200180612b406022913960400191505060405180910390fd5b8260000182815481106129ed57fe5b9060005260206000200154905092915050565b60009081526001919091016020526040902054151590565b60008181526001830160205260408120548015612ad45783546000198083019190810190600090879083908110612a4b57fe5b9060005260206000200154905080876000018481548110612a6857fe5b600091825260208083209091019290925582815260018981019092526040902090840190558654879080612a9857fe5b6001900381819060005260206000200160009055905586600101600087815260200190815260200160002060009055600194505050505061098f565b600091505061098f565b604051806080016040528060008152602001600081526020016000815260200160006001600160a01b03168152509056fe5661756c7448616e646c65723a3a6372656174655661756c743a207661756c7420616c72656164792063726561746564456e756d657261626c655365743a20696e646578206f7574206f6620626f756e64735661756c7448616e646c65723a3a616464436f6c6c61746572616c3a204552433230207472616e7366657220646964206e6f742073756363656564416363657373436f6e74726f6c3a2073656e646572206d75737420626520616e2061646d696e20746f206772616e745265656e7472616e637947756172643a207265656e7472616e742063616c6c005661756c7448616e646c65723a3a7661756c744578697374733a206e6f207661756c7420637265617465644f776e61626c653a206e6577206f776e657220697320746865207a65726f20616464726573735661756c7448616e646c65723a3a6d696e743a206e6f7420656e6f75676820636f6c6c61746572616c5661756c7448616e646c65723a3a6c69717569646174655661756c743a206c69717569646174696f6e20616d6f756e7420646966666572656e74207468616e2072657175697265645661756c7448616e646c65723a3a6c69717569646174655661756c743a204552433230207472616e7366657220646964206e6f742073756363656564416363657373436f6e74726f6c3a2073656e646572206d75737420626520616e2061646d696e20746f207265766f6b655661756c7448616e646c65723a3a6275726e3a20616d6f756e742067726561746572207468616e20646562745661756c7448616e646c65723a3a72656d6f7665436f6c6c61746572616c3a20726574726965766520616d6f756e7420686967686572207468616e20636f6c6c61746572616c5661756c7448616e646c65723a3a7365744c69717569646174696f6e50656e616c74793a206c69717569646174696f6e2070656e616c747920746f6f20686967685661756c7448616e646c65723a3a72656d6f7665436f6c6c61746572616c3a20636f6c6c61746572616c2062656c6f77206d696e20726571756972656420726174696f5661756c7448616e646c65723a3a6275726e3a206275726e2066656520646966666572656e74207468616e207265717569726564536166654d6174683a206d756c7469706c69636174696f6e206f766572666c6f774f776e61626c653a2063616c6c6572206973206e6f7420746865206f776e65725661756c7448616e646c65723a3a6d696e743a20636f6c6c61746572616c2062656c6f77206d696e20726571756972656420726174696f5661756c7448616e646c65723a3a72656d6f7665436f6c6c61746572616c3a204552433230207472616e7366657220646964206e6f7420737563636565645661756c7448616e646c65723a3a6c69717569646174655661756c743a207661756c74206973206e6f74206c697175696461626c655661756c7448616e646c65723a3a6e6f745a65726f3a2076616c75652063616e277420626520305661756c7448616e646c65723a3a6c69717569646174655661756c743a206e6f207661756c742063726561746564416363657373436f6e74726f6c3a2063616e206f6e6c792072656e6f756e636520726f6c657320666f722073656c66a2646970667358221220352d5f55b54c200f818749cb524514de00d9ab9190d7ac632f708f34f77d76fc64736f6c634300060800335661756c7448616e646c65723a3a696e697469616c697a653a206c69717569646174696f6e2070656e616c747920746f6f20686967684f776e61626c653a206e6577206f776e657220697320746865207a65726f20616464726573738be0079c531659141344cd1fd0a4f28419497f9722a3daafe3b4186f6b6457e0",
  "devdoc": {
    "author": "Cristian Espinoza",
    "methods": {
      "TCAPPrice()": {
        "details": "TCAP token is 18 decimalsoracle totalMarketPrice must be in wei formatP = M / d P = TCAP Token Price M = Total Crypto Market Cap d = Divisor",
        "returns": {
          "price": "of the TCAP Token"
        }
      },
      "addCollateral(uint256)": {
        "details": "_amount should be higher than 0",
        "params": {
          "_amount": "of collateral to add"
        }
      },
      "burn(uint256)": {
        "details": "_amount should be higher than 0",
        "params": {
          "_amount": "of tokens to burn"
        }
      },
      "createVault()": {
        "details": "Only one vault per address can be created"
      },
      "getFee(uint256)": {
        "details": "The returned value is returned in weif = ((P * A * b)/ 100) f = Burn Fee Value P = TCAP Token Price A = Amount to Burn b = Burn Fee %",
        "params": {
          "_amount": "to burn"
        },
        "returns": {
          "fee": "fee"
        }
      },
      "getRoleAdmin(bytes32)": {
        "details": "Returns the admin role that controls `role`. See {grantRole} and {revokeRole}.     * To change a role's admin, use {_setRoleAdmin}."
      },
      "getRoleMember(bytes32,uint256)": {
        "details": "Returns one of the accounts that have `role`. `index` must be a value between 0 and {getRoleMemberCount}, non-inclusive.     * Role bearers are not sorted in any particular way, and their ordering may change at any point.     * WARNING: When using {getRoleMember} and {getRoleMemberCount}, make sure you perform all queries on the same block. See the following https://forum.openzeppelin.com/t/iterating-over-elements-on-enumerableset-in-openzeppelin-contracts/2296[forum post] for more information."
      },
      "getRoleMemberCount(bytes32)": {
        "details": "Returns the number of accounts that have `role`. Can be used together with {getRoleMember} to enumerate all bearers of a role."
      },
      "getVault(uint256)": {
        "params": {
          "_id": "of vault"
        },
        "returns": {
          "_0": "Id, Collateral, Owner, Debt"
        }
      },
      "getVaultRatio(uint256)": {
        "details": "vr = (cp * (C * 100)) / D * P vr = Vault Ratio C = Vault Collateral cp = Collateral Price D = Vault Debt P = TCAP Token Price",
        "params": {
          "_vaultId": "id of vault"
        },
        "returns": {
          "currentRatio": "currentRatio"
        }
      },
      "grantRole(bytes32,address)": {
        "details": "Grants `role` to `account`.     * If `account` had not been already granted `role`, emits a {RoleGranted} event.     * Requirements:     * - the caller must have ``role``'s admin role."
      },
      "hasRole(bytes32,address)": {
        "details": "Returns `true` if `account` has been granted `role`."
      },
      "liquidateVault(uint256,uint256)": {
        "params": {
          "_requiredTCAP": "amount of TCAP to liquidate vault",
          "_vaultId": "to liquidate"
        }
      },
      "liquidationReward(uint256)": {
        "details": "the returned value is returned on the vault collateralR = (LT * (p  + 100)) / 100 R = Liquidation Reward LT = Required Liquidation TCAP p = liquidation penalty",
        "params": {
          "_vaultId": "of the vault to liquidate"
        },
        "returns": {
          "rewardCollateral": "for liquidating Vault"
        }
      },
      "mint(uint256)": {
        "details": "_amount should be higher than 0",
        "params": {
          "_amount": "of tokens to mint"
        }
      },
      "owner()": {
        "details": "Returns the address of the current owner."
      },
      "paused()": {
        "details": "Returns true if the contract is paused, and false otherwise."
      },
      "removeCollateral(uint256)": {
        "details": "_amount should be higher than 0",
        "params": {
          "_amount": "of collateral to remove"
        }
      },
      "renounceOwnership()": {
        "details": "Leaves the contract without owner. It will not be possible to call `onlyOwner` functions anymore. Can only be called by the current owner.     * NOTE: Renouncing ownership will leave the contract without an owner, thereby removing any functionality that is only available to the owner."
      },
      "renounceRole(bytes32,address)": {
        "details": "Revokes `role` from the calling account.     * Roles are often managed via {grantRole} and {revokeRole}: this function's purpose is to provide a mechanism for accounts to lose their privileges if they are compromised (such as when a trusted device is misplaced).     * If the calling account had been granted `role`, emits a {RoleRevoked} event.     * Requirements:     * - the caller must be `account`."
      },
      "requiredCollateral(uint256)": {
        "details": "TCAP token is 18 decimalsC = ((P * A * r) / 100) / cp C = Required Collateral P = TCAP Token Price A = Amount to Mint cp = Collateral Price r = Minimun Ratio for Liquidation Is only divided by 100 as eth price comes in wei to cancel the additional 0s",
        "params": {
          "_amount": "uint amount to mint"
        },
        "returns": {
          "collateral": "of the TCAP Token"
        }
      },
      "requiredLiquidationTCAP(uint256)": {
        "details": "LT = ((((D * r) / 100) - cTcap) * 100) / (r - (p + 100)) cTcap = ((C * cp) / P) LT = Required TCAP D = Vault Debt C = Required Collateral P = TCAP Token Price cp = Collateral Price r = Min Vault Ratio p = Liquidation Penalty",
        "params": {
          "_vaultId": "of the vault to liquidate"
        },
        "returns": {
          "amount": "required of the TCAP Token"
        }
      },
      "revokeRole(bytes32,address)": {
        "details": "Revokes `role` from `account`.     * If `account` had been granted `role`, emits a {RoleRevoked} event.     * Requirements:     * - the caller must have ``role``'s admin role."
      },
      "setBurnFee(uint256)": {
        "details": "Only owner can call it",
        "params": {
          "_burnFee": "uint"
        }
      },
      "setLiquidationPenalty(uint256)": {
        "details": "Only owner can call it",
        "params": {
          "_liquidationPenalty": "uint"
        }
      },
      "setRatio(uint256)": {
        "details": "Only owner can call it",
        "params": {
          "_ratio": "uint"
        }
      },
      "supportsInterface(bytes4)": {
        "params": {
          "interfaceId": "bytes of interface"
        },
        "returns": {
          "_0": "bool"
        }
      },
      "transferOwnership(address)": {
        "details": "Transfers ownership of the contract to a new account (`newOwner`). Can only be called by the current owner."
      }
    },
    "title": "TCAP Vault"
  },
  "userdoc": {
    "methods": {
      "TCAPPrice()": {
        "notice": "Returns the price of the TCAP token"
      },
      "addCollateral(uint256)": {
        "notice": "Adds collateral to vault"
      },
      "burn(uint256)": {
        "notice": "Burns TCAP Tokens releasing the staked collateral"
      },
      "createVault()": {
        "notice": "Creates a Vault"
      },
      "getFee(uint256)": {
        "notice": "Returns the required fee to burn the TCAP tokens"
      },
      "getVault(uint256)": {
        "notice": "Returns the Vault information"
      },
      "getVaultRatio(uint256)": {
        "notice": "Returns the Collateral Ratio of the Vault"
      },
      "liquidateVault(uint256,uint256)": {
        "notice": "Allow users to liquidate vaults with low collateral ratio"
      },
      "liquidationReward(uint256)": {
        "notice": "Returns Reward for liquidating a vault"
      },
      "mint(uint256)": {
        "notice": "Mints TCAP Tokens staking the collateral"
      },
      "pause()": {
        "notice": "Allows owner to Pause the Contract"
      },
      "removeCollateral(uint256)": {
        "notice": "Removes not used collateral from vault"
      },
      "requiredCollateral(uint256)": {
        "notice": "Returns the minimal required collateral to mint TCAP token"
      },
      "requiredLiquidationTCAP(uint256)": {
        "notice": "Returns the minimal required TCAP to liquidate a Vault"
      },
      "retrieveFees()": {
        "notice": "Sends the owner of the contract the Fees saved on ETH"
      },
      "setBurnFee(uint256)": {
        "notice": "Sets the burn fee percentage an user pays when burning tcap tokens"
      },
      "setLiquidationPenalty(uint256)": {
        "notice": "Sets the liquidation penalty % charged on liquidation"
      },
      "setRatio(uint256)": {
        "notice": "Sets the collateral ratio needed to mint tokens"
      },
      "supportsInterface(bytes4)": {
        "notice": "ERC165 Standard for support of interfaces"
      },
      "unpause()": {
        "notice": "Allows owner to Unpause the Contract"
      }
    },
    "notice": "Contract in charge of handling the TCAP Vault and stake using a Collateral ERC20"
  },
  "storageLayout": {
    "storage": [
      {
        "astId": 359,
        "contract": "contracts/ERC20VaultHandler.sol:ERC20VaultHandler",
        "label": "_owner",
        "offset": 0,
        "slot": "0",
        "type": "t_address"
      },
      {
        "astId": 91,
        "contract": "contracts/ERC20VaultHandler.sol:ERC20VaultHandler",
        "label": "_roles",
        "offset": 0,
        "slot": "1",
        "type": "t_mapping(t_bytes32,t_struct(RoleData)87_storage)"
      },
      {
        "astId": 2175,
        "contract": "contracts/ERC20VaultHandler.sol:ERC20VaultHandler",
        "label": "_status",
        "offset": 0,
        "slot": "2",
        "type": "t_uint256"
      },
      {
        "astId": 2092,
        "contract": "contracts/ERC20VaultHandler.sol:ERC20VaultHandler",
        "label": "_paused",
        "offset": 0,
        "slot": "3",
        "type": "t_bool"
      },
      {
        "astId": 2929,
        "contract": "contracts/ERC20VaultHandler.sol:ERC20VaultHandler",
        "label": "counter",
        "offset": 0,
        "slot": "4",
        "type": "t_struct(Counter)1639_storage"
      },
      {
        "astId": 2940,
        "contract": "contracts/ERC20VaultHandler.sol:ERC20VaultHandler",
        "label": "TCAPToken",
        "offset": 0,
        "slot": "5",
        "type": "t_contract(TCAP)4823"
      },
      {
        "astId": 2942,
        "contract": "contracts/ERC20VaultHandler.sol:ERC20VaultHandler",
        "label": "tcapOracle",
        "offset": 0,
        "slot": "6",
        "type": "t_contract(ChainlinkOracle)5614"
      },
      {
        "astId": 2944,
        "contract": "contracts/ERC20VaultHandler.sol:ERC20VaultHandler",
        "label": "collateralContract",
        "offset": 0,
        "slot": "7",
        "type": "t_contract(IERC20)1425"
      },
      {
        "astId": 2946,
        "contract": "contracts/ERC20VaultHandler.sol:ERC20VaultHandler",
        "label": "collateralPriceOracle",
        "offset": 0,
        "slot": "8",
        "type": "t_contract(ChainlinkOracle)5614"
      },
      {
        "astId": 2948,
        "contract": "contracts/ERC20VaultHandler.sol:ERC20VaultHandler",
        "label": "ETHPriceOracle",
        "offset": 0,
        "slot": "9",
        "type": "t_contract(ChainlinkOracle)5614"
      },
      {
        "astId": 2950,
        "contract": "contracts/ERC20VaultHandler.sol:ERC20VaultHandler",
        "label": "divisor",
        "offset": 0,
        "slot": "10",
        "type": "t_uint256"
      },
      {
        "astId": 2952,
        "contract": "contracts/ERC20VaultHandler.sol:ERC20VaultHandler",
        "label": "ratio",
        "offset": 0,
        "slot": "11",
        "type": "t_uint256"
      },
      {
        "astId": 2954,
        "contract": "contracts/ERC20VaultHandler.sol:ERC20VaultHandler",
        "label": "burnFee",
        "offset": 0,
        "slot": "12",
        "type": "t_uint256"
      },
      {
        "astId": 2956,
        "contract": "contracts/ERC20VaultHandler.sol:ERC20VaultHandler",
        "label": "liquidationPenalty",
        "offset": 0,
        "slot": "13",
        "type": "t_uint256"
      },
      {
        "astId": 2960,
        "contract": "contracts/ERC20VaultHandler.sol:ERC20VaultHandler",
        "label": "userToVault",
        "offset": 0,
        "slot": "14",
        "type": "t_mapping(t_address,t_uint256)"
      },
      {
        "astId": 2964,
        "contract": "contracts/ERC20VaultHandler.sol:ERC20VaultHandler",
        "label": "vaults",
        "offset": 0,
        "slot": "15",
        "type": "t_mapping(t_uint256,t_struct(Vault)2938_storage)"
      }
    ],
    "types": {
      "t_address": {
        "encoding": "inplace",
        "label": "address",
        "numberOfBytes": "20"
      },
      "t_array(t_bytes32)dyn_storage": {
        "base": "t_bytes32",
        "encoding": "dynamic_array",
        "label": "bytes32[]",
        "numberOfBytes": "32"
      },
      "t_bool": {
        "encoding": "inplace",
        "label": "bool",
        "numberOfBytes": "1"
      },
      "t_bytes32": {
        "encoding": "inplace",
        "label": "bytes32",
        "numberOfBytes": "32"
      },
      "t_contract(ChainlinkOracle)5614": {
        "encoding": "inplace",
        "label": "contract ChainlinkOracle",
        "numberOfBytes": "20"
      },
      "t_contract(IERC20)1425": {
        "encoding": "inplace",
        "label": "contract IERC20",
        "numberOfBytes": "20"
      },
      "t_contract(TCAP)4823": {
        "encoding": "inplace",
        "label": "contract TCAP",
        "numberOfBytes": "20"
      },
      "t_mapping(t_address,t_uint256)": {
        "encoding": "mapping",
        "key": "t_address",
        "label": "mapping(address => uint256)",
        "numberOfBytes": "32",
        "value": "t_uint256"
      },
      "t_mapping(t_bytes32,t_struct(RoleData)87_storage)": {
        "encoding": "mapping",
        "key": "t_bytes32",
        "label": "mapping(bytes32 => struct AccessControl.RoleData)",
        "numberOfBytes": "32",
        "value": "t_struct(RoleData)87_storage"
      },
      "t_mapping(t_bytes32,t_uint256)": {
        "encoding": "mapping",
        "key": "t_bytes32",
        "label": "mapping(bytes32 => uint256)",
        "numberOfBytes": "32",
        "value": "t_uint256"
      },
      "t_mapping(t_uint256,t_struct(Vault)2938_storage)": {
        "encoding": "mapping",
        "key": "t_uint256",
        "label": "mapping(uint256 => struct IVaultHandler.Vault)",
        "numberOfBytes": "32",
        "value": "t_struct(Vault)2938_storage"
      },
      "t_struct(AddressSet)1870_storage": {
        "encoding": "inplace",
        "label": "struct EnumerableSet.AddressSet",
        "members": [
          {
            "astId": 1869,
            "contract": "contracts/ERC20VaultHandler.sol:ERC20VaultHandler",
            "label": "_inner",
            "offset": 0,
            "slot": "0",
            "type": "t_struct(Set)1690_storage"
          }
        ],
        "numberOfBytes": "64"
      },
      "t_struct(Counter)1639_storage": {
        "encoding": "inplace",
        "label": "struct Counters.Counter",
        "members": [
          {
            "astId": 1638,
            "contract": "contracts/ERC20VaultHandler.sol:ERC20VaultHandler",
            "label": "_value",
            "offset": 0,
            "slot": "0",
            "type": "t_uint256"
          }
        ],
        "numberOfBytes": "32"
      },
      "t_struct(RoleData)87_storage": {
        "encoding": "inplace",
        "label": "struct AccessControl.RoleData",
        "members": [
          {
            "astId": 84,
            "contract": "contracts/ERC20VaultHandler.sol:ERC20VaultHandler",
            "label": "members",
            "offset": 0,
            "slot": "0",
            "type": "t_struct(AddressSet)1870_storage"
          },
          {
            "astId": 86,
            "contract": "contracts/ERC20VaultHandler.sol:ERC20VaultHandler",
            "label": "adminRole",
            "offset": 0,
            "slot": "2",
            "type": "t_bytes32"
          }
        ],
        "numberOfBytes": "96"
      },
      "t_struct(Set)1690_storage": {
        "encoding": "inplace",
        "label": "struct EnumerableSet.Set",
        "members": [
          {
            "astId": 1685,
            "contract": "contracts/ERC20VaultHandler.sol:ERC20VaultHandler",
            "label": "_values",
            "offset": 0,
            "slot": "0",
            "type": "t_array(t_bytes32)dyn_storage"
          },
          {
            "astId": 1689,
            "contract": "contracts/ERC20VaultHandler.sol:ERC20VaultHandler",
            "label": "_indexes",
            "offset": 0,
            "slot": "1",
            "type": "t_mapping(t_bytes32,t_uint256)"
          }
        ],
        "numberOfBytes": "64"
      },
      "t_struct(Vault)2938_storage": {
        "encoding": "inplace",
        "label": "struct IVaultHandler.Vault",
        "members": [
          {
            "astId": 2931,
            "contract": "contracts/ERC20VaultHandler.sol:ERC20VaultHandler",
            "label": "Id",
            "offset": 0,
            "slot": "0",
            "type": "t_uint256"
          },
          {
            "astId": 2933,
            "contract": "contracts/ERC20VaultHandler.sol:ERC20VaultHandler",
            "label": "Collateral",
            "offset": 0,
            "slot": "1",
            "type": "t_uint256"
          },
          {
            "astId": 2935,
            "contract": "contracts/ERC20VaultHandler.sol:ERC20VaultHandler",
            "label": "Debt",
            "offset": 0,
            "slot": "2",
            "type": "t_uint256"
          },
          {
            "astId": 2937,
            "contract": "contracts/ERC20VaultHandler.sol:ERC20VaultHandler",
            "label": "Owner",
            "offset": 0,
            "slot": "3",
            "type": "t_address"
          }
        ],
        "numberOfBytes": "128"
      },
      "t_uint256": {
        "encoding": "inplace",
        "label": "uint256",
        "numberOfBytes": "32"
      }
    }
  },
  "gasEstimates": {
    "creation": {
      "codeDepositCost": "2452800",
      "executionCost": "infinite",
      "totalCost": "infinite"
    },
    "external": {
      "DEFAULT_ADMIN_ROLE()": "353",
      "ETHPriceOracle()": "1148",
      "TCAPPrice()": "infinite",
      "TCAPToken()": "1104",
      "addCollateral(uint256)": "infinite",
      "burn(uint256)": "infinite",
      "burnFee()": "1130",
      "collateralContract()": "1192",
      "collateralPriceOracle()": "1192",
      "counter()": "1154",
      "createVault()": "infinite",
      "divisor()": "1111",
      "getFee(uint256)": "infinite",
      "getOraclePrice(address)": "infinite",
      "getRoleAdmin(bytes32)": "1158",
      "getRoleMember(bytes32,uint256)": "infinite",
      "getRoleMemberCount(bytes32)": "infinite",
      "getVault(uint256)": "3987",
      "getVaultRatio(uint256)": "infinite",
      "grantRole(bytes32,address)": "infinite",
      "hasRole(bytes32,address)": "infinite",
      "liquidateVault(uint256,uint256)": "infinite",
      "liquidationPenalty()": "1133",
      "liquidationReward(uint256)": "infinite",
      "mint(uint256)": "infinite",
      "oracleDigits()": "243",
      "owner()": "1149",
      "pause()": "infinite",
      "paused()": "1122",
      "ratio()": "1109",
      "removeCollateral(uint256)": "infinite",
      "renounceOwnership()": "infinite",
      "renounceRole(bytes32,address)": "infinite",
      "requiredCollateral(uint256)": "infinite",
      "requiredLiquidationTCAP(uint256)": "infinite",
      "retrieveFees()": "infinite",
      "revokeRole(bytes32,address)": "infinite",
      "setBurnFee(uint256)": "infinite",
      "setLiquidationPenalty(uint256)": "infinite",
      "setRatio(uint256)": "infinite",
      "supportsInterface(bytes4)": "412",
      "tcapOracle()": "1128",
      "transferOwnership(address)": "infinite",
      "unpause()": "infinite",
      "userToVault(address)": "1235",
      "vaults(uint256)": "3740"
    }
  }
}