{
  "address": "0xDCDF84255652205debfc9c2603BF28F13597BD82",
  "abi": [
    {
      "inputs": [
        {
          "internalType": "address",
          "name": "_owner",
          "type": "address"
        },
        {
          "internalType": "address",
          "name": "_rewardsToken",
          "type": "address"
        },
        {
          "internalType": "address",
          "name": "_stakingToken",
          "type": "address"
        },
        {
          "internalType": "uint256",
          "name": "_vestingEnd",
          "type": "uint256"
        },
        {
          "internalType": "uint256",
          "name": "_vestingRatio",
          "type": "uint256"
        }
      ],
      "stateMutability": "nonpayable",
      "type": "constructor"
    },
    {
      "anonymous": false,
      "inputs": [
        {
          "indexed": true,
          "internalType": "address",
          "name": "previousOwner",
          "type": "address"
        },
        {
          "indexed": true,
          "internalType": "address",
          "name": "newOwner",
          "type": "address"
        }
      ],
      "name": "OwnershipTransferred",
      "type": "event"
    },
    {
      "anonymous": false,
      "inputs": [
        {
          "indexed": false,
          "internalType": "address",
          "name": "account",
          "type": "address"
        }
      ],
      "name": "Paused",
      "type": "event"
    },
    {
      "anonymous": false,
      "inputs": [
        {
          "indexed": false,
          "internalType": "address",
          "name": "token",
          "type": "address"
        },
        {
          "indexed": false,
          "internalType": "uint256",
          "name": "amount",
          "type": "uint256"
        }
      ],
      "name": "Recovered",
      "type": "event"
    },
    {
      "anonymous": false,
      "inputs": [
        {
          "indexed": false,
          "internalType": "uint256",
          "name": "reward",
          "type": "uint256"
        }
      ],
      "name": "RewardAdded",
      "type": "event"
    },
    {
      "anonymous": false,
      "inputs": [
        {
          "indexed": true,
          "internalType": "address",
          "name": "user",
          "type": "address"
        },
        {
          "indexed": false,
          "internalType": "uint256",
          "name": "reward",
          "type": "uint256"
        }
      ],
      "name": "RewardPaid",
      "type": "event"
    },
    {
      "anonymous": false,
      "inputs": [
        {
          "indexed": false,
          "internalType": "uint256",
          "name": "newDuration",
          "type": "uint256"
        }
      ],
      "name": "RewardsDurationUpdated",
      "type": "event"
    },
    {
      "anonymous": false,
      "inputs": [
        {
          "indexed": true,
          "internalType": "bytes32",
          "name": "role",
          "type": "bytes32"
        },
        {
          "indexed": true,
          "internalType": "bytes32",
          "name": "previousAdminRole",
          "type": "bytes32"
        },
        {
          "indexed": true,
          "internalType": "bytes32",
          "name": "newAdminRole",
          "type": "bytes32"
        }
      ],
      "name": "RoleAdminChanged",
      "type": "event"
    },
    {
      "anonymous": false,
      "inputs": [
        {
          "indexed": true,
          "internalType": "bytes32",
          "name": "role",
          "type": "bytes32"
        },
        {
          "indexed": true,
          "internalType": "address",
          "name": "account",
          "type": "address"
        },
        {
          "indexed": true,
          "internalType": "address",
          "name": "sender",
          "type": "address"
        }
      ],
      "name": "RoleGranted",
      "type": "event"
    },
    {
      "anonymous": false,
      "inputs": [
        {
          "indexed": true,
          "internalType": "bytes32",
          "name": "role",
          "type": "bytes32"
        },
        {
          "indexed": true,
          "internalType": "address",
          "name": "account",
          "type": "address"
        },
        {
          "indexed": true,
          "internalType": "address",
          "name": "sender",
          "type": "address"
        }
      ],
      "name": "RoleRevoked",
      "type": "event"
    },
    {
      "anonymous": false,
      "inputs": [
        {
          "indexed": true,
          "internalType": "address",
          "name": "user",
          "type": "address"
        },
        {
          "indexed": false,
          "internalType": "uint256",
          "name": "amount",
          "type": "uint256"
        }
      ],
      "name": "Staked",
      "type": "event"
    },
    {
      "anonymous": false,
      "inputs": [
        {
          "indexed": false,
          "internalType": "address",
          "name": "account",
          "type": "address"
        }
      ],
      "name": "Unpaused",
      "type": "event"
    },
    {
      "anonymous": false,
      "inputs": [
        {
          "indexed": true,
          "internalType": "address",
          "name": "user",
          "type": "address"
        },
        {
          "indexed": false,
          "internalType": "uint256",
          "name": "amount",
          "type": "uint256"
        }
      ],
      "name": "Withdrawn",
      "type": "event"
    },
    {
      "inputs": [],
      "name": "DEFAULT_ADMIN_ROLE",
      "outputs": [
        {
          "internalType": "bytes32",
          "name": "",
          "type": "bytes32"
        }
      ],
      "stateMutability": "view",
      "type": "function"
    },
    {
      "inputs": [
        {
          "internalType": "address",
          "name": "_account",
          "type": "address"
        }
      ],
      "name": "balanceOf",
      "outputs": [
        {
          "internalType": "uint256",
          "name": "",
          "type": "uint256"
        }
      ],
      "stateMutability": "view",
      "type": "function"
    },
    {
      "inputs": [],
      "name": "claimVest",
      "outputs": [],
      "stateMutability": "nonpayable",
      "type": "function"
    },
    {
      "inputs": [
        {
          "internalType": "address",
          "name": "_account",
          "type": "address"
        }
      ],
      "name": "earned",
      "outputs": [
        {
          "internalType": "uint256",
          "name": "",
          "type": "uint256"
        }
      ],
      "stateMutability": "view",
      "type": "function"
    },
    {
      "inputs": [],
      "name": "exit",
      "outputs": [],
      "stateMutability": "nonpayable",
      "type": "function"
    },
    {
      "inputs": [],
      "name": "getReward",
      "outputs": [],
      "stateMutability": "nonpayable",
      "type": "function"
    },
    {
      "inputs": [],
      "name": "getRewardForDuration",
      "outputs": [
        {
          "internalType": "uint256",
          "name": "",
          "type": "uint256"
        }
      ],
      "stateMutability": "view",
      "type": "function"
    },
    {
      "inputs": [
        {
          "internalType": "bytes32",
          "name": "role",
          "type": "bytes32"
        }
      ],
      "name": "getRoleAdmin",
      "outputs": [
        {
          "internalType": "bytes32",
          "name": "",
          "type": "bytes32"
        }
      ],
      "stateMutability": "view",
      "type": "function"
    },
    {
      "inputs": [
        {
          "internalType": "bytes32",
          "name": "role",
          "type": "bytes32"
        },
        {
          "internalType": "uint256",
          "name": "index",
          "type": "uint256"
        }
      ],
      "name": "getRoleMember",
      "outputs": [
        {
          "internalType": "address",
          "name": "",
          "type": "address"
        }
      ],
      "stateMutability": "view",
      "type": "function"
    },
    {
      "inputs": [
        {
          "internalType": "bytes32",
          "name": "role",
          "type": "bytes32"
        }
      ],
      "name": "getRoleMemberCount",
      "outputs": [
        {
          "internalType": "uint256",
          "name": "",
          "type": "uint256"
        }
      ],
      "stateMutability": "view",
      "type": "function"
    },
    {
      "inputs": [
        {
          "internalType": "bytes32",
          "name": "role",
          "type": "bytes32"
        },
        {
          "internalType": "address",
          "name": "account",
          "type": "address"
        }
      ],
      "name": "grantRole",
      "outputs": [],
      "stateMutability": "nonpayable",
      "type": "function"
    },
    {
      "inputs": [
        {
          "internalType": "bytes32",
          "name": "role",
          "type": "bytes32"
        },
        {
          "internalType": "address",
          "name": "account",
          "type": "address"
        }
      ],
      "name": "hasRole",
      "outputs": [
        {
          "internalType": "bool",
          "name": "",
          "type": "bool"
        }
      ],
      "stateMutability": "view",
      "type": "function"
    },
    {
      "inputs": [],
      "name": "lastTimeRewardApplicable",
      "outputs": [
        {
          "internalType": "uint256",
          "name": "",
          "type": "uint256"
        }
      ],
      "stateMutability": "view",
      "type": "function"
    },
    {
      "inputs": [],
      "name": "lastUpdateTime",
      "outputs": [
        {
          "internalType": "uint256",
          "name": "",
          "type": "uint256"
        }
      ],
      "stateMutability": "view",
      "type": "function"
    },
    {
      "inputs": [
        {
          "internalType": "uint256",
          "name": "_a",
          "type": "uint256"
        },
        {
          "internalType": "uint256",
          "name": "_b",
          "type": "uint256"
        }
      ],
      "name": "min",
      "outputs": [
        {
          "internalType": "uint256",
          "name": "",
          "type": "uint256"
        }
      ],
      "stateMutability": "pure",
      "type": "function"
    },
    {
      "inputs": [
        {
          "internalType": "uint256",
          "name": "_reward",
          "type": "uint256"
        }
      ],
      "name": "notifyRewardAmount",
      "outputs": [],
      "stateMutability": "nonpayable",
      "type": "function"
    },
    {
      "inputs": [],
      "name": "owner",
      "outputs": [
        {
          "internalType": "address",
          "name": "",
          "type": "address"
        }
      ],
      "stateMutability": "view",
      "type": "function"
    },
    {
      "inputs": [],
      "name": "paused",
      "outputs": [
        {
          "internalType": "bool",
          "name": "",
          "type": "bool"
        }
      ],
      "stateMutability": "view",
      "type": "function"
    },
    {
      "inputs": [],
      "name": "periodFinish",
      "outputs": [
        {
          "internalType": "uint256",
          "name": "",
          "type": "uint256"
        }
      ],
      "stateMutability": "view",
      "type": "function"
    },
    {
      "inputs": [
        {
          "internalType": "address",
          "name": "_tokenAddress",
          "type": "address"
        },
        {
          "internalType": "uint256",
          "name": "_tokenAmount",
          "type": "uint256"
        }
      ],
      "name": "recoverERC20",
      "outputs": [],
      "stateMutability": "nonpayable",
      "type": "function"
    },
    {
      "inputs": [],
      "name": "renounceOwnership",
      "outputs": [],
      "stateMutability": "nonpayable",
      "type": "function"
    },
    {
      "inputs": [
        {
          "internalType": "bytes32",
          "name": "role",
          "type": "bytes32"
        },
        {
          "internalType": "address",
          "name": "account",
          "type": "address"
        }
      ],
      "name": "renounceRole",
      "outputs": [],
      "stateMutability": "nonpayable",
      "type": "function"
    },
    {
      "inputs": [
        {
          "internalType": "bytes32",
          "name": "role",
          "type": "bytes32"
        },
        {
          "internalType": "address",
          "name": "account",
          "type": "address"
        }
      ],
      "name": "revokeRole",
      "outputs": [],
      "stateMutability": "nonpayable",
      "type": "function"
    },
    {
      "inputs": [],
      "name": "rewardPerToken",
      "outputs": [
        {
          "internalType": "uint256",
          "name": "",
          "type": "uint256"
        }
      ],
      "stateMutability": "view",
      "type": "function"
    },
    {
      "inputs": [],
      "name": "rewardPerTokenStored",
      "outputs": [
        {
          "internalType": "uint256",
          "name": "",
          "type": "uint256"
        }
      ],
      "stateMutability": "view",
      "type": "function"
    },
    {
      "inputs": [],
      "name": "rewardRate",
      "outputs": [
        {
          "internalType": "uint256",
          "name": "",
          "type": "uint256"
        }
      ],
      "stateMutability": "view",
      "type": "function"
    },
    {
      "inputs": [
        {
          "internalType": "address",
          "name": "",
          "type": "address"
        }
      ],
      "name": "rewards",
      "outputs": [
        {
          "internalType": "uint256",
          "name": "",
          "type": "uint256"
        }
      ],
      "stateMutability": "view",
      "type": "function"
    },
    {
      "inputs": [],
      "name": "rewardsDuration",
      "outputs": [
        {
          "internalType": "uint256",
          "name": "",
          "type": "uint256"
        }
      ],
      "stateMutability": "view",
      "type": "function"
    },
    {
      "inputs": [],
      "name": "rewardsToken",
      "outputs": [
        {
          "internalType": "contract IERC20",
          "name": "",
          "type": "address"
        }
      ],
      "stateMutability": "view",
      "type": "function"
    },
    {
      "inputs": [
        {
          "internalType": "uint256",
          "name": "_rewardsDuration",
          "type": "uint256"
        }
      ],
      "name": "setRewardsDuration",
      "outputs": [],
      "stateMutability": "nonpayable",
      "type": "function"
    },
    {
      "inputs": [
        {
          "internalType": "uint256",
          "name": "_amount",
          "type": "uint256"
        }
      ],
      "name": "stake",
      "outputs": [],
      "stateMutability": "nonpayable",
      "type": "function"
    },
    {
      "inputs": [],
      "name": "stakingToken",
      "outputs": [
        {
          "internalType": "contract IERC20",
          "name": "",
          "type": "address"
        }
      ],
      "stateMutability": "view",
      "type": "function"
    },
    {
      "inputs": [],
      "name": "totalSupply",
      "outputs": [
        {
          "internalType": "uint256",
          "name": "",
          "type": "uint256"
        }
      ],
      "stateMutability": "view",
      "type": "function"
    },
    {
      "inputs": [
        {
          "internalType": "address",
          "name": "newOwner",
          "type": "address"
        }
      ],
      "name": "transferOwnership",
      "outputs": [],
      "stateMutability": "nonpayable",
      "type": "function"
    },
    {
      "inputs": [
        {
          "internalType": "address",
          "name": "",
          "type": "address"
        }
      ],
      "name": "userRewardPerTokenPaid",
      "outputs": [
        {
          "internalType": "uint256",
          "name": "",
          "type": "uint256"
        }
      ],
      "stateMutability": "view",
      "type": "function"
    },
    {
      "inputs": [
        {
          "internalType": "address",
          "name": "",
          "type": "address"
        }
      ],
      "name": "vestingAmounts",
      "outputs": [
        {
          "internalType": "uint256",
          "name": "",
          "type": "uint256"
        }
      ],
      "stateMutability": "view",
      "type": "function"
    },
    {
      "inputs": [],
      "name": "vestingEnd",
      "outputs": [
        {
          "internalType": "uint256",
          "name": "",
          "type": "uint256"
        }
      ],
      "stateMutability": "view",
      "type": "function"
    },
    {
      "inputs": [],
      "name": "vestingRatio",
      "outputs": [
        {
          "internalType": "uint256",
          "name": "",
          "type": "uint256"
        }
      ],
      "stateMutability": "view",
      "type": "function"
    },
    {
      "inputs": [
        {
          "internalType": "uint256",
          "name": "_amount",
          "type": "uint256"
        }
      ],
      "name": "withdraw",
      "outputs": [],
      "stateMutability": "nonpayable",
      "type": "function"
    }
  ],
  "transactionHash": "0xf18ae0f3aac5cccc513942ba84d9c38e06f67ee91cb9f8e74bbe11e751feff72",
  "args": [
    "0x32ac6dBaf90A4C45f160D13B32fDD10D75D09976",
    "0xAa715DbD2ED909B7B7727dC864F3B78276D14A19",
    "0xa87e2c5d5964955242989b954474ff2eb08dd2f5",
    1651696473,
    "70"
  ],
  "solcInputHash": "ab268cce9239e734cefd30766c12815a",
  "bytecode": "0x6101006040526000600455600060055562f537006006553480156200002357600080fd5b50604051620025a0380380620025a0833981810160405260a08110156200004957600080fd5b5080516020820151604083015160608401516080909401519293919290919060006200007462000103565b600080546001600160a01b0319166001600160a01b03831690811782556040519293509160008051602062002580833981519152908290a35060016002556003805460ff191690556001600160601b0319606085811b821660805284901b1660a05260c082905260e0819052620000ed60003362000107565b620000f88562000117565b505050505062000332565b3390565b62000113828262000221565b5050565b6200012162000103565b6001600160a01b0316620001346200029c565b6001600160a01b03161462000190576040805162461bcd60e51b815260206004820181905260248201527f4f776e61626c653a2063616c6c6572206973206e6f7420746865206f776e6572604482015290519081900360640190fd5b6001600160a01b038116620001d75760405162461bcd60e51b81526004018080602001828103825260268152602001806200255a6026913960400191505060405180910390fd5b600080546040516001600160a01b03808516939216916000805160206200258083398151915291a3600080546001600160a01b0319166001600160a01b0392909216919091179055565b600082815260016020908152604090912062000248918390620016c1620002ab821b17901c565b1562000113576200025862000103565b6001600160a01b0316816001600160a01b0316837f2f8788117e7eff1d82e926ec794901d17c78024a50270940304540a733656f0d60405160405180910390a45050565b6000546001600160a01b031690565b6000620002c2836001600160a01b038416620002cb565b90505b92915050565b6000620002d983836200031a565b6200031157508154600181810184556000848152602080822090930184905584548482528286019093526040902091909155620002c5565b506000620002c5565b60009081526001919091016020526040902054151590565b60805160601c60a05160601c60c05160e0516121b5620003a560003980610ce35280610dc7525080610c425280610f0252806115105250806107db5280610eb25280610fc55280611262525080610a405280610c745280610d4b5280610f88528061141b528061158852506121b56000f3fe608060405234801561001057600080fd5b506004361061023c5760003560e01c806380faa57d1161013b578063ca15c873116100b8578063df136d651161007c578063df136d6514610593578063e9fad8ee1461059b578063ebe2b12b146105a3578063f13253bb146105ab578063f2fde38b146105b35761023c565b8063ca15c8731461051d578063cc1a378f1461053a578063cd3daf9d14610557578063d1af0c7d1461055f578063d547741f146105675761023c565b80639010d07c116100ff5780639010d07c146104a157806391d14854146104c4578063a217fddf146104f0578063a694fc3a146104f8578063c8f33c91146105155761023c565b806380faa57d1461043757806384a1931f1461043f5780638980f11f146104475780638b876347146104735780638da5cb5b146104995761023c565b8063386a9525116101c957806370a082311161018d57806370a08231146103ba578063715018a6146103e057806372f702f3146103e85780637ae2b5c71461040c5780637b0a47ee1461042f5761023c565b8063386a9525146103695780633c6b16ab146103715780633d18b9121461038e5780635c975abb1461039657806365530884146103b25761023c565b80631c1f78eb116102105780631c1f78eb146102cd578063248a9ca3146102d55780632e1a7d4d146102f25780632f2ff15d1461031157806336568abe1461033d5761023c565b80628cc262146102415780630700037d146102795780630f75327f1461029f57806318160ddd146102c5575b600080fd5b6102676004803603602081101561025757600080fd5b50356001600160a01b03166105d9565b60408051918252519081900360200190f35b6102676004803603602081101561028f57600080fd5b50356001600160a01b0316610657565b610267600480360360208110156102b557600080fd5b50356001600160a01b0316610669565b61026761067b565b610267610682565b610267600480360360208110156102eb57600080fd5b50356106a0565b61030f6004803603602081101561030857600080fd5b50356106b5565b005b61030f6004803603604081101561032757600080fd5b50803590602001356001600160a01b0316610849565b61030f6004803603604081101561035357600080fd5b50803590602001356001600160a01b03166108b5565b610267610916565b61030f6004803603602081101561038757600080fd5b503561091c565b61030f610b76565b61039e610dbc565b604080519115158252519081900360200190f35b610267610dc5565b610267600480360360208110156103d057600080fd5b50356001600160a01b0316610de9565b61030f610e04565b6103f0610eb0565b604080516001600160a01b039092168252519081900360200190f35b6102676004803603604081101561042257600080fd5b5080359060200135610ed4565b610267610eec565b610267610ef2565b610267610f00565b61030f6004803603604081101561045d57600080fd5b506001600160a01b038135169060200135610f24565b6102676004803603602081101561048957600080fd5b50356001600160a01b0316611099565b6103f06110ab565b6103f0600480360360408110156104b757600080fd5b50803590602001356110ba565b61039e600480360360408110156104da57600080fd5b50803590602001356001600160a01b03166110d2565b6102676110ea565b61030f6004803603602081101561050e57600080fd5b50356110ef565b6102676112d1565b6102676004803603602081101561053357600080fd5b50356112d7565b61030f6004803603602081101561055057600080fd5b50356112ee565b6102676113cb565b6103f0611419565b61030f6004803603604081101561057d57600080fd5b50803590602001356001600160a01b031661143d565b610267611496565b61030f61149c565b6102676114bf565b61030f6114c5565b61030f600480360360208110156105c957600080fd5b50356001600160a01b03166115bf565b6001600160a01b0381166000908152600a60209081526040808320546009909252822054610651919061064b90670de0b6b3a76400009061064590610626906106206113cb565b906116d6565b6001600160a01b0388166000908152600d602052604090205490611733565b9061178c565b906117f3565b92915050565b600a6020526000908152604090205481565b600b6020526000908152604090205481565b600c545b90565b600061069b60065460055461173390919063ffffffff16565b905090565b60009081526001602052604090206002015490565b6002805414156106fa576040805162461bcd60e51b815260206004820152601f6024820152600080516020611ecb833981519152604482015290519081900360640190fd5b60028055336107076113cb565b600855610712610ef2565b6007556001600160a01b038116156107595761072d816105d9565b6001600160a01b0382166000908152600a60209081526040808320939093556008546009909152919020555b600082116107985760405162461bcd60e51b815260040180806020018281038252602c815260200180611eeb602c913960400191505060405180910390fd5b600c546107a590836116d6565b600c55336000908152600d60205260409020546107c290836116d6565b336000818152600d602052604090209190915561080a907f00000000000000000000000000000000000000000000000000000000000000006001600160a01b0316908461184d565b60408051838152905133917f7084f5476618d8e60b11ef0d7d3f06914655adb8793e28ff7f018d4c76d505d5919081900360200190a250506001600255565b60008281526001602052604090206002015461086c906108676118a4565b6110d2565b6108a75760405162461bcd60e51b815260040180806020018281038252602f815260200180611e9c602f913960400191505060405180910390fd5b6108b182826118a8565b5050565b6108bd6118a4565b6001600160a01b0316816001600160a01b03161461090c5760405162461bcd60e51b815260040180806020018281038252602f815260200180612151602f913960400191505060405180910390fd5b6108b18282611911565b60065481565b6109246118a4565b6001600160a01b03166109356110ab565b6001600160a01b03161461097e576040805162461bcd60e51b81526020600482018190526024820152600080516020611fdc833981519152604482015290519081900360640190fd5b60006109886113cb565b600855610993610ef2565b6007556001600160a01b038116156109da576109ae816105d9565b6001600160a01b0382166000908152600a60209081526040808320939093556008546009909152919020555b60045442106109f9576006546109f190839061178c565b600555610a3c565b600454600090610a0990426116d6565b90506000610a226005548361173390919063ffffffff16565b600654909150610a369061064586846117f3565b60055550505b60007f00000000000000000000000000000000000000000000000000000000000000006001600160a01b03166370a08231306040518263ffffffff1660e01b815260040180826001600160a01b0316815260200191505060206040518083038186803b158015610aab57600080fd5b505afa158015610abf573d6000803e3d6000fd5b505050506040513d6020811015610ad557600080fd5b5051600654909150610ae890829061178c565b6005541115610b285760405162461bcd60e51b815260040180806020018281038252603d815260200180612114603d913960400191505060405180910390fd5b426007819055600654610b3b91906117f3565b6004556040805184815290517fde88a922e0d3b88b24e9623efeb464919c6bf9f66857a65e2bfcf2ce87a9433d9181900360200190a1505050565b600280541415610bbb576040805162461bcd60e51b815260206004820152601f6024820152600080516020611ecb833981519152604482015290519081900360640190fd5b6002805533610bc86113cb565b600855610bd3610ef2565b6007556001600160a01b03811615610c1a57610bee816105d9565b6001600160a01b0382166000908152600a60209081526040808320939093556008546009909152919020555b336000908152600a60205260409020548015610db357336000908152600a60205260408120557f00000000000000000000000000000000000000000000000000000000000000004210610cd657610c9b6001600160a01b037f000000000000000000000000000000000000000000000000000000000000000016338361184d565b60408051828152905133917fe2403640ba68fed3a2f88b7557551d1993f84b99bb10ff833f0cf8db0c5e0486919081900360200190a2610db3565b6000610d076064610645847f0000000000000000000000000000000000000000000000000000000000000000611733565b90506000610d1583836116d6565b336000908152600b6020526040902054909150610d3290836117f3565b336000818152600b6020526040902091909155610d7a907f00000000000000000000000000000000000000000000000000000000000000006001600160a01b0316908361184d565b60408051828152905133917fe2403640ba68fed3a2f88b7557551d1993f84b99bb10ff833f0cf8db0c5e0486919081900360200190a250505b50506001600255565b60035460ff1690565b7f000000000000000000000000000000000000000000000000000000000000000081565b6001600160a01b03166000908152600d602052604090205490565b610e0c6118a4565b6001600160a01b0316610e1d6110ab565b6001600160a01b031614610e66576040805162461bcd60e51b81526020600482018190526024820152600080516020611fdc833981519152604482015290519081900360640190fd5b600080546040516001600160a01b03909116907f8be0079c531659141344cd1fd0a4f28419497f9722a3daafe3b4186f6b6457e0908390a3600080546001600160a01b0319169055565b7f000000000000000000000000000000000000000000000000000000000000000081565b6000818310610ee35781610ee5565b825b9392505050565b60055481565b600061069b42600454610ed4565b7f000000000000000000000000000000000000000000000000000000000000000081565b610f2c6118a4565b6001600160a01b0316610f3d6110ab565b6001600160a01b031614610f86576040805162461bcd60e51b81526020600482018190526024820152600080516020611fdc833981519152604482015290519081900360640190fd5b7f00000000000000000000000000000000000000000000000000000000000000006001600160a01b0316826001600160a01b031614158015610ffa57507f00000000000000000000000000000000000000000000000000000000000000006001600160a01b0316826001600160a01b031614155b6110355760405162461bcd60e51b815260040180806020018281038252604c815260200180611ffc604c913960600191505060405180910390fd5b6110516110406110ab565b6001600160a01b038416908361184d565b604080516001600160a01b03841681526020810183905281517f8c1256b8896378cd5044f80c202f9772b9d77dc85c8a6eb51967210b09bfaa28929181900390910190a15050565b60096020526000908152604090205481565b6000546001600160a01b031690565b6000828152600160205260408120610ee5908361197a565b6000828152600160205260408120610ee59083611986565b600081565b600280541415611134576040805162461bcd60e51b815260206004820152601f6024820152600080516020611ecb833981519152604482015290519081900360640190fd5b60028055611140610dbc565b15611185576040805162461bcd60e51b815260206004820152601060248201526f14185d5cd8589b194e881c185d5cd95960821b604482015290519081900360640190fd5b3361118e6113cb565b600855611199610ef2565b6007556001600160a01b038116156111e0576111b4816105d9565b6001600160a01b0382166000908152600a60209081526040808320939093556008546009909152919020555b6000821161121f5760405162461bcd60e51b81526004018080602001828103825260258152602001806120486025913960400191505060405180910390fd5b600c5461122c90836117f3565b600c55336000908152600d602052604090205461124990836117f3565b336000818152600d6020526040902091909155611292907f00000000000000000000000000000000000000000000000000000000000000006001600160a01b031690308561199b565b60408051838152905133917f9e71bc8eea02a63969f509818f2dafb9254532904319f9dbda79b67bd34a5f3d919081900360200190a250506001600255565b60075481565b6000818152600160205260408120610651906119fb565b6112f66118a4565b6001600160a01b03166113076110ab565b6001600160a01b031614611350576040805162461bcd60e51b81526020600482018190526024820152600080516020611fdc833981519152604482015290519081900360640190fd5b60045442116113905760405162461bcd60e51b815260040180806020018281038252607d81526020018061206d607d913960800191505060405180910390fd5b60068190556040805182815290517ffb46ca5a5e06d4540d6387b930a7c978bce0db5f449ec6b3f5d07c6e1d44f2d39181900360200190a150565b6000600c54600014156113e1575060085461067f565b61069b611410600c54610645670de0b6b3a764000061140a60055461140a600754610620610ef2565b90611733565b600854906117f3565b7f000000000000000000000000000000000000000000000000000000000000000081565b60008281526001602052604090206002015461145b906108676118a4565b61090c5760405162461bcd60e51b8152600401808060200182810382526030815260200180611f636030913960400191505060405180910390fd5b60085481565b336000908152600d60205260409020546114b5906106b5565b6114bd610b76565b565b60045481565b60028054141561150a576040805162461bcd60e51b815260206004820152601f6024820152600080516020611ecb833981519152604482015290519081900360640190fd5b600280557f000000000000000000000000000000000000000000000000000000000000000042101561156d5760405162461bcd60e51b8152600401808060200182810382526028815260200180611f936028913960400191505060405180910390fd5b336000818152600b602052604081208054919055906115b7907f00000000000000000000000000000000000000000000000000000000000000006001600160a01b0316908361184d565b506001600255565b6115c76118a4565b6001600160a01b03166115d86110ab565b6001600160a01b031614611621576040805162461bcd60e51b81526020600482018190526024820152600080516020611fdc833981519152604482015290519081900360640190fd5b6001600160a01b0381166116665760405162461bcd60e51b8152600401808060200182810382526026815260200180611f176026913960400191505060405180910390fd5b600080546040516001600160a01b03808516939216917f8be0079c531659141344cd1fd0a4f28419497f9722a3daafe3b4186f6b6457e091a3600080546001600160a01b0319166001600160a01b0392909216919091179055565b6000610ee5836001600160a01b038416611a06565b60008282111561172d576040805162461bcd60e51b815260206004820152601e60248201527f536166654d6174683a207375627472616374696f6e206f766572666c6f770000604482015290519081900360640190fd5b50900390565b60008261174257506000610651565b8282028284828161174f57fe5b0414610ee55760405162461bcd60e51b8152600401808060200182810382526021815260200180611fbb6021913960400191505060405180910390fd5b60008082116117e2576040805162461bcd60e51b815260206004820152601a60248201527f536166654d6174683a206469766973696f6e206279207a65726f000000000000604482015290519081900360640190fd5b8183816117eb57fe5b049392505050565b600082820183811015610ee5576040805162461bcd60e51b815260206004820152601b60248201527f536166654d6174683a206164646974696f6e206f766572666c6f770000000000604482015290519081900360640190fd5b604080516001600160a01b038416602482015260448082018490528251808303909101815260649091019091526020810180516001600160e01b031663a9059cbb60e01b17905261189f908490611a50565b505050565b3390565b60008281526001602052604090206118c090826116c1565b156108b1576118cd6118a4565b6001600160a01b0316816001600160a01b0316837f2f8788117e7eff1d82e926ec794901d17c78024a50270940304540a733656f0d60405160405180910390a45050565b60008281526001602052604090206119299082611b01565b156108b1576119366118a4565b6001600160a01b0316816001600160a01b0316837ff6391f5c32d9c69d2a47ea670b442974b53935d1edc7fd64eb21e047a839171b60405160405180910390a45050565b6000610ee58383611b16565b6000610ee5836001600160a01b038416611b7a565b604080516001600160a01b0380861660248301528416604482015260648082018490528251808303909101815260849091019091526020810180516001600160e01b03166323b872dd60e01b1790526119f5908590611a50565b50505050565b600061065182611b92565b6000611a128383611b7a565b611a4857508154600181810184556000848152602080822090930184905584548482528286019093526040902091909155610651565b506000610651565b6060611aa5826040518060400160405280602081526020017f5361666545524332303a206c6f772d6c6576656c2063616c6c206661696c6564815250856001600160a01b0316611b969092919063ffffffff16565b80519091501561189f57808060200190516020811015611ac457600080fd5b505161189f5760405162461bcd60e51b815260040180806020018281038252602a8152602001806120ea602a913960400191505060405180910390fd5b6000610ee5836001600160a01b038416611bad565b81546000908210611b585760405162461bcd60e51b8152600401808060200182810382526022815260200180611e7a6022913960400191505060405180910390fd5b826000018281548110611b6757fe5b9060005260206000200154905092915050565b60009081526001919091016020526040902054151590565b5490565b6060611ba58484600085611c73565b949350505050565b60008181526001830160205260408120548015611c695783546000198083019190810190600090879083908110611be057fe5b9060005260206000200154905080876000018481548110611bfd57fe5b600091825260208083209091019290925582815260018981019092526040902090840190558654879080611c2d57fe5b60019003818190600052602060002001600090559055866001016000878152602001908152602001600020600090556001945050505050610651565b6000915050610651565b606082471015611cb45760405162461bcd60e51b8152600401808060200182810382526026815260200180611f3d6026913960400191505060405180910390fd5b611cbd85611dcf565b611d0e576040805162461bcd60e51b815260206004820152601d60248201527f416464726573733a2063616c6c20746f206e6f6e2d636f6e7472616374000000604482015290519081900360640190fd5b60006060866001600160a01b031685876040518082805190602001908083835b60208310611d4d5780518252601f199092019160209182019101611d2e565b6001836020036101000a03801982511681845116808217855250505050505090500191505060006040518083038185875af1925050503d8060008114611daf576040519150601f19603f3d011682016040523d82523d6000602084013e611db4565b606091505b5091509150611dc4828286611dd5565b979650505050505050565b3b151590565b60608315611de4575081610ee5565b825115611df45782518084602001fd5b8160405162461bcd60e51b81526004018080602001828103825283818151815260200191508051906020019080838360005b83811015611e3e578181015183820152602001611e26565b50505050905090810190601f168015611e6b5780820380516001836020036101000a031916815260200191505b509250505060405180910390fdfe456e756d657261626c655365743a20696e646578206f7574206f6620626f756e6473416363657373436f6e74726f6c3a2073656e646572206d75737420626520616e2061646d696e20746f206772616e745265656e7472616e637947756172643a207265656e7472616e742063616c6c004c69717569646974795265776172643a3a77697468647261773a2043616e6e6f7420776974686472617720304f776e61626c653a206e6577206f776e657220697320746865207a65726f2061646472657373416464726573733a20696e73756666696369656e742062616c616e636520666f722063616c6c416363657373436f6e74726f6c3a2073656e646572206d75737420626520616e2061646d696e20746f207265766f6b654c69717569646974795265776172643a3a636c61696d566573743a206e6f742074696d6520796574536166654d6174683a206d756c7469706c69636174696f6e206f766572666c6f774f776e61626c653a2063616c6c6572206973206e6f7420746865206f776e65724c69717569646974795265776172643a3a7265636f76657245524332303a2043616e6e6f7420776974686472617720746865207374616b696e67206f72207265776172647320746f6b656e734c69717569646974795265776172643a3a5374616b653a43616e6e6f74207374616b6520304c69717569646974795265776172643a3a736574526577617264734475726174696f6e3a2050726576696f7573207265776172647320706572696f64206d75737420626520636f6d706c657465206265666f7265206368616e67696e6720746865206475726174696f6e20666f7220746865206e657720706572696f645361666545524332303a204552433230206f7065726174696f6e20646964206e6f7420737563636565644c69717569646974795265776172643a3a6e6f74696679526577617264416d6f756e743a2050726f76696465642072657761726420746f6f2068696768416363657373436f6e74726f6c3a2063616e206f6e6c792072656e6f756e636520726f6c657320666f722073656c66a26469706673582212209cc2011b4e3778f71d074bed06bce25471938bf5782d95171679d2bb3525780464736f6c634300070500334f776e61626c653a206e6577206f776e657220697320746865207a65726f20616464726573738be0079c531659141344cd1fd0a4f28419497f9722a3daafe3b4186f6b6457e0",
  "devdoc": {
    "kind": "dev",
    "methods": {
      "balanceOf(address)": {
        "params": {
          "_account": "address"
        }
      },
      "constructor": {
        "params": {
          "_owner": "address",
          "_rewardsToken": "address",
          "_stakingToken": "uint256",
          "_vestingEnd": "uint256",
          "_vestingRatio": "uint256"
        }
      },
      "earned(address)": {
        "params": {
          "_account": "address"
        }
      },
      "getReward()": {
        "details": "updates rewards on callfrom the total reward a vestingRatio amount is locked into vesting and the rest is transferedif vesting period has passed transfer all rewards"
      },
      "getRoleAdmin(bytes32)": {
        "details": "Returns the admin role that controls `role`. See {grantRole} and {revokeRole}. To change a role's admin, use {_setRoleAdmin}."
      },
      "getRoleMember(bytes32,uint256)": {
        "details": "Returns one of the accounts that have `role`. `index` must be a value between 0 and {getRoleMemberCount}, non-inclusive. Role bearers are not sorted in any particular way, and their ordering may change at any point. WARNING: When using {getRoleMember} and {getRoleMemberCount}, make sure you perform all queries on the same block. See the following https://forum.openzeppelin.com/t/iterating-over-elements-on-enumerableset-in-openzeppelin-contracts/2296[forum post] for more information."
      },
      "getRoleMemberCount(bytes32)": {
        "details": "Returns the number of accounts that have `role`. Can be used together with {getRoleMember} to enumerate all bearers of a role."
      },
      "grantRole(bytes32,address)": {
        "details": "Grants `role` to `account`. If `account` had not been already granted `role`, emits a {RoleGranted} event. Requirements: - the caller must have ``role``'s admin role."
      },
      "hasRole(bytes32,address)": {
        "details": "Returns `true` if `account` has been granted `role`."
      },
      "min(uint256,uint256)": {
        "params": {
          "_a": "uint",
          "_b": "uint"
        }
      },
      "notifyRewardAmount(uint256)": {
        "details": "Only owner  can call itIncreases duration of rewards",
        "params": {
          "_reward": "uint"
        }
      },
      "owner()": {
        "details": "Returns the address of the current owner."
      },
      "paused()": {
        "details": "Returns true if the contract is paused, and false otherwise."
      },
      "recoverERC20(address,uint256)": {
        "details": "Only owner  can call it",
        "params": {
          "_tokenAddress": "address",
          "_tokenAmount": "uint"
        }
      },
      "renounceOwnership()": {
        "details": "Leaves the contract without owner. It will not be possible to call `onlyOwner` functions anymore. Can only be called by the current owner. NOTE: Renouncing ownership will leave the contract without an owner, thereby removing any functionality that is only available to the owner."
      },
      "renounceRole(bytes32,address)": {
        "details": "Revokes `role` from the calling account. Roles are often managed via {grantRole} and {revokeRole}: this function's purpose is to provide a mechanism for accounts to lose their privileges if they are compromised (such as when a trusted device is misplaced). If the calling account had been granted `role`, emits a {RoleRevoked} event. Requirements: - the caller must be `account`."
      },
      "revokeRole(bytes32,address)": {
        "details": "Revokes `role` from `account`. If `account` had been granted `role`, emits a {RoleRevoked} event. Requirements: - the caller must have ``role``'s admin role."
      },
      "setRewardsDuration(uint256)": {
        "details": "Only owner  can call itPrevious rewards must be complete",
        "params": {
          "_rewardsDuration": "uint"
        }
      },
      "stake(uint256)": {
        "details": "updates rewards on call",
        "params": {
          "_amount": "uint"
        }
      },
      "transferOwnership(address)": {
        "details": "Transfers ownership of the contract to a new account (`newOwner`). Can only be called by the current owner."
      },
      "withdraw(uint256)": {
        "details": "updates rewards on call",
        "params": {
          "_amount": "uint"
        }
      }
    },
    "stateVariables": {
      "_balances": {
        "details": "Tracks the amount of staked tokens per user"
      },
      "_totalSupply": {
        "details": "Tracks the total supply of staked tokens"
      }
    },
    "version": 1
  },
  "userdoc": {
    "events": {
      "Recovered(address,uint256)": {
        "notice": "An event emitted when a erc20 token is recovered"
      },
      "RewardAdded(uint256)": {
        "notice": "An event emitted when a reward is added"
      },
      "RewardPaid(address,uint256)": {
        "notice": "An event emitted when reward is paid to a user"
      },
      "RewardsDurationUpdated(uint256)": {
        "notice": "An event emitted when the rewards duration is updated"
      },
      "Staked(address,uint256)": {
        "notice": "An event emitted when tokens are staked to earn rewards"
      },
      "Withdrawn(address,uint256)": {
        "notice": "An event emitted when staked tokens are withdrawn"
      }
    },
    "kind": "user",
    "methods": {
      "balanceOf(address)": {
        "notice": "Returns the amount of staked tokens from specific user."
      },
      "claimVest()": {
        "notice": "Claims all vesting amount."
      },
      "constructor": {
        "notice": "Constructor"
      },
      "earned(address)": {
        "notice": "Returns the amount of reward tokens a user has earned."
      },
      "exit()": {
        "notice": "Removes all stake and transfers all rewards to the staker."
      },
      "getReward()": {
        "notice": "Transfers to the caller the current amount of rewards tokens earned."
      },
      "lastTimeRewardApplicable()": {
        "notice": "Returns the minimun between current block timestamp or the finish period of rewards."
      },
      "lastUpdateTime()": {
        "notice": "Last time rewards were updated"
      },
      "min(uint256,uint256)": {
        "notice": "Returns the minimun between two variables"
      },
      "notifyRewardAmount(uint256)": {
        "notice": "Notifies the contract that reward has been added to be given."
      },
      "periodFinish()": {
        "notice": "Tracks the period where users stop earning rewards"
      },
      "recoverERC20(address,uint256)": {
        "notice": "Added to support recovering LP Rewards from other systems such as BAL to be distributed to holders"
      },
      "rewardPerToken()": {
        "notice": "Returns the calculated reward per token deposited."
      },
      "rewardPerTokenStored()": {
        "notice": "Amount of reward calculated per token stored"
      },
      "rewards(address)": {
        "notice": "Tracks the user rewards"
      },
      "rewardsDuration()": {
        "notice": "How long the rewards lasts, it updates when more rewards are added"
      },
      "rewardsToken()": {
        "notice": "Address of the reward"
      },
      "setRewardsDuration(uint256)": {
        "notice": "Updates the reward duration"
      },
      "stake(uint256)": {
        "notice": "Transfer staking token to contract"
      },
      "stakingToken()": {
        "notice": "Address of the staking token"
      },
      "totalSupply()": {
        "notice": "Returns the total amount of staked tokens."
      },
      "userRewardPerTokenPaid(address)": {
        "notice": "Track the rewards paid to users"
      },
      "vestingAmounts(address)": {
        "notice": "tracks vesting amount per user"
      },
      "vestingEnd()": {
        "notice": "Time were vesting ends"
      },
      "vestingRatio()": {
        "notice": "Vesting ratio"
      },
      "withdraw(uint256)": {
        "notice": "Remove staking token and transfer back to staker"
      }
    },
    "version": 1
  },
  "storageLayout": {
    "storage": [
      {
        "astId": 336,
        "contract": "contracts/LiquidityReward.sol:LiquidityReward",
        "label": "_owner",
        "offset": 0,
        "slot": "0",
        "type": "t_address"
      },
      {
        "astId": 68,
        "contract": "contracts/LiquidityReward.sol:LiquidityReward",
        "label": "_roles",
        "offset": 0,
        "slot": "1",
        "type": "t_mapping(t_bytes32,t_struct(RoleData)64_storage)"
      },
      {
        "astId": 2791,
        "contract": "contracts/LiquidityReward.sol:LiquidityReward",
        "label": "_status",
        "offset": 0,
        "slot": "2",
        "type": "t_uint256"
      },
      {
        "astId": 2706,
        "contract": "contracts/LiquidityReward.sol:LiquidityReward",
        "label": "_paused",
        "offset": 0,
        "slot": "3",
        "type": "t_bool"
      },
      {
        "astId": 5020,
        "contract": "contracts/LiquidityReward.sol:LiquidityReward",
        "label": "periodFinish",
        "offset": 0,
        "slot": "4",
        "type": "t_uint256"
      },
      {
        "astId": 5023,
        "contract": "contracts/LiquidityReward.sol:LiquidityReward",
        "label": "rewardRate",
        "offset": 0,
        "slot": "5",
        "type": "t_uint256"
      },
      {
        "astId": 5027,
        "contract": "contracts/LiquidityReward.sol:LiquidityReward",
        "label": "rewardsDuration",
        "offset": 0,
        "slot": "6",
        "type": "t_uint256"
      },
      {
        "astId": 5030,
        "contract": "contracts/LiquidityReward.sol:LiquidityReward",
        "label": "lastUpdateTime",
        "offset": 0,
        "slot": "7",
        "type": "t_uint256"
      },
      {
        "astId": 5033,
        "contract": "contracts/LiquidityReward.sol:LiquidityReward",
        "label": "rewardPerTokenStored",
        "offset": 0,
        "slot": "8",
        "type": "t_uint256"
      },
      {
        "astId": 5038,
        "contract": "contracts/LiquidityReward.sol:LiquidityReward",
        "label": "userRewardPerTokenPaid",
        "offset": 0,
        "slot": "9",
        "type": "t_mapping(t_address,t_uint256)"
      },
      {
        "astId": 5043,
        "contract": "contracts/LiquidityReward.sol:LiquidityReward",
        "label": "rewards",
        "offset": 0,
        "slot": "10",
        "type": "t_mapping(t_address,t_uint256)"
      },
      {
        "astId": 5054,
        "contract": "contracts/LiquidityReward.sol:LiquidityReward",
        "label": "vestingAmounts",
        "offset": 0,
        "slot": "11",
        "type": "t_mapping(t_address,t_uint256)"
      },
      {
        "astId": 5057,
        "contract": "contracts/LiquidityReward.sol:LiquidityReward",
        "label": "_totalSupply",
        "offset": 0,
        "slot": "12",
        "type": "t_uint256"
      },
      {
        "astId": 5062,
        "contract": "contracts/LiquidityReward.sol:LiquidityReward",
        "label": "_balances",
        "offset": 0,
        "slot": "13",
        "type": "t_mapping(t_address,t_uint256)"
      }
    ],
    "types": {
      "t_address": {
        "encoding": "inplace",
        "label": "address",
        "numberOfBytes": "20"
      },
      "t_array(t_bytes32)dyn_storage": {
        "base": "t_bytes32",
        "encoding": "dynamic_array",
        "label": "bytes32[]",
        "numberOfBytes": "32"
      },
      "t_bool": {
        "encoding": "inplace",
        "label": "bool",
        "numberOfBytes": "1"
      },
      "t_bytes32": {
        "encoding": "inplace",
        "label": "bytes32",
        "numberOfBytes": "32"
      },
      "t_mapping(t_address,t_uint256)": {
        "encoding": "mapping",
        "key": "t_address",
        "label": "mapping(address => uint256)",
        "numberOfBytes": "32",
        "value": "t_uint256"
      },
      "t_mapping(t_bytes32,t_struct(RoleData)64_storage)": {
        "encoding": "mapping",
        "key": "t_bytes32",
        "label": "mapping(bytes32 => struct AccessControl.RoleData)",
        "numberOfBytes": "32",
        "value": "t_struct(RoleData)64_storage"
      },
      "t_mapping(t_bytes32,t_uint256)": {
        "encoding": "mapping",
        "key": "t_bytes32",
        "label": "mapping(bytes32 => uint256)",
        "numberOfBytes": "32",
        "value": "t_uint256"
      },
      "t_struct(AddressSet)2472_storage": {
        "encoding": "inplace",
        "label": "struct EnumerableSet.AddressSet",
        "members": [
          {
            "astId": 2471,
            "contract": "contracts/LiquidityReward.sol:LiquidityReward",
            "label": "_inner",
            "offset": 0,
            "slot": "0",
            "type": "t_struct(Set)2207_storage"
          }
        ],
        "numberOfBytes": "64"
      },
      "t_struct(RoleData)64_storage": {
        "encoding": "inplace",
        "label": "struct AccessControl.RoleData",
        "members": [
          {
            "astId": 61,
            "contract": "contracts/LiquidityReward.sol:LiquidityReward",
            "label": "members",
            "offset": 0,
            "slot": "0",
            "type": "t_struct(AddressSet)2472_storage"
          },
          {
            "astId": 63,
            "contract": "contracts/LiquidityReward.sol:LiquidityReward",
            "label": "adminRole",
            "offset": 0,
            "slot": "2",
            "type": "t_bytes32"
          }
        ],
        "numberOfBytes": "96"
      },
      "t_struct(Set)2207_storage": {
        "encoding": "inplace",
        "label": "struct EnumerableSet.Set",
        "members": [
          {
            "astId": 2202,
            "contract": "contracts/LiquidityReward.sol:LiquidityReward",
            "label": "_values",
            "offset": 0,
            "slot": "0",
            "type": "t_array(t_bytes32)dyn_storage"
          },
          {
            "astId": 2206,
            "contract": "contracts/LiquidityReward.sol:LiquidityReward",
            "label": "_indexes",
            "offset": 0,
            "slot": "1",
            "type": "t_mapping(t_bytes32,t_uint256)"
          }
        ],
        "numberOfBytes": "64"
      },
      "t_uint256": {
        "encoding": "inplace",
        "label": "uint256",
        "numberOfBytes": "32"
      }
    }
  }
}