{
  "address": "0x5Da610f142f6762AB7f64aa305c39563a1cF336e",
  "abi": [
    {
      "inputs": [
        {
          "internalType": "contract Orchestrator",
          "name": "_orchestrator",
          "type": "address"
        },
        {
          "internalType": "uint256",
          "name": "_divisor",
          "type": "uint256"
        },
        {
          "internalType": "uint256",
          "name": "_ratio",
          "type": "uint256"
        },
        {
          "internalType": "uint256",
          "name": "_burnFee",
          "type": "uint256"
        },
        {
          "internalType": "uint256",
          "name": "_liquidationPenalty",
          "type": "uint256"
        },
        {
          "internalType": "address",
          "name": "_tcapOracle",
          "type": "address"
        },
        {
          "internalType": "contract TCAP",
          "name": "_tcapAddress",
          "type": "address"
        },
        {
          "internalType": "address",
          "name": "_collateralAddress",
          "type": "address"
        },
        {
          "internalType": "address",
          "name": "_collateralOracle",
          "type": "address"
        },
        {
          "internalType": "address",
          "name": "_ethOracle",
          "type": "address"
        },
        {
          "internalType": "address",
          "name": "_treasury",
          "type": "address"
        }
      ],
      "stateMutability": "nonpayable",
      "type": "constructor"
    },
    {
      "anonymous": false,
      "inputs": [
        {
          "indexed": true,
          "internalType": "address",
          "name": "_owner",
          "type": "address"
        },
        {
          "indexed": true,
          "internalType": "uint256",
          "name": "_id",
          "type": "uint256"
        },
        {
          "indexed": false,
          "internalType": "uint256",
          "name": "_amount",
          "type": "uint256"
        }
      ],
      "name": "CollateralAdded",
      "type": "event"
    },
    {
      "anonymous": false,
      "inputs": [
        {
          "indexed": true,
          "internalType": "address",
          "name": "_owner",
          "type": "address"
        },
        {
          "indexed": true,
          "internalType": "uint256",
          "name": "_id",
          "type": "uint256"
        },
        {
          "indexed": false,
          "internalType": "uint256",
          "name": "_amount",
          "type": "uint256"
        }
      ],
      "name": "CollateralRemoved",
      "type": "event"
    },
    {
      "anonymous": false,
      "inputs": [
        {
          "indexed": true,
          "internalType": "address",
          "name": "_owner",
          "type": "address"
        },
        {
          "indexed": false,
          "internalType": "uint256",
          "name": "_burnFee",
          "type": "uint256"
        }
      ],
      "name": "NewBurnFee",
      "type": "event"
    },
    {
      "anonymous": false,
      "inputs": [
        {
          "indexed": true,
          "internalType": "address",
          "name": "_owner",
          "type": "address"
        },
        {
          "indexed": false,
          "internalType": "uint256",
          "name": "_liquidationPenalty",
          "type": "uint256"
        }
      ],
      "name": "NewLiquidationPenalty",
      "type": "event"
    },
    {
      "anonymous": false,
      "inputs": [
        {
          "indexed": true,
          "internalType": "address",
          "name": "_owner",
          "type": "address"
        },
        {
          "indexed": false,
          "internalType": "uint256",
          "name": "_minimumTCAP",
          "type": "uint256"
        }
      ],
      "name": "NewMinimumTCAP",
      "type": "event"
    },
    {
      "anonymous": false,
      "inputs": [
        {
          "indexed": true,
          "internalType": "address",
          "name": "_owner",
          "type": "address"
        },
        {
          "indexed": false,
          "internalType": "uint256",
          "name": "_ratio",
          "type": "uint256"
        }
      ],
      "name": "NewRatio",
      "type": "event"
    },
    {
      "anonymous": false,
      "inputs": [
        {
          "indexed": true,
          "internalType": "address",
          "name": "_owner",
          "type": "address"
        },
        {
          "indexed": false,
          "internalType": "address",
          "name": "_tresury",
          "type": "address"
        }
      ],
      "name": "NewTreasury",
      "type": "event"
    },
    {
      "anonymous": false,
      "inputs": [
        {
          "indexed": true,
          "internalType": "address",
          "name": "previousOwner",
          "type": "address"
        },
        {
          "indexed": true,
          "internalType": "address",
          "name": "newOwner",
          "type": "address"
        }
      ],
      "name": "OwnershipTransferred",
      "type": "event"
    },
    {
      "anonymous": false,
      "inputs": [
        {
          "indexed": false,
          "internalType": "address",
          "name": "account",
          "type": "address"
        }
      ],
      "name": "Paused",
      "type": "event"
    },
    {
      "anonymous": false,
      "inputs": [
        {
          "indexed": false,
          "internalType": "address",
          "name": "_token",
          "type": "address"
        },
        {
          "indexed": false,
          "internalType": "uint256",
          "name": "_amount",
          "type": "uint256"
        }
      ],
      "name": "Recovered",
      "type": "event"
    },
    {
      "anonymous": false,
      "inputs": [
        {
          "indexed": true,
          "internalType": "bytes32",
          "name": "role",
          "type": "bytes32"
        },
        {
          "indexed": true,
          "internalType": "bytes32",
          "name": "previousAdminRole",
          "type": "bytes32"
        },
        {
          "indexed": true,
          "internalType": "bytes32",
          "name": "newAdminRole",
          "type": "bytes32"
        }
      ],
      "name": "RoleAdminChanged",
      "type": "event"
    },
    {
      "anonymous": false,
      "inputs": [
        {
          "indexed": true,
          "internalType": "bytes32",
          "name": "role",
          "type": "bytes32"
        },
        {
          "indexed": true,
          "internalType": "address",
          "name": "account",
          "type": "address"
        },
        {
          "indexed": true,
          "internalType": "address",
          "name": "sender",
          "type": "address"
        }
      ],
      "name": "RoleGranted",
      "type": "event"
    },
    {
      "anonymous": false,
      "inputs": [
        {
          "indexed": true,
          "internalType": "bytes32",
          "name": "role",
          "type": "bytes32"
        },
        {
          "indexed": true,
          "internalType": "address",
          "name": "account",
          "type": "address"
        },
        {
          "indexed": true,
          "internalType": "address",
          "name": "sender",
          "type": "address"
        }
      ],
      "name": "RoleRevoked",
      "type": "event"
    },
    {
      "anonymous": false,
      "inputs": [
        {
          "indexed": true,
          "internalType": "address",
          "name": "_owner",
          "type": "address"
        },
        {
          "indexed": true,
          "internalType": "uint256",
          "name": "_id",
          "type": "uint256"
        },
        {
          "indexed": false,
          "internalType": "uint256",
          "name": "_amount",
          "type": "uint256"
        }
      ],
      "name": "TokensBurned",
      "type": "event"
    },
    {
      "anonymous": false,
      "inputs": [
        {
          "indexed": true,
          "internalType": "address",
          "name": "_owner",
          "type": "address"
        },
        {
          "indexed": true,
          "internalType": "uint256",
          "name": "_id",
          "type": "uint256"
        },
        {
          "indexed": false,
          "internalType": "uint256",
          "name": "_amount",
          "type": "uint256"
        }
      ],
      "name": "TokensMinted",
      "type": "event"
    },
    {
      "anonymous": false,
      "inputs": [
        {
          "indexed": false,
          "internalType": "address",
          "name": "account",
          "type": "address"
        }
      ],
      "name": "Unpaused",
      "type": "event"
    },
    {
      "anonymous": false,
      "inputs": [
        {
          "indexed": true,
          "internalType": "address",
          "name": "_owner",
          "type": "address"
        },
        {
          "indexed": true,
          "internalType": "uint256",
          "name": "_id",
          "type": "uint256"
        }
      ],
      "name": "VaultCreated",
      "type": "event"
    },
    {
      "anonymous": false,
      "inputs": [
        {
          "indexed": true,
          "internalType": "uint256",
          "name": "_vaultId",
          "type": "uint256"
        },
        {
          "indexed": true,
          "internalType": "address",
          "name": "_liquidator",
          "type": "address"
        },
        {
          "indexed": false,
          "internalType": "uint256",
          "name": "_liquidationCollateral",
          "type": "uint256"
        },
        {
          "indexed": false,
          "internalType": "uint256",
          "name": "_reward",
          "type": "uint256"
        }
      ],
      "name": "VaultLiquidated",
      "type": "event"
    },
    {
      "inputs": [],
      "name": "DEFAULT_ADMIN_ROLE",
      "outputs": [
        {
          "internalType": "bytes32",
          "name": "",
          "type": "bytes32"
        }
      ],
      "stateMutability": "view",
      "type": "function"
    },
    {
      "inputs": [],
      "name": "ETHPriceOracle",
      "outputs": [
        {
          "internalType": "contract ChainlinkOracle",
          "name": "",
          "type": "address"
        }
      ],
      "stateMutability": "view",
      "type": "function"
    },
    {
      "inputs": [],
      "name": "MAX_DECIMAL_PLACES",
      "outputs": [
        {
          "internalType": "uint8",
          "name": "",
          "type": "uint8"
        }
      ],
      "stateMutability": "view",
      "type": "function"
    },
    {
      "inputs": [],
      "name": "MAX_FEE",
      "outputs": [
        {
          "internalType": "uint256",
          "name": "",
          "type": "uint256"
        }
      ],
      "stateMutability": "view",
      "type": "function"
    },
    {
      "inputs": [],
      "name": "MIN_RATIO",
      "outputs": [
        {
          "internalType": "uint256",
          "name": "",
          "type": "uint256"
        }
      ],
      "stateMutability": "view",
      "type": "function"
    },
    {
      "inputs": [],
      "name": "TCAPPrice",
      "outputs": [
        {
          "internalType": "uint256",
          "name": "price",
          "type": "uint256"
        }
      ],
      "stateMutability": "view",
      "type": "function"
    },
    {
      "inputs": [],
      "name": "TCAPToken",
      "outputs": [
        {
          "internalType": "contract TCAP",
          "name": "",
          "type": "address"
        }
      ],
      "stateMutability": "view",
      "type": "function"
    },
    {
      "inputs": [
        {
          "internalType": "uint256",
          "name": "_amount",
          "type": "uint256"
        }
      ],
      "name": "addCollateral",
      "outputs": [],
      "stateMutability": "nonpayable",
      "type": "function"
    },
    {
      "inputs": [],
      "name": "addCollateralETH",
      "outputs": [],
      "stateMutability": "payable",
      "type": "function"
    },
    {
      "inputs": [
        {
          "internalType": "uint256",
          "name": "_amount",
          "type": "uint256"
        }
      ],
      "name": "burn",
      "outputs": [],
      "stateMutability": "payable",
      "type": "function"
    },
    {
      "inputs": [],
      "name": "burnFee",
      "outputs": [
        {
          "internalType": "uint256",
          "name": "",
          "type": "uint256"
        }
      ],
      "stateMutability": "view",
      "type": "function"
    },
    {
      "inputs": [],
      "name": "collateralContract",
      "outputs": [
        {
          "internalType": "contract IERC20",
          "name": "",
          "type": "address"
        }
      ],
      "stateMutability": "view",
      "type": "function"
    },
    {
      "inputs": [],
      "name": "collateralDecimalsAdjustmentFactor",
      "outputs": [
        {
          "internalType": "uint256",
          "name": "",
          "type": "uint256"
        }
      ],
      "stateMutability": "view",
      "type": "function"
    },
    {
      "inputs": [],
      "name": "collateralPriceOracle",
      "outputs": [
        {
          "internalType": "contract ChainlinkOracle",
          "name": "",
          "type": "address"
        }
      ],
      "stateMutability": "view",
      "type": "function"
    },
    {
      "inputs": [],
      "name": "counter",
      "outputs": [
        {
          "internalType": "uint256",
          "name": "_value",
          "type": "uint256"
        }
      ],
      "stateMutability": "view",
      "type": "function"
    },
    {
      "inputs": [],
      "name": "createVault",
      "outputs": [],
      "stateMutability": "nonpayable",
      "type": "function"
    },
    {
      "inputs": [],
      "name": "divisor",
      "outputs": [
        {
          "internalType": "uint256",
          "name": "",
          "type": "uint256"
        }
      ],
      "stateMutability": "view",
      "type": "function"
    },
    {
      "inputs": [
        {
          "internalType": "uint256",
          "name": "_amount",
          "type": "uint256"
        }
      ],
      "name": "getFee",
      "outputs": [
        {
          "internalType": "uint256",
          "name": "fee",
          "type": "uint256"
        }
      ],
      "stateMutability": "view",
      "type": "function"
    },
    {
      "inputs": [
        {
          "internalType": "contract ChainlinkOracle",
          "name": "_oracle",
          "type": "address"
        }
      ],
      "name": "getOraclePrice",
      "outputs": [
        {
          "internalType": "uint256",
          "name": "price",
          "type": "uint256"
        }
      ],
      "stateMutability": "view",
      "type": "function"
    },
    {
      "inputs": [
        {
          "internalType": "bytes32",
          "name": "role",
          "type": "bytes32"
        }
      ],
      "name": "getRoleAdmin",
      "outputs": [
        {
          "internalType": "bytes32",
          "name": "",
          "type": "bytes32"
        }
      ],
      "stateMutability": "view",
      "type": "function"
    },
    {
      "inputs": [
        {
          "internalType": "bytes32",
          "name": "role",
          "type": "bytes32"
        },
        {
          "internalType": "uint256",
          "name": "index",
          "type": "uint256"
        }
      ],
      "name": "getRoleMember",
      "outputs": [
        {
          "internalType": "address",
          "name": "",
          "type": "address"
        }
      ],
      "stateMutability": "view",
      "type": "function"
    },
    {
      "inputs": [
        {
          "internalType": "bytes32",
          "name": "role",
          "type": "bytes32"
        }
      ],
      "name": "getRoleMemberCount",
      "outputs": [
        {
          "internalType": "uint256",
          "name": "",
          "type": "uint256"
        }
      ],
      "stateMutability": "view",
      "type": "function"
    },
    {
      "inputs": [
        {
          "internalType": "uint256",
          "name": "_id",
          "type": "uint256"
        }
      ],
      "name": "getVault",
      "outputs": [
        {
          "internalType": "uint256",
          "name": "",
          "type": "uint256"
        },
        {
          "internalType": "uint256",
          "name": "",
          "type": "uint256"
        },
        {
          "internalType": "address",
          "name": "",
          "type": "address"
        },
        {
          "internalType": "uint256",
          "name": "",
          "type": "uint256"
        }
      ],
      "stateMutability": "view",
      "type": "function"
    },
    {
      "inputs": [
        {
          "internalType": "uint256",
          "name": "_vaultId",
          "type": "uint256"
        }
      ],
      "name": "getVaultRatio",
      "outputs": [
        {
          "internalType": "uint256",
          "name": "currentRatio",
          "type": "uint256"
        }
      ],
      "stateMutability": "view",
      "type": "function"
    },
    {
      "inputs": [
        {
          "internalType": "bytes32",
          "name": "role",
          "type": "bytes32"
        },
        {
          "internalType": "address",
          "name": "account",
          "type": "address"
        }
      ],
      "name": "grantRole",
      "outputs": [],
      "stateMutability": "nonpayable",
      "type": "function"
    },
    {
      "inputs": [
        {
          "internalType": "bytes32",
          "name": "role",
          "type": "bytes32"
        },
        {
          "internalType": "address",
          "name": "account",
          "type": "address"
        }
      ],
      "name": "hasRole",
      "outputs": [
        {
          "internalType": "bool",
          "name": "",
          "type": "bool"
        }
      ],
      "stateMutability": "view",
      "type": "function"
    },
    {
      "inputs": [
        {
          "internalType": "uint256",
          "name": "_vaultId",
          "type": "uint256"
        },
        {
          "internalType": "uint256",
          "name": "_maxTCAP",
          "type": "uint256"
        }
      ],
      "name": "liquidateVault",
      "outputs": [],
      "stateMutability": "payable",
      "type": "function"
    },
    {
      "inputs": [],
      "name": "liquidationPenalty",
      "outputs": [
        {
          "internalType": "uint256",
          "name": "",
          "type": "uint256"
        }
      ],
      "stateMutability": "view",
      "type": "function"
    },
    {
      "inputs": [
        {
          "internalType": "uint256",
          "name": "_vaultId",
          "type": "uint256"
        }
      ],
      "name": "liquidationReward",
      "outputs": [
        {
          "internalType": "uint256",
          "name": "rewardCollateral",
          "type": "uint256"
        }
      ],
      "stateMutability": "view",
      "type": "function"
    },
    {
      "inputs": [],
      "name": "minimumTCAP",
      "outputs": [
        {
          "internalType": "uint256",
          "name": "",
          "type": "uint256"
        }
      ],
      "stateMutability": "view",
      "type": "function"
    },
    {
      "inputs": [
        {
          "internalType": "uint256",
          "name": "_amount",
          "type": "uint256"
        }
      ],
      "name": "mint",
      "outputs": [],
      "stateMutability": "nonpayable",
      "type": "function"
    },
    {
      "inputs": [],
      "name": "oracleDigits",
      "outputs": [
        {
          "internalType": "uint256",
          "name": "",
          "type": "uint256"
        }
      ],
      "stateMutability": "view",
      "type": "function"
    },
    {
      "inputs": [],
      "name": "owner",
      "outputs": [
        {
          "internalType": "address",
          "name": "",
          "type": "address"
        }
      ],
      "stateMutability": "view",
      "type": "function"
    },
    {
      "inputs": [],
      "name": "pause",
      "outputs": [],
      "stateMutability": "nonpayable",
      "type": "function"
    },
    {
      "inputs": [],
      "name": "paused",
      "outputs": [
        {
          "internalType": "bool",
          "name": "",
          "type": "bool"
        }
      ],
      "stateMutability": "view",
      "type": "function"
    },
    {
      "inputs": [],
      "name": "ratio",
      "outputs": [
        {
          "internalType": "uint256",
          "name": "",
          "type": "uint256"
        }
      ],
      "stateMutability": "view",
      "type": "function"
    },
    {
      "inputs": [
        {
          "internalType": "address",
          "name": "_tokenAddress",
          "type": "address"
        },
        {
          "internalType": "uint256",
          "name": "_tokenAmount",
          "type": "uint256"
        }
      ],
      "name": "recoverERC20",
      "outputs": [],
      "stateMutability": "nonpayable",
      "type": "function"
    },
    {
      "inputs": [
        {
          "internalType": "uint256",
          "name": "_amount",
          "type": "uint256"
        }
      ],
      "name": "removeCollateral",
      "outputs": [],
      "stateMutability": "nonpayable",
      "type": "function"
    },
    {
      "inputs": [
        {
          "internalType": "uint256",
          "name": "_amount",
          "type": "uint256"
        }
      ],
      "name": "removeCollateralETH",
      "outputs": [],
      "stateMutability": "nonpayable",
      "type": "function"
    },
    {
      "inputs": [],
      "name": "renounceOwnership",
      "outputs": [],
      "stateMutability": "nonpayable",
      "type": "function"
    },
    {
      "inputs": [
        {
          "internalType": "bytes32",
          "name": "role",
          "type": "bytes32"
        },
        {
          "internalType": "address",
          "name": "account",
          "type": "address"
        }
      ],
      "name": "renounceRole",
      "outputs": [],
      "stateMutability": "nonpayable",
      "type": "function"
    },
    {
      "inputs": [
        {
          "internalType": "uint256",
          "name": "_amount",
          "type": "uint256"
        }
      ],
      "name": "requiredCollateral",
      "outputs": [
        {
          "internalType": "uint256",
          "name": "collateral",
          "type": "uint256"
        }
      ],
      "stateMutability": "view",
      "type": "function"
    },
    {
      "inputs": [
        {
          "internalType": "uint256",
          "name": "_vaultId",
          "type": "uint256"
        }
      ],
      "name": "requiredLiquidationTCAP",
      "outputs": [
        {
          "internalType": "uint256",
          "name": "amount",
          "type": "uint256"
        }
      ],
      "stateMutability": "view",
      "type": "function"
    },
    {
      "inputs": [
        {
          "internalType": "bytes32",
          "name": "role",
          "type": "bytes32"
        },
        {
          "internalType": "address",
          "name": "account",
          "type": "address"
        }
      ],
      "name": "revokeRole",
      "outputs": [],
      "stateMutability": "nonpayable",
      "type": "function"
    },
    {
      "inputs": [
        {
          "internalType": "uint256",
          "name": "_burnFee",
          "type": "uint256"
        }
      ],
      "name": "setBurnFee",
      "outputs": [],
      "stateMutability": "nonpayable",
      "type": "function"
    },
    {
      "inputs": [
        {
          "internalType": "uint256",
          "name": "_liquidationPenalty",
          "type": "uint256"
        }
      ],
      "name": "setLiquidationPenalty",
      "outputs": [],
      "stateMutability": "nonpayable",
      "type": "function"
    },
    {
      "inputs": [
        {
          "internalType": "uint256",
          "name": "_minimumTCAP",
          "type": "uint256"
        }
      ],
      "name": "setMinimumTCAP",
      "outputs": [],
      "stateMutability": "nonpayable",
      "type": "function"
    },
    {
      "inputs": [
        {
          "internalType": "uint256",
          "name": "_ratio",
          "type": "uint256"
        }
      ],
      "name": "setRatio",
      "outputs": [],
      "stateMutability": "nonpayable",
      "type": "function"
    },
    {
      "inputs": [
        {
          "internalType": "address",
          "name": "_treasury",
          "type": "address"
        }
      ],
      "name": "setTreasury",
      "outputs": [],
      "stateMutability": "nonpayable",
      "type": "function"
    },
    {
      "inputs": [
        {
          "internalType": "bytes4",
          "name": "_interfaceId",
          "type": "bytes4"
        }
      ],
      "name": "supportsInterface",
      "outputs": [
        {
          "internalType": "bool",
          "name": "",
          "type": "bool"
        }
      ],
      "stateMutability": "pure",
      "type": "function"
    },
    {
      "inputs": [],
      "name": "tcapOracle",
      "outputs": [
        {
          "internalType": "contract ChainlinkOracle",
          "name": "",
          "type": "address"
        }
      ],
      "stateMutability": "view",
      "type": "function"
    },
    {
      "inputs": [
        {
          "internalType": "address",
          "name": "newOwner",
          "type": "address"
        }
      ],
      "name": "transferOwnership",
      "outputs": [],
      "stateMutability": "nonpayable",
      "type": "function"
    },
    {
      "inputs": [],
      "name": "treasury",
      "outputs": [
        {
          "internalType": "address",
          "name": "",
          "type": "address"
        }
      ],
      "stateMutability": "view",
      "type": "function"
    },
    {
      "inputs": [],
      "name": "unpause",
      "outputs": [],
      "stateMutability": "nonpayable",
      "type": "function"
    },
    {
      "inputs": [
        {
          "internalType": "address",
          "name": "",
          "type": "address"
        }
      ],
      "name": "userToVault",
      "outputs": [
        {
          "internalType": "uint256",
          "name": "",
          "type": "uint256"
        }
      ],
      "stateMutability": "view",
      "type": "function"
    },
    {
      "inputs": [
        {
          "internalType": "uint256",
          "name": "",
          "type": "uint256"
        }
      ],
      "name": "vaults",
      "outputs": [
        {
          "internalType": "uint256",
          "name": "Id",
          "type": "uint256"
        },
        {
          "internalType": "uint256",
          "name": "Collateral",
          "type": "uint256"
        },
        {
          "internalType": "uint256",
          "name": "Debt",
          "type": "uint256"
        },
        {
          "internalType": "address",
          "name": "Owner",
          "type": "address"
        }
      ],
      "stateMutability": "view",
      "type": "function"
    },
    {
      "stateMutability": "payable",
      "type": "receive"
    }
  ],
  "transactionHash": "0x181458e731a2cfe5e79d61a50732aa3f752a4d3b0be4481984a3ad2af3ff4982",
  "args": [
    "0x32ac6dBaf90A4C45f160D13B32fDD10D75D09976",
    "10000000000",
    "110",
    "1",
    "1",
    "0x87388c142a3848F966FBA7Db22663D9CCa7d8a86",
    "0x565224C2b5Bdf33f3970d35f82945075F90128F4",
    "0x5D3E425A099c2863224d6D63b330Df0F22B299b9",
    "0x731Aa03C683Afb292732C31c1d50C491B8d8043F",
    "0x731Aa03C683Afb292732C31c1d50C491B8d8043F",
    "0x65a2B1B48b7997a50947E83aaf58E29a54a0B735"
  ],
  "solcInputHash": "a2201d41b2ce5f6df228de2f84cf0689",
  "bytecode": "0x61012060405260006009553480156200001757600080fd5b5060405162004a6538038062004a6583398181016040526101608110156200003e57600080fd5b508051602082015160408301516060840151608085015160a086015160c087015160e08801516101008901516101208a0151610140909a0151989997989697959694959394929391929091908a8a8a8a8a8a8a8a8a8a8a6000620000a16200033b565b600080546001600160a01b0319166001600160a01b03831690811782556040519293509160008051602062004a45833981519152908290a35060016002556003805460ff1916905588620001038860646200033f602090811b62002fcf17901c565b10620001415760405162461bcd60e51b8152600401808060200182810382526037815260200180620049a46037913960400191505060405180910390fd5b6064891015620001835760405162461bcd60e51b8152600401808060200182810382526035815260200180620049496035913960400191505060405180910390fd5b600a881115620001c55760405162461bcd60e51b8152600401808060200182810382526037815260200180620049db6037913960400191505060405180910390fd5b60058a90556006899055600788905560088790556001600160601b0319606087811b821660a05285811b821660c05284811b821660e05283811b82166101005286901b16608052600a80546001600160a01b038381166001600160a01b0319909216919091179091556040805163313ce56760e01b8152905160009287169163313ce567916004808301926020929190829003018186803b1580156200026a57600080fd5b505afa1580156200027f573d6000803e3d6000fd5b505050506040513d60208110156200029657600080fd5b50519050601260ff82161115620002df5760405162461bcd60e51b815260040180806020018281038252603381526020018062004a126033913960400191505060405180910390fd5b8060120360ff16600a0a600d81905550620003066004620003a360201b620030291760201c565b62000313600033620003ac565b6200031e8c620003bc565b5050505050505050505050505050505050505050505050620005ad565b3390565b6000828201838110156200039a576040805162461bcd60e51b815260206004820152601b60248201527f536166654d6174683a206164646974696f6e206f766572666c6f770000000000604482015290519081900360640190fd5b90505b92915050565b80546001019055565b620003b88282620004ba565b5050565b620003c66200033b565b6000546001600160a01b0390811691161462000429576040805162461bcd60e51b815260206004820181905260248201527f4f776e61626c653a2063616c6c6572206973206e6f7420746865206f776e6572604482015290519081900360640190fd5b6001600160a01b038116620004705760405162461bcd60e51b81526004018080602001828103825260268152602001806200497e6026913960400191505060405180910390fd5b600080546040516001600160a01b038085169392169160008051602062004a4583398151915291a3600080546001600160a01b0319166001600160a01b0392909216919091179055565b6000828152600160209081526040909120620004e19183906200303262000535821b17901c565b15620003b857620004f16200033b565b6001600160a01b0316816001600160a01b0316837f2f8788117e7eff1d82e926ec794901d17c78024a50270940304540a733656f0d60405160405180910390a45050565b60006200039a836001600160a01b038416600062000554838362000595565b6200058c575081546001818101845560008481526020808220909301849055845484825282860190935260409020919091556200039d565b5060006200039d565b60009081526001919091016020526040902054151590565b60805160601c60a05160601c60c05160601c60e05160601c6101005160601c61430262000647600039806121fd5280612f8e525080610e805280611b435280611d6952806125345280612cd952508061037f5280610d2552806112c25280611c1f52806120dd528061280452806129275280612b54525080610f1752806116c05250806119f95280612477528061333a52506143026000f3fe60806040526004361061036f5760003560e01c8063842e357c116101c6578063abb7bc4a116100f7578063d318a7df11610095578063f0f442601161006f578063f0f4426014610b29578063f2fde38b14610b5c578063fce589d814610b8f578063fcee45f414610ba4576103a8565b8063d318a7df14610a9c578063d547741f14610ac6578063de9952c914610aff576103a8565b8063bc721a96116100d1578063bc721a9614610a00578063bcc46e8314610a33578063c6e1c7c914610a5d578063ca15c87314610a72576103a8565b8063abb7bc4a14610997578063b2237ba3146109c1578063bc063e1a146109eb576103a8565b806391d148541161016457806397994e301161013e57806397994e301461092e5780639d9b581814610943578063a0712d6814610958578063a217fddf14610982576103a8565b806391d148541461087a5780639403b634146108b3578063952cc86a1461090b576103a8565b80638c01f211116101a05780638c01f211146107b25780638c64ea4a146107dc5780638da5cb5b146108355780639010d07c1461084a576103a8565b8063842e357c1461074f5780638456cb59146107645780638980f11f14610779576103a8565b8063422b9181116102a057806361bc221a1161023e5780636ca2143c116102185780636ca2143c146106dd578063715018a6146106f257806371ca337d1461070757806375f620ac1461071c576103a8565b806361bc221a1461069e57806361d027b3146106b35780636ae7adc1146106c8576103a8565b80634bf2c7c91161027a5780634bf2c7c914610620578063574b786d1461064a5780635c975abb146106745780635d12928b14610689576103a8565b8063422b9181146105d957806342966c68146105ee57806346dc90071461060b576103a8565b8063248a9ca31161030d5780632f2ff15d116102e75780632f2ff15d146105285780633237c1581461056157806336568abe1461058b5780633f4ba83a146105c4576103a8565b8063248a9ca3146104a95780632806a743146104d35780632c5a8142146104fd576103a8565b806311d850e81161034957806311d850e8146104245780631cc244ba1461044e5780631f2dc5ef1461047f57806323f5589a14610494576103a8565b806301ffc9a7146103ad5780630d23cc79146103f55780630f0aeb8d146103fd576103a8565b366103a857336001600160a01b037f000000000000000000000000000000000000000000000000000000000000000016146103a657fe5b005b600080fd5b3480156103b957600080fd5b506103e1600480360360208110156103d057600080fd5b50356001600160e01b031916610bce565b604080519115158252519081900360200190f35b6103a6610c05565b34801561040957600080fd5b50610412610e0a565b60408051918252519081900360200190f35b34801561043057600080fd5b506104126004803603602081101561044757600080fd5b5035610e0f565b34801561045a57600080fd5b50610463610f15565b604080516001600160a01b039092168252519081900360200190f35b34801561048b57600080fd5b50610412610f39565b3480156104a057600080fd5b50610412610f3f565b3480156104b557600080fd5b50610412600480360360208110156104cc57600080fd5b5035610f45565b3480156104df57600080fd5b506103a6600480360360208110156104f657600080fd5b5035610f5a565b34801561050957600080fd5b5061051261103a565b6040805160ff9092168252519081900360200190f35b34801561053457600080fd5b506103a66004803603604081101561054b57600080fd5b50803590602001356001600160a01b031661103f565b34801561056d57600080fd5b506103a66004803603602081101561058457600080fd5b50356110ab565b34801561059757600080fd5b506103a6600480360360408110156105ae57600080fd5b50803590602001356001600160a01b03166113b4565b3480156105d057600080fd5b506103a6611415565b3480156105e557600080fd5b50610412611477565b6103a66004803603602081101561060457600080fd5b503561147d565b34801561061757600080fd5b506104126116b8565b34801561062c57600080fd5b506103a66004803603602081101561064357600080fd5b5035611701565b34801561065657600080fd5b506103a66004803603602081101561066d57600080fd5b50356117d7565b34801561068057600080fd5b506103e161186d565b34801561069557600080fd5b506103a6611876565b3480156106aa57600080fd5b506104126119d9565b3480156106bf57600080fd5b506104636119df565b3480156106d457600080fd5b506104126119ee565b3480156106e957600080fd5b506104636119f7565b3480156106fe57600080fd5b506103a6611a1b565b34801561071357600080fd5b50610412611abd565b34801561072857600080fd5b506104126004803603602081101561073f57600080fd5b50356001600160a01b0316611ac3565b34801561075b57600080fd5b50610463611b41565b34801561077057600080fd5b506103a6611b65565b34801561078557600080fd5b506103a66004803603604081101561079c57600080fd5b506001600160a01b038135169060200135611bc5565b3480156107be57600080fd5b50610412600480360360208110156107d557600080fd5b5035611cf2565b3480156107e857600080fd5b50610806600480360360208110156107ff57600080fd5b5035611dda565b604080519485526020850193909352838301919091526001600160a01b03166060830152519081900360800190f35b34801561084157600080fd5b50610463611e0a565b34801561085657600080fd5b506104636004803603604081101561086d57600080fd5b5080359060200135611e19565b34801561088657600080fd5b506103e16004803603604081101561089d57600080fd5b50803590602001356001600160a01b0316611e38565b3480156108bf57600080fd5b506108dd600480360360208110156108d657600080fd5b5035611e50565b6040805194855260208501939093526001600160a01b03909116838301526060830152519081900360800190f35b6103a66004803603604081101561092157600080fd5b5080359060200135611eb7565b34801561093a57600080fd5b506104636121fb565b34801561094f57600080fd5b5061041261221f565b34801561096457600080fd5b506103a66004803603602081101561097b57600080fd5b5035612225565b34801561098e57600080fd5b5061041261251b565b3480156109a357600080fd5b50610412600480360360208110156109ba57600080fd5b5035612520565b3480156109cd57600080fd5b506103a6600480360360208110156109e457600080fd5b5035612582565b3480156109f757600080fd5b506104126126a4565b348015610a0c57600080fd5b5061041260048036036020811015610a2357600080fd5b50356001600160a01b03166126a9565b348015610a3f57600080fd5b506103a660048036036020811015610a5657600080fd5b50356126bb565b348015610a6957600080fd5b50610463612925565b348015610a7e57600080fd5b5061041260048036036020811015610a9557600080fd5b5035612949565b348015610aa857600080fd5b506103a660048036036020811015610abf57600080fd5b5035612960565b348015610ad257600080fd5b506103a660048036036040811015610ae957600080fd5b50803590602001356001600160a01b0316612c1c565b348015610b0b57600080fd5b5061041260048036036020811015610b2257600080fd5b5035612c75565b348015610b3557600080fd5b506103a660048036036020811015610b4c57600080fd5b50356001600160a01b0316612d94565b348015610b6857600080fd5b506103a660048036036020811015610b7f57600080fd5b50356001600160a01b0316612e88565b348015610b9b57600080fd5b50610412612f80565b348015610bb057600080fd5b5061041260048036036020811015610bc757600080fd5b5035612f86565b60006001600160e01b0319821663279d6ac360e21b1480610bff57506001600160e01b031982166301ffc9a760e01b145b92915050565b600280541415610c4a576040805162461bcd60e51b815260206004820152601f6024820152600080516020613c0f833981519152604482015290519081900360640190fd5b60028055336000908152600b6020526040902054610c995760405162461bcd60e51b815260040180806020018281038252602b815260200180613c54602b913960400191505060405180910390fd5b60035460ff1615610ce4576040805162461bcd60e51b815260206004820152601060248201526f14185d5cd8589b194e881c185d5cd95960821b604482015290519081900360640190fd5b60003411610d235760405162461bcd60e51b81526004018080602001828103825260338152602001806140ba6033913960400191505060405180910390fd5b7f00000000000000000000000000000000000000000000000000000000000000006001600160a01b031663d0e30db0346040518263ffffffff1660e01b81526004016000604051808303818588803b158015610d7e57600080fd5b505af1158015610d92573d6000803e3d6000fd5b5050336000908152600b60209081526040808320548352600c90915290206001810154909350610dc59250905034612fcf565b6001820155805460408051348152905133917f11f8990ac38271f23dea447d5728e9914fca7cea2edda43af6c43c415f8bc30b919081900360200190a3506001600255565b606481565b6000610e19613b21565b506000828152600c60209081526040808320815160808101835281548152600182015493810193909352600281015491830191909152600301546001600160a01b0316606082015290610e6b84612c75565b90506000610e776116b8565b90506000610ea47f0000000000000000000000000000000000000000000000000000000000000000611ac3565b90506000610ec8610ec16064600854612fcf90919063ffffffff16565b8590613047565b90506000610ef9600d54610ef3610ee960648761304790919063ffffffff16565b610ef38689613047565b906130a0565b9050610f098660200151826130e2565b98975050505050505050565b7f000000000000000000000000000000000000000000000000000000000000000081565b60055481565b60085481565b60009081526001602052604090206002015490565b610f626130f8565b6000546001600160a01b03908116911614610fb2576040805162461bcd60e51b815260206004820181905260248201526000805160206140ed833981519152604482015290519081900360640190fd5b600654610fc0826064612fcf565b10610ffc5760405162461bcd60e51b8152600401808060200182810382526041815260200180613fac6041913960600191505060405180910390fd5b600881905560408051828152905133917f76fea7ef18b6b073facb4f15d873d45dc60e1ac9448931a44b388f40c49e3267919081900360200190a250565b601281565b6000828152600160205260409020600201546110629061105d6130f8565b611e38565b61109d5760405162461bcd60e51b815260040180806020018281038252602f815260200180613be0602f913960400191505060405180910390fd5b6110a782826130fc565b5050565b6002805414156110f0576040805162461bcd60e51b815260206004820152601f6024820152600080516020613c0f833981519152604482015290519081900360640190fd5b60028055336000908152600b602052604090205461113f5760405162461bcd60e51b815260040180806020018281038252602b815260200180613c54602b913960400191505060405180910390fd5b60035460ff161561118a576040805162461bcd60e51b815260206004820152601060248201526f14185d5cd8589b194e881c185d5cd95960821b604482015290519081900360640190fd5b80806111c75760405162461bcd60e51b81526004018080602001828103825260278152602001806141b76027913960400191505060405180910390fd5b336000908152600b60209081526040808320548352600c909152812080549091906111f190611cf2565b905083826001015410156112365760405162461bcd60e51b8152600401808060200182810382526046815260200180613f666046913960600191505060405180910390fd5b60018201546112459085613165565b6001830155801561129b57600654825461125e90611cf2565b101561129b5760405162461bcd60e51b81526004018080602001828103825260438152602001806140236043913960600191505060405180910390fd5b6040805163a9059cbb60e01b81523360048201526024810186905290516001600160a01b037f0000000000000000000000000000000000000000000000000000000000000000169163a9059cbb9160448083019260209291908290030181600087803b15801561130a57600080fd5b505af115801561131e573d6000803e3d6000fd5b505050506040513d602081101561133457600080fd5b50516113715760405162461bcd60e51b815260040180806020018281038252603e815260200180614144603e913960400191505060405180910390fd5b815460408051868152905133917f47e1336b6fdb5f42c3a1d28b558fa98786d820c3705d726358dcc8e63a401eef919081900360200190a3505060016002555050565b6113bc6130f8565b6001600160a01b0316816001600160a01b03161461140b5760405162461bcd60e51b815260040180806020018281038252602f81526020018061429e602f913960400191505060405180910390fd5b6110a782826131a7565b61141d6130f8565b6000546001600160a01b0390811691161461146d576040805162461bcd60e51b815260206004820181905260248201526000805160206140ed833981519152604482015290519081900360640190fd5b611475613210565b565b60095481565b6002805414156114c2576040805162461bcd60e51b815260206004820152601f6024820152600080516020613c0f833981519152604482015290519081900360640190fd5b60028055336000908152600b60205260409020546115115760405162461bcd60e51b815260040180806020018281038252602b815260200180613c54602b913960400191505060405180910390fd5b60035460ff161561155c576040805162461bcd60e51b815260206004820152601060248201526f14185d5cd8589b194e881c185d5cd95960821b604482015290519081900360640190fd5b80806115995760405162461bcd60e51b81526004018080602001828103825260278152602001806141b76027913960400191505060405180910390fd5b60006115a483612f86565b9050803410156115e55760405162461bcd60e51b815260040180806020018281038252602f815260200180614236602f913960400191505060405180910390fd5b6115ed613b21565b50336000908152600b60209081526040808320548352600c82529182902082516080810184528154808252600183015493820193909352600282015493810193909352600301546001600160a01b0316606083015261164c90856132ae565b600a54611662906001600160a01b03168361339e565b611675336116703485613165565b61339e565b805160408051868152905133917fccbea4088a3b7ae9ca2d15fab9a9742a4075b4d7247768a1eecea917565aba00919081900360200190a3505060016002555050565b6000806116e47f0000000000000000000000000000000000000000000000000000000000000000611ac3565b90506116fb600554826130a090919063ffffffff16565b91505090565b6117096130f8565b6000546001600160a01b03908116911614611759576040805162461bcd60e51b815260206004820181905260248201526000805160206140ed833981519152604482015290519081900360640190fd5b600a8111156117995760405162461bcd60e51b8152600401808060200182810382526036815260200180613f306036913960400191505060405180910390fd5b600781905560408051828152905133917f2b29c7e5fe28010036a94929b56a0eb76bf5e90700e842a971eaa6e4abc45f04919081900360200190a250565b6117df6130f8565b6000546001600160a01b0390811691161461182f576040805162461bcd60e51b815260206004820181905260248201526000805160206140ed833981519152604482015290519081900360640190fd5b600981905560408051828152905133917fb276aeff8481b22fb866569892ac1e4127fe82fefd28354c38957d5dc76bd86c919081900360200190a250565b60035460ff1690565b60035460ff16156118c1576040805162461bcd60e51b815260206004820152601060248201526f14185d5cd8589b194e881c185d5cd95960821b604482015290519081900360640190fd5b336000908152600b60205260409020541561190d5760405162461bcd60e51b8152600401808060200182810382526030815260200180613b536030913960400191505060405180910390fd5b60006119196004613496565b336000908152600b602052604090208190559050611935613b21565b5060408051608081018252828152600060208083018281528385018381523360608601908152878552600c909352949092208351815591516001830155925160028201559151600390920180546001600160a01b0319166001600160a01b03909316929092179091556119a86004613029565b604051829033907fa510df27d6e51efd91d3f55722bad1f26bf924a63e5dcee07c2ab4c3d4992dcc90600090a35050565b60045481565b600a546001600160a01b031681565b6402540be40081565b7f000000000000000000000000000000000000000000000000000000000000000081565b611a236130f8565b6000546001600160a01b03908116911614611a73576040805162461bcd60e51b815260206004820181905260248201526000805160206140ed833981519152604482015290519081900360640190fd5b600080546040516001600160a01b03909116907f8be0079c531659141344cd1fd0a4f28419497f9722a3daafe3b4186f6b6457e0908390a3600080546001600160a01b0319169055565b60065481565b6000610bff6402540be400611b3b846001600160a01b03166396237c026040518163ffffffff1660e01b815260040160206040518083038186803b158015611b0a57600080fd5b505afa158015611b1e573d6000803e3d6000fd5b505050506040513d6020811015611b3457600080fd5b505161349a565b90613047565b7f000000000000000000000000000000000000000000000000000000000000000081565b611b6d6130f8565b6000546001600160a01b03908116911614611bbd576040805162461bcd60e51b815260206004820181905260248201526000805160206140ed833981519152604482015290519081900360640190fd5b6114756134f5565b611bcd6130f8565b6000546001600160a01b03908116911614611c1d576040805162461bcd60e51b815260206004820181905260248201526000805160206140ed833981519152604482015290519081900360640190fd5b7f00000000000000000000000000000000000000000000000000000000000000006001600160a01b0316826001600160a01b03161415611c8e5760405162461bcd60e51b8152600401808060200182810382526025815260200180613c2f6025913960400191505060405180910390fd5b611caa611c99611e0a565b6001600160a01b0384169083613576565b604080516001600160a01b03841681526020810183905281517f8c1256b8896378cd5044f80c202f9772b9d77dc85c8a6eb51967210b09bfaa28929181900390910190a15050565b6000611cfc613b21565b506000828152600c602090815260409182902082516080810184528154808252600183015493820193909352600282015493810193909352600301546001600160a01b031660608301521580611d5457506040810151155b15611d625760009150611dd4565b6000611d8d7f0000000000000000000000000000000000000000000000000000000000000000611ac3565b9050611dd0611da8611d9d6116b8565b604085015190613047565b610ef3611dc9600d54611b3b6064886020015161304790919063ffffffff16565b8490613047565b9250505b50919050565b600c602052600090815260409020805460018201546002830154600390930154919290916001600160a01b031684565b6000546001600160a01b031690565b6000828152600160205260408120611e3190836135c8565b9392505050565b6000828152600160205260408120611e3190836135d4565b600080600080611e5e613b21565b50505060009283525050600c602090815260409182902082516080810184528154808252600183015493820184905260028301549482018590526003909201546001600160a01b03166060909101819052909391929091565b600280541415611efc576040805162461bcd60e51b815260206004820152601f6024820152600080516020613c0f833981519152604482015290519081900360640190fd5b6002805560035460ff1615611f4b576040805162461bcd60e51b815260206004820152601060248201526f14185d5cd8589b194e881c185d5cd95960821b604482015290519081900360640190fd5b6000828152600c602052604090208054611f965760405162461bcd60e51b815260040180806020018281038252602e815260200180614208602e913960400191505060405180910390fd5b6000611fa58260000154611cf2565b90506006548110611fe75760405162461bcd60e51b81526004018080602001828103825260358152602001806141826035913960400191505060405180910390fd5b6000611ff68360000154612c75565b9050808410156120375760405162461bcd60e51b8152600401808060200182810382526048815260200180613dc46048913960600191505060405180910390fd5b600061204282612f86565b9050803410156120835760405162461bcd60e51b81526004018080602001828103825260398152602001806142656039913960400191505060405180910390fd5b60006120928560000154610e0f565b90506120a28560000154846132ae565b60018501546120b19082613165565b60018601556040805163a9059cbb60e01b81523360048201526024810183905290516001600160a01b037f0000000000000000000000000000000000000000000000000000000000000000169163a9059cbb9160448083019260209291908290030181600087803b15801561212557600080fd5b505af1158015612139573d6000803e3d6000fd5b505050506040513d602081101561214f57600080fd5b505161218c5760405162461bcd60e51b815260040180806020018281038252603c815260200180613e0c603c913960400191505060405180910390fd5b600a546121a2906001600160a01b03168361339e565b6121b0336116703485613165565b8454604080518581526020810184905281513393927fba5789da846390370bbfbf693007be2c95d0cfac69a8d175805f742dc7938321928290030190a3505060016002555050505050565b7f000000000000000000000000000000000000000000000000000000000000000081565b600d5481565b60028054141561226a576040805162461bcd60e51b815260206004820152601f6024820152600080516020613c0f833981519152604482015290519081900360640190fd5b60028055336000908152600b60205260409020546122b95760405162461bcd60e51b815260040180806020018281038252602b815260200180613c54602b913960400191505060405180910390fd5b60035460ff1615612304576040805162461bcd60e51b815260206004820152601060248201526f14185d5cd8589b194e881c185d5cd95960821b604482015290519081900360640190fd5b80806123415760405162461bcd60e51b81526004018080602001828103825260278152602001806141b76027913960400191505060405180910390fd5b336000908152600b60209081526040808320548352600c90915281209061236784612520565b905080826001015410156123ac5760405162461bcd60e51b8152600401808060200182810382526029815260200180613cd46029913960400191505060405180910390fd5b60028201546123bb9085612fcf565b600283015560065482546123ce90611cf2565b101561240b5760405162461bcd60e51b815260040180806020018281038252603781526020018061410d6037913960400191505060405180910390fd5b600954826002015410156124505760405162461bcd60e51b8152600401808060200182810382526032815260200180613d926032913960400191505060405180910390fd5b604080516340c10f1960e01b81523360048201526024810186905290516001600160a01b037f000000000000000000000000000000000000000000000000000000000000000016916340c10f1991604480830192600092919082900301818387803b1580156124be57600080fd5b505af11580156124d2573d6000803e3d6000fd5b505083546040805188815290519193503392507f2e8ac5177a616f2aec08c3048f5021e4e9743ece034e8d83ba5caf76688bb475919081900360200190a3505060016002555050565b600081565b60008061252b6116b8565b905060006125587f0000000000000000000000000000000000000000000000000000000000000000611ac3565b9050611dd0600d54610ef383610ef36064610ef3600654611b3b8c8b61304790919063ffffffff16565b61258a6130f8565b6000546001600160a01b039081169116146125da576040805162461bcd60e51b815260206004820181905260248201526000805160206140ed833981519152604482015290519081900360640190fd5b606481101561261a5760405162461bcd60e51b8152600401808060200182810382526032815260200180613efe6032913960400191505060405180910390fd5b600854819061262a906064612fcf565b106126665760405162461bcd60e51b8152600401808060200182810382526034815260200180613e6e6034913960400191505060405180910390fd5b600681905560408051828152905133917f6126d9241e4aeb647b01ddffba35de720a5b4ad692f117a43b5b281e49126fc4919081900360200190a250565b600a81565b600b6020526000908152604090205481565b600280541415612700576040805162461bcd60e51b815260206004820152601f6024820152600080516020613c0f833981519152604482015290519081900360640190fd5b60028055336000908152600b602052604090205461274f5760405162461bcd60e51b815260040180806020018281038252602b815260200180613c54602b913960400191505060405180910390fd5b60035460ff161561279a576040805162461bcd60e51b815260206004820152601060248201526f14185d5cd8589b194e881c185d5cd95960821b604482015290519081900360640190fd5b80806127d75760405162461bcd60e51b81526004018080602001828103825260278152602001806141b76027913960400191505060405180910390fd5b604080516323b872dd60e01b81523360048201523060248201526044810184905290516001600160a01b037f000000000000000000000000000000000000000000000000000000000000000016916323b872dd9160648083019260209291908290030181600087803b15801561284c57600080fd5b505af1158015612860573d6000803e3d6000fd5b505050506040513d602081101561287657600080fd5b50516128b35760405162461bcd60e51b815260040180806020018281038252603b815260200180613ba5603b913960400191505060405180910390fd5b336000908152600b60209081526040808320548352600c909152902060018101546128de9084612fcf565b6001820155805460408051858152905133917f11f8990ac38271f23dea447d5728e9914fca7cea2edda43af6c43c415f8bc30b919081900360200190a35050600160025550565b7f000000000000000000000000000000000000000000000000000000000000000081565b6000818152600160205260408120610bff906135e9565b6002805414156129a5576040805162461bcd60e51b815260206004820152601f6024820152600080516020613c0f833981519152604482015290519081900360640190fd5b60028055336000908152600b60205260409020546129f45760405162461bcd60e51b815260040180806020018281038252602b815260200180613c54602b913960400191505060405180910390fd5b60035460ff1615612a3f576040805162461bcd60e51b815260206004820152601060248201526f14185d5cd8589b194e881c185d5cd95960821b604482015290519081900360640190fd5b60008111612a7e5760405162461bcd60e51b8152600401808060200182810382526036815260200180613fed6036913960400191505060405180910390fd5b336000908152600b60209081526040808320548352600c90915281208054909190612aa890611cf2565b90508282600101541015612aed5760405162461bcd60e51b815260040180806020018281038252604c815260200180613cfd604c913960600191505060405180910390fd5b6001820154612afc9084613165565b60018301558015612b52576006548254612b1590611cf2565b1015612b525760405162461bcd60e51b8152600401808060200182810382526049815260200180613d496049913960600191505060405180910390fd5b7f00000000000000000000000000000000000000000000000000000000000000006001600160a01b0316632e1a7d4d846040518263ffffffff1660e01b815260040180828152602001915050600060405180830381600087803b158015612bb857600080fd5b505af1158015612bcc573d6000803e3d6000fd5b50505050612bda338461339e565b815460408051858152905133917f47e1336b6fdb5f42c3a1d28b558fa98786d820c3705d726358dcc8e63a401eef919081900360200190a35050600160025550565b600082815260016020526040902060020154612c3a9061105d6130f8565b61140b5760405162461bcd60e51b8152600401808060200182810382526030815260200180613ea26030913960400191505060405180910390fd5b6000612c7f613b21565b506000828152600c60209081526040808320815160808101835281548152600182015493810193909352600281015491830191909152600301546001600160a01b0316606082015290612cd06116b8565b90506000612cfd7f0000000000000000000000000000000000000000000000000000000000000000611ac3565b90506000612d2283610ef384611b3b600d54896020015161304790919063ffffffff16565b90506000612d536064611b3b84612d4d6064610ef36006548c6040015161304790919063ffffffff16565b90613165565b90506000612d79612d706064600854612fcf90919063ffffffff16565b60065490613165565b6040870151909150610f0990612d8f84846130a0565b6130e2565b612d9c6130f8565b6000546001600160a01b03908116911614612dec576040805162461bcd60e51b815260206004820181905260248201526000805160206140ed833981519152604482015290519081900360640190fd5b6001600160a01b038116612e315760405162461bcd60e51b815260040180806020018281038252602f815260200180613ca5602f913960400191505060405180910390fd5b600a80546001600160a01b0383166001600160a01b03199091168117909155604080519182525133917f567657fa3f286518b318f4a29870674f433f622fdfc819691acb13105b228225919081900360200190a250565b612e906130f8565b6000546001600160a01b03908116911614612ee0576040805162461bcd60e51b815260206004820181905260248201526000805160206140ed833981519152604482015290519081900360640190fd5b6001600160a01b038116612f255760405162461bcd60e51b8152600401808060200182810382526026815260200180613c7f6026913960400191505060405180910390fd5b600080546040516001600160a01b03808516939216917f8be0079c531659141344cd1fd0a4f28419497f9722a3daafe3b4186f6b6457e091a3600080546001600160a01b0319166001600160a01b0392909216919091179055565b60075481565b600080612fb27f0000000000000000000000000000000000000000000000000000000000000000611ac3565b9050611e3181610ef36064610ef3600754611b3b89611b3b6116b8565b600082820183811015611e31576040805162461bcd60e51b815260206004820152601b60248201527f536166654d6174683a206164646974696f6e206f766572666c6f770000000000604482015290519081900360640190fd5b80546001019055565b6000611e31836001600160a01b0384166135f4565b60008261305657506000610bff565b8282028284828161306357fe5b0414611e315760405162461bcd60e51b81526004018080602001828103825260218152602001806140996021913960400191505060405180910390fd5b6000611e3183836040518060400160405280601a81526020017f536166654d6174683a206469766973696f6e206279207a65726f00000000000081525061363e565b60008183106130f15781611e31565b5090919050565b3390565b60008281526001602052604090206131149082613032565b156110a7576131216130f8565b6001600160a01b0316816001600160a01b0316837f2f8788117e7eff1d82e926ec794901d17c78024a50270940304540a733656f0d60405160405180910390a45050565b6000611e3183836040518060400160405280601e81526020017f536166654d6174683a207375627472616374696f6e206f766572666c6f7700008152506136e0565b60008281526001602052604090206131bf908261373a565b156110a7576131cc6130f8565b6001600160a01b0316816001600160a01b0316837ff6391f5c32d9c69d2a47ea670b442974b53935d1edc7fd64eb21e047a839171b60405160405180910390a45050565b60035460ff1661325e576040805162461bcd60e51b815260206004820152601460248201527314185d5cd8589b194e881b9bdd081c185d5cd95960621b604482015290519081900360640190fd5b6003805460ff191690557f5db9ee0a495bf2e6ff9c91a7834c1ba4fdd244a5e8aa4e537bd38aeae4b073aa6132916130f8565b604080516001600160a01b039092168252519081900360200190a1565b6000828152600c6020526040902060028101548211156132ff5760405162461bcd60e51b815260040180806020018281038252602c815260200180613ed2602c913960400191505060405180910390fd5b600281015461330e9083613165565b600282015560408051632770a7eb60e21b81523360048201526024810184905290516001600160a01b037f00000000000000000000000000000000000000000000000000000000000000001691639dc29fac91604480830192600092919082900301818387803b15801561338157600080fd5b505af1158015613395573d6000803e3d6000fd5b50505050505050565b604080516000808252602082019092526001600160a01b0384169083906040518082805190602001908083835b602083106133ea5780518252601f1990920191602091820191016133cb565b6001836020036101000a03801982511681845116808217855250505050505090500191505060006040518083038185875af1925050503d806000811461344c576040519150601f19603f3d011682016040523d82523d6000602084013e613451565b606091505b50509050806134915760405162461bcd60e51b81526004018080602001828103825260338152602001806140666033913960400191505060405180910390fd5b505050565b5490565b6000808212156134f1576040805162461bcd60e51b815260206004820181905260248201527f53616665436173743a2076616c7565206d75737420626520706f736974697665604482015290519081900360640190fd5b5090565b60035460ff1615613540576040805162461bcd60e51b815260206004820152601060248201526f14185d5cd8589b194e881c185d5cd95960821b604482015290519081900360640190fd5b6003805460ff191660011790557f62e78cea01bee320cd4e420270b5ea74000d11b0c9f74754ebdbfc544b05a2586132916130f8565b604080516001600160a01b038416602482015260448082018490528251808303909101815260649091019091526020810180516001600160e01b031663a9059cbb60e01b17905261349190849061374f565b6000611e318383613800565b6000611e31836001600160a01b038416613864565b6000610bff82613496565b60006136008383613864565b61363657508154600181810184556000848152602080822090930184905584548482528286019093526040902091909155610bff565b506000610bff565b600081836136ca5760405162461bcd60e51b81526004018080602001828103825283818151815260200191508051906020019080838360005b8381101561368f578181015183820152602001613677565b50505050905090810190601f1680156136bc5780820380516001836020036101000a031916815260200191505b509250505060405180910390fd5b5060008385816136d657fe5b0495945050505050565b600081848411156137325760405162461bcd60e51b815260206004820181815283516024840152835190928392604490910191908501908083836000831561368f578181015183820152602001613677565b505050900390565b6000611e31836001600160a01b03841661387c565b60606137a4826040518060400160405280602081526020017f5361666545524332303a206c6f772d6c6576656c2063616c6c206661696c6564815250856001600160a01b03166139429092919063ffffffff16565b805190915015613491578080602001905160208110156137c357600080fd5b50516134915760405162461bcd60e51b815260040180806020018281038252602a8152602001806141de602a913960400191505060405180910390fd5b815460009082106138425760405162461bcd60e51b8152600401808060200182810382526022815260200180613b836022913960400191505060405180910390fd5b82600001828154811061385157fe5b9060005260206000200154905092915050565b60009081526001919091016020526040902054151590565b6000818152600183016020526040812054801561393857835460001980830191908101906000908790839081106138af57fe5b90600052602060002001549050808760000184815481106138cc57fe5b6000918252602080832090910192909255828152600189810190925260409020908401905586548790806138fc57fe5b60019003818190600052602060002001600090559055866001016000878152602001908152602001600020600090556001945050505050610bff565b6000915050610bff565b60606139518484600085613959565b949350505050565b60608247101561399a5760405162461bcd60e51b8152600401808060200182810382526026815260200180613e486026913960400191505060405180910390fd5b6139a385613ab5565b6139f4576040805162461bcd60e51b815260206004820152601d60248201527f416464726573733a2063616c6c20746f206e6f6e2d636f6e7472616374000000604482015290519081900360640190fd5b60006060866001600160a01b031685876040518082805190602001908083835b60208310613a335780518252601f199092019160209182019101613a14565b6001836020036101000a03801982511681845116808217855250505050505090500191505060006040518083038185875af1925050503d8060008114613a95576040519150601f19603f3d011682016040523d82523d6000602084013e613a9a565b606091505b5091509150613aaa828286613abb565b979650505050505050565b3b151590565b60608315613aca575081611e31565b825115613ada5782518084602001fd5b60405162461bcd60e51b815260206004820181815284516024840152845185939192839260440191908501908083836000831561368f578181015183820152602001613677565b604051806080016040528060008152602001600081526020016000815260200160006001600160a01b03168152509056fe5661756c7448616e646c65723a3a6372656174655661756c743a207661756c7420616c72656164792063726561746564456e756d657261626c655365743a20696e646578206f7574206f6620626f756e64735661756c7448616e646c65723a3a616464436f6c6c61746572616c3a204552433230207472616e7366657220646964206e6f742073756363656564416363657373436f6e74726f6c3a2073656e646572206d75737420626520616e2061646d696e20746f206772616e745265656e7472616e637947756172643a207265656e7472616e742063616c6c0043616e6e6f742077697468647261772074686520636f6c6c61746572616c20746f6b656e735661756c7448616e646c65723a3a7661756c744578697374733a206e6f207661756c7420637265617465644f776e61626c653a206e6577206f776e657220697320746865207a65726f20616464726573735661756c7448616e646c65723a3a73657454726561737572793a206e6f7420612076616c69642074726561737572795661756c7448616e646c65723a3a6d696e743a206e6f7420656e6f75676820636f6c6c61746572616c4554485661756c7448616e646c65723a3a72656d6f7665436f6c6c61746572616c4554483a20726574726965766520616d6f756e7420686967686572207468616e20636f6c6c61746572616c4554485661756c7448616e646c65723a3a72656d6f7665436f6c6c61746572616c4554483a20636f6c6c61746572616c2062656c6f77206d696e20726571756972656420726174696f5661756c7448616e646c65723a3a6d696e743a206d696e7420616d6f756e74206c657373207468616e2072657175697265645661756c7448616e646c65723a3a6c69717569646174655661756c743a206c69717569646174696f6e20616d6f756e7420646966666572656e74207468616e2072657175697265645661756c7448616e646c65723a3a6c69717569646174655661756c743a204552433230207472616e7366657220646964206e6f742073756363656564416464726573733a20696e73756666696369656e742062616c616e636520666f722063616c6c5661756c7448616e646c65723a3a736574526174696f3a206c69717569646174696f6e2070656e616c747920746f6f2068696768416363657373436f6e74726f6c3a2073656e646572206d75737420626520616e2061646d696e20746f207265766f6b655661756c7448616e646c65723a3a6275726e3a20616d6f756e742067726561746572207468616e20646562745661756c7448616e646c65723a3a736574526174696f3a20726174696f206c6f776572207468616e204d494e5f524154494f5661756c7448616e646c65723a3a7365744275726e4665653a206275726e2066656520686967686572207468616e204d41585f4645455661756c7448616e646c65723a3a72656d6f7665436f6c6c61746572616c3a20726574726965766520616d6f756e7420686967686572207468616e20636f6c6c61746572616c5661756c7448616e646c65723a3a7365744c69717569646174696f6e50656e616c74793a206c69717569646174696f6e2070656e616c747920746f6f20686967684554485661756c7448616e646c65723a3a72656d6f7665436f6c6c61746572616c4554483a2076616c75652063616e277420626520305661756c7448616e646c65723a3a72656d6f7665436f6c6c61746572616c3a20636f6c6c61746572616c2062656c6f77206d696e20726571756972656420726174696f495661756c7448616e646c65723a3a736166655472616e736665724554483a20455448207472616e73666572206661696c6564536166654d6174683a206d756c7469706c69636174696f6e206f766572666c6f774554485661756c7448616e646c65723a3a616464436f6c6c61746572616c4554483a2076616c75652063616e277420626520304f776e61626c653a2063616c6c6572206973206e6f7420746865206f776e65725661756c7448616e646c65723a3a6d696e743a20636f6c6c61746572616c2062656c6f77206d696e20726571756972656420726174696f5661756c7448616e646c65723a3a72656d6f7665436f6c6c61746572616c3a204552433230207472616e7366657220646964206e6f7420737563636565645661756c7448616e646c65723a3a6c69717569646174655661756c743a207661756c74206973206e6f74206c697175696461626c655661756c7448616e646c65723a3a6e6f745a65726f3a2076616c75652063616e277420626520305361666545524332303a204552433230206f7065726174696f6e20646964206e6f7420737563636565645661756c7448616e646c65723a3a6c69717569646174655661756c743a206e6f207661756c7420637265617465645661756c7448616e646c65723a3a6275726e3a206275726e20666565206c657373207468616e2072657175697265645661756c7448616e646c65723a3a6c69717569646174655661756c743a206275726e20666565206c657373207468616e207265717569726564416363657373436f6e74726f6c3a2063616e206f6e6c792072656e6f756e636520726f6c657320666f722073656c66a264697066735822122051578f1708f721c745bd8343ff9fbb7e9e6b8431d3b070b0cd98e9c60e27110b64736f6c634300070500335661756c7448616e646c65723a3a636f6e7374727563746f723a20726174696f206c6f776572207468616e204d494e5f524154494f4f776e61626c653a206e6577206f776e657220697320746865207a65726f20616464726573735661756c7448616e646c65723a3a636f6e7374727563746f723a206c69717569646174696f6e2070656e616c747920746f6f20686967685661756c7448616e646c65723a3a636f6e7374727563746f723a206275726e2066656520686967686572207468616e204d41585f464545436f6c6c61746572616c20646563696d616c732067726561746572207468616e204d41585f444543494d414c5f504c414345538be0079c531659141344cd1fd0a4f28419497f9722a3daafe3b4186f6b6457e0",
  "devdoc": {
    "author": "Cryptex.finance",
    "kind": "dev",
    "methods": {
      "TCAPPrice()": {
        "details": "TCAP token is 18 decimalsoracle totalMarketPrice must be in wei formatP = T / d P = TCAP Token Price T = Total Crypto Market Cap d = Divisor",
        "returns": {
          "price": "of the TCAP Token"
        }
      },
      "addCollateral(uint256)": {
        "details": "_amount should be higher than 0ERC20 token must be approved first",
        "params": {
          "_amount": "of collateral to be added"
        }
      },
      "addCollateralETH()": {
        "details": "value should be higher than 0ETH is turned into WETH"
      },
      "burn(uint256)": {
        "details": "_amount should be higher than 0A fee of exactly burnFee must be sent as value on ETHThe fee goes to the treasury contractif reward handler is set exit rewards",
        "params": {
          "_amount": "of tokens to burn"
        }
      },
      "constructor": {
        "params": {
          "_burnFee": "uint256",
          "_collateralAddress": "address",
          "_collateralOracle": "address",
          "_divisor": "uint256",
          "_ethOracle": "address",
          "_liquidationPenalty": "uint256",
          "_orchestrator": "address",
          "_ratio": "uint256",
          "_tcapAddress": "address",
          "_tcapOracle": "address",
          "_treasury": "address"
        }
      },
      "createVault()": {
        "details": "Only one vault per address can be created"
      },
      "getFee(uint256)": {
        "details": "The returned value is returned in weif = (((P * A * b)/ 100))/ EP f = Burn Fee Value in wei P = TCAP Token Price A = TCAP Amount to Burn b = Burn Fee % EP = ETH Price",
        "params": {
          "_amount": "to burn"
        },
        "returns": {
          "fee": "fee"
        }
      },
      "getOraclePrice(address)": {
        "details": "The price returned here is in USD is equivalent to 1 `ether` unit  times 10 ** 18 eg. For ETH This will return the price of USD of 1 ETH * 10 ** 18 and **not** 1 wei * 10 ** 18 eg. For DAI This will return the price of USD of 1 DAI * 10 ** 18 and **not** (1 / 10 ** 18) * 10 ** 18",
        "params": {
          "_oracle": "to be the price called"
        },
        "returns": {
          "price": "price"
        }
      },
      "getRoleAdmin(bytes32)": {
        "details": "Returns the admin role that controls `role`. See {grantRole} and {revokeRole}. To change a role's admin, use {_setRoleAdmin}."
      },
      "getRoleMember(bytes32,uint256)": {
        "details": "Returns one of the accounts that have `role`. `index` must be a value between 0 and {getRoleMemberCount}, non-inclusive. Role bearers are not sorted in any particular way, and their ordering may change at any point. WARNING: When using {getRoleMember} and {getRoleMemberCount}, make sure you perform all queries on the same block. See the following https://forum.openzeppelin.com/t/iterating-over-elements-on-enumerableset-in-openzeppelin-contracts/2296[forum post] for more information."
      },
      "getRoleMemberCount(bytes32)": {
        "details": "Returns the number of accounts that have `role`. Can be used together with {getRoleMember} to enumerate all bearers of a role."
      },
      "getVault(uint256)": {
        "params": {
          "_id": "of vault"
        },
        "returns": {
          "_0": "Id, Collateral, Owner, Debt"
        }
      },
      "getVaultRatio(uint256)": {
        "details": "vr = (cp * (C * 100 * cdaf)) / D * P vr = Vault Ratio C = Vault Collateral cdaf = Collateral Decimals Adjustment Factor cp = Collateral Price D = Vault Debt P = TCAP Token Price",
        "params": {
          "_vaultId": "id of vault"
        },
        "returns": {
          "currentRatio": "currentRatio"
        }
      },
      "grantRole(bytes32,address)": {
        "details": "Grants `role` to `account`. If `account` had not been already granted `role`, emits a {RoleGranted} event. Requirements: - the caller must have ``role``'s admin role."
      },
      "hasRole(bytes32,address)": {
        "details": "Returns `true` if `account` has been granted `role`."
      },
      "liquidateVault(uint256,uint256)": {
        "details": "Resulting ratio must be above or equal minimun ratioA fee of exactly burnFee must be sent as value on ETHThe fee goes to the treasury contract",
        "params": {
          "_maxTCAP": "max amount of TCAP the liquidator is willing to pay to liquidate vault",
          "_vaultId": "to liquidate"
        }
      },
      "liquidationReward(uint256)": {
        "details": "the returned value is returned as collateral currencyR = (LT * (p  + 100)) / 100RC = R / (cp * cdaf) R = Liquidation Reward RC = Liquidation Reward Collateral LT = Required Liquidation TCAP p = liquidation penalty cp = Collateral Price cdaf = Collateral Decimals adjustment factor",
        "params": {
          "_vaultId": "of the vault to liquidate"
        },
        "returns": {
          "rewardCollateral": "for liquidating Vault"
        }
      },
      "mint(uint256)": {
        "details": "_amount should be higher than 0requires to have a vault ratio above the minimum ratioif reward handler is set stake to earn rewards",
        "params": {
          "_amount": "of tokens to mint"
        }
      },
      "owner()": {
        "details": "Returns the address of the current owner."
      },
      "paused()": {
        "details": "Returns true if the contract is paused, and false otherwise."
      },
      "recoverERC20(address,uint256)": {
        "details": "Only owner  can call it",
        "params": {
          "_tokenAddress": "address",
          "_tokenAmount": "uint"
        }
      },
      "removeCollateral(uint256)": {
        "details": "reverts if the resulting ratio is less than the minimun ratio_amount should be higher than 0transfers the collateral back to the user",
        "params": {
          "_amount": "of collateral to remove"
        }
      },
      "removeCollateralETH(uint256)": {
        "details": "_amount should be higher than 0WETH is turned into ETH",
        "params": {
          "_amount": "of collateral to remove"
        }
      },
      "renounceOwnership()": {
        "details": "Leaves the contract without owner. It will not be possible to call `onlyOwner` functions anymore. Can only be called by the current owner. NOTE: Renouncing ownership will leave the contract without an owner, thereby removing any functionality that is only available to the owner."
      },
      "renounceRole(bytes32,address)": {
        "details": "Revokes `role` from the calling account. Roles are often managed via {grantRole} and {revokeRole}: this function's purpose is to provide a mechanism for accounts to lose their privileges if they are compromised (such as when a trusted device is misplaced). If the calling account had been granted `role`, emits a {RoleRevoked} event. Requirements: - the caller must be `account`."
      },
      "requiredCollateral(uint256)": {
        "details": "TCAP token is 18 decimalsC = ((P * A * r) / 100) / (cp * cdaf) C = Required Collateral P = TCAP Token Price A = Amount to Mint cp = Collateral Price r = Minimum Ratio for Liquidation cdaf = Collateral decimals adjust factor",
        "params": {
          "_amount": "uint amount to mint"
        },
        "returns": {
          "collateral": "of the TCAP Token"
        }
      },
      "requiredLiquidationTCAP(uint256)": {
        "details": "LT = ((((D * r) / 100) - cTcap) * 100) / (r - (p + 100)) cTcap = ((C * cdaf * cp) / P) LT = Required TCAP D = Vault Debt C = Required Collateral P = TCAP Token Price cdaf = Collateral Decimals adjustment Factor cp = Collateral Price r = Min Vault Ratio p = Liquidation Penalty",
        "params": {
          "_vaultId": "of the vault to liquidate"
        },
        "returns": {
          "amount": "required of the TCAP Token"
        }
      },
      "revokeRole(bytes32,address)": {
        "details": "Revokes `role` from `account`. If `account` had been granted `role`, emits a {RoleRevoked} event. Requirements: - the caller must have ``role``'s admin role."
      },
      "setBurnFee(uint256)": {
        "details": "Only owner can call it",
        "params": {
          "_burnFee": "uint"
        }
      },
      "setLiquidationPenalty(uint256)": {
        "details": "Only owner can call itrecommended value is between 1-15% and can't be above 100%",
        "params": {
          "_liquidationPenalty": "uint"
        }
      },
      "setMinimumTCAP(uint256)": {
        "details": "Only owner can call itthis is mostly used on hard mode vaults with low collateral ratio vaults",
        "params": {
          "_minimumTCAP": "uint"
        }
      },
      "setRatio(uint256)": {
        "details": "Only owner can call it",
        "params": {
          "_ratio": "uint"
        }
      },
      "setTreasury(address)": {
        "details": "Only owner can call it",
        "params": {
          "_treasury": "address"
        }
      },
      "supportsInterface(bytes4)": {
        "params": {
          "_interfaceId": "bytes of interface"
        },
        "returns": {
          "_0": "bool"
        }
      },
      "transferOwnership(address)": {
        "details": "Transfers ownership of the contract to a new account (`newOwner`). Can only be called by the current owner."
      }
    },
    "title": "ETH TCAP Vault",
    "version": 1
  },
  "userdoc": {
    "events": {
      "CollateralAdded(address,uint256,uint256)": {
        "notice": "An event emitted when collateral is added to a vault"
      },
      "CollateralRemoved(address,uint256,uint256)": {
        "notice": "An event emitted when collateral is removed from a vault"
      },
      "NewBurnFee(address,uint256)": {
        "notice": "An event emitted when the burn fee is updated"
      },
      "NewLiquidationPenalty(address,uint256)": {
        "notice": "An event emitted when the liquidation penalty is updated"
      },
      "NewMinimumTCAP(address,uint256)": {
        "notice": "An event emitted when the minimum required TCAP is updated"
      },
      "NewRatio(address,uint256)": {
        "notice": "An event emitted when the ratio is updated"
      },
      "NewTreasury(address,address)": {
        "notice": "An event emitted when the treasury contract is updated"
      },
      "Recovered(address,uint256)": {
        "notice": "An event emitted when a erc20 token is recovered"
      },
      "TokensBurned(address,uint256,uint256)": {
        "notice": "An event emitted when tokens are burned"
      },
      "TokensMinted(address,uint256,uint256)": {
        "notice": "An event emitted when tokens are minted"
      },
      "VaultCreated(address,uint256)": {
        "notice": "An event emitted when a vault is created"
      },
      "VaultLiquidated(uint256,address,uint256,uint256)": {
        "notice": "An event emitted when a vault is liquidated"
      }
    },
    "kind": "user",
    "methods": {
      "ETHPriceOracle()": {
        "notice": "ETH/USD Oracle Address"
      },
      "MAX_DECIMAL_PLACES()": {
        "notice": "Maximum decimal places that are supported by the collateral"
      },
      "MAX_FEE()": {
        "notice": "Maximum value that the burn fee can be set to"
      },
      "MIN_RATIO()": {
        "notice": "Minimum value that the ratio can be set to"
      },
      "TCAPPrice()": {
        "notice": "Returns the price of the TCAP token"
      },
      "TCAPToken()": {
        "notice": "TCAP Token Address"
      },
      "addCollateral(uint256)": {
        "notice": "Allows users to add collateral to their vaults"
      },
      "addCollateralETH()": {
        "notice": "Adds collateral to vault using ETH"
      },
      "burn(uint256)": {
        "notice": "Pays the debt of TCAP tokens resulting them on burn, this releases collateral up to minimun vault ratio"
      },
      "burnFee()": {
        "notice": "Fee percentage of the total amount to burn charged on ETH when burning TCAP Tokens"
      },
      "collateralContract()": {
        "notice": "Collateral Token Address"
      },
      "collateralDecimalsAdjustmentFactor()": {
        "notice": "value used to divide collateral to adjust the decimal places"
      },
      "collateralPriceOracle()": {
        "notice": "Collateral/USD Oracle Address"
      },
      "constructor": {
        "notice": "Constructor"
      },
      "counter()": {
        "notice": "Vault Id counter"
      },
      "createVault()": {
        "notice": "Allows an user to create an unique Vault"
      },
      "divisor()": {
        "notice": "Value used as divisor with the total market cap, just like the S&P 500 or any major financial index would to define the final tcap token price"
      },
      "getFee(uint256)": {
        "notice": "Returns the required fee of ETH to burn the TCAP tokens"
      },
      "getOraclePrice(address)": {
        "notice": "Returns the price of the chainlink oracle multiplied by the digits to get 18 decimals format"
      },
      "getVault(uint256)": {
        "notice": "Returns the Vault information of specified identifier"
      },
      "getVaultRatio(uint256)": {
        "notice": "Returns the Collateral Ratio of the Vault"
      },
      "liquidateVault(uint256,uint256)": {
        "notice": "Allow users to burn TCAP tokens to liquidate vaults with vault collateral ratio under the minium ratio, the liquidator receives the staked collateral of the liquidated vault at a premium"
      },
      "liquidationPenalty()": {
        "notice": "Penalty charged to vault owner when a vault is liquidated, this value goes to the liquidator"
      },
      "liquidationReward(uint256)": {
        "notice": "Returns the Reward Collateral amount for liquidating a vault"
      },
      "minimumTCAP()": {
        "notice": "Minimum amount of TCAP an user can mint"
      },
      "mint(uint256)": {
        "notice": "Uses collateral to generate debt on TCAP Tokens which are minted and assigend to caller"
      },
      "oracleDigits()": {
        "notice": "value used to multiply chainlink oracle for handling decimals"
      },
      "pause()": {
        "notice": "Allows the owner to Pause the Contract"
      },
      "ratio()": {
        "notice": "Minimum ratio required to prevent liquidation of vault"
      },
      "recoverERC20(address,uint256)": {
        "notice": "Added to support recovering LP Rewards from other systems such as BAL to be distributed to holders"
      },
      "removeCollateral(uint256)": {
        "notice": "Allows users to remove collateral currently not being used to generate TCAP tokens from their vaults"
      },
      "removeCollateralETH(uint256)": {
        "notice": "Removes not used collateral from vault"
      },
      "requiredCollateral(uint256)": {
        "notice": "Returns the minimal required collateral to mint TCAP token"
      },
      "requiredLiquidationTCAP(uint256)": {
        "notice": "Returns the minimal required TCAP to liquidate a Vault"
      },
      "setBurnFee(uint256)": {
        "notice": "Sets the burn fee percentage an user pays when burning tcap tokens"
      },
      "setLiquidationPenalty(uint256)": {
        "notice": "Sets the liquidation penalty % charged on liquidation"
      },
      "setMinimumTCAP(uint256)": {
        "notice": "Sets the minimum TCAP a vault owner can mint"
      },
      "setRatio(uint256)": {
        "notice": "Sets the collateral ratio needed to mint tokens"
      },
      "setTreasury(address)": {
        "notice": "Sets the treasury contract address where fees are transferred to"
      },
      "supportsInterface(bytes4)": {
        "notice": "ERC165 Standard for support of interfaces"
      },
      "tcapOracle()": {
        "notice": "Total Market Cap/USD Oracle Address"
      },
      "treasury()": {
        "notice": "Address of the treasury contract (usually the timelock) where the funds generated by the protocol are sent"
      },
      "unpause()": {
        "notice": "Allows the owner to Unpause the Contract"
      },
      "userToVault(address)": {
        "notice": "Owner address to Vault Id"
      },
      "vaults(uint256)": {
        "notice": "Id To Vault"
      }
    },
    "notice": "Contract in charge of handling the TCAP Vault and stake using a ETH and WETH",
    "version": 1
  },
  "storageLayout": {
    "storage": [
      {
        "astId": 359,
        "contract": "contracts/ETHVaultHandler.sol:ETHVaultHandler",
        "label": "_owner",
        "offset": 0,
        "slot": "0",
        "type": "t_address"
      },
      {
        "astId": 91,
        "contract": "contracts/ETHVaultHandler.sol:ETHVaultHandler",
        "label": "_roles",
        "offset": 0,
        "slot": "1",
        "type": "t_mapping(t_bytes32,t_struct(RoleData)87_storage)"
      },
      {
        "astId": 2582,
        "contract": "contracts/ETHVaultHandler.sol:ETHVaultHandler",
        "label": "_status",
        "offset": 0,
        "slot": "2",
        "type": "t_uint256"
      },
      {
        "astId": 2499,
        "contract": "contracts/ETHVaultHandler.sol:ETHVaultHandler",
        "label": "_paused",
        "offset": 0,
        "slot": "3",
        "type": "t_bool"
      },
      {
        "astId": 4002,
        "contract": "contracts/ETHVaultHandler.sol:ETHVaultHandler",
        "label": "counter",
        "offset": 0,
        "slot": "4",
        "type": "t_struct(Counter)1961_storage"
      },
      {
        "astId": 4020,
        "contract": "contracts/ETHVaultHandler.sol:ETHVaultHandler",
        "label": "divisor",
        "offset": 0,
        "slot": "5",
        "type": "t_uint256"
      },
      {
        "astId": 4023,
        "contract": "contracts/ETHVaultHandler.sol:ETHVaultHandler",
        "label": "ratio",
        "offset": 0,
        "slot": "6",
        "type": "t_uint256"
      },
      {
        "astId": 4026,
        "contract": "contracts/ETHVaultHandler.sol:ETHVaultHandler",
        "label": "burnFee",
        "offset": 0,
        "slot": "7",
        "type": "t_uint256"
      },
      {
        "astId": 4029,
        "contract": "contracts/ETHVaultHandler.sol:ETHVaultHandler",
        "label": "liquidationPenalty",
        "offset": 0,
        "slot": "8",
        "type": "t_uint256"
      },
      {
        "astId": 4033,
        "contract": "contracts/ETHVaultHandler.sol:ETHVaultHandler",
        "label": "minimumTCAP",
        "offset": 0,
        "slot": "9",
        "type": "t_uint256"
      },
      {
        "astId": 4036,
        "contract": "contracts/ETHVaultHandler.sol:ETHVaultHandler",
        "label": "treasury",
        "offset": 0,
        "slot": "10",
        "type": "t_address"
      },
      {
        "astId": 4041,
        "contract": "contracts/ETHVaultHandler.sol:ETHVaultHandler",
        "label": "userToVault",
        "offset": 0,
        "slot": "11",
        "type": "t_mapping(t_address,t_uint256)"
      },
      {
        "astId": 4046,
        "contract": "contracts/ETHVaultHandler.sol:ETHVaultHandler",
        "label": "vaults",
        "offset": 0,
        "slot": "12",
        "type": "t_mapping(t_uint256,t_struct(Vault)3999_storage)"
      },
      {
        "astId": 4057,
        "contract": "contracts/ETHVaultHandler.sol:ETHVaultHandler",
        "label": "collateralDecimalsAdjustmentFactor",
        "offset": 0,
        "slot": "13",
        "type": "t_uint256"
      }
    ],
    "types": {
      "t_address": {
        "encoding": "inplace",
        "label": "address",
        "numberOfBytes": "20"
      },
      "t_array(t_bytes32)dyn_storage": {
        "base": "t_bytes32",
        "encoding": "dynamic_array",
        "label": "bytes32[]",
        "numberOfBytes": "32"
      },
      "t_bool": {
        "encoding": "inplace",
        "label": "bool",
        "numberOfBytes": "1"
      },
      "t_bytes32": {
        "encoding": "inplace",
        "label": "bytes32",
        "numberOfBytes": "32"
      },
      "t_mapping(t_address,t_uint256)": {
        "encoding": "mapping",
        "key": "t_address",
        "label": "mapping(address => uint256)",
        "numberOfBytes": "32",
        "value": "t_uint256"
      },
      "t_mapping(t_bytes32,t_struct(RoleData)87_storage)": {
        "encoding": "mapping",
        "key": "t_bytes32",
        "label": "mapping(bytes32 => struct AccessControl.RoleData)",
        "numberOfBytes": "32",
        "value": "t_struct(RoleData)87_storage"
      },
      "t_mapping(t_bytes32,t_uint256)": {
        "encoding": "mapping",
        "key": "t_bytes32",
        "label": "mapping(bytes32 => uint256)",
        "numberOfBytes": "32",
        "value": "t_uint256"
      },
      "t_mapping(t_uint256,t_struct(Vault)3999_storage)": {
        "encoding": "mapping",
        "key": "t_uint256",
        "label": "mapping(uint256 => struct IVaultHandler.Vault)",
        "numberOfBytes": "32",
        "value": "t_struct(Vault)3999_storage"
      },
      "t_struct(AddressSet)2277_storage": {
        "encoding": "inplace",
        "label": "struct EnumerableSet.AddressSet",
        "members": [
          {
            "astId": 2276,
            "contract": "contracts/ETHVaultHandler.sol:ETHVaultHandler",
            "label": "_inner",
            "offset": 0,
            "slot": "0",
            "type": "t_struct(Set)2012_storage"
          }
        ],
        "numberOfBytes": "64"
      },
      "t_struct(Counter)1961_storage": {
        "encoding": "inplace",
        "label": "struct Counters.Counter",
        "members": [
          {
            "astId": 1960,
            "contract": "contracts/ETHVaultHandler.sol:ETHVaultHandler",
            "label": "_value",
            "offset": 0,
            "slot": "0",
            "type": "t_uint256"
          }
        ],
        "numberOfBytes": "32"
      },
      "t_struct(RoleData)87_storage": {
        "encoding": "inplace",
        "label": "struct AccessControl.RoleData",
        "members": [
          {
            "astId": 84,
            "contract": "contracts/ETHVaultHandler.sol:ETHVaultHandler",
            "label": "members",
            "offset": 0,
            "slot": "0",
            "type": "t_struct(AddressSet)2277_storage"
          },
          {
            "astId": 86,
            "contract": "contracts/ETHVaultHandler.sol:ETHVaultHandler",
            "label": "adminRole",
            "offset": 0,
            "slot": "2",
            "type": "t_bytes32"
          }
        ],
        "numberOfBytes": "96"
      },
      "t_struct(Set)2012_storage": {
        "encoding": "inplace",
        "label": "struct EnumerableSet.Set",
        "members": [
          {
            "astId": 2007,
            "contract": "contracts/ETHVaultHandler.sol:ETHVaultHandler",
            "label": "_values",
            "offset": 0,
            "slot": "0",
            "type": "t_array(t_bytes32)dyn_storage"
          },
          {
            "astId": 2011,
            "contract": "contracts/ETHVaultHandler.sol:ETHVaultHandler",
            "label": "_indexes",
            "offset": 0,
            "slot": "1",
            "type": "t_mapping(t_bytes32,t_uint256)"
          }
        ],
        "numberOfBytes": "64"
      },
      "t_struct(Vault)3999_storage": {
        "encoding": "inplace",
        "label": "struct IVaultHandler.Vault",
        "members": [
          {
            "astId": 3992,
            "contract": "contracts/ETHVaultHandler.sol:ETHVaultHandler",
            "label": "Id",
            "offset": 0,
            "slot": "0",
            "type": "t_uint256"
          },
          {
            "astId": 3994,
            "contract": "contracts/ETHVaultHandler.sol:ETHVaultHandler",
            "label": "Collateral",
            "offset": 0,
            "slot": "1",
            "type": "t_uint256"
          },
          {
            "astId": 3996,
            "contract": "contracts/ETHVaultHandler.sol:ETHVaultHandler",
            "label": "Debt",
            "offset": 0,
            "slot": "2",
            "type": "t_uint256"
          },
          {
            "astId": 3998,
            "contract": "contracts/ETHVaultHandler.sol:ETHVaultHandler",
            "label": "Owner",
            "offset": 0,
            "slot": "3",
            "type": "t_address"
          }
        ],
        "numberOfBytes": "128"
      },
      "t_uint256": {
        "encoding": "inplace",
        "label": "uint256",
        "numberOfBytes": "32"
      }
    }
  }
}