{
  "abi": [
    {
      "inputs": [
        {
          "internalType": "address",
          "name": "_guardian",
          "type": "address"
        }
      ],
      "stateMutability": "nonpayable",
      "type": "constructor"
    },
    {
      "anonymous": false,
      "inputs": [
        {
          "indexed": true,
          "internalType": "address",
          "name": "_owner",
          "type": "address"
        },
        {
          "indexed": false,
          "internalType": "address",
          "name": "guardian",
          "type": "address"
        }
      ],
      "name": "LogSetGuardian",
      "type": "event"
    },
    {
      "anonymous": false,
      "inputs": [
        {
          "indexed": true,
          "internalType": "address",
          "name": "previousOwner",
          "type": "address"
        },
        {
          "indexed": true,
          "internalType": "address",
          "name": "newOwner",
          "type": "address"
        }
      ],
      "name": "OwnershipTransferred",
      "type": "event"
    },
    {
      "inputs": [
        {
          "internalType": "contract TCAP",
          "name": "_tcap",
          "type": "address"
        },
        {
          "internalType": "contract IVaultHandler",
          "name": "_vault",
          "type": "address"
        }
      ],
      "name": "addTCAPVault",
      "outputs": [],
      "stateMutability": "nonpayable",
      "type": "function"
    },
    {
      "inputs": [
        {
          "internalType": "contract TCAP",
          "name": "_tcap",
          "type": "address"
        },
        {
          "internalType": "bool",
          "name": "_enable",
          "type": "bool"
        }
      ],
      "name": "enableTCAPCap",
      "outputs": [],
      "stateMutability": "nonpayable",
      "type": "function"
    },
    {
      "inputs": [],
      "name": "guardian",
      "outputs": [
        {
          "internalType": "address",
          "name": "",
          "type": "address"
        }
      ],
      "stateMutability": "view",
      "type": "function"
    },
    {
      "inputs": [],
      "name": "owner",
      "outputs": [
        {
          "internalType": "address",
          "name": "",
          "type": "address"
        }
      ],
      "stateMutability": "view",
      "type": "function"
    },
    {
      "inputs": [
        {
          "internalType": "contract IVaultHandler",
          "name": "_vault",
          "type": "address"
        }
      ],
      "name": "pauseVault",
      "outputs": [],
      "stateMutability": "nonpayable",
      "type": "function"
    },
    {
      "inputs": [],
      "name": "renounceOwnership",
      "outputs": [],
      "stateMutability": "nonpayable",
      "type": "function"
    },
    {
      "inputs": [],
      "name": "retrieveFees",
      "outputs": [],
      "stateMutability": "nonpayable",
      "type": "function"
    },
    {
      "inputs": [
        {
          "internalType": "contract IVaultHandler",
          "name": "_vault",
          "type": "address"
        }
      ],
      "name": "retrieveVaultFees",
      "outputs": [],
      "stateMutability": "nonpayable",
      "type": "function"
    },
    {
      "inputs": [
        {
          "internalType": "contract IVaultHandler",
          "name": "_vault",
          "type": "address"
        },
        {
          "internalType": "uint256",
          "name": "_burnFee",
          "type": "uint256"
        }
      ],
      "name": "setBurnFee",
      "outputs": [],
      "stateMutability": "nonpayable",
      "type": "function"
    },
    {
      "inputs": [
        {
          "internalType": "contract IVaultHandler",
          "name": "_vault",
          "type": "address"
        }
      ],
      "name": "setEmergencyBurnFee",
      "outputs": [],
      "stateMutability": "nonpayable",
      "type": "function"
    },
    {
      "inputs": [
        {
          "internalType": "contract IVaultHandler",
          "name": "_vault",
          "type": "address"
        }
      ],
      "name": "setEmergencyLiquidationPenalty",
      "outputs": [],
      "stateMutability": "nonpayable",
      "type": "function"
    },
    {
      "inputs": [
        {
          "internalType": "address",
          "name": "_guardian",
          "type": "address"
        }
      ],
      "name": "setGuardian",
      "outputs": [],
      "stateMutability": "nonpayable",
      "type": "function"
    },
    {
      "inputs": [
        {
          "internalType": "contract IVaultHandler",
          "name": "_vault",
          "type": "address"
        },
        {
          "internalType": "uint256",
          "name": "_liquidationPenalty",
          "type": "uint256"
        }
      ],
      "name": "setLiquidationPenalty",
      "outputs": [],
      "stateMutability": "nonpayable",
      "type": "function"
    },
    {
      "inputs": [
        {
          "internalType": "contract IVaultHandler",
          "name": "_vault",
          "type": "address"
        },
        {
          "internalType": "uint256",
          "name": "_ratio",
          "type": "uint256"
        }
      ],
      "name": "setRatio",
      "outputs": [],
      "stateMutability": "nonpayable",
      "type": "function"
    },
    {
      "inputs": [
        {
          "internalType": "contract TCAP",
          "name": "_tcap",
          "type": "address"
        },
        {
          "internalType": "uint256",
          "name": "_cap",
          "type": "uint256"
        }
      ],
      "name": "setTCAPCap",
      "outputs": [],
      "stateMutability": "nonpayable",
      "type": "function"
    },
    {
      "inputs": [
        {
          "internalType": "address",
          "name": "newOwner",
          "type": "address"
        }
      ],
      "name": "transferOwnership",
      "outputs": [],
      "stateMutability": "nonpayable",
      "type": "function"
    },
    {
      "inputs": [
        {
          "internalType": "contract IVaultHandler",
          "name": "_vault",
          "type": "address"
        }
      ],
      "name": "unpauseVault",
      "outputs": [],
      "stateMutability": "nonpayable",
      "type": "function"
    },
    {
      "stateMutability": "payable",
      "type": "receive"
    }
  ],
  "address": "0x5F671E22bb8EFf4C37b1acDe466c544bd87BaD56",
  "args": [
    "0xFB77c9BBd9Fd884A5078Ef0e97ec089C9B811243"
  ],
  "solcInputHash": "0x5af4e17fd7e3b91982c60391762bd52010b7b6e71c517c22d06f7ce359fa40ae",
  "bytecode": "0x608060405234801561001057600080fd5b506040516118043803806118048339818101604052602081101561003357600080fd5b505160006100486001600160e01b036100b716565b600080546001600160a01b0319166001600160a01b0383169081178255604051929350917f8be0079c531659141344cd1fd0a4f28419497f9722a3daafe3b4186f6b6457e0908290a350600180546001600160a01b0319166001600160a01b03929092169190911790556100bb565b3390565b61173a806100ca6000396000f3fe6080604052600436106101025760003560e01c80638d88716311610095578063c0bd6f9e11610064578063c0bd6f9e1461033a578063c1a017b91461036d578063c5f20d7b146103a0578063f2fde38b146103d9578063f4c7c76c1461040c57610109565b80638d8871631461029c5780638da5cb5b146102d55780639ab4e67f146102ea578063bae8cae51461032557610109565b8063715018a6116100d1578063715018a6146101e05780637532ce70146101f55780637e0e28011461022e5780638a0dac4a1461026957610109565b8063057520471461010e5780631fefeb3c146101495780632efbab2c1461017c578063452a9320146101af57610109565b3661010957005b600080fd5b34801561011a57600080fd5b506101476004803603604081101561013157600080fd5b506001600160a01b03813516906020013561043f565b005b34801561015557600080fd5b506101476004803603602081101561016c57600080fd5b50356001600160a01b0316610547565b34801561018857600080fd5b506101476004803603602081101561019f57600080fd5b50356001600160a01b0316610643565b3480156101bb57600080fd5b506101c4610714565b604080516001600160a01b039092168252519081900360200190f35b3480156101ec57600080fd5b50610147610723565b34801561020157600080fd5b506101476004803603604081101561021857600080fd5b506001600160a01b0381351690602001356107c5565b34801561023a57600080fd5b506101476004803603604081101561025157600080fd5b506001600160a01b03813516906020013515156108b0565b34801561027557600080fd5b506101476004803603602081101561028c57600080fd5b50356001600160a01b031661099e565b3480156102a857600080fd5b50610147600480360360408110156102bf57600080fd5b506001600160a01b038135169060200135610a7d565b3480156102e157600080fd5b506101c4610b68565b3480156102f657600080fd5b506101476004803603604081101561030d57600080fd5b506001600160a01b0381358116916020013516610b77565b34801561033157600080fd5b50610147610cdf565b34801561034657600080fd5b506101476004803603602081101561035d57600080fd5b50356001600160a01b0316610d7c565b34801561037957600080fd5b506101476004803603602081101561039057600080fd5b50356001600160a01b0316610edb565b3480156103ac57600080fd5b50610147600480360360408110156103c357600080fd5b506001600160a01b038135169060200135611043565b3480156103e557600080fd5b50610147600480360360208110156103fc57600080fd5b50356001600160a01b031661112e565b34801561041857600080fd5b506101476004803603602081101561042f57600080fd5b50356001600160a01b0316611226565b61044761138c565b6000546001600160a01b03908116911614610497576040805162461bcd60e51b8152602060048201819052602482015260008051602061160c833981519152604482015290519081900360640190fd5b816104a98163279d6ac360e21b611390565b6104e45760405162461bcd60e51b815260040180806020018281038252602b8152602001806116da602b913960400191505060405180910390fd5b826001600160a01b031663b2237ba3836040518263ffffffff1660e01b815260040180828152602001915050600060405180830381600087803b15801561052a57600080fd5b505af115801561053e573d6000803e3d6000fd5b50505050505050565b61054f61138c565b6000546001600160a01b0390811691161461059f576040805162461bcd60e51b8152602060048201819052602482015260008051602061160c833981519152604482015290519081900360640190fd5b806105b18163279d6ac360e21b611390565b6105ec5760405162461bcd60e51b815260040180806020018281038252602b8152602001806116da602b913960400191505060405180910390fd5b816001600160a01b031663bae8cae56040518163ffffffff1660e01b8152600401600060405180830381600087803b15801561062757600080fd5b505af115801561063b573d6000803e3d6000fd5b505050505050565b6001546001600160a01b0316331461068c5760405162461bcd60e51b81526004018080602001828103825260368152602001806116756036913960400191505060405180910390fd5b8061069e8163279d6ac360e21b611390565b6106d95760405162461bcd60e51b815260040180806020018281038252602b8152602001806116da602b913960400191505060405180910390fd5b816001600160a01b0316633f4ba83a6040518163ffffffff1660e01b8152600401600060405180830381600087803b15801561062757600080fd5b6001546001600160a01b031681565b61072b61138c565b6000546001600160a01b0390811691161461077b576040805162461bcd60e51b8152602060048201819052602482015260008051602061160c833981519152604482015290519081900360640190fd5b600080546040516001600160a01b03909116907f8be0079c531659141344cd1fd0a4f28419497f9722a3daafe3b4186f6b6457e0908390a3600080546001600160a01b0319169055565b6107cd61138c565b6000546001600160a01b0390811691161461081d576040805162461bcd60e51b8152602060048201819052602482015260008051602061160c833981519152604482015290519081900360640190fd5b8161082f8163279d6ac360e21b611390565b61086a5760405162461bcd60e51b815260040180806020018281038252602b8152602001806116da602b913960400191505060405180910390fd5b826001600160a01b0316634bf2c7c9836040518263ffffffff1660e01b815260040180828152602001915050600060405180830381600087803b15801561052a57600080fd5b6108b861138c565b6000546001600160a01b03908116911614610908576040805162461bcd60e51b8152602060048201819052602482015260008051602061160c833981519152604482015290519081900360640190fd5b8161091a8163a9ccee5160e01b611390565b6109555760405162461bcd60e51b815260040180806020018281038252602f8152602001806116ab602f913960400191505060405180910390fd5b604080516312f3ebe560e31b8152831515600482015290516001600160a01b0385169163979f5f2891602480830192600092919082900301818387803b15801561052a57600080fd5b6109a661138c565b6000546001600160a01b039081169116146109f6576040805162461bcd60e51b8152602060048201819052602482015260008051602061160c833981519152604482015290519081900360640190fd5b6001600160a01b038116610a3b5760405162461bcd60e51b81526004018080602001828103825260318152602001806115db6031913960400191505060405180910390fd5b604080516001600160a01b0383168152905133917f7ea970bb665ad2bf48bc6afb4e7bcec169201454c4640048ee21994777a444b9919081900360200190a250565b610a8561138c565b6000546001600160a01b03908116911614610ad5576040805162461bcd60e51b8152602060048201819052602482015260008051602061160c833981519152604482015290519081900360640190fd5b81610ae78163a9ccee5160e01b611390565b610b225760405162461bcd60e51b815260040180806020018281038252602f8152602001806116ab602f913960400191505060405180910390fd5b826001600160a01b03166347786d37836040518263ffffffff1660e01b815260040180828152602001915050600060405180830381600087803b15801561052a57600080fd5b6000546001600160a01b031690565b610b7f61138c565b6000546001600160a01b03908116911614610bcf576040805162461bcd60e51b8152602060048201819052602482015260008051602061160c833981519152604482015290519081900360640190fd5b81610be18163a9ccee5160e01b611390565b610c1c5760405162461bcd60e51b815260040180806020018281038252602f8152602001806116ab602f913960400191505060405180910390fd5b81610c2e8163279d6ac360e21b611390565b610c695760405162461bcd60e51b815260040180806020018281038252602b8152602001806116da602b913960400191505060405180910390fd5b836001600160a01b03166327cb052e846040518263ffffffff1660e01b815260040180826001600160a01b03166001600160a01b03168152602001915050600060405180830381600087803b158015610cc157600080fd5b505af1158015610cd5573d6000803e3d6000fd5b5050505050505050565b610ce761138c565b6000546001600160a01b03908116911614610d37576040805162461bcd60e51b8152602060048201819052602482015260008051602061160c833981519152604482015290519081900360640190fd5b47610d40610b68565b6001600160a01b03166108fc829081150290604051600060405180830381858888f19350505050158015610d78573d6000803e3d6000fd5b5050565b6001546001600160a01b03163314610dc55760405162461bcd60e51b81526004018080602001828103825260368152602001806116756036913960400191505060405180910390fd5b80610dd78163279d6ac360e21b611390565b610e125760405162461bcd60e51b815260040180806020018281038252602b8152602001806116da602b913960400191505060405180910390fd5b6001600160a01b038216600090815260026020818152604080842092845291905290205460ff16151560011415610e7a5760405162461bcd60e51b81526004018080602001828103825260358152602001806115686035913960400191505060405180910390fd5b6001600160a01b0382166000818152600260208181526040808420928452919052808220805460ff191660011790558051638456cb5960e01b81529051638456cb599260048084019391929182900301818387803b15801561062757600080fd5b6001546001600160a01b03163314610f245760405162461bcd60e51b81526004018080602001828103825260368152602001806116756036913960400191505060405180910390fd5b80610f368163279d6ac360e21b611390565b610f715760405162461bcd60e51b815260040180806020018281038252602b8152602001806116da602b913960400191505060405180910390fd5b6001600160a01b0382166000908152600260209081526040808320600180855292529091205460ff1615151415610fd95760405162461bcd60e51b815260040180806020018281038252604981526020018061162c6049913960600191505060405180910390fd5b6001600160a01b038216600081815260026020908152604080832060018085529252808320805460ff19169092179091558051632806a74360e01b8152600481018390529051632806a7439260248084019391929182900301818387803b15801561062757600080fd5b61104b61138c565b6000546001600160a01b0390811691161461109b576040805162461bcd60e51b8152602060048201819052602482015260008051602061160c833981519152604482015290519081900360640190fd5b816110ad8163279d6ac360e21b611390565b6110e85760405162461bcd60e51b815260040180806020018281038252602b8152602001806116da602b913960400191505060405180910390fd5b826001600160a01b0316632806a743836040518263ffffffff1660e01b815260040180828152602001915050600060405180830381600087803b15801561052a57600080fd5b61113661138c565b6000546001600160a01b03908116911614611186576040805162461bcd60e51b8152602060048201819052602482015260008051602061160c833981519152604482015290519081900360640190fd5b6001600160a01b0381166111cb5760405162461bcd60e51b81526004018080602001828103825260268152602001806115426026913960400191505060405180910390fd5b600080546040516001600160a01b03808516939216917f8be0079c531659141344cd1fd0a4f28419497f9722a3daafe3b4186f6b6457e091a3600080546001600160a01b0319166001600160a01b0392909216919091179055565b6001546001600160a01b0316331461126f5760405162461bcd60e51b81526004018080602001828103825260368152602001806116756036913960400191505060405180910390fd5b806112818163279d6ac360e21b611390565b6112bc5760405162461bcd60e51b815260040180806020018281038252602b8152602001806116da602b913960400191505060405180910390fd5b6001600160a01b038216600090815260026020908152604080832083805290915290205460ff161515600114156113245760405162461bcd60e51b815260040180806020018281038252603e81526020018061159d603e913960400191505060405180910390fd5b6001600160a01b0382166000818152600260209081526040808320838052909152808220805460ff191660011790558051634bf2c7c960e01b8152600481018390529051634bf2c7c99260248084019391929182900301818387803b15801561062757600080fd5b3390565b600061139b836113b3565b80156113ac57506113ac83836113e7565b9392505050565b60006113c6826301ffc9a760e01b6113e7565b80156113e157506113df826001600160e01b03196113e7565b155b92915050565b60008060006113f6858561140d565b915091508180156114045750805b95945050505050565b604080516001600160e01b0319831660248083019190915282518083039091018152604490910182526020810180516001600160e01b03166301ffc9a760e01b1781529151815160009384939284926060926001600160a01b038a169261753092879282918083835b602083106114955780518252601f199092019160209182019101611476565b6001836020036101000a0380198251168184511680821785525050505050509050019150506000604051808303818686fa925050503d80600081146114f6576040519150601f19603f3d011682016040523d82523d6000602084013e6114fb565b606091505b5091509150602081511015611519576000809450945050505061153a565b8181806020019051602081101561152f57600080fd5b505190955093505050505b925092905056fe4f776e61626c653a206e6577206f776e657220697320746865207a65726f20616464726573734f7263686573747261746f723a3a70617573655661756c743a20656d657267656e63792063616c6c20616c726561647920757365644f7263686573747261746f723a3a736574456d657267656e63794275726e4665653a20656d657267656e63792063616c6c20616c726561647920757365644f7263686573747261746f723a3a736574477561726469616e3a20677561726469616e2063616e2774206265207a65726f4f776e61626c653a2063616c6c6572206973206e6f7420746865206f776e65724f7263686573747261746f723a3a736574456d657267656e63794c69717569646174696f6e50656e616c74793a20656d657267656e63792063616c6c20616c726561647920757365644f7263686573747261746f723a3a6f6e6c79477561726469616e3a2063616c6c6572206973206e6f742074686520677561726469616e4f7263686573747261746f723a3a76616c6964544341503a206e6f7420612076616c696420544341502045524332304f7263686573747261746f723a3a76616c69645661756c743a206e6f7420612076616c6964207661756c74a26469706673582212200177380c37061bc9dd226f20b1c2691d1c8046d9b322ae95bcd7a77dbe02d65964736f6c63430006080033",
  "devdoc": {
    "author": "Cristian Espinoza",
    "methods": {
      "addTCAPVault(address,address)": {
        "details": "Only owner can call itValidates if _tcap is validValidates if _vault is valid",
        "params": {
          "_tcap": "address",
          "_vault": "address"
        }
      },
      "constructor": {
        "params": {
          "_guardian": "The guardian address"
        }
      },
      "enableTCAPCap(address,bool)": {
        "details": "Only owner can call itValidates if _tcap is valid",
        "params": {
          "_enable": "bool",
          "_tcap": "address"
        }
      },
      "owner()": {
        "details": "Returns the address of the current owner."
      },
      "pauseVault(address)": {
        "details": "Only guardian can call itValidates if _vault is valid",
        "params": {
          "_vault": "address"
        }
      },
      "renounceOwnership()": {
        "details": "Leaves the contract without owner. It will not be possible to call `onlyOwner` functions anymore. Can only be called by the current owner.     * NOTE: Renouncing ownership will leave the contract without an owner, thereby removing any functionality that is only available to the owner."
      },
      "retrieveFees()": {
        "details": "Only owner can call itTransfer the balance to the contract owner"
      },
      "retrieveVaultFees(address)": {
        "details": "Only owner can call itValidates if _vault is valid",
        "params": {
          "_vault": "address"
        }
      },
      "setBurnFee(address,uint256)": {
        "details": "Only owner can call it",
        "params": {
          "_burnFee": "value",
          "_vault": "address"
        }
      },
      "setEmergencyBurnFee(address)": {
        "details": "Only owner can call itValidates if _vault is valid",
        "params": {
          "_vault": "address"
        }
      },
      "setEmergencyLiquidationPenalty(address)": {
        "details": "Only owner can call itValidates if _vault is valid",
        "params": {
          "_vault": "address"
        }
      },
      "setGuardian(address)": {
        "details": "Only owner can call it",
        "params": {
          "_guardian": "address of the guardian"
        }
      },
      "setLiquidationPenalty(address,uint256)": {
        "details": "Only owner can call it",
        "params": {
          "_liquidationPenalty": "value",
          "_vault": "address"
        }
      },
      "setRatio(address,uint256)": {
        "details": "Only owner can call it",
        "params": {
          "_ratio": "value",
          "_vault": "address"
        }
      },
      "setTCAPCap(address,uint256)": {
        "details": "Only owner can call itValidates if _tcap is valid",
        "params": {
          "_cap": "uint value",
          "_tcap": "address"
        }
      },
      "transferOwnership(address)": {
        "details": "Transfers ownership of the contract to a new account (`newOwner`). Can only be called by the current owner."
      },
      "unpauseVault(address)": {
        "details": "Only guardian can call itValidates if _vault is valid",
        "params": {
          "_vault": "address"
        }
      }
    },
    "title": "TCAP Orchestrator"
  },
  "userdoc": {
    "methods": {
      "addTCAPVault(address,address)": {
        "notice": "Adds Vault to TCAP ERC20"
      },
      "constructor": "Construct a new Orchestrator",
      "enableTCAPCap(address,bool)": {
        "notice": "Enables or disables the TCAP Cap"
      },
      "pauseVault(address)": {
        "notice": "Pauses the Vault"
      },
      "retrieveFees()": {
        "notice": "Retrieves the fees on the orchestrator"
      },
      "retrieveVaultFees(address)": {
        "notice": "Retrieves a vault fees and put it on the Orchestrator"
      },
      "setBurnFee(address,uint256)": {
        "notice": "Sets the burn fee of a vault"
      },
      "setEmergencyBurnFee(address)": {
        "notice": "Sets the burn fee to 0, only used on a black swan event"
      },
      "setEmergencyLiquidationPenalty(address)": {
        "notice": "Sets the liquidation penalty of a vault to 0, only used on a black swan event"
      },
      "setGuardian(address)": {
        "notice": "Sets the guardian of the orchestrator"
      },
      "setLiquidationPenalty(address,uint256)": {
        "notice": "Sets the liquidation penalty of a vault"
      },
      "setRatio(address,uint256)": {
        "notice": "Sets the ratio of a vault"
      },
      "setTCAPCap(address,uint256)": {
        "notice": "Sets the TCAP maximum minting value"
      },
      "unpauseVault(address)": {
        "notice": "Unpauses the Vault"
      }
    },
    "notice": "Orchestrator contract in charge of managing the settings of the vaults and TCAP token"
  },
  "storageLayout": {
    "storage": [
      {
        "astId": 359,
        "contract": "contracts/Orchestrator.sol:Orchestrator",
        "label": "_owner",
        "offset": 0,
        "slot": "0",
        "type": "t_address"
      },
      {
        "astId": 4152,
        "contract": "contracts/Orchestrator.sol:Orchestrator",
        "label": "guardian",
        "offset": 0,
        "slot": "1",
        "type": "t_address"
      },
      {
        "astId": 4162,
        "contract": "contracts/Orchestrator.sol:Orchestrator",
        "label": "emergencyCalled",
        "offset": 0,
        "slot": "2",
        "type": "t_mapping(t_contract(IVaultHandler)4039,t_mapping(t_enum(Functions)4156,t_bool))"
      }
    ],
    "types": {
      "t_address": {
        "encoding": "inplace",
        "label": "address",
        "numberOfBytes": "20"
      },
      "t_bool": {
        "encoding": "inplace",
        "label": "bool",
        "numberOfBytes": "1"
      },
      "t_contract(IVaultHandler)4039": {
        "encoding": "inplace",
        "label": "contract IVaultHandler",
        "numberOfBytes": "20"
      },
      "t_enum(Functions)4156": {
        "encoding": "inplace",
        "label": "enum Orchestrator.Functions",
        "numberOfBytes": "1"
      },
      "t_mapping(t_contract(IVaultHandler)4039,t_mapping(t_enum(Functions)4156,t_bool))": {
        "encoding": "mapping",
        "key": "t_contract(IVaultHandler)4039",
        "label": "mapping(contract IVaultHandler => mapping(enum Orchestrator.Functions => bool))",
        "numberOfBytes": "32",
        "value": "t_mapping(t_enum(Functions)4156,t_bool)"
      },
      "t_mapping(t_enum(Functions)4156,t_bool)": {
        "encoding": "mapping",
        "key": "t_enum(Functions)4156",
        "label": "mapping(enum Orchestrator.Functions => bool)",
        "numberOfBytes": "32",
        "value": "t_bool"
      }
    }
  },
  "gasEstimates": {
    "creation": {
      "codeDepositCost": "1189200",
      "executionCost": "infinite",
      "totalCost": "infinite"
    },
    "external": {
      "addTCAPVault(address,address)": "infinite",
      "enableTCAPCap(address,bool)": "infinite",
      "guardian()": "1127",
      "owner()": "1082",
      "pauseVault(address)": "infinite",
      "renounceOwnership()": "infinite",
      "retrieveFees()": "infinite",
      "retrieveVaultFees(address)": "infinite",
      "setBurnFee(address,uint256)": "infinite",
      "setEmergencyBurnFee(address)": "infinite",
      "setEmergencyLiquidationPenalty(address)": "infinite",
      "setGuardian(address)": "infinite",
      "setLiquidationPenalty(address,uint256)": "infinite",
      "setRatio(address,uint256)": "infinite",
      "setTCAPCap(address,uint256)": "infinite",
      "transferOwnership(address)": "infinite",
      "unpauseVault(address)": "infinite"
    }
  }
}