{
  "abi": [
    {
      "anonymous": false,
      "inputs": [
        {
          "indexed": true,
          "internalType": "address",
          "name": "_contract",
          "type": "address"
        },
        {
          "indexed": false,
          "internalType": "enum Orchestrator.Functions",
          "name": "_fn",
          "type": "uint8"
        },
        {
          "indexed": false,
          "internalType": "bytes32",
          "name": "_hash",
          "type": "bytes32"
        }
      ],
      "name": "LogUnlock",
      "type": "event"
    },
    {
      "anonymous": false,
      "inputs": [
        {
          "indexed": true,
          "internalType": "address",
          "name": "previousOwner",
          "type": "address"
        },
        {
          "indexed": true,
          "internalType": "address",
          "name": "newOwner",
          "type": "address"
        }
      ],
      "name": "OwnershipTransferred",
      "type": "event"
    },
    {
      "inputs": [
        {
          "internalType": "contract TCAP",
          "name": "_tcap",
          "type": "address"
        },
        {
          "internalType": "contract IVaultHandler",
          "name": "_vault",
          "type": "address"
        }
      ],
      "name": "addTCAPVault",
      "outputs": [],
      "stateMutability": "nonpayable",
      "type": "function"
    },
    {
      "inputs": [
        {
          "internalType": "contract TCAP",
          "name": "_tcap",
          "type": "address"
        },
        {
          "internalType": "bool",
          "name": "_enable",
          "type": "bool"
        }
      ],
      "name": "enableTCAPCap",
      "outputs": [],
      "stateMutability": "nonpayable",
      "type": "function"
    },
    {
      "inputs": [
        {
          "internalType": "contract IVaultHandler",
          "name": "_vault",
          "type": "address"
        },
        {
          "internalType": "uint256",
          "name": "_divisor",
          "type": "uint256"
        },
        {
          "internalType": "uint256",
          "name": "_ratio",
          "type": "uint256"
        },
        {
          "internalType": "uint256",
          "name": "_burnFee",
          "type": "uint256"
        },
        {
          "internalType": "uint256",
          "name": "_liquidationPenalty",
          "type": "uint256"
        },
        {
          "internalType": "address",
          "name": "_tcapOracle",
          "type": "address"
        },
        {
          "internalType": "contract TCAP",
          "name": "_tcapAddress",
          "type": "address"
        },
        {
          "internalType": "address",
          "name": "_collateralAddress",
          "type": "address"
        },
        {
          "internalType": "address",
          "name": "_collateralOracle",
          "type": "address"
        },
        {
          "internalType": "address",
          "name": "_ethOracle",
          "type": "address"
        }
      ],
      "name": "initializeVault",
      "outputs": [],
      "stateMutability": "nonpayable",
      "type": "function"
    },
    {
      "inputs": [
        {
          "internalType": "contract IVaultHandler",
          "name": "",
          "type": "address"
        }
      ],
      "name": "initialized",
      "outputs": [
        {
          "internalType": "bool",
          "name": "",
          "type": "bool"
        }
      ],
      "stateMutability": "view",
      "type": "function"
    },
    {
      "inputs": [
        {
          "internalType": "contract IVaultHandler",
          "name": "_vault",
          "type": "address"
        },
        {
          "internalType": "enum Orchestrator.Functions",
          "name": "_fn",
          "type": "uint8"
        }
      ],
      "name": "lockVaultFunction",
      "outputs": [],
      "stateMutability": "nonpayable",
      "type": "function"
    },
    {
      "inputs": [],
      "name": "owner",
      "outputs": [
        {
          "internalType": "address",
          "name": "",
          "type": "address"
        }
      ],
      "stateMutability": "view",
      "type": "function"
    },
    {
      "inputs": [
        {
          "internalType": "contract IVaultHandler",
          "name": "_vault",
          "type": "address"
        }
      ],
      "name": "pauseVault",
      "outputs": [],
      "stateMutability": "nonpayable",
      "type": "function"
    },
    {
      "inputs": [],
      "name": "renounceOwnership",
      "outputs": [],
      "stateMutability": "nonpayable",
      "type": "function"
    },
    {
      "inputs": [],
      "name": "retrieveFees",
      "outputs": [],
      "stateMutability": "nonpayable",
      "type": "function"
    },
    {
      "inputs": [
        {
          "internalType": "contract IVaultHandler",
          "name": "_vault",
          "type": "address"
        }
      ],
      "name": "retrieveVaultFees",
      "outputs": [],
      "stateMutability": "nonpayable",
      "type": "function"
    },
    {
      "inputs": [
        {
          "internalType": "contract IVaultHandler",
          "name": "_vault",
          "type": "address"
        },
        {
          "internalType": "uint256",
          "name": "_burnFee",
          "type": "uint256"
        }
      ],
      "name": "setBurnFee",
      "outputs": [],
      "stateMutability": "nonpayable",
      "type": "function"
    },
    {
      "inputs": [
        {
          "internalType": "contract IVaultHandler",
          "name": "_vault",
          "type": "address"
        },
        {
          "internalType": "contract IERC20",
          "name": "_collateral",
          "type": "address"
        }
      ],
      "name": "setCollateral",
      "outputs": [],
      "stateMutability": "nonpayable",
      "type": "function"
    },
    {
      "inputs": [
        {
          "internalType": "contract IVaultHandler",
          "name": "_vault",
          "type": "address"
        },
        {
          "internalType": "address",
          "name": "_collateralOracle",
          "type": "address"
        }
      ],
      "name": "setCollateralOracle",
      "outputs": [],
      "stateMutability": "nonpayable",
      "type": "function"
    },
    {
      "inputs": [
        {
          "internalType": "contract IVaultHandler",
          "name": "_vault",
          "type": "address"
        },
        {
          "internalType": "uint256",
          "name": "_divisor",
          "type": "uint256"
        }
      ],
      "name": "setDivisor",
      "outputs": [],
      "stateMutability": "nonpayable",
      "type": "function"
    },
    {
      "inputs": [
        {
          "internalType": "contract IVaultHandler",
          "name": "_vault",
          "type": "address"
        },
        {
          "internalType": "address",
          "name": "_ethOracles",
          "type": "address"
        }
      ],
      "name": "setETHOracle",
      "outputs": [],
      "stateMutability": "nonpayable",
      "type": "function"
    },
    {
      "inputs": [
        {
          "internalType": "contract IVaultHandler",
          "name": "_vault",
          "type": "address"
        },
        {
          "internalType": "uint256",
          "name": "_liquidationPenalty",
          "type": "uint256"
        }
      ],
      "name": "setLiquidationPenalty",
      "outputs": [],
      "stateMutability": "nonpayable",
      "type": "function"
    },
    {
      "inputs": [
        {
          "internalType": "contract IVaultHandler",
          "name": "_vault",
          "type": "address"
        },
        {
          "internalType": "uint256",
          "name": "_ratio",
          "type": "uint256"
        }
      ],
      "name": "setRatio",
      "outputs": [],
      "stateMutability": "nonpayable",
      "type": "function"
    },
    {
      "inputs": [
        {
          "internalType": "contract IVaultHandler",
          "name": "_vault",
          "type": "address"
        },
        {
          "internalType": "contract TCAP",
          "name": "_tcap",
          "type": "address"
        }
      ],
      "name": "setTCAP",
      "outputs": [],
      "stateMutability": "nonpayable",
      "type": "function"
    },
    {
      "inputs": [
        {
          "internalType": "contract TCAP",
          "name": "_tcap",
          "type": "address"
        },
        {
          "internalType": "uint256",
          "name": "_cap",
          "type": "uint256"
        }
      ],
      "name": "setTCAPCap",
      "outputs": [],
      "stateMutability": "nonpayable",
      "type": "function"
    },
    {
      "inputs": [
        {
          "internalType": "contract IVaultHandler",
          "name": "_vault",
          "type": "address"
        },
        {
          "internalType": "address",
          "name": "_tcapOracle",
          "type": "address"
        }
      ],
      "name": "setTCAPOracle",
      "outputs": [],
      "stateMutability": "nonpayable",
      "type": "function"
    },
    {
      "inputs": [
        {
          "internalType": "address",
          "name": "",
          "type": "address"
        },
        {
          "internalType": "enum Orchestrator.Functions",
          "name": "",
          "type": "uint8"
        }
      ],
      "name": "timelock",
      "outputs": [
        {
          "internalType": "uint256",
          "name": "",
          "type": "uint256"
        }
      ],
      "stateMutability": "view",
      "type": "function"
    },
    {
      "inputs": [
        {
          "internalType": "address",
          "name": "",
          "type": "address"
        },
        {
          "internalType": "enum Orchestrator.Functions",
          "name": "",
          "type": "uint8"
        }
      ],
      "name": "timelockValue",
      "outputs": [
        {
          "internalType": "bytes32",
          "name": "",
          "type": "bytes32"
        }
      ],
      "stateMutability": "view",
      "type": "function"
    },
    {
      "inputs": [
        {
          "internalType": "address",
          "name": "newOwner",
          "type": "address"
        }
      ],
      "name": "transferOwnership",
      "outputs": [],
      "stateMutability": "nonpayable",
      "type": "function"
    },
    {
      "inputs": [
        {
          "internalType": "address",
          "name": "_contract",
          "type": "address"
        },
        {
          "internalType": "enum Orchestrator.Functions",
          "name": "_fn",
          "type": "uint8"
        },
        {
          "internalType": "bytes32",
          "name": "_hash",
          "type": "bytes32"
        }
      ],
      "name": "unlockFunction",
      "outputs": [],
      "stateMutability": "nonpayable",
      "type": "function"
    },
    {
      "inputs": [
        {
          "internalType": "contract IVaultHandler",
          "name": "_vault",
          "type": "address"
        }
      ],
      "name": "unpauseVault",
      "outputs": [],
      "stateMutability": "nonpayable",
      "type": "function"
    },
    {
      "stateMutability": "payable",
      "type": "receive"
    }
  ],
  "address": "0x589461339aF187D98Df29042B866bcb922799844",
  "args": [],
  "solcInputHash": "0x1ee89c808e69d10593f6a05f86f58297bb2a2c0590398db98c083e0dd5c7ab55",
  "bytecode": "0x608060405234801561001057600080fd5b5060006100246001600160e01b0361007316565b600080546001600160a01b0319166001600160a01b0383169081178255604051929350917f8be0079c531659141344cd1fd0a4f28419497f9722a3daafe3b4186f6b6457e0908290a350610077565b3390565b61321e80620000876000396000f3fe60806040526004361061016a5760003560e01c8063739110d7116100d15780639ab4e67f1161008a578063c5f20d7b11610064578063c5f20d7b14610629578063cb5c3b2914610662578063cbca47db146106a4578063f2fde38b146106eb57610171565b80639ab4e67f146105a6578063bae8cae5146105e1578063c0bd6f9e146105f657610171565b8063739110d7146104515780637532ce701461048d5780637e0e2801146104c6578063868ed2b8146105015780638d8871631461053c5780638da5cb5b1461057557610171565b80632efbab2c116101235780632efbab2c1461030c5780634c436e031461033f578063520b14a21461037a5780635f3a0854146103b55780636cefa85814610403578063715018a61461043c57610171565b806305752047146101765780631432e810146101b157806317ffce14146101ec57806318a55b1b146102275780631ae2ae691461029d5780631fefeb3c146102d957610171565b3661017157005b600080fd5b34801561018257600080fd5b506101af6004803603604081101561019957600080fd5b506001600160a01b03813516906020013561071e565b005b3480156101bd57600080fd5b506101af600480360360408110156101d457600080fd5b506001600160a01b038135811691602001351661098b565b3480156101f857600080fd5b506101af6004803603604081101561020f57600080fd5b506001600160a01b0381358116916020013516610c6f565b34801561023357600080fd5b506101af600480360361014081101561024b57600080fd5b506001600160a01b03813581169160208101359160408201359160608101359160808201359160a081013582169160c082013581169160e0810135821691610100820135811691610120013516610f4a565b3480156102a957600080fd5b506101af600480360360408110156102c057600080fd5b5080356001600160a01b0316906020013560ff166111ad565b3480156102e557600080fd5b506101af600480360360208110156102fc57600080fd5b50356001600160a01b0316611213565b34801561031857600080fd5b506101af6004803603602081101561032f57600080fd5b50356001600160a01b031661130b565b34801561034b57600080fd5b506101af6004803603604081101561036257600080fd5b506001600160a01b03813581169160200135166113ef565b34801561038657600080fd5b506101af6004803603604081101561039d57600080fd5b506001600160a01b0381358116916020013516611679565b3480156103c157600080fd5b506103f1600480360360408110156103d857600080fd5b5080356001600160a01b0316906020013560ff1661195f565b60408051918252519081900360200190f35b34801561040f57600080fd5b506101af6004803603604081101561042657600080fd5b506001600160a01b03813516906020013561197c565b34801561044857600080fd5b506101af611bdf565b34801561045d57600080fd5b506103f16004803603604081101561047457600080fd5b5080356001600160a01b0316906020013560ff16611c81565b34801561049957600080fd5b506101af600480360360408110156104b057600080fd5b506001600160a01b038135169060200135611c9e565b3480156104d257600080fd5b506101af600480360360408110156104e957600080fd5b506001600160a01b0381351690602001351515611f03565b34801561050d57600080fd5b506101af6004803603604081101561052457600080fd5b506001600160a01b0381358116916020013516612180565b34801561054857600080fd5b506101af6004803603604081101561055f57600080fd5b506001600160a01b03813516906020013561245b565b34801561058157600080fd5b5061058a6126cb565b604080516001600160a01b039092168252519081900360200190f35b3480156105b257600080fd5b506101af600480360360408110156105c957600080fd5b506001600160a01b03813581169160200135166126da565b3480156105ed57600080fd5b506101af612855565b34801561060257600080fd5b506101af6004803603602081101561061957600080fd5b50356001600160a01b03166128ee565b34801561063557600080fd5b506101af6004803603604081101561064c57600080fd5b506001600160a01b0381351690602001356129d2565b34801561066e57600080fd5b506101af6004803603606081101561068557600080fd5b506001600160a01b038135169060ff6020820135169060400135612c37565b3480156106b057600080fd5b506106d7600480360360208110156106c757600080fd5b50356001600160a01b0316612d84565b604080519115158252519081900360200190f35b3480156106f757600080fd5b506101af6004803603602081101561070e57600080fd5b50356001600160a01b0316612d99565b610726612e91565b6000546001600160a01b03908116911614610776576040805162461bcd60e51b815260206004820181905260248201526000805160206131a9833981519152604482015290519081900360640190fd5b816107888163409e4a0f60e01b612e95565b6107c7576040805162461bcd60e51b81526020600482015260116024820152600080516020613149833981519152604482015290519081900360640190fd5b60408051602080820185905282518083038201815291830183528151918101919091206001600160a01b0386166000908152600283528381206001808352935292909220548592901580159061085b57506001600160a01b0383166000908152600260205260408120429184600a81111561083e57fe5b600a81111561084957fe5b81526020019081526020016000205411155b61089a576040805162461bcd60e51b81526020600482015260166024820152600080516020613189833981519152604482015290519081900360640190fd5b6001600160a01b0383166000908152600360205260408120829184600a8111156108c057fe5b600a8111156108cb57fe5b8152602001908152602001600020541461091a576040805162461bcd60e51b815260206004820152601a60248201526000805160206131c9833981519152604482015290519081900360640190fd5b856001600160a01b031663b2237ba3866040518263ffffffff1660e01b815260040180828152602001915050600060405180830381600087803b15801561096057600080fd5b505af1158015610974573d6000803e3d6000fd5b50505050610983866001612eb8565b505050505050565b610993612e91565b6000546001600160a01b039081169116146109e3576040805162461bcd60e51b815260206004820181905260248201526000805160206131a9833981519152604482015290519081900360640190fd5b816109f58163409e4a0f60e01b612e95565b610a34576040805162461bcd60e51b81526020600482015260116024820152600080516020613149833981519152604482015290519081900360640190fd5b604080516001600160601b0319606085901b1660208083019190915282518083036014018152603490920183528151918101919091206001600160a01b03861660009081526002835283812060078083529352929092205485929015801590610adb57506001600160a01b0383166000908152600260205260408120429184600a811115610abe57fe5b600a811115610ac957fe5b81526020019081526020016000205411155b610b1a576040805162461bcd60e51b81526020600482015260166024820152600080516020613189833981519152604482015290519081900360640190fd5b6001600160a01b0383166000908152600360205260408120829184600a811115610b4057fe5b600a811115610b4b57fe5b81526020019081526020016000205414610b9a576040805162461bcd60e51b815260206004820152601a60248201526000805160206131c9833981519152604482015290519081900360640190fd5b84610bac816385be402b60e01b612e95565b610beb576040805162461bcd60e51b815260206004820152601c6024820152600080516020613169833981519152604482015290519081900360640190fd5b866001600160a01b0316631fd0c43e876040518263ffffffff1660e01b815260040180826001600160a01b03166001600160a01b03168152602001915050600060405180830381600087803b158015610c4357600080fd5b505af1158015610c57573d6000803e3d6000fd5b50505050610c66876007612eb8565b50505050505050565b610c77612e91565b6000546001600160a01b03908116911614610cc7576040805162461bcd60e51b815260206004820181905260248201526000805160206131a9833981519152604482015290519081900360640190fd5b81610cd98163409e4a0f60e01b612e95565b610d18576040805162461bcd60e51b81526020600482015260116024820152600080516020613149833981519152604482015290519081900360640190fd5b604080516001600160601b0319606085901b1660208083019190915282518083036014018152603490920183528151918101919091206001600160a01b03861660009081526002835283812060088083529352929092205485929015801590610dbf57506001600160a01b0383166000908152600260205260408120429184600a811115610da257fe5b600a811115610dad57fe5b81526020019081526020016000205411155b610dfe576040805162461bcd60e51b81526020600482015260166024820152600080516020613189833981519152604482015290519081900360640190fd5b6001600160a01b0383166000908152600360205260408120829184600a811115610e2457fe5b600a811115610e2f57fe5b81526020019081526020016000205414610e7e576040805162461bcd60e51b815260206004820152601a60248201526000805160206131c9833981519152604482015290519081900360640190fd5b84610e90816385be402b60e01b612e95565b610ecf576040805162461bcd60e51b815260206004820152601c6024820152600080516020613169833981519152604482015290519081900360640190fd5b866001600160a01b031663787eb306876040518263ffffffff1660e01b815260040180826001600160a01b03166001600160a01b03168152602001915050600060405180830381600087803b158015610f2757600080fd5b505af1158015610f3b573d6000803e3d6000fd5b50505050610c66876008612eb8565b610f52612e91565b6000546001600160a01b03908116911614610fa2576040805162461bcd60e51b815260206004820181905260248201526000805160206131a9833981519152604482015290519081900360640190fd5b89610fb48163409e4a0f60e01b612e95565b610ff3576040805162461bcd60e51b81526020600482015260116024820152600080516020613149833981519152604482015290519081900360640190fd5b846110058163a9ccee5160e01b612e95565b61104f576040805162461bcd60e51b815260206004820152601660248201527504e6f7420612076616c696420544341502045524332360541b604482015290519081900360640190fd5b6001600160a01b038c1660009081526001602052604090205460ff16156110bd576040805162461bcd60e51b815260206004820152601c60248201527f436f6e747261637420616c726561647920696e697469616c697a656400000000604482015290519081900360640190fd5b6110c687612f41565b6110cf84612f41565b6110d883612f41565b60408051637a5fe9a360e11b8152600481018d9052602481018c9052604481018b9052606481018a90526001600160a01b03898116608483015288811660a483015287811660c483015286811660e48301528581166101048301529151918e169163f4bfd346916101248082019260009290919082900301818387803b15801561116157600080fd5b505af1158015611175573d6000803e3d6000fd5b5050506001600160a01b03909c166000908152600160208190526040909120805460ff19169091179055505050505050505050505050565b6111b5612e91565b6000546001600160a01b03908116911614611205576040805162461bcd60e51b815260206004820181905260248201526000805160206131a9833981519152604482015290519081900360640190fd5b61120f8282612eb8565b5050565b61121b612e91565b6000546001600160a01b0390811691161461126b576040805162461bcd60e51b815260206004820181905260248201526000805160206131a9833981519152604482015290519081900360640190fd5b8061127d8163409e4a0f60e01b612e95565b6112bc576040805162461bcd60e51b81526020600482015260116024820152600080516020613149833981519152604482015290519081900360640190fd5b816001600160a01b031663bae8cae56040518163ffffffff1660e01b8152600401600060405180830381600087803b1580156112f757600080fd5b505af1158015610983573d6000803e3d6000fd5b611313612e91565b6000546001600160a01b03908116911614611363576040805162461bcd60e51b815260206004820181905260248201526000805160206131a9833981519152604482015290519081900360640190fd5b806113758163409e4a0f60e01b612e95565b6113b4576040805162461bcd60e51b81526020600482015260116024820152600080516020613149833981519152604482015290519081900360640190fd5b816001600160a01b0316633f4ba83a6040518163ffffffff1660e01b8152600401600060405180830381600087803b1580156112f757600080fd5b6113f7612e91565b6000546001600160a01b03908116911614611447576040805162461bcd60e51b815260206004820181905260248201526000805160206131a9833981519152604482015290519081900360640190fd5b816114598163409e4a0f60e01b612e95565b611498576040805162461bcd60e51b81526020600482015260116024820152600080516020613149833981519152604482015290519081900360640190fd5b604080516001600160601b0319606085901b1660208083019190915282518083036014018152603490920183528151918101919091206001600160a01b0386166000908152600283528381206006808352935292909220548592901580159061153f57506001600160a01b0383166000908152600260205260408120429184600a81111561152257fe5b600a81111561152d57fe5b81526020019081526020016000205411155b61157e576040805162461bcd60e51b81526020600482015260166024820152600080516020613189833981519152604482015290519081900360640190fd5b6001600160a01b0383166000908152600360205260408120829184600a8111156115a457fe5b600a8111156115af57fe5b815260200190815260200160002054146115fe576040805162461bcd60e51b815260206004820152601a60248201526000805160206131c9833981519152604482015290519081900360640190fd5b856001600160a01b031663e941cd06866040518263ffffffff1660e01b815260040180826001600160a01b03166001600160a01b03168152602001915050600060405180830381600087803b15801561165657600080fd5b505af115801561166a573d6000803e3d6000fd5b50505050610983866006612eb8565b611681612e91565b6000546001600160a01b039081169116146116d1576040805162461bcd60e51b815260206004820181905260248201526000805160206131a9833981519152604482015290519081900360640190fd5b816116e38163409e4a0f60e01b612e95565b611722576040805162461bcd60e51b81526020600482015260116024820152600080516020613149833981519152604482015290519081900360640190fd5b604080516001600160601b0319606085901b1660208083019190915282518083036014018152603490920183528151918101919091206001600160a01b038616600090815260028352838120600480835293529290922054859290158015906117c957506001600160a01b0383166000908152600260205260408120429184600a8111156117ac57fe5b600a8111156117b757fe5b81526020019081526020016000205411155b611808576040805162461bcd60e51b81526020600482015260166024820152600080516020613189833981519152604482015290519081900360640190fd5b6001600160a01b0383166000908152600360205260408120829184600a81111561182e57fe5b600a81111561183957fe5b81526020019081526020016000205414611888576040805162461bcd60e51b815260206004820152601a60248201526000805160206131c9833981519152604482015290519081900360640190fd5b8461189a8163a9ccee5160e01b612e95565b6118e4576040805162461bcd60e51b815260206004820152601660248201527504e6f7420612076616c696420544341502045524332360541b604482015290519081900360640190fd5b866001600160a01b031663e5d8a651876040518263ffffffff1660e01b815260040180826001600160a01b03166001600160a01b03168152602001915050600060405180830381600087803b15801561193c57600080fd5b505af1158015611950573d6000803e3d6000fd5b50505050610c66876004612eb8565b600260209081526000928352604080842090915290825290205481565b611984612e91565b6000546001600160a01b039081169116146119d4576040805162461bcd60e51b815260206004820181905260248201526000805160206131a9833981519152604482015290519081900360640190fd5b816119e68163409e4a0f60e01b612e95565b611a25576040805162461bcd60e51b81526020600482015260116024820152600080516020613149833981519152604482015290519081900360640190fd5b60408051602080820185905282518083038201815291830183528151918101919091206001600160a01b0386166000908152600283528381208180529092529181205485929015801590611ab757506001600160a01b0383166000908152600260205260408120429184600a811115611a9a57fe5b600a811115611aa557fe5b81526020019081526020016000205411155b611af6576040805162461bcd60e51b81526020600482015260166024820152600080516020613189833981519152604482015290519081900360640190fd5b6001600160a01b0383166000908152600360205260408120829184600a811115611b1c57fe5b600a811115611b2757fe5b81526020019081526020016000205414611b76576040805162461bcd60e51b815260206004820152601a60248201526000805160206131c9833981519152604482015290519081900360640190fd5b856001600160a01b031663709f5ccc866040518263ffffffff1660e01b815260040180828152602001915050600060405180830381600087803b158015611bbc57600080fd5b505af1158015611bd0573d6000803e3d6000fd5b50505050610983866000612eb8565b611be7612e91565b6000546001600160a01b03908116911614611c37576040805162461bcd60e51b815260206004820181905260248201526000805160206131a9833981519152604482015290519081900360640190fd5b600080546040516001600160a01b03909116907f8be0079c531659141344cd1fd0a4f28419497f9722a3daafe3b4186f6b6457e0908390a3600080546001600160a01b0319169055565b600360209081526000928352604080842090915290825290205481565b611ca6612e91565b6000546001600160a01b03908116911614611cf6576040805162461bcd60e51b815260206004820181905260248201526000805160206131a9833981519152604482015290519081900360640190fd5b81611d088163409e4a0f60e01b612e95565b611d47576040805162461bcd60e51b81526020600482015260116024820152600080516020613149833981519152604482015290519081900360640190fd5b60408051602080820185905282518083038201815291830183528151918101919091206001600160a01b03861660009081526002808452848220818352909352929092205485929015801590611ddb57506001600160a01b0383166000908152600260205260408120429184600a811115611dbe57fe5b600a811115611dc957fe5b81526020019081526020016000205411155b611e1a576040805162461bcd60e51b81526020600482015260166024820152600080516020613189833981519152604482015290519081900360640190fd5b6001600160a01b0383166000908152600360205260408120829184600a811115611e4057fe5b600a811115611e4b57fe5b81526020019081526020016000205414611e9a576040805162461bcd60e51b815260206004820152601a60248201526000805160206131c9833981519152604482015290519081900360640190fd5b856001600160a01b0316634bf2c7c9866040518263ffffffff1660e01b815260040180828152602001915050600060405180830381600087803b158015611ee057600080fd5b505af1158015611ef4573d6000803e3d6000fd5b50505050610983866002612eb8565b611f0b612e91565b6000546001600160a01b03908116911614611f5b576040805162461bcd60e51b815260206004820181905260248201526000805160206131a9833981519152604482015290519081900360640190fd5b81611f6d8163a9ccee5160e01b612e95565b611fb7576040805162461bcd60e51b815260206004820152601660248201527504e6f7420612076616c696420544341502045524332360541b604482015290519081900360640190fd5b6040805183151560f81b60208083019190915282518083036001018152602190920183528151918101919091206001600160a01b0386166000908152600283528381206009808352935292909220548592901580159061205557506001600160a01b0383166000908152600260205260408120429184600a81111561203857fe5b600a81111561204357fe5b81526020019081526020016000205411155b612094576040805162461bcd60e51b81526020600482015260166024820152600080516020613189833981519152604482015290519081900360640190fd5b6001600160a01b0383166000908152600360205260408120829184600a8111156120ba57fe5b600a8111156120c557fe5b81526020019081526020016000205414612114576040805162461bcd60e51b815260206004820152601a60248201526000805160206131c9833981519152604482015290519081900360640190fd5b604080516312f3ebe560e31b8152861515600482015290516001600160a01b0388169163979f5f2891602480830192600092919082900301818387803b15801561215d57600080fd5b505af1158015612171573d6000803e3d6000fd5b50505050610983866009612eb8565b612188612e91565b6000546001600160a01b039081169116146121d8576040805162461bcd60e51b815260206004820181905260248201526000805160206131a9833981519152604482015290519081900360640190fd5b816121ea8163409e4a0f60e01b612e95565b612229576040805162461bcd60e51b81526020600482015260116024820152600080516020613149833981519152604482015290519081900360640190fd5b604080516001600160601b0319606085901b1660208083019190915282518083036014018152603490920183528151918101919091206001600160a01b038616600090815260028352838120600580835293529290922054859290158015906122d057506001600160a01b0383166000908152600260205260408120429184600a8111156122b357fe5b600a8111156122be57fe5b81526020019081526020016000205411155b61230f576040805162461bcd60e51b81526020600482015260166024820152600080516020613189833981519152604482015290519081900360640190fd5b6001600160a01b0383166000908152600360205260408120829184600a81111561233557fe5b600a81111561234057fe5b8152602001908152602001600020541461238f576040805162461bcd60e51b815260206004820152601a60248201526000805160206131c9833981519152604482015290519081900360640190fd5b846123a1816385be402b60e01b612e95565b6123e0576040805162461bcd60e51b815260206004820152601c6024820152600080516020613169833981519152604482015290519081900360640190fd5b866001600160a01b031663c543a1a0876040518263ffffffff1660e01b815260040180826001600160a01b03166001600160a01b03168152602001915050600060405180830381600087803b15801561243857600080fd5b505af115801561244c573d6000803e3d6000fd5b50505050610c66876005612eb8565b612463612e91565b6000546001600160a01b039081169116146124b3576040805162461bcd60e51b815260206004820181905260248201526000805160206131a9833981519152604482015290519081900360640190fd5b816124c58163a9ccee5160e01b612e95565b61250f576040805162461bcd60e51b815260206004820152601660248201527504e6f7420612076616c696420544341502045524332360541b604482015290519081900360640190fd5b60408051602080820185905282518083038201815291830183528151918101919091206001600160a01b038616600090815260028352838120600a80835293529290922054859290158015906125a357506001600160a01b0383166000908152600260205260408120429184600a81111561258657fe5b600a81111561259157fe5b81526020019081526020016000205411155b6125e2576040805162461bcd60e51b81526020600482015260166024820152600080516020613189833981519152604482015290519081900360640190fd5b6001600160a01b0383166000908152600360205260408120829184600a81111561260857fe5b600a81111561261357fe5b81526020019081526020016000205414612662576040805162461bcd60e51b815260206004820152601a60248201526000805160206131c9833981519152604482015290519081900360640190fd5b856001600160a01b03166347786d37866040518263ffffffff1660e01b815260040180828152602001915050600060405180830381600087803b1580156126a857600080fd5b505af11580156126bc573d6000803e3d6000fd5b5050505061098386600a612eb8565b6000546001600160a01b031690565b6126e2612e91565b6000546001600160a01b03908116911614612732576040805162461bcd60e51b815260206004820181905260248201526000805160206131a9833981519152604482015290519081900360640190fd5b816127448163a9ccee5160e01b612e95565b61278e576040805162461bcd60e51b815260206004820152601660248201527504e6f7420612076616c696420544341502045524332360541b604482015290519081900360640190fd5b816127a08163409e4a0f60e01b612e95565b6127df576040805162461bcd60e51b81526020600482015260116024820152600080516020613149833981519152604482015290519081900360640190fd5b836001600160a01b03166327cb052e846040518263ffffffff1660e01b815260040180826001600160a01b03166001600160a01b03168152602001915050600060405180830381600087803b15801561283757600080fd5b505af115801561284b573d6000803e3d6000fd5b5050505050505050565b61285d612e91565b6000546001600160a01b039081169116146128ad576040805162461bcd60e51b815260206004820181905260248201526000805160206131a9833981519152604482015290519081900360640190fd5b476128b66126cb565b6001600160a01b03166108fc829081150290604051600060405180830381858888f1935050505015801561120f573d6000803e3d6000fd5b6128f6612e91565b6000546001600160a01b03908116911614612946576040805162461bcd60e51b815260206004820181905260248201526000805160206131a9833981519152604482015290519081900360640190fd5b806129588163409e4a0f60e01b612e95565b612997576040805162461bcd60e51b81526020600482015260116024820152600080516020613149833981519152604482015290519081900360640190fd5b816001600160a01b0316638456cb596040518163ffffffff1660e01b8152600401600060405180830381600087803b1580156112f757600080fd5b6129da612e91565b6000546001600160a01b03908116911614612a2a576040805162461bcd60e51b815260206004820181905260248201526000805160206131a9833981519152604482015290519081900360640190fd5b81612a3c8163409e4a0f60e01b612e95565b612a7b576040805162461bcd60e51b81526020600482015260116024820152600080516020613149833981519152604482015290519081900360640190fd5b60408051602080820185905282518083038201815291830183528151918101919091206001600160a01b03861660009081526002835283812060038083529352929092205485929015801590612b0f57506001600160a01b0383166000908152600260205260408120429184600a811115612af257fe5b600a811115612afd57fe5b81526020019081526020016000205411155b612b4e576040805162461bcd60e51b81526020600482015260166024820152600080516020613189833981519152604482015290519081900360640190fd5b6001600160a01b0383166000908152600360205260408120829184600a811115612b7457fe5b600a811115612b7f57fe5b81526020019081526020016000205414612bce576040805162461bcd60e51b815260206004820152601a60248201526000805160206131c9833981519152604482015290519081900360640190fd5b856001600160a01b0316632806a743866040518263ffffffff1660e01b815260040180828152602001915050600060405180830381600087803b158015612c1457600080fd5b505af1158015612c28573d6000803e3d6000fd5b50505050610983866003612eb8565b612c3f612e91565b6000546001600160a01b03908116911614612c8f576040805162461bcd60e51b815260206004820181905260248201526000805160206131a9833981519152604482015290519081900360640190fd5b6001600160a01b0383166000908152600260205260408120426203f480019184600a811115612cba57fe5b600a811115612cc557fe5b8152602001908152602001600020819055508060036000856001600160a01b03166001600160a01b03168152602001908152602001600020600084600a811115612d0b57fe5b600a811115612d1657fe5b815260200190815260200160002081905550826001600160a01b03167f5d8515b685940189d461343341d33e7b93afcd18e2a29f63b2ca92ee1bb8d46683836040518083600a811115612d6557fe5b60ff1681526020018281526020019250505060405180910390a2505050565b60016020526000908152604090205460ff1681565b612da1612e91565b6000546001600160a01b03908116911614612df1576040805162461bcd60e51b815260206004820181905260248201526000805160206131a9833981519152604482015290519081900360640190fd5b6001600160a01b038116612e365760405162461bcd60e51b81526004018080602001828103825260268152602001806131236026913960400191505060405180910390fd5b600080546040516001600160a01b03808516939216917f8be0079c531659141344cd1fd0a4f28419497f9722a3daafe3b4186f6b6457e091a3600080546001600160a01b0319166001600160a01b0392909216919091179055565b3390565b6000612ea083612f94565b8015612eb15750612eb18383612fc8565b9392505050565b6001600160a01b03821660009081526002602052604081208183600a811115612edd57fe5b600a811115612ee857fe5b815260208082019290925260409081016000908120939093556001600160a01b0385168352600390915281208183600a811115612f2157fe5b600a811115612f2c57fe5b81526020810191909152604001600020555050565b612f52816385be402b60e01b612e95565b612f91576040805162461bcd60e51b815260206004820152601c6024820152600080516020613169833981519152604482015290519081900360640190fd5b50565b6000612fa7826301ffc9a760e01b612fc8565b8015612fc25750612fc0826001600160e01b0319612fc8565b155b92915050565b6000806000612fd78585612fee565b91509150818015612fe55750805b95945050505050565b604080516001600160e01b0319831660248083019190915282518083039091018152604490910182526020810180516001600160e01b03166301ffc9a760e01b1781529151815160009384939284926060926001600160a01b038a169261753092879282918083835b602083106130765780518252601f199092019160209182019101613057565b6001836020036101000a0380198251168184511680821785525050505050509050019150506000604051808303818686fa925050503d80600081146130d7576040519150601f19603f3d011682016040523d82523d6000602084013e6130dc565b606091505b50915091506020815110156130fa576000809450945050505061311b565b8181806020019051602081101561311057600080fd5b505190955093505050505b925092905056fe4f776e61626c653a206e6577206f776e657220697320746865207a65726f20616464726573734e6f7420612076616c6964207661756c740000000000000000000000000000004e6f7420612076616c696420436861696e6c696e6b204f7261636c650000000046756e6374696f6e2069732074696d656c6f636b6564000000000000000000004f776e61626c653a2063616c6c6572206973206e6f7420746865206f776e65724e6f7420646566696e65642074696d656c6f636b2076616c7565000000000000a26469706673582212200f4dc079236bd02eb5a8ecbeb484886af20c28071b4ce7ee4336230407c1c0a264736f6c63430006080033",
  "devdoc": {
    "author": "Cristian Espinoza",
    "methods": {
      "addTCAPVault(address,address)": {
        "details": "Only owner can call itValidates if _tcap is validValidates if _vault is valid",
        "params": {
          "_tcap": "address",
          "_vault": "address"
        }
      },
      "enableTCAPCap(address,bool)": {
        "details": "Only owner can call itValidates if _tcap is valid",
        "params": {
          "_enable": "bool",
          "_tcap": "address"
        }
      },
      "initializeVault(address,uint256,uint256,uint256,uint256,address,address,address,address,address)": {
        "details": "Only owner can call itValidates if contracts support their interface",
        "params": {
          "_burnFee": "uint256",
          "_collateralAddress": "address",
          "_collateralOracle": "address",
          "_divisor": "uint256",
          "_ethOracle": "address",
          "_liquidationPenalty": "uint256",
          "_ratio": "uint256",
          "_tcapAddress": "address",
          "_tcapOracle": "address",
          "_vault": "address"
        }
      },
      "lockVaultFunction(address,uint8)": {
        "details": "Only owner can call itLock happens immediately",
        "params": {
          "_fn": "to be unlocked",
          "_vault": "address"
        }
      },
      "owner()": {
        "details": "Returns the address of the current owner."
      },
      "pauseVault(address)": {
        "details": "Only owner can call itValidates if _vault is valid",
        "params": {
          "_vault": "address"
        }
      },
      "renounceOwnership()": {
        "details": "Leaves the contract without owner. It will not be possible to call `onlyOwner` functions anymore. Can only be called by the current owner.     * NOTE: Renouncing ownership will leave the contract without an owner, thereby removing any functionality that is only available to the owner."
      },
      "retrieveFees()": {
        "details": "Only owner can call itTransfer the balance to the contract owner"
      },
      "retrieveVaultFees(address)": {
        "details": "Only owner can call itValidates if _vault is valid",
        "params": {
          "_vault": "address"
        }
      },
      "setBurnFee(address,uint256)": {
        "details": "Only owner can call itValidates if _vault is valid and not lockedLocks function after using",
        "params": {
          "_burnFee": "value",
          "_vault": "address"
        }
      },
      "setCollateral(address,address)": {
        "details": "Only owner can call itValidates if _vault is valid and not lockedLocks function after using",
        "params": {
          "_collateral": "contract address",
          "_vault": "address"
        }
      },
      "setCollateralOracle(address,address)": {
        "details": "Only owner can call itValidates if _vault and oracle are valid and not lockedLocks function after using",
        "params": {
          "_collateralOracle": "contract address",
          "_vault": "address"
        }
      },
      "setDivisor(address,uint256)": {
        "details": "Only owner can call itValidates if _vault is valid and not lockedLocks function after using",
        "params": {
          "_divisor": "value",
          "_vault": "address"
        }
      },
      "setETHOracle(address,address)": {
        "details": "Only owner can call itValidates if _vault and oracle are valid and not lockedLocks function after using",
        "params": {
          "_ethOracles": "contract address",
          "_vault": "address"
        }
      },
      "setLiquidationPenalty(address,uint256)": {
        "details": "Only owner can call itValidates if _vault is valid and not lockedLocks function after using",
        "params": {
          "_liquidationPenalty": "value",
          "_vault": "address"
        }
      },
      "setRatio(address,uint256)": {
        "details": "Only owner can call itValidates if _vault is valid and not lockedLocks function after using",
        "params": {
          "_ratio": "value",
          "_vault": "address"
        }
      },
      "setTCAP(address,address)": {
        "details": "Only owner can call itValidates if _vault and tcap are valid and not lockedLocks function after using",
        "params": {
          "_tcap": "contract address",
          "_vault": "address"
        }
      },
      "setTCAPCap(address,uint256)": {
        "details": "Only owner can call itValidates if _tcap is valid",
        "params": {
          "_cap": "uint value",
          "_tcap": "address"
        }
      },
      "setTCAPOracle(address,address)": {
        "details": "Only owner can call itValidates if _vault and oracle are valid and not lockedLocks function after using",
        "params": {
          "_tcapOracle": "contract address",
          "_vault": "address"
        }
      },
      "transferOwnership(address)": {
        "details": "Transfers ownership of the contract to a new account (`newOwner`). Can only be called by the current owner."
      },
      "unlockFunction(address,uint8,bytes32)": {
        "details": "Only owner can call itUnlock time is = block.timestamp + _TIMELOCKA hash of the value to save is passed as proof for users that the changing value is correct.",
        "params": {
          "_contract": "address",
          "_fn": "to be unlocked"
        }
      },
      "unpauseVault(address)": {
        "details": "Only owner can call itValidates if _vault is valid",
        "params": {
          "_vault": "address"
        }
      }
    },
    "title": "TCAP Orchestrator"
  },
  "userdoc": {
    "methods": {
      "addTCAPVault(address,address)": {
        "notice": "Adds Vault to TCAP ERC20"
      },
      "enableTCAPCap(address,bool)": {
        "notice": "Enables or disables the TCAP Cap"
      },
      "initializeVault(address,uint256,uint256,uint256,uint256,address,address,address,address,address)": {
        "notice": "Intialize the Vault Contract"
      },
      "lockVaultFunction(address,uint8)": {
        "notice": "Locks vault function"
      },
      "pauseVault(address)": {
        "notice": "Pauses the Vault"
      },
      "retrieveFees()": {
        "notice": "Retrieves the fees on the orchestrator"
      },
      "retrieveVaultFees(address)": {
        "notice": "Retrieves a vault fees and put it on the Orchestrator"
      },
      "setBurnFee(address,uint256)": {
        "notice": "Sets the burn fee of a vault"
      },
      "setCollateral(address,address)": {
        "notice": "Sets the Collateral Contract"
      },
      "setCollateralOracle(address,address)": {
        "notice": "Sets the Collateral Oracle Contract"
      },
      "setDivisor(address,uint256)": {
        "notice": "Sets the divisor of a vault"
      },
      "setETHOracle(address,address)": {
        "notice": "Sets the ETH Price Oracle Contract"
      },
      "setLiquidationPenalty(address,uint256)": {
        "notice": "Sets the liquidation penalty of a vault"
      },
      "setRatio(address,uint256)": {
        "notice": "Sets the ratio of a vault"
      },
      "setTCAP(address,address)": {
        "notice": "Sets the TCAP ERC20 Contract"
      },
      "setTCAPCap(address,uint256)": {
        "notice": "Enables or disables the TCAP Cap"
      },
      "setTCAPOracle(address,address)": {
        "notice": "Sets the TCAP Oracle Contract"
      },
      "unlockFunction(address,uint8,bytes32)": {
        "notice": "Unlocks contract function"
      },
      "unpauseVault(address)": {
        "notice": "Unpauses the Vault"
      }
    },
    "notice": "Orchestrator contract in charge of managing the settings of the vaults and TCAP token"
  },
  "storageLayout": {
    "storage": [
      {
        "astId": 359,
        "contract": "contracts/Orchestrator.sol:Orchestrator",
        "label": "_owner",
        "offset": 0,
        "slot": "0",
        "type": "t_address"
      },
      {
        "astId": 4224,
        "contract": "contracts/Orchestrator.sol:Orchestrator",
        "label": "initialized",
        "offset": 0,
        "slot": "1",
        "type": "t_mapping(t_contract(IVaultHandler)4104,t_bool)"
      },
      {
        "astId": 4230,
        "contract": "contracts/Orchestrator.sol:Orchestrator",
        "label": "timelock",
        "offset": 0,
        "slot": "2",
        "type": "t_mapping(t_address,t_mapping(t_enum(Functions)4220,t_uint256))"
      },
      {
        "astId": 4236,
        "contract": "contracts/Orchestrator.sol:Orchestrator",
        "label": "timelockValue",
        "offset": 0,
        "slot": "3",
        "type": "t_mapping(t_address,t_mapping(t_enum(Functions)4220,t_bytes32))"
      }
    ],
    "types": {
      "t_address": {
        "encoding": "inplace",
        "label": "address",
        "numberOfBytes": "20"
      },
      "t_bool": {
        "encoding": "inplace",
        "label": "bool",
        "numberOfBytes": "1"
      },
      "t_bytes32": {
        "encoding": "inplace",
        "label": "bytes32",
        "numberOfBytes": "32"
      },
      "t_contract(IVaultHandler)4104": {
        "encoding": "inplace",
        "label": "contract IVaultHandler",
        "numberOfBytes": "20"
      },
      "t_enum(Functions)4220": {
        "encoding": "inplace",
        "label": "enum Orchestrator.Functions",
        "numberOfBytes": "1"
      },
      "t_mapping(t_address,t_mapping(t_enum(Functions)4220,t_bytes32))": {
        "encoding": "mapping",
        "key": "t_address",
        "label": "mapping(address => mapping(enum Orchestrator.Functions => bytes32))",
        "numberOfBytes": "32",
        "value": "t_mapping(t_enum(Functions)4220,t_bytes32)"
      },
      "t_mapping(t_address,t_mapping(t_enum(Functions)4220,t_uint256))": {
        "encoding": "mapping",
        "key": "t_address",
        "label": "mapping(address => mapping(enum Orchestrator.Functions => uint256))",
        "numberOfBytes": "32",
        "value": "t_mapping(t_enum(Functions)4220,t_uint256)"
      },
      "t_mapping(t_contract(IVaultHandler)4104,t_bool)": {
        "encoding": "mapping",
        "key": "t_contract(IVaultHandler)4104",
        "label": "mapping(contract IVaultHandler => bool)",
        "numberOfBytes": "32",
        "value": "t_bool"
      },
      "t_mapping(t_enum(Functions)4220,t_bytes32)": {
        "encoding": "mapping",
        "key": "t_enum(Functions)4220",
        "label": "mapping(enum Orchestrator.Functions => bytes32)",
        "numberOfBytes": "32",
        "value": "t_bytes32"
      },
      "t_mapping(t_enum(Functions)4220,t_uint256)": {
        "encoding": "mapping",
        "key": "t_enum(Functions)4220",
        "label": "mapping(enum Orchestrator.Functions => uint256)",
        "numberOfBytes": "32",
        "value": "t_uint256"
      },
      "t_uint256": {
        "encoding": "inplace",
        "label": "uint256",
        "numberOfBytes": "32"
      }
    }
  },
  "gasEstimates": {
    "creation": {
      "codeDepositCost": "2566000",
      "executionCost": "infinite",
      "totalCost": "infinite"
    },
    "external": {
      "addTCAPVault(address,address)": "infinite",
      "enableTCAPCap(address,bool)": "infinite",
      "initializeVault(address,uint256,uint256,uint256,uint256,address,address,address,address,address)": "infinite",
      "initialized(address)": "1224",
      "lockVaultFunction(address,uint8)": "infinite",
      "owner()": "1170",
      "pauseVault(address)": "infinite",
      "renounceOwnership()": "infinite",
      "retrieveFees()": "infinite",
      "retrieveVaultFees(address)": "infinite",
      "setBurnFee(address,uint256)": "infinite",
      "setCollateral(address,address)": "infinite",
      "setCollateralOracle(address,address)": "infinite",
      "setDivisor(address,uint256)": "infinite",
      "setETHOracle(address,address)": "infinite",
      "setLiquidationPenalty(address,uint256)": "infinite",
      "setRatio(address,uint256)": "infinite",
      "setTCAP(address,address)": "infinite",
      "setTCAPCap(address,uint256)": "infinite",
      "setTCAPOracle(address,address)": "infinite",
      "timelock(address,uint8)": "1306",
      "timelockValue(address,uint8)": "1240",
      "transferOwnership(address)": "infinite",
      "unlockFunction(address,uint8,bytes32)": "infinite",
      "unpauseVault(address)": "infinite"
    },
    "internal": {
      "_lockFunction(address,enum Orchestrator.Functions)": "10489",
      "_validChainlinkOracle(address)": "infinite"
    }
  }
}