{
  "abi": [
    {
      "anonymous": false,
      "inputs": [
        {
          "indexed": true,
          "internalType": "address",
          "name": "_contract",
          "type": "address"
        },
        {
          "indexed": false,
          "internalType": "enum Orchestrator.Functions",
          "name": "_fn",
          "type": "uint8"
        },
        {
          "indexed": false,
          "internalType": "bytes32",
          "name": "_hash",
          "type": "bytes32"
        }
      ],
      "name": "LogUnlock",
      "type": "event"
    },
    {
      "anonymous": false,
      "inputs": [
        {
          "indexed": true,
          "internalType": "address",
          "name": "previousOwner",
          "type": "address"
        },
        {
          "indexed": true,
          "internalType": "address",
          "name": "newOwner",
          "type": "address"
        }
      ],
      "name": "OwnershipTransferred",
      "type": "event"
    },
    {
      "inputs": [],
      "name": "_TIMELOCK",
      "outputs": [
        {
          "internalType": "uint256",
          "name": "",
          "type": "uint256"
        }
      ],
      "stateMutability": "view",
      "type": "function"
    },
    {
      "inputs": [
        {
          "internalType": "contract TCAP",
          "name": "_tcap",
          "type": "address"
        },
        {
          "internalType": "contract IVaultHandler",
          "name": "_vault",
          "type": "address"
        }
      ],
      "name": "addTCAPVault",
      "outputs": [],
      "stateMutability": "nonpayable",
      "type": "function"
    },
    {
      "inputs": [
        {
          "internalType": "contract TCAP",
          "name": "_tcap",
          "type": "address"
        },
        {
          "internalType": "bool",
          "name": "_enable",
          "type": "bool"
        }
      ],
      "name": "enableTCAPCap",
      "outputs": [],
      "stateMutability": "nonpayable",
      "type": "function"
    },
    {
      "inputs": [
        {
          "internalType": "contract IVaultHandler",
          "name": "_vault",
          "type": "address"
        },
        {
          "internalType": "uint256",
          "name": "_divisor",
          "type": "uint256"
        },
        {
          "internalType": "uint256",
          "name": "_ratio",
          "type": "uint256"
        },
        {
          "internalType": "uint256",
          "name": "_burnFee",
          "type": "uint256"
        },
        {
          "internalType": "uint256",
          "name": "_liquidationPenalty",
          "type": "uint256"
        },
        {
          "internalType": "address",
          "name": "_tcapOracle",
          "type": "address"
        },
        {
          "internalType": "contract TCAP",
          "name": "_tcapAddress",
          "type": "address"
        },
        {
          "internalType": "address",
          "name": "_collateralAddress",
          "type": "address"
        },
        {
          "internalType": "address",
          "name": "_collateralOracle",
          "type": "address"
        },
        {
          "internalType": "address",
          "name": "_ethOracle",
          "type": "address"
        }
      ],
      "name": "initializeVault",
      "outputs": [],
      "stateMutability": "nonpayable",
      "type": "function"
    },
    {
      "inputs": [
        {
          "internalType": "contract IVaultHandler",
          "name": "_vault",
          "type": "address"
        },
        {
          "internalType": "enum Orchestrator.Functions",
          "name": "_fn",
          "type": "uint8"
        }
      ],
      "name": "lockVaultFunction",
      "outputs": [],
      "stateMutability": "nonpayable",
      "type": "function"
    },
    {
      "inputs": [],
      "name": "owner",
      "outputs": [
        {
          "internalType": "address",
          "name": "",
          "type": "address"
        }
      ],
      "stateMutability": "view",
      "type": "function"
    },
    {
      "inputs": [
        {
          "internalType": "contract IVaultHandler",
          "name": "_vault",
          "type": "address"
        }
      ],
      "name": "pauseVault",
      "outputs": [],
      "stateMutability": "nonpayable",
      "type": "function"
    },
    {
      "inputs": [],
      "name": "renounceOwnership",
      "outputs": [],
      "stateMutability": "nonpayable",
      "type": "function"
    },
    {
      "inputs": [],
      "name": "retrieveFees",
      "outputs": [],
      "stateMutability": "nonpayable",
      "type": "function"
    },
    {
      "inputs": [
        {
          "internalType": "contract IVaultHandler",
          "name": "_vault",
          "type": "address"
        }
      ],
      "name": "retrieveVaultFees",
      "outputs": [],
      "stateMutability": "nonpayable",
      "type": "function"
    },
    {
      "inputs": [
        {
          "internalType": "contract IVaultHandler",
          "name": "_vault",
          "type": "address"
        },
        {
          "internalType": "uint256",
          "name": "_burnFee",
          "type": "uint256"
        }
      ],
      "name": "setBurnFee",
      "outputs": [],
      "stateMutability": "nonpayable",
      "type": "function"
    },
    {
      "inputs": [
        {
          "internalType": "contract IVaultHandler",
          "name": "_vault",
          "type": "address"
        }
      ],
      "name": "setEmergencyBurnFee",
      "outputs": [],
      "stateMutability": "nonpayable",
      "type": "function"
    },
    {
      "inputs": [
        {
          "internalType": "contract IVaultHandler",
          "name": "_vault",
          "type": "address"
        }
      ],
      "name": "setEmergencyLiquidationPenalty",
      "outputs": [],
      "stateMutability": "nonpayable",
      "type": "function"
    },
    {
      "inputs": [
        {
          "internalType": "contract IVaultHandler",
          "name": "_vault",
          "type": "address"
        },
        {
          "internalType": "uint256",
          "name": "_liquidationPenalty",
          "type": "uint256"
        }
      ],
      "name": "setLiquidationPenalty",
      "outputs": [],
      "stateMutability": "nonpayable",
      "type": "function"
    },
    {
      "inputs": [
        {
          "internalType": "contract IVaultHandler",
          "name": "_vault",
          "type": "address"
        },
        {
          "internalType": "uint256",
          "name": "_ratio",
          "type": "uint256"
        }
      ],
      "name": "setRatio",
      "outputs": [],
      "stateMutability": "nonpayable",
      "type": "function"
    },
    {
      "inputs": [
        {
          "internalType": "contract TCAP",
          "name": "_tcap",
          "type": "address"
        },
        {
          "internalType": "uint256",
          "name": "_cap",
          "type": "uint256"
        }
      ],
      "name": "setTCAPCap",
      "outputs": [],
      "stateMutability": "nonpayable",
      "type": "function"
    },
    {
      "inputs": [
        {
          "internalType": "address",
          "name": "",
          "type": "address"
        },
        {
          "internalType": "enum Orchestrator.Functions",
          "name": "",
          "type": "uint8"
        }
      ],
      "name": "timelock",
      "outputs": [
        {
          "internalType": "uint256",
          "name": "",
          "type": "uint256"
        }
      ],
      "stateMutability": "view",
      "type": "function"
    },
    {
      "inputs": [
        {
          "internalType": "address",
          "name": "",
          "type": "address"
        },
        {
          "internalType": "enum Orchestrator.Functions",
          "name": "",
          "type": "uint8"
        }
      ],
      "name": "timelockValue",
      "outputs": [
        {
          "internalType": "bytes32",
          "name": "",
          "type": "bytes32"
        }
      ],
      "stateMutability": "view",
      "type": "function"
    },
    {
      "inputs": [
        {
          "internalType": "address",
          "name": "newOwner",
          "type": "address"
        }
      ],
      "name": "transferOwnership",
      "outputs": [],
      "stateMutability": "nonpayable",
      "type": "function"
    },
    {
      "inputs": [
        {
          "internalType": "address",
          "name": "_contract",
          "type": "address"
        },
        {
          "internalType": "enum Orchestrator.Functions",
          "name": "_fn",
          "type": "uint8"
        },
        {
          "internalType": "bytes32",
          "name": "_hash",
          "type": "bytes32"
        }
      ],
      "name": "unlockFunction",
      "outputs": [],
      "stateMutability": "nonpayable",
      "type": "function"
    },
    {
      "inputs": [
        {
          "internalType": "contract IVaultHandler",
          "name": "_vault",
          "type": "address"
        }
      ],
      "name": "unpauseVault",
      "outputs": [],
      "stateMutability": "nonpayable",
      "type": "function"
    },
    {
      "stateMutability": "payable",
      "type": "receive"
    }
  ],
  "address": "0x60AE8D263AE80892c36F7824D99EE3B4336E5d83",
  "args": [],
  "solcInputHash": "0xbcb7b267486579aa44f7927aa02bf1b0a7b224229b638e64190c341127d33829",
  "bytecode": "0x608060405234801561001057600080fd5b5060006100246001600160e01b0361007316565b600080546001600160a01b0319166001600160a01b0383169081178255604051929350917f8be0079c531659141344cd1fd0a4f28419497f9722a3daafe3b4186f6b6457e0908290a350610077565b3390565b6121ed806100866000396000f3fe60806040526004361061012e5760003560e01c80638d887163116100ab578063c0bd6f9e1161006f578063c0bd6f9e1461046f578063c1a017b9146104a2578063c5f20d7b146104d5578063cb5c3b291461050e578063f2fde38b14610550578063f4c7c76c1461058357610135565b80638d887163146103a05780638da5cb5b146103d95780639ab4e67f1461040a5780639b138df714610445578063bae8cae51461045a57610135565b80635f3a0854116100f25780635f3a08541461028d578063715018a6146102db578063739110d7146102f05780637532ce701461032c5780637e0e28011461036557610135565b8063057520471461013a57806318a55b1b146101755780631ae2ae69146101eb5780631fefeb3c146102275780632efbab2c1461025a57610135565b3661013557005b600080fd5b34801561014657600080fd5b506101736004803603604081101561015d57600080fd5b506001600160a01b0381351690602001356105b6565b005b34801561018157600080fd5b50610173600480360361014081101561019957600080fd5b506001600160a01b03813581169160208101359160408201359160608101359160808201359160a081013582169160c082013581169160e0810135821691610100820135811691610120013516610832565b3480156101f757600080fd5b506101736004803603604081101561020e57600080fd5b5080356001600160a01b0316906020013560ff16610a07565b34801561023357600080fd5b506101736004803603602081101561024a57600080fd5b50356001600160a01b0316610a6d565b34801561026657600080fd5b506101736004803603602081101561027d57600080fd5b50356001600160a01b0316610b6b565b34801561029957600080fd5b506102c9600480360360408110156102b057600080fd5b5080356001600160a01b0316906020013560ff16610c55565b60408051918252519081900360200190f35b3480156102e757600080fd5b50610173610c72565b3480156102fc57600080fd5b506102c96004803603604081101561031357600080fd5b5080356001600160a01b0316906020013560ff16610d14565b34801561033857600080fd5b506101736004803603604081101561034f57600080fd5b506001600160a01b038135169060200135610d31565b34801561037157600080fd5b506101736004803603604081101561038857600080fd5b506001600160a01b0381351690602001351515610fa7565b3480156103ac57600080fd5b50610173600480360360408110156103c357600080fd5b506001600160a01b03813516906020013561122c565b3480156103e557600080fd5b506103ee6114a7565b604080516001600160a01b039092168252519081900360200190f35b34801561041657600080fd5b506101736004803603604081101561042d57600080fd5b506001600160a01b03813581169160200135166114b6565b34801561045157600080fd5b506102c9611637565b34801561046657600080fd5b5061017361163e565b34801561047b57600080fd5b506101736004803603602081101561049257600080fd5b50356001600160a01b03166116d7565b3480156104ae57600080fd5b50610173600480360360208110156104c557600080fd5b50356001600160a01b03166117c1565b3480156104e157600080fd5b50610173600480360360408110156104f857600080fd5b506001600160a01b0381351690602001356118da565b34801561051a57600080fd5b506101736004803603606081101561053157600080fd5b506001600160a01b038135169060ff6020820135169060400135611b50565b34801561055c57600080fd5b506101736004803603602081101561057357600080fd5b50356001600160a01b0316611c9d565b34801561058f57600080fd5b50610173600480360360208110156105a657600080fd5b50356001600160a01b0316611d95565b6105be611eae565b6000546001600160a01b0390811691161461060e576040805162461bcd60e51b81526020600482018190526024820152600080516020612178833981519152604482015290519081900360640190fd5b816106208163279d6ac360e21b611eb2565b610665576040805162461bcd60e51b8152602060048201526011602482015270139bdd0818481d985b1a59081d985d5b1d607a1b604482015290519081900360640190fd5b60408051602080820185905282518083038201815291830183528151918101919091206001600160a01b03861660009081526001835283812081805290925291812054859290158015906106f757506001600160a01b038316600090815260016020526040812042918460048111156106da57fe5b60048111156106e557fe5b81526020019081526020016000205411155b610741576040805162461bcd60e51b8152602060048201526016602482015275119d5b98dd1a5bdb881a5cc81d1a5b595b1bd8dad95960521b604482015290519081900360640190fd5b6001600160a01b0383166000908152600260205260408120829184600481111561076757fe5b600481111561077257fe5b815260200190815260200160002054146107c1576040805162461bcd60e51b815260206004820152601a6024820152600080516020612198833981519152604482015290519081900360640190fd5b856001600160a01b031663b2237ba3866040518263ffffffff1660e01b815260040180828152602001915050600060405180830381600087803b15801561080757600080fd5b505af115801561081b573d6000803e3d6000fd5b5050505061082a866000611ed5565b505050505050565b61083a611eae565b6000546001600160a01b0390811691161461088a576040805162461bcd60e51b81526020600482018190526024820152600080516020612178833981519152604482015290519081900360640190fd5b8961089c8163279d6ac360e21b611eb2565b6108e1576040805162461bcd60e51b8152602060048201526011602482015270139bdd0818481d985b1a59081d985d5b1d607a1b604482015290519081900360640190fd5b846108f38163a9ccee5160e01b611eb2565b61093d576040805162461bcd60e51b815260206004820152601660248201527504e6f7420612076616c696420544341502045524332360541b604482015290519081900360640190fd5b61094687611f5e565b61094f84611f5e565b61095883611f5e565b60408051637a5fe9a360e11b8152600481018d9052602481018c9052604481018b9052606481018a90526001600160a01b03898116608483015288811660a483015287811660c483015286811660e48301528581166101048301529151918e169163f4bfd346916101248082019260009290919082900301818387803b1580156109e157600080fd5b505af11580156109f5573d6000803e3d6000fd5b50505050505050505050505050505050565b610a0f611eae565b6000546001600160a01b03908116911614610a5f576040805162461bcd60e51b81526020600482018190526024820152600080516020612178833981519152604482015290519081900360640190fd5b610a698282611ed5565b5050565b610a75611eae565b6000546001600160a01b03908116911614610ac5576040805162461bcd60e51b81526020600482018190526024820152600080516020612178833981519152604482015290519081900360640190fd5b80610ad78163279d6ac360e21b611eb2565b610b1c576040805162461bcd60e51b8152602060048201526011602482015270139bdd0818481d985b1a59081d985d5b1d607a1b604482015290519081900360640190fd5b816001600160a01b031663bae8cae56040518163ffffffff1660e01b8152600401600060405180830381600087803b158015610b5757600080fd5b505af115801561082a573d6000803e3d6000fd5b610b73611eae565b6000546001600160a01b03908116911614610bc3576040805162461bcd60e51b81526020600482018190526024820152600080516020612178833981519152604482015290519081900360640190fd5b80610bd58163279d6ac360e21b611eb2565b610c1a576040805162461bcd60e51b8152602060048201526011602482015270139bdd0818481d985b1a59081d985d5b1d607a1b604482015290519081900360640190fd5b816001600160a01b0316633f4ba83a6040518163ffffffff1660e01b8152600401600060405180830381600087803b158015610b5757600080fd5b600160209081526000928352604080842090915290825290205481565b610c7a611eae565b6000546001600160a01b03908116911614610cca576040805162461bcd60e51b81526020600482018190526024820152600080516020612178833981519152604482015290519081900360640190fd5b600080546040516001600160a01b03909116907f8be0079c531659141344cd1fd0a4f28419497f9722a3daafe3b4186f6b6457e0908390a3600080546001600160a01b0319169055565b600260209081526000928352604080842090915290825290205481565b610d39611eae565b6000546001600160a01b03908116911614610d89576040805162461bcd60e51b81526020600482018190526024820152600080516020612178833981519152604482015290519081900360640190fd5b81610d9b8163279d6ac360e21b611eb2565b610de0576040805162461bcd60e51b8152602060048201526011602482015270139bdd0818481d985b1a59081d985d5b1d607a1b604482015290519081900360640190fd5b60408051602080820185905282518083038201815291830183528151918101919091206001600160a01b03861660009081526001808452848220818352909352929092205485929015801590610e7457506001600160a01b03831660009081526001602052604081204291846004811115610e5757fe5b6004811115610e6257fe5b81526020019081526020016000205411155b610ebe576040805162461bcd60e51b8152602060048201526016602482015275119d5b98dd1a5bdb881a5cc81d1a5b595b1bd8dad95960521b604482015290519081900360640190fd5b6001600160a01b03831660009081526002602052604081208291846004811115610ee457fe5b6004811115610eef57fe5b81526020019081526020016000205414610f3e576040805162461bcd60e51b815260206004820152601a6024820152600080516020612198833981519152604482015290519081900360640190fd5b856001600160a01b0316634bf2c7c9866040518263ffffffff1660e01b815260040180828152602001915050600060405180830381600087803b158015610f8457600080fd5b505af1158015610f98573d6000803e3d6000fd5b5050505061082a866001611ed5565b610faf611eae565b6000546001600160a01b03908116911614610fff576040805162461bcd60e51b81526020600482018190526024820152600080516020612178833981519152604482015290519081900360640190fd5b816110118163a9ccee5160e01b611eb2565b61105b576040805162461bcd60e51b815260206004820152601660248201527504e6f7420612076616c696420544341502045524332360541b604482015290519081900360640190fd5b6040805183151560f81b6020808301919091528251600181840381018252602190930184528051908201206001600160a01b0387166000908152928252838320600380855292529290912054859290158015906110f657506001600160a01b038316600090815260016020526040812042918460048111156110d957fe5b60048111156110e457fe5b81526020019081526020016000205411155b611140576040805162461bcd60e51b8152602060048201526016602482015275119d5b98dd1a5bdb881a5cc81d1a5b595b1bd8dad95960521b604482015290519081900360640190fd5b6001600160a01b0383166000908152600260205260408120829184600481111561116657fe5b600481111561117157fe5b815260200190815260200160002054146111c0576040805162461bcd60e51b815260206004820152601a6024820152600080516020612198833981519152604482015290519081900360640190fd5b604080516312f3ebe560e31b8152861515600482015290516001600160a01b0388169163979f5f2891602480830192600092919082900301818387803b15801561120957600080fd5b505af115801561121d573d6000803e3d6000fd5b5050505061082a866003611ed5565b611234611eae565b6000546001600160a01b03908116911614611284576040805162461bcd60e51b81526020600482018190526024820152600080516020612178833981519152604482015290519081900360640190fd5b816112968163a9ccee5160e01b611eb2565b6112e0576040805162461bcd60e51b815260206004820152601660248201527504e6f7420612076616c696420544341502045524332360541b604482015290519081900360640190fd5b60408051602080820185905282518083038201815291830183528151918101919091206001600160a01b0386166000908152600183528381206004808352935292909220548592901580159061137457506001600160a01b0383166000908152600160205260408120429184600481111561135757fe5b600481111561136257fe5b81526020019081526020016000205411155b6113be576040805162461bcd60e51b8152602060048201526016602482015275119d5b98dd1a5bdb881a5cc81d1a5b595b1bd8dad95960521b604482015290519081900360640190fd5b6001600160a01b038316600090815260026020526040812082918460048111156113e457fe5b60048111156113ef57fe5b8152602001908152602001600020541461143e576040805162461bcd60e51b815260206004820152601a6024820152600080516020612198833981519152604482015290519081900360640190fd5b856001600160a01b03166347786d37866040518263ffffffff1660e01b815260040180828152602001915050600060405180830381600087803b15801561148457600080fd5b505af1158015611498573d6000803e3d6000fd5b5050505061082a866004611ed5565b6000546001600160a01b031690565b6114be611eae565b6000546001600160a01b0390811691161461150e576040805162461bcd60e51b81526020600482018190526024820152600080516020612178833981519152604482015290519081900360640190fd5b816115208163a9ccee5160e01b611eb2565b61156a576040805162461bcd60e51b815260206004820152601660248201527504e6f7420612076616c696420544341502045524332360541b604482015290519081900360640190fd5b8161157c8163279d6ac360e21b611eb2565b6115c1576040805162461bcd60e51b8152602060048201526011602482015270139bdd0818481d985b1a59081d985d5b1d607a1b604482015290519081900360640190fd5b836001600160a01b03166327cb052e846040518263ffffffff1660e01b815260040180826001600160a01b03166001600160a01b03168152602001915050600060405180830381600087803b15801561161957600080fd5b505af115801561162d573d6000803e3d6000fd5b5050505050505050565b6203f48081565b611646611eae565b6000546001600160a01b03908116911614611696576040805162461bcd60e51b81526020600482018190526024820152600080516020612178833981519152604482015290519081900360640190fd5b4761169f6114a7565b6001600160a01b03166108fc829081150290604051600060405180830381858888f19350505050158015610a69573d6000803e3d6000fd5b6116df611eae565b6000546001600160a01b0390811691161461172f576040805162461bcd60e51b81526020600482018190526024820152600080516020612178833981519152604482015290519081900360640190fd5b806117418163279d6ac360e21b611eb2565b611786576040805162461bcd60e51b8152602060048201526011602482015270139bdd0818481d985b1a59081d985d5b1d607a1b604482015290519081900360640190fd5b816001600160a01b0316638456cb596040518163ffffffff1660e01b8152600401600060405180830381600087803b158015610b5757600080fd5b6117c9611eae565b6000546001600160a01b03908116911614611819576040805162461bcd60e51b81526020600482018190526024820152600080516020612178833981519152604482015290519081900360640190fd5b8061182b8163279d6ac360e21b611eb2565b611870576040805162461bcd60e51b8152602060048201526011602482015270139bdd0818481d985b1a59081d985d5b1d607a1b604482015290519081900360640190fd5b816001600160a01b0316632806a74360006040518263ffffffff1660e01b815260040180828152602001915050600060405180830381600087803b1580156118b757600080fd5b505af11580156118cb573d6000803e3d6000fd5b50505050610a69826002611ed5565b6118e2611eae565b6000546001600160a01b03908116911614611932576040805162461bcd60e51b81526020600482018190526024820152600080516020612178833981519152604482015290519081900360640190fd5b816119448163279d6ac360e21b611eb2565b611989576040805162461bcd60e51b8152602060048201526011602482015270139bdd0818481d985b1a59081d985d5b1d607a1b604482015290519081900360640190fd5b60408051602080820185905282518083038201815291830183528151918101919091206001600160a01b03861660009081526001835283812060028083529352929092205485929015801590611a1d57506001600160a01b03831660009081526001602052604081204291846004811115611a0057fe5b6004811115611a0b57fe5b81526020019081526020016000205411155b611a67576040805162461bcd60e51b8152602060048201526016602482015275119d5b98dd1a5bdb881a5cc81d1a5b595b1bd8dad95960521b604482015290519081900360640190fd5b6001600160a01b03831660009081526002602052604081208291846004811115611a8d57fe5b6004811115611a9857fe5b81526020019081526020016000205414611ae7576040805162461bcd60e51b815260206004820152601a6024820152600080516020612198833981519152604482015290519081900360640190fd5b856001600160a01b0316632806a743866040518263ffffffff1660e01b815260040180828152602001915050600060405180830381600087803b158015611b2d57600080fd5b505af1158015611b41573d6000803e3d6000fd5b5050505061082a866002611ed5565b611b58611eae565b6000546001600160a01b03908116911614611ba8576040805162461bcd60e51b81526020600482018190526024820152600080516020612178833981519152604482015290519081900360640190fd5b6001600160a01b0383166000908152600160205260408120426203f4800191846004811115611bd357fe5b6004811115611bde57fe5b8152602001908152602001600020819055508060026000856001600160a01b03166001600160a01b031681526020019081526020016000206000846004811115611c2457fe5b6004811115611c2f57fe5b815260200190815260200160002081905550826001600160a01b03167f5d8515b685940189d461343341d33e7b93afcd18e2a29f63b2ca92ee1bb8d466838360405180836004811115611c7e57fe5b60ff1681526020018281526020019250505060405180910390a2505050565b611ca5611eae565b6000546001600160a01b03908116911614611cf5576040805162461bcd60e51b81526020600482018190526024820152600080516020612178833981519152604482015290519081900360640190fd5b6001600160a01b038116611d3a5760405162461bcd60e51b81526004018080602001828103825260268152602001806121526026913960400191505060405180910390fd5b600080546040516001600160a01b03808516939216917f8be0079c531659141344cd1fd0a4f28419497f9722a3daafe3b4186f6b6457e091a3600080546001600160a01b0319166001600160a01b0392909216919091179055565b611d9d611eae565b6000546001600160a01b03908116911614611ded576040805162461bcd60e51b81526020600482018190526024820152600080516020612178833981519152604482015290519081900360640190fd5b80611dff8163279d6ac360e21b611eb2565b611e44576040805162461bcd60e51b8152602060048201526011602482015270139bdd0818481d985b1a59081d985d5b1d607a1b604482015290519081900360640190fd5b816001600160a01b0316634bf2c7c960006040518263ffffffff1660e01b815260040180828152602001915050600060405180830381600087803b158015611e8b57600080fd5b505af1158015611e9f573d6000803e3d6000fd5b50505050610a69826001611ed5565b3390565b6000611ebd83611fc3565b8015611ece5750611ece8383611ff7565b9392505050565b6001600160a01b038216600090815260016020526040812081836004811115611efa57fe5b6004811115611f0557fe5b815260208082019290925260409081016000908120939093556001600160a01b03851683526002909152812081836004811115611f3e57fe5b6004811115611f4957fe5b81526020810191909152604001600020555050565b611f6f816385be402b60e01b611eb2565b611fc0576040805162461bcd60e51b815260206004820152601c60248201527f4e6f7420612076616c696420436861696e6c696e6b204f7261636c6500000000604482015290519081900360640190fd5b50565b6000611fd6826301ffc9a760e01b611ff7565b8015611ff15750611fef826001600160e01b0319611ff7565b155b92915050565b6000806000612006858561201d565b915091508180156120145750805b95945050505050565b604080516001600160e01b0319831660248083019190915282518083039091018152604490910182526020810180516001600160e01b03166301ffc9a760e01b1781529151815160009384939284926060926001600160a01b038a169261753092879282918083835b602083106120a55780518252601f199092019160209182019101612086565b6001836020036101000a0380198251168184511680821785525050505050509050019150506000604051808303818686fa925050503d8060008114612106576040519150601f19603f3d011682016040523d82523d6000602084013e61210b565b606091505b5091509150602081511015612129576000809450945050505061214a565b8181806020019051602081101561213f57600080fd5b505190955093505050505b925092905056fe4f776e61626c653a206e6577206f776e657220697320746865207a65726f20616464726573734f776e61626c653a2063616c6c6572206973206e6f7420746865206f776e65724e6f7420646566696e65642074696d656c6f636b2076616c7565000000000000a264697066735822122053b04e832458e427c1874e853e51e41f9badcfb48c976887a328a37448116ab764736f6c63430006080033",
  "devdoc": {
    "author": "Cristian Espinoza",
    "methods": {
      "addTCAPVault(address,address)": {
        "details": "Only owner can call itValidates if _tcap is validValidates if _vault is valid",
        "params": {
          "_tcap": "address",
          "_vault": "address"
        }
      },
      "enableTCAPCap(address,bool)": {
        "details": "Only owner can call itValidates if _tcap is valid",
        "params": {
          "_enable": "bool",
          "_tcap": "address"
        }
      },
      "initializeVault(address,uint256,uint256,uint256,uint256,address,address,address,address,address)": {
        "details": "Only owner can call itValidates if contracts support their interface",
        "params": {
          "_burnFee": "uint256",
          "_collateralAddress": "address",
          "_collateralOracle": "address",
          "_divisor": "uint256",
          "_ethOracle": "address",
          "_liquidationPenalty": "uint256",
          "_ratio": "uint256",
          "_tcapAddress": "address",
          "_tcapOracle": "address",
          "_vault": "address"
        }
      },
      "lockVaultFunction(address,uint8)": {
        "details": "Only owner can call itLock happens immediately",
        "params": {
          "_fn": "to be locked",
          "_vault": "address"
        }
      },
      "owner()": {
        "details": "Returns the address of the current owner."
      },
      "pauseVault(address)": {
        "details": "Only owner can call itValidates if _vault is valid",
        "params": {
          "_vault": "address"
        }
      },
      "renounceOwnership()": {
        "details": "Leaves the contract without owner. It will not be possible to call `onlyOwner` functions anymore. Can only be called by the current owner.     * NOTE: Renouncing ownership will leave the contract without an owner, thereby removing any functionality that is only available to the owner."
      },
      "retrieveFees()": {
        "details": "Only owner can call itTransfer the balance to the contract owner"
      },
      "retrieveVaultFees(address)": {
        "details": "Only owner can call itValidates if _vault is valid",
        "params": {
          "_vault": "address"
        }
      },
      "setBurnFee(address,uint256)": {
        "details": "Only owner can call itValidates if _vault is valid and not lockedLocks function after using",
        "params": {
          "_burnFee": "value",
          "_vault": "address"
        }
      },
      "setEmergencyBurnFee(address)": {
        "details": "Only owner can call itValidates if _vault is validLocks function after using",
        "params": {
          "_vault": "address"
        }
      },
      "setEmergencyLiquidationPenalty(address)": {
        "details": "Only owner can call itValidates if _vault is validLocks function after using",
        "params": {
          "_vault": "address"
        }
      },
      "setLiquidationPenalty(address,uint256)": {
        "details": "Only owner can call itValidates if _vault is valid and not lockedLocks function after using",
        "params": {
          "_liquidationPenalty": "value",
          "_vault": "address"
        }
      },
      "setRatio(address,uint256)": {
        "details": "Only owner can call itValidates if _vault is valid and not lockedLocks function after using",
        "params": {
          "_ratio": "value",
          "_vault": "address"
        }
      },
      "setTCAPCap(address,uint256)": {
        "details": "Only owner can call itValidates if _tcap is valid",
        "params": {
          "_cap": "uint value",
          "_tcap": "address"
        }
      },
      "transferOwnership(address)": {
        "details": "Transfers ownership of the contract to a new account (`newOwner`). Can only be called by the current owner."
      },
      "unlockFunction(address,uint8,bytes32)": {
        "details": "Only owner can call itUnlock time is = block.timestamp + _TIMELOCKA hash of the value to save is passed as proof for users that the changing value is correct.",
        "params": {
          "_contract": "address",
          "_fn": "to be unlocked"
        }
      },
      "unpauseVault(address)": {
        "details": "Only owner can call itValidates if _vault is valid",
        "params": {
          "_vault": "address"
        }
      }
    },
    "title": "TCAP Orchestrator"
  },
  "userdoc": {
    "methods": {
      "addTCAPVault(address,address)": {
        "notice": "Adds Vault to TCAP ERC20"
      },
      "enableTCAPCap(address,bool)": {
        "notice": "Enables or disables the TCAP Cap"
      },
      "initializeVault(address,uint256,uint256,uint256,uint256,address,address,address,address,address)": {
        "notice": "Intialize the Vault Contract"
      },
      "lockVaultFunction(address,uint8)": {
        "notice": "Locks vault function"
      },
      "pauseVault(address)": {
        "notice": "Pauses the Vault"
      },
      "retrieveFees()": {
        "notice": "Retrieves the fees on the orchestrator"
      },
      "retrieveVaultFees(address)": {
        "notice": "Retrieves a vault fees and put it on the Orchestrator"
      },
      "setBurnFee(address,uint256)": {
        "notice": "Sets the burn fee of a vault"
      },
      "setEmergencyBurnFee(address)": {
        "notice": "Sets the burn fee to 0, only used on a black swan event"
      },
      "setEmergencyLiquidationPenalty(address)": {
        "notice": "Sets the liquidation penalty of a vault to 0, only used on a black swan event"
      },
      "setLiquidationPenalty(address,uint256)": {
        "notice": "Sets the liquidation penalty of a vault"
      },
      "setRatio(address,uint256)": {
        "notice": "Sets the ratio of a vault"
      },
      "setTCAPCap(address,uint256)": {
        "notice": "Sets the TCAP maximum minting value"
      },
      "unlockFunction(address,uint8,bytes32)": {
        "notice": "Unlocks contract function"
      },
      "unpauseVault(address)": {
        "notice": "Unpauses the Vault"
      }
    },
    "notice": "Orchestrator contract in charge of managing the settings of the vaults and TCAP token"
  },
  "storageLayout": {
    "storage": [
      {
        "astId": 359,
        "contract": "contracts/Orchestrator.sol:Orchestrator",
        "label": "_owner",
        "offset": 0,
        "slot": "0",
        "type": "t_address"
      },
      {
        "astId": 4133,
        "contract": "contracts/Orchestrator.sol:Orchestrator",
        "label": "timelock",
        "offset": 0,
        "slot": "1",
        "type": "t_mapping(t_address,t_mapping(t_enum(Functions)4127,t_uint256))"
      },
      {
        "astId": 4139,
        "contract": "contracts/Orchestrator.sol:Orchestrator",
        "label": "timelockValue",
        "offset": 0,
        "slot": "2",
        "type": "t_mapping(t_address,t_mapping(t_enum(Functions)4127,t_bytes32))"
      }
    ],
    "types": {
      "t_address": {
        "encoding": "inplace",
        "label": "address",
        "numberOfBytes": "20"
      },
      "t_bytes32": {
        "encoding": "inplace",
        "label": "bytes32",
        "numberOfBytes": "32"
      },
      "t_enum(Functions)4127": {
        "encoding": "inplace",
        "label": "enum Orchestrator.Functions",
        "numberOfBytes": "1"
      },
      "t_mapping(t_address,t_mapping(t_enum(Functions)4127,t_bytes32))": {
        "encoding": "mapping",
        "key": "t_address",
        "label": "mapping(address => mapping(enum Orchestrator.Functions => bytes32))",
        "numberOfBytes": "32",
        "value": "t_mapping(t_enum(Functions)4127,t_bytes32)"
      },
      "t_mapping(t_address,t_mapping(t_enum(Functions)4127,t_uint256))": {
        "encoding": "mapping",
        "key": "t_address",
        "label": "mapping(address => mapping(enum Orchestrator.Functions => uint256))",
        "numberOfBytes": "32",
        "value": "t_mapping(t_enum(Functions)4127,t_uint256)"
      },
      "t_mapping(t_enum(Functions)4127,t_bytes32)": {
        "encoding": "mapping",
        "key": "t_enum(Functions)4127",
        "label": "mapping(enum Orchestrator.Functions => bytes32)",
        "numberOfBytes": "32",
        "value": "t_bytes32"
      },
      "t_mapping(t_enum(Functions)4127,t_uint256)": {
        "encoding": "mapping",
        "key": "t_enum(Functions)4127",
        "label": "mapping(enum Orchestrator.Functions => uint256)",
        "numberOfBytes": "32",
        "value": "t_uint256"
      },
      "t_uint256": {
        "encoding": "inplace",
        "label": "uint256",
        "numberOfBytes": "32"
      }
    }
  },
  "gasEstimates": {
    "creation": {
      "codeDepositCost": "1737000",
      "executionCost": "infinite",
      "totalCost": "infinite"
    },
    "external": {
      "_TIMELOCK()": "287",
      "addTCAPVault(address,address)": "infinite",
      "enableTCAPCap(address,bool)": "infinite",
      "initializeVault(address,uint256,uint256,uint256,uint256,address,address,address,address,address)": "infinite",
      "lockVaultFunction(address,uint8)": "infinite",
      "owner()": "1082",
      "pauseVault(address)": "infinite",
      "renounceOwnership()": "infinite",
      "retrieveFees()": "infinite",
      "retrieveVaultFees(address)": "infinite",
      "setBurnFee(address,uint256)": "infinite",
      "setEmergencyBurnFee(address)": "infinite",
      "setEmergencyLiquidationPenalty(address)": "infinite",
      "setLiquidationPenalty(address,uint256)": "infinite",
      "setRatio(address,uint256)": "infinite",
      "setTCAPCap(address,uint256)": "infinite",
      "timelock(address,uint8)": "1240",
      "timelockValue(address,uint8)": "1284",
      "transferOwnership(address)": "infinite",
      "unlockFunction(address,uint8,bytes32)": "infinite",
      "unpauseVault(address)": "infinite"
    },
    "internal": {
      "_lockFunction(address,enum Orchestrator.Functions)": "10489",
      "_validChainlinkOracle(address)": "infinite"
    }
  }
}