{
  "address": "0x3A4BD90b43Af313751d740E943FFD57F1d28595c",
  "abi": [
    {
      "inputs": [
        {
          "internalType": "string",
          "name": "_name",
          "type": "string"
        },
        {
          "internalType": "string",
          "name": "_symbol",
          "type": "string"
        },
        {
          "internalType": "uint256",
          "name": "_cap",
          "type": "uint256"
        },
        {
          "internalType": "contract Orchestrator",
          "name": "_orchestrator",
          "type": "address"
        }
      ],
      "stateMutability": "nonpayable",
      "type": "constructor"
    },
    {
      "anonymous": false,
      "inputs": [
        {
          "indexed": true,
          "internalType": "address",
          "name": "owner",
          "type": "address"
        },
        {
          "indexed": true,
          "internalType": "address",
          "name": "spender",
          "type": "address"
        },
        {
          "indexed": false,
          "internalType": "uint256",
          "name": "value",
          "type": "uint256"
        }
      ],
      "name": "Approval",
      "type": "event"
    },
    {
      "anonymous": false,
      "inputs": [
        {
          "indexed": true,
          "internalType": "address",
          "name": "_owner",
          "type": "address"
        },
        {
          "indexed": false,
          "internalType": "uint256",
          "name": "_amount",
          "type": "uint256"
        }
      ],
      "name": "NewCap",
      "type": "event"
    },
    {
      "anonymous": false,
      "inputs": [
        {
          "indexed": true,
          "internalType": "address",
          "name": "_owner",
          "type": "address"
        },
        {
          "indexed": false,
          "internalType": "bool",
          "name": "_enable",
          "type": "bool"
        }
      ],
      "name": "NewCapEnabled",
      "type": "event"
    },
    {
      "anonymous": false,
      "inputs": [
        {
          "indexed": true,
          "internalType": "address",
          "name": "previousOwner",
          "type": "address"
        },
        {
          "indexed": true,
          "internalType": "address",
          "name": "newOwner",
          "type": "address"
        }
      ],
      "name": "OwnershipTransferred",
      "type": "event"
    },
    {
      "anonymous": false,
      "inputs": [
        {
          "indexed": true,
          "internalType": "address",
          "name": "from",
          "type": "address"
        },
        {
          "indexed": true,
          "internalType": "address",
          "name": "to",
          "type": "address"
        },
        {
          "indexed": false,
          "internalType": "uint256",
          "name": "value",
          "type": "uint256"
        }
      ],
      "name": "Transfer",
      "type": "event"
    },
    {
      "anonymous": false,
      "inputs": [
        {
          "indexed": true,
          "internalType": "address",
          "name": "_owner",
          "type": "address"
        },
        {
          "indexed": true,
          "internalType": "address",
          "name": "_tokenHandler",
          "type": "address"
        }
      ],
      "name": "VaultHandlerAdded",
      "type": "event"
    },
    {
      "anonymous": false,
      "inputs": [
        {
          "indexed": true,
          "internalType": "address",
          "name": "_owner",
          "type": "address"
        },
        {
          "indexed": true,
          "internalType": "address",
          "name": "_tokenHandler",
          "type": "address"
        }
      ],
      "name": "VaultHandlerRemoved",
      "type": "event"
    },
    {
      "inputs": [
        {
          "internalType": "address",
          "name": "_vaultHandler",
          "type": "address"
        }
      ],
      "name": "addVaultHandler",
      "outputs": [],
      "stateMutability": "nonpayable",
      "type": "function"
    },
    {
      "inputs": [
        {
          "internalType": "address",
          "name": "owner",
          "type": "address"
        },
        {
          "internalType": "address",
          "name": "spender",
          "type": "address"
        }
      ],
      "name": "allowance",
      "outputs": [
        {
          "internalType": "uint256",
          "name": "",
          "type": "uint256"
        }
      ],
      "stateMutability": "view",
      "type": "function"
    },
    {
      "inputs": [
        {
          "internalType": "address",
          "name": "spender",
          "type": "address"
        },
        {
          "internalType": "uint256",
          "name": "amount",
          "type": "uint256"
        }
      ],
      "name": "approve",
      "outputs": [
        {
          "internalType": "bool",
          "name": "",
          "type": "bool"
        }
      ],
      "stateMutability": "nonpayable",
      "type": "function"
    },
    {
      "inputs": [
        {
          "internalType": "address",
          "name": "account",
          "type": "address"
        }
      ],
      "name": "balanceOf",
      "outputs": [
        {
          "internalType": "uint256",
          "name": "",
          "type": "uint256"
        }
      ],
      "stateMutability": "view",
      "type": "function"
    },
    {
      "inputs": [
        {
          "internalType": "address",
          "name": "_account",
          "type": "address"
        },
        {
          "internalType": "uint256",
          "name": "_amount",
          "type": "uint256"
        }
      ],
      "name": "burn",
      "outputs": [],
      "stateMutability": "nonpayable",
      "type": "function"
    },
    {
      "inputs": [],
      "name": "cap",
      "outputs": [
        {
          "internalType": "uint256",
          "name": "",
          "type": "uint256"
        }
      ],
      "stateMutability": "view",
      "type": "function"
    },
    {
      "inputs": [],
      "name": "capEnabled",
      "outputs": [
        {
          "internalType": "bool",
          "name": "",
          "type": "bool"
        }
      ],
      "stateMutability": "view",
      "type": "function"
    },
    {
      "inputs": [],
      "name": "decimals",
      "outputs": [
        {
          "internalType": "uint8",
          "name": "",
          "type": "uint8"
        }
      ],
      "stateMutability": "view",
      "type": "function"
    },
    {
      "inputs": [
        {
          "internalType": "address",
          "name": "spender",
          "type": "address"
        },
        {
          "internalType": "uint256",
          "name": "subtractedValue",
          "type": "uint256"
        }
      ],
      "name": "decreaseAllowance",
      "outputs": [
        {
          "internalType": "bool",
          "name": "",
          "type": "bool"
        }
      ],
      "stateMutability": "nonpayable",
      "type": "function"
    },
    {
      "inputs": [
        {
          "internalType": "bool",
          "name": "_enable",
          "type": "bool"
        }
      ],
      "name": "enableCap",
      "outputs": [],
      "stateMutability": "nonpayable",
      "type": "function"
    },
    {
      "inputs": [
        {
          "internalType": "address",
          "name": "spender",
          "type": "address"
        },
        {
          "internalType": "uint256",
          "name": "addedValue",
          "type": "uint256"
        }
      ],
      "name": "increaseAllowance",
      "outputs": [
        {
          "internalType": "bool",
          "name": "",
          "type": "bool"
        }
      ],
      "stateMutability": "nonpayable",
      "type": "function"
    },
    {
      "inputs": [
        {
          "internalType": "address",
          "name": "_account",
          "type": "address"
        },
        {
          "internalType": "uint256",
          "name": "_amount",
          "type": "uint256"
        }
      ],
      "name": "mint",
      "outputs": [],
      "stateMutability": "nonpayable",
      "type": "function"
    },
    {
      "inputs": [],
      "name": "name",
      "outputs": [
        {
          "internalType": "string",
          "name": "",
          "type": "string"
        }
      ],
      "stateMutability": "view",
      "type": "function"
    },
    {
      "inputs": [],
      "name": "owner",
      "outputs": [
        {
          "internalType": "address",
          "name": "",
          "type": "address"
        }
      ],
      "stateMutability": "view",
      "type": "function"
    },
    {
      "inputs": [
        {
          "internalType": "address",
          "name": "_vaultHandler",
          "type": "address"
        }
      ],
      "name": "removeVaultHandler",
      "outputs": [],
      "stateMutability": "nonpayable",
      "type": "function"
    },
    {
      "inputs": [],
      "name": "renounceOwnership",
      "outputs": [],
      "stateMutability": "nonpayable",
      "type": "function"
    },
    {
      "inputs": [
        {
          "internalType": "uint256",
          "name": "_cap",
          "type": "uint256"
        }
      ],
      "name": "setCap",
      "outputs": [],
      "stateMutability": "nonpayable",
      "type": "function"
    },
    {
      "inputs": [
        {
          "internalType": "bytes4",
          "name": "_interfaceId",
          "type": "bytes4"
        }
      ],
      "name": "supportsInterface",
      "outputs": [
        {
          "internalType": "bool",
          "name": "",
          "type": "bool"
        }
      ],
      "stateMutability": "pure",
      "type": "function"
    },
    {
      "inputs": [],
      "name": "symbol",
      "outputs": [
        {
          "internalType": "string",
          "name": "",
          "type": "string"
        }
      ],
      "stateMutability": "view",
      "type": "function"
    },
    {
      "inputs": [],
      "name": "totalSupply",
      "outputs": [
        {
          "internalType": "uint256",
          "name": "",
          "type": "uint256"
        }
      ],
      "stateMutability": "view",
      "type": "function"
    },
    {
      "inputs": [
        {
          "internalType": "address",
          "name": "recipient",
          "type": "address"
        },
        {
          "internalType": "uint256",
          "name": "amount",
          "type": "uint256"
        }
      ],
      "name": "transfer",
      "outputs": [
        {
          "internalType": "bool",
          "name": "",
          "type": "bool"
        }
      ],
      "stateMutability": "nonpayable",
      "type": "function"
    },
    {
      "inputs": [
        {
          "internalType": "address",
          "name": "sender",
          "type": "address"
        },
        {
          "internalType": "address",
          "name": "recipient",
          "type": "address"
        },
        {
          "internalType": "uint256",
          "name": "amount",
          "type": "uint256"
        }
      ],
      "name": "transferFrom",
      "outputs": [
        {
          "internalType": "bool",
          "name": "",
          "type": "bool"
        }
      ],
      "stateMutability": "nonpayable",
      "type": "function"
    },
    {
      "inputs": [
        {
          "internalType": "address",
          "name": "newOwner",
          "type": "address"
        }
      ],
      "name": "transferOwnership",
      "outputs": [],
      "stateMutability": "nonpayable",
      "type": "function"
    },
    {
      "inputs": [
        {
          "internalType": "address",
          "name": "",
          "type": "address"
        }
      ],
      "name": "vaultHandlers",
      "outputs": [
        {
          "internalType": "bool",
          "name": "",
          "type": "bool"
        }
      ],
      "stateMutability": "view",
      "type": "function"
    }
  ],
  "transactionHash": "0x6339783b429923968b5905edf2d2cebd8bc85f45d37ea0e5ae5c7d65a2734af5",
  "args": [
    "TCAP Token",
    "TCAP",
    0,
    "0xacBCF96d13031E6D906c0567350d1EdDBc9860A3"
  ],
  "solcInputHash": "01a0b70a059871db4215d262a86724ef",
  "bytecode": "0x60806040526005805460ff60a81b191690553480156200001e57600080fd5b5060405162001a2038038062001a20833981810160405260808110156200004457600080fd5b81019080805160405193929190846401000000008211156200006557600080fd5b9083019060208201858111156200007b57600080fd5b82516401000000008111828201881017156200009657600080fd5b82525081516020918201929091019080838360005b83811015620000c5578181015183820152602001620000ab565b50505050905090810190601f168015620000f35780820380516001836020036101000a031916815260200191505b50604052602001805160405193929190846401000000008211156200011757600080fd5b9083019060208201858111156200012d57600080fd5b82516401000000008111828201881017156200014857600080fd5b82525081516020918201929091019080838360005b83811015620001775781810151838201526020016200015d565b50505050905090810190601f168015620001a55780820380516001836020036101000a031916815260200191505b50604090815260208281015192909101518651929450925085918591620001d29160039185019062000376565b508051620001e890600490602084019062000376565b50506005805460ff191660121790555060006200020462000263565b60058054610100600160a81b0319166101006001600160a01b038416908102919091179091556040519192509060009060008051602062001a00833981519152908290a3506006829055620002598162000267565b5050505062000422565b3390565b6200027162000263565b60055461010090046001600160a01b03908116911614620002d9576040805162461bcd60e51b815260206004820181905260248201527f4f776e61626c653a2063616c6c6572206973206e6f7420746865206f776e6572604482015290519081900360640190fd5b6001600160a01b038116620003205760405162461bcd60e51b8152600401808060200182810382526026815260200180620019da6026913960400191505060405180910390fd5b6005546040516001600160a01b03808416926101009004169060008051602062001a0083398151915290600090a3600580546001600160a01b0390921661010002610100600160a81b0319909216919091179055565b828054600181600116156101000203166002900490600052602060002090601f016020900481019282620003ae5760008555620003f9565b82601f10620003c957805160ff1916838001178555620003f9565b82800160010185558215620003f9579182015b82811115620003f9578251825591602001919060010190620003dc565b50620004079291506200040b565b5090565b5b808211156200040757600081556001016200040c565b6115a880620004326000396000f3fe608060405234801561001057600080fd5b50600436106101585760003560e01c806347786d37116100c35780639dc29fac1161007c5780639dc29fac14610419578063a457c2d714610445578063a9059cbb14610471578063c4ec3b191461049d578063dd62ed3e146104a5578063f2fde38b146104d357610158565b806347786d371461038357806370a08231146103a0578063715018a6146103c65780638da5cb5b146103ce57806395d89b41146103f2578063979f5f28146103fa57610158565b8063313ce56711610115578063313ce567146102b95780633316b246146102d75780633355fbd2146102fd578063355274ea14610323578063395093511461032b57806340c10f191461035757610158565b806301ffc9a71461015d57806306fdde0314610198578063095ea7b314610215578063165f7a5e1461024157806318160ddd1461026957806323b872dd14610283575b600080fd5b6101846004803603602081101561017357600080fd5b50356001600160e01b0319166104f9565b604080519115158252519081900360200190f35b6101a0610530565b6040805160208082528351818301528351919283929083019185019080838360005b838110156101da5781810151838201526020016101c2565b50505050905090810190601f1680156102075780820380516001836020036101000a031916815260200191505b509250505060405180910390f35b6101846004803603604081101561022b57600080fd5b506001600160a01b0381351690602001356105c6565b6102676004803603602081101561025757600080fd5b50356001600160a01b03166105e3565b005b61027161068d565b60408051918252519081900360200190f35b6101846004803603606081101561029957600080fd5b506001600160a01b03813581169160208101359091169060400135610693565b6102c161071a565b6040805160ff9092168252519081900360200190f35b610267600480360360208110156102ed57600080fd5b50356001600160a01b0316610723565b6101846004803603602081101561031357600080fd5b50356001600160a01b03166107ca565b6102716107df565b6101846004803603604081101561034157600080fd5b506001600160a01b0381351690602001356107e5565b6102676004803603604081101561036d57600080fd5b506001600160a01b038135169060200135610833565b6102676004803603602081101561039957600080fd5b503561088f565b610271600480360360208110156103b657600080fd5b50356001600160a01b031661092a565b610267610945565b6103d66109f2565b604080516001600160a01b039092168252519081900360200190f35b6101a0610a06565b6102676004803603602081101561041057600080fd5b50351515610a67565b6102676004803603604081101561042f57600080fd5b506001600160a01b038135169060200135610b1a565b6101846004803603604081101561045b57600080fd5b506001600160a01b038135169060200135610b72565b6101846004803603604081101561048757600080fd5b506001600160a01b038135169060200135610bda565b610184610bee565b610271600480360360408110156104bb57600080fd5b506001600160a01b0381358116916020013516610bfe565b610267600480360360208110156104e957600080fd5b50356001600160a01b0316610c29565b60006001600160e01b0319821663bd11593960e01b148061052a57506001600160e01b031982166301ffc9a760e01b145b92915050565b60038054604080516020601f60026000196101006001881615020190951694909404938401819004810282018101909252828152606093909290918301828280156105bc5780601f10610591576101008083540402835291602001916105bc565b820191906000526020600020905b81548152906001019060200180831161059f57829003601f168201915b5050505050905090565b60006105da6105d3610d32565b8484610d36565b50600192915050565b6105eb610d32565b60055461010090046001600160a01b03908116911614610640576040805162461bcd60e51b8152602060048201819052602482015260008051602061144e833981519152604482015290519081900360640190fd5b6001600160a01b038116600081815260076020526040808220805460ff191660011790555133917fddc0e64a87ff3cc59e862d6ed2e657e53969f6e844f3939ef3dcda17f12c2cf391a350565b60025490565b60006106a0848484610e22565b610710846106ac610d32565b61070b85604051806060016040528060288152602001611426602891396001600160a01b038a166000908152600160205260408120906106ea610d32565b6001600160a01b031681526020810191909152604001600020549190610f7d565b610d36565b5060019392505050565b60055460ff1690565b61072b610d32565b60055461010090046001600160a01b03908116911614610780576040805162461bcd60e51b8152602060048201819052602482015260008051602061144e833981519152604482015290519081900360640190fd5b6001600160a01b038116600081815260076020526040808220805460ff191690555133917f1cb9ae25df70c208442e72ac4141a6caac51e91e4bebad30b3893e7e4d8d242591a350565b60076020526000908152604090205460ff1681565b60065481565b60006105da6107f2610d32565b8461070b8560016000610803610d32565b6001600160a01b03908116825260208083019390935260409182016000908120918c168152925290205490611014565b3360009081526007602052604090205460ff166108815760405162461bcd60e51b81526004018080602001828103825260268152602001806115286026913960400191505060405180910390fd5b61088b8282611075565b5050565b610897610d32565b60055461010090046001600160a01b039081169116146108ec576040805162461bcd60e51b8152602060048201819052602482015260008051602061144e833981519152604482015290519081900360640190fd5b600681905560408051828152905133917f0679dda594c1faffd39f1bca10100ef5a1c674b21505e3c2629c9ee05891668d919081900360200190a250565b6001600160a01b031660009081526020819052604090205490565b61094d610d32565b60055461010090046001600160a01b039081169116146109a2576040805162461bcd60e51b8152602060048201819052602482015260008051602061144e833981519152604482015290519081900360640190fd5b60055460405160009161010090046001600160a01b0316907f8be0079c531659141344cd1fd0a4f28419497f9722a3daafe3b4186f6b6457e0908390a360058054610100600160a81b0319169055565b60055461010090046001600160a01b031690565b60048054604080516020601f60026000196101006001881615020190951694909404938401819004810282018101909252828152606093909290918301828280156105bc5780601f10610591576101008083540402835291602001916105bc565b610a6f610d32565b60055461010090046001600160a01b03908116911614610ac4576040805162461bcd60e51b8152602060048201819052602482015260008051602061144e833981519152604482015290519081900360640190fd5b60058054821515600160a81b810260ff60a81b1990921691909117909155604080519182525133917fbd0873ca4da7756522411b8e72aa0a8028d4c760f5903bcd16d6c2ae15dd78ad919081900360200190a250565b3360009081526007602052604090205460ff16610b685760405162461bcd60e51b81526004018080602001828103825260268152602001806115286026913960400191505060405180910390fd5b61088b8282611165565b60006105da610b7f610d32565b8461070b8560405180606001604052806025815260200161154e6025913960016000610ba9610d32565b6001600160a01b03908116825260208083019390935260409182016000908120918d16815292529020549190610f7d565b60006105da610be7610d32565b8484610e22565b600554600160a81b900460ff1681565b6001600160a01b03918216600090815260016020908152604080832093909416825291909152205490565b610c31610d32565b60055461010090046001600160a01b03908116911614610c86576040805162461bcd60e51b8152602060048201819052602482015260008051602061144e833981519152604482015290519081900360640190fd5b6001600160a01b038116610ccb5760405162461bcd60e51b81526004018080602001828103825260268152602001806113b86026913960400191505060405180910390fd5b6005546040516001600160a01b0380841692610100900416907f8be0079c531659141344cd1fd0a4f28419497f9722a3daafe3b4186f6b6457e090600090a3600580546001600160a01b0390921661010002610100600160a81b0319909216919091179055565b3390565b6001600160a01b038316610d7b5760405162461bcd60e51b81526004018080602001828103825260248152602001806114d56024913960400191505060405180910390fd5b6001600160a01b038216610dc05760405162461bcd60e51b81526004018080602001828103825260228152602001806113de6022913960400191505060405180910390fd5b6001600160a01b03808416600081815260016020908152604080832094871680845294825291829020859055815185815291517f8c5be1e5ebec7d5bd14f71427d1e84f3dd0314c0f7b2291e5b200ac8c7c3b9259281900390910190a3505050565b6001600160a01b038316610e675760405162461bcd60e51b81526004018080602001828103825260258152602001806114b06025913960400191505060405180910390fd5b6001600160a01b038216610eac5760405162461bcd60e51b81526004018080602001828103825260238152602001806113736023913960400191505060405180910390fd5b610eb7838383611261565b610ef481604051806060016040528060268152602001611400602691396001600160a01b0386166000908152602081905260409020549190610f7d565b6001600160a01b038085166000908152602081905260408082209390935590841681522054610f239082611014565b6001600160a01b038084166000818152602081815260409182902094909455805185815290519193928716927fddf252ad1be2c89b69c2b068fc378daa952ba7f163c4a11628f55a4df523b3ef92918290030190a3505050565b6000818484111561100c5760405162461bcd60e51b81526004018080602001828103825283818151815260200191508051906020019080838360005b83811015610fd1578181015183820152602001610fb9565b50505050905090810190601f168015610ffe5780820380516001836020036101000a031916815260200191505b509250505060405180910390fd5b505050900390565b60008282018381101561106e576040805162461bcd60e51b815260206004820152601b60248201527f536166654d6174683a206164646974696f6e206f766572666c6f770000000000604482015290519081900360640190fd5b9392505050565b6001600160a01b0382166110d0576040805162461bcd60e51b815260206004820152601f60248201527f45524332303a206d696e7420746f20746865207a65726f206164647265737300604482015290519081900360640190fd5b6110dc60008383611261565b6002546110e99082611014565b6002556001600160a01b03821660009081526020819052604090205461110f9082611014565b6001600160a01b0383166000818152602081815260408083209490945583518581529351929391927fddf252ad1be2c89b69c2b068fc378daa952ba7f163c4a11628f55a4df523b3ef9281900390910190a35050565b6001600160a01b0382166111aa5760405162461bcd60e51b815260040180806020018281038252602181526020018061148f6021913960400191505060405180910390fd5b6111b682600083611261565b6111f381604051806060016040528060228152602001611396602291396001600160a01b0385166000908152602081905260409020549190610f7d565b6001600160a01b0383166000908152602081905260409020556002546112199082611330565b6002556040805182815290516000916001600160a01b038516917fddf252ad1be2c89b69c2b068fc378daa952ba7f163c4a11628f55a4df523b3ef9181900360200190a35050565b61126c83838361132b565b6001600160a01b0382163014156112b45760405162461bcd60e51b815260040180806020018281038252602f8152602001806114f9602f913960400191505060405180910390fd5b6001600160a01b0383161580156112d45750600554600160a81b900460ff165b1561132b576006546112ee826112e861068d565b90611014565b111561132b5760405162461bcd60e51b815260040180806020018281038252602181526020018061146e6021913960400191505060405180910390fd5b505050565b600061106e83836040518060400160405280601e81526020017f536166654d6174683a207375627472616374696f6e206f766572666c6f770000815250610f7d56fe45524332303a207472616e7366657220746f20746865207a65726f206164647265737345524332303a206275726e20616d6f756e7420657863656564732062616c616e63654f776e61626c653a206e6577206f776e657220697320746865207a65726f206164647265737345524332303a20617070726f766520746f20746865207a65726f206164647265737345524332303a207472616e7366657220616d6f756e7420657863656564732062616c616e636545524332303a207472616e7366657220616d6f756e74206578636565647320616c6c6f77616e63654f776e61626c653a2063616c6c6572206973206e6f7420746865206f776e6572544341503a3a5472616e736665723a20544341502063617020657863656564656445524332303a206275726e2066726f6d20746865207a65726f206164647265737345524332303a207472616e736665722066726f6d20746865207a65726f206164647265737345524332303a20617070726f76652066726f6d20746865207a65726f2061646472657373544341503a3a7472616e736665723a2063616e2774207472616e7366657220746f205443415020636f6e7472616374544341503a3a6f6e6c795661756c743a2063616c6c6572206973206e6f742061207661756c7445524332303a2064656372656173656420616c6c6f77616e63652062656c6f77207a65726fa2646970667358221220ff3b35a47b4f2315813e3a34a2abc1ab6cbc59070d9c8cbc7917229d5fae631764736f6c634300070500334f776e61626c653a206e6577206f776e657220697320746865207a65726f20616464726573738be0079c531659141344cd1fd0a4f28419497f9722a3daafe3b4186f6b6457e0",
  "devdoc": {
    "author": "Cristian Espinoza",
    "kind": "dev",
    "methods": {
      "addVaultHandler(address)": {
        "details": "Only owner can call it",
        "params": {
          "_vaultHandler": "address of a contract with permissions to mint and burn tokens"
        }
      },
      "allowance(address,address)": {
        "details": "See {IERC20-allowance}."
      },
      "approve(address,uint256)": {
        "details": "See {IERC20-approve}. Requirements: - `spender` cannot be the zero address."
      },
      "balanceOf(address)": {
        "details": "See {IERC20-balanceOf}."
      },
      "burn(address,uint256)": {
        "details": "Only vault can call it",
        "params": {
          "_account": "address of the account which is burning tokens.",
          "_amount": "uint of tokens to burn"
        }
      },
      "constructor": {
        "params": {
          "_cap": "uint256",
          "_name": "uint256",
          "_orchestrator": "address",
          "_symbol": "uint256"
        }
      },
      "decimals()": {
        "details": "Returns the number of decimals used to get its user representation. For example, if `decimals` equals `2`, a balance of `505` tokens should be displayed to a user as `5,05` (`505 / 10 ** 2`). Tokens usually opt for a value of 18, imitating the relationship between Ether and Wei. This is the value {ERC20} uses, unless {_setupDecimals} is called. NOTE: This information is only used for _display_ purposes: it in no way affects any of the arithmetic of the contract, including {IERC20-balanceOf} and {IERC20-transfer}."
      },
      "decreaseAllowance(address,uint256)": {
        "details": "Atomically decreases the allowance granted to `spender` by the caller. This is an alternative to {approve} that can be used as a mitigation for problems described in {IERC20-approve}. Emits an {Approval} event indicating the updated allowance. Requirements: - `spender` cannot be the zero address. - `spender` must have allowance for the caller of at least `subtractedValue`."
      },
      "enableCap(bool)": {
        "details": "When capEnabled is true, minting will not be allowed above the max capacity. It can exist a supply above the cap, but it prevents minting above the cap.Only owner can call it",
        "params": {
          "_enable": "value"
        }
      },
      "increaseAllowance(address,uint256)": {
        "details": "Atomically increases the allowance granted to `spender` by the caller. This is an alternative to {approve} that can be used as a mitigation for problems described in {IERC20-approve}. Emits an {Approval} event indicating the updated allowance. Requirements: - `spender` cannot be the zero address."
      },
      "mint(address,uint256)": {
        "details": "Only vault can call it",
        "params": {
          "_account": "address of the receiver of tokens",
          "_amount": "uint of tokens to mint"
        }
      },
      "name()": {
        "details": "Returns the name of the token."
      },
      "owner()": {
        "details": "Returns the address of the current owner."
      },
      "removeVaultHandler(address)": {
        "details": "Only owner can call it",
        "params": {
          "_vaultHandler": "address of the contract to be removed as vault"
        }
      },
      "renounceOwnership()": {
        "details": "Leaves the contract without owner. It will not be possible to call `onlyOwner` functions anymore. Can only be called by the current owner. NOTE: Renouncing ownership will leave the contract without an owner, thereby removing any functionality that is only available to the owner."
      },
      "setCap(uint256)": {
        "details": "When capEnabled is true, mint is not allowed to issue tokens that would increase the total supply above or equal the specified capacity.Only owner can call it",
        "params": {
          "_cap": "value"
        }
      },
      "supportsInterface(bytes4)": {
        "params": {
          "_interfaceId": "bytes of interface"
        },
        "returns": {
          "_0": "bool"
        }
      },
      "symbol()": {
        "details": "Returns the symbol of the token, usually a shorter version of the name."
      },
      "totalSupply()": {
        "details": "See {IERC20-totalSupply}."
      },
      "transfer(address,uint256)": {
        "details": "See {IERC20-transfer}. Requirements: - `recipient` cannot be the zero address. - the caller must have a balance of at least `amount`."
      },
      "transferFrom(address,address,uint256)": {
        "details": "See {IERC20-transferFrom}. Emits an {Approval} event indicating the updated allowance. This is not required by the EIP. See the note at the beginning of {ERC20}. Requirements: - `sender` and `recipient` cannot be the zero address. - `sender` must have a balance of at least `amount`. - the caller must have allowance for ``sender``'s tokens of at least `amount`."
      },
      "transferOwnership(address)": {
        "details": "Transfers ownership of the contract to a new account (`newOwner`). Can only be called by the current owner."
      }
    },
    "stateVariables": {
      "_INTERFACE_ID_ERC165": {
        "details": "bytes4(keccak256('supportsInterface(bytes4)')) == 0x01ffc9a7"
      },
      "_INTERFACE_ID_TCAP": {
        "details": "the computed interface ID according to ERC-165. The interface ID is a XOR of interface method selectors. mint.selector ^ burn.selector ^ setCap.selector ^ enableCap.selector ^ transfer.selector ^ transferFrom.selector ^ addVaultHandler.selector ^ removeVaultHandler.selector ^ approve.selector => 0xa9ccee51"
      },
      "vaultHandlers": {
        "details": "Only vault handlers can mint and burn TCAP"
      }
    },
    "title": "Total Market Cap Token",
    "version": 1
  },
  "userdoc": {
    "events": {
      "NewCap(address,uint256)": {
        "notice": "An event emitted when the cap value is updated"
      },
      "NewCapEnabled(address,bool)": {
        "notice": "An event emitted when the cap is enabled or disabled"
      },
      "VaultHandlerAdded(address,address)": {
        "notice": "An event emitted when a vault handler is added"
      },
      "VaultHandlerRemoved(address,address)": {
        "notice": "An event emitted when a vault handler is removed"
      }
    },
    "kind": "user",
    "methods": {
      "addVaultHandler(address)": {
        "notice": "Adds a new address as a vault"
      },
      "burn(address,uint256)": {
        "notice": "Burns TCAP Tokens"
      },
      "cap()": {
        "notice": "Maximum value the total supply of TCAP"
      },
      "capEnabled()": {
        "notice": "if enabled TCAP can't be minted if the total supply is above or equal the cap value"
      },
      "constructor": {
        "notice": "Constructor"
      },
      "enableCap(bool)": {
        "notice": "Enables or Disables the Total Supply Cap."
      },
      "mint(address,uint256)": {
        "notice": "Mints TCAP Tokens"
      },
      "removeVaultHandler(address)": {
        "notice": "Removes an address as a vault"
      },
      "setCap(uint256)": {
        "notice": "Sets maximum value the total supply of TCAP can have"
      },
      "supportsInterface(bytes4)": {
        "notice": "ERC165 Standard for support of interfaces"
      },
      "vaultHandlers(address)": {
        "notice": "Address to Vault Handler"
      }
    },
    "notice": "ERC20 token on the Ethereum Blockchain that provides total exposure to the cryptocurrency sector.",
    "version": 1
  },
  "storageLayout": {
    "storage": [
      {
        "astId": 857,
        "contract": "contracts/TCAP.sol:TCAP",
        "label": "_balances",
        "offset": 0,
        "slot": "0",
        "type": "t_mapping(t_address,t_uint256)"
      },
      {
        "astId": 863,
        "contract": "contracts/TCAP.sol:TCAP",
        "label": "_allowances",
        "offset": 0,
        "slot": "1",
        "type": "t_mapping(t_address,t_mapping(t_address,t_uint256))"
      },
      {
        "astId": 865,
        "contract": "contracts/TCAP.sol:TCAP",
        "label": "_totalSupply",
        "offset": 0,
        "slot": "2",
        "type": "t_uint256"
      },
      {
        "astId": 867,
        "contract": "contracts/TCAP.sol:TCAP",
        "label": "_name",
        "offset": 0,
        "slot": "3",
        "type": "t_string_storage"
      },
      {
        "astId": 869,
        "contract": "contracts/TCAP.sol:TCAP",
        "label": "_symbol",
        "offset": 0,
        "slot": "4",
        "type": "t_string_storage"
      },
      {
        "astId": 871,
        "contract": "contracts/TCAP.sol:TCAP",
        "label": "_decimals",
        "offset": 0,
        "slot": "5",
        "type": "t_uint8"
      },
      {
        "astId": 359,
        "contract": "contracts/TCAP.sol:TCAP",
        "label": "_owner",
        "offset": 1,
        "slot": "5",
        "type": "t_address"
      },
      {
        "astId": 5912,
        "contract": "contracts/TCAP.sol:TCAP",
        "label": "capEnabled",
        "offset": 21,
        "slot": "5",
        "type": "t_bool"
      },
      {
        "astId": 5915,
        "contract": "contracts/TCAP.sol:TCAP",
        "label": "cap",
        "offset": 0,
        "slot": "6",
        "type": "t_uint256"
      },
      {
        "astId": 5920,
        "contract": "contracts/TCAP.sol:TCAP",
        "label": "vaultHandlers",
        "offset": 0,
        "slot": "7",
        "type": "t_mapping(t_address,t_bool)"
      }
    ],
    "types": {
      "t_address": {
        "encoding": "inplace",
        "label": "address",
        "numberOfBytes": "20"
      },
      "t_bool": {
        "encoding": "inplace",
        "label": "bool",
        "numberOfBytes": "1"
      },
      "t_mapping(t_address,t_bool)": {
        "encoding": "mapping",
        "key": "t_address",
        "label": "mapping(address => bool)",
        "numberOfBytes": "32",
        "value": "t_bool"
      },
      "t_mapping(t_address,t_mapping(t_address,t_uint256))": {
        "encoding": "mapping",
        "key": "t_address",
        "label": "mapping(address => mapping(address => uint256))",
        "numberOfBytes": "32",
        "value": "t_mapping(t_address,t_uint256)"
      },
      "t_mapping(t_address,t_uint256)": {
        "encoding": "mapping",
        "key": "t_address",
        "label": "mapping(address => uint256)",
        "numberOfBytes": "32",
        "value": "t_uint256"
      },
      "t_string_storage": {
        "encoding": "bytes",
        "label": "string",
        "numberOfBytes": "32"
      },
      "t_uint256": {
        "encoding": "inplace",
        "label": "uint256",
        "numberOfBytes": "32"
      },
      "t_uint8": {
        "encoding": "inplace",
        "label": "uint8",
        "numberOfBytes": "1"
      }
    }
  }
}