{
  "abi": [
    {
      "inputs": [
        {
          "internalType": "string",
          "name": "_name",
          "type": "string"
        },
        {
          "internalType": "string",
          "name": "_symbol",
          "type": "string"
        },
        {
          "internalType": "uint256",
          "name": "_cap",
          "type": "uint256"
        }
      ],
      "stateMutability": "nonpayable",
      "type": "constructor"
    },
    {
      "anonymous": false,
      "inputs": [
        {
          "indexed": true,
          "internalType": "address",
          "name": "owner",
          "type": "address"
        },
        {
          "indexed": true,
          "internalType": "address",
          "name": "spender",
          "type": "address"
        },
        {
          "indexed": false,
          "internalType": "uint256",
          "name": "value",
          "type": "uint256"
        }
      ],
      "name": "Approval",
      "type": "event"
    },
    {
      "anonymous": false,
      "inputs": [
        {
          "indexed": true,
          "internalType": "address",
          "name": "_owner",
          "type": "address"
        },
        {
          "indexed": false,
          "internalType": "address",
          "name": "_tokenHandler",
          "type": "address"
        }
      ],
      "name": "LogAddTokenHandler",
      "type": "event"
    },
    {
      "anonymous": false,
      "inputs": [
        {
          "indexed": true,
          "internalType": "address",
          "name": "_owner",
          "type": "address"
        },
        {
          "indexed": false,
          "internalType": "bool",
          "name": "_enable",
          "type": "bool"
        }
      ],
      "name": "LogEnableCap",
      "type": "event"
    },
    {
      "anonymous": false,
      "inputs": [
        {
          "indexed": true,
          "internalType": "address",
          "name": "_owner",
          "type": "address"
        },
        {
          "indexed": false,
          "internalType": "uint256",
          "name": "_amount",
          "type": "uint256"
        }
      ],
      "name": "LogSetCap",
      "type": "event"
    },
    {
      "anonymous": false,
      "inputs": [
        {
          "indexed": true,
          "internalType": "address",
          "name": "previousOwner",
          "type": "address"
        },
        {
          "indexed": true,
          "internalType": "address",
          "name": "newOwner",
          "type": "address"
        }
      ],
      "name": "OwnershipTransferred",
      "type": "event"
    },
    {
      "anonymous": false,
      "inputs": [
        {
          "indexed": true,
          "internalType": "address",
          "name": "from",
          "type": "address"
        },
        {
          "indexed": true,
          "internalType": "address",
          "name": "to",
          "type": "address"
        },
        {
          "indexed": false,
          "internalType": "uint256",
          "name": "value",
          "type": "uint256"
        }
      ],
      "name": "Transfer",
      "type": "event"
    },
    {
      "inputs": [
        {
          "internalType": "address",
          "name": "_handler",
          "type": "address"
        }
      ],
      "name": "addTokenHandler",
      "outputs": [],
      "stateMutability": "nonpayable",
      "type": "function"
    },
    {
      "inputs": [
        {
          "internalType": "address",
          "name": "owner",
          "type": "address"
        },
        {
          "internalType": "address",
          "name": "spender",
          "type": "address"
        }
      ],
      "name": "allowance",
      "outputs": [
        {
          "internalType": "uint256",
          "name": "",
          "type": "uint256"
        }
      ],
      "stateMutability": "view",
      "type": "function"
    },
    {
      "inputs": [
        {
          "internalType": "address",
          "name": "spender",
          "type": "address"
        },
        {
          "internalType": "uint256",
          "name": "amount",
          "type": "uint256"
        }
      ],
      "name": "approve",
      "outputs": [
        {
          "internalType": "bool",
          "name": "",
          "type": "bool"
        }
      ],
      "stateMutability": "nonpayable",
      "type": "function"
    },
    {
      "inputs": [
        {
          "internalType": "address",
          "name": "account",
          "type": "address"
        }
      ],
      "name": "balanceOf",
      "outputs": [
        {
          "internalType": "uint256",
          "name": "",
          "type": "uint256"
        }
      ],
      "stateMutability": "view",
      "type": "function"
    },
    {
      "inputs": [
        {
          "internalType": "address",
          "name": "_account",
          "type": "address"
        },
        {
          "internalType": "uint256",
          "name": "_amount",
          "type": "uint256"
        }
      ],
      "name": "burn",
      "outputs": [],
      "stateMutability": "nonpayable",
      "type": "function"
    },
    {
      "inputs": [],
      "name": "cap",
      "outputs": [
        {
          "internalType": "uint256",
          "name": "",
          "type": "uint256"
        }
      ],
      "stateMutability": "view",
      "type": "function"
    },
    {
      "inputs": [],
      "name": "capEnabled",
      "outputs": [
        {
          "internalType": "bool",
          "name": "",
          "type": "bool"
        }
      ],
      "stateMutability": "view",
      "type": "function"
    },
    {
      "inputs": [],
      "name": "decimals",
      "outputs": [
        {
          "internalType": "uint8",
          "name": "",
          "type": "uint8"
        }
      ],
      "stateMutability": "view",
      "type": "function"
    },
    {
      "inputs": [
        {
          "internalType": "address",
          "name": "spender",
          "type": "address"
        },
        {
          "internalType": "uint256",
          "name": "subtractedValue",
          "type": "uint256"
        }
      ],
      "name": "decreaseAllowance",
      "outputs": [
        {
          "internalType": "bool",
          "name": "",
          "type": "bool"
        }
      ],
      "stateMutability": "nonpayable",
      "type": "function"
    },
    {
      "inputs": [
        {
          "internalType": "bool",
          "name": "_enable",
          "type": "bool"
        }
      ],
      "name": "enableCap",
      "outputs": [],
      "stateMutability": "nonpayable",
      "type": "function"
    },
    {
      "inputs": [
        {
          "internalType": "address",
          "name": "spender",
          "type": "address"
        },
        {
          "internalType": "uint256",
          "name": "addedValue",
          "type": "uint256"
        }
      ],
      "name": "increaseAllowance",
      "outputs": [
        {
          "internalType": "bool",
          "name": "",
          "type": "bool"
        }
      ],
      "stateMutability": "nonpayable",
      "type": "function"
    },
    {
      "inputs": [
        {
          "internalType": "address",
          "name": "_account",
          "type": "address"
        },
        {
          "internalType": "uint256",
          "name": "_amount",
          "type": "uint256"
        }
      ],
      "name": "mint",
      "outputs": [],
      "stateMutability": "nonpayable",
      "type": "function"
    },
    {
      "inputs": [],
      "name": "name",
      "outputs": [
        {
          "internalType": "string",
          "name": "",
          "type": "string"
        }
      ],
      "stateMutability": "view",
      "type": "function"
    },
    {
      "inputs": [],
      "name": "owner",
      "outputs": [
        {
          "internalType": "address",
          "name": "",
          "type": "address"
        }
      ],
      "stateMutability": "view",
      "type": "function"
    },
    {
      "inputs": [],
      "name": "renounceOwnership",
      "outputs": [],
      "stateMutability": "nonpayable",
      "type": "function"
    },
    {
      "inputs": [
        {
          "internalType": "uint256",
          "name": "_cap",
          "type": "uint256"
        }
      ],
      "name": "setCap",
      "outputs": [],
      "stateMutability": "nonpayable",
      "type": "function"
    },
    {
      "inputs": [],
      "name": "symbol",
      "outputs": [
        {
          "internalType": "string",
          "name": "",
          "type": "string"
        }
      ],
      "stateMutability": "view",
      "type": "function"
    },
    {
      "inputs": [
        {
          "internalType": "address",
          "name": "",
          "type": "address"
        }
      ],
      "name": "tokenHandlers",
      "outputs": [
        {
          "internalType": "bool",
          "name": "",
          "type": "bool"
        }
      ],
      "stateMutability": "view",
      "type": "function"
    },
    {
      "inputs": [],
      "name": "totalSupply",
      "outputs": [
        {
          "internalType": "uint256",
          "name": "",
          "type": "uint256"
        }
      ],
      "stateMutability": "view",
      "type": "function"
    },
    {
      "inputs": [
        {
          "internalType": "address",
          "name": "recipient",
          "type": "address"
        },
        {
          "internalType": "uint256",
          "name": "amount",
          "type": "uint256"
        }
      ],
      "name": "transfer",
      "outputs": [
        {
          "internalType": "bool",
          "name": "",
          "type": "bool"
        }
      ],
      "stateMutability": "nonpayable",
      "type": "function"
    },
    {
      "inputs": [
        {
          "internalType": "address",
          "name": "sender",
          "type": "address"
        },
        {
          "internalType": "address",
          "name": "recipient",
          "type": "address"
        },
        {
          "internalType": "uint256",
          "name": "amount",
          "type": "uint256"
        }
      ],
      "name": "transferFrom",
      "outputs": [
        {
          "internalType": "bool",
          "name": "",
          "type": "bool"
        }
      ],
      "stateMutability": "nonpayable",
      "type": "function"
    },
    {
      "inputs": [
        {
          "internalType": "address",
          "name": "newOwner",
          "type": "address"
        }
      ],
      "name": "transferOwnership",
      "outputs": [],
      "stateMutability": "nonpayable",
      "type": "function"
    }
  ],
  "address": "0xb488c7C83694f67DDc58ab3e742625a83eA9c1EB",
  "args": [
    "TCAPX Token",
    "TCAPX ",
    "18"
  ],
  "bytecode": "0x60806040526007805460ff191690553480156200001b57600080fd5b506040516200172538038062001725833981810160405260608110156200004157600080fd5b81019080805160405193929190846401000000008211156200006257600080fd5b9083019060208201858111156200007857600080fd5b82516401000000008111828201881017156200009357600080fd5b82525081516020918201929091019080838360005b83811015620000c2578181015183820152602001620000a8565b50505050905090810190601f168015620000f05780820380516001836020036101000a031916815260200191505b50604052602001805160405193929190846401000000008211156200011457600080fd5b9083019060208201858111156200012a57600080fd5b82516401000000008111828201881017156200014557600080fd5b82525081516020918201929091019080838360005b83811015620001745781810151838201526020016200015a565b50505050905090810190601f168015620001a25780820380516001836020036101000a031916815260200191505b5060405260209081015185519093508592508491620001c79160039185019062000269565b508051620001dd90600490602084019062000269565b50506005805460ff19166012179055506000620002026001600160e01b036200026416565b60058054610100600160a81b0319166101006001600160a01b03841690810291909117909155604051919250906000907f8be0079c531659141344cd1fd0a4f28419497f9722a3daafe3b4186f6b6457e0908290a350600655506200030b9050565b335b90565b828054600181600116156101000203166002900490600052602060002090601f016020900481019282601f10620002ac57805160ff1916838001178555620002dc565b82800160010185558215620002dc579182015b82811115620002dc578251825591602001919060010190620002bf565b50620002ea929150620002ee565b5090565b6200026691905b80821115620002ea5760008155600101620002f5565b61140a806200031b6000396000f3fe608060405234801561001057600080fd5b50600436106101425760003560e01c8063715018a6116100b8578063a457c2d71161007c578063a457c2d7146103bc578063a9059cbb146103e8578063c4ec3b1914610414578063ca8590e71461041c578063dd62ed3e14610442578063f2fde38b1461047057610142565b8063715018a61461033d5780638da5cb5b1461034557806395d89b4114610369578063979f5f28146103715780639dc29fac1461039057610142565b8063313ce5671161010a578063313ce5671461027c578063355274ea1461029a57806339509351146102a257806340c10f19146102ce57806347786d37146102fa57806370a082311461031757610142565b806306fdde0314610147578063095ea7b3146101c457806318160ddd1461020457806323b872dd1461021e57806327cb052e14610254575b600080fd5b61014f610496565b6040805160208082528351818301528351919283929083019185019080838360005b83811015610189578181015183820152602001610171565b50505050905090810190601f1680156101b65780820380516001836020036101000a031916815260200191505b509250505060405180910390f35b6101f0600480360360408110156101da57600080fd5b506001600160a01b03813516906020013561052c565b604080519115158252519081900360200190f35b61020c610549565b60408051918252519081900360200190f35b6101f06004803603606081101561023457600080fd5b506001600160a01b0381358116916020810135909116906040013561054f565b61027a6004803603602081101561026a57600080fd5b50356001600160a01b03166105dc565b005b610284610695565b6040805160ff9092168252519081900360200190f35b61020c61069e565b6101f0600480360360408110156102b857600080fd5b506001600160a01b0381351690602001356106a4565b61027a600480360360408110156102e457600080fd5b506001600160a01b0381351690602001356106f8565b61027a6004803603602081101561031057600080fd5b5035610766565b61020c6004803603602081101561032d57600080fd5b50356001600160a01b0316610801565b61027a61081c565b61034d6108c9565b604080516001600160a01b039092168252519081900360200190f35b61014f6108dd565b61027a6004803603602081101561038757600080fd5b5035151561093e565b61027a600480360360408110156103a657600080fd5b506001600160a01b0381351690602001356109e5565b6101f0600480360360408110156103d257600080fd5b506001600160a01b038135169060200135610a4f565b6101f0600480360360408110156103fe57600080fd5b506001600160a01b038135169060200135610abd565b6101f0610ad1565b6101f06004803603602081101561043257600080fd5b50356001600160a01b0316610ada565b61020c6004803603604081101561045857600080fd5b506001600160a01b0381358116916020013516610aef565b61027a6004803603602081101561048657600080fd5b50356001600160a01b0316610b1a565b60038054604080516020601f60026000196101006001881615020190951694909404938401819004810282018101909252828152606093909290918301828280156105225780601f106104f757610100808354040283529160200191610522565b820191906000526020600020905b81548152906001019060200180831161050557829003601f168201915b5050505050905090565b6000610540610539610c23565b8484610c27565b50600192915050565b60025490565b600061055c848484610d13565b6105d284610568610c23565b6105cd856040518060600160405280602881526020016112fe602891396001600160a01b038a166000908152600160205260408120906105a6610c23565b6001600160a01b03168152602081019190915260400160002054919063ffffffff610e7a16565b610c27565b5060019392505050565b6105e4610c23565b60055461010090046001600160a01b03908116911614610639576040805162461bcd60e51b81526020600482018190526024820152600080516020611326833981519152604482015290519081900360640190fd5b6001600160a01b038116600081815260086020908152604091829020805460ff191660011790558151928352905133927f7241d95f6e078069719af3a2a29a17d399b31ada14d3b33c31941f716cc7dc9e92908290030190a250565b60055460ff1690565b60065481565b60006105406106b1610c23565b846105cd85600160006106c2610c23565b6001600160a01b03908116825260208083019390935260409182016000908120918c16815292529020549063ffffffff610f1116565b3360009081526008602052604090205460ff16610758576040805162461bcd60e51b815260206004820152601960248201527821b0b63632b91034b9903737ba103a3432903430b7323632b960391b604482015290519081900360640190fd5b6107628282610f72565b5050565b61076e610c23565b60055461010090046001600160a01b039081169116146107c3576040805162461bcd60e51b81526020600482018190526024820152600080516020611326833981519152604482015290519081900360640190fd5b600681905560408051828152905133917ff0b02989bf1fc090f06a2f92f2db75c1cc81aa35927110179aa3d59899e116b3919081900360200190a250565b6001600160a01b031660009081526020819052604090205490565b610824610c23565b60055461010090046001600160a01b03908116911614610879576040805162461bcd60e51b81526020600482018190526024820152600080516020611326833981519152604482015290519081900360640190fd5b60055460405160009161010090046001600160a01b0316907f8be0079c531659141344cd1fd0a4f28419497f9722a3daafe3b4186f6b6457e0908390a360058054610100600160a81b0319169055565b60055461010090046001600160a01b031690565b60048054604080516020601f60026000196101006001881615020190951694909404938401819004810282018101909252828152606093909290918301828280156105225780601f106104f757610100808354040283529160200191610522565b610946610c23565b60055461010090046001600160a01b0390811691161461099b576040805162461bcd60e51b81526020600482018190526024820152600080516020611326833981519152604482015290519081900360640190fd5b6007805482151560ff199091168117909155604080519182525133917f4ded186c2c037fee0a0d0e68481aaba00462591ce5f9994ce98ccb58ad06d052919081900360200190a250565b3360009081526008602052604090205460ff16610a45576040805162461bcd60e51b815260206004820152601960248201527821b0b63632b91034b9903737ba103a3432903430b7323632b960391b604482015290519081900360640190fd5b610762828261106e565b6000610540610a5c610c23565b846105cd856040518060600160405280602581526020016113b06025913960016000610a86610c23565b6001600160a01b03908116825260208083019390935260409182016000908120918d1681529252902054919063ffffffff610e7a16565b6000610540610aca610c23565b8484610d13565b60075460ff1681565b60086020526000908152604090205460ff1681565b6001600160a01b03918216600090815260016020908152604080832093909416825291909152205490565b610b22610c23565b60055461010090046001600160a01b03908116911614610b77576040805162461bcd60e51b81526020600482018190526024820152600080516020611326833981519152604482015290519081900360640190fd5b6001600160a01b038116610bbc5760405162461bcd60e51b81526004018080602001828103825260268152602001806112906026913960400191505060405180910390fd5b6005546040516001600160a01b0380841692610100900416907f8be0079c531659141344cd1fd0a4f28419497f9722a3daafe3b4186f6b6457e090600090a3600580546001600160a01b0390921661010002610100600160a81b0319909216919091179055565b3390565b6001600160a01b038316610c6c5760405162461bcd60e51b815260040180806020018281038252602481526020018061138c6024913960400191505060405180910390fd5b6001600160a01b038216610cb15760405162461bcd60e51b81526004018080602001828103825260228152602001806112b66022913960400191505060405180910390fd5b6001600160a01b03808416600081815260016020908152604080832094871680845294825291829020859055815185815291517f8c5be1e5ebec7d5bd14f71427d1e84f3dd0314c0f7b2291e5b200ac8c7c3b9259281900390910190a3505050565b6001600160a01b038316610d585760405162461bcd60e51b81526004018080602001828103825260258152602001806113676025913960400191505060405180910390fd5b6001600160a01b038216610d9d5760405162461bcd60e51b815260040180806020018281038252602381526020018061124b6023913960400191505060405180910390fd5b610da8838383611176565b610deb816040518060600160405280602681526020016112d8602691396001600160a01b038616600090815260208190526040902054919063ffffffff610e7a16565b6001600160a01b038085166000908152602081905260408082209390935590841681522054610e20908263ffffffff610f1116565b6001600160a01b038084166000818152602081815260409182902094909455805185815290519193928716927fddf252ad1be2c89b69c2b068fc378daa952ba7f163c4a11628f55a4df523b3ef92918290030190a3505050565b60008184841115610f095760405162461bcd60e51b81526004018080602001828103825283818151815260200191508051906020019080838360005b83811015610ece578181015183820152602001610eb6565b50505050905090810190601f168015610efb5780820380516001836020036101000a031916815260200191505b509250505060405180910390fd5b505050900390565b600082820183811015610f6b576040805162461bcd60e51b815260206004820152601b60248201527f536166654d6174683a206164646974696f6e206f766572666c6f770000000000604482015290519081900360640190fd5b9392505050565b6001600160a01b038216610fcd576040805162461bcd60e51b815260206004820152601f60248201527f45524332303a206d696e7420746f20746865207a65726f206164647265737300604482015290519081900360640190fd5b610fd960008383611176565b600254610fec908263ffffffff610f1116565b6002556001600160a01b038216600090815260208190526040902054611018908263ffffffff610f1116565b6001600160a01b0383166000818152602081815260408083209490945583518581529351929391927fddf252ad1be2c89b69c2b068fc378daa952ba7f163c4a11628f55a4df523b3ef9281900390910190a35050565b6001600160a01b0382166110b35760405162461bcd60e51b81526004018080602001828103825260218152602001806113466021913960400191505060405180910390fd5b6110bf82600083611176565b6111028160405180606001604052806022815260200161126e602291396001600160a01b038516600090815260208190526040902054919063ffffffff610e7a16565b6001600160a01b03831660009081526020819052604090205560025461112e908263ffffffff61120816565b6002556040805182815290516000916001600160a01b038516917fddf252ad1be2c89b69c2b068fc378daa952ba7f163c4a11628f55a4df523b3ef9181900360200190a35050565b611181838383611203565b6001600160a01b03831615801561119a575060075460ff165b15611203576006546111ba826111ae610549565b9063ffffffff610f1116565b1115611203576040805162461bcd60e51b8152602060048201526013602482015272115490cc8c0e8818d85c08195e18d959591959606a1b604482015290519081900360640190fd5b505050565b6000610f6b83836040518060400160405280601e81526020017f536166654d6174683a207375627472616374696f6e206f766572666c6f770000815250610e7a56fe45524332303a207472616e7366657220746f20746865207a65726f206164647265737345524332303a206275726e20616d6f756e7420657863656564732062616c616e63654f776e61626c653a206e6577206f776e657220697320746865207a65726f206164647265737345524332303a20617070726f766520746f20746865207a65726f206164647265737345524332303a207472616e7366657220616d6f756e7420657863656564732062616c616e636545524332303a207472616e7366657220616d6f756e74206578636565647320616c6c6f77616e63654f776e61626c653a2063616c6c6572206973206e6f7420746865206f776e657245524332303a206275726e2066726f6d20746865207a65726f206164647265737345524332303a207472616e736665722066726f6d20746865207a65726f206164647265737345524332303a20617070726f76652066726f6d20746865207a65726f206164647265737345524332303a2064656372656173656420616c6c6f77616e63652062656c6f77207a65726fa26469706673582212207b7a41b1e1c2fa775fcb118b4004689be5833fc810f1f7648e3424b89ef0242b64736f6c63430006080033"
}