{
  "abi": [
    {
      "inputs": [
        {
          "internalType": "string",
          "name": "_name",
          "type": "string"
        },
        {
          "internalType": "string",
          "name": "_symbol",
          "type": "string"
        },
        {
          "internalType": "uint256",
          "name": "_cap",
          "type": "uint256"
        },
        {
          "internalType": "contract Orchestrator",
          "name": "_orchestrator",
          "type": "address"
        }
      ],
      "stateMutability": "nonpayable",
      "type": "constructor"
    },
    {
      "anonymous": false,
      "inputs": [
        {
          "indexed": true,
          "internalType": "address",
          "name": "owner",
          "type": "address"
        },
        {
          "indexed": true,
          "internalType": "address",
          "name": "spender",
          "type": "address"
        },
        {
          "indexed": false,
          "internalType": "uint256",
          "name": "value",
          "type": "uint256"
        }
      ],
      "name": "Approval",
      "type": "event"
    },
    {
      "anonymous": false,
      "inputs": [
        {
          "indexed": true,
          "internalType": "address",
          "name": "_owner",
          "type": "address"
        },
        {
          "indexed": false,
          "internalType": "address",
          "name": "_tokenHandler",
          "type": "address"
        }
      ],
      "name": "LogAddTokenHandler",
      "type": "event"
    },
    {
      "anonymous": false,
      "inputs": [
        {
          "indexed": true,
          "internalType": "address",
          "name": "_owner",
          "type": "address"
        },
        {
          "indexed": false,
          "internalType": "bool",
          "name": "_enable",
          "type": "bool"
        }
      ],
      "name": "LogEnableCap",
      "type": "event"
    },
    {
      "anonymous": false,
      "inputs": [
        {
          "indexed": true,
          "internalType": "address",
          "name": "_owner",
          "type": "address"
        },
        {
          "indexed": false,
          "internalType": "uint256",
          "name": "_amount",
          "type": "uint256"
        }
      ],
      "name": "LogSetCap",
      "type": "event"
    },
    {
      "anonymous": false,
      "inputs": [
        {
          "indexed": true,
          "internalType": "address",
          "name": "previousOwner",
          "type": "address"
        },
        {
          "indexed": true,
          "internalType": "address",
          "name": "newOwner",
          "type": "address"
        }
      ],
      "name": "OwnershipTransferred",
      "type": "event"
    },
    {
      "anonymous": false,
      "inputs": [
        {
          "indexed": true,
          "internalType": "address",
          "name": "from",
          "type": "address"
        },
        {
          "indexed": true,
          "internalType": "address",
          "name": "to",
          "type": "address"
        },
        {
          "indexed": false,
          "internalType": "uint256",
          "name": "value",
          "type": "uint256"
        }
      ],
      "name": "Transfer",
      "type": "event"
    },
    {
      "inputs": [
        {
          "internalType": "address",
          "name": "_handler",
          "type": "address"
        }
      ],
      "name": "addTokenHandler",
      "outputs": [],
      "stateMutability": "nonpayable",
      "type": "function"
    },
    {
      "inputs": [
        {
          "internalType": "address",
          "name": "owner",
          "type": "address"
        },
        {
          "internalType": "address",
          "name": "spender",
          "type": "address"
        }
      ],
      "name": "allowance",
      "outputs": [
        {
          "internalType": "uint256",
          "name": "",
          "type": "uint256"
        }
      ],
      "stateMutability": "view",
      "type": "function"
    },
    {
      "inputs": [
        {
          "internalType": "address",
          "name": "spender",
          "type": "address"
        },
        {
          "internalType": "uint256",
          "name": "amount",
          "type": "uint256"
        }
      ],
      "name": "approve",
      "outputs": [
        {
          "internalType": "bool",
          "name": "",
          "type": "bool"
        }
      ],
      "stateMutability": "nonpayable",
      "type": "function"
    },
    {
      "inputs": [
        {
          "internalType": "address",
          "name": "account",
          "type": "address"
        }
      ],
      "name": "balanceOf",
      "outputs": [
        {
          "internalType": "uint256",
          "name": "",
          "type": "uint256"
        }
      ],
      "stateMutability": "view",
      "type": "function"
    },
    {
      "inputs": [
        {
          "internalType": "address",
          "name": "_account",
          "type": "address"
        },
        {
          "internalType": "uint256",
          "name": "_amount",
          "type": "uint256"
        }
      ],
      "name": "burn",
      "outputs": [],
      "stateMutability": "nonpayable",
      "type": "function"
    },
    {
      "inputs": [],
      "name": "cap",
      "outputs": [
        {
          "internalType": "uint256",
          "name": "",
          "type": "uint256"
        }
      ],
      "stateMutability": "view",
      "type": "function"
    },
    {
      "inputs": [],
      "name": "capEnabled",
      "outputs": [
        {
          "internalType": "bool",
          "name": "",
          "type": "bool"
        }
      ],
      "stateMutability": "view",
      "type": "function"
    },
    {
      "inputs": [],
      "name": "decimals",
      "outputs": [
        {
          "internalType": "uint8",
          "name": "",
          "type": "uint8"
        }
      ],
      "stateMutability": "view",
      "type": "function"
    },
    {
      "inputs": [
        {
          "internalType": "address",
          "name": "spender",
          "type": "address"
        },
        {
          "internalType": "uint256",
          "name": "subtractedValue",
          "type": "uint256"
        }
      ],
      "name": "decreaseAllowance",
      "outputs": [
        {
          "internalType": "bool",
          "name": "",
          "type": "bool"
        }
      ],
      "stateMutability": "nonpayable",
      "type": "function"
    },
    {
      "inputs": [
        {
          "internalType": "bool",
          "name": "_enable",
          "type": "bool"
        }
      ],
      "name": "enableCap",
      "outputs": [],
      "stateMutability": "nonpayable",
      "type": "function"
    },
    {
      "inputs": [
        {
          "internalType": "address",
          "name": "spender",
          "type": "address"
        },
        {
          "internalType": "uint256",
          "name": "addedValue",
          "type": "uint256"
        }
      ],
      "name": "increaseAllowance",
      "outputs": [
        {
          "internalType": "bool",
          "name": "",
          "type": "bool"
        }
      ],
      "stateMutability": "nonpayable",
      "type": "function"
    },
    {
      "inputs": [
        {
          "internalType": "address",
          "name": "_account",
          "type": "address"
        },
        {
          "internalType": "uint256",
          "name": "_amount",
          "type": "uint256"
        }
      ],
      "name": "mint",
      "outputs": [],
      "stateMutability": "nonpayable",
      "type": "function"
    },
    {
      "inputs": [],
      "name": "name",
      "outputs": [
        {
          "internalType": "string",
          "name": "",
          "type": "string"
        }
      ],
      "stateMutability": "view",
      "type": "function"
    },
    {
      "inputs": [],
      "name": "owner",
      "outputs": [
        {
          "internalType": "address",
          "name": "",
          "type": "address"
        }
      ],
      "stateMutability": "view",
      "type": "function"
    },
    {
      "inputs": [],
      "name": "renounceOwnership",
      "outputs": [],
      "stateMutability": "nonpayable",
      "type": "function"
    },
    {
      "inputs": [
        {
          "internalType": "uint256",
          "name": "_cap",
          "type": "uint256"
        }
      ],
      "name": "setCap",
      "outputs": [],
      "stateMutability": "nonpayable",
      "type": "function"
    },
    {
      "inputs": [
        {
          "internalType": "bytes4",
          "name": "interfaceId",
          "type": "bytes4"
        }
      ],
      "name": "supportsInterface",
      "outputs": [
        {
          "internalType": "bool",
          "name": "",
          "type": "bool"
        }
      ],
      "stateMutability": "view",
      "type": "function"
    },
    {
      "inputs": [],
      "name": "symbol",
      "outputs": [
        {
          "internalType": "string",
          "name": "",
          "type": "string"
        }
      ],
      "stateMutability": "view",
      "type": "function"
    },
    {
      "inputs": [
        {
          "internalType": "address",
          "name": "",
          "type": "address"
        }
      ],
      "name": "tokenHandlers",
      "outputs": [
        {
          "internalType": "bool",
          "name": "",
          "type": "bool"
        }
      ],
      "stateMutability": "view",
      "type": "function"
    },
    {
      "inputs": [],
      "name": "totalSupply",
      "outputs": [
        {
          "internalType": "uint256",
          "name": "",
          "type": "uint256"
        }
      ],
      "stateMutability": "view",
      "type": "function"
    },
    {
      "inputs": [
        {
          "internalType": "address",
          "name": "recipient",
          "type": "address"
        },
        {
          "internalType": "uint256",
          "name": "amount",
          "type": "uint256"
        }
      ],
      "name": "transfer",
      "outputs": [
        {
          "internalType": "bool",
          "name": "",
          "type": "bool"
        }
      ],
      "stateMutability": "nonpayable",
      "type": "function"
    },
    {
      "inputs": [
        {
          "internalType": "address",
          "name": "sender",
          "type": "address"
        },
        {
          "internalType": "address",
          "name": "recipient",
          "type": "address"
        },
        {
          "internalType": "uint256",
          "name": "amount",
          "type": "uint256"
        }
      ],
      "name": "transferFrom",
      "outputs": [
        {
          "internalType": "bool",
          "name": "",
          "type": "bool"
        }
      ],
      "stateMutability": "nonpayable",
      "type": "function"
    },
    {
      "inputs": [
        {
          "internalType": "address",
          "name": "newOwner",
          "type": "address"
        }
      ],
      "name": "transferOwnership",
      "outputs": [],
      "stateMutability": "nonpayable",
      "type": "function"
    }
  ],
  "address": "0x8AAcBf2a351Fc0c95f3Ed5dD8426f4C4DCc02FC6",
  "args": [
    "Code - Insiders",
    "TCAP",
    "18",
    "0x589461339aF187D98Df29042B866bcb922799844"
  ],
  "solcInputHash": "0x1ee89c808e69d10593f6a05f86f58297bb2a2c0590398db98c083e0dd5c7ab55",
  "bytecode": "0x60806040526007805460ff191690553480156200001b57600080fd5b506040516200195838038062001958833981810160405260808110156200004157600080fd5b81019080805160405193929190846401000000008211156200006257600080fd5b9083019060208201858111156200007857600080fd5b82516401000000008111828201881017156200009357600080fd5b82525081516020918201929091019080838360005b83811015620000c2578181015183820152602001620000a8565b50505050905090810190601f168015620000f05780820380516001836020036101000a031916815260200191505b50604052602001805160405193929190846401000000008211156200011457600080fd5b9083019060208201858111156200012a57600080fd5b82516401000000008111828201881017156200014557600080fd5b82525081516020918201929091019080838360005b83811015620001745781810151838201526020016200015a565b50505050905090810190601f168015620001a25780820380516001836020036101000a031916815260200191505b50604090815260208281015192909101518651929450925085918591620001cf916003918501906200038f565b508051620001e59060049060208401906200038f565b50506005805460ff191660121790555060006200020a6001600160e01b036200027216565b60058054610100600160a81b0319166101006001600160a01b038416908102919091179091556040519192509060009060008051602062001938833981519152908290a350600682905562000268816001600160e01b036200027716565b5050505062000431565b335b90565b6200028a6001600160e01b036200027216565b60055461010090046001600160a01b03908116911614620002f2576040805162461bcd60e51b815260206004820181905260248201527f4f776e61626c653a2063616c6c6572206973206e6f7420746865206f776e6572604482015290519081900360640190fd5b6001600160a01b038116620003395760405162461bcd60e51b8152600401808060200182810382526026815260200180620019126026913960400191505060405180910390fd5b6005546040516001600160a01b0380841692610100900416906000805160206200193883398151915290600090a3600580546001600160a01b0390921661010002610100600160a81b0319909216919091179055565b828054600181600116156101000203166002900490600052602060002090601f016020900481019282601f10620003d257805160ff191683800117855562000402565b8280016001018555821562000402579182015b8281111562000402578251825591602001919060010190620003e5565b506200041092915062000414565b5090565b6200027491905b808211156200041057600081556001016200041b565b6114d180620004416000396000f3fe608060405234801561001057600080fd5b506004361061014d5760003560e01c806370a08231116100c3578063a457c2d71161007c578063a457c2d7146103ee578063a9059cbb1461041a578063c4ec3b1914610446578063ca8590e71461044e578063dd62ed3e14610474578063f2fde38b146104a25761014d565b806370a0823114610349578063715018a61461036f5780638da5cb5b1461037757806395d89b411461039b578063979f5f28146103a35780639dc29fac146103c25761014d565b806327cb052e1161011557806327cb052e14610286578063313ce567146102ae578063355274ea146102cc57806339509351146102d457806340c10f191461030057806347786d371461032c5761014d565b806301ffc9a71461015257806306fdde031461018d578063095ea7b31461020a57806318160ddd1461023657806323b872dd14610250575b600080fd5b6101796004803603602081101561016857600080fd5b50356001600160e01b0319166104c8565b604080519115158252519081900360200190f35b6101956104ff565b6040805160208082528351818301528351919283929083019185019080838360005b838110156101cf5781810151838201526020016101b7565b50505050905090810190601f1680156101fc5780820380516001836020036101000a031916815260200191505b509250505060405180910390f35b6101796004803603604081101561022057600080fd5b506001600160a01b038135169060200135610595565b61023e6105b2565b60408051918252519081900360200190f35b6101796004803603606081101561026657600080fd5b506001600160a01b038135811691602081013590911690604001356105b8565b6102ac6004803603602081101561029c57600080fd5b50356001600160a01b0316610645565b005b6102b66106fe565b6040805160ff9092168252519081900360200190f35b61023e610707565b610179600480360360408110156102ea57600080fd5b506001600160a01b03813516906020013561070d565b6102ac6004803603604081101561031657600080fd5b506001600160a01b038135169060200135610761565b6102ac6004803603602081101561034257600080fd5b50356107cf565b61023e6004803603602081101561035f57600080fd5b50356001600160a01b031661086a565b6102ac610885565b61037f610932565b604080516001600160a01b039092168252519081900360200190f35b610195610946565b6102ac600480360360208110156103b957600080fd5b503515156109a7565b6102ac600480360360408110156103d857600080fd5b506001600160a01b038135169060200135610a4e565b6101796004803603604081101561040457600080fd5b506001600160a01b038135169060200135610ab8565b6101796004803603604081101561043057600080fd5b506001600160a01b038135169060200135610b26565b610179610b3a565b6101796004803603602081101561046457600080fd5b50356001600160a01b0316610b43565b61023e6004803603604081101561048a57600080fd5b506001600160a01b0381358116916020013516610b58565b6102ac600480360360208110156104b857600080fd5b50356001600160a01b0316610b83565b60006001600160e01b0319821663a9ccee5160e01b14806104f957506001600160e01b031982166301ffc9a760e01b145b92915050565b60038054604080516020601f600260001961010060018816150201909516949094049384018190048102820181019092528281526060939092909183018282801561058b5780601f106105605761010080835404028352916020019161058b565b820191906000526020600020905b81548152906001019060200180831161056e57829003601f168201915b5050505050905090565b60006105a96105a2610c8c565b8484610c90565b50600192915050565b60025490565b60006105c5848484610d7c565b61063b846105d1610c8c565b610636856040518060600160405280602881526020016113c5602891396001600160a01b038a1660009081526001602052604081209061060f610c8c565b6001600160a01b03168152602081019190915260400160002054919063ffffffff610ee316565b610c90565b5060019392505050565b61064d610c8c565b60055461010090046001600160a01b039081169116146106a2576040805162461bcd60e51b815260206004820181905260248201526000805160206113ed833981519152604482015290519081900360640190fd5b6001600160a01b038116600081815260086020908152604091829020805460ff191660011790558151928352905133927f7241d95f6e078069719af3a2a29a17d399b31ada14d3b33c31941f716cc7dc9e92908290030190a250565b60055460ff1690565b60065481565b60006105a961071a610c8c565b84610636856001600061072b610c8c565b6001600160a01b03908116825260208083019390935260409182016000908120918c16815292529020549063ffffffff610f7a16565b3360009081526008602052604090205460ff166107c1576040805162461bcd60e51b815260206004820152601960248201527821b0b63632b91034b9903737ba103a3432903430b7323632b960391b604482015290519081900360640190fd5b6107cb8282610fdb565b5050565b6107d7610c8c565b60055461010090046001600160a01b0390811691161461082c576040805162461bcd60e51b815260206004820181905260248201526000805160206113ed833981519152604482015290519081900360640190fd5b600681905560408051828152905133917ff0b02989bf1fc090f06a2f92f2db75c1cc81aa35927110179aa3d59899e116b3919081900360200190a250565b6001600160a01b031660009081526020819052604090205490565b61088d610c8c565b60055461010090046001600160a01b039081169116146108e2576040805162461bcd60e51b815260206004820181905260248201526000805160206113ed833981519152604482015290519081900360640190fd5b60055460405160009161010090046001600160a01b0316907f8be0079c531659141344cd1fd0a4f28419497f9722a3daafe3b4186f6b6457e0908390a360058054610100600160a81b0319169055565b60055461010090046001600160a01b031690565b60048054604080516020601f600260001961010060018816150201909516949094049384018190048102820181019092528281526060939092909183018282801561058b5780601f106105605761010080835404028352916020019161058b565b6109af610c8c565b60055461010090046001600160a01b03908116911614610a04576040805162461bcd60e51b815260206004820181905260248201526000805160206113ed833981519152604482015290519081900360640190fd5b6007805482151560ff199091168117909155604080519182525133917f4ded186c2c037fee0a0d0e68481aaba00462591ce5f9994ce98ccb58ad06d052919081900360200190a250565b3360009081526008602052604090205460ff16610aae576040805162461bcd60e51b815260206004820152601960248201527821b0b63632b91034b9903737ba103a3432903430b7323632b960391b604482015290519081900360640190fd5b6107cb82826110d7565b60006105a9610ac5610c8c565b84610636856040518060600160405280602581526020016114776025913960016000610aef610c8c565b6001600160a01b03908116825260208083019390935260409182016000908120918d1681529252902054919063ffffffff610ee316565b60006105a9610b33610c8c565b8484610d7c565b60075460ff1681565b60086020526000908152604090205460ff1681565b6001600160a01b03918216600090815260016020908152604080832093909416825291909152205490565b610b8b610c8c565b60055461010090046001600160a01b03908116911614610be0576040805162461bcd60e51b815260206004820181905260248201526000805160206113ed833981519152604482015290519081900360640190fd5b6001600160a01b038116610c255760405162461bcd60e51b81526004018080602001828103825260268152602001806113576026913960400191505060405180910390fd5b6005546040516001600160a01b0380841692610100900416907f8be0079c531659141344cd1fd0a4f28419497f9722a3daafe3b4186f6b6457e090600090a3600580546001600160a01b0390921661010002610100600160a81b0319909216919091179055565b3390565b6001600160a01b038316610cd55760405162461bcd60e51b81526004018080602001828103825260248152602001806114536024913960400191505060405180910390fd5b6001600160a01b038216610d1a5760405162461bcd60e51b815260040180806020018281038252602281526020018061137d6022913960400191505060405180910390fd5b6001600160a01b03808416600081815260016020908152604080832094871680845294825291829020859055815185815291517f8c5be1e5ebec7d5bd14f71427d1e84f3dd0314c0f7b2291e5b200ac8c7c3b9259281900390910190a3505050565b6001600160a01b038316610dc15760405162461bcd60e51b815260040180806020018281038252602581526020018061142e6025913960400191505060405180910390fd5b6001600160a01b038216610e065760405162461bcd60e51b81526004018080602001828103825260238152602001806113126023913960400191505060405180910390fd5b610e118383836111df565b610e548160405180606001604052806026815260200161139f602691396001600160a01b038616600090815260208190526040902054919063ffffffff610ee316565b6001600160a01b038085166000908152602081905260408082209390935590841681522054610e89908263ffffffff610f7a16565b6001600160a01b038084166000818152602081815260409182902094909455805185815290519193928716927fddf252ad1be2c89b69c2b068fc378daa952ba7f163c4a11628f55a4df523b3ef92918290030190a3505050565b60008184841115610f725760405162461bcd60e51b81526004018080602001828103825283818151815260200191508051906020019080838360005b83811015610f37578181015183820152602001610f1f565b50505050905090810190601f168015610f645780820380516001836020036101000a031916815260200191505b509250505060405180910390fd5b505050900390565b600082820183811015610fd4576040805162461bcd60e51b815260206004820152601b60248201527f536166654d6174683a206164646974696f6e206f766572666c6f770000000000604482015290519081900360640190fd5b9392505050565b6001600160a01b038216611036576040805162461bcd60e51b815260206004820152601f60248201527f45524332303a206d696e7420746f20746865207a65726f206164647265737300604482015290519081900360640190fd5b611042600083836111df565b600254611055908263ffffffff610f7a16565b6002556001600160a01b038216600090815260208190526040902054611081908263ffffffff610f7a16565b6001600160a01b0383166000818152602081815260408083209490945583518581529351929391927fddf252ad1be2c89b69c2b068fc378daa952ba7f163c4a11628f55a4df523b3ef9281900390910190a35050565b6001600160a01b03821661111c5760405162461bcd60e51b815260040180806020018281038252602181526020018061140d6021913960400191505060405180910390fd5b611128826000836111df565b61116b81604051806060016040528060228152602001611335602291396001600160a01b038516600090815260208190526040902054919063ffffffff610ee316565b6001600160a01b038316600090815260208190526040902055600254611197908263ffffffff6112cf16565b6002556040805182815290516000916001600160a01b038516917fddf252ad1be2c89b69c2b068fc378daa952ba7f163c4a11628f55a4df523b3ef9181900360200190a35050565b6111ea8383836112ca565b6001600160a01b038216301415611248576040805162461bcd60e51b815260206004820152601f60248201527f43616e2774207472616e7366657220746f205443415020636f6e747261637400604482015290519081900360640190fd5b6001600160a01b038316158015611261575060075460ff165b156112ca57600654611281826112756105b2565b9063ffffffff610f7a16565b11156112ca576040805162461bcd60e51b8152602060048201526013602482015272115490cc8c0e8818d85c08195e18d959591959606a1b604482015290519081900360640190fd5b505050565b6000610fd483836040518060400160405280601e81526020017f536166654d6174683a207375627472616374696f6e206f766572666c6f770000815250610ee356fe45524332303a207472616e7366657220746f20746865207a65726f206164647265737345524332303a206275726e20616d6f756e7420657863656564732062616c616e63654f776e61626c653a206e6577206f776e657220697320746865207a65726f206164647265737345524332303a20617070726f766520746f20746865207a65726f206164647265737345524332303a207472616e7366657220616d6f756e7420657863656564732062616c616e636545524332303a207472616e7366657220616d6f756e74206578636565647320616c6c6f77616e63654f776e61626c653a2063616c6c6572206973206e6f7420746865206f776e657245524332303a206275726e2066726f6d20746865207a65726f206164647265737345524332303a207472616e736665722066726f6d20746865207a65726f206164647265737345524332303a20617070726f76652066726f6d20746865207a65726f206164647265737345524332303a2064656372656173656420616c6c6f77616e63652062656c6f77207a65726fa2646970667358221220e8d9eb98f64d3efb42af00a8698d3fc733ba4c6345b20b2ac27298fd9d18482464736f6c634300060800334f776e61626c653a206e6577206f776e657220697320746865207a65726f20616464726573738be0079c531659141344cd1fd0a4f28419497f9722a3daafe3b4186f6b6457e0",
  "devdoc": {
    "author": "Cristian Espinoza",
    "methods": {
      "addTokenHandler(address)": {
        "details": "Only owner can call it",
        "params": {
          "_handler": "address of the receiver of tokens"
        }
      },
      "allowance(address,address)": {
        "details": "See {IERC20-allowance}."
      },
      "approve(address,uint256)": {
        "details": "See {IERC20-approve}.     * Requirements:     * - `spender` cannot be the zero address."
      },
      "balanceOf(address)": {
        "details": "See {IERC20-balanceOf}."
      },
      "burn(address,uint256)": {
        "details": "Only handler can call it",
        "params": {
          "_account": "address of the receiver of tokens",
          "_amount": "uint of tokens to burn"
        }
      },
      "decimals()": {
        "details": "Returns the number of decimals used to get its user representation. For example, if `decimals` equals `2`, a balance of `505` tokens should be displayed to a user as `5,05` (`505 / 10 ** 2`).     * Tokens usually opt for a value of 18, imitating the relationship between Ether and Wei. This is the value {ERC20} uses, unless {_setupDecimals} is called.     * NOTE: This information is only used for _display_ purposes: it in no way affects any of the arithmetic of the contract, including {IERC20-balanceOf} and {IERC20-transfer}."
      },
      "decreaseAllowance(address,uint256)": {
        "details": "Atomically decreases the allowance granted to `spender` by the caller.     * This is an alternative to {approve} that can be used as a mitigation for problems described in {IERC20-approve}.     * Emits an {Approval} event indicating the updated allowance.     * Requirements:     * - `spender` cannot be the zero address. - `spender` must have allowance for the caller of at least `subtractedValue`."
      },
      "enableCap(bool)": {
        "details": "When capEnabled is true, minting will not be allowed above the max capacity.Only owner can call it",
        "params": {
          "_enable": "value"
        }
      },
      "increaseAllowance(address,uint256)": {
        "details": "Atomically increases the allowance granted to `spender` by the caller.     * This is an alternative to {approve} that can be used as a mitigation for problems described in {IERC20-approve}.     * Emits an {Approval} event indicating the updated allowance.     * Requirements:     * - `spender` cannot be the zero address."
      },
      "mint(address,uint256)": {
        "details": "Only handler can call it",
        "params": {
          "_account": "address of the receiver of tokens",
          "_amount": "uint of tokens to mint"
        }
      },
      "name()": {
        "details": "Returns the name of the token."
      },
      "owner()": {
        "details": "Returns the address of the current owner."
      },
      "renounceOwnership()": {
        "details": "Leaves the contract without owner. It will not be possible to call `onlyOwner` functions anymore. Can only be called by the current owner.     * NOTE: Renouncing ownership will leave the contract without an owner, thereby removing any functionality that is only available to the owner."
      },
      "setCap(uint256)": {
        "details": "When capEnabled is true, mint is not allowed to issue tokens that would increase the total supply above the specified capacity.Only owner can call it",
        "params": {
          "_cap": "value"
        }
      },
      "supportsInterface(bytes4)": {
        "params": {
          "interfaceId": "bytes of interface"
        },
        "returns": {
          "_0": "bool"
        }
      },
      "symbol()": {
        "details": "Returns the symbol of the token, usually a shorter version of the name."
      },
      "totalSupply()": {
        "details": "See {IERC20-totalSupply}."
      },
      "transfer(address,uint256)": {
        "details": "See {IERC20-transfer}.     * Requirements:     * - `recipient` cannot be the zero address. - the caller must have a balance of at least `amount`."
      },
      "transferFrom(address,address,uint256)": {
        "details": "See {IERC20-transferFrom}.     * Emits an {Approval} event indicating the updated allowance. This is not required by the EIP. See the note at the beginning of {ERC20};     * Requirements: - `sender` and `recipient` cannot be the zero address. - `sender` must have a balance of at least `amount`. - the caller must have allowance for ``sender``'s tokens of at least `amount`."
      },
      "transferOwnership(address)": {
        "details": "Transfers ownership of the contract to a new account (`newOwner`). Can only be called by the current owner."
      }
    },
    "title": "Total Market Cap Token"
  },
  "userdoc": {
    "methods": {
      "addTokenHandler(address)": {
        "notice": "Sets the address of the handler contract"
      },
      "burn(address,uint256)": {
        "notice": "Burns TCAP Tokens"
      },
      "enableCap(bool)": {
        "notice": "Enables or Disables the Token Cap."
      },
      "mint(address,uint256)": {
        "notice": "Mints TCAP Tokens"
      },
      "setCap(uint256)": {
        "notice": "Sets the maximum capacity of the token."
      },
      "supportsInterface(bytes4)": {
        "notice": "ERC165 Standard for support of interfaces"
      }
    },
    "notice": "ERC20 token on the Ethereum Blockchain that provides total exposure to the cryptocurrency sector."
  },
  "storageLayout": {
    "storage": [
      {
        "astId": 861,
        "contract": "contracts/TCAP.sol:TCAP",
        "label": "_balances",
        "offset": 0,
        "slot": "0",
        "type": "t_mapping(t_address,t_uint256)"
      },
      {
        "astId": 867,
        "contract": "contracts/TCAP.sol:TCAP",
        "label": "_allowances",
        "offset": 0,
        "slot": "1",
        "type": "t_mapping(t_address,t_mapping(t_address,t_uint256))"
      },
      {
        "astId": 869,
        "contract": "contracts/TCAP.sol:TCAP",
        "label": "_totalSupply",
        "offset": 0,
        "slot": "2",
        "type": "t_uint256"
      },
      {
        "astId": 871,
        "contract": "contracts/TCAP.sol:TCAP",
        "label": "_name",
        "offset": 0,
        "slot": "3",
        "type": "t_string_storage"
      },
      {
        "astId": 873,
        "contract": "contracts/TCAP.sol:TCAP",
        "label": "_symbol",
        "offset": 0,
        "slot": "4",
        "type": "t_string_storage"
      },
      {
        "astId": 875,
        "contract": "contracts/TCAP.sol:TCAP",
        "label": "_decimals",
        "offset": 0,
        "slot": "5",
        "type": "t_uint8"
      },
      {
        "astId": 359,
        "contract": "contracts/TCAP.sol:TCAP",
        "label": "_owner",
        "offset": 1,
        "slot": "5",
        "type": "t_address"
      },
      {
        "astId": 5165,
        "contract": "contracts/TCAP.sol:TCAP",
        "label": "cap",
        "offset": 0,
        "slot": "6",
        "type": "t_uint256"
      },
      {
        "astId": 5168,
        "contract": "contracts/TCAP.sol:TCAP",
        "label": "capEnabled",
        "offset": 0,
        "slot": "7",
        "type": "t_bool"
      },
      {
        "astId": 5172,
        "contract": "contracts/TCAP.sol:TCAP",
        "label": "tokenHandlers",
        "offset": 0,
        "slot": "8",
        "type": "t_mapping(t_address,t_bool)"
      }
    ],
    "types": {
      "t_address": {
        "encoding": "inplace",
        "label": "address",
        "numberOfBytes": "20"
      },
      "t_bool": {
        "encoding": "inplace",
        "label": "bool",
        "numberOfBytes": "1"
      },
      "t_mapping(t_address,t_bool)": {
        "encoding": "mapping",
        "key": "t_address",
        "label": "mapping(address => bool)",
        "numberOfBytes": "32",
        "value": "t_bool"
      },
      "t_mapping(t_address,t_mapping(t_address,t_uint256))": {
        "encoding": "mapping",
        "key": "t_address",
        "label": "mapping(address => mapping(address => uint256))",
        "numberOfBytes": "32",
        "value": "t_mapping(t_address,t_uint256)"
      },
      "t_mapping(t_address,t_uint256)": {
        "encoding": "mapping",
        "key": "t_address",
        "label": "mapping(address => uint256)",
        "numberOfBytes": "32",
        "value": "t_uint256"
      },
      "t_string_storage": {
        "encoding": "bytes",
        "label": "string",
        "numberOfBytes": "32"
      },
      "t_uint256": {
        "encoding": "inplace",
        "label": "uint256",
        "numberOfBytes": "32"
      },
      "t_uint8": {
        "encoding": "inplace",
        "label": "uint8",
        "numberOfBytes": "1"
      }
    }
  },
  "gasEstimates": {
    "creation": {
      "codeDepositCost": "1065800",
      "executionCost": "infinite",
      "totalCost": "infinite"
    },
    "external": {
      "addTokenHandler(address)": "infinite",
      "allowance(address,address)": "1360",
      "approve(address,uint256)": "infinite",
      "balanceOf(address)": "1168",
      "burn(address,uint256)": "infinite",
      "cap()": "1065",
      "capEnabled()": "1076",
      "decimals()": "1058",
      "decreaseAllowance(address,uint256)": "infinite",
      "enableCap(bool)": "infinite",
      "increaseAllowance(address,uint256)": "infinite",
      "mint(address,uint256)": "infinite",
      "name()": "infinite",
      "owner()": "1115",
      "renounceOwnership()": "infinite",
      "setCap(uint256)": "infinite",
      "supportsInterface(bytes4)": "389",
      "symbol()": "infinite",
      "tokenHandlers(address)": "1224",
      "totalSupply()": "1088",
      "transfer(address,uint256)": "infinite",
      "transferFrom(address,address,uint256)": "infinite",
      "transferOwnership(address)": "infinite"
    },
    "internal": {
      "_beforeTokenTransfer(address,address,uint256)": "infinite"
    }
  }
}