{
  "address": "0x318B42b5b32EeFF0692bD427F0E4056e4DA590e2",
  "abi": [
    {
      "inputs": [
        {
          "internalType": "address",
          "name": "_owner",
          "type": "address"
        },
        {
          "internalType": "address",
          "name": "_rewardsToken",
          "type": "address"
        },
        {
          "internalType": "address",
          "name": "_stakingToken",
          "type": "address"
        },
        {
          "internalType": "uint256",
          "name": "_vestingBegin",
          "type": "uint256"
        },
        {
          "internalType": "uint256",
          "name": "_vestingEnd",
          "type": "uint256"
        },
        {
          "internalType": "uint256",
          "name": "_vestingRatio",
          "type": "uint256"
        }
      ],
      "stateMutability": "nonpayable",
      "type": "constructor"
    },
    {
      "anonymous": false,
      "inputs": [
        {
          "indexed": true,
          "internalType": "address",
          "name": "previousOwner",
          "type": "address"
        },
        {
          "indexed": true,
          "internalType": "address",
          "name": "newOwner",
          "type": "address"
        }
      ],
      "name": "OwnershipTransferred",
      "type": "event"
    },
    {
      "anonymous": false,
      "inputs": [
        {
          "indexed": false,
          "internalType": "address",
          "name": "account",
          "type": "address"
        }
      ],
      "name": "Paused",
      "type": "event"
    },
    {
      "anonymous": false,
      "inputs": [
        {
          "indexed": false,
          "internalType": "address",
          "name": "token",
          "type": "address"
        },
        {
          "indexed": false,
          "internalType": "uint256",
          "name": "amount",
          "type": "uint256"
        }
      ],
      "name": "Recovered",
      "type": "event"
    },
    {
      "anonymous": false,
      "inputs": [
        {
          "indexed": false,
          "internalType": "uint256",
          "name": "reward",
          "type": "uint256"
        }
      ],
      "name": "RewardAdded",
      "type": "event"
    },
    {
      "anonymous": false,
      "inputs": [
        {
          "indexed": true,
          "internalType": "address",
          "name": "user",
          "type": "address"
        },
        {
          "indexed": false,
          "internalType": "uint256",
          "name": "reward",
          "type": "uint256"
        }
      ],
      "name": "RewardPaid",
      "type": "event"
    },
    {
      "anonymous": false,
      "inputs": [
        {
          "indexed": false,
          "internalType": "uint256",
          "name": "newDuration",
          "type": "uint256"
        }
      ],
      "name": "RewardsDurationUpdated",
      "type": "event"
    },
    {
      "anonymous": false,
      "inputs": [
        {
          "indexed": true,
          "internalType": "bytes32",
          "name": "role",
          "type": "bytes32"
        },
        {
          "indexed": true,
          "internalType": "bytes32",
          "name": "previousAdminRole",
          "type": "bytes32"
        },
        {
          "indexed": true,
          "internalType": "bytes32",
          "name": "newAdminRole",
          "type": "bytes32"
        }
      ],
      "name": "RoleAdminChanged",
      "type": "event"
    },
    {
      "anonymous": false,
      "inputs": [
        {
          "indexed": true,
          "internalType": "bytes32",
          "name": "role",
          "type": "bytes32"
        },
        {
          "indexed": true,
          "internalType": "address",
          "name": "account",
          "type": "address"
        },
        {
          "indexed": true,
          "internalType": "address",
          "name": "sender",
          "type": "address"
        }
      ],
      "name": "RoleGranted",
      "type": "event"
    },
    {
      "anonymous": false,
      "inputs": [
        {
          "indexed": true,
          "internalType": "bytes32",
          "name": "role",
          "type": "bytes32"
        },
        {
          "indexed": true,
          "internalType": "address",
          "name": "account",
          "type": "address"
        },
        {
          "indexed": true,
          "internalType": "address",
          "name": "sender",
          "type": "address"
        }
      ],
      "name": "RoleRevoked",
      "type": "event"
    },
    {
      "anonymous": false,
      "inputs": [
        {
          "indexed": true,
          "internalType": "address",
          "name": "user",
          "type": "address"
        },
        {
          "indexed": false,
          "internalType": "uint256",
          "name": "amount",
          "type": "uint256"
        }
      ],
      "name": "Staked",
      "type": "event"
    },
    {
      "anonymous": false,
      "inputs": [
        {
          "indexed": false,
          "internalType": "address",
          "name": "account",
          "type": "address"
        }
      ],
      "name": "Unpaused",
      "type": "event"
    },
    {
      "anonymous": false,
      "inputs": [
        {
          "indexed": true,
          "internalType": "address",
          "name": "user",
          "type": "address"
        },
        {
          "indexed": false,
          "internalType": "uint256",
          "name": "amount",
          "type": "uint256"
        }
      ],
      "name": "Withdrawn",
      "type": "event"
    },
    {
      "inputs": [],
      "name": "DEFAULT_ADMIN_ROLE",
      "outputs": [
        {
          "internalType": "bytes32",
          "name": "",
          "type": "bytes32"
        }
      ],
      "stateMutability": "view",
      "type": "function"
    },
    {
      "inputs": [
        {
          "internalType": "address",
          "name": "_account",
          "type": "address"
        }
      ],
      "name": "balanceOf",
      "outputs": [
        {
          "internalType": "uint256",
          "name": "",
          "type": "uint256"
        }
      ],
      "stateMutability": "view",
      "type": "function"
    },
    {
      "inputs": [],
      "name": "claimVest",
      "outputs": [],
      "stateMutability": "nonpayable",
      "type": "function"
    },
    {
      "inputs": [
        {
          "internalType": "address",
          "name": "_account",
          "type": "address"
        }
      ],
      "name": "earned",
      "outputs": [
        {
          "internalType": "uint256",
          "name": "",
          "type": "uint256"
        }
      ],
      "stateMutability": "view",
      "type": "function"
    },
    {
      "inputs": [],
      "name": "exit",
      "outputs": [],
      "stateMutability": "nonpayable",
      "type": "function"
    },
    {
      "inputs": [],
      "name": "getReward",
      "outputs": [],
      "stateMutability": "nonpayable",
      "type": "function"
    },
    {
      "inputs": [],
      "name": "getRewardForDuration",
      "outputs": [
        {
          "internalType": "uint256",
          "name": "",
          "type": "uint256"
        }
      ],
      "stateMutability": "view",
      "type": "function"
    },
    {
      "inputs": [
        {
          "internalType": "bytes32",
          "name": "role",
          "type": "bytes32"
        }
      ],
      "name": "getRoleAdmin",
      "outputs": [
        {
          "internalType": "bytes32",
          "name": "",
          "type": "bytes32"
        }
      ],
      "stateMutability": "view",
      "type": "function"
    },
    {
      "inputs": [
        {
          "internalType": "bytes32",
          "name": "role",
          "type": "bytes32"
        },
        {
          "internalType": "uint256",
          "name": "index",
          "type": "uint256"
        }
      ],
      "name": "getRoleMember",
      "outputs": [
        {
          "internalType": "address",
          "name": "",
          "type": "address"
        }
      ],
      "stateMutability": "view",
      "type": "function"
    },
    {
      "inputs": [
        {
          "internalType": "bytes32",
          "name": "role",
          "type": "bytes32"
        }
      ],
      "name": "getRoleMemberCount",
      "outputs": [
        {
          "internalType": "uint256",
          "name": "",
          "type": "uint256"
        }
      ],
      "stateMutability": "view",
      "type": "function"
    },
    {
      "inputs": [
        {
          "internalType": "bytes32",
          "name": "role",
          "type": "bytes32"
        },
        {
          "internalType": "address",
          "name": "account",
          "type": "address"
        }
      ],
      "name": "grantRole",
      "outputs": [],
      "stateMutability": "nonpayable",
      "type": "function"
    },
    {
      "inputs": [
        {
          "internalType": "bytes32",
          "name": "role",
          "type": "bytes32"
        },
        {
          "internalType": "address",
          "name": "account",
          "type": "address"
        }
      ],
      "name": "hasRole",
      "outputs": [
        {
          "internalType": "bool",
          "name": "",
          "type": "bool"
        }
      ],
      "stateMutability": "view",
      "type": "function"
    },
    {
      "inputs": [],
      "name": "lastTimeRewardApplicable",
      "outputs": [
        {
          "internalType": "uint256",
          "name": "",
          "type": "uint256"
        }
      ],
      "stateMutability": "view",
      "type": "function"
    },
    {
      "inputs": [],
      "name": "lastUpdateTime",
      "outputs": [
        {
          "internalType": "uint256",
          "name": "",
          "type": "uint256"
        }
      ],
      "stateMutability": "view",
      "type": "function"
    },
    {
      "inputs": [
        {
          "internalType": "uint256",
          "name": "_a",
          "type": "uint256"
        },
        {
          "internalType": "uint256",
          "name": "_b",
          "type": "uint256"
        }
      ],
      "name": "min",
      "outputs": [
        {
          "internalType": "uint256",
          "name": "",
          "type": "uint256"
        }
      ],
      "stateMutability": "pure",
      "type": "function"
    },
    {
      "inputs": [
        {
          "internalType": "uint256",
          "name": "_reward",
          "type": "uint256"
        }
      ],
      "name": "notifyRewardAmount",
      "outputs": [],
      "stateMutability": "nonpayable",
      "type": "function"
    },
    {
      "inputs": [],
      "name": "owner",
      "outputs": [
        {
          "internalType": "address",
          "name": "",
          "type": "address"
        }
      ],
      "stateMutability": "view",
      "type": "function"
    },
    {
      "inputs": [],
      "name": "paused",
      "outputs": [
        {
          "internalType": "bool",
          "name": "",
          "type": "bool"
        }
      ],
      "stateMutability": "view",
      "type": "function"
    },
    {
      "inputs": [],
      "name": "periodFinish",
      "outputs": [
        {
          "internalType": "uint256",
          "name": "",
          "type": "uint256"
        }
      ],
      "stateMutability": "view",
      "type": "function"
    },
    {
      "inputs": [
        {
          "internalType": "address",
          "name": "_tokenAddress",
          "type": "address"
        },
        {
          "internalType": "uint256",
          "name": "_tokenAmount",
          "type": "uint256"
        }
      ],
      "name": "recoverERC20",
      "outputs": [],
      "stateMutability": "nonpayable",
      "type": "function"
    },
    {
      "inputs": [],
      "name": "renounceOwnership",
      "outputs": [],
      "stateMutability": "nonpayable",
      "type": "function"
    },
    {
      "inputs": [
        {
          "internalType": "bytes32",
          "name": "role",
          "type": "bytes32"
        },
        {
          "internalType": "address",
          "name": "account",
          "type": "address"
        }
      ],
      "name": "renounceRole",
      "outputs": [],
      "stateMutability": "nonpayable",
      "type": "function"
    },
    {
      "inputs": [
        {
          "internalType": "bytes32",
          "name": "role",
          "type": "bytes32"
        },
        {
          "internalType": "address",
          "name": "account",
          "type": "address"
        }
      ],
      "name": "revokeRole",
      "outputs": [],
      "stateMutability": "nonpayable",
      "type": "function"
    },
    {
      "inputs": [],
      "name": "rewardPerToken",
      "outputs": [
        {
          "internalType": "uint256",
          "name": "",
          "type": "uint256"
        }
      ],
      "stateMutability": "view",
      "type": "function"
    },
    {
      "inputs": [],
      "name": "rewardPerTokenStored",
      "outputs": [
        {
          "internalType": "uint256",
          "name": "",
          "type": "uint256"
        }
      ],
      "stateMutability": "view",
      "type": "function"
    },
    {
      "inputs": [],
      "name": "rewardRate",
      "outputs": [
        {
          "internalType": "uint256",
          "name": "",
          "type": "uint256"
        }
      ],
      "stateMutability": "view",
      "type": "function"
    },
    {
      "inputs": [
        {
          "internalType": "address",
          "name": "",
          "type": "address"
        }
      ],
      "name": "rewards",
      "outputs": [
        {
          "internalType": "uint256",
          "name": "",
          "type": "uint256"
        }
      ],
      "stateMutability": "view",
      "type": "function"
    },
    {
      "inputs": [],
      "name": "rewardsDuration",
      "outputs": [
        {
          "internalType": "uint256",
          "name": "",
          "type": "uint256"
        }
      ],
      "stateMutability": "view",
      "type": "function"
    },
    {
      "inputs": [],
      "name": "rewardsToken",
      "outputs": [
        {
          "internalType": "contract IERC20",
          "name": "",
          "type": "address"
        }
      ],
      "stateMutability": "view",
      "type": "function"
    },
    {
      "inputs": [
        {
          "internalType": "uint256",
          "name": "_rewardsDuration",
          "type": "uint256"
        }
      ],
      "name": "setRewardsDuration",
      "outputs": [],
      "stateMutability": "nonpayable",
      "type": "function"
    },
    {
      "inputs": [
        {
          "internalType": "uint256",
          "name": "_amount",
          "type": "uint256"
        }
      ],
      "name": "stake",
      "outputs": [],
      "stateMutability": "nonpayable",
      "type": "function"
    },
    {
      "inputs": [],
      "name": "stakingToken",
      "outputs": [
        {
          "internalType": "contract IERC20",
          "name": "",
          "type": "address"
        }
      ],
      "stateMutability": "view",
      "type": "function"
    },
    {
      "inputs": [],
      "name": "totalSupply",
      "outputs": [
        {
          "internalType": "uint256",
          "name": "",
          "type": "uint256"
        }
      ],
      "stateMutability": "view",
      "type": "function"
    },
    {
      "inputs": [
        {
          "internalType": "address",
          "name": "newOwner",
          "type": "address"
        }
      ],
      "name": "transferOwnership",
      "outputs": [],
      "stateMutability": "nonpayable",
      "type": "function"
    },
    {
      "inputs": [
        {
          "internalType": "address",
          "name": "",
          "type": "address"
        }
      ],
      "name": "userRewardPerTokenPaid",
      "outputs": [
        {
          "internalType": "uint256",
          "name": "",
          "type": "uint256"
        }
      ],
      "stateMutability": "view",
      "type": "function"
    },
    {
      "inputs": [
        {
          "internalType": "address",
          "name": "",
          "type": "address"
        }
      ],
      "name": "vestingAmounts",
      "outputs": [
        {
          "internalType": "uint256",
          "name": "",
          "type": "uint256"
        }
      ],
      "stateMutability": "view",
      "type": "function"
    },
    {
      "inputs": [],
      "name": "vestingBegin",
      "outputs": [
        {
          "internalType": "uint256",
          "name": "",
          "type": "uint256"
        }
      ],
      "stateMutability": "view",
      "type": "function"
    },
    {
      "inputs": [],
      "name": "vestingEnd",
      "outputs": [
        {
          "internalType": "uint256",
          "name": "",
          "type": "uint256"
        }
      ],
      "stateMutability": "view",
      "type": "function"
    },
    {
      "inputs": [],
      "name": "vestingRatio",
      "outputs": [
        {
          "internalType": "uint256",
          "name": "",
          "type": "uint256"
        }
      ],
      "stateMutability": "view",
      "type": "function"
    },
    {
      "inputs": [
        {
          "internalType": "uint256",
          "name": "_amount",
          "type": "uint256"
        }
      ],
      "name": "withdraw",
      "outputs": [],
      "stateMutability": "nonpayable",
      "type": "function"
    }
  ],
  "transactionHash": "0xf4037e5a6cf29931af0fbceac45fdb7878b858d406fc61182e5273c5c370470e",
  "args": [
    "0xEF25580E76444A47d11A16F26A49DB1Bd1CA5CC9",
    "0x78a6a1Cee9027fFf464b61Afacc9f3F3ff0c7D74",
    "0x764f590a66215ded6ff1898ff575022df2193af0",
    1613690346,
    1629415146,
    "30"
  ],
  "solcInputHash": "bd6d27e909953050ac86eaa70a104c0a",
  "bytecode": "0x60806040526000600555600060065562093a806007553480156200002257600080fd5b50604051620023e1380380620023e1833981810160405260c08110156200004857600080fd5b508051602082015160408301516060840151608085015160a090950151939492939192909160006200007962000128565b600080546001600160a01b0319166001600160a01b038316908117825560405192935091600080516020620023c1833981519152908290a3506001600255600380546001600160a81b0319166101006001600160a01b038881169190910291909117909155600480546001600160a01b031916918616919091179055600d839055600e829055600f819055620001116000336200012c565b6200011c866200013c565b5050505050506200033c565b3390565b6200013882826200023a565b5050565b6200014662000128565b6000546001600160a01b03908116911614620001a9576040805162461bcd60e51b815260206004820181905260248201527f4f776e61626c653a2063616c6c6572206973206e6f7420746865206f776e6572604482015290519081900360640190fd5b6001600160a01b038116620001f05760405162461bcd60e51b81526004018080602001828103825260268152602001806200239b6026913960400191505060405180910390fd5b600080546040516001600160a01b0380851693921691600080516020620023c183398151915291a3600080546001600160a01b0319166001600160a01b0392909216919091179055565b60008281526001602090815260409091206200026191839062001502620002b5821b17901c565b1562000138576200027162000128565b6001600160a01b0316816001600160a01b0316837f2f8788117e7eff1d82e926ec794901d17c78024a50270940304540a733656f0d60405160405180910390a45050565b6000620002cc836001600160a01b038416620002d5565b90505b92915050565b6000620002e3838362000324565b6200031b57508154600181810184556000848152602080822090930184905584548482528286019093526040902091909155620002cf565b506000620002cf565b60009081526001919091016020526040902054151590565b61204f806200034c6000396000f3fe608060405234801561001057600080fd5b50600436106102475760003560e01c806384a1931f1161013b578063cc1a378f116100b8578063e29bc68b1161007c578063e29bc68b146105a6578063e9fad8ee146105ae578063ebe2b12b146105b6578063f13253bb146105be578063f2fde38b146105c657610247565b8063cc1a378f14610545578063cd3daf9d14610562578063d1af0c7d1461056a578063d547741f14610572578063df136d651461059e57610247565b806391d14854116100ff57806391d14854146104cf578063a217fddf146104fb578063a694fc3a14610503578063c8f33c9114610520578063ca15c8731461052857610247565b806384a1931f1461044a5780638980f11f146104525780638b8763471461047e5780638da5cb5b146104a45780639010d07c146104ac57610247565b80633c6b16ab116101c9578063715018a61161018d578063715018a6146103eb57806372f702f3146103f35780637ae2b5c7146104175780637b0a47ee1461043a57806380faa57d1461044257610247565b80633c6b16ab1461037c5780633d18b912146103995780635c975abb146103a157806365530884146103bd57806370a08231146103c557610247565b8063248a9ca311610210578063248a9ca3146102e05780632e1a7d4d146102fd5780632f2ff15d1461031c57806336568abe14610348578063386a95251461037457610247565b80628cc2621461024c5780630700037d146102845780630f75327f146102aa57806318160ddd146102d05780631c1f78eb146102d8575b600080fd5b6102726004803603602081101561026257600080fd5b50356001600160a01b03166105ec565b60408051918252519081900360200190f35b6102726004803603602081101561029a57600080fd5b50356001600160a01b031661066a565b610272600480360360208110156102c057600080fd5b50356001600160a01b031661067c565b61027261068e565b610272610695565b610272600480360360208110156102f657600080fd5b50356106b3565b61031a6004803603602081101561031357600080fd5b50356106c8565b005b61031a6004803603604081101561033257600080fd5b50803590602001356001600160a01b0316610852565b61031a6004803603604081101561035e57600080fd5b50803590602001356001600160a01b03166108be565b61027261091f565b61031a6004803603602081101561039257600080fd5b5035610925565b61031a610b56565b6103a9610d09565b604080519115158252519081900360200190f35b610272610d12565b610272600480360360208110156103db57600080fd5b50356001600160a01b0316610d18565b61031a610d33565b6103fb610dd5565b604080516001600160a01b039092168252519081900360200190f35b6102726004803603604081101561042d57600080fd5b5080359060200135610de4565b610272610dfc565b610272610e02565b610272610e10565b61031a6004803603604081101561046857600080fd5b506001600160a01b038135169060200135610e16565b6102726004803603602081101561049457600080fd5b50356001600160a01b0316610f24565b6103fb610f36565b6103fb600480360360408110156104c257600080fd5b5080359060200135610f45565b6103a9600480360360408110156104e557600080fd5b50803590602001356001600160a01b0316610f5d565b610272610f75565b61031a6004803603602081101561051957600080fd5b5035610f7a565b610272611150565b6102726004803603602081101561053e57600080fd5b5035611156565b61031a6004803603602081101561055b57600080fd5b503561116d565b610272611240565b6103fb61128e565b61031a6004803603604081101561058857600080fd5b50803590602001356001600160a01b03166112a2565b6102726112fb565b610272611301565b61031a611307565b61027261132a565b61031a611330565b61031a600480360360208110156105dc57600080fd5b50356001600160a01b031661140a565b6001600160a01b0381166000908152600b6020908152604080832054600a909252822054610664919061065e90670de0b6b3a7640000906106589061063990610633611240565b90611517565b6001600160a01b03881660009081526011602052604090205490611559565b906115b2565b906115f4565b92915050565b600b6020526000908152604090205481565b60106020526000908152604090205481565b600c545b90565b60006106ae60075460065461155990919063ffffffff16565b905090565b60009081526001602052604090206002015490565b60028054141561071f576040805162461bcd60e51b815260206004820152601f60248201527f5265656e7472616e637947756172643a207265656e7472616e742063616c6c00604482015290519081900360640190fd5b600280553361072c611240565b600955610737610e02565b6008556001600160a01b0381161561077e57610752816105ec565b6001600160a01b0382166000908152600b6020908152604080832093909355600954600a909152919020555b600082116107bd5760405162461bcd60e51b815260040180806020018281038252602c815260200180611d85602c913960400191505060405180910390fd5b600c546107ca9083611517565b600c55336000908152601160205260409020546107e79083611517565b33600081815260116020526040902091909155600454610813916001600160a01b03909116908461164e565b60408051838152905133917f7084f5476618d8e60b11ef0d7d3f06914655adb8793e28ff7f018d4c76d505d5919081900360200190a250506001600255565b600082815260016020526040902060020154610875906108706116a0565b610f5d565b6108b05760405162461bcd60e51b815260040180806020018281038252602f815260200180611d56602f913960400191505060405180910390fd5b6108ba82826116a4565b5050565b6108c66116a0565b6001600160a01b0316816001600160a01b0316146109155760405162461bcd60e51b815260040180806020018281038252602f815260200180611feb602f913960400191505060405180910390fd5b6108ba828261170d565b60075481565b61092d6116a0565b6000546001600160a01b0390811691161461097d576040805162461bcd60e51b81526020600482018190526024820152600080516020611e76833981519152604482015290519081900360640190fd5b6000610987611240565b600955610992610e02565b6008556001600160a01b038116156109d9576109ad816105ec565b6001600160a01b0382166000908152600b6020908152604080832093909355600954600a909152919020555b60055442106109f8576007546109f09083906115b2565b600655610a3b565b600554600090610a089042611517565b90506000610a216006548361155990919063ffffffff16565b600754909150610a359061065886846115f4565b60065550505b600354604080516370a0823160e01b8152306004820152905160009261010090046001600160a01b0316916370a08231916024808301926020929190829003018186803b158015610a8b57600080fd5b505afa158015610a9f573d6000803e3d6000fd5b505050506040513d6020811015610ab557600080fd5b5051600754909150610ac89082906115b2565b6006541115610b085760405162461bcd60e51b815260040180806020018281038252603d815260200180611fae603d913960400191505060405180910390fd5b426008819055600754610b1b91906115f4565b6005556040805184815290517fde88a922e0d3b88b24e9623efeb464919c6bf9f66857a65e2bfcf2ce87a9433d9181900360200190a1505050565b600280541415610bad576040805162461bcd60e51b815260206004820152601f60248201527f5265656e7472616e637947756172643a207265656e7472616e742063616c6c00604482015290519081900360640190fd5b6002805533610bba611240565b600955610bc5610e02565b6008556001600160a01b03811615610c0c57610be0816105ec565b6001600160a01b0382166000908152600b6020908152604080832093909355600954600a909152919020555b336000908152600b60205260409020548015610d00576000606490506000610c446064610658600f548661155990919063ffffffff16565b90506000610c6c6064610658610c65600f548761151790919063ffffffff16565b8790611559565b336000908152600b602090815260408083208390556010909152902054909150610c9690836115f4565b33600081815260106020526040902091909155600354610cc6916101009091046001600160a01b0316908361164e565b60408051828152905133917fe2403640ba68fed3a2f88b7557551d1993f84b99bb10ff833f0cf8db0c5e0486919081900360200190a25050505b50506001600255565b60035460ff1690565b600f5481565b6001600160a01b031660009081526011602052604090205490565b610d3b6116a0565b6000546001600160a01b03908116911614610d8b576040805162461bcd60e51b81526020600482018190526024820152600080516020611e76833981519152604482015290519081900360640190fd5b600080546040516001600160a01b03909116907f8be0079c531659141344cd1fd0a4f28419497f9722a3daafe3b4186f6b6457e0908390a3600080546001600160a01b0319169055565b6004546001600160a01b031681565b6000818310610df35781610df5565b825b9392505050565b60065481565b60006106ae42600554610de4565b600e5481565b610e1e6116a0565b6000546001600160a01b03908116911614610e6e576040805162461bcd60e51b81526020600482018190526024820152600080516020611e76833981519152604482015290519081900360640190fd5b6003546001600160a01b03838116610100909204161415610ec05760405162461bcd60e51b815260040180806020018281038252604c815260200180611e96604c913960600191505060405180910390fd5b610edc610ecb610f36565b6001600160a01b038416908361164e565b604080516001600160a01b03841681526020810183905281517f8c1256b8896378cd5044f80c202f9772b9d77dc85c8a6eb51967210b09bfaa28929181900390910190a15050565b600a6020526000908152604090205481565b6000546001600160a01b031690565b6000828152600160205260408120610df59083611776565b6000828152600160205260408120610df59083611782565b600081565b600280541415610fd1576040805162461bcd60e51b815260206004820152601f60248201527f5265656e7472616e637947756172643a207265656e7472616e742063616c6c00604482015290519081900360640190fd5b6002805560035460ff1615611020576040805162461bcd60e51b815260206004820152601060248201526f14185d5cd8589b194e881c185d5cd95960821b604482015290519081900360640190fd5b33611029611240565b600955611034610e02565b6008556001600160a01b0381161561107b5761104f816105ec565b6001600160a01b0382166000908152600b6020908152604080832093909355600954600a909152919020555b600082116110ba5760405162461bcd60e51b8152600401808060200182810382526025815260200180611ee26025913960400191505060405180910390fd5b600c546110c790836115f4565b600c55336000908152601160205260409020546110e490836115f4565b33600081815260116020526040902091909155600454611111916001600160a01b03909116903085611797565b60408051838152905133917f9e71bc8eea02a63969f509818f2dafb9254532904319f9dbda79b67bd34a5f3d919081900360200190a250506001600255565b60085481565b6000818152600160205260408120610664906117f7565b6111756116a0565b6000546001600160a01b039081169116146111c5576040805162461bcd60e51b81526020600482018190526024820152600080516020611e76833981519152604482015290519081900360640190fd5b60055442116112055760405162461bcd60e51b815260040180806020018281038252607d815260200180611f07607d913960800191505060405180910390fd5b60078190556040805182815290517ffb46ca5a5e06d4540d6387b930a7c978bce0db5f449ec6b3f5d07c6e1d44f2d39181900360200190a150565b6000600c54600014156112565750600954610692565b6106ae611285600c54610658670de0b6b3a764000061127f60065461127f600854610633610e02565b90611559565b600954906115f4565b60035461010090046001600160a01b031681565b6000828152600160205260409020600201546112c0906108706116a0565b6109155760405162461bcd60e51b8152600401808060200182810382526030815260200180611dfd6030913960400191505060405180910390fd5b60095481565b600d5481565b33600090815260116020526040902054611320906106c8565b611328610b56565b565b60055481565b600e544210156113715760405162461bcd60e51b8152600401808060200182810382526028815260200180611e2d6028913960400191505060405180910390fd5b33600081815260106020908152604080832080549084905560048054835163a9059cbb60e01b81529182019690965260248101829052915190946001600160a01b03169363a9059cbb93604480850194919392918390030190829087803b1580156113db57600080fd5b505af11580156113ef573d6000803e3d6000fd5b505050506040513d602081101561140557600080fd5b505050565b6114126116a0565b6000546001600160a01b03908116911614611462576040805162461bcd60e51b81526020600482018190526024820152600080516020611e76833981519152604482015290519081900360640190fd5b6001600160a01b0381166114a75760405162461bcd60e51b8152600401808060200182810382526026815260200180611db16026913960400191505060405180910390fd5b600080546040516001600160a01b03808516939216917f8be0079c531659141344cd1fd0a4f28419497f9722a3daafe3b4186f6b6457e091a3600080546001600160a01b0319166001600160a01b0392909216919091179055565b6000610df5836001600160a01b038416611802565b6000610df583836040518060400160405280601e81526020017f536166654d6174683a207375627472616374696f6e206f766572666c6f77000081525061184c565b60008261156857506000610664565b8282028284828161157557fe5b0414610df55760405162461bcd60e51b8152600401808060200182810382526021815260200180611e556021913960400191505060405180910390fd5b6000610df583836040518060400160405280601a81526020017f536166654d6174683a206469766973696f6e206279207a65726f0000000000008152506118e3565b600082820183811015610df5576040805162461bcd60e51b815260206004820152601b60248201527f536166654d6174683a206164646974696f6e206f766572666c6f770000000000604482015290519081900360640190fd5b604080516001600160a01b038416602482015260448082018490528251808303909101815260649091019091526020810180516001600160e01b031663a9059cbb60e01b179052611405908490611948565b3390565b60008281526001602052604090206116bc9082611502565b156108ba576116c96116a0565b6001600160a01b0316816001600160a01b0316837f2f8788117e7eff1d82e926ec794901d17c78024a50270940304540a733656f0d60405160405180910390a45050565b600082815260016020526040902061172590826119f9565b156108ba576117326116a0565b6001600160a01b0316816001600160a01b0316837ff6391f5c32d9c69d2a47ea670b442974b53935d1edc7fd64eb21e047a839171b60405160405180910390a45050565b6000610df58383611a0e565b6000610df5836001600160a01b038416611a72565b604080516001600160a01b0380861660248301528416604482015260648082018490528251808303909101815260849091019091526020810180516001600160e01b03166323b872dd60e01b1790526117f1908590611948565b50505050565b600061066482611a8a565b600061180e8383611a72565b61184457508154600181810184556000848152602080822090930184905584548482528286019093526040902091909155610664565b506000610664565b600081848411156118db5760405162461bcd60e51b81526004018080602001828103825283818151815260200191508051906020019080838360005b838110156118a0578181015183820152602001611888565b50505050905090810190601f1680156118cd5780820380516001836020036101000a031916815260200191505b509250505060405180910390fd5b505050900390565b600081836119325760405162461bcd60e51b81526020600482018181528351602484015283519092839260449091019190850190808383600083156118a0578181015183820152602001611888565b50600083858161193e57fe5b0495945050505050565b606061199d826040518060400160405280602081526020017f5361666545524332303a206c6f772d6c6576656c2063616c6c206661696c6564815250856001600160a01b0316611a8e9092919063ffffffff16565b805190915015611405578080602001905160208110156119bc57600080fd5b50516114055760405162461bcd60e51b815260040180806020018281038252602a815260200180611f84602a913960400191505060405180910390fd5b6000610df5836001600160a01b038416611aa5565b81546000908210611a505760405162461bcd60e51b8152600401808060200182810382526022815260200180611d346022913960400191505060405180910390fd5b826000018281548110611a5f57fe5b9060005260206000200154905092915050565b60009081526001919091016020526040902054151590565b5490565b6060611a9d8484600085611b6b565b949350505050565b60008181526001830160205260408120548015611b615783546000198083019190810190600090879083908110611ad857fe5b9060005260206000200154905080876000018481548110611af557fe5b600091825260208083209091019290925582815260018981019092526040902090840190558654879080611b2557fe5b60019003818190600052602060002001600090559055866001016000878152602001908152602001600020600090556001945050505050610664565b6000915050610664565b606082471015611bac5760405162461bcd60e51b8152600401808060200182810382526026815260200180611dd76026913960400191505060405180910390fd5b611bb585611cc7565b611c06576040805162461bcd60e51b815260206004820152601d60248201527f416464726573733a2063616c6c20746f206e6f6e2d636f6e7472616374000000604482015290519081900360640190fd5b60006060866001600160a01b031685876040518082805190602001908083835b60208310611c455780518252601f199092019160209182019101611c26565b6001836020036101000a03801982511681845116808217855250505050505090500191505060006040518083038185875af1925050503d8060008114611ca7576040519150601f19603f3d011682016040523d82523d6000602084013e611cac565b606091505b5091509150611cbc828286611ccd565b979650505050505050565b3b151590565b60608315611cdc575081610df5565b825115611cec5782518084602001fd5b60405162461bcd60e51b81526020600482018181528451602484015284518593919283926044019190850190808383600083156118a057818101518382015260200161188856fe456e756d657261626c655365743a20696e646578206f7574206f6620626f756e6473416363657373436f6e74726f6c3a2073656e646572206d75737420626520616e2061646d696e20746f206772616e744c69717569646974795265776172643a3a77697468647261773a2043616e6e6f7420776974686472617720304f776e61626c653a206e6577206f776e657220697320746865207a65726f2061646472657373416464726573733a20696e73756666696369656e742062616c616e636520666f722063616c6c416363657373436f6e74726f6c3a2073656e646572206d75737420626520616e2061646d696e20746f207265766f6b654c69717569646974795265776172643a3a636c61696d566573743a206e6f742074696d6520796574536166654d6174683a206d756c7469706c69636174696f6e206f766572666c6f774f776e61626c653a2063616c6c6572206973206e6f7420746865206f776e65724c69717569646974795265776172643a3a7265636f76657245524332303a2043616e6e6f7420776974686472617720746865207374616b696e67206f72207265776172647320746f6b656e734c69717569646974795265776172643a3a5374616b653a43616e6e6f74207374616b6520304c69717569646974795265776172643a3a736574526577617264734475726174696f6e3a2050726576696f7573207265776172647320706572696f64206d75737420626520636f6d706c657465206265666f7265206368616e67696e6720746865206475726174696f6e20666f7220746865206e657720706572696f645361666545524332303a204552433230206f7065726174696f6e20646964206e6f7420737563636565644c69717569646974795265776172643a3a6e6f74696679526577617264416d6f756e743a2050726f76696465642072657761726420746f6f2068696768416363657373436f6e74726f6c3a2063616e206f6e6c792072656e6f756e636520726f6c657320666f722073656c66a26469706673582212207f07e91a3a1c771eb0ecdbeab76512cb289d87b09ee42db432b36c6a2d49d94e64736f6c634300070500334f776e61626c653a206e6577206f776e657220697320746865207a65726f20616464726573738be0079c531659141344cd1fd0a4f28419497f9722a3daafe3b4186f6b6457e0",
  "devdoc": {
    "kind": "dev",
    "methods": {
      "balanceOf(address)": {
        "params": {
          "_account": "address"
        }
      },
      "constructor": {
        "params": {
          "_owner": "address",
          "_rewardsToken": "address",
          "_stakingToken": "uint256",
          "_vestingBegin": "uint256",
          "_vestingEnd": "uint256",
          "_vestingRatio": "uint256"
        }
      },
      "earned(address)": {
        "params": {
          "_account": "address"
        }
      },
      "getReward()": {
        "details": "updates rewards on callonly 70% of reward is inmediate transfered the rest is locked into vesting"
      },
      "getRoleAdmin(bytes32)": {
        "details": "Returns the admin role that controls `role`. See {grantRole} and {revokeRole}. To change a role's admin, use {_setRoleAdmin}."
      },
      "getRoleMember(bytes32,uint256)": {
        "details": "Returns one of the accounts that have `role`. `index` must be a value between 0 and {getRoleMemberCount}, non-inclusive. Role bearers are not sorted in any particular way, and their ordering may change at any point. WARNING: When using {getRoleMember} and {getRoleMemberCount}, make sure you perform all queries on the same block. See the following https://forum.openzeppelin.com/t/iterating-over-elements-on-enumerableset-in-openzeppelin-contracts/2296[forum post] for more information."
      },
      "getRoleMemberCount(bytes32)": {
        "details": "Returns the number of accounts that have `role`. Can be used together with {getRoleMember} to enumerate all bearers of a role."
      },
      "grantRole(bytes32,address)": {
        "details": "Grants `role` to `account`. If `account` had not been already granted `role`, emits a {RoleGranted} event. Requirements: - the caller must have ``role``'s admin role."
      },
      "hasRole(bytes32,address)": {
        "details": "Returns `true` if `account` has been granted `role`."
      },
      "min(uint256,uint256)": {
        "params": {
          "_a": "uint",
          "_b": "uint"
        }
      },
      "notifyRewardAmount(uint256)": {
        "details": "Only owner  can call itIncreases duration of rewards",
        "params": {
          "_reward": "uint"
        }
      },
      "owner()": {
        "details": "Returns the address of the current owner."
      },
      "paused()": {
        "details": "Returns true if the contract is paused, and false otherwise."
      },
      "recoverERC20(address,uint256)": {
        "details": "Only owner  can call it",
        "params": {
          "_tokenAddress": "address",
          "_tokenAmount": "uint"
        }
      },
      "renounceOwnership()": {
        "details": "Leaves the contract without owner. It will not be possible to call `onlyOwner` functions anymore. Can only be called by the current owner. NOTE: Renouncing ownership will leave the contract without an owner, thereby removing any functionality that is only available to the owner."
      },
      "renounceRole(bytes32,address)": {
        "details": "Revokes `role` from the calling account. Roles are often managed via {grantRole} and {revokeRole}: this function's purpose is to provide a mechanism for accounts to lose their privileges if they are compromised (such as when a trusted device is misplaced). If the calling account had been granted `role`, emits a {RoleRevoked} event. Requirements: - the caller must be `account`."
      },
      "revokeRole(bytes32,address)": {
        "details": "Revokes `role` from `account`. If `account` had been granted `role`, emits a {RoleRevoked} event. Requirements: - the caller must have ``role``'s admin role."
      },
      "setRewardsDuration(uint256)": {
        "details": "Only owner  can call itPrevious rewards must be complete",
        "params": {
          "_rewardsDuration": "uint"
        }
      },
      "stake(uint256)": {
        "details": "Only vault can call itupdates rewards on call",
        "params": {
          "_amount": "uint"
        }
      },
      "transferOwnership(address)": {
        "details": "Transfers ownership of the contract to a new account (`newOwner`). Can only be called by the current owner."
      },
      "withdraw(uint256)": {
        "details": "updates rewards on call",
        "params": {
          "_amount": "uint"
        }
      }
    },
    "stateVariables": {
      "_balances": {
        "details": "Tracks the amount of TCAP minted per user"
      },
      "_totalSupply": {
        "details": "Tracks the total supply of the minted TCAPs"
      }
    },
    "version": 1
  },
  "userdoc": {
    "events": {
      "Recovered(address,uint256)": {
        "notice": "An event emitted when a erc20 token is recovered"
      },
      "RewardAdded(uint256)": {
        "notice": "An event emitted when a reward is added"
      },
      "RewardPaid(address,uint256)": {
        "notice": "An event emitted when reward is paid to a user"
      },
      "RewardsDurationUpdated(uint256)": {
        "notice": "An event emitted when the rewards duration is updated"
      },
      "Staked(address,uint256)": {
        "notice": "An event emitted when TCAP is minted and staked to earn rewards"
      },
      "Withdrawn(address,uint256)": {
        "notice": "An event emitted when TCAP is burned and removed of stake"
      }
    },
    "kind": "user",
    "methods": {
      "balanceOf(address)": {
        "notice": "Returns the amount of TCAP tokens minted and getting reward from specific user."
      },
      "claimVest()": {
        "notice": "Removes claims all vesting amount."
      },
      "constructor": {
        "notice": "Constructor"
      },
      "earned(address)": {
        "notice": "Returns the amount of reward tokens a user has earned."
      },
      "exit()": {
        "notice": "Removes all stake and transfers all rewards to the staker."
      },
      "getReward()": {
        "notice": "Transfers to the caller the current amount of rewards tokens earned."
      },
      "lastTimeRewardApplicable()": {
        "notice": "Returns the minimun between current block timestamp or the finish period of rewards."
      },
      "lastUpdateTime()": {
        "notice": "Last time rewards were updated"
      },
      "min(uint256,uint256)": {
        "notice": "Returns the minimun between two variables"
      },
      "notifyRewardAmount(uint256)": {
        "notice": "Notifies the contract that reward has been added to be given."
      },
      "periodFinish()": {
        "notice": "Tracks the period where users stop earning rewards"
      },
      "recoverERC20(address,uint256)": {
        "notice": "Added to support recovering LP Rewards from other systems such as BAL to be distributed to holders"
      },
      "rewardPerToken()": {
        "notice": "Returns the calculated reward per token deposited."
      },
      "rewards(address)": {
        "notice": "Tracks the user rewards"
      },
      "rewardsDuration()": {
        "notice": "How long the rewards lasts, it updates when more rewards are added"
      },
      "rewardsToken()": {
        "notice": "Address of the reward"
      },
      "setRewardsDuration(uint256)": {
        "notice": "Updates the reward duration"
      },
      "stake(uint256)": {
        "notice": "Transfer staking token to contract"
      },
      "stakingToken()": {
        "notice": "Address of the staking token"
      },
      "totalSupply()": {
        "notice": "Returns the total amount of TCAP tokens minted and getting reward on this vault."
      },
      "userRewardPerTokenPaid(address)": {
        "notice": "Track the rewards paid to users"
      },
      "vestingAmounts(address)": {
        "notice": "tracks vesting of users"
      },
      "vestingBegin()": {
        "notice": "Time were vesting begins"
      },
      "vestingEnd()": {
        "notice": "Time were vesting ends"
      },
      "vestingRatio()": {
        "notice": "Vesting ratio"
      },
      "withdraw(uint256)": {
        "notice": "Remove staking token and transfer back to staker"
      }
    },
    "version": 1
  },
  "storageLayout": {
    "storage": [
      {
        "astId": 359,
        "contract": "contracts/LiquidityReward.sol:LiquidityReward",
        "label": "_owner",
        "offset": 0,
        "slot": "0",
        "type": "t_address"
      },
      {
        "astId": 91,
        "contract": "contracts/LiquidityReward.sol:LiquidityReward",
        "label": "_roles",
        "offset": 0,
        "slot": "1",
        "type": "t_mapping(t_bytes32,t_struct(RoleData)87_storage)"
      },
      {
        "astId": 2509,
        "contract": "contracts/LiquidityReward.sol:LiquidityReward",
        "label": "_status",
        "offset": 0,
        "slot": "2",
        "type": "t_uint256"
      },
      {
        "astId": 2426,
        "contract": "contracts/LiquidityReward.sol:LiquidityReward",
        "label": "_paused",
        "offset": 0,
        "slot": "3",
        "type": "t_bool"
      },
      {
        "astId": 4685,
        "contract": "contracts/LiquidityReward.sol:LiquidityReward",
        "label": "rewardsToken",
        "offset": 1,
        "slot": "3",
        "type": "t_contract(IERC20)1421"
      },
      {
        "astId": 4688,
        "contract": "contracts/LiquidityReward.sol:LiquidityReward",
        "label": "stakingToken",
        "offset": 0,
        "slot": "4",
        "type": "t_contract(IERC20)1421"
      },
      {
        "astId": 4692,
        "contract": "contracts/LiquidityReward.sol:LiquidityReward",
        "label": "periodFinish",
        "offset": 0,
        "slot": "5",
        "type": "t_uint256"
      },
      {
        "astId": 4695,
        "contract": "contracts/LiquidityReward.sol:LiquidityReward",
        "label": "rewardRate",
        "offset": 0,
        "slot": "6",
        "type": "t_uint256"
      },
      {
        "astId": 4699,
        "contract": "contracts/LiquidityReward.sol:LiquidityReward",
        "label": "rewardsDuration",
        "offset": 0,
        "slot": "7",
        "type": "t_uint256"
      },
      {
        "astId": 4702,
        "contract": "contracts/LiquidityReward.sol:LiquidityReward",
        "label": "lastUpdateTime",
        "offset": 0,
        "slot": "8",
        "type": "t_uint256"
      },
      {
        "astId": 4704,
        "contract": "contracts/LiquidityReward.sol:LiquidityReward",
        "label": "rewardPerTokenStored",
        "offset": 0,
        "slot": "9",
        "type": "t_uint256"
      },
      {
        "astId": 4709,
        "contract": "contracts/LiquidityReward.sol:LiquidityReward",
        "label": "userRewardPerTokenPaid",
        "offset": 0,
        "slot": "10",
        "type": "t_mapping(t_address,t_uint256)"
      },
      {
        "astId": 4714,
        "contract": "contracts/LiquidityReward.sol:LiquidityReward",
        "label": "rewards",
        "offset": 0,
        "slot": "11",
        "type": "t_mapping(t_address,t_uint256)"
      },
      {
        "astId": 4717,
        "contract": "contracts/LiquidityReward.sol:LiquidityReward",
        "label": "_totalSupply",
        "offset": 0,
        "slot": "12",
        "type": "t_uint256"
      },
      {
        "astId": 4720,
        "contract": "contracts/LiquidityReward.sol:LiquidityReward",
        "label": "vestingBegin",
        "offset": 0,
        "slot": "13",
        "type": "t_uint256"
      },
      {
        "astId": 4723,
        "contract": "contracts/LiquidityReward.sol:LiquidityReward",
        "label": "vestingEnd",
        "offset": 0,
        "slot": "14",
        "type": "t_uint256"
      },
      {
        "astId": 4726,
        "contract": "contracts/LiquidityReward.sol:LiquidityReward",
        "label": "vestingRatio",
        "offset": 0,
        "slot": "15",
        "type": "t_uint256"
      },
      {
        "astId": 4731,
        "contract": "contracts/LiquidityReward.sol:LiquidityReward",
        "label": "vestingAmounts",
        "offset": 0,
        "slot": "16",
        "type": "t_mapping(t_address,t_uint256)"
      },
      {
        "astId": 4736,
        "contract": "contracts/LiquidityReward.sol:LiquidityReward",
        "label": "_balances",
        "offset": 0,
        "slot": "17",
        "type": "t_mapping(t_address,t_uint256)"
      }
    ],
    "types": {
      "t_address": {
        "encoding": "inplace",
        "label": "address",
        "numberOfBytes": "20"
      },
      "t_array(t_bytes32)dyn_storage": {
        "base": "t_bytes32",
        "encoding": "dynamic_array",
        "label": "bytes32[]",
        "numberOfBytes": "32"
      },
      "t_bool": {
        "encoding": "inplace",
        "label": "bool",
        "numberOfBytes": "1"
      },
      "t_bytes32": {
        "encoding": "inplace",
        "label": "bytes32",
        "numberOfBytes": "32"
      },
      "t_contract(IERC20)1421": {
        "encoding": "inplace",
        "label": "contract IERC20",
        "numberOfBytes": "20"
      },
      "t_mapping(t_address,t_uint256)": {
        "encoding": "mapping",
        "key": "t_address",
        "label": "mapping(address => uint256)",
        "numberOfBytes": "32",
        "value": "t_uint256"
      },
      "t_mapping(t_bytes32,t_struct(RoleData)87_storage)": {
        "encoding": "mapping",
        "key": "t_bytes32",
        "label": "mapping(bytes32 => struct AccessControl.RoleData)",
        "numberOfBytes": "32",
        "value": "t_struct(RoleData)87_storage"
      },
      "t_mapping(t_bytes32,t_uint256)": {
        "encoding": "mapping",
        "key": "t_bytes32",
        "label": "mapping(bytes32 => uint256)",
        "numberOfBytes": "32",
        "value": "t_uint256"
      },
      "t_struct(AddressSet)2204_storage": {
        "encoding": "inplace",
        "label": "struct EnumerableSet.AddressSet",
        "members": [
          {
            "astId": 2203,
            "contract": "contracts/LiquidityReward.sol:LiquidityReward",
            "label": "_inner",
            "offset": 0,
            "slot": "0",
            "type": "t_struct(Set)1939_storage"
          }
        ],
        "numberOfBytes": "64"
      },
      "t_struct(RoleData)87_storage": {
        "encoding": "inplace",
        "label": "struct AccessControl.RoleData",
        "members": [
          {
            "astId": 84,
            "contract": "contracts/LiquidityReward.sol:LiquidityReward",
            "label": "members",
            "offset": 0,
            "slot": "0",
            "type": "t_struct(AddressSet)2204_storage"
          },
          {
            "astId": 86,
            "contract": "contracts/LiquidityReward.sol:LiquidityReward",
            "label": "adminRole",
            "offset": 0,
            "slot": "2",
            "type": "t_bytes32"
          }
        ],
        "numberOfBytes": "96"
      },
      "t_struct(Set)1939_storage": {
        "encoding": "inplace",
        "label": "struct EnumerableSet.Set",
        "members": [
          {
            "astId": 1934,
            "contract": "contracts/LiquidityReward.sol:LiquidityReward",
            "label": "_values",
            "offset": 0,
            "slot": "0",
            "type": "t_array(t_bytes32)dyn_storage"
          },
          {
            "astId": 1938,
            "contract": "contracts/LiquidityReward.sol:LiquidityReward",
            "label": "_indexes",
            "offset": 0,
            "slot": "1",
            "type": "t_mapping(t_bytes32,t_uint256)"
          }
        ],
        "numberOfBytes": "64"
      },
      "t_uint256": {
        "encoding": "inplace",
        "label": "uint256",
        "numberOfBytes": "32"
      }
    }
  }
}