{
  "abi": [
    {
      "inputs": [
        {
          "internalType": "contract Orchestrator",
          "name": "orchestrator",
          "type": "address"
        }
      ],
      "stateMutability": "nonpayable",
      "type": "constructor"
    },
    {
      "anonymous": false,
      "inputs": [
        {
          "indexed": true,
          "internalType": "address",
          "name": "_owner",
          "type": "address"
        },
        {
          "indexed": true,
          "internalType": "uint256",
          "name": "_id",
          "type": "uint256"
        },
        {
          "indexed": false,
          "internalType": "uint256",
          "name": "_amount",
          "type": "uint256"
        }
      ],
      "name": "LogAddCollateral",
      "type": "event"
    },
    {
      "anonymous": false,
      "inputs": [
        {
          "indexed": true,
          "internalType": "address",
          "name": "_owner",
          "type": "address"
        },
        {
          "indexed": true,
          "internalType": "uint256",
          "name": "_id",
          "type": "uint256"
        },
        {
          "indexed": false,
          "internalType": "uint256",
          "name": "_amount",
          "type": "uint256"
        }
      ],
      "name": "LogBurn",
      "type": "event"
    },
    {
      "anonymous": false,
      "inputs": [
        {
          "indexed": true,
          "internalType": "address",
          "name": "_owner",
          "type": "address"
        },
        {
          "indexed": true,
          "internalType": "uint256",
          "name": "_id",
          "type": "uint256"
        }
      ],
      "name": "LogCreateVault",
      "type": "event"
    },
    {
      "anonymous": false,
      "inputs": [
        {
          "indexed": false,
          "internalType": "uint256",
          "name": "_divisor",
          "type": "uint256"
        },
        {
          "indexed": false,
          "internalType": "uint256",
          "name": "_ratio",
          "type": "uint256"
        },
        {
          "indexed": false,
          "internalType": "uint256",
          "name": "_burnFee",
          "type": "uint256"
        },
        {
          "indexed": false,
          "internalType": "uint256",
          "name": "_liquidationPenalty",
          "type": "uint256"
        },
        {
          "indexed": false,
          "internalType": "address",
          "name": "_tcapOracle",
          "type": "address"
        },
        {
          "indexed": false,
          "internalType": "contract TCAP",
          "name": "_tcapAddress",
          "type": "address"
        },
        {
          "indexed": false,
          "internalType": "address",
          "name": "_collateralAddress",
          "type": "address"
        },
        {
          "indexed": false,
          "internalType": "address",
          "name": "_collateralOracle",
          "type": "address"
        },
        {
          "indexed": false,
          "internalType": "address",
          "name": "_ethOracle",
          "type": "address"
        }
      ],
      "name": "LogInitializeVault",
      "type": "event"
    },
    {
      "anonymous": false,
      "inputs": [
        {
          "indexed": true,
          "internalType": "uint256",
          "name": "_vaultId",
          "type": "uint256"
        },
        {
          "indexed": true,
          "internalType": "address",
          "name": "_liquidator",
          "type": "address"
        },
        {
          "indexed": false,
          "internalType": "uint256",
          "name": "_liquidationCollateral",
          "type": "uint256"
        },
        {
          "indexed": false,
          "internalType": "uint256",
          "name": "_reward",
          "type": "uint256"
        }
      ],
      "name": "LogLiquidateVault",
      "type": "event"
    },
    {
      "anonymous": false,
      "inputs": [
        {
          "indexed": true,
          "internalType": "address",
          "name": "_owner",
          "type": "address"
        },
        {
          "indexed": true,
          "internalType": "uint256",
          "name": "_id",
          "type": "uint256"
        },
        {
          "indexed": false,
          "internalType": "uint256",
          "name": "_amount",
          "type": "uint256"
        }
      ],
      "name": "LogMint",
      "type": "event"
    },
    {
      "anonymous": false,
      "inputs": [
        {
          "indexed": true,
          "internalType": "address",
          "name": "_owner",
          "type": "address"
        },
        {
          "indexed": true,
          "internalType": "uint256",
          "name": "_id",
          "type": "uint256"
        },
        {
          "indexed": false,
          "internalType": "uint256",
          "name": "_amount",
          "type": "uint256"
        }
      ],
      "name": "LogRemoveCollateral",
      "type": "event"
    },
    {
      "anonymous": false,
      "inputs": [
        {
          "indexed": true,
          "internalType": "address",
          "name": "_owner",
          "type": "address"
        },
        {
          "indexed": false,
          "internalType": "uint256",
          "name": "_amount",
          "type": "uint256"
        }
      ],
      "name": "LogRetrieveFees",
      "type": "event"
    },
    {
      "anonymous": false,
      "inputs": [
        {
          "indexed": true,
          "internalType": "address",
          "name": "_owner",
          "type": "address"
        },
        {
          "indexed": false,
          "internalType": "uint256",
          "name": "_burnFee",
          "type": "uint256"
        }
      ],
      "name": "LogSetBurnFee",
      "type": "event"
    },
    {
      "anonymous": false,
      "inputs": [
        {
          "indexed": true,
          "internalType": "address",
          "name": "_owner",
          "type": "address"
        },
        {
          "indexed": false,
          "internalType": "uint256",
          "name": "_liquidationPenalty",
          "type": "uint256"
        }
      ],
      "name": "LogSetLiquidationPenalty",
      "type": "event"
    },
    {
      "anonymous": false,
      "inputs": [
        {
          "indexed": true,
          "internalType": "address",
          "name": "_owner",
          "type": "address"
        },
        {
          "indexed": false,
          "internalType": "uint256",
          "name": "_ratio",
          "type": "uint256"
        }
      ],
      "name": "LogSetRatio",
      "type": "event"
    },
    {
      "anonymous": false,
      "inputs": [
        {
          "indexed": true,
          "internalType": "address",
          "name": "previousOwner",
          "type": "address"
        },
        {
          "indexed": true,
          "internalType": "address",
          "name": "newOwner",
          "type": "address"
        }
      ],
      "name": "OwnershipTransferred",
      "type": "event"
    },
    {
      "anonymous": false,
      "inputs": [
        {
          "indexed": false,
          "internalType": "address",
          "name": "account",
          "type": "address"
        }
      ],
      "name": "Paused",
      "type": "event"
    },
    {
      "anonymous": false,
      "inputs": [
        {
          "indexed": true,
          "internalType": "bytes32",
          "name": "role",
          "type": "bytes32"
        },
        {
          "indexed": true,
          "internalType": "bytes32",
          "name": "previousAdminRole",
          "type": "bytes32"
        },
        {
          "indexed": true,
          "internalType": "bytes32",
          "name": "newAdminRole",
          "type": "bytes32"
        }
      ],
      "name": "RoleAdminChanged",
      "type": "event"
    },
    {
      "anonymous": false,
      "inputs": [
        {
          "indexed": true,
          "internalType": "bytes32",
          "name": "role",
          "type": "bytes32"
        },
        {
          "indexed": true,
          "internalType": "address",
          "name": "account",
          "type": "address"
        },
        {
          "indexed": true,
          "internalType": "address",
          "name": "sender",
          "type": "address"
        }
      ],
      "name": "RoleGranted",
      "type": "event"
    },
    {
      "anonymous": false,
      "inputs": [
        {
          "indexed": true,
          "internalType": "bytes32",
          "name": "role",
          "type": "bytes32"
        },
        {
          "indexed": true,
          "internalType": "address",
          "name": "account",
          "type": "address"
        },
        {
          "indexed": true,
          "internalType": "address",
          "name": "sender",
          "type": "address"
        }
      ],
      "name": "RoleRevoked",
      "type": "event"
    },
    {
      "anonymous": false,
      "inputs": [
        {
          "indexed": false,
          "internalType": "address",
          "name": "account",
          "type": "address"
        }
      ],
      "name": "Unpaused",
      "type": "event"
    },
    {
      "inputs": [],
      "name": "DEFAULT_ADMIN_ROLE",
      "outputs": [
        {
          "internalType": "bytes32",
          "name": "",
          "type": "bytes32"
        }
      ],
      "stateMutability": "view",
      "type": "function"
    },
    {
      "inputs": [],
      "name": "ETHPriceOracle",
      "outputs": [
        {
          "internalType": "contract ChainlinkOracle",
          "name": "",
          "type": "address"
        }
      ],
      "stateMutability": "view",
      "type": "function"
    },
    {
      "inputs": [],
      "name": "TCAPPrice",
      "outputs": [
        {
          "internalType": "uint256",
          "name": "price",
          "type": "uint256"
        }
      ],
      "stateMutability": "view",
      "type": "function"
    },
    {
      "inputs": [],
      "name": "TCAPToken",
      "outputs": [
        {
          "internalType": "contract TCAP",
          "name": "",
          "type": "address"
        }
      ],
      "stateMutability": "view",
      "type": "function"
    },
    {
      "inputs": [
        {
          "internalType": "uint256",
          "name": "_amount",
          "type": "uint256"
        }
      ],
      "name": "addCollateral",
      "outputs": [],
      "stateMutability": "nonpayable",
      "type": "function"
    },
    {
      "inputs": [],
      "name": "addCollateralETH",
      "outputs": [],
      "stateMutability": "payable",
      "type": "function"
    },
    {
      "inputs": [
        {
          "internalType": "uint256",
          "name": "_amount",
          "type": "uint256"
        }
      ],
      "name": "burn",
      "outputs": [],
      "stateMutability": "payable",
      "type": "function"
    },
    {
      "inputs": [],
      "name": "burnFee",
      "outputs": [
        {
          "internalType": "uint256",
          "name": "",
          "type": "uint256"
        }
      ],
      "stateMutability": "view",
      "type": "function"
    },
    {
      "inputs": [],
      "name": "collateralContract",
      "outputs": [
        {
          "internalType": "contract IERC20",
          "name": "",
          "type": "address"
        }
      ],
      "stateMutability": "view",
      "type": "function"
    },
    {
      "inputs": [],
      "name": "collateralPriceOracle",
      "outputs": [
        {
          "internalType": "contract ChainlinkOracle",
          "name": "",
          "type": "address"
        }
      ],
      "stateMutability": "view",
      "type": "function"
    },
    {
      "inputs": [],
      "name": "counter",
      "outputs": [
        {
          "internalType": "uint256",
          "name": "_value",
          "type": "uint256"
        }
      ],
      "stateMutability": "view",
      "type": "function"
    },
    {
      "inputs": [],
      "name": "createVault",
      "outputs": [],
      "stateMutability": "nonpayable",
      "type": "function"
    },
    {
      "inputs": [],
      "name": "divisor",
      "outputs": [
        {
          "internalType": "uint256",
          "name": "",
          "type": "uint256"
        }
      ],
      "stateMutability": "view",
      "type": "function"
    },
    {
      "inputs": [
        {
          "internalType": "uint256",
          "name": "_amount",
          "type": "uint256"
        }
      ],
      "name": "getFee",
      "outputs": [
        {
          "internalType": "uint256",
          "name": "fee",
          "type": "uint256"
        }
      ],
      "stateMutability": "view",
      "type": "function"
    },
    {
      "inputs": [
        {
          "internalType": "contract ChainlinkOracle",
          "name": "_oracle",
          "type": "address"
        }
      ],
      "name": "getOraclePrice",
      "outputs": [
        {
          "internalType": "uint256",
          "name": "price",
          "type": "uint256"
        }
      ],
      "stateMutability": "view",
      "type": "function"
    },
    {
      "inputs": [
        {
          "internalType": "bytes32",
          "name": "role",
          "type": "bytes32"
        }
      ],
      "name": "getRoleAdmin",
      "outputs": [
        {
          "internalType": "bytes32",
          "name": "",
          "type": "bytes32"
        }
      ],
      "stateMutability": "view",
      "type": "function"
    },
    {
      "inputs": [
        {
          "internalType": "bytes32",
          "name": "role",
          "type": "bytes32"
        },
        {
          "internalType": "uint256",
          "name": "index",
          "type": "uint256"
        }
      ],
      "name": "getRoleMember",
      "outputs": [
        {
          "internalType": "address",
          "name": "",
          "type": "address"
        }
      ],
      "stateMutability": "view",
      "type": "function"
    },
    {
      "inputs": [
        {
          "internalType": "bytes32",
          "name": "role",
          "type": "bytes32"
        }
      ],
      "name": "getRoleMemberCount",
      "outputs": [
        {
          "internalType": "uint256",
          "name": "",
          "type": "uint256"
        }
      ],
      "stateMutability": "view",
      "type": "function"
    },
    {
      "inputs": [
        {
          "internalType": "uint256",
          "name": "_id",
          "type": "uint256"
        }
      ],
      "name": "getVault",
      "outputs": [
        {
          "internalType": "uint256",
          "name": "",
          "type": "uint256"
        },
        {
          "internalType": "uint256",
          "name": "",
          "type": "uint256"
        },
        {
          "internalType": "address",
          "name": "",
          "type": "address"
        },
        {
          "internalType": "uint256",
          "name": "",
          "type": "uint256"
        }
      ],
      "stateMutability": "view",
      "type": "function"
    },
    {
      "inputs": [
        {
          "internalType": "uint256",
          "name": "_vaultId",
          "type": "uint256"
        }
      ],
      "name": "getVaultRatio",
      "outputs": [
        {
          "internalType": "uint256",
          "name": "currentRatio",
          "type": "uint256"
        }
      ],
      "stateMutability": "view",
      "type": "function"
    },
    {
      "inputs": [
        {
          "internalType": "bytes32",
          "name": "role",
          "type": "bytes32"
        },
        {
          "internalType": "address",
          "name": "account",
          "type": "address"
        }
      ],
      "name": "grantRole",
      "outputs": [],
      "stateMutability": "nonpayable",
      "type": "function"
    },
    {
      "inputs": [
        {
          "internalType": "bytes32",
          "name": "role",
          "type": "bytes32"
        },
        {
          "internalType": "address",
          "name": "account",
          "type": "address"
        }
      ],
      "name": "hasRole",
      "outputs": [
        {
          "internalType": "bool",
          "name": "",
          "type": "bool"
        }
      ],
      "stateMutability": "view",
      "type": "function"
    },
    {
      "inputs": [
        {
          "internalType": "uint256",
          "name": "_divisor",
          "type": "uint256"
        },
        {
          "internalType": "uint256",
          "name": "_ratio",
          "type": "uint256"
        },
        {
          "internalType": "uint256",
          "name": "_burnFee",
          "type": "uint256"
        },
        {
          "internalType": "uint256",
          "name": "_liquidationPenalty",
          "type": "uint256"
        },
        {
          "internalType": "address",
          "name": "_tcapOracle",
          "type": "address"
        },
        {
          "internalType": "contract TCAP",
          "name": "_tcapAddress",
          "type": "address"
        },
        {
          "internalType": "address",
          "name": "_collateralAddress",
          "type": "address"
        },
        {
          "internalType": "address",
          "name": "_collateralOracle",
          "type": "address"
        },
        {
          "internalType": "address",
          "name": "_ethOracle",
          "type": "address"
        }
      ],
      "name": "initialize",
      "outputs": [],
      "stateMutability": "nonpayable",
      "type": "function"
    },
    {
      "inputs": [],
      "name": "isInitialized",
      "outputs": [
        {
          "internalType": "bool",
          "name": "",
          "type": "bool"
        }
      ],
      "stateMutability": "view",
      "type": "function"
    },
    {
      "inputs": [
        {
          "internalType": "uint256",
          "name": "_vaultId",
          "type": "uint256"
        },
        {
          "internalType": "uint256",
          "name": "_requiredTCAP",
          "type": "uint256"
        }
      ],
      "name": "liquidateVault",
      "outputs": [],
      "stateMutability": "payable",
      "type": "function"
    },
    {
      "inputs": [],
      "name": "liquidationPenalty",
      "outputs": [
        {
          "internalType": "uint256",
          "name": "",
          "type": "uint256"
        }
      ],
      "stateMutability": "view",
      "type": "function"
    },
    {
      "inputs": [
        {
          "internalType": "uint256",
          "name": "_vaultId",
          "type": "uint256"
        }
      ],
      "name": "liquidationReward",
      "outputs": [
        {
          "internalType": "uint256",
          "name": "rewardCollateral",
          "type": "uint256"
        }
      ],
      "stateMutability": "view",
      "type": "function"
    },
    {
      "inputs": [
        {
          "internalType": "uint256",
          "name": "_amount",
          "type": "uint256"
        }
      ],
      "name": "mint",
      "outputs": [],
      "stateMutability": "nonpayable",
      "type": "function"
    },
    {
      "inputs": [],
      "name": "oracleDigits",
      "outputs": [
        {
          "internalType": "uint256",
          "name": "",
          "type": "uint256"
        }
      ],
      "stateMutability": "view",
      "type": "function"
    },
    {
      "inputs": [],
      "name": "owner",
      "outputs": [
        {
          "internalType": "address",
          "name": "",
          "type": "address"
        }
      ],
      "stateMutability": "view",
      "type": "function"
    },
    {
      "inputs": [],
      "name": "pause",
      "outputs": [],
      "stateMutability": "nonpayable",
      "type": "function"
    },
    {
      "inputs": [],
      "name": "paused",
      "outputs": [
        {
          "internalType": "bool",
          "name": "",
          "type": "bool"
        }
      ],
      "stateMutability": "view",
      "type": "function"
    },
    {
      "inputs": [],
      "name": "ratio",
      "outputs": [
        {
          "internalType": "uint256",
          "name": "",
          "type": "uint256"
        }
      ],
      "stateMutability": "view",
      "type": "function"
    },
    {
      "inputs": [
        {
          "internalType": "uint256",
          "name": "_amount",
          "type": "uint256"
        }
      ],
      "name": "removeCollateral",
      "outputs": [],
      "stateMutability": "nonpayable",
      "type": "function"
    },
    {
      "inputs": [
        {
          "internalType": "uint256",
          "name": "_amount",
          "type": "uint256"
        }
      ],
      "name": "removeCollateralETH",
      "outputs": [],
      "stateMutability": "nonpayable",
      "type": "function"
    },
    {
      "inputs": [],
      "name": "renounceOwnership",
      "outputs": [],
      "stateMutability": "nonpayable",
      "type": "function"
    },
    {
      "inputs": [
        {
          "internalType": "bytes32",
          "name": "role",
          "type": "bytes32"
        },
        {
          "internalType": "address",
          "name": "account",
          "type": "address"
        }
      ],
      "name": "renounceRole",
      "outputs": [],
      "stateMutability": "nonpayable",
      "type": "function"
    },
    {
      "inputs": [
        {
          "internalType": "uint256",
          "name": "_amount",
          "type": "uint256"
        }
      ],
      "name": "requiredCollateral",
      "outputs": [
        {
          "internalType": "uint256",
          "name": "collateral",
          "type": "uint256"
        }
      ],
      "stateMutability": "view",
      "type": "function"
    },
    {
      "inputs": [
        {
          "internalType": "uint256",
          "name": "_vaultId",
          "type": "uint256"
        }
      ],
      "name": "requiredLiquidationTCAP",
      "outputs": [
        {
          "internalType": "uint256",
          "name": "amount",
          "type": "uint256"
        }
      ],
      "stateMutability": "view",
      "type": "function"
    },
    {
      "inputs": [],
      "name": "retrieveFees",
      "outputs": [],
      "stateMutability": "nonpayable",
      "type": "function"
    },
    {
      "inputs": [
        {
          "internalType": "bytes32",
          "name": "role",
          "type": "bytes32"
        },
        {
          "internalType": "address",
          "name": "account",
          "type": "address"
        }
      ],
      "name": "revokeRole",
      "outputs": [],
      "stateMutability": "nonpayable",
      "type": "function"
    },
    {
      "inputs": [
        {
          "internalType": "uint256",
          "name": "_burnFee",
          "type": "uint256"
        }
      ],
      "name": "setBurnFee",
      "outputs": [],
      "stateMutability": "nonpayable",
      "type": "function"
    },
    {
      "inputs": [
        {
          "internalType": "uint256",
          "name": "_liquidationPenalty",
          "type": "uint256"
        }
      ],
      "name": "setLiquidationPenalty",
      "outputs": [],
      "stateMutability": "nonpayable",
      "type": "function"
    },
    {
      "inputs": [
        {
          "internalType": "uint256",
          "name": "_ratio",
          "type": "uint256"
        }
      ],
      "name": "setRatio",
      "outputs": [],
      "stateMutability": "nonpayable",
      "type": "function"
    },
    {
      "inputs": [
        {
          "internalType": "bytes4",
          "name": "interfaceId",
          "type": "bytes4"
        }
      ],
      "name": "supportsInterface",
      "outputs": [
        {
          "internalType": "bool",
          "name": "",
          "type": "bool"
        }
      ],
      "stateMutability": "view",
      "type": "function"
    },
    {
      "inputs": [],
      "name": "tcapOracle",
      "outputs": [
        {
          "internalType": "contract ChainlinkOracle",
          "name": "",
          "type": "address"
        }
      ],
      "stateMutability": "view",
      "type": "function"
    },
    {
      "inputs": [
        {
          "internalType": "address",
          "name": "newOwner",
          "type": "address"
        }
      ],
      "name": "transferOwnership",
      "outputs": [],
      "stateMutability": "nonpayable",
      "type": "function"
    },
    {
      "inputs": [],
      "name": "unpause",
      "outputs": [],
      "stateMutability": "nonpayable",
      "type": "function"
    },
    {
      "inputs": [
        {
          "internalType": "address",
          "name": "",
          "type": "address"
        }
      ],
      "name": "userToVault",
      "outputs": [
        {
          "internalType": "uint256",
          "name": "",
          "type": "uint256"
        }
      ],
      "stateMutability": "view",
      "type": "function"
    },
    {
      "inputs": [
        {
          "internalType": "uint256",
          "name": "",
          "type": "uint256"
        }
      ],
      "name": "vaults",
      "outputs": [
        {
          "internalType": "uint256",
          "name": "Id",
          "type": "uint256"
        },
        {
          "internalType": "uint256",
          "name": "Collateral",
          "type": "uint256"
        },
        {
          "internalType": "uint256",
          "name": "Debt",
          "type": "uint256"
        },
        {
          "internalType": "address",
          "name": "Owner",
          "type": "address"
        }
      ],
      "stateMutability": "view",
      "type": "function"
    },
    {
      "stateMutability": "payable",
      "type": "receive"
    }
  ],
  "address": "0xB6428Cdb64b028e504767E7E279AD63d5bc43e05",
  "args": [
    "0xf69fb6f8F5E0b938D593Dc87dD4e37F43f51aB97"
  ],
  "solcInputHash": "0x5b4766cabb213a897650af253ceb8f0f9c981e0f40ecf720ebc367ce11088084",
  "bytecode": "0x60806040526010805460ff191690553480156200001b57600080fd5b5060405162003a5138038062003a51833981810160405260208110156200004157600080fd5b5051806000620000596001600160e01b03620000eb16565b600080546001600160a01b0319166001600160a01b03831690811782556040519293509160008051602062003a31833981519152908290a35060016002556003805460ff19169055620000b96004620000ef602090811b62002bb017901c565b620000cf6000336001600160e01b03620000f816565b620000e3816001600160e01b036200011116565b505062000335565b3390565b80546001019055565b6200010d82826001600160e01b036200021816565b5050565b620001246001600160e01b03620000eb16565b6000546001600160a01b0390811691161462000187576040805162461bcd60e51b815260206004820181905260248201527f4f776e61626c653a2063616c6c6572206973206e6f7420746865206f776e6572604482015290519081900360640190fd5b6001600160a01b038116620001ce5760405162461bcd60e51b815260040180806020018281038252602681526020018062003a0b6026913960400191505060405180910390fd5b600080546040516001600160a01b038085169392169160008051602062003a3183398151915291a3600080546001600160a01b0319166001600160a01b0392909216919091179055565b60008281526001602090815260409091206200023f91839062002bb96200029c821b17901c565b156200010d57620002586001600160e01b03620000eb16565b6001600160a01b0316816001600160a01b0316837f2f8788117e7eff1d82e926ec794901d17c78024a50270940304540a733656f0d60405160405180910390a45050565b6000620002bc836001600160a01b0384166001600160e01b03620002c516565b90505b92915050565b6000620002dc83836001600160e01b036200031d16565b6200031457508154600181810184556000848152602080822090930184905584548482528286019093526040902091909155620002bf565b506000620002bf565b60009081526001919091016020526040902054151590565b6136c680620003456000396000f3fe6080604052600436106102cd5760003560e01c80638456cb5911610175578063b2237ba3116100dc578063d318a7df11610095578063f2fde38b1161006f578063f2fde38b1461099c578063f4bfd346146109cf578063fce589d814610a3e578063fcee45f414610a53576102e8565b8063d318a7df1461090f578063d547741f14610939578063de9952c914610972576102e8565b8063b2237ba314610834578063bae8cae51461085e578063bc721a9614610873578063bcc46e83146108a6578063c6e1c7c9146108d0578063ca15c873146108e5576102e8565b80639403b6341161012e5780639403b6341461073b578063952cc86a1461079357806397994e30146107b6578063a0712d68146107cb578063a217fddf146107f5578063abb7bc4a1461080a576102e8565b80638456cb59146106255780638c01f2111461063a5780638c64ea4a146106645780638da5cb5b146106bd5780639010d07c146106d257806391d1485414610702576102e8565b80633f4ba83a1161023457806361bc221a116101ed578063715018a6116101c7578063715018a6146105b357806371ca337d146105c857806375f620ac146105dd578063842e357c14610610576102e8565b806361bc221a146105745780636ae7adc1146105895780636ca2143c1461059e576102e8565b80633f4ba83a146104d957806342966c68146104ee57806346dc90071461050b5780634bf2c7c9146105205780635c975abb1461054a5780635d12928b1461055f576102e8565b8063248a9ca311610286578063248a9ca3146103d45780632806a743146103fe5780632f2ff15d146104285780633237c1581461046157806336568abe1461048b578063392e53cd146104c4576102e8565b806301ffc9a7146102ed5780630d23cc791461033557806311d850e81461033d5780631cc244ba146103795780631f2dc5ef146103aa57806323f5589a146103bf576102e8565b366102e8576007546001600160a01b031633146102e657fe5b005b600080fd5b3480156102f957600080fd5b506103216004803603602081101561031057600080fd5b50356001600160e01b031916610a7d565b604080519115158252519081900360200190f35b6102e6610ab4565b34801561034957600080fd5b506103676004803603602081101561036057600080fd5b5035610cc6565b60408051918252519081900360200190f35b34801561038557600080fd5b5061038e610d54565b604080516001600160a01b039092168252519081900360200190f35b3480156103b657600080fd5b50610367610d63565b3480156103cb57600080fd5b50610367610d69565b3480156103e057600080fd5b50610367600480360360208110156103f757600080fd5b5035610d6f565b34801561040a57600080fd5b506102e66004803603602081101561042157600080fd5b5035610d84565b34801561043457600080fd5b506102e66004803603604081101561044b57600080fd5b50803590602001356001600160a01b0316610e80565b34801561046d57600080fd5b506102e66004803603602081101561048457600080fd5b5035610eec565b34801561049757600080fd5b506102e6600480360360408110156104ae57600080fd5b50803590602001356001600160a01b0316611208565b3480156104d057600080fd5b50610321611269565b3480156104e557600080fd5b506102e6611272565b6102e66004803603602081101561050457600080fd5b50356112d4565b34801561051757600080fd5b506103676114b7565b34801561052c57600080fd5b506102e66004803603602081101561054357600080fd5b50356114ee565b34801561055657600080fd5b50610321611584565b34801561056b57600080fd5b506102e661158d565b34801561058057600080fd5b506103676116fe565b34801561059557600080fd5b50610367611704565b3480156105aa57600080fd5b5061038e61170d565b3480156105bf57600080fd5b506102e661171c565b3480156105d457600080fd5b506103676117be565b3480156105e957600080fd5b506103676004803603602081101561060057600080fd5b50356001600160a01b03166117c4565b34801561061c57600080fd5b5061038e611848565b34801561063157600080fd5b506102e6611857565b34801561064657600080fd5b506103676004803603602081101561065d57600080fd5b50356118b7565b34801561067057600080fd5b5061068e6004803603602081101561068757600080fd5b5035611991565b604080519485526020850193909352838301919091526001600160a01b03166060830152519081900360800190f35b3480156106c957600080fd5b5061038e6119c1565b3480156106de57600080fd5b5061038e600480360360408110156106f557600080fd5b50803590602001356119d0565b34801561070e57600080fd5b506103216004803603604081101561072557600080fd5b50803590602001356001600160a01b03166119f5565b34801561074757600080fd5b506107656004803603602081101561075e57600080fd5b5035611a13565b6040805194855260208501939093526001600160a01b03909116838301526060830152519081900360800190f35b6102e6600480360360408110156107a957600080fd5b5080359060200135611a7a565b3480156107c257600080fd5b5061038e611d73565b3480156107d757600080fd5b506102e6600480360360208110156107ee57600080fd5b5035611d82565b34801561080157600080fd5b5061036761203e565b34801561081657600080fd5b506103676004803603602081101561082d57600080fd5b5035612043565b34801561084057600080fd5b506102e66004803603602081101561085757600080fd5b503561208d565b34801561086a57600080fd5b506102e6612123565b34801561087f57600080fd5b506103676004803603602081101561089657600080fd5b50356001600160a01b03166121f6565b3480156108b257600080fd5b506102e6600480360360208110156108c957600080fd5b5035612208565b3480156108dc57600080fd5b5061038e612485565b3480156108f157600080fd5b506103676004803603602081101561090857600080fd5b5035612494565b34801561091b57600080fd5b506102e66004803603602081101561093257600080fd5b50356124ab565b34801561094557600080fd5b506102e66004803603604081101561095c57600080fd5b50803590602001356001600160a01b0316612766565b34801561097e57600080fd5b506103676004803603602081101561099557600080fd5b50356127bf565b3480156109a857600080fd5b506102e6600480360360208110156109bf57600080fd5b50356001600160a01b03166128d5565b3480156109db57600080fd5b506102e660048036036101208110156109f357600080fd5b508035906020810135906040810135906060810135906001600160a01b03608082013581169160a081013582169160c082013581169160e081013582169161010090910135166129cd565b348015610a4a57600080fd5b50610367612b73565b348015610a5f57600080fd5b5061036760048036036020811015610a7657600080fd5b5035612b79565b60006001600160e01b0319821663279d6ac360e21b1480610aae57506001600160e01b031982166301ffc9a760e01b145b92915050565b600280541415610af9576040805162461bcd60e51b815260206004820152601f60248201526000805160206134fb833981519152604482015290519081900360640190fd5b60028055336000908152600e6020526040902054610b51576040805162461bcd60e51b815260206004820152601060248201526f139bc815985d5b1d0818dc99585d195960821b604482015290519081900360640190fd5b60035460ff1615610b9c576040805162461bcd60e51b815260206004820152601060248201526f14185d5cd8589b194e881c185d5cd95960821b604482015290519081900360640190fd5b60003411610be4576040805162461bcd60e51b815260206004820152601060248201526f056616c75652063616e277420626520360841b604482015290519081900360640190fd5b600760009054906101000a90046001600160a01b03166001600160a01b031663d0e30db0346040518263ffffffff1660e01b81526004016000604051808303818588803b158015610c3457600080fd5b505af1158015610c48573d6000803e3d6000fd5b5050336000908152600e60209081526040808320548352600f90915290206001810154909350610c81925090503463ffffffff612bce16565b6001820155805460408051348152905133917f31ac33c8e5d32723055870a2be01442545a84680341c886373c957110bc175dc919081900360200190a3506001600255565b600080610cd2836127bf565b90506000610cde6114b7565b600854909150600090610cf9906001600160a01b03166117c4565b90506000610d346064610d28610d1b6064600d54612bce90919063ffffffff16565b879063ffffffff612c2816565b9063ffffffff612c8116565b9050610d4a82610d28838663ffffffff612c2816565b9695505050505050565b6006546001600160a01b031681565b600a5481565b600d5481565b60009081526001602052604090206002015490565b610d8c612cc3565b6000546001600160a01b03908116911614610ddc576040805162461bcd60e51b815260206004820181905260248201526000805160206135b5833981519152604482015290519081900360640190fd5b600b54610df082606463ffffffff612bce16565b10610e42576040805162461bcd60e51b815260206004820152601c60248201527f4c69717569646174696f6e2070656e616c747920746f6f206869676800000000604482015290519081900360640190fd5b600d81905560408051828152905133917f6fdf5e426cb97389332e6d1c998d5123734bd7f204aa29b4a8284734c7aaa0ae919081900360200190a250565b600082815260016020526040902060020154610ea390610e9e612cc3565b6119f5565b610ede5760405162461bcd60e51b815260040180806020018281038252602f8152602001806134cc602f913960400191505060405180910390fd5b610ee88282612cc7565b5050565b600280541415610f31576040805162461bcd60e51b815260206004820152601f60248201526000805160206134fb833981519152604482015290519081900360640190fd5b60028055336000908152600e6020526040902054610f89576040805162461bcd60e51b815260206004820152601060248201526f139bc815985d5b1d0818dc99585d195960821b604482015290519081900360640190fd5b60035460ff1615610fd4576040805162461bcd60e51b815260206004820152601060248201526f14185d5cd8589b194e881c185d5cd95960821b604482015290519081900360640190fd5b808061101a576040805162461bcd60e51b815260206004820152601060248201526f056616c75652063616e277420626520360841b604482015290519081900360640190fd5b336000908152600e60209081526040808320548352600f90915281208054909190611044906118b7565b905083826001015410156110895760405162461bcd60e51b81526004018080602001828103825260408152602001806136226040913960400191505060405180910390fd5b600182015461109e908563ffffffff612d3616565b600183015580156110f457600b5482546110b7906118b7565b10156110f45760405162461bcd60e51b815260040180806020018281038252602381526020018061351b6023913960400191505060405180910390fd5b6007546040805163a9059cbb60e01b81523360048201526024810187905290516001600160a01b039092169163a9059cbb916044808201926020929091908290030181600087803b15801561114857600080fd5b505af115801561115c573d6000803e3d6000fd5b505050506040513d602081101561117257600080fd5b50516111c5576040805162461bcd60e51b815260206004820152601e60248201527f4552433230207472616e7366657220646964206e6f7420737563636565640000604482015290519081900360640190fd5b815460408051868152905133917f9b849e292191860667c493bd0657a5c71fd2350e4645303bddfc435da85c7c20919081900360200190a3505060016002555050565b611210612cc3565b6001600160a01b0316816001600160a01b03161461125f5760405162461bcd60e51b815260040180806020018281038252602f815260200180613662602f913960400191505060405180910390fd5b610ee88282612d78565b60105460ff1681565b61127a612cc3565b6000546001600160a01b039081169116146112ca576040805162461bcd60e51b815260206004820181905260248201526000805160206135b5833981519152604482015290519081900360640190fd5b6112d2612de7565b565b600280541415611319576040805162461bcd60e51b815260206004820152601f60248201526000805160206134fb833981519152604482015290519081900360640190fd5b60028055336000908152600e6020526040902054611371576040805162461bcd60e51b815260206004820152601060248201526f139bc815985d5b1d0818dc99585d195960821b604482015290519081900360640190fd5b60035460ff16156113bc576040805162461bcd60e51b815260206004820152601060248201526f14185d5cd8589b194e881c185d5cd95960821b604482015290519081900360640190fd5b8080611402576040805162461bcd60e51b815260206004820152601060248201526f056616c75652063616e277420626520360841b604482015290519081900360640190fd5b61140a613478565b50336000908152600e60209081526040808320548352600f8252918290208251608081018452815481526001820154928101929092526002810154928201929092526003909101546001600160a01b0316606082015261146983612e85565b80516114759084612ee6565b805160408051858152905133917f21cb60dab84f5815c7c4197b8935326f424383c894633344b495319ada0658aa919081900360200190a35050600160025550565b60065460009081906114d1906001600160a01b03166117c4565b90506114e8600a5482612c8190919063ffffffff16565b91505090565b6114f6612cc3565b6000546001600160a01b03908116911614611546576040805162461bcd60e51b815260206004820181905260248201526000805160206135b5833981519152604482015290519081900360640190fd5b600c81905560408051828152905133917f8cee12d433ab3655cf1b6189969ae35611c638f002d75202b4c8f260746ef20f919081900360200190a250565b60035460ff1690565b60035460ff16156115d8576040805162461bcd60e51b815260206004820152601060248201526f14185d5cd8589b194e881c185d5cd95960821b604482015290519081900360640190fd5b336000908152600e602052604090205415611632576040805162461bcd60e51b815260206004820152601560248201527415985d5b1d08185b1c9958591e4818dc99585d1959605a1b604482015290519081900360640190fd5b600061163e6004612fd7565b336000908152600e60205260409020819055905061165a613478565b5060408051608081018252828152600060208083018281528385018381523360608601908152878552600f909352949092208351815591516001830155925160028201559151600390920180546001600160a01b0319166001600160a01b03909316929092179091556116cd6004612bb0565b604051829033907f2fc6c3ac0740e97bb7c9a7b06221dafe87b5286c5076d86c8cb78bf1de9bd40a90600090a35050565b60045481565b6402540be40081565b6005546001600160a01b031681565b611724612cc3565b6000546001600160a01b03908116911614611774576040805162461bcd60e51b815260206004820181905260248201526000805160206135b5833981519152604482015290519081900360640190fd5b600080546040516001600160a01b03909116907f8be0079c531659141344cd1fd0a4f28419497f9722a3daafe3b4186f6b6457e0908390a3600080546001600160a01b0319169055565b600b5481565b6000610aae6402540be40061183c846001600160a01b03166396237c026040518163ffffffff1660e01b815260040160206040518083038186803b15801561180b57600080fd5b505afa15801561181f573d6000803e3d6000fd5b505050506040513d602081101561183557600080fd5b5051612fdb565b9063ffffffff612c2816565b6008546001600160a01b031681565b61185f612cc3565b6000546001600160a01b039081169116146118af576040805162461bcd60e51b815260206004820181905260248201526000805160206135b5833981519152604482015290519081900360640190fd5b6112d2613036565b60006118c1613478565b506000828152600f602090815260409182902082516080810184528154808252600183015493820193909352600282015493810193909352600301546001600160a01b03166060830152158061191957506040810151155b15611927576000915061198b565b60085460009061193f906001600160a01b03166117c4565b905061198761196061194f6114b7565b60408501519063ffffffff612c2816565b6020840151610d289061197a90606463ffffffff612c2816565b849063ffffffff612c2816565b9250505b50919050565b600f602052600090815260409020805460018201546002830154600390930154919290916001600160a01b031684565b6000546001600160a01b031690565b60008281526001602052604081206119ee908363ffffffff6130b716565b9392505050565b60008281526001602052604081206119ee908363ffffffff6130c316565b600080600080611a21613478565b50505060009283525050600f602090815260409182902082516080810184528154808252600183015493820184905260028301549482018590526003909201546001600160a01b03166060909101819052909391929091565b600280541415611abf576040805162461bcd60e51b815260206004820152601f60248201526000805160206134fb833981519152604482015290519081900360640190fd5b6002805560035460ff1615611b0e576040805162461bcd60e51b815260206004820152601060248201526f14185d5cd8589b194e881c185d5cd95960821b604482015290519081900360640190fd5b6000828152600f602052604090208054611b62576040805162461bcd60e51b815260206004820152601060248201526f139bc815985d5b1d0818dc99585d195960821b604482015290519081900360640190fd5b6000611b7182600001546118b7565b9050600b548110611bc9576040805162461bcd60e51b815260206004820152601760248201527f5661756c74206973206e6f74206c697175696461626c65000000000000000000604482015290519081900360640190fd5b6000611bd883600001546127bf565b9050808414611c185760405162461bcd60e51b815260040180806020018281038252602a8152602001806135f8602a913960400191505060405180910390fd5b6000611c278460000154610cc6565b9050611c3285612e85565b8354611c3e9086612ee6565b6001840154611c53908263ffffffff612d3616565b60018501556007546040805163a9059cbb60e01b81523360048201526024810184905290516001600160a01b039092169163a9059cbb916044808201926020929091908290030181600087803b158015611cac57600080fd5b505af1158015611cc0573d6000803e3d6000fd5b505050506040513d6020811015611cd657600080fd5b5051611d29576040805162461bcd60e51b815260206004820152601e60248201527f4552433230207472616e7366657220646964206e6f7420737563636565640000604482015290519081900360640190fd5b8354604080518481526020810184905281513393927fc07e3ac2fb130a0f07f1bdea4de0051bd1d99076a5a19c5d04e4a88cd73cdd5b928290030190a35050600160025550505050565b6009546001600160a01b031681565b600280541415611dc7576040805162461bcd60e51b815260206004820152601f60248201526000805160206134fb833981519152604482015290519081900360640190fd5b60028055336000908152600e6020526040902054611e1f576040805162461bcd60e51b815260206004820152601060248201526f139bc815985d5b1d0818dc99585d195960821b604482015290519081900360640190fd5b60035460ff1615611e6a576040805162461bcd60e51b815260206004820152601060248201526f14185d5cd8589b194e881c185d5cd95960821b604482015290519081900360640190fd5b8080611eb0576040805162461bcd60e51b815260206004820152601060248201526f056616c75652063616e277420626520360841b604482015290519081900360640190fd5b336000908152600e60209081526040808320548352600f909152812090611ed684612043565b90508082600101541015611f29576040805162461bcd60e51b8152602060048201526015602482015274139bdd08195b9bdd59da0818dbdb1b185d195c985b605a1b604482015290519081900360640190fd5b6002820154611f3e908563ffffffff612bce16565b6002830155600b548254611f51906118b7565b1015611f8e5760405162461bcd60e51b815260040180806020018281038252602381526020018061351b6023913960400191505060405180910390fd5b600554604080516340c10f1960e01b81523360048201526024810187905290516001600160a01b03909216916340c10f199160448082019260009290919082900301818387803b158015611fe157600080fd5b505af1158015611ff5573d6000803e3d6000fd5b505083546040805188815290519193503392507fa82a7ea15c804d00dba1b969024b510969fde70fac8e0d5da860cf1f7376d317919081900360200190a3505060016002555050565b600081565b60008061204e6114b7565b600854909150600090612069906001600160a01b03166117c4565b905061198781610d286064610d28600b5461183c8a89612c2890919063ffffffff16565b612095612cc3565b6000546001600160a01b039081169116146120e5576040805162461bcd60e51b815260206004820181905260248201526000805160206135b5833981519152604482015290519081900360640190fd5b600b81905560408051828152905133917f745333eadc1991720ed6c94ad80c7b81898a7d7ca230f4107bc38eecd95e9e45919081900360200190a250565b61212b612cc3565b6000546001600160a01b0390811691161461217b576040805162461bcd60e51b815260206004820181905260248201526000805160206135b5833981519152604482015290519081900360640190fd5b476121846119c1565b6001600160a01b03166108fc829081150290604051600060405180830381858888f193505050501580156121bc573d6000803e3d6000fd5b5060408051828152905133917fa0f15d6e433e5a79b54bc760ff6406f0a5f45d6b6ce085ff9a7d0481f6d28158919081900360200190a250565b600e6020526000908152604090205481565b60028054141561224d576040805162461bcd60e51b815260206004820152601f60248201526000805160206134fb833981519152604482015290519081900360640190fd5b60028055336000908152600e60205260409020546122a5576040805162461bcd60e51b815260206004820152601060248201526f139bc815985d5b1d0818dc99585d195960821b604482015290519081900360640190fd5b60035460ff16156122f0576040805162461bcd60e51b815260206004820152601060248201526f14185d5cd8589b194e881c185d5cd95960821b604482015290519081900360640190fd5b8080612336576040805162461bcd60e51b815260206004820152601060248201526f056616c75652063616e277420626520360841b604482015290519081900360640190fd5b600754604080516323b872dd60e01b81523360048201523060248201526044810185905290516001600160a01b03909216916323b872dd916064808201926020929091908290030181600087803b15801561239057600080fd5b505af11580156123a4573d6000803e3d6000fd5b505050506040513d60208110156123ba57600080fd5b505161240d576040805162461bcd60e51b815260206004820152601e60248201527f4552433230207472616e7366657220646964206e6f7420737563636565640000604482015290519081900360640190fd5b336000908152600e60209081526040808320548352600f9091529020600181015461243e908463ffffffff612bce16565b6001820155805460408051858152905133917f31ac33c8e5d32723055870a2be01442545a84680341c886373c957110bc175dc919081900360200190a35050600160025550565b6007546001600160a01b031681565b6000818152600160205260408120610aae906130d8565b6002805414156124f0576040805162461bcd60e51b815260206004820152601f60248201526000805160206134fb833981519152604482015290519081900360640190fd5b60028055336000908152600e6020526040902054612548576040805162461bcd60e51b815260206004820152601060248201526f139bc815985d5b1d0818dc99585d195960821b604482015290519081900360640190fd5b60035460ff1615612593576040805162461bcd60e51b815260206004820152601060248201526f14185d5cd8589b194e881c185d5cd95960821b604482015290519081900360640190fd5b600081116125db576040805162461bcd60e51b815260206004820152601060248201526f056616c75652063616e277420626520360841b604482015290519081900360640190fd5b336000908152600e60209081526040808320548352600f90915281208054909190612605906118b7565b9050828260010154101561264a5760405162461bcd60e51b81526004018080602001828103825260408152602001806136226040913960400191505060405180910390fd5b600182015461265f908463ffffffff612d3616565b600183015580156126b557600b548254612678906118b7565b10156126b55760405162461bcd60e51b815260040180806020018281038252602381526020018061351b6023913960400191505060405180910390fd5b60075460408051632e1a7d4d60e01b81526004810186905290516001600160a01b0390921691632e1a7d4d9160248082019260009290919082900301818387803b15801561270257600080fd5b505af1158015612716573d6000803e3d6000fd5b5050505061272433846130e3565b815460408051858152905133917f9b849e292191860667c493bd0657a5c71fd2350e4645303bddfc435da85c7c20919081900360200190a35050600160025550565b60008281526001602052604090206002015461278490610e9e612cc3565b61125f5760405162461bcd60e51b81526004018080602001828103825260308152602001806135646030913960400191505060405180910390fd5b60006127c9613478565b506000828152600f60209081526040808320815160808101835281548152600182015493810193909352600281015491830191909152600301546001600160a01b031660608201529061281a6114b7565b600854909150600090612835906001600160a01b03166117c4565b9050600061285483610d28848760200151612c2890919063ffffffff16565b9050600061288b606461183c8461287f6064610d28600b548c60400151612c2890919063ffffffff16565b9063ffffffff612d3616565b905060006128b76128a86064600d54612bce90919063ffffffff16565b600b549063ffffffff612d3616565b90506128c9828263ffffffff612c8116565b98975050505050505050565b6128dd612cc3565b6000546001600160a01b0390811691161461292d576040805162461bcd60e51b815260206004820181905260248201526000805160206135b5833981519152604482015290519081900360640190fd5b6001600160a01b0381166129725760405162461bcd60e51b815260040180806020018281038252602681526020018061353e6026913960400191505060405180910390fd5b600080546040516001600160a01b03808516939216917f8be0079c531659141344cd1fd0a4f28419497f9722a3daafe3b4186f6b6457e091a3600080546001600160a01b0319166001600160a01b0392909216919091179055565b6129d5612cc3565b6000546001600160a01b03908116911614612a25576040805162461bcd60e51b815260206004820181905260248201526000805160206135b5833981519152604482015290519081900360640190fd5b60105460ff1615612a7d576040805162461bcd60e51b815260206004820152601c60248201527f436f6e747261637420616c726561647920696e697469616c697a656400000000604482015290519081900360640190fd5b6010805460ff19166001179055600a899055600b889055600c879055600d869055600680546001600160a01b038088166001600160a01b0319928316811790935560078054878316908416811790915560088054878416908516811790915560098054878516908616811790915560058054948b16949095168417909455604080518f8152602081018f90528082018e9052606081018d9052608081019690965260a086019390935260c085019190915260e0840152610100830191909152517fb9a545ccd588c3c684fce5229e17f46fcc82a229a43f23e82b745443f999ba01918190036101200190a1505050505050505050565b600c5481565b6009546000908190612b93906001600160a01b03166117c4565b90506119ee81610d286064610d28600c5461183c8961183c6114b7565b80546001019055565b60006119ee836001600160a01b0384166131db565b6000828201838110156119ee576040805162461bcd60e51b815260206004820152601b60248201527f536166654d6174683a206164646974696f6e206f766572666c6f770000000000604482015290519081900360640190fd5b600082612c3757506000610aae565b82820282848281612c4457fe5b04146119ee5760405162461bcd60e51b81526004018080602001828103825260218152602001806135946021913960400191505060405180910390fd5b60006119ee83836040518060400160405280601a81526020017f536166654d6174683a206469766973696f6e206279207a65726f000000000000815250613225565b3390565b6000828152600160205260409020612ce5908263ffffffff612bb916565b15610ee857612cf2612cc3565b6001600160a01b0316816001600160a01b0316837f2f8788117e7eff1d82e926ec794901d17c78024a50270940304540a733656f0d60405160405180910390a45050565b60006119ee83836040518060400160405280601e81526020017f536166654d6174683a207375627472616374696f6e206f766572666c6f7700008152506132c7565b6000828152600160205260409020612d96908263ffffffff61332116565b15610ee857612da3612cc3565b6001600160a01b0316816001600160a01b0316837ff6391f5c32d9c69d2a47ea670b442974b53935d1edc7fd64eb21e047a839171b60405160405180910390a45050565b60035460ff16612e35576040805162461bcd60e51b815260206004820152601460248201527314185d5cd8589b194e881b9bdd081c185d5cd95960621b604482015290519081900360640190fd5b6003805460ff191690557f5db9ee0a495bf2e6ff9c91a7834c1ba4fdd244a5e8aa4e537bd38aeae4b073aa612e68612cc3565b604080516001600160a01b039092168252519081900360200190a1565b6000612e9082612b79565b9050348114610ee8576040805162461bcd60e51b815260206004820181905260248201527f4275726e2066656520646966666572656e74207468616e207265717569726564604482015290519081900360640190fd5b6000828152600f602052604090206002810154821115612f4d576040805162461bcd60e51b815260206004820152601860248201527f416d6f756e742067726561746572207468616e20646562740000000000000000604482015290519081900360640190fd5b6002810154612f62908363ffffffff612d3616565b600282015560055460408051632770a7eb60e21b81523360048201526024810185905290516001600160a01b0390921691639dc29fac9160448082019260009290919082900301818387803b158015612fba57600080fd5b505af1158015612fce573d6000803e3d6000fd5b50505050505050565b5490565b600080821215613032576040805162461bcd60e51b815260206004820181905260248201527f53616665436173743a2076616c7565206d75737420626520706f736974697665604482015290519081900360640190fd5b5090565b60035460ff1615613081576040805162461bcd60e51b815260206004820152601060248201526f14185d5cd8589b194e881c185d5cd95960821b604482015290519081900360640190fd5b6003805460ff191660011790557f62e78cea01bee320cd4e420270b5ea74000d11b0c9f74754ebdbfc544b05a258612e68612cc3565b60006119ee8383613336565b60006119ee836001600160a01b03841661339a565b6000610aae82612fd7565b604080516000808252602082019092526001600160a01b0384169083906040518082805190602001908083835b6020831061312f5780518252601f199092019160209182019101613110565b6001836020036101000a03801982511681845116808217855250505050505090500191505060006040518083038185875af1925050503d8060008114613191576040519150601f19603f3d011682016040523d82523d6000602084013e613196565b606091505b50509050806131d65760405162461bcd60e51b81526004018080602001828103825260238152602001806135d56023913960400191505060405180910390fd5b505050565b60006131e7838361339a565b61321d57508154600181810184556000848152602080822090930184905584548482528286019093526040902091909155610aae565b506000610aae565b600081836132b15760405162461bcd60e51b81526004018080602001828103825283818151815260200191508051906020019080838360005b8381101561327657818101518382015260200161325e565b50505050905090810190601f1680156132a35780820380516001836020036101000a031916815260200191505b509250505060405180910390fd5b5060008385816132bd57fe5b0495945050505050565b600081848411156133195760405162461bcd60e51b815260206004820181815283516024840152835190928392604490910191908501908083836000831561327657818101518382015260200161325e565b505050900390565b60006119ee836001600160a01b0384166133b2565b815460009082106133785760405162461bcd60e51b81526004018080602001828103825260228152602001806134aa6022913960400191505060405180910390fd5b82600001828154811061338757fe5b9060005260206000200154905092915050565b60009081526001919091016020526040902054151590565b6000818152600183016020526040812054801561346e57835460001980830191908101906000908790839081106133e557fe5b906000526020600020015490508087600001848154811061340257fe5b60009182526020808320909101929092558281526001898101909252604090209084019055865487908061343257fe5b60019003818190600052602060002001600090559055866001016000878152602001908152602001600020600090556001945050505050610aae565b6000915050610aae565b604051806080016040528060008152602001600081526020016000815260200160006001600160a01b03168152509056fe456e756d657261626c655365743a20696e646578206f7574206f6620626f756e6473416363657373436f6e74726f6c3a2073656e646572206d75737420626520616e2061646d696e20746f206772616e745265656e7472616e637947756172643a207265656e7472616e742063616c6c00436f6c6c61746572616c2062656c6f77206d696e20726571756972656420726174696f4f776e61626c653a206e6577206f776e657220697320746865207a65726f2061646472657373416363657373436f6e74726f6c3a2073656e646572206d75737420626520616e2061646d696e20746f207265766f6b65536166654d6174683a206d756c7469706c69636174696f6e206f766572666c6f774f776e61626c653a2063616c6c6572206973206e6f7420746865206f776e65725472616e7366657248656c7065723a204554485f5452414e534645525f4641494c45444c69717569646174696f6e20616d6f756e7420646966666572656e74207468616e2072657175697265645472616e73616374696f6e207265766572746564207769746820526574726965766520616d6f756e7420686967686572207468616e20636f6c6c61746572616c416363657373436f6e74726f6c3a2063616e206f6e6c792072656e6f756e636520726f6c657320666f722073656c66a26469706673582212209d8c0b298f2742309f840c7fd78a29080e1c068d62779e3c123172b79d0f028e64736f6c634300060800334f776e61626c653a206e6577206f776e657220697320746865207a65726f20616464726573738be0079c531659141344cd1fd0a4f28419497f9722a3daafe3b4186f6b6457e0",
  "devdoc": {
    "author": "Cristian Espinoza",
    "methods": {
      "TCAPPrice()": {
        "details": "TCAP token is 18 decimalsoracle totalMarketPrice must be in wei formatP = M / d P = TCAP Token Price M = Total Crypto Market Cap d = Divisor",
        "returns": {
          "price": "of the TCAP Token"
        }
      },
      "addCollateral(uint256)": {
        "details": "_amount should be higher than 0",
        "params": {
          "_amount": "of collateral to add"
        }
      },
      "addCollateralETH()": {
        "details": "value should be higher than 0"
      },
      "burn(uint256)": {
        "details": "_amount should be higher than 0",
        "params": {
          "_amount": "of tokens to burn"
        }
      },
      "createVault()": {
        "details": "Only one vault per address can be created"
      },
      "getFee(uint256)": {
        "details": "The returned value is returned in weif = ((P * A * b)/ 100) f = Burn Fee Value P = TCAP Token Price A = Amount to Burn b = Burn Fee %",
        "params": {
          "_amount": "to burn"
        },
        "returns": {
          "fee": "fee"
        }
      },
      "getRoleAdmin(bytes32)": {
        "details": "Returns the admin role that controls `role`. See {grantRole} and {revokeRole}.     * To change a role's admin, use {_setRoleAdmin}."
      },
      "getRoleMember(bytes32,uint256)": {
        "details": "Returns one of the accounts that have `role`. `index` must be a value between 0 and {getRoleMemberCount}, non-inclusive.     * Role bearers are not sorted in any particular way, and their ordering may change at any point.     * WARNING: When using {getRoleMember} and {getRoleMemberCount}, make sure you perform all queries on the same block. See the following https://forum.openzeppelin.com/t/iterating-over-elements-on-enumerableset-in-openzeppelin-contracts/2296[forum post] for more information."
      },
      "getRoleMemberCount(bytes32)": {
        "details": "Returns the number of accounts that have `role`. Can be used together with {getRoleMember} to enumerate all bearers of a role."
      },
      "getVault(uint256)": {
        "params": {
          "_id": "of vault"
        },
        "returns": {
          "_0": "Id, Collateral, Owner, Debt"
        }
      },
      "getVaultRatio(uint256)": {
        "details": "vr = (cp * (C * 100)) / D * P vr = Vault Ratio C = Vault Collateral cp = Collateral Price D = Vault Debt P = TCAP Token Price",
        "params": {
          "_vaultId": "id of vault"
        },
        "returns": {
          "currentRatio": "currentRatio"
        }
      },
      "grantRole(bytes32,address)": {
        "details": "Grants `role` to `account`.     * If `account` had not been already granted `role`, emits a {RoleGranted} event.     * Requirements:     * - the caller must have ``role``'s admin role."
      },
      "hasRole(bytes32,address)": {
        "details": "Returns `true` if `account` has been granted `role`."
      },
      "initialize(uint256,uint256,uint256,uint256,address,address,address,address,address)": {
        "details": "Only owner can call itCan only be called once",
        "params": {
          "_burnFee": "uint256",
          "_collateralAddress": "address",
          "_collateralOracle": "address",
          "_divisor": "uint256",
          "_ethOracle": "address",
          "_liquidationPenalty": "uint256",
          "_ratio": "uint256",
          "_tcapAddress": "address",
          "_tcapOracle": "address"
        }
      },
      "liquidateVault(uint256,uint256)": {
        "params": {
          "_requiredTCAP": "amount of TCAP to liquidate vault",
          "_vaultId": "to liquidate"
        }
      },
      "liquidationReward(uint256)": {
        "details": "the returned value is returned on the vault collateralR = (LT * (p  + 100)) / 100 R = Liquidation Reward LT = Required Liquidation TCAP p = liquidation penalty",
        "params": {
          "_vaultId": "of the vault to liquidate"
        },
        "returns": {
          "rewardCollateral": "for liquidating Vault"
        }
      },
      "mint(uint256)": {
        "details": "_amount should be higher than 0",
        "params": {
          "_amount": "of tokens to mint"
        }
      },
      "owner()": {
        "details": "Returns the address of the current owner."
      },
      "paused()": {
        "details": "Returns true if the contract is paused, and false otherwise."
      },
      "removeCollateral(uint256)": {
        "details": "_amount should be higher than 0",
        "params": {
          "_amount": "of collateral to remove"
        }
      },
      "removeCollateralETH(uint256)": {
        "details": "_amount should be higher than 0",
        "params": {
          "_amount": "of collateral to remove"
        }
      },
      "renounceOwnership()": {
        "details": "Leaves the contract without owner. It will not be possible to call `onlyOwner` functions anymore. Can only be called by the current owner.     * NOTE: Renouncing ownership will leave the contract without an owner, thereby removing any functionality that is only available to the owner."
      },
      "renounceRole(bytes32,address)": {
        "details": "Revokes `role` from the calling account.     * Roles are often managed via {grantRole} and {revokeRole}: this function's purpose is to provide a mechanism for accounts to lose their privileges if they are compromised (such as when a trusted device is misplaced).     * If the calling account had been granted `role`, emits a {RoleRevoked} event.     * Requirements:     * - the caller must be `account`."
      },
      "requiredCollateral(uint256)": {
        "details": "TCAP token is 18 decimalsC = ((P * A * r) / 100) / cp C = Required Collateral P = TCAP Token Price A = Amount to Mint cp = Collateral Price r = Minimun Ratio for Liquidation Is only divided by 100 as eth price comes in wei to cancel the additional 0s",
        "params": {
          "_amount": "uint amount to mint"
        },
        "returns": {
          "collateral": "of the TCAP Token"
        }
      },
      "requiredLiquidationTCAP(uint256)": {
        "details": "LT = ((((D * r) / 100) - cTcap) * 100) / (r - (p + 100)) cTcap = ((C * cp) / P) LT = Required TCAP D = Vault Debt C = Required Collateral P = TCAP Token Price cp = Collateral Price r = Min Vault Ratio p = Liquidation Penalty",
        "params": {
          "_vaultId": "of the vault to liquidate"
        },
        "returns": {
          "amount": "required of the TCAP Token"
        }
      },
      "revokeRole(bytes32,address)": {
        "details": "Revokes `role` from `account`.     * If `account` had been granted `role`, emits a {RoleRevoked} event.     * Requirements:     * - the caller must have ``role``'s admin role."
      },
      "setBurnFee(uint256)": {
        "details": "Only owner can call it",
        "params": {
          "_burnFee": "uint"
        }
      },
      "setLiquidationPenalty(uint256)": {
        "details": "Only owner can call it",
        "params": {
          "_liquidationPenalty": "uint"
        }
      },
      "setRatio(uint256)": {
        "details": "Only owner can call it",
        "params": {
          "_ratio": "uint"
        }
      },
      "supportsInterface(bytes4)": {
        "params": {
          "interfaceId": "bytes of interface"
        },
        "returns": {
          "_0": "bool"
        }
      },
      "transferOwnership(address)": {
        "details": "Transfers ownership of the contract to a new account (`newOwner`). Can only be called by the current owner."
      }
    },
    "title": "TCAP Vault"
  },
  "userdoc": {
    "methods": {
      "TCAPPrice()": {
        "notice": "Returns the price of the TCAP token"
      },
      "addCollateral(uint256)": {
        "notice": "Adds collateral to vault"
      },
      "addCollateralETH()": {
        "notice": "Adds collateral to vault using ETH"
      },
      "burn(uint256)": {
        "notice": "Burns TCAP Tokens releasing the staked collateral"
      },
      "createVault()": {
        "notice": "Creates a Vault"
      },
      "getFee(uint256)": {
        "notice": "Returns the required fee to burn the TCAP tokens"
      },
      "getVault(uint256)": {
        "notice": "Returns the Vault information"
      },
      "getVaultRatio(uint256)": {
        "notice": "Returns the Collateral Ratio of the Vault"
      },
      "initialize(uint256,uint256,uint256,uint256,address,address,address,address,address)": {
        "notice": "Allows the orchestrator to initialize the contract"
      },
      "liquidateVault(uint256,uint256)": {
        "notice": "Allow users to liquidate vaults with low collateral ratio"
      },
      "liquidationReward(uint256)": {
        "notice": "Returns Reward for liquidating a vault"
      },
      "mint(uint256)": {
        "notice": "Mints TCAP Tokens staking the collateral"
      },
      "pause()": {
        "notice": "Allows owner to Pause the Contract"
      },
      "removeCollateral(uint256)": {
        "notice": "Removes not used collateral from vault"
      },
      "removeCollateralETH(uint256)": {
        "notice": "Removes not used collateral from vault"
      },
      "requiredCollateral(uint256)": {
        "notice": "Returns the minimal required collateral to mint TCAP token"
      },
      "requiredLiquidationTCAP(uint256)": {
        "notice": "Returns the minimal required TCAP to liquidate a Vault"
      },
      "retrieveFees()": {
        "notice": "Sends the owner of the contract the Fees saved on ETH"
      },
      "setBurnFee(uint256)": {
        "notice": "Sets the burn fee percentage an user pays when burning tcap tokens"
      },
      "setLiquidationPenalty(uint256)": {
        "notice": "Sets the liquidation penalty % charged on liquidation"
      },
      "setRatio(uint256)": {
        "notice": "Sets the collateral ratio needed to mint tokens"
      },
      "supportsInterface(bytes4)": {
        "notice": "ERC165 Standard for support of interfaces"
      },
      "unpause()": {
        "notice": "Allows owner to Unpause the Contract"
      }
    },
    "notice": "Contract in charge of handling the TCAP Vault and stake using a ETH and WETH"
  },
  "storageLayout": {
    "storage": [
      {
        "astId": 359,
        "contract": "contracts/ETHVaultHandler.sol:ETHVaultHandler",
        "label": "_owner",
        "offset": 0,
        "slot": "0",
        "type": "t_address"
      },
      {
        "astId": 91,
        "contract": "contracts/ETHVaultHandler.sol:ETHVaultHandler",
        "label": "_roles",
        "offset": 0,
        "slot": "1",
        "type": "t_mapping(t_bytes32,t_struct(RoleData)87_storage)"
      },
      {
        "astId": 2175,
        "contract": "contracts/ETHVaultHandler.sol:ETHVaultHandler",
        "label": "_status",
        "offset": 0,
        "slot": "2",
        "type": "t_uint256"
      },
      {
        "astId": 2092,
        "contract": "contracts/ETHVaultHandler.sol:ETHVaultHandler",
        "label": "_paused",
        "offset": 0,
        "slot": "3",
        "type": "t_bool"
      },
      {
        "astId": 2875,
        "contract": "contracts/ETHVaultHandler.sol:ETHVaultHandler",
        "label": "counter",
        "offset": 0,
        "slot": "4",
        "type": "t_struct(Counter)1639_storage"
      },
      {
        "astId": 2886,
        "contract": "contracts/ETHVaultHandler.sol:ETHVaultHandler",
        "label": "TCAPToken",
        "offset": 0,
        "slot": "5",
        "type": "t_contract(TCAP)5037"
      },
      {
        "astId": 2888,
        "contract": "contracts/ETHVaultHandler.sol:ETHVaultHandler",
        "label": "tcapOracle",
        "offset": 0,
        "slot": "6",
        "type": "t_contract(ChainlinkOracle)5828"
      },
      {
        "astId": 2890,
        "contract": "contracts/ETHVaultHandler.sol:ETHVaultHandler",
        "label": "collateralContract",
        "offset": 0,
        "slot": "7",
        "type": "t_contract(IERC20)1425"
      },
      {
        "astId": 2892,
        "contract": "contracts/ETHVaultHandler.sol:ETHVaultHandler",
        "label": "collateralPriceOracle",
        "offset": 0,
        "slot": "8",
        "type": "t_contract(ChainlinkOracle)5828"
      },
      {
        "astId": 2894,
        "contract": "contracts/ETHVaultHandler.sol:ETHVaultHandler",
        "label": "ETHPriceOracle",
        "offset": 0,
        "slot": "9",
        "type": "t_contract(ChainlinkOracle)5828"
      },
      {
        "astId": 2896,
        "contract": "contracts/ETHVaultHandler.sol:ETHVaultHandler",
        "label": "divisor",
        "offset": 0,
        "slot": "10",
        "type": "t_uint256"
      },
      {
        "astId": 2898,
        "contract": "contracts/ETHVaultHandler.sol:ETHVaultHandler",
        "label": "ratio",
        "offset": 0,
        "slot": "11",
        "type": "t_uint256"
      },
      {
        "astId": 2900,
        "contract": "contracts/ETHVaultHandler.sol:ETHVaultHandler",
        "label": "burnFee",
        "offset": 0,
        "slot": "12",
        "type": "t_uint256"
      },
      {
        "astId": 2902,
        "contract": "contracts/ETHVaultHandler.sol:ETHVaultHandler",
        "label": "liquidationPenalty",
        "offset": 0,
        "slot": "13",
        "type": "t_uint256"
      },
      {
        "astId": 2906,
        "contract": "contracts/ETHVaultHandler.sol:ETHVaultHandler",
        "label": "userToVault",
        "offset": 0,
        "slot": "14",
        "type": "t_mapping(t_address,t_uint256)"
      },
      {
        "astId": 2910,
        "contract": "contracts/ETHVaultHandler.sol:ETHVaultHandler",
        "label": "vaults",
        "offset": 0,
        "slot": "15",
        "type": "t_mapping(t_uint256,t_struct(Vault)2884_storage)"
      },
      {
        "astId": 2913,
        "contract": "contracts/ETHVaultHandler.sol:ETHVaultHandler",
        "label": "isInitialized",
        "offset": 0,
        "slot": "16",
        "type": "t_bool"
      }
    ],
    "types": {
      "t_address": {
        "encoding": "inplace",
        "label": "address",
        "numberOfBytes": "20"
      },
      "t_array(t_bytes32)dyn_storage": {
        "base": "t_bytes32",
        "encoding": "dynamic_array",
        "label": "bytes32[]",
        "numberOfBytes": "32"
      },
      "t_bool": {
        "encoding": "inplace",
        "label": "bool",
        "numberOfBytes": "1"
      },
      "t_bytes32": {
        "encoding": "inplace",
        "label": "bytes32",
        "numberOfBytes": "32"
      },
      "t_contract(ChainlinkOracle)5828": {
        "encoding": "inplace",
        "label": "contract ChainlinkOracle",
        "numberOfBytes": "20"
      },
      "t_contract(IERC20)1425": {
        "encoding": "inplace",
        "label": "contract IERC20",
        "numberOfBytes": "20"
      },
      "t_contract(TCAP)5037": {
        "encoding": "inplace",
        "label": "contract TCAP",
        "numberOfBytes": "20"
      },
      "t_mapping(t_address,t_uint256)": {
        "encoding": "mapping",
        "key": "t_address",
        "label": "mapping(address => uint256)",
        "numberOfBytes": "32",
        "value": "t_uint256"
      },
      "t_mapping(t_bytes32,t_struct(RoleData)87_storage)": {
        "encoding": "mapping",
        "key": "t_bytes32",
        "label": "mapping(bytes32 => struct AccessControl.RoleData)",
        "numberOfBytes": "32",
        "value": "t_struct(RoleData)87_storage"
      },
      "t_mapping(t_bytes32,t_uint256)": {
        "encoding": "mapping",
        "key": "t_bytes32",
        "label": "mapping(bytes32 => uint256)",
        "numberOfBytes": "32",
        "value": "t_uint256"
      },
      "t_mapping(t_uint256,t_struct(Vault)2884_storage)": {
        "encoding": "mapping",
        "key": "t_uint256",
        "label": "mapping(uint256 => struct IVaultHandler.Vault)",
        "numberOfBytes": "32",
        "value": "t_struct(Vault)2884_storage"
      },
      "t_struct(AddressSet)1870_storage": {
        "encoding": "inplace",
        "label": "struct EnumerableSet.AddressSet",
        "members": [
          {
            "astId": 1869,
            "contract": "contracts/ETHVaultHandler.sol:ETHVaultHandler",
            "label": "_inner",
            "offset": 0,
            "slot": "0",
            "type": "t_struct(Set)1690_storage"
          }
        ],
        "numberOfBytes": "64"
      },
      "t_struct(Counter)1639_storage": {
        "encoding": "inplace",
        "label": "struct Counters.Counter",
        "members": [
          {
            "astId": 1638,
            "contract": "contracts/ETHVaultHandler.sol:ETHVaultHandler",
            "label": "_value",
            "offset": 0,
            "slot": "0",
            "type": "t_uint256"
          }
        ],
        "numberOfBytes": "32"
      },
      "t_struct(RoleData)87_storage": {
        "encoding": "inplace",
        "label": "struct AccessControl.RoleData",
        "members": [
          {
            "astId": 84,
            "contract": "contracts/ETHVaultHandler.sol:ETHVaultHandler",
            "label": "members",
            "offset": 0,
            "slot": "0",
            "type": "t_struct(AddressSet)1870_storage"
          },
          {
            "astId": 86,
            "contract": "contracts/ETHVaultHandler.sol:ETHVaultHandler",
            "label": "adminRole",
            "offset": 0,
            "slot": "2",
            "type": "t_bytes32"
          }
        ],
        "numberOfBytes": "96"
      },
      "t_struct(Set)1690_storage": {
        "encoding": "inplace",
        "label": "struct EnumerableSet.Set",
        "members": [
          {
            "astId": 1685,
            "contract": "contracts/ETHVaultHandler.sol:ETHVaultHandler",
            "label": "_values",
            "offset": 0,
            "slot": "0",
            "type": "t_array(t_bytes32)dyn_storage"
          },
          {
            "astId": 1689,
            "contract": "contracts/ETHVaultHandler.sol:ETHVaultHandler",
            "label": "_indexes",
            "offset": 0,
            "slot": "1",
            "type": "t_mapping(t_bytes32,t_uint256)"
          }
        ],
        "numberOfBytes": "64"
      },
      "t_struct(Vault)2884_storage": {
        "encoding": "inplace",
        "label": "struct IVaultHandler.Vault",
        "members": [
          {
            "astId": 2877,
            "contract": "contracts/ETHVaultHandler.sol:ETHVaultHandler",
            "label": "Id",
            "offset": 0,
            "slot": "0",
            "type": "t_uint256"
          },
          {
            "astId": 2879,
            "contract": "contracts/ETHVaultHandler.sol:ETHVaultHandler",
            "label": "Collateral",
            "offset": 0,
            "slot": "1",
            "type": "t_uint256"
          },
          {
            "astId": 2881,
            "contract": "contracts/ETHVaultHandler.sol:ETHVaultHandler",
            "label": "Debt",
            "offset": 0,
            "slot": "2",
            "type": "t_uint256"
          },
          {
            "astId": 2883,
            "contract": "contracts/ETHVaultHandler.sol:ETHVaultHandler",
            "label": "Owner",
            "offset": 0,
            "slot": "3",
            "type": "t_address"
          }
        ],
        "numberOfBytes": "128"
      },
      "t_uint256": {
        "encoding": "inplace",
        "label": "uint256",
        "numberOfBytes": "32"
      }
    }
  },
  "gasEstimates": {
    "creation": {
      "codeDepositCost": "2804400",
      "executionCost": "infinite",
      "totalCost": "infinite"
    },
    "external": {
      "DEFAULT_ADMIN_ROLE()": "331",
      "ETHPriceOracle()": "1126",
      "TCAPPrice()": "infinite",
      "TCAPToken()": "1149",
      "addCollateral(uint256)": "infinite",
      "addCollateralETH()": "infinite",
      "burn(uint256)": "infinite",
      "burnFee()": "1108",
      "collateralContract()": "1170",
      "collateralPriceOracle()": "1170",
      "counter()": "1066",
      "createVault()": "96545",
      "divisor()": "1133",
      "getFee(uint256)": "infinite",
      "getOraclePrice(address)": "infinite",
      "getRoleAdmin(bytes32)": "1158",
      "getRoleMember(bytes32,uint256)": "infinite",
      "getRoleMemberCount(bytes32)": "infinite",
      "getVault(uint256)": "3965",
      "getVaultRatio(uint256)": "infinite",
      "grantRole(bytes32,address)": "infinite",
      "hasRole(bytes32,address)": "infinite",
      "initialize(uint256,uint256,uint256,uint256,address,address,address,address,address)": "infinite",
      "isInitialized()": "1166",
      "liquidateVault(uint256,uint256)": "infinite",
      "liquidationPenalty()": "1155",
      "liquidationReward(uint256)": "infinite",
      "mint(uint256)": "infinite",
      "oracleDigits()": "288",
      "owner()": "1149",
      "pause()": "infinite",
      "paused()": "1144",
      "ratio()": "1087",
      "removeCollateral(uint256)": "infinite",
      "removeCollateralETH(uint256)": "infinite",
      "renounceOwnership()": "infinite",
      "renounceRole(bytes32,address)": "infinite",
      "requiredCollateral(uint256)": "infinite",
      "requiredLiquidationTCAP(uint256)": "infinite",
      "retrieveFees()": "infinite",
      "revokeRole(bytes32,address)": "infinite",
      "setBurnFee(uint256)": "infinite",
      "setLiquidationPenalty(uint256)": "infinite",
      "setRatio(uint256)": "infinite",
      "supportsInterface(bytes4)": "412",
      "tcapOracle()": "1150",
      "transferOwnership(address)": "infinite",
      "unpause()": "infinite",
      "userToVault(address)": "1213",
      "vaults(uint256)": "3740"
    },
    "internal": {
      "safeTransferETH(address,uint256)": "infinite"
    }
  }
}