{
  "abi": [
    {
      "anonymous": false,
      "inputs": [
        {
          "indexed": true,
          "internalType": "address",
          "name": "_owner",
          "type": "address"
        },
        {
          "indexed": true,
          "internalType": "uint256",
          "name": "_id",
          "type": "uint256"
        },
        {
          "indexed": false,
          "internalType": "uint256",
          "name": "_amount",
          "type": "uint256"
        }
      ],
      "name": "LogAddCollateral",
      "type": "event"
    },
    {
      "anonymous": false,
      "inputs": [
        {
          "indexed": true,
          "internalType": "address",
          "name": "_owner",
          "type": "address"
        },
        {
          "indexed": true,
          "internalType": "uint256",
          "name": "_id",
          "type": "uint256"
        },
        {
          "indexed": false,
          "internalType": "uint256",
          "name": "_amount",
          "type": "uint256"
        }
      ],
      "name": "LogBurn",
      "type": "event"
    },
    {
      "anonymous": false,
      "inputs": [
        {
          "indexed": true,
          "internalType": "address",
          "name": "_owner",
          "type": "address"
        },
        {
          "indexed": true,
          "internalType": "uint256",
          "name": "_id",
          "type": "uint256"
        }
      ],
      "name": "LogCreateVault",
      "type": "event"
    },
    {
      "anonymous": false,
      "inputs": [
        {
          "indexed": true,
          "internalType": "address",
          "name": "_owner",
          "type": "address"
        },
        {
          "indexed": false,
          "internalType": "bool",
          "name": "_enable",
          "type": "bool"
        }
      ],
      "name": "LogEnableWhitelist",
      "type": "event"
    },
    {
      "anonymous": false,
      "inputs": [
        {
          "indexed": true,
          "internalType": "uint256",
          "name": "_vaultId",
          "type": "uint256"
        },
        {
          "indexed": true,
          "internalType": "address",
          "name": "_liquidator",
          "type": "address"
        },
        {
          "indexed": false,
          "internalType": "uint256",
          "name": "_liquidationCollateral",
          "type": "uint256"
        },
        {
          "indexed": false,
          "internalType": "uint256",
          "name": "_reward",
          "type": "uint256"
        }
      ],
      "name": "LogLiquidateVault",
      "type": "event"
    },
    {
      "anonymous": false,
      "inputs": [
        {
          "indexed": true,
          "internalType": "address",
          "name": "_owner",
          "type": "address"
        },
        {
          "indexed": true,
          "internalType": "uint256",
          "name": "_id",
          "type": "uint256"
        },
        {
          "indexed": false,
          "internalType": "uint256",
          "name": "_amount",
          "type": "uint256"
        }
      ],
      "name": "LogMint",
      "type": "event"
    },
    {
      "anonymous": false,
      "inputs": [
        {
          "indexed": true,
          "internalType": "address",
          "name": "_owner",
          "type": "address"
        },
        {
          "indexed": true,
          "internalType": "uint256",
          "name": "_id",
          "type": "uint256"
        },
        {
          "indexed": false,
          "internalType": "uint256",
          "name": "_amount",
          "type": "uint256"
        }
      ],
      "name": "LogRemoveCollateral",
      "type": "event"
    },
    {
      "anonymous": false,
      "inputs": [
        {
          "indexed": true,
          "internalType": "address",
          "name": "_owner",
          "type": "address"
        },
        {
          "indexed": false,
          "internalType": "uint256",
          "name": "_amount",
          "type": "uint256"
        }
      ],
      "name": "LogRetrieveFees",
      "type": "event"
    },
    {
      "anonymous": false,
      "inputs": [
        {
          "indexed": true,
          "internalType": "address",
          "name": "_owner",
          "type": "address"
        },
        {
          "indexed": false,
          "internalType": "uint256",
          "name": "_burnFee",
          "type": "uint256"
        }
      ],
      "name": "LogSetBurnFee",
      "type": "event"
    },
    {
      "anonymous": false,
      "inputs": [
        {
          "indexed": true,
          "internalType": "address",
          "name": "_owner",
          "type": "address"
        },
        {
          "indexed": false,
          "internalType": "contract ERC20",
          "name": "_collateralContract",
          "type": "address"
        }
      ],
      "name": "LogSetCollateralContract",
      "type": "event"
    },
    {
      "anonymous": false,
      "inputs": [
        {
          "indexed": true,
          "internalType": "address",
          "name": "_owner",
          "type": "address"
        },
        {
          "indexed": false,
          "internalType": "contract ChainlinkOracle",
          "name": "_priceOracle",
          "type": "address"
        }
      ],
      "name": "LogSetCollateralPriceOracle",
      "type": "event"
    },
    {
      "anonymous": false,
      "inputs": [
        {
          "indexed": true,
          "internalType": "address",
          "name": "_owner",
          "type": "address"
        },
        {
          "indexed": false,
          "internalType": "uint256",
          "name": "_divisor",
          "type": "uint256"
        }
      ],
      "name": "LogSetDivisor",
      "type": "event"
    },
    {
      "anonymous": false,
      "inputs": [
        {
          "indexed": true,
          "internalType": "address",
          "name": "_owner",
          "type": "address"
        },
        {
          "indexed": false,
          "internalType": "uint256",
          "name": "_liquidationPenalty",
          "type": "uint256"
        }
      ],
      "name": "LogSetLiquidationPenalty",
      "type": "event"
    },
    {
      "anonymous": false,
      "inputs": [
        {
          "indexed": true,
          "internalType": "address",
          "name": "_owner",
          "type": "address"
        },
        {
          "indexed": false,
          "internalType": "uint256",
          "name": "_ratio",
          "type": "uint256"
        }
      ],
      "name": "LogSetRatio",
      "type": "event"
    },
    {
      "anonymous": false,
      "inputs": [
        {
          "indexed": true,
          "internalType": "address",
          "name": "_owner",
          "type": "address"
        },
        {
          "indexed": false,
          "internalType": "contract TcapOracle",
          "name": "_oracle",
          "type": "address"
        }
      ],
      "name": "LogSetTCAPOracle",
      "type": "event"
    },
    {
      "anonymous": false,
      "inputs": [
        {
          "indexed": true,
          "internalType": "address",
          "name": "_owner",
          "type": "address"
        },
        {
          "indexed": false,
          "internalType": "contract TCAPX",
          "name": "_token",
          "type": "address"
        }
      ],
      "name": "LogSetTCAPXContract",
      "type": "event"
    },
    {
      "anonymous": false,
      "inputs": [
        {
          "indexed": true,
          "internalType": "address",
          "name": "previousOwner",
          "type": "address"
        },
        {
          "indexed": true,
          "internalType": "address",
          "name": "newOwner",
          "type": "address"
        }
      ],
      "name": "OwnershipTransferred",
      "type": "event"
    },
    {
      "anonymous": false,
      "inputs": [
        {
          "indexed": false,
          "internalType": "address",
          "name": "account",
          "type": "address"
        }
      ],
      "name": "Paused",
      "type": "event"
    },
    {
      "anonymous": false,
      "inputs": [
        {
          "indexed": true,
          "internalType": "bytes32",
          "name": "role",
          "type": "bytes32"
        },
        {
          "indexed": true,
          "internalType": "address",
          "name": "account",
          "type": "address"
        },
        {
          "indexed": true,
          "internalType": "address",
          "name": "sender",
          "type": "address"
        }
      ],
      "name": "RoleGranted",
      "type": "event"
    },
    {
      "anonymous": false,
      "inputs": [
        {
          "indexed": true,
          "internalType": "bytes32",
          "name": "role",
          "type": "bytes32"
        },
        {
          "indexed": true,
          "internalType": "address",
          "name": "account",
          "type": "address"
        },
        {
          "indexed": true,
          "internalType": "address",
          "name": "sender",
          "type": "address"
        }
      ],
      "name": "RoleRevoked",
      "type": "event"
    },
    {
      "anonymous": false,
      "inputs": [
        {
          "indexed": false,
          "internalType": "address",
          "name": "account",
          "type": "address"
        }
      ],
      "name": "Unpaused",
      "type": "event"
    },
    {
      "inputs": [],
      "name": "DEFAULT_ADMIN_ROLE",
      "outputs": [
        {
          "internalType": "bytes32",
          "name": "",
          "type": "bytes32"
        }
      ],
      "stateMutability": "view",
      "type": "function"
    },
    {
      "inputs": [],
      "name": "INVESTOR_ROLE",
      "outputs": [
        {
          "internalType": "bytes32",
          "name": "",
          "type": "bytes32"
        }
      ],
      "stateMutability": "view",
      "type": "function"
    },
    {
      "inputs": [],
      "name": "TCAPXPrice",
      "outputs": [
        {
          "internalType": "uint256",
          "name": "price",
          "type": "uint256"
        }
      ],
      "stateMutability": "view",
      "type": "function"
    },
    {
      "inputs": [],
      "name": "TCAPXToken",
      "outputs": [
        {
          "internalType": "contract TCAPX",
          "name": "",
          "type": "address"
        }
      ],
      "stateMutability": "view",
      "type": "function"
    },
    {
      "inputs": [
        {
          "internalType": "uint256",
          "name": "_amount",
          "type": "uint256"
        }
      ],
      "name": "addCollateral",
      "outputs": [],
      "stateMutability": "nonpayable",
      "type": "function"
    },
    {
      "inputs": [
        {
          "internalType": "address",
          "name": "_investor",
          "type": "address"
        }
      ],
      "name": "addInvestor",
      "outputs": [],
      "stateMutability": "nonpayable",
      "type": "function"
    },
    {
      "inputs": [
        {
          "internalType": "uint256",
          "name": "_amount",
          "type": "uint256"
        }
      ],
      "name": "burn",
      "outputs": [],
      "stateMutability": "payable",
      "type": "function"
    },
    {
      "inputs": [],
      "name": "burnFee",
      "outputs": [
        {
          "internalType": "uint256",
          "name": "",
          "type": "uint256"
        }
      ],
      "stateMutability": "view",
      "type": "function"
    },
    {
      "inputs": [],
      "name": "collateralContract",
      "outputs": [
        {
          "internalType": "contract ERC20",
          "name": "",
          "type": "address"
        }
      ],
      "stateMutability": "view",
      "type": "function"
    },
    {
      "inputs": [],
      "name": "collateralPriceOracle",
      "outputs": [
        {
          "internalType": "contract ChainlinkOracle",
          "name": "",
          "type": "address"
        }
      ],
      "stateMutability": "view",
      "type": "function"
    },
    {
      "inputs": [],
      "name": "createVault",
      "outputs": [],
      "stateMutability": "nonpayable",
      "type": "function"
    },
    {
      "inputs": [],
      "name": "divisor",
      "outputs": [
        {
          "internalType": "uint256",
          "name": "",
          "type": "uint256"
        }
      ],
      "stateMutability": "view",
      "type": "function"
    },
    {
      "inputs": [
        {
          "internalType": "bool",
          "name": "_enable",
          "type": "bool"
        }
      ],
      "name": "enableWhitelist",
      "outputs": [],
      "stateMutability": "nonpayable",
      "type": "function"
    },
    {
      "inputs": [
        {
          "internalType": "uint256",
          "name": "_amount",
          "type": "uint256"
        }
      ],
      "name": "getFee",
      "outputs": [
        {
          "internalType": "uint256",
          "name": "fee",
          "type": "uint256"
        }
      ],
      "stateMutability": "view",
      "type": "function"
    },
    {
      "inputs": [
        {
          "internalType": "bytes32",
          "name": "role",
          "type": "bytes32"
        }
      ],
      "name": "getRoleAdmin",
      "outputs": [
        {
          "internalType": "bytes32",
          "name": "",
          "type": "bytes32"
        }
      ],
      "stateMutability": "view",
      "type": "function"
    },
    {
      "inputs": [
        {
          "internalType": "bytes32",
          "name": "role",
          "type": "bytes32"
        },
        {
          "internalType": "uint256",
          "name": "index",
          "type": "uint256"
        }
      ],
      "name": "getRoleMember",
      "outputs": [
        {
          "internalType": "address",
          "name": "",
          "type": "address"
        }
      ],
      "stateMutability": "view",
      "type": "function"
    },
    {
      "inputs": [
        {
          "internalType": "bytes32",
          "name": "role",
          "type": "bytes32"
        }
      ],
      "name": "getRoleMemberCount",
      "outputs": [
        {
          "internalType": "uint256",
          "name": "",
          "type": "uint256"
        }
      ],
      "stateMutability": "view",
      "type": "function"
    },
    {
      "inputs": [
        {
          "internalType": "uint256",
          "name": "_id",
          "type": "uint256"
        }
      ],
      "name": "getVault",
      "outputs": [
        {
          "internalType": "uint256",
          "name": "",
          "type": "uint256"
        },
        {
          "internalType": "uint256",
          "name": "",
          "type": "uint256"
        },
        {
          "internalType": "address",
          "name": "",
          "type": "address"
        },
        {
          "internalType": "uint256",
          "name": "",
          "type": "uint256"
        }
      ],
      "stateMutability": "view",
      "type": "function"
    },
    {
      "inputs": [
        {
          "internalType": "uint256",
          "name": "_vaultId",
          "type": "uint256"
        }
      ],
      "name": "getVaultRatio",
      "outputs": [
        {
          "internalType": "uint256",
          "name": "currentRatio",
          "type": "uint256"
        }
      ],
      "stateMutability": "view",
      "type": "function"
    },
    {
      "inputs": [
        {
          "internalType": "bytes32",
          "name": "role",
          "type": "bytes32"
        },
        {
          "internalType": "address",
          "name": "account",
          "type": "address"
        }
      ],
      "name": "grantRole",
      "outputs": [],
      "stateMutability": "nonpayable",
      "type": "function"
    },
    {
      "inputs": [
        {
          "internalType": "bytes32",
          "name": "role",
          "type": "bytes32"
        },
        {
          "internalType": "address",
          "name": "account",
          "type": "address"
        }
      ],
      "name": "hasRole",
      "outputs": [
        {
          "internalType": "bool",
          "name": "",
          "type": "bool"
        }
      ],
      "stateMutability": "view",
      "type": "function"
    },
    {
      "inputs": [
        {
          "internalType": "uint256",
          "name": "_vaultId",
          "type": "uint256"
        },
        {
          "internalType": "uint256",
          "name": "requiredCollateral",
          "type": "uint256"
        }
      ],
      "name": "liquidateVault",
      "outputs": [],
      "stateMutability": "payable",
      "type": "function"
    },
    {
      "inputs": [],
      "name": "liquidationPenalty",
      "outputs": [
        {
          "internalType": "uint256",
          "name": "",
          "type": "uint256"
        }
      ],
      "stateMutability": "view",
      "type": "function"
    },
    {
      "inputs": [
        {
          "internalType": "uint256",
          "name": "_vaultId",
          "type": "uint256"
        }
      ],
      "name": "liquidationReward",
      "outputs": [
        {
          "internalType": "uint256",
          "name": "reward",
          "type": "uint256"
        }
      ],
      "stateMutability": "view",
      "type": "function"
    },
    {
      "inputs": [
        {
          "internalType": "uint256",
          "name": "_amount",
          "type": "uint256"
        }
      ],
      "name": "mint",
      "outputs": [],
      "stateMutability": "nonpayable",
      "type": "function"
    },
    {
      "inputs": [],
      "name": "owner",
      "outputs": [
        {
          "internalType": "address",
          "name": "",
          "type": "address"
        }
      ],
      "stateMutability": "view",
      "type": "function"
    },
    {
      "inputs": [],
      "name": "pause",
      "outputs": [],
      "stateMutability": "nonpayable",
      "type": "function"
    },
    {
      "inputs": [],
      "name": "paused",
      "outputs": [
        {
          "internalType": "bool",
          "name": "",
          "type": "bool"
        }
      ],
      "stateMutability": "view",
      "type": "function"
    },
    {
      "inputs": [],
      "name": "ratio",
      "outputs": [
        {
          "internalType": "uint256",
          "name": "",
          "type": "uint256"
        }
      ],
      "stateMutability": "view",
      "type": "function"
    },
    {
      "inputs": [
        {
          "internalType": "uint256",
          "name": "_amount",
          "type": "uint256"
        }
      ],
      "name": "removeCollateral",
      "outputs": [],
      "stateMutability": "nonpayable",
      "type": "function"
    },
    {
      "inputs": [
        {
          "internalType": "address",
          "name": "_investor",
          "type": "address"
        }
      ],
      "name": "removeInvestor",
      "outputs": [],
      "stateMutability": "nonpayable",
      "type": "function"
    },
    {
      "inputs": [],
      "name": "renounceOwnership",
      "outputs": [],
      "stateMutability": "nonpayable",
      "type": "function"
    },
    {
      "inputs": [
        {
          "internalType": "bytes32",
          "name": "role",
          "type": "bytes32"
        },
        {
          "internalType": "address",
          "name": "account",
          "type": "address"
        }
      ],
      "name": "renounceRole",
      "outputs": [],
      "stateMutability": "nonpayable",
      "type": "function"
    },
    {
      "inputs": [
        {
          "internalType": "uint256",
          "name": "_amount",
          "type": "uint256"
        }
      ],
      "name": "requiredCollateral",
      "outputs": [
        {
          "internalType": "uint256",
          "name": "collateral",
          "type": "uint256"
        }
      ],
      "stateMutability": "view",
      "type": "function"
    },
    {
      "inputs": [
        {
          "internalType": "uint256",
          "name": "_vaultId",
          "type": "uint256"
        }
      ],
      "name": "requiredLiquidationCollateral",
      "outputs": [
        {
          "internalType": "uint256",
          "name": "collateral",
          "type": "uint256"
        }
      ],
      "stateMutability": "view",
      "type": "function"
    },
    {
      "inputs": [],
      "name": "retrieveFees",
      "outputs": [],
      "stateMutability": "nonpayable",
      "type": "function"
    },
    {
      "inputs": [
        {
          "internalType": "bytes32",
          "name": "role",
          "type": "bytes32"
        },
        {
          "internalType": "address",
          "name": "account",
          "type": "address"
        }
      ],
      "name": "revokeRole",
      "outputs": [],
      "stateMutability": "nonpayable",
      "type": "function"
    },
    {
      "inputs": [
        {
          "internalType": "uint256",
          "name": "_burnFee",
          "type": "uint256"
        }
      ],
      "name": "setBurnFee",
      "outputs": [],
      "stateMutability": "nonpayable",
      "type": "function"
    },
    {
      "inputs": [
        {
          "internalType": "contract ERC20",
          "name": "_collateralContract",
          "type": "address"
        }
      ],
      "name": "setCollateralContract",
      "outputs": [],
      "stateMutability": "nonpayable",
      "type": "function"
    },
    {
      "inputs": [
        {
          "internalType": "contract ChainlinkOracle",
          "name": "_collateral",
          "type": "address"
        }
      ],
      "name": "setCollateralPriceOracle",
      "outputs": [],
      "stateMutability": "nonpayable",
      "type": "function"
    },
    {
      "inputs": [
        {
          "internalType": "uint256",
          "name": "_divisor",
          "type": "uint256"
        }
      ],
      "name": "setDivisor",
      "outputs": [],
      "stateMutability": "nonpayable",
      "type": "function"
    },
    {
      "inputs": [
        {
          "internalType": "uint256",
          "name": "_liquidationPenalty",
          "type": "uint256"
        }
      ],
      "name": "setLiquidationPenalty",
      "outputs": [],
      "stateMutability": "nonpayable",
      "type": "function"
    },
    {
      "inputs": [
        {
          "internalType": "uint256",
          "name": "_ratio",
          "type": "uint256"
        }
      ],
      "name": "setRatio",
      "outputs": [],
      "stateMutability": "nonpayable",
      "type": "function"
    },
    {
      "inputs": [
        {
          "internalType": "contract TcapOracle",
          "name": "_oracle",
          "type": "address"
        }
      ],
      "name": "setTCAPOracle",
      "outputs": [],
      "stateMutability": "nonpayable",
      "type": "function"
    },
    {
      "inputs": [
        {
          "internalType": "contract TCAPX",
          "name": "_TCAPXToken",
          "type": "address"
        }
      ],
      "name": "setTCAPXContract",
      "outputs": [],
      "stateMutability": "nonpayable",
      "type": "function"
    },
    {
      "inputs": [],
      "name": "tcapOracle",
      "outputs": [
        {
          "internalType": "contract TcapOracle",
          "name": "",
          "type": "address"
        }
      ],
      "stateMutability": "view",
      "type": "function"
    },
    {
      "inputs": [
        {
          "internalType": "address",
          "name": "newOwner",
          "type": "address"
        }
      ],
      "name": "transferOwnership",
      "outputs": [],
      "stateMutability": "nonpayable",
      "type": "function"
    },
    {
      "inputs": [],
      "name": "unpause",
      "outputs": [],
      "stateMutability": "nonpayable",
      "type": "function"
    },
    {
      "inputs": [
        {
          "internalType": "address",
          "name": "",
          "type": "address"
        }
      ],
      "name": "vaultToUser",
      "outputs": [
        {
          "internalType": "uint256",
          "name": "",
          "type": "uint256"
        }
      ],
      "stateMutability": "view",
      "type": "function"
    },
    {
      "inputs": [
        {
          "internalType": "uint256",
          "name": "",
          "type": "uint256"
        }
      ],
      "name": "vaults",
      "outputs": [
        {
          "internalType": "uint256",
          "name": "Id",
          "type": "uint256"
        },
        {
          "internalType": "uint256",
          "name": "Collateral",
          "type": "uint256"
        },
        {
          "internalType": "address",
          "name": "Owner",
          "type": "address"
        },
        {
          "internalType": "uint256",
          "name": "Debt",
          "type": "uint256"
        }
      ],
      "stateMutability": "view",
      "type": "function"
    },
    {
      "inputs": [],
      "name": "whitelistEnabled",
      "outputs": [
        {
          "internalType": "bool",
          "name": "",
          "type": "bool"
        }
      ],
      "stateMutability": "view",
      "type": "function"
    }
  ],
  "address": "0xb808248a9f1a67C8c94743F57059Ea0233aF7f1C",
  "args": [],
  "bytecode": "0x60806040523480156200001157600080fd5b506000620000246200014560201b60201c565b9050806000806101000a81548173ffffffffffffffffffffffffffffffffffffffff021916908373ffffffffffffffffffffffffffffffffffffffff1602179055508073ffffffffffffffffffffffffffffffffffffffff16600073ffffffffffffffffffffffffffffffffffffffff167f8be0079c531659141344cd1fd0a4f28419497f9722a3daafe3b4186f6b6457e060405160405180910390a3506001600260006101000a81548160ff0219169083151502179055506000600260016101000a81548160ff0219169083151502179055506001600c60006101000a81548160ff0219169083151502179055506200012a60036200014d60201b62004a9f1760201c565b6200013f6000801b336200016360201b60201c565b620002f2565b600033905090565b6001816000016000828254019250508190555050565b6200017582826200017960201b60201c565b5050565b620001a881600160008581526020019081526020016000206000016200021d60201b62004ab51790919060201c565b156200021957620001be6200014560201b60201c565b73ffffffffffffffffffffffffffffffffffffffff168173ffffffffffffffffffffffffffffffffffffffff16837f2f8788117e7eff1d82e926ec794901d17c78024a50270940304540a733656f0d60405160405180910390a45b5050565b60006200024d836000018373ffffffffffffffffffffffffffffffffffffffff1660001b6200025560201b60201c565b905092915050565b6000620002698383620002cf60201b60201c565b620002c4578260000182908060018154018082558091505060019003906000526020600020016000909190919091505582600001805490508360010160008481526020019081526020016000208190555060019050620002c9565b600090505b92915050565b600080836001016000848152602001908152602001600020541415905092915050565b61581280620003026000396000f3fe6080604052600436106102e45760003560e01c80638c01f21111610190578063bae8cae5116100dc578063e641bde111610095578063f31e65ad1161006f578063f31e65ad14610f9a578063f58bc29e14610fff578063fce589d81461104e578063fcee45f414611079576102e4565b8063e641bde114610ea7578063e941cd0614610ef8578063f2fde38b14610f49576102e4565b8063bae8cae514610d03578063bcc46e8314610d1a578063c543a1a014610d55578063c6e1c7c914610da6578063ca15c87314610dfd578063d547741f14610e4c576102e4565b8063952cc86a11610149578063a217fddf11610123578063a217fddf14610bfd578063a4ec7c6b14610c28578063abb7bc4a14610c79578063b2237ba314610cc8576102e4565b8063952cc86a14610b3357806398130f3014610b6b578063a0712d6814610bc2576102e4565b80638c01f211146108755780638c64ea4a146108c45780638da5cb5b146109545780639010d07c146109ab57806391d1485414610a305780639403b63414610aa3576102e4565b806341af25191161024f5780635d12928b1161020857806371ca337d116101e257806371ca337d146107b157806376082a5e146107dc578063842e357c146108075780638456cb591461085e576102e4565b80635d12928b14610748578063709f5ccc1461075f578063715018a61461079a576102e4565b806341af251914610605578063427149781461063057806342966c68146106815780634bf2c7c9146106af57806351fb012d146106ea5780635c975abb14610719576102e4565b8063248a9ca3116102a1578063248a9ca3146104735780632806a743146104c25780632f2ff15d146104fd5780633237c1581461055857806336568abe146105935780633f4ba83a146105ee576102e4565b8063040b6583146102e957806311d850e8146103265780631cc244ba146103755780631f2dc5ef146103cc5780631fd0c43e146103f757806323f5589a14610448575b600080fd5b3480156102f557600080fd5b506103246004803603602081101561030c57600080fd5b810190808035151590602001909291905050506110c8565b005b34801561033257600080fd5b5061035f6004803603602081101561034957600080fd5b810190808035906020019092919050505061120f565b6040518082815260200191505060405180910390f35b34801561038157600080fd5b5061038a611339565b604051808273ffffffffffffffffffffffffffffffffffffffff1673ffffffffffffffffffffffffffffffffffffffff16815260200191505060405180910390f35b3480156103d857600080fd5b506103e161135f565b6040518082815260200191505060405180910390f35b34801561040357600080fd5b506104466004803603602081101561041a57600080fd5b81019080803573ffffffffffffffffffffffffffffffffffffffff169060200190929190505050611365565b005b34801561045457600080fd5b5061045d6114ec565b6040518082815260200191505060405180910390f35b34801561047f57600080fd5b506104ac6004803603602081101561049657600080fd5b81019080803590602001909291905050506114f2565b6040518082815260200191505060405180910390f35b3480156104ce57600080fd5b506104fb600480360360208110156104e557600080fd5b8101908080359060200190929190505050611512565b005b34801561050957600080fd5b506105566004803603604081101561052057600080fd5b8101908080359060200190929190803573ffffffffffffffffffffffffffffffffffffffff169060200190929190505050611633565b005b34801561056457600080fd5b506105916004803603602081101561057b57600080fd5b81019080803590602001909291905050506116bd565b005b34801561059f57600080fd5b506105ec600480360360408110156105b657600080fd5b8101908080359060200190929190803573ffffffffffffffffffffffffffffffffffffffff169060200190929190505050611b3e565b005b3480156105fa57600080fd5b50610603611bd7565b005b34801561061157600080fd5b5061061a611caa565b6040518082815260200191505060405180910390f35b34801561063c57600080fd5b5061067f6004803603602081101561065357600080fd5b81019080803573ffffffffffffffffffffffffffffffffffffffff169060200190929190505050611d6d565b005b6106ad6004803603602081101561069757600080fd5b8101908080359060200190929190505050611e78565b005b3480156106bb57600080fd5b506106e8600480360360208110156106d257600080fd5b81019080803590602001909291905050506121b2565b005b3480156106f657600080fd5b506106ff6122d3565b604051808215151515815260200191505060405180910390f35b34801561072557600080fd5b5061072e6122e6565b604051808215151515815260200191505060405180910390f35b34801561075457600080fd5b5061075d6122fd565b005b34801561076b57600080fd5b506107986004803603602081101561078257600080fd5b810190808035906020019092919050505061265f565b005b3480156107a657600080fd5b506107af612780565b005b3480156107bd57600080fd5b506107c6612908565b6040518082815260200191505060405180910390f35b3480156107e857600080fd5b506107f161290e565b6040518082815260200191505060405180910390f35b34801561081357600080fd5b5061081c612947565b604051808273ffffffffffffffffffffffffffffffffffffffff1673ffffffffffffffffffffffffffffffffffffffff16815260200191505060405180910390f35b34801561086a57600080fd5b5061087361296d565b005b34801561088157600080fd5b506108ae6004803603602081101561089857600080fd5b8101908080359060200190929190505050612a40565b6040518082815260200191505060405180910390f35b3480156108d057600080fd5b506108fd600480360360208110156108e757600080fd5b8101908080359060200190929190505050612c0d565b604051808581526020018481526020018373ffffffffffffffffffffffffffffffffffffffff1673ffffffffffffffffffffffffffffffffffffffff16815260200182815260200194505050505060405180910390f35b34801561096057600080fd5b50610969612c5d565b604051808273ffffffffffffffffffffffffffffffffffffffff1673ffffffffffffffffffffffffffffffffffffffff16815260200191505060405180910390f35b3480156109b757600080fd5b506109ee600480360360408110156109ce57600080fd5b810190808035906020019092919080359060200190929190505050612c86565b604051808273ffffffffffffffffffffffffffffffffffffffff1673ffffffffffffffffffffffffffffffffffffffff16815260200191505060405180910390f35b348015610a3c57600080fd5b50610a8960048036036040811015610a5357600080fd5b8101908080359060200190929190803573ffffffffffffffffffffffffffffffffffffffff169060200190929190505050612cb8565b604051808215151515815260200191505060405180910390f35b348015610aaf57600080fd5b50610adc60048036036020811015610ac657600080fd5b8101908080359060200190929190505050612cea565b604051808581526020018481526020018373ffffffffffffffffffffffffffffffffffffffff1673ffffffffffffffffffffffffffffffffffffffff16815260200182815260200194505050505060405180910390f35b610b6960048036036040811015610b4957600080fd5b810190808035906020019092919080359060200190929190505050612db0565b005b348015610b7757600080fd5b50610b80613267565b604051808273ffffffffffffffffffffffffffffffffffffffff1673ffffffffffffffffffffffffffffffffffffffff16815260200191505060405180910390f35b348015610bce57600080fd5b50610bfb60048036036020811015610be557600080fd5b810190808035906020019092919050505061328d565b005b348015610c0957600080fd5b50610c126136fa565b6040518082815260200191505060405180910390f35b348015610c3457600080fd5b50610c7760048036036020811015610c4b57600080fd5b81019080803573ffffffffffffffffffffffffffffffffffffffff169060200190929190505050613701565b005b348015610c8557600080fd5b50610cb260048036036020811015610c9c57600080fd5b8101908080359060200190929190505050613888565b6040518082815260200191505060405180910390f35b348015610cd457600080fd5b50610d0160048036036020811015610ceb57600080fd5b8101908080359060200190929190505050613991565b005b348015610d0f57600080fd5b50610d18613ab2565b005b348015610d2657600080fd5b50610d5360048036036020811015610d3d57600080fd5b8101908080359060200190929190505050613c1f565b005b348015610d6157600080fd5b50610da460048036036020811015610d7857600080fd5b81019080803573ffffffffffffffffffffffffffffffffffffffff1690602001909291905050506140bc565b005b348015610db257600080fd5b50610dbb614243565b604051808273ffffffffffffffffffffffffffffffffffffffff1673ffffffffffffffffffffffffffffffffffffffff16815260200191505060405180910390f35b348015610e0957600080fd5b50610e3660048036036020811015610e2057600080fd5b8101908080359060200190929190505050614269565b6040518082815260200191505060405180910390f35b348015610e5857600080fd5b50610ea560048036036040811015610e6f57600080fd5b8101908080359060200190929190803573ffffffffffffffffffffffffffffffffffffffff169060200190929190505050614290565b005b348015610eb357600080fd5b50610ef660048036036020811015610eca57600080fd5b81019080803573ffffffffffffffffffffffffffffffffffffffff16906020019092919050505061431a565b005b348015610f0457600080fd5b50610f4760048036036020811015610f1b57600080fd5b81019080803573ffffffffffffffffffffffffffffffffffffffff169060200190929190505050614425565b005b348015610f5557600080fd5b50610f9860048036036020811015610f6c57600080fd5b81019080803573ffffffffffffffffffffffffffffffffffffffff1690602001909291905050506145ac565b005b348015610fa657600080fd5b50610fe960048036036020811015610fbd57600080fd5b81019080803573ffffffffffffffffffffffffffffffffffffffff1690602001909291905050506147b9565b6040518082815260200191505060405180910390f35b34801561100b57600080fd5b506110386004803603602081101561102257600080fd5b81019080803590602001909291905050506147d1565b6040518082815260200191505060405180910390f35b34801561105a57600080fd5b50611063614996565b6040518082815260200191505060405180910390f35b34801561108557600080fd5b506110b26004803603602081101561109c57600080fd5b810190808035906020019092919050505061499c565b6040518082815260200191505060405180910390f35b6110d0614ae5565b73ffffffffffffffffffffffffffffffffffffffff166000809054906101000a900473ffffffffffffffffffffffffffffffffffffffff1673ffffffffffffffffffffffffffffffffffffffff1614611191576040517f08c379a00000000000000000000000000000000000000000000000000000000081526004018080602001828103825260208152602001807f4f776e61626c653a2063616c6c6572206973206e6f7420746865206f776e657281525060200191505060405180910390fd5b80600c60006101000a81548160ff0219169083151502179055503373ffffffffffffffffffffffffffffffffffffffff167ff3c80957efdbca57f7c55dab4b3d92d30e2b68de4789ca37dc45677f9f6ce30f600c60009054906101000a900460ff16604051808215151515815260200191505060405180910390a250565b60008061121b836147d1565b90506000611227611caa565b90506000600760009054906101000a900473ffffffffffffffffffffffffffffffffffffffff1673ffffffffffffffffffffffffffffffffffffffff166396237c026040518163ffffffff1660e01b815260040160206040518083038186803b15801561129357600080fd5b505afa1580156112a7573d6000803e3d6000fd5b505050506040513d60208110156112bd57600080fd5b8101908080519060200190929190505050905061132f816113218461131360646113056112f66001600b54614aed90919063ffffffff16565b8a614b7590919063ffffffff16565b614bfb90919063ffffffff16565b614b7590919063ffffffff16565b614bfb90919063ffffffff16565b9350505050919050565b600560009054906101000a900473ffffffffffffffffffffffffffffffffffffffff1681565b60085481565b61136d614ae5565b73ffffffffffffffffffffffffffffffffffffffff166000809054906101000a900473ffffffffffffffffffffffffffffffffffffffff1673ffffffffffffffffffffffffffffffffffffffff161461142e576040517f08c379a00000000000000000000000000000000000000000000000000000000081526004018080602001828103825260208152602001807f4f776e61626c653a2063616c6c6572206973206e6f7420746865206f776e657281525060200191505060405180910390fd5b80600760006101000a81548173ffffffffffffffffffffffffffffffffffffffff021916908373ffffffffffffffffffffffffffffffffffffffff1602179055503373ffffffffffffffffffffffffffffffffffffffff167f66e2fd6dbdcf5f01b6b838597eaff18e974d846a5db5a38a8faf8d5e875aeec482604051808273ffffffffffffffffffffffffffffffffffffffff1673ffffffffffffffffffffffffffffffffffffffff16815260200191505060405180910390a250565b600b5481565b600060016000838152602001908152602001600020600201549050919050565b61151a614ae5565b73ffffffffffffffffffffffffffffffffffffffff166000809054906101000a900473ffffffffffffffffffffffffffffffffffffffff1673ffffffffffffffffffffffffffffffffffffffff16146115db576040517f08c379a00000000000000000000000000000000000000000000000000000000081526004018080602001828103825260208152602001807f4f776e61626c653a2063616c6c6572206973206e6f7420746865206f776e657281525060200191505060405180910390fd5b80600b819055503373ffffffffffffffffffffffffffffffffffffffff167f6fdf5e426cb97389332e6d1c998d5123734bd7f204aa29b4a8284734c7aaa0ae826040518082815260200191505060405180910390a250565b61165a6001600084815260200190815260200160002060020154611655614ae5565b612cb8565b6116af576040517f08c379a000000000000000000000000000000000000000000000000000000000815260040180806020018281038252602f815260200180615659602f913960400191505060405180910390fd5b6116b98282614c45565b5050565b600260009054906101000a900460ff1661173f576040517f08c379a000000000000000000000000000000000000000000000000000000000815260040180806020018281038252601f8152602001807f5265656e7472616e637947756172643a207265656e7472616e742063616c6c0081525060200191505060405180910390fd5b6000600260006101000a81548160ff0219169083151502179055506000600d60003373ffffffffffffffffffffffffffffffffffffffff1673ffffffffffffffffffffffffffffffffffffffff168152602001908152602001600020541415611810576040517f08c379a00000000000000000000000000000000000000000000000000000000081526004018080602001828103825260108152602001807f4e6f205661756c7420637265617465640000000000000000000000000000000081525060200191505060405180910390fd5b600260019054906101000a900460ff1615611893576040517f08c379a00000000000000000000000000000000000000000000000000000000081526004018080602001828103825260108152602001807f5061757361626c653a207061757365640000000000000000000000000000000081525060200191505060405180910390fd5b6000600e6000600d60003373ffffffffffffffffffffffffffffffffffffffff1673ffffffffffffffffffffffffffffffffffffffff168152602001908152602001600020548152602001908152602001600020905060006118f88260000154612a40565b90508282600101541015611957576040517f08c379a000000000000000000000000000000000000000000000000000000000815260040180806020018281038252604081526020018061576e6040913960400191505060405180910390fd5b61196e838360010154614cd990919063ffffffff16565b8260010181905550600081146119e65760095461198e8360000154612a40565b10156119e5576040517f08c379a00000000000000000000000000000000000000000000000000000000081526004018080602001828103825260238152602001806156886023913960400191505060405180910390fd5b5b600660009054906101000a900473ffffffffffffffffffffffffffffffffffffffff1673ffffffffffffffffffffffffffffffffffffffff1663a9059cbb33856040518363ffffffff1660e01b8152600401808373ffffffffffffffffffffffffffffffffffffffff1673ffffffffffffffffffffffffffffffffffffffff16815260200182815260200192505050602060405180830381600087803b158015611a8f57600080fd5b505af1158015611aa3573d6000803e3d6000fd5b505050506040513d6020811015611ab957600080fd5b81019080805190602001909291905050505081600001543373ffffffffffffffffffffffffffffffffffffffff167f9b849e292191860667c493bd0657a5c71fd2350e4645303bddfc435da85c7c20856040518082815260200191505060405180910390a350506001600260006101000a81548160ff02191690831515021790555050565b611b46614ae5565b73ffffffffffffffffffffffffffffffffffffffff168173ffffffffffffffffffffffffffffffffffffffff1614611bc9576040517f08c379a000000000000000000000000000000000000000000000000000000000815260040180806020018281038252602f8152602001806157ae602f913960400191505060405180910390fd5b611bd38282614d23565b5050565b611bdf614ae5565b73ffffffffffffffffffffffffffffffffffffffff166000809054906101000a900473ffffffffffffffffffffffffffffffffffffffff1673ffffffffffffffffffffffffffffffffffffffff1614611ca0576040517f08c379a00000000000000000000000000000000000000000000000000000000081526004018080602001828103825260208152602001807f4f776e61626c653a2063616c6c6572206973206e6f7420746865206f776e657281525060200191505060405180910390fd5b611ca8614db7565b565b600080600560009054906101000a900473ffffffffffffffffffffffffffffffffffffffff1673ffffffffffffffffffffffffffffffffffffffff166396237c026040518163ffffffff1660e01b815260040160206040518083038186803b158015611d1557600080fd5b505afa158015611d29573d6000803e3d6000fd5b505050506040513d6020811015611d3f57600080fd5b81019080805190602001909291905050509050611d6760085482614bfb90919063ffffffff16565b91505090565b611d75614ae5565b73ffffffffffffffffffffffffffffffffffffffff166000809054906101000a900473ffffffffffffffffffffffffffffffffffffffff1673ffffffffffffffffffffffffffffffffffffffff1614611e36576040517f08c379a00000000000000000000000000000000000000000000000000000000081526004018080602001828103825260208152602001807f4f776e61626c653a2063616c6c6572206973206e6f7420746865206f776e657281525060200191505060405180910390fd5b611e7560405180807f494e564553544f525f524f4c4500000000000000000000000000000000000000815250600d019050604051809103902082614290565b50565b600260009054906101000a900460ff16611efa576040517f08c379a000000000000000000000000000000000000000000000000000000000815260040180806020018281038252601f8152602001807f5265656e7472616e637947756172643a207265656e7472616e742063616c6c0081525060200191505060405180910390fd5b6000600260006101000a81548160ff0219169083151502179055506000600d60003373ffffffffffffffffffffffffffffffffffffffff1673ffffffffffffffffffffffffffffffffffffffff168152602001908152602001600020541415611fcb576040517f08c379a00000000000000000000000000000000000000000000000000000000081526004018080602001828103825260108152602001807f4e6f205661756c7420637265617465640000000000000000000000000000000081525060200191505060405180910390fd5b600260019054906101000a900460ff161561204e576040517f08c379a00000000000000000000000000000000000000000000000000000000081526004018080602001828103825260108152602001807f5061757361626c653a207061757365640000000000000000000000000000000081525060200191505060405180910390fd5b6120566155f8565b600e6000600d60003373ffffffffffffffffffffffffffffffffffffffff1673ffffffffffffffffffffffffffffffffffffffff16815260200190815260200160002054815260200190815260200160002060405180608001604052908160008201548152602001600182015481526020016002820160009054906101000a900473ffffffffffffffffffffffffffffffffffffffff1673ffffffffffffffffffffffffffffffffffffffff1673ffffffffffffffffffffffffffffffffffffffff168152602001600382015481525050905061213282614ec0565b612140816000015183614f46565b80600001513373ffffffffffffffffffffffffffffffffffffffff167f21cb60dab84f5815c7c4197b8935326f424383c894633344b495319ada0658aa846040518082815260200191505060405180910390a3506001600260006101000a81548160ff02191690831515021790555050565b6121ba614ae5565b73ffffffffffffffffffffffffffffffffffffffff166000809054906101000a900473ffffffffffffffffffffffffffffffffffffffff1673ffffffffffffffffffffffffffffffffffffffff161461227b576040517f08c379a00000000000000000000000000000000000000000000000000000000081526004018080602001828103825260208152602001807f4f776e61626c653a2063616c6c6572206973206e6f7420746865206f776e657281525060200191505060405180910390fd5b80600a819055503373ffffffffffffffffffffffffffffffffffffffff167f8cee12d433ab3655cf1b6189969ae35611c638f002d75202b4c8f260746ef20f826040518082815260200191505060405180910390a250565b600c60009054906101000a900460ff1681565b6000600260019054906101000a900460ff16905090565b600c60009054906101000a900460ff16156123c45761235160405180807f494e564553544f525f524f4c4500000000000000000000000000000000000000815250600d019050604051809103902033612cb8565b6123c3576040517f08c379a00000000000000000000000000000000000000000000000000000000081526004018080602001828103825260168152602001807f43616c6c6572206973206e6f7420696e766573746f720000000000000000000081525060200191505060405180910390fd5b5b600260019054906101000a900460ff1615612447576040517f08c379a00000000000000000000000000000000000000000000000000000000081526004018080602001828103825260108152602001807f5061757361626c653a207061757365640000000000000000000000000000000081525060200191505060405180910390fd5b6000600d60003373ffffffffffffffffffffffffffffffffffffffff1673ffffffffffffffffffffffffffffffffffffffff16815260200190815260200160002054146124fc576040517f08c379a00000000000000000000000000000000000000000000000000000000081526004018080602001828103825260158152602001807f5661756c7420616c72656164792063726561746564000000000000000000000081525060200191505060405180910390fd5b600061250860036150bc565b905080600d60003373ffffffffffffffffffffffffffffffffffffffff1673ffffffffffffffffffffffffffffffffffffffff168152602001908152602001600020819055506125566155f8565b6040518060800160405280838152602001600081526020013373ffffffffffffffffffffffffffffffffffffffff1681526020016000815250905080600e6000848152602001908152602001600020600082015181600001556020820151816001015560408201518160020160006101000a81548173ffffffffffffffffffffffffffffffffffffffff021916908373ffffffffffffffffffffffffffffffffffffffff160217905550606082015181600301559050506126176003614a9f565b813373ffffffffffffffffffffffffffffffffffffffff167f2fc6c3ac0740e97bb7c9a7b06221dafe87b5286c5076d86c8cb78bf1de9bd40a60405160405180910390a35050565b612667614ae5565b73ffffffffffffffffffffffffffffffffffffffff166000809054906101000a900473ffffffffffffffffffffffffffffffffffffffff1673ffffffffffffffffffffffffffffffffffffffff1614612728576040517f08c379a00000000000000000000000000000000000000000000000000000000081526004018080602001828103825260208152602001807f4f776e61626c653a2063616c6c6572206973206e6f7420746865206f776e657281525060200191505060405180910390fd5b806008819055503373ffffffffffffffffffffffffffffffffffffffff167ff5deac769e4391f28d78f7a013b140c7dbae3a75931f63039d566c556a525ad1826040518082815260200191505060405180910390a250565b612788614ae5565b73ffffffffffffffffffffffffffffffffffffffff166000809054906101000a900473ffffffffffffffffffffffffffffffffffffffff1673ffffffffffffffffffffffffffffffffffffffff1614612849576040517f08c379a00000000000000000000000000000000000000000000000000000000081526004018080602001828103825260208152602001807f4f776e61626c653a2063616c6c6572206973206e6f7420746865206f776e657281525060200191505060405180910390fd5b600073ffffffffffffffffffffffffffffffffffffffff166000809054906101000a900473ffffffffffffffffffffffffffffffffffffffff1673ffffffffffffffffffffffffffffffffffffffff167f8be0079c531659141344cd1fd0a4f28419497f9722a3daafe3b4186f6b6457e060405160405180910390a360008060006101000a81548173ffffffffffffffffffffffffffffffffffffffff021916908373ffffffffffffffffffffffffffffffffffffffff160217905550565b60095481565b60405180807f494e564553544f525f524f4c4500000000000000000000000000000000000000815250600d019050604051809103902081565b600760009054906101000a900473ffffffffffffffffffffffffffffffffffffffff1681565b612975614ae5565b73ffffffffffffffffffffffffffffffffffffffff166000809054906101000a900473ffffffffffffffffffffffffffffffffffffffff1673ffffffffffffffffffffffffffffffffffffffff1614612a36576040517f08c379a00000000000000000000000000000000000000000000000000000000081526004018080602001828103825260208152602001807f4f776e61626c653a2063616c6c6572206973206e6f7420746865206f776e657281525060200191505060405180910390fd5b612a3e6150ca565b565b6000612a4a6155f8565b600e600084815260200190815260200160002060405180608001604052908160008201548152602001600182015481526020016002820160009054906101000a900473ffffffffffffffffffffffffffffffffffffffff1673ffffffffffffffffffffffffffffffffffffffff1673ffffffffffffffffffffffffffffffffffffffff1681526020016003820154815250509050600081600001511480612af5575060008160600151145b15612b035760009150612c07565b6000600760009054906101000a900473ffffffffffffffffffffffffffffffffffffffff1673ffffffffffffffffffffffffffffffffffffffff166396237c026040518163ffffffff1660e01b815260040160206040518083038186803b158015612b6d57600080fd5b505afa158015612b81573d6000803e3d6000fd5b505050506040513d6020811015612b9757600080fd5b81019080805190602001909291905050509050612c03612bcb612bb8611caa565b8460600151614b7590919063ffffffff16565b612bf5612be660648660200151614b7590919063ffffffff16565b84614b7590919063ffffffff16565b614bfb90919063ffffffff16565b9250505b50919050565b600e6020528060005260406000206000915090508060000154908060010154908060020160009054906101000a900473ffffffffffffffffffffffffffffffffffffffff16908060030154905084565b60008060009054906101000a900473ffffffffffffffffffffffffffffffffffffffff16905090565b6000612cb082600160008681526020019081526020016000206000016151d490919063ffffffff16565b905092915050565b6000612ce282600160008681526020019081526020016000206000016151ee90919063ffffffff16565b905092915050565b600080600080612cf86155f8565b600e600087815260200190815260200160002060405180608001604052908160008201548152602001600182015481526020016002820160009054906101000a900473ffffffffffffffffffffffffffffffffffffffff1673ffffffffffffffffffffffffffffffffffffffff1673ffffffffffffffffffffffffffffffffffffffff168152602001600382015481525050905080600001518160200151826040015183606001519450945094509450509193509193565b600260009054906101000a900460ff16612e32576040517f08c379a000000000000000000000000000000000000000000000000000000000815260040180806020018281038252601f8152602001807f5265656e7472616e637947756172643a207265656e7472616e742063616c6c0081525060200191505060405180910390fd5b6000600260006101000a81548160ff021916908315150217905550600260019054906101000a900460ff1615612ed0576040517f08c379a00000000000000000000000000000000000000000000000000000000081526004018080602001828103825260108152602001807f5061757361626c653a207061757365640000000000000000000000000000000081525060200191505060405180910390fd5b6000600e60008481526020019081526020016000209050600081600001541415612f62576040517f08c379a00000000000000000000000000000000000000000000000000000000081526004018080602001828103825260108152602001807f4e6f205661756c7420637265617465640000000000000000000000000000000081525060200191505060405180910390fd5b6000612f718260000154612a40565b90506009548110612fea576040517f08c379a00000000000000000000000000000000000000000000000000000000081526004018080602001828103825260178152602001807f5661756c74206973206e6f74206c697175696461626c6500000000000000000081525060200191505060405180910390fd5b6000612ff983600001546147d1565b9050808414613053576040517f08c379a000000000000000000000000000000000000000000000000000000000815260040180806020018281038252602a815260200180615744602a913960400191505060405180910390fd5b6000613062846000015461120f565b905061306d85614ec0565b61307b846000015486614f46565b613092818560010154614cd990919063ffffffff16565b8460010181905550600660009054906101000a900473ffffffffffffffffffffffffffffffffffffffff1673ffffffffffffffffffffffffffffffffffffffff1663a9059cbb33836040518363ffffffff1660e01b8152600401808373ffffffffffffffffffffffffffffffffffffffff1673ffffffffffffffffffffffffffffffffffffffff16815260200182815260200192505050602060405180830381600087803b15801561314357600080fd5b505af1158015613157573d6000803e3d6000fd5b505050506040513d602081101561316d57600080fd5b81019080805190602001909291905050505061318c8460000154612a40565b92506009548310156131e9576040517f08c379a00000000000000000000000000000000000000000000000000000000081526004018080602001828103825260228152602001806156d16022913960400191505060405180910390fd5b3373ffffffffffffffffffffffffffffffffffffffff1684600001547fc07e3ac2fb130a0f07f1bdea4de0051bd1d99076a5a19c5d04e4a88cd73cdd5b8484604051808381526020018281526020019250505060405180910390a3505050506001600260006101000a81548160ff0219169083151502179055505050565b600460009054906101000a900473ffffffffffffffffffffffffffffffffffffffff1681565b600260009054906101000a900460ff1661330f576040517f08c379a000000000000000000000000000000000000000000000000000000000815260040180806020018281038252601f8152602001807f5265656e7472616e637947756172643a207265656e7472616e742063616c6c0081525060200191505060405180910390fd5b6000600260006101000a81548160ff0219169083151502179055506000600d60003373ffffffffffffffffffffffffffffffffffffffff1673ffffffffffffffffffffffffffffffffffffffff1681526020019081526020016000205414156133e0576040517f08c379a00000000000000000000000000000000000000000000000000000000081526004018080602001828103825260108152602001807f4e6f205661756c7420637265617465640000000000000000000000000000000081525060200191505060405180910390fd5b600260019054906101000a900460ff1615613463576040517f08c379a00000000000000000000000000000000000000000000000000000000081526004018080602001828103825260108152602001807f5061757361626c653a207061757365640000000000000000000000000000000081525060200191505060405180910390fd5b6000600e6000600d60003373ffffffffffffffffffffffffffffffffffffffff1673ffffffffffffffffffffffffffffffffffffffff168152602001908152602001600020548152602001908152602001600020905060006134c483613888565b90508082600101541015613540576040517f08c379a00000000000000000000000000000000000000000000000000000000081526004018080602001828103825260158152602001807f4e6f7420656e6f75676820636f6c6c61746572616c000000000000000000000081525060200191505060405180910390fd5b613557838360030154614aed90919063ffffffff16565b826003018190555060095461356f8360000154612a40565b10156135c6576040517f08c379a00000000000000000000000000000000000000000000000000000000081526004018080602001828103825260238152602001806156886023913960400191505060405180910390fd5b600460009054906101000a900473ffffffffffffffffffffffffffffffffffffffff1673ffffffffffffffffffffffffffffffffffffffff166340c10f1933856040518363ffffffff1660e01b8152600401808373ffffffffffffffffffffffffffffffffffffffff1673ffffffffffffffffffffffffffffffffffffffff16815260200182815260200192505050600060405180830381600087803b15801561366f57600080fd5b505af1158015613683573d6000803e3d6000fd5b5050505081600001543373ffffffffffffffffffffffffffffffffffffffff167fa82a7ea15c804d00dba1b969024b510969fde70fac8e0d5da860cf1f7376d317856040518082815260200191505060405180910390a350506001600260006101000a81548160ff02191690831515021790555050565b6000801b81565b613709614ae5565b73ffffffffffffffffffffffffffffffffffffffff166000809054906101000a900473ffffffffffffffffffffffffffffffffffffffff1673ffffffffffffffffffffffffffffffffffffffff16146137ca576040517f08c379a00000000000000000000000000000000000000000000000000000000081526004018080602001828103825260208152602001807f4f776e61626c653a2063616c6c6572206973206e6f7420746865206f776e657281525060200191505060405180910390fd5b80600460006101000a81548173ffffffffffffffffffffffffffffffffffffffff021916908373ffffffffffffffffffffffffffffffffffffffff1602179055503373ffffffffffffffffffffffffffffffffffffffff167f64f31c0bdd687daf803f7f5b20218283be476d42c80c7491d11d1de9aeb2374882604051808273ffffffffffffffffffffffffffffffffffffffff1673ffffffffffffffffffffffffffffffffffffffff16815260200191505060405180910390a250565b600080613893611caa565b90506000600760009054906101000a900473ffffffffffffffffffffffffffffffffffffffff1673ffffffffffffffffffffffffffffffffffffffff166396237c026040518163ffffffff1660e01b815260040160206040518083038186803b1580156138ff57600080fd5b505afa158015613913573d6000803e3d6000fd5b505050506040513d602081101561392957600080fd5b810190808051906020019092919050505090506139888161397a606461396c60095461395e8a89614b7590919063ffffffff16565b614b7590919063ffffffff16565b614bfb90919063ffffffff16565b614bfb90919063ffffffff16565b92505050919050565b613999614ae5565b73ffffffffffffffffffffffffffffffffffffffff166000809054906101000a900473ffffffffffffffffffffffffffffffffffffffff1673ffffffffffffffffffffffffffffffffffffffff1614613a5a576040517f08c379a00000000000000000000000000000000000000000000000000000000081526004018080602001828103825260208152602001807f4f776e61626c653a2063616c6c6572206973206e6f7420746865206f776e657281525060200191505060405180910390fd5b806009819055503373ffffffffffffffffffffffffffffffffffffffff167f745333eadc1991720ed6c94ad80c7b81898a7d7ca230f4107bc38eecd95e9e45826040518082815260200191505060405180910390a250565b613aba614ae5565b73ffffffffffffffffffffffffffffffffffffffff166000809054906101000a900473ffffffffffffffffffffffffffffffffffffffff1673ffffffffffffffffffffffffffffffffffffffff1614613b7b576040517f08c379a00000000000000000000000000000000000000000000000000000000081526004018080602001828103825260208152602001807f4f776e61626c653a2063616c6c6572206973206e6f7420746865206f776e657281525060200191505060405180910390fd5b6000479050613b88612c5d565b73ffffffffffffffffffffffffffffffffffffffff166108fc829081150290604051600060405180830381858888f19350505050158015613bcd573d6000803e3d6000fd5b503373ffffffffffffffffffffffffffffffffffffffff167fa0f15d6e433e5a79b54bc760ff6406f0a5f45d6b6ce085ff9a7d0481f6d28158826040518082815260200191505060405180910390a250565b600c60009054906101000a900460ff1615613ce657613c7360405180807f494e564553544f525f524f4c4500000000000000000000000000000000000000815250600d019050604051809103902033612cb8565b613ce5576040517f08c379a00000000000000000000000000000000000000000000000000000000081526004018080602001828103825260168152602001807f43616c6c6572206973206e6f7420696e766573746f720000000000000000000081525060200191505060405180910390fd5b5b600260009054906101000a900460ff16613d68576040517f08c379a000000000000000000000000000000000000000000000000000000000815260040180806020018281038252601f8152602001807f5265656e7472616e637947756172643a207265656e7472616e742063616c6c0081525060200191505060405180910390fd5b6000600260006101000a81548160ff0219169083151502179055506000600d60003373ffffffffffffffffffffffffffffffffffffffff1673ffffffffffffffffffffffffffffffffffffffff168152602001908152602001600020541415613e39576040517f08c379a00000000000000000000000000000000000000000000000000000000081526004018080602001828103825260108152602001807f4e6f205661756c7420637265617465640000000000000000000000000000000081525060200191505060405180910390fd5b600260019054906101000a900460ff1615613ebc576040517f08c379a00000000000000000000000000000000000000000000000000000000081526004018080602001828103825260108152602001807f5061757361626c653a207061757365640000000000000000000000000000000081525060200191505060405180910390fd5b600660009054906101000a900473ffffffffffffffffffffffffffffffffffffffff1673ffffffffffffffffffffffffffffffffffffffff166323b872dd3330846040518463ffffffff1660e01b8152600401808473ffffffffffffffffffffffffffffffffffffffff1673ffffffffffffffffffffffffffffffffffffffff1681526020018373ffffffffffffffffffffffffffffffffffffffff1673ffffffffffffffffffffffffffffffffffffffff1681526020018281526020019350505050602060405180830381600087803b158015613f9957600080fd5b505af1158015613fad573d6000803e3d6000fd5b505050506040513d6020811015613fc357600080fd5b8101908080519060200190929190505050506000600e6000600d60003373ffffffffffffffffffffffffffffffffffffffff1673ffffffffffffffffffffffffffffffffffffffff1681526020019081526020016000205481526020019081526020016000209050614042828260010154614aed90919063ffffffff16565b816001018190555080600001543373ffffffffffffffffffffffffffffffffffffffff167f31ac33c8e5d32723055870a2be01442545a84680341c886373c957110bc175dc846040518082815260200191505060405180910390a3506001600260006101000a81548160ff02191690831515021790555050565b6140c4614ae5565b73ffffffffffffffffffffffffffffffffffffffff166000809054906101000a900473ffffffffffffffffffffffffffffffffffffffff1673ffffffffffffffffffffffffffffffffffffffff1614614185576040517f08c379a00000000000000000000000000000000000000000000000000000000081526004018080602001828103825260208152602001807f4f776e61626c653a2063616c6c6572206973206e6f7420746865206f776e657281525060200191505060405180910390fd5b80600560006101000a81548173ffffffffffffffffffffffffffffffffffffffff021916908373ffffffffffffffffffffffffffffffffffffffff1602179055503373ffffffffffffffffffffffffffffffffffffffff167f5d19e13c5fcca5f56b1af0f7e4fb4a7a63031196b48f3a411cfbc4ea967ab3be82604051808273ffffffffffffffffffffffffffffffffffffffff1673ffffffffffffffffffffffffffffffffffffffff16815260200191505060405180910390a250565b600660009054906101000a900473ffffffffffffffffffffffffffffffffffffffff1681565b60006142896001600084815260200190815260200160002060000161521e565b9050919050565b6142b760016000848152602001908152602001600020600201546142b2614ae5565b612cb8565b61430c576040517f08c379a00000000000000000000000000000000000000000000000000000000081526004018080602001828103825260308152602001806156f36030913960400191505060405180910390fd5b6143168282614d23565b5050565b614322614ae5565b73ffffffffffffffffffffffffffffffffffffffff166000809054906101000a900473ffffffffffffffffffffffffffffffffffffffff1673ffffffffffffffffffffffffffffffffffffffff16146143e3576040517f08c379a00000000000000000000000000000000000000000000000000000000081526004018080602001828103825260208152602001807f4f776e61626c653a2063616c6c6572206973206e6f7420746865206f776e657281525060200191505060405180910390fd5b61442260405180807f494e564553544f525f524f4c4500000000000000000000000000000000000000815250600d019050604051809103902082611633565b50565b61442d614ae5565b73ffffffffffffffffffffffffffffffffffffffff166000809054906101000a900473ffffffffffffffffffffffffffffffffffffffff1673ffffffffffffffffffffffffffffffffffffffff16146144ee576040517f08c379a00000000000000000000000000000000000000000000000000000000081526004018080602001828103825260208152602001807f4f776e61626c653a2063616c6c6572206973206e6f7420746865206f776e657281525060200191505060405180910390fd5b80600660006101000a81548173ffffffffffffffffffffffffffffffffffffffff021916908373ffffffffffffffffffffffffffffffffffffffff1602179055503373ffffffffffffffffffffffffffffffffffffffff167fc8740b8e1db0dd680a749baa2f7018dd94245006fc3d465c54b32c931144e7b782604051808273ffffffffffffffffffffffffffffffffffffffff1673ffffffffffffffffffffffffffffffffffffffff16815260200191505060405180910390a250565b6145b4614ae5565b73ffffffffffffffffffffffffffffffffffffffff166000809054906101000a900473ffffffffffffffffffffffffffffffffffffffff1673ffffffffffffffffffffffffffffffffffffffff1614614675576040517f08c379a00000000000000000000000000000000000000000000000000000000081526004018080602001828103825260208152602001807f4f776e61626c653a2063616c6c6572206973206e6f7420746865206f776e657281525060200191505060405180910390fd5b600073ffffffffffffffffffffffffffffffffffffffff168173ffffffffffffffffffffffffffffffffffffffff1614156146fb576040517f08c379a00000000000000000000000000000000000000000000000000000000081526004018080602001828103825260268152602001806156ab6026913960400191505060405180910390fd5b8073ffffffffffffffffffffffffffffffffffffffff166000809054906101000a900473ffffffffffffffffffffffffffffffffffffffff1673ffffffffffffffffffffffffffffffffffffffff167f8be0079c531659141344cd1fd0a4f28419497f9722a3daafe3b4186f6b6457e060405160405180910390a3806000806101000a81548173ffffffffffffffffffffffffffffffffffffffff021916908373ffffffffffffffffffffffffffffffffffffffff16021790555050565b600d6020528060005260406000206000915090505481565b60006147db6155f8565b600e600084815260200190815260200160002060405180608001604052908160008201548152602001600182015481526020016002820160009054906101000a900473ffffffffffffffffffffffffffffffffffffffff1673ffffffffffffffffffffffffffffffffffffffff1673ffffffffffffffffffffffffffffffffffffffff16815260200160038201548152505090506000614879611caa565b90506000600760009054906101000a900473ffffffffffffffffffffffffffffffffffffffff1673ffffffffffffffffffffffffffffffffffffffff166396237c026040518163ffffffff1660e01b815260040160206040518083038186803b1580156148e557600080fd5b505afa1580156148f9573d6000803e3d6000fd5b505050506040513d602081101561490f57600080fd5b8101908080519060200190929190505050905061498c614979614941600b546009540185614b7590919063ffffffff16565b61496b606461495d868960200151614b7590919063ffffffff16565b614b7590919063ffffffff16565b614bfb90919063ffffffff16565b8460600151614cd990919063ffffffff16565b9350505050919050565b600a5481565b600080600760009054906101000a900473ffffffffffffffffffffffffffffffffffffffff1673ffffffffffffffffffffffffffffffffffffffff166396237c026040518163ffffffff1660e01b815260040160206040518083038186803b158015614a0757600080fd5b505afa158015614a1b573d6000803e3d6000fd5b505050506040513d6020811015614a3157600080fd5b81019080805190602001909291905050509050614a9781614a896064614a7b600a54614a6d89614a5f611caa565b614b7590919063ffffffff16565b614b7590919063ffffffff16565b614bfb90919063ffffffff16565b614bfb90919063ffffffff16565b915050919050565b6001816000016000828254019250508190555050565b6000614add836000018373ffffffffffffffffffffffffffffffffffffffff1660001b615233565b905092915050565b600033905090565b600080828401905083811015614b6b576040517f08c379a000000000000000000000000000000000000000000000000000000000815260040180806020018281038252601b8152602001807f536166654d6174683a206164646974696f6e206f766572666c6f77000000000081525060200191505060405180910390fd5b8091505092915050565b600080831415614b885760009050614bf5565b6000828402905082848281614b9957fe5b0414614bf0576040517f08c379a00000000000000000000000000000000000000000000000000000000081526004018080602001828103825260218152602001806157236021913960400191505060405180910390fd5b809150505b92915050565b6000614c3d83836040518060400160405280601a81526020017f536166654d6174683a206469766973696f6e206279207a65726f0000000000008152506152a3565b905092915050565b614c6d8160016000858152602001908152602001600020600001614ab590919063ffffffff16565b15614cd557614c7a614ae5565b73ffffffffffffffffffffffffffffffffffffffff168173ffffffffffffffffffffffffffffffffffffffff16837f2f8788117e7eff1d82e926ec794901d17c78024a50270940304540a733656f0d60405160405180910390a45b5050565b6000614d1b83836040518060400160405280601e81526020017f536166654d6174683a207375627472616374696f6e206f766572666c6f770000815250615369565b905092915050565b614d4b816001600085815260200190815260200160002060000161542990919063ffffffff16565b15614db357614d58614ae5565b73ffffffffffffffffffffffffffffffffffffffff168173ffffffffffffffffffffffffffffffffffffffff16837ff6391f5c32d9c69d2a47ea670b442974b53935d1edc7fd64eb21e047a839171b60405160405180910390a45b5050565b600260019054906101000a900460ff16614e39576040517f08c379a00000000000000000000000000000000000000000000000000000000081526004018080602001828103825260148152602001807f5061757361626c653a206e6f742070617573656400000000000000000000000081525060200191505060405180910390fd5b6000600260016101000a81548160ff0219169083151502179055507f5db9ee0a495bf2e6ff9c91a7834c1ba4fdd244a5e8aa4e537bd38aeae4b073aa614e7d614ae5565b604051808273ffffffffffffffffffffffffffffffffffffffff1673ffffffffffffffffffffffffffffffffffffffff16815260200191505060405180910390a1565b6000614ecb8261499c565b9050348114614f42576040517f08c379a00000000000000000000000000000000000000000000000000000000081526004018080602001828103825260208152602001807f4275726e2066656520646966666572656e74207468616e20726571756972656481525060200191505060405180910390fd5b5050565b6000600e600084815260200190815260200160002090508181600301541015614fd7576040517f08c379a00000000000000000000000000000000000000000000000000000000081526004018080602001828103825260188152602001807f416d6f756e742067726561746572207468616e2064656274000000000000000081525060200191505060405180910390fd5b614fee828260030154614cd990919063ffffffff16565b8160030181905550600460009054906101000a900473ffffffffffffffffffffffffffffffffffffffff1673ffffffffffffffffffffffffffffffffffffffff16639dc29fac33846040518363ffffffff1660e01b8152600401808373ffffffffffffffffffffffffffffffffffffffff1673ffffffffffffffffffffffffffffffffffffffff16815260200182815260200192505050600060405180830381600087803b15801561509f57600080fd5b505af11580156150b3573d6000803e3d6000fd5b50505050505050565b600081600001549050919050565b600260019054906101000a900460ff161561514d576040517f08c379a00000000000000000000000000000000000000000000000000000000081526004018080602001828103825260108152602001807f5061757361626c653a207061757365640000000000000000000000000000000081525060200191505060405180910390fd5b6001600260016101000a81548160ff0219169083151502179055507f62e78cea01bee320cd4e420270b5ea74000d11b0c9f74754ebdbfc544b05a258615191614ae5565b604051808273ffffffffffffffffffffffffffffffffffffffff1673ffffffffffffffffffffffffffffffffffffffff16815260200191505060405180910390a1565b60006151e38360000183615459565b60001c905092915050565b6000615216836000018373ffffffffffffffffffffffffffffffffffffffff1660001b6154dc565b905092915050565b600061522c826000016154ff565b9050919050565b600061523f83836154dc565b61529857826000018290806001815401808255809150506001900390600052602060002001600090919091909150558260000180549050836001016000848152602001908152602001600020819055506001905061529d565b600090505b92915050565b6000808311829061534f576040517f08c379a00000000000000000000000000000000000000000000000000000000081526004018080602001828103825283818151815260200191508051906020019080838360005b838110156153145780820151818401526020810190506152f9565b50505050905090810190601f1680156153415780820380516001836020036101000a031916815260200191505b509250505060405180910390fd5b50600083858161535b57fe5b049050809150509392505050565b6000838311158290615416576040517f08c379a00000000000000000000000000000000000000000000000000000000081526004018080602001828103825283818151815260200191508051906020019080838360005b838110156153db5780820151818401526020810190506153c0565b50505050905090810190601f1680156154085780820380516001836020036101000a031916815260200191505b509250505060405180910390fd5b5060008385039050809150509392505050565b6000615451836000018373ffffffffffffffffffffffffffffffffffffffff1660001b615510565b905092915050565b6000818360000180549050116154ba576040517f08c379a00000000000000000000000000000000000000000000000000000000081526004018080602001828103825260228152602001806156376022913960400191505060405180910390fd5b8260000182815481106154c957fe5b9060005260206000200154905092915050565b600080836001016000848152602001908152602001600020541415905092915050565b600081600001805490509050919050565b600080836001016000848152602001908152602001600020549050600081146155ec576000600182039050600060018660000180549050039050600086600001828154811061555b57fe5b906000526020600020015490508087600001848154811061557857fe5b90600052602060002001819055506001830187600101600083815260200190815260200160002081905550866000018054806155b057fe5b600190038181906000526020600020016000905590558660010160008781526020019081526020016000206000905560019450505050506155f2565b60009150505b92915050565b60405180608001604052806000815260200160008152602001600073ffffffffffffffffffffffffffffffffffffffff16815260200160008152509056fe456e756d657261626c655365743a20696e646578206f7574206f6620626f756e6473416363657373436f6e74726f6c3a2073656e646572206d75737420626520616e2061646d696e20746f206772616e74436f6c6c61746572616c2062656c6f77206d696e20726571756972656420726174696f4f776e61626c653a206e6577206f776e657220697320746865207a65726f20616464726573735661756c7420526174696f206973206c657373207468616e206d696e20726174696f416363657373436f6e74726f6c3a2073656e646572206d75737420626520616e2061646d696e20746f207265766f6b65536166654d6174683a206d756c7469706c69636174696f6e206f766572666c6f774c69717569646174696f6e20616d6f756e7420646966666572656e74207468616e2072657175697265645472616e73616374696f6e207265766572746564207769746820526574726965766520616d6f756e7420686967686572207468616e20636f6c6c61746572616c416363657373436f6e74726f6c3a2063616e206f6e6c792072656e6f756e636520726f6c657320666f722073656c66a2646970667358221220abf68732becd4a0ca85114d3c1bc50c03efded7764eb2352264a07feedd190ce64736f6c63430006080033"
}