{
  "abi": [
    {
      "inputs": [
        {
          "internalType": "contract Orchestrator",
          "name": "orchestrator",
          "type": "address"
        },
        {
          "internalType": "uint256",
          "name": "_divisor",
          "type": "uint256"
        },
        {
          "internalType": "uint256",
          "name": "_ratio",
          "type": "uint256"
        },
        {
          "internalType": "uint256",
          "name": "_burnFee",
          "type": "uint256"
        },
        {
          "internalType": "uint256",
          "name": "_liquidationPenalty",
          "type": "uint256"
        },
        {
          "internalType": "address",
          "name": "_tcapOracle",
          "type": "address"
        },
        {
          "internalType": "contract TCAP",
          "name": "_tcapAddress",
          "type": "address"
        },
        {
          "internalType": "address",
          "name": "_collateralAddress",
          "type": "address"
        },
        {
          "internalType": "address",
          "name": "_collateralOracle",
          "type": "address"
        },
        {
          "internalType": "address",
          "name": "_ethOracle",
          "type": "address"
        }
      ],
      "stateMutability": "nonpayable",
      "type": "constructor"
    },
    {
      "anonymous": false,
      "inputs": [
        {
          "indexed": true,
          "internalType": "address",
          "name": "_owner",
          "type": "address"
        },
        {
          "indexed": true,
          "internalType": "uint256",
          "name": "_id",
          "type": "uint256"
        },
        {
          "indexed": false,
          "internalType": "uint256",
          "name": "_amount",
          "type": "uint256"
        }
      ],
      "name": "LogAddCollateral",
      "type": "event"
    },
    {
      "anonymous": false,
      "inputs": [
        {
          "indexed": true,
          "internalType": "address",
          "name": "_owner",
          "type": "address"
        },
        {
          "indexed": true,
          "internalType": "uint256",
          "name": "_id",
          "type": "uint256"
        },
        {
          "indexed": false,
          "internalType": "uint256",
          "name": "_amount",
          "type": "uint256"
        }
      ],
      "name": "LogBurn",
      "type": "event"
    },
    {
      "anonymous": false,
      "inputs": [
        {
          "indexed": true,
          "internalType": "address",
          "name": "_owner",
          "type": "address"
        },
        {
          "indexed": true,
          "internalType": "uint256",
          "name": "_id",
          "type": "uint256"
        }
      ],
      "name": "LogCreateVault",
      "type": "event"
    },
    {
      "anonymous": false,
      "inputs": [
        {
          "indexed": false,
          "internalType": "uint256",
          "name": "_divisor",
          "type": "uint256"
        },
        {
          "indexed": false,
          "internalType": "uint256",
          "name": "_ratio",
          "type": "uint256"
        },
        {
          "indexed": false,
          "internalType": "uint256",
          "name": "_burnFee",
          "type": "uint256"
        },
        {
          "indexed": false,
          "internalType": "uint256",
          "name": "_liquidationPenalty",
          "type": "uint256"
        },
        {
          "indexed": false,
          "internalType": "address",
          "name": "_tcapOracle",
          "type": "address"
        },
        {
          "indexed": false,
          "internalType": "contract TCAP",
          "name": "_tcapAddress",
          "type": "address"
        },
        {
          "indexed": false,
          "internalType": "address",
          "name": "_collateralAddress",
          "type": "address"
        },
        {
          "indexed": false,
          "internalType": "address",
          "name": "_collateralOracle",
          "type": "address"
        },
        {
          "indexed": false,
          "internalType": "address",
          "name": "_ethOracle",
          "type": "address"
        }
      ],
      "name": "LogInitializeVault",
      "type": "event"
    },
    {
      "anonymous": false,
      "inputs": [
        {
          "indexed": true,
          "internalType": "uint256",
          "name": "_vaultId",
          "type": "uint256"
        },
        {
          "indexed": true,
          "internalType": "address",
          "name": "_liquidator",
          "type": "address"
        },
        {
          "indexed": false,
          "internalType": "uint256",
          "name": "_liquidationCollateral",
          "type": "uint256"
        },
        {
          "indexed": false,
          "internalType": "uint256",
          "name": "_reward",
          "type": "uint256"
        }
      ],
      "name": "LogLiquidateVault",
      "type": "event"
    },
    {
      "anonymous": false,
      "inputs": [
        {
          "indexed": true,
          "internalType": "address",
          "name": "_owner",
          "type": "address"
        },
        {
          "indexed": true,
          "internalType": "uint256",
          "name": "_id",
          "type": "uint256"
        },
        {
          "indexed": false,
          "internalType": "uint256",
          "name": "_amount",
          "type": "uint256"
        }
      ],
      "name": "LogMint",
      "type": "event"
    },
    {
      "anonymous": false,
      "inputs": [
        {
          "indexed": true,
          "internalType": "address",
          "name": "_owner",
          "type": "address"
        },
        {
          "indexed": true,
          "internalType": "uint256",
          "name": "_id",
          "type": "uint256"
        },
        {
          "indexed": false,
          "internalType": "uint256",
          "name": "_amount",
          "type": "uint256"
        }
      ],
      "name": "LogRemoveCollateral",
      "type": "event"
    },
    {
      "anonymous": false,
      "inputs": [
        {
          "indexed": true,
          "internalType": "address",
          "name": "_owner",
          "type": "address"
        },
        {
          "indexed": false,
          "internalType": "uint256",
          "name": "_amount",
          "type": "uint256"
        }
      ],
      "name": "LogRetrieveFees",
      "type": "event"
    },
    {
      "anonymous": false,
      "inputs": [
        {
          "indexed": true,
          "internalType": "address",
          "name": "_owner",
          "type": "address"
        },
        {
          "indexed": false,
          "internalType": "uint256",
          "name": "_burnFee",
          "type": "uint256"
        }
      ],
      "name": "LogSetBurnFee",
      "type": "event"
    },
    {
      "anonymous": false,
      "inputs": [
        {
          "indexed": true,
          "internalType": "address",
          "name": "_owner",
          "type": "address"
        },
        {
          "indexed": false,
          "internalType": "uint256",
          "name": "_liquidationPenalty",
          "type": "uint256"
        }
      ],
      "name": "LogSetLiquidationPenalty",
      "type": "event"
    },
    {
      "anonymous": false,
      "inputs": [
        {
          "indexed": true,
          "internalType": "address",
          "name": "_owner",
          "type": "address"
        },
        {
          "indexed": false,
          "internalType": "uint256",
          "name": "_ratio",
          "type": "uint256"
        }
      ],
      "name": "LogSetRatio",
      "type": "event"
    },
    {
      "anonymous": false,
      "inputs": [
        {
          "indexed": true,
          "internalType": "address",
          "name": "previousOwner",
          "type": "address"
        },
        {
          "indexed": true,
          "internalType": "address",
          "name": "newOwner",
          "type": "address"
        }
      ],
      "name": "OwnershipTransferred",
      "type": "event"
    },
    {
      "anonymous": false,
      "inputs": [
        {
          "indexed": false,
          "internalType": "address",
          "name": "account",
          "type": "address"
        }
      ],
      "name": "Paused",
      "type": "event"
    },
    {
      "anonymous": false,
      "inputs": [
        {
          "indexed": true,
          "internalType": "bytes32",
          "name": "role",
          "type": "bytes32"
        },
        {
          "indexed": true,
          "internalType": "bytes32",
          "name": "previousAdminRole",
          "type": "bytes32"
        },
        {
          "indexed": true,
          "internalType": "bytes32",
          "name": "newAdminRole",
          "type": "bytes32"
        }
      ],
      "name": "RoleAdminChanged",
      "type": "event"
    },
    {
      "anonymous": false,
      "inputs": [
        {
          "indexed": true,
          "internalType": "bytes32",
          "name": "role",
          "type": "bytes32"
        },
        {
          "indexed": true,
          "internalType": "address",
          "name": "account",
          "type": "address"
        },
        {
          "indexed": true,
          "internalType": "address",
          "name": "sender",
          "type": "address"
        }
      ],
      "name": "RoleGranted",
      "type": "event"
    },
    {
      "anonymous": false,
      "inputs": [
        {
          "indexed": true,
          "internalType": "bytes32",
          "name": "role",
          "type": "bytes32"
        },
        {
          "indexed": true,
          "internalType": "address",
          "name": "account",
          "type": "address"
        },
        {
          "indexed": true,
          "internalType": "address",
          "name": "sender",
          "type": "address"
        }
      ],
      "name": "RoleRevoked",
      "type": "event"
    },
    {
      "anonymous": false,
      "inputs": [
        {
          "indexed": false,
          "internalType": "address",
          "name": "account",
          "type": "address"
        }
      ],
      "name": "Unpaused",
      "type": "event"
    },
    {
      "inputs": [],
      "name": "DEFAULT_ADMIN_ROLE",
      "outputs": [
        {
          "internalType": "bytes32",
          "name": "",
          "type": "bytes32"
        }
      ],
      "stateMutability": "view",
      "type": "function"
    },
    {
      "inputs": [],
      "name": "ETHPriceOracle",
      "outputs": [
        {
          "internalType": "contract ChainlinkOracle",
          "name": "",
          "type": "address"
        }
      ],
      "stateMutability": "view",
      "type": "function"
    },
    {
      "inputs": [],
      "name": "TCAPPrice",
      "outputs": [
        {
          "internalType": "uint256",
          "name": "price",
          "type": "uint256"
        }
      ],
      "stateMutability": "view",
      "type": "function"
    },
    {
      "inputs": [],
      "name": "TCAPToken",
      "outputs": [
        {
          "internalType": "contract TCAP",
          "name": "",
          "type": "address"
        }
      ],
      "stateMutability": "view",
      "type": "function"
    },
    {
      "inputs": [
        {
          "internalType": "uint256",
          "name": "_amount",
          "type": "uint256"
        }
      ],
      "name": "addCollateral",
      "outputs": [],
      "stateMutability": "nonpayable",
      "type": "function"
    },
    {
      "inputs": [],
      "name": "addCollateralETH",
      "outputs": [],
      "stateMutability": "payable",
      "type": "function"
    },
    {
      "inputs": [
        {
          "internalType": "uint256",
          "name": "_amount",
          "type": "uint256"
        }
      ],
      "name": "burn",
      "outputs": [],
      "stateMutability": "payable",
      "type": "function"
    },
    {
      "inputs": [],
      "name": "burnFee",
      "outputs": [
        {
          "internalType": "uint256",
          "name": "",
          "type": "uint256"
        }
      ],
      "stateMutability": "view",
      "type": "function"
    },
    {
      "inputs": [],
      "name": "collateralContract",
      "outputs": [
        {
          "internalType": "contract IERC20",
          "name": "",
          "type": "address"
        }
      ],
      "stateMutability": "view",
      "type": "function"
    },
    {
      "inputs": [],
      "name": "collateralPriceOracle",
      "outputs": [
        {
          "internalType": "contract ChainlinkOracle",
          "name": "",
          "type": "address"
        }
      ],
      "stateMutability": "view",
      "type": "function"
    },
    {
      "inputs": [],
      "name": "counter",
      "outputs": [
        {
          "internalType": "uint256",
          "name": "_value",
          "type": "uint256"
        }
      ],
      "stateMutability": "view",
      "type": "function"
    },
    {
      "inputs": [],
      "name": "createVault",
      "outputs": [],
      "stateMutability": "nonpayable",
      "type": "function"
    },
    {
      "inputs": [],
      "name": "divisor",
      "outputs": [
        {
          "internalType": "uint256",
          "name": "",
          "type": "uint256"
        }
      ],
      "stateMutability": "view",
      "type": "function"
    },
    {
      "inputs": [
        {
          "internalType": "uint256",
          "name": "_amount",
          "type": "uint256"
        }
      ],
      "name": "getFee",
      "outputs": [
        {
          "internalType": "uint256",
          "name": "fee",
          "type": "uint256"
        }
      ],
      "stateMutability": "view",
      "type": "function"
    },
    {
      "inputs": [
        {
          "internalType": "contract ChainlinkOracle",
          "name": "_oracle",
          "type": "address"
        }
      ],
      "name": "getOraclePrice",
      "outputs": [
        {
          "internalType": "uint256",
          "name": "price",
          "type": "uint256"
        }
      ],
      "stateMutability": "view",
      "type": "function"
    },
    {
      "inputs": [
        {
          "internalType": "bytes32",
          "name": "role",
          "type": "bytes32"
        }
      ],
      "name": "getRoleAdmin",
      "outputs": [
        {
          "internalType": "bytes32",
          "name": "",
          "type": "bytes32"
        }
      ],
      "stateMutability": "view",
      "type": "function"
    },
    {
      "inputs": [
        {
          "internalType": "bytes32",
          "name": "role",
          "type": "bytes32"
        },
        {
          "internalType": "uint256",
          "name": "index",
          "type": "uint256"
        }
      ],
      "name": "getRoleMember",
      "outputs": [
        {
          "internalType": "address",
          "name": "",
          "type": "address"
        }
      ],
      "stateMutability": "view",
      "type": "function"
    },
    {
      "inputs": [
        {
          "internalType": "bytes32",
          "name": "role",
          "type": "bytes32"
        }
      ],
      "name": "getRoleMemberCount",
      "outputs": [
        {
          "internalType": "uint256",
          "name": "",
          "type": "uint256"
        }
      ],
      "stateMutability": "view",
      "type": "function"
    },
    {
      "inputs": [
        {
          "internalType": "uint256",
          "name": "_id",
          "type": "uint256"
        }
      ],
      "name": "getVault",
      "outputs": [
        {
          "internalType": "uint256",
          "name": "",
          "type": "uint256"
        },
        {
          "internalType": "uint256",
          "name": "",
          "type": "uint256"
        },
        {
          "internalType": "address",
          "name": "",
          "type": "address"
        },
        {
          "internalType": "uint256",
          "name": "",
          "type": "uint256"
        }
      ],
      "stateMutability": "view",
      "type": "function"
    },
    {
      "inputs": [
        {
          "internalType": "uint256",
          "name": "_vaultId",
          "type": "uint256"
        }
      ],
      "name": "getVaultRatio",
      "outputs": [
        {
          "internalType": "uint256",
          "name": "currentRatio",
          "type": "uint256"
        }
      ],
      "stateMutability": "view",
      "type": "function"
    },
    {
      "inputs": [
        {
          "internalType": "bytes32",
          "name": "role",
          "type": "bytes32"
        },
        {
          "internalType": "address",
          "name": "account",
          "type": "address"
        }
      ],
      "name": "grantRole",
      "outputs": [],
      "stateMutability": "nonpayable",
      "type": "function"
    },
    {
      "inputs": [
        {
          "internalType": "bytes32",
          "name": "role",
          "type": "bytes32"
        },
        {
          "internalType": "address",
          "name": "account",
          "type": "address"
        }
      ],
      "name": "hasRole",
      "outputs": [
        {
          "internalType": "bool",
          "name": "",
          "type": "bool"
        }
      ],
      "stateMutability": "view",
      "type": "function"
    },
    {
      "inputs": [
        {
          "internalType": "uint256",
          "name": "_vaultId",
          "type": "uint256"
        },
        {
          "internalType": "uint256",
          "name": "_requiredTCAP",
          "type": "uint256"
        }
      ],
      "name": "liquidateVault",
      "outputs": [],
      "stateMutability": "payable",
      "type": "function"
    },
    {
      "inputs": [],
      "name": "liquidationPenalty",
      "outputs": [
        {
          "internalType": "uint256",
          "name": "",
          "type": "uint256"
        }
      ],
      "stateMutability": "view",
      "type": "function"
    },
    {
      "inputs": [
        {
          "internalType": "uint256",
          "name": "_vaultId",
          "type": "uint256"
        }
      ],
      "name": "liquidationReward",
      "outputs": [
        {
          "internalType": "uint256",
          "name": "rewardCollateral",
          "type": "uint256"
        }
      ],
      "stateMutability": "view",
      "type": "function"
    },
    {
      "inputs": [
        {
          "internalType": "uint256",
          "name": "_amount",
          "type": "uint256"
        }
      ],
      "name": "mint",
      "outputs": [],
      "stateMutability": "nonpayable",
      "type": "function"
    },
    {
      "inputs": [],
      "name": "oracleDigits",
      "outputs": [
        {
          "internalType": "uint256",
          "name": "",
          "type": "uint256"
        }
      ],
      "stateMutability": "view",
      "type": "function"
    },
    {
      "inputs": [],
      "name": "owner",
      "outputs": [
        {
          "internalType": "address",
          "name": "",
          "type": "address"
        }
      ],
      "stateMutability": "view",
      "type": "function"
    },
    {
      "inputs": [],
      "name": "pause",
      "outputs": [],
      "stateMutability": "nonpayable",
      "type": "function"
    },
    {
      "inputs": [],
      "name": "paused",
      "outputs": [
        {
          "internalType": "bool",
          "name": "",
          "type": "bool"
        }
      ],
      "stateMutability": "view",
      "type": "function"
    },
    {
      "inputs": [],
      "name": "ratio",
      "outputs": [
        {
          "internalType": "uint256",
          "name": "",
          "type": "uint256"
        }
      ],
      "stateMutability": "view",
      "type": "function"
    },
    {
      "inputs": [
        {
          "internalType": "uint256",
          "name": "_amount",
          "type": "uint256"
        }
      ],
      "name": "removeCollateral",
      "outputs": [],
      "stateMutability": "nonpayable",
      "type": "function"
    },
    {
      "inputs": [
        {
          "internalType": "uint256",
          "name": "_amount",
          "type": "uint256"
        }
      ],
      "name": "removeCollateralETH",
      "outputs": [],
      "stateMutability": "nonpayable",
      "type": "function"
    },
    {
      "inputs": [],
      "name": "renounceOwnership",
      "outputs": [],
      "stateMutability": "nonpayable",
      "type": "function"
    },
    {
      "inputs": [
        {
          "internalType": "bytes32",
          "name": "role",
          "type": "bytes32"
        },
        {
          "internalType": "address",
          "name": "account",
          "type": "address"
        }
      ],
      "name": "renounceRole",
      "outputs": [],
      "stateMutability": "nonpayable",
      "type": "function"
    },
    {
      "inputs": [
        {
          "internalType": "uint256",
          "name": "_amount",
          "type": "uint256"
        }
      ],
      "name": "requiredCollateral",
      "outputs": [
        {
          "internalType": "uint256",
          "name": "collateral",
          "type": "uint256"
        }
      ],
      "stateMutability": "view",
      "type": "function"
    },
    {
      "inputs": [
        {
          "internalType": "uint256",
          "name": "_vaultId",
          "type": "uint256"
        }
      ],
      "name": "requiredLiquidationTCAP",
      "outputs": [
        {
          "internalType": "uint256",
          "name": "amount",
          "type": "uint256"
        }
      ],
      "stateMutability": "view",
      "type": "function"
    },
    {
      "inputs": [],
      "name": "retrieveFees",
      "outputs": [],
      "stateMutability": "nonpayable",
      "type": "function"
    },
    {
      "inputs": [
        {
          "internalType": "bytes32",
          "name": "role",
          "type": "bytes32"
        },
        {
          "internalType": "address",
          "name": "account",
          "type": "address"
        }
      ],
      "name": "revokeRole",
      "outputs": [],
      "stateMutability": "nonpayable",
      "type": "function"
    },
    {
      "inputs": [
        {
          "internalType": "uint256",
          "name": "_burnFee",
          "type": "uint256"
        }
      ],
      "name": "setBurnFee",
      "outputs": [],
      "stateMutability": "nonpayable",
      "type": "function"
    },
    {
      "inputs": [
        {
          "internalType": "uint256",
          "name": "_liquidationPenalty",
          "type": "uint256"
        }
      ],
      "name": "setLiquidationPenalty",
      "outputs": [],
      "stateMutability": "nonpayable",
      "type": "function"
    },
    {
      "inputs": [
        {
          "internalType": "uint256",
          "name": "_ratio",
          "type": "uint256"
        }
      ],
      "name": "setRatio",
      "outputs": [],
      "stateMutability": "nonpayable",
      "type": "function"
    },
    {
      "inputs": [
        {
          "internalType": "bytes4",
          "name": "interfaceId",
          "type": "bytes4"
        }
      ],
      "name": "supportsInterface",
      "outputs": [
        {
          "internalType": "bool",
          "name": "",
          "type": "bool"
        }
      ],
      "stateMutability": "view",
      "type": "function"
    },
    {
      "inputs": [],
      "name": "tcapOracle",
      "outputs": [
        {
          "internalType": "contract ChainlinkOracle",
          "name": "",
          "type": "address"
        }
      ],
      "stateMutability": "view",
      "type": "function"
    },
    {
      "inputs": [
        {
          "internalType": "address",
          "name": "newOwner",
          "type": "address"
        }
      ],
      "name": "transferOwnership",
      "outputs": [],
      "stateMutability": "nonpayable",
      "type": "function"
    },
    {
      "inputs": [],
      "name": "unpause",
      "outputs": [],
      "stateMutability": "nonpayable",
      "type": "function"
    },
    {
      "inputs": [
        {
          "internalType": "address",
          "name": "",
          "type": "address"
        }
      ],
      "name": "userToVault",
      "outputs": [
        {
          "internalType": "uint256",
          "name": "",
          "type": "uint256"
        }
      ],
      "stateMutability": "view",
      "type": "function"
    },
    {
      "inputs": [
        {
          "internalType": "uint256",
          "name": "",
          "type": "uint256"
        }
      ],
      "name": "vaults",
      "outputs": [
        {
          "internalType": "uint256",
          "name": "Id",
          "type": "uint256"
        },
        {
          "internalType": "uint256",
          "name": "Collateral",
          "type": "uint256"
        },
        {
          "internalType": "uint256",
          "name": "Debt",
          "type": "uint256"
        },
        {
          "internalType": "address",
          "name": "Owner",
          "type": "address"
        }
      ],
      "stateMutability": "view",
      "type": "function"
    },
    {
      "stateMutability": "payable",
      "type": "receive"
    }
  ],
  "address": "0x5AB40dc543917a8d90587d371435010CF2B34DbB",
  "args": [
    "0x5F671E22bb8EFf4C37b1acDe466c544bd87BaD56",
    "10000000000",
    "150",
    "1",
    "10",
    "0x13E0F3B309a5d6Fe866c4e186AB21f2F7d45c406",
    "0x745a6ACD7cBFDa166Da510Bcdaa9B9B21f06a3C2",
    "0x8ad7af3ACec2455f7CC842a1D725c3e51896C13f",
    "0xEbC58A9572B19b66138D1473175583eaccE97950",
    "0x112fd028a09E0037e021A855c46b1174346ABd07"
  ],
  "solcInputHash": "0x5af4e17fd7e3b91982c60391762bd52010b7b6e71c517c22d06f7ce359fa40ae",
  "bytecode": "0x60806040523480156200001157600080fd5b5060405162003c5238038062003c5283398181016040526101408110156200003857600080fd5b508051602082015160408301516060840151608085015160a086015160c087015160e088015161010089015161012090990151979896979596949593949293919290918989898989898989898960006200009a6001600160e01b036200020016565b600080546001600160a01b0319166001600160a01b03831690811782556040519293509160008051602062003c32833981519152908290a35060016002556003805460ff1916905587620000fc87606462000204602090811b6200284817901c565b106200013a5760405162461bcd60e51b815260040180806020018281038252603681526020018062003bd66036913960400191505060405180910390fd5b600a899055600b889055600c879055600d869055600680546001600160a01b03199081166001600160a01b038881169190911790925560078054821686841617905560088054821685841617905560098054821684841617905560058054909116918616919091179055620001bc600462000268602090811b620028a217901c565b620001d26000336001600160e01b036200027116565b620001e68a6001600160e01b036200028a16565b5050505050505050505050505050505050505050620004a5565b3390565b6000828201838110156200025f576040805162461bcd60e51b815260206004820152601b60248201527f536166654d6174683a206164646974696f6e206f766572666c6f770000000000604482015290519081900360640190fd5b90505b92915050565b80546001019055565b6200028682826001600160e01b036200039116565b5050565b6200029d6001600160e01b036200020016565b6000546001600160a01b0390811691161462000300576040805162461bcd60e51b815260206004820181905260248201527f4f776e61626c653a2063616c6c6572206973206e6f7420746865206f776e6572604482015290519081900360640190fd5b6001600160a01b038116620003475760405162461bcd60e51b815260040180806020018281038252602681526020018062003c0c6026913960400191505060405180910390fd5b600080546040516001600160a01b038085169392169160008051602062003c3283398151915291a3600080546001600160a01b0319166001600160a01b0392909216919091179055565b6000828152600160209081526040909120620003b8918390620028ab62000415821b17901c565b156200028657620003d16001600160e01b036200020016565b6001600160a01b0316816001600160a01b0316837f2f8788117e7eff1d82e926ec794901d17c78024a50270940304540a733656f0d60405160405180910390a45050565b60006200025f836001600160a01b0384166001600160e01b036200043516565b60006200044c83836001600160e01b036200048d16565b620004845750815460018181018455600084815260208082209093018490558454848252828601909352604090209190915562000262565b50600062000262565b60009081526001919091016020526040902054151590565b61372180620004b56000396000f3fe6080604052600436106102975760003560e01c80638456cb591161015a578063b2237ba3116100c1578063d318a7df1161007a578063d318a7df146108c4578063d547741f146108ee578063de9952c914610927578063f2fde38b14610951578063fce589d814610984578063fcee45f414610999576102b2565b8063b2237ba3146107e9578063bae8cae514610813578063bc721a9614610828578063bcc46e831461085b578063c6e1c7c914610885578063ca15c8731461089a576102b2565b80639403b634116101135780639403b634146106f0578063952cc86a1461074857806397994e301461076b578063a0712d6814610780578063a217fddf146107aa578063abb7bc4a146107bf576102b2565b80638456cb59146105da5780638c01f211146105ef5780638c64ea4a146106195780638da5cb5b146106725780639010d07c1461068757806391d14854146106b7576102b2565b806342966c68116101fe5780636ae7adc1116101b75780636ae7adc11461053e5780636ca2143c14610553578063715018a61461056857806371ca337d1461057d57806375f620ac14610592578063842e357c146105c5576102b2565b806342966c68146104a357806346dc9007146104c05780634bf2c7c9146104d55780635c975abb146104ff5780635d12928b1461051457806361bc221a14610529576102b2565b8063248a9ca311610250578063248a9ca31461039e5780632806a743146103c85780632f2ff15d146103f25780633237c1581461042b57806336568abe146104555780633f4ba83a1461048e576102b2565b806301ffc9a7146102b75780630d23cc79146102ff57806311d850e8146103075780631cc244ba146103435780631f2dc5ef1461037457806323f5589a14610389576102b2565b366102b2576007546001600160a01b031633146102b057fe5b005b600080fd5b3480156102c357600080fd5b506102eb600480360360208110156102da57600080fd5b50356001600160e01b0319166109c3565b604080519115158252519081900360200190f35b6102b06109fa565b34801561031357600080fd5b506103316004803603602081101561032a57600080fd5b5035610bfa565b60408051918252519081900360200190f35b34801561034f57600080fd5b50610358610c88565b604080516001600160a01b039092168252519081900360200190f35b34801561038057600080fd5b50610331610c97565b34801561039557600080fd5b50610331610c9d565b3480156103aa57600080fd5b50610331600480360360208110156103c157600080fd5b5035610ca3565b3480156103d457600080fd5b506102b0600480360360208110156103eb57600080fd5b5035610cb8565b3480156103fe57600080fd5b506102b06004803603604081101561041557600080fd5b50803590602001356001600160a01b0316610d9e565b34801561043757600080fd5b506102b06004803603602081101561044e57600080fd5b5035610e0a565b34801561046157600080fd5b506102b06004803603604081101561047857600080fd5b50803590602001356001600160a01b03166110fe565b34801561049a57600080fd5b506102b061115f565b6102b0600480360360208110156104b957600080fd5b50356111c1565b3480156104cc57600080fd5b50610331611392565b3480156104e157600080fd5b506102b0600480360360208110156104f857600080fd5b50356113c9565b34801561050b57600080fd5b506102eb61145f565b34801561052057600080fd5b506102b0611468565b34801561053557600080fd5b506103316115cb565b34801561054a57600080fd5b506103316115d1565b34801561055f57600080fd5b506103586115da565b34801561057457600080fd5b506102b06115e9565b34801561058957600080fd5b5061033161168b565b34801561059e57600080fd5b50610331600480360360208110156105b557600080fd5b50356001600160a01b0316611691565b3480156105d157600080fd5b50610358611715565b3480156105e657600080fd5b506102b0611724565b3480156105fb57600080fd5b506103316004803603602081101561061257600080fd5b5035611784565b34801561062557600080fd5b506106436004803603602081101561063c57600080fd5b503561185e565b604080519485526020850193909352838301919091526001600160a01b03166060830152519081900360800190f35b34801561067e57600080fd5b5061035861188e565b34801561069357600080fd5b50610358600480360360408110156106aa57600080fd5b508035906020013561189d565b3480156106c357600080fd5b506102eb600480360360408110156106da57600080fd5b50803590602001356001600160a01b03166118c2565b3480156106fc57600080fd5b5061071a6004803603602081101561071357600080fd5b50356118e0565b6040805194855260208501939093526001600160a01b03909116838301526060830152519081900360800190f35b6102b06004803603604081101561075e57600080fd5b5080359060200135611947565b34801561077757600080fd5b50610358611c0b565b34801561078c57600080fd5b506102b0600480360360208110156107a357600080fd5b5035611c1a565b3480156107b657600080fd5b50610331611eb6565b3480156107cb57600080fd5b50610331600480360360208110156107e257600080fd5b5035611ebb565b3480156107f557600080fd5b506102b06004803603602081101561080c57600080fd5b5035611f05565b34801561081f57600080fd5b506102b0611f9b565b34801561083457600080fd5b506103316004803603602081101561084b57600080fd5b50356001600160a01b031661206e565b34801561086757600080fd5b506102b06004803603602081101561087e57600080fd5b5035612080565b34801561089157600080fd5b506103586122d5565b3480156108a657600080fd5b50610331600480360360208110156108bd57600080fd5b50356122e4565b3480156108d057600080fd5b506102b0600480360360208110156108e757600080fd5b50356122fb565b3480156108fa57600080fd5b506102b06004803603604081101561091157600080fd5b50803590602001356001600160a01b03166125a4565b34801561093357600080fd5b506103316004803603602081101561094a57600080fd5b50356125fd565b34801561095d57600080fd5b506102b06004803603602081101561097457600080fd5b50356001600160a01b0316612713565b34801561099057600080fd5b5061033161280b565b3480156109a557600080fd5b50610331600480360360208110156109bc57600080fd5b5035612811565b60006001600160e01b0319821663279d6ac360e21b14806109f457506001600160e01b031982166301ffc9a760e01b145b92915050565b600280541415610a3f576040805162461bcd60e51b815260206004820152601f60248201526000805160206131d2833981519152604482015290519081900360640190fd5b60028055336000908152600e6020526040902054610a8e5760405162461bcd60e51b815260040180806020018281038252602b8152602001806131f2602b913960400191505060405180910390fd5b60035460ff1615610ad9576040805162461bcd60e51b815260206004820152601060248201526f14185d5cd8589b194e881c185d5cd95960821b604482015290519081900360640190fd5b60003411610b185760405162461bcd60e51b815260040180806020018281038252603381526020018061356b6033913960400191505060405180910390fd5b600760009054906101000a90046001600160a01b03166001600160a01b031663d0e30db0346040518263ffffffff1660e01b81526004016000604051808303818588803b158015610b6857600080fd5b505af1158015610b7c573d6000803e3d6000fd5b5050336000908152600e60209081526040808320548352600f90915290206001810154909350610bb5925090503463ffffffff61284816565b6001820155805460408051348152905133917f31ac33c8e5d32723055870a2be01442545a84680341c886373c957110bc175dc919081900360200190a3506001600255565b600080610c06836125fd565b90506000610c12611392565b600854909150600090610c2d906001600160a01b0316611691565b90506000610c686064610c5c610c4f6064600d5461284890919063ffffffff16565b879063ffffffff6128c016565b9063ffffffff61291916565b9050610c7e82610c5c838663ffffffff6128c016565b9695505050505050565b6006546001600160a01b031681565b600a5481565b600d5481565b60009081526001602052604090206002015490565b610cc061295b565b6000546001600160a01b03908116911614610d10576040805162461bcd60e51b8152602060048201819052602482015260008051602061359e833981519152604482015290519081900360640190fd5b600b54610d2482606463ffffffff61284816565b10610d605760405162461bcd60e51b81526004018080602001828103825260418152602001806134276041913960600191505060405180910390fd5b600d81905560408051828152905133917f6fdf5e426cb97389332e6d1c998d5123734bd7f204aa29b4a8284734c7aaa0ae919081900360200190a250565b600082815260016020526040902060020154610dc190610dbc61295b565b6118c2565b610dfc5760405162461bcd60e51b815260040180806020018281038252602f8152602001806131a3602f913960400191505060405180910390fd5b610e06828261295f565b5050565b600280541415610e4f576040805162461bcd60e51b815260206004820152601f60248201526000805160206131d2833981519152604482015290519081900360640190fd5b60028055336000908152600e6020526040902054610e9e5760405162461bcd60e51b815260040180806020018281038252602b8152602001806131f2602b913960400191505060405180910390fd5b60035460ff1615610ee9576040805162461bcd60e51b815260206004820152601060248201526f14185d5cd8589b194e881c185d5cd95960821b604482015290519081900360640190fd5b8080610f265760405162461bcd60e51b81526004018080602001828103825260278152602001806136686027913960400191505060405180910390fd5b336000908152600e60209081526040808320548352600f90915281208054909190610f5090611784565b90508382600101541015610f955760405162461bcd60e51b81526004018080602001828103825260468152602001806133e16046913960600191505060405180910390fd5b6001820154610faa908563ffffffff6129ce16565b6001830155801561100057600b548254610fc390611784565b10156110005760405162461bcd60e51b815260040180806020018281038252604381526020018061349e6043913960600191505060405180910390fd5b6007546040805163a9059cbb60e01b81523360048201526024810187905290516001600160a01b039092169163a9059cbb916044808201926020929091908290030181600087803b15801561105457600080fd5b505af1158015611068573d6000803e3d6000fd5b505050506040513d602081101561107e57600080fd5b50516110bb5760405162461bcd60e51b815260040180806020018281038252603e8152602001806135f5603e913960400191505060405180910390fd5b815460408051868152905133917f9b849e292191860667c493bd0657a5c71fd2350e4645303bddfc435da85c7c20919081900360200190a3505060016002555050565b61110661295b565b6001600160a01b0316816001600160a01b0316146111555760405162461bcd60e51b815260040180806020018281038252602f8152602001806136bd602f913960400191505060405180910390fd5b610e068282612a10565b61116761295b565b6000546001600160a01b039081169116146111b7576040805162461bcd60e51b8152602060048201819052602482015260008051602061359e833981519152604482015290519081900360640190fd5b6111bf612a7f565b565b600280541415611206576040805162461bcd60e51b815260206004820152601f60248201526000805160206131d2833981519152604482015290519081900360640190fd5b60028055336000908152600e60205260409020546112555760405162461bcd60e51b815260040180806020018281038252602b8152602001806131f2602b913960400191505060405180910390fd5b60035460ff16156112a0576040805162461bcd60e51b815260206004820152601060248201526f14185d5cd8589b194e881c185d5cd95960821b604482015290519081900360640190fd5b80806112dd5760405162461bcd60e51b81526004018080602001828103825260278152602001806136686027913960400191505060405180910390fd5b6112e56130e4565b50336000908152600e60209081526040808320548352600f8252918290208251608081018452815481526001820154928101929092526002810154928201929092526003909101546001600160a01b0316606082015261134483612b1d565b80516113509084612b68565b805160408051858152905133917f21cb60dab84f5815c7c4197b8935326f424383c894633344b495319ada0658aa919081900360200190a35050600160025550565b60065460009081906113ac906001600160a01b0316611691565b90506113c3600a548261291990919063ffffffff16565b91505090565b6113d161295b565b6000546001600160a01b03908116911614611421576040805162461bcd60e51b8152602060048201819052602482015260008051602061359e833981519152604482015290519081900360640190fd5b600c81905560408051828152905133917f8cee12d433ab3655cf1b6189969ae35611c638f002d75202b4c8f260746ef20f919081900360200190a250565b60035460ff1690565b60035460ff16156114b3576040805162461bcd60e51b815260206004820152601060248201526f14185d5cd8589b194e881c185d5cd95960821b604482015290519081900360640190fd5b336000908152600e6020526040902054156114ff5760405162461bcd60e51b81526004018080602001828103825260308152602001806131166030913960400191505060405180910390fd5b600061150b6004612c43565b336000908152600e6020526040902081905590506115276130e4565b5060408051608081018252828152600060208083018281528385018381523360608601908152878552600f909352949092208351815591516001830155925160028201559151600390920180546001600160a01b0319166001600160a01b039093169290921790915561159a60046128a2565b604051829033907f2fc6c3ac0740e97bb7c9a7b06221dafe87b5286c5076d86c8cb78bf1de9bd40a90600090a35050565b60045481565b6402540be40081565b6005546001600160a01b031681565b6115f161295b565b6000546001600160a01b03908116911614611641576040805162461bcd60e51b8152602060048201819052602482015260008051602061359e833981519152604482015290519081900360640190fd5b600080546040516001600160a01b03909116907f8be0079c531659141344cd1fd0a4f28419497f9722a3daafe3b4186f6b6457e0908390a3600080546001600160a01b0319169055565b600b5481565b60006109f46402540be400611709846001600160a01b03166396237c026040518163ffffffff1660e01b815260040160206040518083038186803b1580156116d857600080fd5b505afa1580156116ec573d6000803e3d6000fd5b505050506040513d602081101561170257600080fd5b5051612c47565b9063ffffffff6128c016565b6008546001600160a01b031681565b61172c61295b565b6000546001600160a01b0390811691161461177c576040805162461bcd60e51b8152602060048201819052602482015260008051602061359e833981519152604482015290519081900360640190fd5b6111bf612ca2565b600061178e6130e4565b506000828152600f602090815260409182902082516080810184528154808252600183015493820193909352600282015493810193909352600301546001600160a01b0316606083015215806117e657506040810151155b156117f45760009150611858565b60085460009061180c906001600160a01b0316611691565b905061185461182d61181c611392565b60408501519063ffffffff6128c016565b6020840151610c5c9061184790606463ffffffff6128c016565b849063ffffffff6128c016565b9250505b50919050565b600f602052600090815260409020805460018201546002830154600390930154919290916001600160a01b031684565b6000546001600160a01b031690565b60008281526001602052604081206118bb908363ffffffff612d2316565b9392505050565b60008281526001602052604081206118bb908363ffffffff612d2f16565b6000806000806118ee6130e4565b50505060009283525050600f602090815260409182902082516080810184528154808252600183015493820184905260028301549482018590526003909201546001600160a01b03166060909101819052909391929091565b60028054141561198c576040805162461bcd60e51b815260206004820152601f60248201526000805160206131d2833981519152604482015290519081900360640190fd5b6002805560035460ff16156119db576040805162461bcd60e51b815260206004820152601060248201526f14185d5cd8589b194e881c185d5cd95960821b604482015290519081900360640190fd5b6000828152600f602052604090208054611a265760405162461bcd60e51b815260040180806020018281038252602e81526020018061368f602e913960400191505060405180910390fd5b6000611a358260000154611784565b9050600b548110611a775760405162461bcd60e51b81526004018080602001828103825260358152602001806136336035913960400191505060405180910390fd5b6000611a8683600001546125fd565b9050808414611ac65760405162461bcd60e51b81526004018080602001828103825260488152602001806133016048913960600191505060405180910390fd5b6000611ad58460000154610bfa565b9050611ae085612b1d565b8354611aec9086612b68565b6001840154611b01908263ffffffff6129ce16565b60018501556007546040805163a9059cbb60e01b81523360048201526024810184905290516001600160a01b039092169163a9059cbb916044808201926020929091908290030181600087803b158015611b5a57600080fd5b505af1158015611b6e573d6000803e3d6000fd5b505050506040513d6020811015611b8457600080fd5b5051611bc15760405162461bcd60e51b815260040180806020018281038252603c815260200180613349603c913960400191505060405180910390fd5b8354604080518481526020810184905281513393927fc07e3ac2fb130a0f07f1bdea4de0051bd1d99076a5a19c5d04e4a88cd73cdd5b928290030190a35050600160025550505050565b6009546001600160a01b031681565b600280541415611c5f576040805162461bcd60e51b815260206004820152601f60248201526000805160206131d2833981519152604482015290519081900360640190fd5b60028055336000908152600e6020526040902054611cae5760405162461bcd60e51b815260040180806020018281038252602b8152602001806131f2602b913960400191505060405180910390fd5b60035460ff1615611cf9576040805162461bcd60e51b815260206004820152601060248201526f14185d5cd8589b194e881c185d5cd95960821b604482015290519081900360640190fd5b8080611d365760405162461bcd60e51b81526004018080602001828103825260278152602001806136686027913960400191505060405180910390fd5b336000908152600e60209081526040808320548352600f909152812090611d5c84611ebb565b90508082600101541015611da15760405162461bcd60e51b81526004018080602001828103825260298152602001806132436029913960400191505060405180910390fd5b6002820154611db6908563ffffffff61284816565b6002830155600b548254611dc990611784565b1015611e065760405162461bcd60e51b81526004018080602001828103825260378152602001806135be6037913960400191505060405180910390fd5b600554604080516340c10f1960e01b81523360048201526024810187905290516001600160a01b03909216916340c10f199160448082019260009290919082900301818387803b158015611e5957600080fd5b505af1158015611e6d573d6000803e3d6000fd5b505083546040805188815290519193503392507fa82a7ea15c804d00dba1b969024b510969fde70fac8e0d5da860cf1f7376d317919081900360200190a3505060016002555050565b600081565b600080611ec6611392565b600854909150600090611ee1906001600160a01b0316611691565b905061185481610c5c6064610c5c600b546117098a896128c090919063ffffffff16565b611f0d61295b565b6000546001600160a01b03908116911614611f5d576040805162461bcd60e51b8152602060048201819052602482015260008051602061359e833981519152604482015290519081900360640190fd5b600b81905560408051828152905133917f745333eadc1991720ed6c94ad80c7b81898a7d7ca230f4107bc38eecd95e9e45919081900360200190a250565b611fa361295b565b6000546001600160a01b03908116911614611ff3576040805162461bcd60e51b8152602060048201819052602482015260008051602061359e833981519152604482015290519081900360640190fd5b47611ffc61188e565b6001600160a01b03166108fc829081150290604051600060405180830381858888f19350505050158015612034573d6000803e3d6000fd5b5060408051828152905133917fa0f15d6e433e5a79b54bc760ff6406f0a5f45d6b6ce085ff9a7d0481f6d28158919081900360200190a250565b600e6020526000908152604090205481565b6002805414156120c5576040805162461bcd60e51b815260206004820152601f60248201526000805160206131d2833981519152604482015290519081900360640190fd5b60028055336000908152600e60205260409020546121145760405162461bcd60e51b815260040180806020018281038252602b8152602001806131f2602b913960400191505060405180910390fd5b60035460ff161561215f576040805162461bcd60e51b815260206004820152601060248201526f14185d5cd8589b194e881c185d5cd95960821b604482015290519081900360640190fd5b808061219c5760405162461bcd60e51b81526004018080602001828103825260278152602001806136686027913960400191505060405180910390fd5b600754604080516323b872dd60e01b81523360048201523060248201526044810185905290516001600160a01b03909216916323b872dd916064808201926020929091908290030181600087803b1580156121f657600080fd5b505af115801561220a573d6000803e3d6000fd5b505050506040513d602081101561222057600080fd5b505161225d5760405162461bcd60e51b815260040180806020018281038252603b815260200180613168603b913960400191505060405180910390fd5b336000908152600e60209081526040808320548352600f9091529020600181015461228e908463ffffffff61284816565b6001820155805460408051858152905133917f31ac33c8e5d32723055870a2be01442545a84680341c886373c957110bc175dc919081900360200190a35050600160025550565b6007546001600160a01b031681565b60008181526001602052604081206109f490612d44565b600280541415612340576040805162461bcd60e51b815260206004820152601f60248201526000805160206131d2833981519152604482015290519081900360640190fd5b60028055336000908152600e602052604090205461238f5760405162461bcd60e51b815260040180806020018281038252602b8152602001806131f2602b913960400191505060405180910390fd5b60035460ff16156123da576040805162461bcd60e51b815260206004820152601060248201526f14185d5cd8589b194e881c185d5cd95960821b604482015290519081900360640190fd5b600081116124195760405162461bcd60e51b81526004018080602001828103825260368152602001806134686036913960400191505060405180910390fd5b336000908152600e60209081526040808320548352600f9091528120805490919061244390611784565b905082826001015410156124885760405162461bcd60e51b815260040180806020018281038252604c81526020018061326c604c913960600191505060405180910390fd5b600182015461249d908463ffffffff6129ce16565b600183015580156124f357600b5482546124b690611784565b10156124f35760405162461bcd60e51b81526004018080602001828103825260498152602001806132b86049913960600191505060405180910390fd5b60075460408051632e1a7d4d60e01b81526004810186905290516001600160a01b0390921691632e1a7d4d9160248082019260009290919082900301818387803b15801561254057600080fd5b505af1158015612554573d6000803e3d6000fd5b505050506125623384612d4f565b815460408051858152905133917f9b849e292191860667c493bd0657a5c71fd2350e4645303bddfc435da85c7c20919081900360200190a35050600160025550565b6000828152600160205260409020600201546125c290610dbc61295b565b6111555760405162461bcd60e51b81526004018080602001828103825260308152602001806133856030913960400191505060405180910390fd5b60006126076130e4565b506000828152600f60209081526040808320815160808101835281548152600182015493810193909352600281015491830191909152600301546001600160a01b0316606082015290612658611392565b600854909150600090612673906001600160a01b0316611691565b9050600061269283610c5c8487602001516128c090919063ffffffff16565b905060006126c96064611709846126bd6064610c5c600b548c604001516128c090919063ffffffff16565b9063ffffffff6129ce16565b905060006126f56126e66064600d5461284890919063ffffffff16565b600b549063ffffffff6129ce16565b9050612707828263ffffffff61291916565b98975050505050505050565b61271b61295b565b6000546001600160a01b0390811691161461276b576040805162461bcd60e51b8152602060048201819052602482015260008051602061359e833981519152604482015290519081900360640190fd5b6001600160a01b0381166127b05760405162461bcd60e51b815260040180806020018281038252602681526020018061321d6026913960400191505060405180910390fd5b600080546040516001600160a01b03808516939216917f8be0079c531659141344cd1fd0a4f28419497f9722a3daafe3b4186f6b6457e091a3600080546001600160a01b0319166001600160a01b0392909216919091179055565b600c5481565b600954600090819061282b906001600160a01b0316611691565b90506118bb81610c5c6064610c5c600c5461170989611709611392565b6000828201838110156118bb576040805162461bcd60e51b815260206004820152601b60248201527f536166654d6174683a206164646974696f6e206f766572666c6f770000000000604482015290519081900360640190fd5b80546001019055565b60006118bb836001600160a01b038416612e47565b6000826128cf575060006109f4565b828202828482816128dc57fe5b04146118bb5760405162461bcd60e51b815260040180806020018281038252602181526020018061354a6021913960400191505060405180910390fd5b60006118bb83836040518060400160405280601a81526020017f536166654d6174683a206469766973696f6e206279207a65726f000000000000815250612e91565b3390565b600082815260016020526040902061297d908263ffffffff6128ab16565b15610e065761298a61295b565b6001600160a01b0316816001600160a01b0316837f2f8788117e7eff1d82e926ec794901d17c78024a50270940304540a733656f0d60405160405180910390a45050565b60006118bb83836040518060400160405280601e81526020017f536166654d6174683a207375627472616374696f6e206f766572666c6f770000815250612f33565b6000828152600160205260409020612a2e908263ffffffff612f8d16565b15610e0657612a3b61295b565b6001600160a01b0316816001600160a01b0316837ff6391f5c32d9c69d2a47ea670b442974b53935d1edc7fd64eb21e047a839171b60405160405180910390a45050565b60035460ff16612acd576040805162461bcd60e51b815260206004820152601460248201527314185d5cd8589b194e881b9bdd081c185d5cd95960621b604482015290519081900360640190fd5b6003805460ff191690557f5db9ee0a495bf2e6ff9c91a7834c1ba4fdd244a5e8aa4e537bd38aeae4b073aa612b0061295b565b604080516001600160a01b039092168252519081900360200190a1565b6000612b2882612811565b9050348114610e065760405162461bcd60e51b81526004018080602001828103825260348152602001806135166034913960400191505060405180910390fd5b6000828152600f602052604090206002810154821115612bb95760405162461bcd60e51b815260040180806020018281038252602c8152602001806133b5602c913960400191505060405180910390fd5b6002810154612bce908363ffffffff6129ce16565b600282015560055460408051632770a7eb60e21b81523360048201526024810185905290516001600160a01b0390921691639dc29fac9160448082019260009290919082900301818387803b158015612c2657600080fd5b505af1158015612c3a573d6000803e3d6000fd5b50505050505050565b5490565b600080821215612c9e576040805162461bcd60e51b815260206004820181905260248201527f53616665436173743a2076616c7565206d75737420626520706f736974697665604482015290519081900360640190fd5b5090565b60035460ff1615612ced576040805162461bcd60e51b815260206004820152601060248201526f14185d5cd8589b194e881c185d5cd95960821b604482015290519081900360640190fd5b6003805460ff191660011790557f62e78cea01bee320cd4e420270b5ea74000d11b0c9f74754ebdbfc544b05a258612b0061295b565b60006118bb8383612fa2565b60006118bb836001600160a01b038416613006565b60006109f482612c43565b604080516000808252602082019092526001600160a01b0384169083906040518082805190602001908083835b60208310612d9b5780518252601f199092019160209182019101612d7c565b6001836020036101000a03801982511681845116808217855250505050505090500191505060006040518083038185875af1925050503d8060008114612dfd576040519150601f19603f3d011682016040523d82523d6000602084013e612e02565b606091505b5050905080612e425760405162461bcd60e51b81526004018080602001828103825260358152602001806134e16035913960400191505060405180910390fd5b505050565b6000612e538383613006565b612e89575081546001818101845560008481526020808220909301849055845484825282860190935260409020919091556109f4565b5060006109f4565b60008183612f1d5760405162461bcd60e51b81526004018080602001828103825283818151815260200191508051906020019080838360005b83811015612ee2578181015183820152602001612eca565b50505050905090810190601f168015612f0f5780820380516001836020036101000a031916815260200191505b509250505060405180910390fd5b506000838581612f2957fe5b0495945050505050565b60008184841115612f855760405162461bcd60e51b8152602060048201818152835160248401528351909283926044909101919085019080838360008315612ee2578181015183820152602001612eca565b505050900390565b60006118bb836001600160a01b03841661301e565b81546000908210612fe45760405162461bcd60e51b81526004018080602001828103825260228152602001806131466022913960400191505060405180910390fd5b826000018281548110612ff357fe5b9060005260206000200154905092915050565b60009081526001919091016020526040902054151590565b600081815260018301602052604081205480156130da578354600019808301919081019060009087908390811061305157fe5b906000526020600020015490508087600001848154811061306e57fe5b60009182526020808320909101929092558281526001898101909252604090209084019055865487908061309e57fe5b600190038181906000526020600020016000905590558660010160008781526020019081526020016000206000905560019450505050506109f4565b60009150506109f4565b604051806080016040528060008152602001600081526020016000815260200160006001600160a01b03168152509056fe5661756c7448616e646c65723a3a6372656174655661756c743a207661756c7420616c72656164792063726561746564456e756d657261626c655365743a20696e646578206f7574206f6620626f756e64735661756c7448616e646c65723a3a616464436f6c6c61746572616c3a204552433230207472616e7366657220646964206e6f742073756363656564416363657373436f6e74726f6c3a2073656e646572206d75737420626520616e2061646d696e20746f206772616e745265656e7472616e637947756172643a207265656e7472616e742063616c6c005661756c7448616e646c65723a3a7661756c744578697374733a206e6f207661756c7420637265617465644f776e61626c653a206e6577206f776e657220697320746865207a65726f20616464726573735661756c7448616e646c65723a3a6d696e743a206e6f7420656e6f75676820636f6c6c61746572616c4554485661756c7448616e646c65723a3a72656d6f7665436f6c6c61746572616c4554483a20726574726965766520616d6f756e7420686967686572207468616e20636f6c6c61746572616c4554485661756c7448616e646c65723a3a72656d6f7665436f6c6c61746572616c4554483a20636f6c6c61746572616c2062656c6f77206d696e20726571756972656420726174696f5661756c7448616e646c65723a3a6c69717569646174655661756c743a206c69717569646174696f6e20616d6f756e7420646966666572656e74207468616e2072657175697265645661756c7448616e646c65723a3a6c69717569646174655661756c743a204552433230207472616e7366657220646964206e6f742073756363656564416363657373436f6e74726f6c3a2073656e646572206d75737420626520616e2061646d696e20746f207265766f6b655661756c7448616e646c65723a3a6275726e3a20616d6f756e742067726561746572207468616e20646562745661756c7448616e646c65723a3a72656d6f7665436f6c6c61746572616c3a20726574726965766520616d6f756e7420686967686572207468616e20636f6c6c61746572616c5661756c7448616e646c65723a3a7365744c69717569646174696f6e50656e616c74793a206c69717569646174696f6e2070656e616c747920746f6f20686967684554485661756c7448616e646c65723a3a72656d6f7665436f6c6c61746572616c4554483a2076616c75652063616e277420626520305661756c7448616e646c65723a3a72656d6f7665436f6c6c61746572616c3a20636f6c6c61746572616c2062656c6f77206d696e20726571756972656420726174696f4554485661756c7448616e646c65723a3a736166655472616e736665724554483a20455448207472616e73666572206661696c65645661756c7448616e646c65723a3a6275726e3a206275726e2066656520646966666572656e74207468616e207265717569726564536166654d6174683a206d756c7469706c69636174696f6e206f766572666c6f774554485661756c7448616e646c65723a3a616464436f6c6c61746572616c4554483a2076616c75652063616e277420626520304f776e61626c653a2063616c6c6572206973206e6f7420746865206f776e65725661756c7448616e646c65723a3a6d696e743a20636f6c6c61746572616c2062656c6f77206d696e20726571756972656420726174696f5661756c7448616e646c65723a3a72656d6f7665436f6c6c61746572616c3a204552433230207472616e7366657220646964206e6f7420737563636565645661756c7448616e646c65723a3a6c69717569646174655661756c743a207661756c74206973206e6f74206c697175696461626c655661756c7448616e646c65723a3a6e6f745a65726f3a2076616c75652063616e277420626520305661756c7448616e646c65723a3a6c69717569646174655661756c743a206e6f207661756c742063726561746564416363657373436f6e74726f6c3a2063616e206f6e6c792072656e6f756e636520726f6c657320666f722073656c66a2646970667358221220a96d8698b01dc4e66de888c742221086840e40a24feb7a4c5268dae2b910aed864736f6c634300060800335661756c7448616e646c65723a3a696e697469616c697a653a206c69717569646174696f6e2070656e616c747920746f6f20686967684f776e61626c653a206e6577206f776e657220697320746865207a65726f20616464726573738be0079c531659141344cd1fd0a4f28419497f9722a3daafe3b4186f6b6457e0",
  "devdoc": {
    "author": "Cristian Espinoza",
    "methods": {
      "TCAPPrice()": {
        "details": "TCAP token is 18 decimalsoracle totalMarketPrice must be in wei formatP = M / d P = TCAP Token Price M = Total Crypto Market Cap d = Divisor",
        "returns": {
          "price": "of the TCAP Token"
        }
      },
      "addCollateral(uint256)": {
        "details": "_amount should be higher than 0",
        "params": {
          "_amount": "of collateral to add"
        }
      },
      "addCollateralETH()": {
        "details": "value should be higher than 0"
      },
      "burn(uint256)": {
        "details": "_amount should be higher than 0",
        "params": {
          "_amount": "of tokens to burn"
        }
      },
      "createVault()": {
        "details": "Only one vault per address can be created"
      },
      "getFee(uint256)": {
        "details": "The returned value is returned in weif = ((P * A * b)/ 100) f = Burn Fee Value P = TCAP Token Price A = Amount to Burn b = Burn Fee %",
        "params": {
          "_amount": "to burn"
        },
        "returns": {
          "fee": "fee"
        }
      },
      "getRoleAdmin(bytes32)": {
        "details": "Returns the admin role that controls `role`. See {grantRole} and {revokeRole}.     * To change a role's admin, use {_setRoleAdmin}."
      },
      "getRoleMember(bytes32,uint256)": {
        "details": "Returns one of the accounts that have `role`. `index` must be a value between 0 and {getRoleMemberCount}, non-inclusive.     * Role bearers are not sorted in any particular way, and their ordering may change at any point.     * WARNING: When using {getRoleMember} and {getRoleMemberCount}, make sure you perform all queries on the same block. See the following https://forum.openzeppelin.com/t/iterating-over-elements-on-enumerableset-in-openzeppelin-contracts/2296[forum post] for more information."
      },
      "getRoleMemberCount(bytes32)": {
        "details": "Returns the number of accounts that have `role`. Can be used together with {getRoleMember} to enumerate all bearers of a role."
      },
      "getVault(uint256)": {
        "params": {
          "_id": "of vault"
        },
        "returns": {
          "_0": "Id, Collateral, Owner, Debt"
        }
      },
      "getVaultRatio(uint256)": {
        "details": "vr = (cp * (C * 100)) / D * P vr = Vault Ratio C = Vault Collateral cp = Collateral Price D = Vault Debt P = TCAP Token Price",
        "params": {
          "_vaultId": "id of vault"
        },
        "returns": {
          "currentRatio": "currentRatio"
        }
      },
      "grantRole(bytes32,address)": {
        "details": "Grants `role` to `account`.     * If `account` had not been already granted `role`, emits a {RoleGranted} event.     * Requirements:     * - the caller must have ``role``'s admin role."
      },
      "hasRole(bytes32,address)": {
        "details": "Returns `true` if `account` has been granted `role`."
      },
      "liquidateVault(uint256,uint256)": {
        "params": {
          "_requiredTCAP": "amount of TCAP to liquidate vault",
          "_vaultId": "to liquidate"
        }
      },
      "liquidationReward(uint256)": {
        "details": "the returned value is returned on the vault collateralR = (LT * (p  + 100)) / 100 R = Liquidation Reward LT = Required Liquidation TCAP p = liquidation penalty",
        "params": {
          "_vaultId": "of the vault to liquidate"
        },
        "returns": {
          "rewardCollateral": "for liquidating Vault"
        }
      },
      "mint(uint256)": {
        "details": "_amount should be higher than 0",
        "params": {
          "_amount": "of tokens to mint"
        }
      },
      "owner()": {
        "details": "Returns the address of the current owner."
      },
      "paused()": {
        "details": "Returns true if the contract is paused, and false otherwise."
      },
      "removeCollateral(uint256)": {
        "details": "_amount should be higher than 0",
        "params": {
          "_amount": "of collateral to remove"
        }
      },
      "removeCollateralETH(uint256)": {
        "details": "_amount should be higher than 0",
        "params": {
          "_amount": "of collateral to remove"
        }
      },
      "renounceOwnership()": {
        "details": "Leaves the contract without owner. It will not be possible to call `onlyOwner` functions anymore. Can only be called by the current owner.     * NOTE: Renouncing ownership will leave the contract without an owner, thereby removing any functionality that is only available to the owner."
      },
      "renounceRole(bytes32,address)": {
        "details": "Revokes `role` from the calling account.     * Roles are often managed via {grantRole} and {revokeRole}: this function's purpose is to provide a mechanism for accounts to lose their privileges if they are compromised (such as when a trusted device is misplaced).     * If the calling account had been granted `role`, emits a {RoleRevoked} event.     * Requirements:     * - the caller must be `account`."
      },
      "requiredCollateral(uint256)": {
        "details": "TCAP token is 18 decimalsC = ((P * A * r) / 100) / cp C = Required Collateral P = TCAP Token Price A = Amount to Mint cp = Collateral Price r = Minimun Ratio for Liquidation Is only divided by 100 as eth price comes in wei to cancel the additional 0s",
        "params": {
          "_amount": "uint amount to mint"
        },
        "returns": {
          "collateral": "of the TCAP Token"
        }
      },
      "requiredLiquidationTCAP(uint256)": {
        "details": "LT = ((((D * r) / 100) - cTcap) * 100) / (r - (p + 100)) cTcap = ((C * cp) / P) LT = Required TCAP D = Vault Debt C = Required Collateral P = TCAP Token Price cp = Collateral Price r = Min Vault Ratio p = Liquidation Penalty",
        "params": {
          "_vaultId": "of the vault to liquidate"
        },
        "returns": {
          "amount": "required of the TCAP Token"
        }
      },
      "revokeRole(bytes32,address)": {
        "details": "Revokes `role` from `account`.     * If `account` had been granted `role`, emits a {RoleRevoked} event.     * Requirements:     * - the caller must have ``role``'s admin role."
      },
      "setBurnFee(uint256)": {
        "details": "Only owner can call it",
        "params": {
          "_burnFee": "uint"
        }
      },
      "setLiquidationPenalty(uint256)": {
        "details": "Only owner can call it",
        "params": {
          "_liquidationPenalty": "uint"
        }
      },
      "setRatio(uint256)": {
        "details": "Only owner can call it",
        "params": {
          "_ratio": "uint"
        }
      },
      "supportsInterface(bytes4)": {
        "params": {
          "interfaceId": "bytes of interface"
        },
        "returns": {
          "_0": "bool"
        }
      },
      "transferOwnership(address)": {
        "details": "Transfers ownership of the contract to a new account (`newOwner`). Can only be called by the current owner."
      }
    },
    "title": "TCAP Vault"
  },
  "userdoc": {
    "methods": {
      "TCAPPrice()": {
        "notice": "Returns the price of the TCAP token"
      },
      "addCollateral(uint256)": {
        "notice": "Adds collateral to vault"
      },
      "addCollateralETH()": {
        "notice": "Adds collateral to vault using ETH"
      },
      "burn(uint256)": {
        "notice": "Burns TCAP Tokens releasing the staked collateral"
      },
      "createVault()": {
        "notice": "Creates a Vault"
      },
      "getFee(uint256)": {
        "notice": "Returns the required fee to burn the TCAP tokens"
      },
      "getVault(uint256)": {
        "notice": "Returns the Vault information"
      },
      "getVaultRatio(uint256)": {
        "notice": "Returns the Collateral Ratio of the Vault"
      },
      "liquidateVault(uint256,uint256)": {
        "notice": "Allow users to liquidate vaults with low collateral ratio"
      },
      "liquidationReward(uint256)": {
        "notice": "Returns Reward for liquidating a vault"
      },
      "mint(uint256)": {
        "notice": "Mints TCAP Tokens staking the collateral"
      },
      "pause()": {
        "notice": "Allows owner to Pause the Contract"
      },
      "removeCollateral(uint256)": {
        "notice": "Removes not used collateral from vault"
      },
      "removeCollateralETH(uint256)": {
        "notice": "Removes not used collateral from vault"
      },
      "requiredCollateral(uint256)": {
        "notice": "Returns the minimal required collateral to mint TCAP token"
      },
      "requiredLiquidationTCAP(uint256)": {
        "notice": "Returns the minimal required TCAP to liquidate a Vault"
      },
      "retrieveFees()": {
        "notice": "Sends the owner of the contract the Fees saved on ETH"
      },
      "setBurnFee(uint256)": {
        "notice": "Sets the burn fee percentage an user pays when burning tcap tokens"
      },
      "setLiquidationPenalty(uint256)": {
        "notice": "Sets the liquidation penalty % charged on liquidation"
      },
      "setRatio(uint256)": {
        "notice": "Sets the collateral ratio needed to mint tokens"
      },
      "supportsInterface(bytes4)": {
        "notice": "ERC165 Standard for support of interfaces"
      },
      "unpause()": {
        "notice": "Allows owner to Unpause the Contract"
      }
    },
    "notice": "Contract in charge of handling the TCAP Vault and stake using a ETH and WETH"
  },
  "storageLayout": {
    "storage": [
      {
        "astId": 359,
        "contract": "contracts/ETHVaultHandler.sol:ETHVaultHandler",
        "label": "_owner",
        "offset": 0,
        "slot": "0",
        "type": "t_address"
      },
      {
        "astId": 91,
        "contract": "contracts/ETHVaultHandler.sol:ETHVaultHandler",
        "label": "_roles",
        "offset": 0,
        "slot": "1",
        "type": "t_mapping(t_bytes32,t_struct(RoleData)87_storage)"
      },
      {
        "astId": 2175,
        "contract": "contracts/ETHVaultHandler.sol:ETHVaultHandler",
        "label": "_status",
        "offset": 0,
        "slot": "2",
        "type": "t_uint256"
      },
      {
        "astId": 2092,
        "contract": "contracts/ETHVaultHandler.sol:ETHVaultHandler",
        "label": "_paused",
        "offset": 0,
        "slot": "3",
        "type": "t_bool"
      },
      {
        "astId": 2929,
        "contract": "contracts/ETHVaultHandler.sol:ETHVaultHandler",
        "label": "counter",
        "offset": 0,
        "slot": "4",
        "type": "t_struct(Counter)1639_storage"
      },
      {
        "astId": 2940,
        "contract": "contracts/ETHVaultHandler.sol:ETHVaultHandler",
        "label": "TCAPToken",
        "offset": 0,
        "slot": "5",
        "type": "t_contract(TCAP)4823"
      },
      {
        "astId": 2942,
        "contract": "contracts/ETHVaultHandler.sol:ETHVaultHandler",
        "label": "tcapOracle",
        "offset": 0,
        "slot": "6",
        "type": "t_contract(ChainlinkOracle)5614"
      },
      {
        "astId": 2944,
        "contract": "contracts/ETHVaultHandler.sol:ETHVaultHandler",
        "label": "collateralContract",
        "offset": 0,
        "slot": "7",
        "type": "t_contract(IERC20)1425"
      },
      {
        "astId": 2946,
        "contract": "contracts/ETHVaultHandler.sol:ETHVaultHandler",
        "label": "collateralPriceOracle",
        "offset": 0,
        "slot": "8",
        "type": "t_contract(ChainlinkOracle)5614"
      },
      {
        "astId": 2948,
        "contract": "contracts/ETHVaultHandler.sol:ETHVaultHandler",
        "label": "ETHPriceOracle",
        "offset": 0,
        "slot": "9",
        "type": "t_contract(ChainlinkOracle)5614"
      },
      {
        "astId": 2950,
        "contract": "contracts/ETHVaultHandler.sol:ETHVaultHandler",
        "label": "divisor",
        "offset": 0,
        "slot": "10",
        "type": "t_uint256"
      },
      {
        "astId": 2952,
        "contract": "contracts/ETHVaultHandler.sol:ETHVaultHandler",
        "label": "ratio",
        "offset": 0,
        "slot": "11",
        "type": "t_uint256"
      },
      {
        "astId": 2954,
        "contract": "contracts/ETHVaultHandler.sol:ETHVaultHandler",
        "label": "burnFee",
        "offset": 0,
        "slot": "12",
        "type": "t_uint256"
      },
      {
        "astId": 2956,
        "contract": "contracts/ETHVaultHandler.sol:ETHVaultHandler",
        "label": "liquidationPenalty",
        "offset": 0,
        "slot": "13",
        "type": "t_uint256"
      },
      {
        "astId": 2960,
        "contract": "contracts/ETHVaultHandler.sol:ETHVaultHandler",
        "label": "userToVault",
        "offset": 0,
        "slot": "14",
        "type": "t_mapping(t_address,t_uint256)"
      },
      {
        "astId": 2964,
        "contract": "contracts/ETHVaultHandler.sol:ETHVaultHandler",
        "label": "vaults",
        "offset": 0,
        "slot": "15",
        "type": "t_mapping(t_uint256,t_struct(Vault)2938_storage)"
      }
    ],
    "types": {
      "t_address": {
        "encoding": "inplace",
        "label": "address",
        "numberOfBytes": "20"
      },
      "t_array(t_bytes32)dyn_storage": {
        "base": "t_bytes32",
        "encoding": "dynamic_array",
        "label": "bytes32[]",
        "numberOfBytes": "32"
      },
      "t_bool": {
        "encoding": "inplace",
        "label": "bool",
        "numberOfBytes": "1"
      },
      "t_bytes32": {
        "encoding": "inplace",
        "label": "bytes32",
        "numberOfBytes": "32"
      },
      "t_contract(ChainlinkOracle)5614": {
        "encoding": "inplace",
        "label": "contract ChainlinkOracle",
        "numberOfBytes": "20"
      },
      "t_contract(IERC20)1425": {
        "encoding": "inplace",
        "label": "contract IERC20",
        "numberOfBytes": "20"
      },
      "t_contract(TCAP)4823": {
        "encoding": "inplace",
        "label": "contract TCAP",
        "numberOfBytes": "20"
      },
      "t_mapping(t_address,t_uint256)": {
        "encoding": "mapping",
        "key": "t_address",
        "label": "mapping(address => uint256)",
        "numberOfBytes": "32",
        "value": "t_uint256"
      },
      "t_mapping(t_bytes32,t_struct(RoleData)87_storage)": {
        "encoding": "mapping",
        "key": "t_bytes32",
        "label": "mapping(bytes32 => struct AccessControl.RoleData)",
        "numberOfBytes": "32",
        "value": "t_struct(RoleData)87_storage"
      },
      "t_mapping(t_bytes32,t_uint256)": {
        "encoding": "mapping",
        "key": "t_bytes32",
        "label": "mapping(bytes32 => uint256)",
        "numberOfBytes": "32",
        "value": "t_uint256"
      },
      "t_mapping(t_uint256,t_struct(Vault)2938_storage)": {
        "encoding": "mapping",
        "key": "t_uint256",
        "label": "mapping(uint256 => struct IVaultHandler.Vault)",
        "numberOfBytes": "32",
        "value": "t_struct(Vault)2938_storage"
      },
      "t_struct(AddressSet)1870_storage": {
        "encoding": "inplace",
        "label": "struct EnumerableSet.AddressSet",
        "members": [
          {
            "astId": 1869,
            "contract": "contracts/ETHVaultHandler.sol:ETHVaultHandler",
            "label": "_inner",
            "offset": 0,
            "slot": "0",
            "type": "t_struct(Set)1690_storage"
          }
        ],
        "numberOfBytes": "64"
      },
      "t_struct(Counter)1639_storage": {
        "encoding": "inplace",
        "label": "struct Counters.Counter",
        "members": [
          {
            "astId": 1638,
            "contract": "contracts/ETHVaultHandler.sol:ETHVaultHandler",
            "label": "_value",
            "offset": 0,
            "slot": "0",
            "type": "t_uint256"
          }
        ],
        "numberOfBytes": "32"
      },
      "t_struct(RoleData)87_storage": {
        "encoding": "inplace",
        "label": "struct AccessControl.RoleData",
        "members": [
          {
            "astId": 84,
            "contract": "contracts/ETHVaultHandler.sol:ETHVaultHandler",
            "label": "members",
            "offset": 0,
            "slot": "0",
            "type": "t_struct(AddressSet)1870_storage"
          },
          {
            "astId": 86,
            "contract": "contracts/ETHVaultHandler.sol:ETHVaultHandler",
            "label": "adminRole",
            "offset": 0,
            "slot": "2",
            "type": "t_bytes32"
          }
        ],
        "numberOfBytes": "96"
      },
      "t_struct(Set)1690_storage": {
        "encoding": "inplace",
        "label": "struct EnumerableSet.Set",
        "members": [
          {
            "astId": 1685,
            "contract": "contracts/ETHVaultHandler.sol:ETHVaultHandler",
            "label": "_values",
            "offset": 0,
            "slot": "0",
            "type": "t_array(t_bytes32)dyn_storage"
          },
          {
            "astId": 1689,
            "contract": "contracts/ETHVaultHandler.sol:ETHVaultHandler",
            "label": "_indexes",
            "offset": 0,
            "slot": "1",
            "type": "t_mapping(t_bytes32,t_uint256)"
          }
        ],
        "numberOfBytes": "64"
      },
      "t_struct(Vault)2938_storage": {
        "encoding": "inplace",
        "label": "struct IVaultHandler.Vault",
        "members": [
          {
            "astId": 2931,
            "contract": "contracts/ETHVaultHandler.sol:ETHVaultHandler",
            "label": "Id",
            "offset": 0,
            "slot": "0",
            "type": "t_uint256"
          },
          {
            "astId": 2933,
            "contract": "contracts/ETHVaultHandler.sol:ETHVaultHandler",
            "label": "Collateral",
            "offset": 0,
            "slot": "1",
            "type": "t_uint256"
          },
          {
            "astId": 2935,
            "contract": "contracts/ETHVaultHandler.sol:ETHVaultHandler",
            "label": "Debt",
            "offset": 0,
            "slot": "2",
            "type": "t_uint256"
          },
          {
            "astId": 2937,
            "contract": "contracts/ETHVaultHandler.sol:ETHVaultHandler",
            "label": "Owner",
            "offset": 0,
            "slot": "3",
            "type": "t_address"
          }
        ],
        "numberOfBytes": "128"
      },
      "t_uint256": {
        "encoding": "inplace",
        "label": "uint256",
        "numberOfBytes": "32"
      }
    }
  },
  "gasEstimates": {
    "creation": {
      "codeDepositCost": "2822600",
      "executionCost": "infinite",
      "totalCost": "infinite"
    },
    "external": {
      "DEFAULT_ADMIN_ROLE()": "331",
      "ETHPriceOracle()": "1126",
      "TCAPPrice()": "infinite",
      "TCAPToken()": "1104",
      "addCollateral(uint256)": "infinite",
      "addCollateralETH()": "infinite",
      "burn(uint256)": "infinite",
      "burnFee()": "1130",
      "collateralContract()": "1170",
      "collateralPriceOracle()": "1192",
      "counter()": "1154",
      "createVault()": "infinite",
      "divisor()": "1133",
      "getFee(uint256)": "infinite",
      "getOraclePrice(address)": "infinite",
      "getRoleAdmin(bytes32)": "1158",
      "getRoleMember(bytes32,uint256)": "infinite",
      "getRoleMemberCount(bytes32)": "infinite",
      "getVault(uint256)": "3965",
      "getVaultRatio(uint256)": "infinite",
      "grantRole(bytes32,address)": "infinite",
      "hasRole(bytes32,address)": "infinite",
      "liquidateVault(uint256,uint256)": "infinite",
      "liquidationPenalty()": "1155",
      "liquidationReward(uint256)": "infinite",
      "mint(uint256)": "infinite",
      "oracleDigits()": "243",
      "owner()": "1149",
      "pause()": "infinite",
      "paused()": "1122",
      "ratio()": "1109",
      "removeCollateral(uint256)": "infinite",
      "removeCollateralETH(uint256)": "infinite",
      "renounceOwnership()": "infinite",
      "renounceRole(bytes32,address)": "infinite",
      "requiredCollateral(uint256)": "infinite",
      "requiredLiquidationTCAP(uint256)": "infinite",
      "retrieveFees()": "infinite",
      "revokeRole(bytes32,address)": "infinite",
      "setBurnFee(uint256)": "infinite",
      "setLiquidationPenalty(uint256)": "infinite",
      "setRatio(uint256)": "infinite",
      "supportsInterface(bytes4)": "412",
      "tcapOracle()": "1150",
      "transferOwnership(address)": "infinite",
      "unpause()": "infinite",
      "userToVault(address)": "1213",
      "vaults(uint256)": "3740"
    },
    "internal": {
      "safeTransferETH(address,uint256)": "infinite"
    }
  }
}