{
  "abi": [
    {
      "inputs": [
        {
          "internalType": "contract Orchestrator",
          "name": "orchestrator",
          "type": "address"
        }
      ],
      "stateMutability": "nonpayable",
      "type": "constructor"
    },
    {
      "anonymous": false,
      "inputs": [
        {
          "indexed": true,
          "internalType": "address",
          "name": "_owner",
          "type": "address"
        },
        {
          "indexed": true,
          "internalType": "uint256",
          "name": "_id",
          "type": "uint256"
        },
        {
          "indexed": false,
          "internalType": "uint256",
          "name": "_amount",
          "type": "uint256"
        }
      ],
      "name": "LogAddCollateral",
      "type": "event"
    },
    {
      "anonymous": false,
      "inputs": [
        {
          "indexed": true,
          "internalType": "address",
          "name": "_owner",
          "type": "address"
        },
        {
          "indexed": true,
          "internalType": "uint256",
          "name": "_id",
          "type": "uint256"
        },
        {
          "indexed": false,
          "internalType": "uint256",
          "name": "_amount",
          "type": "uint256"
        }
      ],
      "name": "LogBurn",
      "type": "event"
    },
    {
      "anonymous": false,
      "inputs": [
        {
          "indexed": true,
          "internalType": "address",
          "name": "_owner",
          "type": "address"
        },
        {
          "indexed": true,
          "internalType": "uint256",
          "name": "_id",
          "type": "uint256"
        }
      ],
      "name": "LogCreateVault",
      "type": "event"
    },
    {
      "anonymous": false,
      "inputs": [
        {
          "indexed": true,
          "internalType": "uint256",
          "name": "_vaultId",
          "type": "uint256"
        },
        {
          "indexed": true,
          "internalType": "address",
          "name": "_liquidator",
          "type": "address"
        },
        {
          "indexed": false,
          "internalType": "uint256",
          "name": "_liquidationCollateral",
          "type": "uint256"
        },
        {
          "indexed": false,
          "internalType": "uint256",
          "name": "_reward",
          "type": "uint256"
        }
      ],
      "name": "LogLiquidateVault",
      "type": "event"
    },
    {
      "anonymous": false,
      "inputs": [
        {
          "indexed": true,
          "internalType": "address",
          "name": "_owner",
          "type": "address"
        },
        {
          "indexed": true,
          "internalType": "uint256",
          "name": "_id",
          "type": "uint256"
        },
        {
          "indexed": false,
          "internalType": "uint256",
          "name": "_amount",
          "type": "uint256"
        }
      ],
      "name": "LogMint",
      "type": "event"
    },
    {
      "anonymous": false,
      "inputs": [
        {
          "indexed": true,
          "internalType": "address",
          "name": "_owner",
          "type": "address"
        },
        {
          "indexed": true,
          "internalType": "uint256",
          "name": "_id",
          "type": "uint256"
        },
        {
          "indexed": false,
          "internalType": "uint256",
          "name": "_amount",
          "type": "uint256"
        }
      ],
      "name": "LogRemoveCollateral",
      "type": "event"
    },
    {
      "anonymous": false,
      "inputs": [
        {
          "indexed": true,
          "internalType": "address",
          "name": "_owner",
          "type": "address"
        },
        {
          "indexed": false,
          "internalType": "uint256",
          "name": "_amount",
          "type": "uint256"
        }
      ],
      "name": "LogRetrieveFees",
      "type": "event"
    },
    {
      "anonymous": false,
      "inputs": [
        {
          "indexed": true,
          "internalType": "address",
          "name": "_owner",
          "type": "address"
        },
        {
          "indexed": false,
          "internalType": "uint256",
          "name": "_burnFee",
          "type": "uint256"
        }
      ],
      "name": "LogSetBurnFee",
      "type": "event"
    },
    {
      "anonymous": false,
      "inputs": [
        {
          "indexed": true,
          "internalType": "address",
          "name": "_owner",
          "type": "address"
        },
        {
          "indexed": false,
          "internalType": "contract IERC20",
          "name": "_collateralContract",
          "type": "address"
        }
      ],
      "name": "LogSetCollateralContract",
      "type": "event"
    },
    {
      "anonymous": false,
      "inputs": [
        {
          "indexed": true,
          "internalType": "address",
          "name": "_owner",
          "type": "address"
        },
        {
          "indexed": false,
          "internalType": "contract ChainlinkOracle",
          "name": "_priceOracle",
          "type": "address"
        }
      ],
      "name": "LogSetCollateralPriceOracle",
      "type": "event"
    },
    {
      "anonymous": false,
      "inputs": [
        {
          "indexed": true,
          "internalType": "address",
          "name": "_owner",
          "type": "address"
        },
        {
          "indexed": false,
          "internalType": "uint256",
          "name": "_divisor",
          "type": "uint256"
        }
      ],
      "name": "LogSetDivisor",
      "type": "event"
    },
    {
      "anonymous": false,
      "inputs": [
        {
          "indexed": true,
          "internalType": "address",
          "name": "_owner",
          "type": "address"
        },
        {
          "indexed": false,
          "internalType": "contract ChainlinkOracle",
          "name": "_priceOracle",
          "type": "address"
        }
      ],
      "name": "LogSetETHPriceOracle",
      "type": "event"
    },
    {
      "anonymous": false,
      "inputs": [
        {
          "indexed": true,
          "internalType": "address",
          "name": "_owner",
          "type": "address"
        },
        {
          "indexed": false,
          "internalType": "uint256",
          "name": "_liquidationPenalty",
          "type": "uint256"
        }
      ],
      "name": "LogSetLiquidationPenalty",
      "type": "event"
    },
    {
      "anonymous": false,
      "inputs": [
        {
          "indexed": true,
          "internalType": "address",
          "name": "_owner",
          "type": "address"
        },
        {
          "indexed": false,
          "internalType": "uint256",
          "name": "_ratio",
          "type": "uint256"
        }
      ],
      "name": "LogSetRatio",
      "type": "event"
    },
    {
      "anonymous": false,
      "inputs": [
        {
          "indexed": true,
          "internalType": "address",
          "name": "_owner",
          "type": "address"
        },
        {
          "indexed": false,
          "internalType": "contract TCAP",
          "name": "_token",
          "type": "address"
        }
      ],
      "name": "LogSetTCAPContract",
      "type": "event"
    },
    {
      "anonymous": false,
      "inputs": [
        {
          "indexed": true,
          "internalType": "address",
          "name": "_owner",
          "type": "address"
        },
        {
          "indexed": false,
          "internalType": "contract ChainlinkOracle",
          "name": "_oracle",
          "type": "address"
        }
      ],
      "name": "LogSetTCAPOracle",
      "type": "event"
    },
    {
      "anonymous": false,
      "inputs": [
        {
          "indexed": true,
          "internalType": "address",
          "name": "previousOwner",
          "type": "address"
        },
        {
          "indexed": true,
          "internalType": "address",
          "name": "newOwner",
          "type": "address"
        }
      ],
      "name": "OwnershipTransferred",
      "type": "event"
    },
    {
      "anonymous": false,
      "inputs": [
        {
          "indexed": false,
          "internalType": "address",
          "name": "account",
          "type": "address"
        }
      ],
      "name": "Paused",
      "type": "event"
    },
    {
      "anonymous": false,
      "inputs": [
        {
          "indexed": true,
          "internalType": "bytes32",
          "name": "role",
          "type": "bytes32"
        },
        {
          "indexed": true,
          "internalType": "bytes32",
          "name": "previousAdminRole",
          "type": "bytes32"
        },
        {
          "indexed": true,
          "internalType": "bytes32",
          "name": "newAdminRole",
          "type": "bytes32"
        }
      ],
      "name": "RoleAdminChanged",
      "type": "event"
    },
    {
      "anonymous": false,
      "inputs": [
        {
          "indexed": true,
          "internalType": "bytes32",
          "name": "role",
          "type": "bytes32"
        },
        {
          "indexed": true,
          "internalType": "address",
          "name": "account",
          "type": "address"
        },
        {
          "indexed": true,
          "internalType": "address",
          "name": "sender",
          "type": "address"
        }
      ],
      "name": "RoleGranted",
      "type": "event"
    },
    {
      "anonymous": false,
      "inputs": [
        {
          "indexed": true,
          "internalType": "bytes32",
          "name": "role",
          "type": "bytes32"
        },
        {
          "indexed": true,
          "internalType": "address",
          "name": "account",
          "type": "address"
        },
        {
          "indexed": true,
          "internalType": "address",
          "name": "sender",
          "type": "address"
        }
      ],
      "name": "RoleRevoked",
      "type": "event"
    },
    {
      "anonymous": false,
      "inputs": [
        {
          "indexed": false,
          "internalType": "address",
          "name": "account",
          "type": "address"
        }
      ],
      "name": "Unpaused",
      "type": "event"
    },
    {
      "inputs": [],
      "name": "DEFAULT_ADMIN_ROLE",
      "outputs": [
        {
          "internalType": "bytes32",
          "name": "",
          "type": "bytes32"
        }
      ],
      "stateMutability": "view",
      "type": "function"
    },
    {
      "inputs": [],
      "name": "ETHPriceOracle",
      "outputs": [
        {
          "internalType": "contract ChainlinkOracle",
          "name": "",
          "type": "address"
        }
      ],
      "stateMutability": "view",
      "type": "function"
    },
    {
      "inputs": [],
      "name": "TCAPPrice",
      "outputs": [
        {
          "internalType": "uint256",
          "name": "price",
          "type": "uint256"
        }
      ],
      "stateMutability": "view",
      "type": "function"
    },
    {
      "inputs": [],
      "name": "TCAPToken",
      "outputs": [
        {
          "internalType": "contract TCAP",
          "name": "",
          "type": "address"
        }
      ],
      "stateMutability": "view",
      "type": "function"
    },
    {
      "inputs": [
        {
          "internalType": "uint256",
          "name": "_amount",
          "type": "uint256"
        }
      ],
      "name": "addCollateral",
      "outputs": [],
      "stateMutability": "nonpayable",
      "type": "function"
    },
    {
      "inputs": [],
      "name": "addCollateralETH",
      "outputs": [],
      "stateMutability": "payable",
      "type": "function"
    },
    {
      "inputs": [
        {
          "internalType": "uint256",
          "name": "_amount",
          "type": "uint256"
        }
      ],
      "name": "burn",
      "outputs": [],
      "stateMutability": "payable",
      "type": "function"
    },
    {
      "inputs": [],
      "name": "burnFee",
      "outputs": [
        {
          "internalType": "uint256",
          "name": "",
          "type": "uint256"
        }
      ],
      "stateMutability": "view",
      "type": "function"
    },
    {
      "inputs": [],
      "name": "collateralContract",
      "outputs": [
        {
          "internalType": "contract IERC20",
          "name": "",
          "type": "address"
        }
      ],
      "stateMutability": "view",
      "type": "function"
    },
    {
      "inputs": [],
      "name": "collateralPriceOracle",
      "outputs": [
        {
          "internalType": "contract ChainlinkOracle",
          "name": "",
          "type": "address"
        }
      ],
      "stateMutability": "view",
      "type": "function"
    },
    {
      "inputs": [],
      "name": "createVault",
      "outputs": [],
      "stateMutability": "nonpayable",
      "type": "function"
    },
    {
      "inputs": [],
      "name": "divisor",
      "outputs": [
        {
          "internalType": "uint256",
          "name": "",
          "type": "uint256"
        }
      ],
      "stateMutability": "view",
      "type": "function"
    },
    {
      "inputs": [
        {
          "internalType": "uint256",
          "name": "_amount",
          "type": "uint256"
        }
      ],
      "name": "getFee",
      "outputs": [
        {
          "internalType": "uint256",
          "name": "fee",
          "type": "uint256"
        }
      ],
      "stateMutability": "view",
      "type": "function"
    },
    {
      "inputs": [
        {
          "internalType": "bytes32",
          "name": "role",
          "type": "bytes32"
        }
      ],
      "name": "getRoleAdmin",
      "outputs": [
        {
          "internalType": "bytes32",
          "name": "",
          "type": "bytes32"
        }
      ],
      "stateMutability": "view",
      "type": "function"
    },
    {
      "inputs": [
        {
          "internalType": "bytes32",
          "name": "role",
          "type": "bytes32"
        },
        {
          "internalType": "uint256",
          "name": "index",
          "type": "uint256"
        }
      ],
      "name": "getRoleMember",
      "outputs": [
        {
          "internalType": "address",
          "name": "",
          "type": "address"
        }
      ],
      "stateMutability": "view",
      "type": "function"
    },
    {
      "inputs": [
        {
          "internalType": "bytes32",
          "name": "role",
          "type": "bytes32"
        }
      ],
      "name": "getRoleMemberCount",
      "outputs": [
        {
          "internalType": "uint256",
          "name": "",
          "type": "uint256"
        }
      ],
      "stateMutability": "view",
      "type": "function"
    },
    {
      "inputs": [
        {
          "internalType": "uint256",
          "name": "_id",
          "type": "uint256"
        }
      ],
      "name": "getVault",
      "outputs": [
        {
          "internalType": "uint256",
          "name": "",
          "type": "uint256"
        },
        {
          "internalType": "uint256",
          "name": "",
          "type": "uint256"
        },
        {
          "internalType": "address",
          "name": "",
          "type": "address"
        },
        {
          "internalType": "uint256",
          "name": "",
          "type": "uint256"
        }
      ],
      "stateMutability": "view",
      "type": "function"
    },
    {
      "inputs": [
        {
          "internalType": "uint256",
          "name": "_vaultId",
          "type": "uint256"
        }
      ],
      "name": "getVaultRatio",
      "outputs": [
        {
          "internalType": "uint256",
          "name": "currentRatio",
          "type": "uint256"
        }
      ],
      "stateMutability": "view",
      "type": "function"
    },
    {
      "inputs": [
        {
          "internalType": "bytes32",
          "name": "role",
          "type": "bytes32"
        },
        {
          "internalType": "address",
          "name": "account",
          "type": "address"
        }
      ],
      "name": "grantRole",
      "outputs": [],
      "stateMutability": "nonpayable",
      "type": "function"
    },
    {
      "inputs": [
        {
          "internalType": "bytes32",
          "name": "role",
          "type": "bytes32"
        },
        {
          "internalType": "address",
          "name": "account",
          "type": "address"
        }
      ],
      "name": "hasRole",
      "outputs": [
        {
          "internalType": "bool",
          "name": "",
          "type": "bool"
        }
      ],
      "stateMutability": "view",
      "type": "function"
    },
    {
      "inputs": [
        {
          "internalType": "uint256",
          "name": "_divisor",
          "type": "uint256"
        },
        {
          "internalType": "uint256",
          "name": "_ratio",
          "type": "uint256"
        },
        {
          "internalType": "uint256",
          "name": "_burnFee",
          "type": "uint256"
        },
        {
          "internalType": "uint256",
          "name": "_liquidationPenalty",
          "type": "uint256"
        },
        {
          "internalType": "address",
          "name": "_tcapOracle",
          "type": "address"
        },
        {
          "internalType": "contract TCAP",
          "name": "_tcapAddress",
          "type": "address"
        },
        {
          "internalType": "address",
          "name": "_collateralAddress",
          "type": "address"
        },
        {
          "internalType": "address",
          "name": "_collateralOracle",
          "type": "address"
        },
        {
          "internalType": "address",
          "name": "_ethOracle",
          "type": "address"
        }
      ],
      "name": "initialize",
      "outputs": [],
      "stateMutability": "nonpayable",
      "type": "function"
    },
    {
      "inputs": [
        {
          "internalType": "uint256",
          "name": "_vaultId",
          "type": "uint256"
        },
        {
          "internalType": "uint256",
          "name": "requiredCollateral",
          "type": "uint256"
        }
      ],
      "name": "liquidateVault",
      "outputs": [],
      "stateMutability": "payable",
      "type": "function"
    },
    {
      "inputs": [],
      "name": "liquidationPenalty",
      "outputs": [
        {
          "internalType": "uint256",
          "name": "",
          "type": "uint256"
        }
      ],
      "stateMutability": "view",
      "type": "function"
    },
    {
      "inputs": [
        {
          "internalType": "uint256",
          "name": "_vaultId",
          "type": "uint256"
        }
      ],
      "name": "liquidationReward",
      "outputs": [
        {
          "internalType": "uint256",
          "name": "rewardCollateral",
          "type": "uint256"
        }
      ],
      "stateMutability": "view",
      "type": "function"
    },
    {
      "inputs": [
        {
          "internalType": "uint256",
          "name": "_amount",
          "type": "uint256"
        }
      ],
      "name": "mint",
      "outputs": [],
      "stateMutability": "nonpayable",
      "type": "function"
    },
    {
      "inputs": [],
      "name": "owner",
      "outputs": [
        {
          "internalType": "address",
          "name": "",
          "type": "address"
        }
      ],
      "stateMutability": "view",
      "type": "function"
    },
    {
      "inputs": [],
      "name": "pause",
      "outputs": [],
      "stateMutability": "nonpayable",
      "type": "function"
    },
    {
      "inputs": [],
      "name": "paused",
      "outputs": [
        {
          "internalType": "bool",
          "name": "",
          "type": "bool"
        }
      ],
      "stateMutability": "view",
      "type": "function"
    },
    {
      "inputs": [],
      "name": "ratio",
      "outputs": [
        {
          "internalType": "uint256",
          "name": "",
          "type": "uint256"
        }
      ],
      "stateMutability": "view",
      "type": "function"
    },
    {
      "inputs": [
        {
          "internalType": "uint256",
          "name": "_amount",
          "type": "uint256"
        }
      ],
      "name": "removeCollateral",
      "outputs": [],
      "stateMutability": "nonpayable",
      "type": "function"
    },
    {
      "inputs": [
        {
          "internalType": "uint256",
          "name": "_amount",
          "type": "uint256"
        }
      ],
      "name": "removeCollateralETH",
      "outputs": [],
      "stateMutability": "nonpayable",
      "type": "function"
    },
    {
      "inputs": [],
      "name": "renounceOwnership",
      "outputs": [],
      "stateMutability": "nonpayable",
      "type": "function"
    },
    {
      "inputs": [
        {
          "internalType": "bytes32",
          "name": "role",
          "type": "bytes32"
        },
        {
          "internalType": "address",
          "name": "account",
          "type": "address"
        }
      ],
      "name": "renounceRole",
      "outputs": [],
      "stateMutability": "nonpayable",
      "type": "function"
    },
    {
      "inputs": [
        {
          "internalType": "uint256",
          "name": "_amount",
          "type": "uint256"
        }
      ],
      "name": "requiredCollateral",
      "outputs": [
        {
          "internalType": "uint256",
          "name": "collateral",
          "type": "uint256"
        }
      ],
      "stateMutability": "view",
      "type": "function"
    },
    {
      "inputs": [
        {
          "internalType": "uint256",
          "name": "_vaultId",
          "type": "uint256"
        }
      ],
      "name": "requiredLiquidationCollateral",
      "outputs": [
        {
          "internalType": "uint256",
          "name": "collateral",
          "type": "uint256"
        }
      ],
      "stateMutability": "view",
      "type": "function"
    },
    {
      "inputs": [],
      "name": "retrieveFees",
      "outputs": [],
      "stateMutability": "nonpayable",
      "type": "function"
    },
    {
      "inputs": [
        {
          "internalType": "bytes32",
          "name": "role",
          "type": "bytes32"
        },
        {
          "internalType": "address",
          "name": "account",
          "type": "address"
        }
      ],
      "name": "revokeRole",
      "outputs": [],
      "stateMutability": "nonpayable",
      "type": "function"
    },
    {
      "inputs": [
        {
          "internalType": "uint256",
          "name": "_burnFee",
          "type": "uint256"
        }
      ],
      "name": "setBurnFee",
      "outputs": [],
      "stateMutability": "nonpayable",
      "type": "function"
    },
    {
      "inputs": [
        {
          "internalType": "contract IERC20",
          "name": "_collateralContract",
          "type": "address"
        }
      ],
      "name": "setCollateralContract",
      "outputs": [],
      "stateMutability": "nonpayable",
      "type": "function"
    },
    {
      "inputs": [
        {
          "internalType": "contract ChainlinkOracle",
          "name": "_collateral",
          "type": "address"
        }
      ],
      "name": "setCollateralPriceOracle",
      "outputs": [],
      "stateMutability": "nonpayable",
      "type": "function"
    },
    {
      "inputs": [
        {
          "internalType": "uint256",
          "name": "_divisor",
          "type": "uint256"
        }
      ],
      "name": "setDivisor",
      "outputs": [],
      "stateMutability": "nonpayable",
      "type": "function"
    },
    {
      "inputs": [
        {
          "internalType": "contract ChainlinkOracle",
          "name": "_ethPriceOracle",
          "type": "address"
        }
      ],
      "name": "setETHPriceOracle",
      "outputs": [],
      "stateMutability": "nonpayable",
      "type": "function"
    },
    {
      "inputs": [
        {
          "internalType": "uint256",
          "name": "_liquidationPenalty",
          "type": "uint256"
        }
      ],
      "name": "setLiquidationPenalty",
      "outputs": [],
      "stateMutability": "nonpayable",
      "type": "function"
    },
    {
      "inputs": [
        {
          "internalType": "uint256",
          "name": "_ratio",
          "type": "uint256"
        }
      ],
      "name": "setRatio",
      "outputs": [],
      "stateMutability": "nonpayable",
      "type": "function"
    },
    {
      "inputs": [
        {
          "internalType": "contract TCAP",
          "name": "_TCAPToken",
          "type": "address"
        }
      ],
      "name": "setTCAPContract",
      "outputs": [],
      "stateMutability": "nonpayable",
      "type": "function"
    },
    {
      "inputs": [
        {
          "internalType": "contract ChainlinkOracle",
          "name": "_oracle",
          "type": "address"
        }
      ],
      "name": "setTCAPOracle",
      "outputs": [],
      "stateMutability": "nonpayable",
      "type": "function"
    },
    {
      "inputs": [
        {
          "internalType": "bytes4",
          "name": "interfaceId",
          "type": "bytes4"
        }
      ],
      "name": "supportsInterface",
      "outputs": [
        {
          "internalType": "bool",
          "name": "",
          "type": "bool"
        }
      ],
      "stateMutability": "view",
      "type": "function"
    },
    {
      "inputs": [],
      "name": "tcapOracle",
      "outputs": [
        {
          "internalType": "contract ChainlinkOracle",
          "name": "",
          "type": "address"
        }
      ],
      "stateMutability": "view",
      "type": "function"
    },
    {
      "inputs": [
        {
          "internalType": "address",
          "name": "newOwner",
          "type": "address"
        }
      ],
      "name": "transferOwnership",
      "outputs": [],
      "stateMutability": "nonpayable",
      "type": "function"
    },
    {
      "inputs": [],
      "name": "unpause",
      "outputs": [],
      "stateMutability": "nonpayable",
      "type": "function"
    },
    {
      "inputs": [
        {
          "internalType": "address",
          "name": "",
          "type": "address"
        }
      ],
      "name": "vaultToUser",
      "outputs": [
        {
          "internalType": "uint256",
          "name": "",
          "type": "uint256"
        }
      ],
      "stateMutability": "view",
      "type": "function"
    },
    {
      "inputs": [
        {
          "internalType": "uint256",
          "name": "",
          "type": "uint256"
        }
      ],
      "name": "vaults",
      "outputs": [
        {
          "internalType": "uint256",
          "name": "Id",
          "type": "uint256"
        },
        {
          "internalType": "uint256",
          "name": "Collateral",
          "type": "uint256"
        },
        {
          "internalType": "uint256",
          "name": "Debt",
          "type": "uint256"
        },
        {
          "internalType": "address",
          "name": "Owner",
          "type": "address"
        }
      ],
      "stateMutability": "view",
      "type": "function"
    },
    {
      "stateMutability": "payable",
      "type": "receive"
    }
  ],
  "address": "0x632338CfcC1F3BEe8f4eDB5301a69043851fe4BB",
  "args": [
    "0x589461339aF187D98Df29042B866bcb922799844"
  ],
  "solcInputHash": "0x1ee89c808e69d10593f6a05f86f58297bb2a2c0590398db98c083e0dd5c7ab55",
  "bytecode": "0x60806040523480156200001157600080fd5b5060405162003e3838038062003e38833981810160405260208110156200003757600080fd5b50518060006200004f6001600160e01b03620000e116565b600080546001600160a01b0319166001600160a01b03831690811782556040519293509160008051602062003e18833981519152908290a35060016002556003805460ff19169055620000af6004620000e5602090811b62002fa117901c565b620000c56000336001600160e01b03620000ee16565b620000d9816001600160e01b036200010716565b50506200032b565b3390565b80546001019055565b6200010382826001600160e01b036200020e16565b5050565b6200011a6001600160e01b03620000e116565b6000546001600160a01b039081169116146200017d576040805162461bcd60e51b815260206004820181905260248201527f4f776e61626c653a2063616c6c6572206973206e6f7420746865206f776e6572604482015290519081900360640190fd5b6001600160a01b038116620001c45760405162461bcd60e51b815260040180806020018281038252602681526020018062003df26026913960400191505060405180910390fd5b600080546040516001600160a01b038085169392169160008051602062003e1883398151915291a3600080546001600160a01b0319166001600160a01b0392909216919091179055565b60008281526001602090815260409091206200023591839062002faa62000292821b17901c565b1562000103576200024e6001600160e01b03620000e116565b6001600160a01b0316816001600160a01b0316837f2f8788117e7eff1d82e926ec794901d17c78024a50270940304540a733656f0d60405160405180910390a45050565b6000620002b2836001600160a01b0384166001600160e01b03620002bb16565b90505b92915050565b6000620002d283836001600160e01b036200031316565b6200030a57508154600181810184556000848152602080822090930184905584548482528286019093526040902091909155620002b5565b506000620002b5565b60009081526001919091016020526040902054151590565b613ab7806200033b6000396000f3fe6080604052600436106103035760003560e01c80638c64ea4a11610190578063c543a1a0116100dc578063e941cd0611610095578063f4bfd3461161006f578063f4bfd34614610a92578063f58bc29e14610b01578063fce589d814610b2b578063fcee45f414610b405761031e565b8063e941cd06146109f9578063f2fde38b14610a2c578063f31e65ad14610a5f5761031e565b8063c543a1a0146108f1578063c6e1c7c914610924578063ca15c87314610939578063d318a7df14610963578063d547741f1461098d578063e5d8a651146109c65761031e565b806397994e3011610149578063abb7bc4a11610123578063abb7bc4a1461085e578063b2237ba314610888578063bae8cae5146108b2578063bcc46e83146108c75761031e565b806397994e301461080a578063a0712d681461081f578063a217fddf146108495761031e565b80638c64ea4a146106b85780638da5cb5b146107115780639010d07c1461072657806391d14854146107565780639403b6341461078f578063952cc86a146107e75761031e565b806342966c681161024f578063709f5ccc11610208578063787eb306116101e2578063787eb30614610631578063842e357c146106645780638456cb59146106795780638c01f2111461068e5761031e565b8063709f5ccc146105dd578063715018a61461060757806371ca337d1461061c5761031e565b806342966c681461054257806346dc90071461055f5780634bf2c7c9146105745780635c975abb1461059e5780635d12928b146105b35780636ca2143c146105c85761031e565b806323f5589a116102bc5780632f2ff15d116102965780632f2ff15d146104915780633237c158146104ca57806336568abe146104f45780633f4ba83a1461052d5761031e565b806323f5589a14610428578063248a9ca31461043d5780632806a743146104675761031e565b806301ffc9a7146103235780630d23cc791461036b57806311d850e8146103735780631cc244ba146103af5780631f2dc5ef146103e05780631fd0c43e146103f55761031e565b3661031e576007546001600160a01b0316331461031c57fe5b005b600080fd5b34801561032f57600080fd5b506103576004803603602081101561034657600080fd5b50356001600160e01b031916610b6a565b604080519115158252519081900360200190f35b61031c610ba1565b34801561037f57600080fd5b5061039d6004803603602081101561039657600080fd5b5035610db3565b60408051918252519081900360200190f35b3480156103bb57600080fd5b506103c4610ec1565b604080516001600160a01b039092168252519081900360200190f35b3480156103ec57600080fd5b5061039d610ed0565b34801561040157600080fd5b5061031c6004803603602081101561041857600080fd5b50356001600160a01b0316610ed6565b34801561043457600080fd5b5061039d610f85565b34801561044957600080fd5b5061039d6004803603602081101561046057600080fd5b5035610f8b565b34801561047357600080fd5b5061031c6004803603602081101561048a57600080fd5b5035610fa0565b34801561049d57600080fd5b5061031c600480360360408110156104b457600080fd5b50803590602001356001600160a01b0316611036565b3480156104d657600080fd5b5061031c600480360360208110156104ed57600080fd5b50356110a2565b34801561050057600080fd5b5061031c6004803603604081101561051757600080fd5b50803590602001356001600160a01b031661136d565b34801561053957600080fd5b5061031c6113ce565b61031c6004803603602081101561055857600080fd5b5035611430565b34801561056b57600080fd5b5061039d611613565b34801561058057600080fd5b5061031c6004803603602081101561059757600080fd5b503561168d565b3480156105aa57600080fd5b50610357611723565b3480156105bf57600080fd5b5061031c61172c565b3480156105d457600080fd5b506103c461189d565b3480156105e957600080fd5b5061031c6004803603602081101561060057600080fd5b50356118ac565b34801561061357600080fd5b5061031c611942565b34801561062857600080fd5b5061039d6119e4565b34801561063d57600080fd5b5061031c6004803603602081101561065457600080fd5b50356001600160a01b03166119ea565b34801561067057600080fd5b506103c4611a98565b34801561068557600080fd5b5061031c611aa7565b34801561069a57600080fd5b5061039d600480360360208110156106b157600080fd5b5035611b07565b3480156106c457600080fd5b506106e2600480360360208110156106db57600080fd5b5035611c25565b604080519485526020850193909352838301919091526001600160a01b03166060830152519081900360800190f35b34801561071d57600080fd5b506103c4611c55565b34801561073257600080fd5b506103c46004803603604081101561074957600080fd5b5080359060200135611c64565b34801561076257600080fd5b506103576004803603604081101561077957600080fd5b50803590602001356001600160a01b0316611c89565b34801561079b57600080fd5b506107b9600480360360208110156107b257600080fd5b5035611ca7565b6040805194855260208501939093526001600160a01b03909116838301526060830152519081900360800190f35b61031c600480360360408110156107fd57600080fd5b5080359060200135611d0e565b34801561081657600080fd5b506103c4611fb6565b34801561082b57600080fd5b5061031c6004803603602081101561084257600080fd5b5035611fc5565b34801561085557600080fd5b5061039d612281565b34801561086a57600080fd5b5061039d6004803603602081101561088157600080fd5b5035612286565b34801561089457600080fd5b5061031c600480360360208110156108ab57600080fd5b5035612313565b3480156108be57600080fd5b5061031c6123a9565b3480156108d357600080fd5b5061031c600480360360208110156108ea57600080fd5b503561247c565b3480156108fd57600080fd5b5061031c6004803603602081101561091457600080fd5b50356001600160a01b03166126a8565b34801561093057600080fd5b506103c4612757565b34801561094557600080fd5b5061039d6004803603602081101561095c57600080fd5b5035612766565b34801561096f57600080fd5b5061031c6004803603602081101561098657600080fd5b503561277d565b34801561099957600080fd5b5061031c600480360360408110156109b057600080fd5b50803590602001356001600160a01b0316612a38565b3480156109d257600080fd5b5061031c600480360360208110156109e957600080fd5b50356001600160a01b0316612a91565b348015610a0557600080fd5b5061031c60048036036020811015610a1c57600080fd5b50356001600160a01b0316612b40565b348015610a3857600080fd5b5061031c60048036036020811015610a4f57600080fd5b50356001600160a01b0316612bef565b348015610a6b57600080fd5b5061039d60048036036020811015610a8257600080fd5b50356001600160a01b0316612ce7565b348015610a9e57600080fd5b5061031c6004803603610120811015610ab657600080fd5b508035906020810135906040810135906060810135906001600160a01b03608082013581169160a081013582169160c082013581169160e08101358216916101009091013516612cf9565b348015610b0d57600080fd5b5061039d60048036036020811015610b2457600080fd5b5035612dc8565b348015610b3757600080fd5b5061039d612f21565b348015610b4c57600080fd5b5061039d60048036036020811015610b6357600080fd5b5035612f27565b60006001600160e01b0319821663409e4a0f60e01b1480610b9b57506001600160e01b031982166301ffc9a760e01b145b92915050565b600280541415610be6576040805162461bcd60e51b815260206004820152601f60248201526000805160206138ec833981519152604482015290519081900360640190fd5b60028055336000908152600e6020526040902054610c3e576040805162461bcd60e51b815260206004820152601060248201526f139bc815985d5b1d0818dc99585d195960821b604482015290519081900360640190fd5b60035460ff1615610c89576040805162461bcd60e51b815260206004820152601060248201526f14185d5cd8589b194e881c185d5cd95960821b604482015290519081900360640190fd5b60003411610cd1576040805162461bcd60e51b815260206004820152601060248201526f056616c75652063616e277420626520360841b604482015290519081900360640190fd5b600760009054906101000a90046001600160a01b03166001600160a01b031663d0e30db0346040518263ffffffff1660e01b81526004016000604051808303818588803b158015610d2157600080fd5b505af1158015610d35573d6000803e3d6000fd5b5050336000908152600e60209081526040808320548352600f90915290206001810154909350610d6e925090503463ffffffff612fbf16565b6001820155805460408051348152905133917f31ac33c8e5d32723055870a2be01442545a84680341c886373c957110bc175dc919081900360200190a3506001600255565b600080610dbf83612dc8565b90506000610dcb611613565b90506000610e666402540be400610e5a600860009054906101000a90046001600160a01b03166001600160a01b03166396237c026040518163ffffffff1660e01b815260040160206040518083038186803b158015610e2957600080fd5b505afa158015610e3d573d6000803e3d6000fd5b505050506040513d6020811015610e5357600080fd5b5051613019565b9063ffffffff61307416565b90506000610ea16064610e95610e886064600d54612fbf90919063ffffffff16565b879063ffffffff61307416565b9063ffffffff6130cd16565b9050610eb782610e95838663ffffffff61307416565b9695505050505050565b6006546001600160a01b031681565b600a5481565b610ede61310f565b6000546001600160a01b03908116911614610f2e576040805162461bcd60e51b815260206004820181905260248201526000805160206139a6833981519152604482015290519081900360640190fd5b600880546001600160a01b0383166001600160a01b03199091168117909155604080519182525133917f66e2fd6dbdcf5f01b6b838597eaff18e974d846a5db5a38a8faf8d5e875aeec4919081900360200190a250565b600d5481565b60009081526001602052604090206002015490565b610fa861310f565b6000546001600160a01b03908116911614610ff8576040805162461bcd60e51b815260206004820181905260248201526000805160206139a6833981519152604482015290519081900360640190fd5b600d81905560408051828152905133917f6fdf5e426cb97389332e6d1c998d5123734bd7f204aa29b4a8284734c7aaa0ae919081900360200190a250565b6000828152600160205260409020600201546110599061105461310f565b611c89565b6110945760405162461bcd60e51b815260040180806020018281038252602f8152602001806138bd602f913960400191505060405180910390fd5b61109e8282613113565b5050565b6002805414156110e7576040805162461bcd60e51b815260206004820152601f60248201526000805160206138ec833981519152604482015290519081900360640190fd5b60028055336000908152600e602052604090205461113f576040805162461bcd60e51b815260206004820152601060248201526f139bc815985d5b1d0818dc99585d195960821b604482015290519081900360640190fd5b60035460ff161561118a576040805162461bcd60e51b815260206004820152601060248201526f14185d5cd8589b194e881c185d5cd95960821b604482015290519081900360640190fd5b80806111d0576040805162461bcd60e51b815260206004820152601060248201526f056616c75652063616e277420626520360841b604482015290519081900360640190fd5b336000908152600e60209081526040808320548352600f909152812080549091906111fa90611b07565b9050838260010154101561123f5760405162461bcd60e51b8152600401808060200182810382526040815260200180613a136040913960400191505060405180910390fd5b6001820154611254908563ffffffff61318216565b600183015580156112aa57600b54825461126d90611b07565b10156112aa5760405162461bcd60e51b815260040180806020018281038252602381526020018061390c6023913960400191505060405180910390fd5b6007546040805163a9059cbb60e01b81523360048201526024810187905290516001600160a01b039092169163a9059cbb916044808201926020929091908290030181600087803b1580156112fe57600080fd5b505af1158015611312573d6000803e3d6000fd5b505050506040513d602081101561132857600080fd5b5050815460408051868152905133917f9b849e292191860667c493bd0657a5c71fd2350e4645303bddfc435da85c7c20919081900360200190a3505060016002555050565b61137561310f565b6001600160a01b0316816001600160a01b0316146113c45760405162461bcd60e51b815260040180806020018281038252602f815260200180613a53602f913960400191505060405180910390fd5b61109e82826131c4565b6113d661310f565b6000546001600160a01b03908116911614611426576040805162461bcd60e51b815260206004820181905260248201526000805160206139a6833981519152604482015290519081900360640190fd5b61142e613233565b565b600280541415611475576040805162461bcd60e51b815260206004820152601f60248201526000805160206138ec833981519152604482015290519081900360640190fd5b60028055336000908152600e60205260409020546114cd576040805162461bcd60e51b815260206004820152601060248201526f139bc815985d5b1d0818dc99585d195960821b604482015290519081900360640190fd5b60035460ff1615611518576040805162461bcd60e51b815260206004820152601060248201526f14185d5cd8589b194e881c185d5cd95960821b604482015290519081900360640190fd5b808061155e576040805162461bcd60e51b815260206004820152601060248201526f056616c75652063616e277420626520360841b604482015290519081900360640190fd5b611566613869565b50336000908152600e60209081526040808320548352600f8252918290208251608081018452815481526001820154928101929092526002810154928201929092526003909101546001600160a01b031660608201526115c5836132d1565b80516115d19084613332565b805160408051858152905133917f21cb60dab84f5815c7c4197b8935326f424383c894633344b495319ada0658aa919081900360200190a35050600160025550565b6000806116706402540be400610e5a600660009054906101000a90046001600160a01b03166001600160a01b03166396237c026040518163ffffffff1660e01b815260040160206040518083038186803b158015610e2957600080fd5b9050611687600a54826130cd90919063ffffffff16565b91505090565b61169561310f565b6000546001600160a01b039081169116146116e5576040805162461bcd60e51b815260206004820181905260248201526000805160206139a6833981519152604482015290519081900360640190fd5b600c81905560408051828152905133917f8cee12d433ab3655cf1b6189969ae35611c638f002d75202b4c8f260746ef20f919081900360200190a250565b60035460ff1690565b60035460ff1615611777576040805162461bcd60e51b815260206004820152601060248201526f14185d5cd8589b194e881c185d5cd95960821b604482015290519081900360640190fd5b336000908152600e6020526040902054156117d1576040805162461bcd60e51b815260206004820152601560248201527415985d5b1d08185b1c9958591e4818dc99585d1959605a1b604482015290519081900360640190fd5b60006117dd6004613423565b336000908152600e6020526040902081905590506117f9613869565b5060408051608081018252828152600060208083018281528385018381523360608601908152878552600f909352949092208351815591516001830155925160028201559151600390920180546001600160a01b0319166001600160a01b039093169290921790915561186c6004612fa1565b604051829033907f2fc6c3ac0740e97bb7c9a7b06221dafe87b5286c5076d86c8cb78bf1de9bd40a90600090a35050565b6005546001600160a01b031681565b6118b461310f565b6000546001600160a01b03908116911614611904576040805162461bcd60e51b815260206004820181905260248201526000805160206139a6833981519152604482015290519081900360640190fd5b600a81905560408051828152905133917ff5deac769e4391f28d78f7a013b140c7dbae3a75931f63039d566c556a525ad1919081900360200190a250565b61194a61310f565b6000546001600160a01b0390811691161461199a576040805162461bcd60e51b815260206004820181905260248201526000805160206139a6833981519152604482015290519081900360640190fd5b600080546040516001600160a01b03909116907f8be0079c531659141344cd1fd0a4f28419497f9722a3daafe3b4186f6b6457e0908390a3600080546001600160a01b0319169055565b600b5481565b6119f261310f565b6000546001600160a01b03908116911614611a42576040805162461bcd60e51b815260206004820181905260248201526000805160206139a6833981519152604482015290519081900360640190fd5b600980546001600160a01b0383166001600160a01b03199091168117909155604080519182525133917ecf639fbd3d2b82ae84c47d4403b21b1e360751f0cca32fbc932bdcbe548c5e919081900360200190a250565b6008546001600160a01b031681565b611aaf61310f565b6000546001600160a01b03908116911614611aff576040805162461bcd60e51b815260206004820181905260248201526000805160206139a6833981519152604482015290519081900360640190fd5b61142e613427565b6000611b11613869565b506000828152600f602090815260409182902082516080810184528154808252600183015493820193909352600282015493810193909352600301546001600160a01b031660608301521580611b6957506040810151155b15611b775760009150611c1f565b6000611bd36402540be400610e5a600860009054906101000a90046001600160a01b03166001600160a01b03166396237c026040518163ffffffff1660e01b815260040160206040518083038186803b158015610e2957600080fd5b9050611c1b611bf4611be3611613565b60408501519063ffffffff61307416565b6020840151610e9590611c0e90606463ffffffff61307416565b849063ffffffff61307416565b9250505b50919050565b600f602052600090815260409020805460018201546002830154600390930154919290916001600160a01b031684565b6000546001600160a01b031690565b6000828152600160205260408120611c82908363ffffffff6134a816565b9392505050565b6000828152600160205260408120611c82908363ffffffff6134b416565b600080600080611cb5613869565b50505060009283525050600f602090815260409182902082516080810184528154808252600183015493820184905260028301549482018590526003909201546001600160a01b03166060909101819052909391929091565b600280541415611d53576040805162461bcd60e51b815260206004820152601f60248201526000805160206138ec833981519152604482015290519081900360640190fd5b6002805560035460ff1615611da2576040805162461bcd60e51b815260206004820152601060248201526f14185d5cd8589b194e881c185d5cd95960821b604482015290519081900360640190fd5b6000828152600f602052604090208054611df6576040805162461bcd60e51b815260206004820152601060248201526f139bc815985d5b1d0818dc99585d195960821b604482015290519081900360640190fd5b6000611e058260000154611b07565b9050600b548110611e5d576040805162461bcd60e51b815260206004820152601760248201527f5661756c74206973206e6f74206c697175696461626c65000000000000000000604482015290519081900360640190fd5b6000611e6c8360000154612dc8565b9050808414611eac5760405162461bcd60e51b815260040180806020018281038252602a8152602001806139e9602a913960400191505060405180910390fd5b6000611ebb8460000154610db3565b9050611ec6856132d1565b8354611ed29086613332565b6001840154611ee7908263ffffffff61318216565b60018501556007546040805163a9059cbb60e01b81523360048201526024810184905290516001600160a01b039092169163a9059cbb916044808201926020929091908290030181600087803b158015611f4057600080fd5b505af1158015611f54573d6000803e3d6000fd5b505050506040513d6020811015611f6a57600080fd5b50508354604080518481526020810184905281513393927fc07e3ac2fb130a0f07f1bdea4de0051bd1d99076a5a19c5d04e4a88cd73cdd5b928290030190a35050600160025550505050565b6009546001600160a01b031681565b60028054141561200a576040805162461bcd60e51b815260206004820152601f60248201526000805160206138ec833981519152604482015290519081900360640190fd5b60028055336000908152600e6020526040902054612062576040805162461bcd60e51b815260206004820152601060248201526f139bc815985d5b1d0818dc99585d195960821b604482015290519081900360640190fd5b60035460ff16156120ad576040805162461bcd60e51b815260206004820152601060248201526f14185d5cd8589b194e881c185d5cd95960821b604482015290519081900360640190fd5b80806120f3576040805162461bcd60e51b815260206004820152601060248201526f056616c75652063616e277420626520360841b604482015290519081900360640190fd5b336000908152600e60209081526040808320548352600f90915281209061211984612286565b9050808260010154101561216c576040805162461bcd60e51b8152602060048201526015602482015274139bdd08195b9bdd59da0818dbdb1b185d195c985b605a1b604482015290519081900360640190fd5b6002820154612181908563ffffffff612fbf16565b6002830155600b54825461219490611b07565b10156121d15760405162461bcd60e51b815260040180806020018281038252602381526020018061390c6023913960400191505060405180910390fd5b600554604080516340c10f1960e01b81523360048201526024810187905290516001600160a01b03909216916340c10f199160448082019260009290919082900301818387803b15801561222457600080fd5b505af1158015612238573d6000803e3d6000fd5b505083546040805188815290519193503392507fa82a7ea15c804d00dba1b969024b510969fde70fac8e0d5da860cf1f7376d317919081900360200190a3505060016002555050565b600081565b600080612291611613565b905060006122ef6402540be400610e5a600860009054906101000a90046001600160a01b03166001600160a01b03166396237c026040518163ffffffff1660e01b815260040160206040518083038186803b158015610e2957600080fd5b9050611c1b81610e956064610e95600b54610e5a8a8961307490919063ffffffff16565b61231b61310f565b6000546001600160a01b0390811691161461236b576040805162461bcd60e51b815260206004820181905260248201526000805160206139a6833981519152604482015290519081900360640190fd5b600b81905560408051828152905133917f745333eadc1991720ed6c94ad80c7b81898a7d7ca230f4107bc38eecd95e9e45919081900360200190a250565b6123b161310f565b6000546001600160a01b03908116911614612401576040805162461bcd60e51b815260206004820181905260248201526000805160206139a6833981519152604482015290519081900360640190fd5b4761240a611c55565b6001600160a01b03166108fc829081150290604051600060405180830381858888f19350505050158015612442573d6000803e3d6000fd5b5060408051828152905133917fa0f15d6e433e5a79b54bc760ff6406f0a5f45d6b6ce085ff9a7d0481f6d28158919081900360200190a250565b6002805414156124c1576040805162461bcd60e51b815260206004820152601f60248201526000805160206138ec833981519152604482015290519081900360640190fd5b60028055336000908152600e6020526040902054612519576040805162461bcd60e51b815260206004820152601060248201526f139bc815985d5b1d0818dc99585d195960821b604482015290519081900360640190fd5b60035460ff1615612564576040805162461bcd60e51b815260206004820152601060248201526f14185d5cd8589b194e881c185d5cd95960821b604482015290519081900360640190fd5b80806125aa576040805162461bcd60e51b815260206004820152601060248201526f056616c75652063616e277420626520360841b604482015290519081900360640190fd5b600754604080516323b872dd60e01b81523360048201523060248201526044810185905290516001600160a01b03909216916323b872dd916064808201926020929091908290030181600087803b15801561260457600080fd5b505af1158015612618573d6000803e3d6000fd5b505050506040513d602081101561262e57600080fd5b5050336000908152600e60209081526040808320548352600f90915290206001810154612661908463ffffffff612fbf16565b6001820155805460408051858152905133917f31ac33c8e5d32723055870a2be01442545a84680341c886373c957110bc175dc919081900360200190a35050600160025550565b6126b061310f565b6000546001600160a01b03908116911614612700576040805162461bcd60e51b815260206004820181905260248201526000805160206139a6833981519152604482015290519081900360640190fd5b600680546001600160a01b0383166001600160a01b03199091168117909155604080519182525133917f5d19e13c5fcca5f56b1af0f7e4fb4a7a63031196b48f3a411cfbc4ea967ab3be919081900360200190a250565b6007546001600160a01b031681565b6000818152600160205260408120610b9b906134c9565b6002805414156127c2576040805162461bcd60e51b815260206004820152601f60248201526000805160206138ec833981519152604482015290519081900360640190fd5b60028055336000908152600e602052604090205461281a576040805162461bcd60e51b815260206004820152601060248201526f139bc815985d5b1d0818dc99585d195960821b604482015290519081900360640190fd5b60035460ff1615612865576040805162461bcd60e51b815260206004820152601060248201526f14185d5cd8589b194e881c185d5cd95960821b604482015290519081900360640190fd5b600081116128ad576040805162461bcd60e51b815260206004820152601060248201526f056616c75652063616e277420626520360841b604482015290519081900360640190fd5b336000908152600e60209081526040808320548352600f909152812080549091906128d790611b07565b9050828260010154101561291c5760405162461bcd60e51b8152600401808060200182810382526040815260200180613a136040913960400191505060405180910390fd5b6001820154612931908463ffffffff61318216565b6001830155801561298757600b54825461294a90611b07565b10156129875760405162461bcd60e51b815260040180806020018281038252602381526020018061390c6023913960400191505060405180910390fd5b60075460408051632e1a7d4d60e01b81526004810186905290516001600160a01b0390921691632e1a7d4d9160248082019260009290919082900301818387803b1580156129d457600080fd5b505af11580156129e8573d6000803e3d6000fd5b505050506129f633846134d4565b815460408051858152905133917f9b849e292191860667c493bd0657a5c71fd2350e4645303bddfc435da85c7c20919081900360200190a35050600160025550565b600082815260016020526040902060020154612a569061105461310f565b6113c45760405162461bcd60e51b81526004018080602001828103825260308152602001806139556030913960400191505060405180910390fd5b612a9961310f565b6000546001600160a01b03908116911614612ae9576040805162461bcd60e51b815260206004820181905260248201526000805160206139a6833981519152604482015290519081900360640190fd5b600580546001600160a01b0383166001600160a01b03199091168117909155604080519182525133917f31a1001df848f4c2283a73f19049d2b8922af595ba150545490fd92d08731723919081900360200190a250565b612b4861310f565b6000546001600160a01b03908116911614612b98576040805162461bcd60e51b815260206004820181905260248201526000805160206139a6833981519152604482015290519081900360640190fd5b600780546001600160a01b0383166001600160a01b03199091168117909155604080519182525133917fc8740b8e1db0dd680a749baa2f7018dd94245006fc3d465c54b32c931144e7b7919081900360200190a250565b612bf761310f565b6000546001600160a01b03908116911614612c47576040805162461bcd60e51b815260206004820181905260248201526000805160206139a6833981519152604482015290519081900360640190fd5b6001600160a01b038116612c8c5760405162461bcd60e51b815260040180806020018281038252602681526020018061392f6026913960400191505060405180910390fd5b600080546040516001600160a01b03808516939216917f8be0079c531659141344cd1fd0a4f28419497f9722a3daafe3b4186f6b6457e091a3600080546001600160a01b0319166001600160a01b0392909216919091179055565b600e6020526000908152604090205481565b612d0161310f565b6000546001600160a01b03908116911614612d51576040805162461bcd60e51b815260206004820181905260248201526000805160206139a6833981519152604482015290519081900360640190fd5b600a98909855600b96909655600c94909455600d92909255600680546001600160a01b03199081166001600160a01b03938416179091556007805482169483169490941790935560088054841694821694909417909355600980548316948416949094179093556005805490911691909216179055565b6000612dd2613869565b506000828152600f60209081526040808320815160808101835281548152600182015493810193909352600281015491830191909152600301546001600160a01b0316606082015290612e23611613565b90506000612e816402540be400610e5a600860009054906101000a90046001600160a01b03166001600160a01b03166396237c026040518163ffffffff1660e01b815260040160206040518083038186803b158015610e2957600080fd5b90506000612ea083610e9584876020015161307490919063ffffffff16565b90506000612ed76064610e5a84612ecb6064610e95600b548c6040015161307490919063ffffffff16565b9063ffffffff61318216565b90506000612f03612ef46064600d54612fbf90919063ffffffff16565b600b549063ffffffff61318216565b9050612f15828263ffffffff6130cd16565b98975050505050505050565b600c5481565b600080612f846402540be400610e5a600960009054906101000a90046001600160a01b03166001600160a01b03166396237c026040518163ffffffff1660e01b815260040160206040518083038186803b158015610e2957600080fd5b9050611c8281610e956064610e95600c54610e5a89610e5a611613565b80546001019055565b6000611c82836001600160a01b0384166135cc565b600082820183811015611c82576040805162461bcd60e51b815260206004820152601b60248201527f536166654d6174683a206164646974696f6e206f766572666c6f770000000000604482015290519081900360640190fd5b600080821215613070576040805162461bcd60e51b815260206004820181905260248201527f53616665436173743a2076616c7565206d75737420626520706f736974697665604482015290519081900360640190fd5b5090565b60008261308357506000610b9b565b8282028284828161309057fe5b0414611c825760405162461bcd60e51b81526004018080602001828103825260218152602001806139856021913960400191505060405180910390fd5b6000611c8283836040518060400160405280601a81526020017f536166654d6174683a206469766973696f6e206279207a65726f000000000000815250613616565b3390565b6000828152600160205260409020613131908263ffffffff612faa16565b1561109e5761313e61310f565b6001600160a01b0316816001600160a01b0316837f2f8788117e7eff1d82e926ec794901d17c78024a50270940304540a733656f0d60405160405180910390a45050565b6000611c8283836040518060400160405280601e81526020017f536166654d6174683a207375627472616374696f6e206f766572666c6f7700008152506136b8565b60008281526001602052604090206131e2908263ffffffff61371216565b1561109e576131ef61310f565b6001600160a01b0316816001600160a01b0316837ff6391f5c32d9c69d2a47ea670b442974b53935d1edc7fd64eb21e047a839171b60405160405180910390a45050565b60035460ff16613281576040805162461bcd60e51b815260206004820152601460248201527314185d5cd8589b194e881b9bdd081c185d5cd95960621b604482015290519081900360640190fd5b6003805460ff191690557f5db9ee0a495bf2e6ff9c91a7834c1ba4fdd244a5e8aa4e537bd38aeae4b073aa6132b461310f565b604080516001600160a01b039092168252519081900360200190a1565b60006132dc82612f27565b905034811461109e576040805162461bcd60e51b815260206004820181905260248201527f4275726e2066656520646966666572656e74207468616e207265717569726564604482015290519081900360640190fd5b6000828152600f602052604090206002810154821115613399576040805162461bcd60e51b815260206004820152601860248201527f416d6f756e742067726561746572207468616e20646562740000000000000000604482015290519081900360640190fd5b60028101546133ae908363ffffffff61318216565b600282015560055460408051632770a7eb60e21b81523360048201526024810185905290516001600160a01b0390921691639dc29fac9160448082019260009290919082900301818387803b15801561340657600080fd5b505af115801561341a573d6000803e3d6000fd5b50505050505050565b5490565b60035460ff1615613472576040805162461bcd60e51b815260206004820152601060248201526f14185d5cd8589b194e881c185d5cd95960821b604482015290519081900360640190fd5b6003805460ff191660011790557f62e78cea01bee320cd4e420270b5ea74000d11b0c9f74754ebdbfc544b05a2586132b461310f565b6000611c828383613727565b6000611c82836001600160a01b03841661378b565b6000610b9b82613423565b604080516000808252602082019092526001600160a01b0384169083906040518082805190602001908083835b602083106135205780518252601f199092019160209182019101613501565b6001836020036101000a03801982511681845116808217855250505050505090500191505060006040518083038185875af1925050503d8060008114613582576040519150601f19603f3d011682016040523d82523d6000602084013e613587565b606091505b50509050806135c75760405162461bcd60e51b81526004018080602001828103825260238152602001806139c66023913960400191505060405180910390fd5b505050565b60006135d8838361378b565b61360e57508154600181810184556000848152602080822090930184905584548482528286019093526040902091909155610b9b565b506000610b9b565b600081836136a25760405162461bcd60e51b81526004018080602001828103825283818151815260200191508051906020019080838360005b8381101561366757818101518382015260200161364f565b50505050905090810190601f1680156136945780820380516001836020036101000a031916815260200191505b509250505060405180910390fd5b5060008385816136ae57fe5b0495945050505050565b6000818484111561370a5760405162461bcd60e51b815260206004820181815283516024840152835190928392604490910191908501908083836000831561366757818101518382015260200161364f565b505050900390565b6000611c82836001600160a01b0384166137a3565b815460009082106137695760405162461bcd60e51b815260040180806020018281038252602281526020018061389b6022913960400191505060405180910390fd5b82600001828154811061377857fe5b9060005260206000200154905092915050565b60009081526001919091016020526040902054151590565b6000818152600183016020526040812054801561385f57835460001980830191908101906000908790839081106137d657fe5b90600052602060002001549050808760000184815481106137f357fe5b60009182526020808320909101929092558281526001898101909252604090209084019055865487908061382357fe5b60019003818190600052602060002001600090559055866001016000878152602001908152602001600020600090556001945050505050610b9b565b6000915050610b9b565b604051806080016040528060008152602001600081526020016000815260200160006001600160a01b03168152509056fe456e756d657261626c655365743a20696e646578206f7574206f6620626f756e6473416363657373436f6e74726f6c3a2073656e646572206d75737420626520616e2061646d696e20746f206772616e745265656e7472616e637947756172643a207265656e7472616e742063616c6c00436f6c6c61746572616c2062656c6f77206d696e20726571756972656420726174696f4f776e61626c653a206e6577206f776e657220697320746865207a65726f2061646472657373416363657373436f6e74726f6c3a2073656e646572206d75737420626520616e2061646d696e20746f207265766f6b65536166654d6174683a206d756c7469706c69636174696f6e206f766572666c6f774f776e61626c653a2063616c6c6572206973206e6f7420746865206f776e65725472616e7366657248656c7065723a204554485f5452414e534645525f4641494c45444c69717569646174696f6e20616d6f756e7420646966666572656e74207468616e2072657175697265645472616e73616374696f6e207265766572746564207769746820526574726965766520616d6f756e7420686967686572207468616e20636f6c6c61746572616c416363657373436f6e74726f6c3a2063616e206f6e6c792072656e6f756e636520726f6c657320666f722073656c66a2646970667358221220a7b00bfca6ee6b8ed1aba9af89942d5dbdb57adc24346842493a1638657793bc64736f6c634300060800334f776e61626c653a206e6577206f776e657220697320746865207a65726f20616464726573738be0079c531659141344cd1fd0a4f28419497f9722a3daafe3b4186f6b6457e0",
  "devdoc": {
    "author": "Cristian Espinoza",
    "methods": {
      "TCAPPrice()": {
        "details": "TCAP token is 18 decimalsoracle totalMarketPrice must be in wei formatP = M / d P = TCAP Token Price M = Total Crypto Market Cap d = Divisor",
        "returns": {
          "price": "of the TCAP Token"
        }
      },
      "addCollateral(uint256)": {
        "details": "_amount should be higher than 0",
        "params": {
          "_amount": "of collateral to add"
        }
      },
      "addCollateralETH()": {
        "details": "value should be higher than 0"
      },
      "burn(uint256)": {
        "details": "_amount should be higher than 0",
        "params": {
          "_amount": "of tokens to burn"
        }
      },
      "createVault()": {
        "details": "Only one vault per address can be created"
      },
      "getFee(uint256)": {
        "details": "The returned value is returned on ETHf = ((P * A * b)/ 100) f = Burn Fee Value P = TCAP Token Price A = Amount to Burn b = Burn Fee %",
        "params": {
          "_amount": "to burn"
        },
        "returns": {
          "fee": "fee"
        }
      },
      "getRoleAdmin(bytes32)": {
        "details": "Returns the admin role that controls `role`. See {grantRole} and {revokeRole}.     * To change a role's admin, use {_setRoleAdmin}."
      },
      "getRoleMember(bytes32,uint256)": {
        "details": "Returns one of the accounts that have `role`. `index` must be a value between 0 and {getRoleMemberCount}, non-inclusive.     * Role bearers are not sorted in any particular way, and their ordering may change at any point.     * WARNING: When using {getRoleMember} and {getRoleMemberCount}, make sure you perform all queries on the same block. See the following https://forum.openzeppelin.com/t/iterating-over-elements-on-enumerableset-in-openzeppelin-contracts/2296[forum post] for more information."
      },
      "getRoleMemberCount(bytes32)": {
        "details": "Returns the number of accounts that have `role`. Can be used together with {getRoleMember} to enumerate all bearers of a role."
      },
      "getVault(uint256)": {
        "params": {
          "_id": "of vault"
        },
        "returns": {
          "_0": "Id, Collateral, Owner, Debt"
        }
      },
      "getVaultRatio(uint256)": {
        "details": "vr = (cp * (C * 100)) / D - P vr = Vault Ratio C = Vault Collateral cp = Collateral Price D = Vault Debt P = TCAP Token Price",
        "params": {
          "_vaultId": "id of vault"
        },
        "returns": {
          "currentRatio": "currentRatio"
        }
      },
      "grantRole(bytes32,address)": {
        "details": "Grants `role` to `account`.     * If `account` had not been already granted `role`, emits a {RoleGranted} event.     * Requirements:     * - the caller must have ``role``'s admin role."
      },
      "hasRole(bytes32,address)": {
        "details": "Returns `true` if `account` has been granted `role`."
      },
      "initialize(uint256,uint256,uint256,uint256,address,address,address,address,address)": {
        "details": "Only owner can call itCan only be called once",
        "params": {
          "_burnFee": "uint256",
          "_collateralAddress": "address",
          "_collateralOracle": "address",
          "_divisor": "uint256",
          "_ethOracle": "address",
          "_liquidationPenalty": "uint256",
          "_ratio": "uint256",
          "_tcapAddress": "address",
          "_tcapOracle": "address"
        }
      },
      "liquidateVault(uint256,uint256)": {
        "params": {
          "_vaultId": "to liquidate"
        }
      },
      "liquidationReward(uint256)": {
        "details": "the returned value is returned on the vault collateralR = (LC * (p  + 100)) / 100 R = Liquidation Reward LC = Required Liquidation Collateral p = liquidation penalty",
        "params": {
          "_vaultId": "of the vault to liquidate"
        },
        "returns": {
          "rewardCollateral": "for liquidating Vault"
        }
      },
      "mint(uint256)": {
        "details": "_amount should be higher than 0",
        "params": {
          "_amount": "of tokens to mint"
        }
      },
      "owner()": {
        "details": "Returns the address of the current owner."
      },
      "paused()": {
        "details": "Returns true if the contract is paused, and false otherwise."
      },
      "removeCollateral(uint256)": {
        "details": "_amount should be higher than 0",
        "params": {
          "_amount": "of collateral to remove"
        }
      },
      "removeCollateralETH(uint256)": {
        "details": "_amount should be higher than 0",
        "params": {
          "_amount": "of collateral to remove"
        }
      },
      "renounceOwnership()": {
        "details": "Leaves the contract without owner. It will not be possible to call `onlyOwner` functions anymore. Can only be called by the current owner.     * NOTE: Renouncing ownership will leave the contract without an owner, thereby removing any functionality that is only available to the owner."
      },
      "renounceRole(bytes32,address)": {
        "details": "Revokes `role` from the calling account.     * Roles are often managed via {grantRole} and {revokeRole}: this function's purpose is to provide a mechanism for accounts to lose their privileges if they are compromised (such as when a trusted device is misplaced).     * If the calling account had been granted `role`, emits a {RoleRevoked} event.     * Requirements:     * - the caller must be `account`."
      },
      "requiredCollateral(uint256)": {
        "details": "TCAP token is 18 decimalsC = ((P * A * r) / 100) / cp C = Required Collateral P = TCAP Token Price A = Amount to Mint cp = Collateral Price Is only divided by 100 as eth price comes in wei to cancel the additional 0s",
        "params": {
          "_amount": "uint amount to mint"
        },
        "returns": {
          "collateral": "of the TCAP Token"
        }
      },
      "requiredLiquidationCollateral(uint256)": {
        "details": "LC = ((((D * r) / 100) - cTcap) * 100) / (r - (p + 100)) cTcap = ((C * cp) / P) LC = Required Liquidation Collateral D = Vault Debt C = Required Collateral P = TCAP Token Price cp = Collateral Price r = Min Vault Ratio p = Liquidation Penalty",
        "params": {
          "_vaultId": "of the vault to liquidate"
        },
        "returns": {
          "collateral": "required of the TCAP Token"
        }
      },
      "revokeRole(bytes32,address)": {
        "details": "Revokes `role` from `account`.     * If `account` had been granted `role`, emits a {RoleRevoked} event.     * Requirements:     * - the caller must have ``role``'s admin role."
      },
      "setBurnFee(uint256)": {
        "details": "Only owner can call it",
        "params": {
          "_burnFee": "uint"
        }
      },
      "setCollateralContract(address)": {
        "details": "Only owner can call it",
        "params": {
          "_collateralContract": "address"
        }
      },
      "setCollateralPriceOracle(address)": {
        "details": "Only owner can call it",
        "params": {
          "_collateral": "address"
        }
      },
      "setDivisor(uint256)": {
        "details": "Only owner can call it",
        "params": {
          "_divisor": "uint"
        }
      },
      "setETHPriceOracle(address)": {
        "details": "Only owner can call it",
        "params": {
          "_ethPriceOracle": "address"
        }
      },
      "setLiquidationPenalty(uint256)": {
        "details": "Only owner can call it",
        "params": {
          "_liquidationPenalty": "uint"
        }
      },
      "setRatio(uint256)": {
        "details": "Only owner can call it",
        "params": {
          "_ratio": "uint"
        }
      },
      "setTCAPContract(address)": {
        "details": "Only owner can call it",
        "params": {
          "_TCAPToken": "address"
        }
      },
      "setTCAPOracle(address)": {
        "details": "Only owner can call it",
        "params": {
          "_oracle": "address"
        }
      },
      "supportsInterface(bytes4)": {
        "params": {
          "interfaceId": "bytes of interface"
        },
        "returns": {
          "_0": "bool"
        }
      },
      "transferOwnership(address)": {
        "details": "Transfers ownership of the contract to a new account (`newOwner`). Can only be called by the current owner."
      }
    },
    "title": "TCAP Vault"
  },
  "userdoc": {
    "methods": {
      "TCAPPrice()": {
        "notice": "Returns the price of the TCAP token"
      },
      "addCollateral(uint256)": {
        "notice": "Adds collateral to vault"
      },
      "addCollateralETH()": {
        "notice": "Adds collateral to vault using ETH"
      },
      "burn(uint256)": {
        "notice": "Burns TCAP Tokens releasing the staked collateral"
      },
      "createVault()": {
        "notice": "Creates a Vault"
      },
      "getFee(uint256)": {
        "notice": "Returns the required fee to burn the TCAP tokens"
      },
      "getVault(uint256)": {
        "notice": "Returns the Vault information"
      },
      "getVaultRatio(uint256)": {
        "notice": "Returns the Collateral Ratio fo the Vault"
      },
      "initialize(uint256,uint256,uint256,uint256,address,address,address,address,address)": {
        "notice": "Allows the orchestrator to initialize the contract"
      },
      "liquidateVault(uint256,uint256)": {
        "notice": "Allow users to liquidate vaults with low collateral ratio"
      },
      "liquidationReward(uint256)": {
        "notice": "Returns Reward for liquidating a vault"
      },
      "mint(uint256)": {
        "notice": "Mints TCAP Tokens staking the collateral"
      },
      "pause()": {
        "notice": "Allows owner to Pause the Contract"
      },
      "removeCollateral(uint256)": {
        "notice": "Removes not used collateral from collateral"
      },
      "removeCollateralETH(uint256)": {
        "notice": "Removes not used collateral from collateral"
      },
      "requiredCollateral(uint256)": {
        "notice": "Returns the minimal required collateral to mint TCAP token"
      },
      "requiredLiquidationCollateral(uint256)": {
        "notice": "Returns the minimal required TCAP to liquidate a Vault"
      },
      "retrieveFees()": {
        "notice": "Sends the owner of the contract the Fees saved on ETH"
      },
      "setBurnFee(uint256)": {
        "notice": "Sets the collateral ratio needed to mint tokens"
      },
      "setCollateralContract(address)": {
        "notice": "Sets the address of the collateral contract"
      },
      "setCollateralPriceOracle(address)": {
        "notice": "Sets the address of the oracle contract for the price feed"
      },
      "setDivisor(uint256)": {
        "notice": "Sets the divisor amount for token price calculation"
      },
      "setETHPriceOracle(address)": {
        "notice": "Sets the address of the oracle contract for the ETH price feed"
      },
      "setLiquidationPenalty(uint256)": {
        "notice": "Sets the liquidation penalty % charged on liquidation"
      },
      "setRatio(uint256)": {
        "notice": "Sets the collateral ratio needed to mint tokens"
      },
      "setTCAPContract(address)": {
        "notice": "Sets the address of the TCAP ERC20 contract"
      },
      "setTCAPOracle(address)": {
        "notice": "Sets the address of the oracle contract for the price feed"
      },
      "supportsInterface(bytes4)": {
        "notice": "ERC165 Standard for support of interfaces"
      },
      "unpause()": {
        "notice": "Allows owner to Unpause the Contract"
      }
    },
    "notice": "Contract in charge of handling the TCAP Vault and stake using a ETH and WETH"
  },
  "storageLayout": {
    "storage": [
      {
        "astId": 359,
        "contract": "contracts/ETHVaultHandler.sol:ETHVaultHandler",
        "label": "_owner",
        "offset": 0,
        "slot": "0",
        "type": "t_address"
      },
      {
        "astId": 91,
        "contract": "contracts/ETHVaultHandler.sol:ETHVaultHandler",
        "label": "_roles",
        "offset": 0,
        "slot": "1",
        "type": "t_mapping(t_bytes32,t_struct(RoleData)87_storage)"
      },
      {
        "astId": 2175,
        "contract": "contracts/ETHVaultHandler.sol:ETHVaultHandler",
        "label": "_status",
        "offset": 0,
        "slot": "2",
        "type": "t_uint256"
      },
      {
        "astId": 2092,
        "contract": "contracts/ETHVaultHandler.sol:ETHVaultHandler",
        "label": "_paused",
        "offset": 0,
        "slot": "3",
        "type": "t_bool"
      },
      {
        "astId": 2891,
        "contract": "contracts/ETHVaultHandler.sol:ETHVaultHandler",
        "label": "counter",
        "offset": 0,
        "slot": "4",
        "type": "t_struct(Counter)1639_storage"
      },
      {
        "astId": 2902,
        "contract": "contracts/ETHVaultHandler.sol:ETHVaultHandler",
        "label": "TCAPToken",
        "offset": 0,
        "slot": "5",
        "type": "t_contract(TCAP)5380"
      },
      {
        "astId": 2904,
        "contract": "contracts/ETHVaultHandler.sol:ETHVaultHandler",
        "label": "tcapOracle",
        "offset": 0,
        "slot": "6",
        "type": "t_contract(ChainlinkOracle)6171"
      },
      {
        "astId": 2906,
        "contract": "contracts/ETHVaultHandler.sol:ETHVaultHandler",
        "label": "collateralContract",
        "offset": 0,
        "slot": "7",
        "type": "t_contract(IERC20)1425"
      },
      {
        "astId": 2908,
        "contract": "contracts/ETHVaultHandler.sol:ETHVaultHandler",
        "label": "collateralPriceOracle",
        "offset": 0,
        "slot": "8",
        "type": "t_contract(ChainlinkOracle)6171"
      },
      {
        "astId": 2910,
        "contract": "contracts/ETHVaultHandler.sol:ETHVaultHandler",
        "label": "ETHPriceOracle",
        "offset": 0,
        "slot": "9",
        "type": "t_contract(ChainlinkOracle)6171"
      },
      {
        "astId": 2912,
        "contract": "contracts/ETHVaultHandler.sol:ETHVaultHandler",
        "label": "divisor",
        "offset": 0,
        "slot": "10",
        "type": "t_uint256"
      },
      {
        "astId": 2914,
        "contract": "contracts/ETHVaultHandler.sol:ETHVaultHandler",
        "label": "ratio",
        "offset": 0,
        "slot": "11",
        "type": "t_uint256"
      },
      {
        "astId": 2916,
        "contract": "contracts/ETHVaultHandler.sol:ETHVaultHandler",
        "label": "burnFee",
        "offset": 0,
        "slot": "12",
        "type": "t_uint256"
      },
      {
        "astId": 2918,
        "contract": "contracts/ETHVaultHandler.sol:ETHVaultHandler",
        "label": "liquidationPenalty",
        "offset": 0,
        "slot": "13",
        "type": "t_uint256"
      },
      {
        "astId": 2922,
        "contract": "contracts/ETHVaultHandler.sol:ETHVaultHandler",
        "label": "vaultToUser",
        "offset": 0,
        "slot": "14",
        "type": "t_mapping(t_address,t_uint256)"
      },
      {
        "astId": 2926,
        "contract": "contracts/ETHVaultHandler.sol:ETHVaultHandler",
        "label": "vaults",
        "offset": 0,
        "slot": "15",
        "type": "t_mapping(t_uint256,t_struct(Vault)2900_storage)"
      }
    ],
    "types": {
      "t_address": {
        "encoding": "inplace",
        "label": "address",
        "numberOfBytes": "20"
      },
      "t_array(t_bytes32)dyn_storage": {
        "base": "t_bytes32",
        "encoding": "dynamic_array",
        "label": "bytes32[]",
        "numberOfBytes": "32"
      },
      "t_bool": {
        "encoding": "inplace",
        "label": "bool",
        "numberOfBytes": "1"
      },
      "t_bytes32": {
        "encoding": "inplace",
        "label": "bytes32",
        "numberOfBytes": "32"
      },
      "t_contract(ChainlinkOracle)6171": {
        "encoding": "inplace",
        "label": "contract ChainlinkOracle",
        "numberOfBytes": "20"
      },
      "t_contract(IERC20)1425": {
        "encoding": "inplace",
        "label": "contract IERC20",
        "numberOfBytes": "20"
      },
      "t_contract(TCAP)5380": {
        "encoding": "inplace",
        "label": "contract TCAP",
        "numberOfBytes": "20"
      },
      "t_mapping(t_address,t_uint256)": {
        "encoding": "mapping",
        "key": "t_address",
        "label": "mapping(address => uint256)",
        "numberOfBytes": "32",
        "value": "t_uint256"
      },
      "t_mapping(t_bytes32,t_struct(RoleData)87_storage)": {
        "encoding": "mapping",
        "key": "t_bytes32",
        "label": "mapping(bytes32 => struct AccessControl.RoleData)",
        "numberOfBytes": "32",
        "value": "t_struct(RoleData)87_storage"
      },
      "t_mapping(t_bytes32,t_uint256)": {
        "encoding": "mapping",
        "key": "t_bytes32",
        "label": "mapping(bytes32 => uint256)",
        "numberOfBytes": "32",
        "value": "t_uint256"
      },
      "t_mapping(t_uint256,t_struct(Vault)2900_storage)": {
        "encoding": "mapping",
        "key": "t_uint256",
        "label": "mapping(uint256 => struct IVaultHandler.Vault)",
        "numberOfBytes": "32",
        "value": "t_struct(Vault)2900_storage"
      },
      "t_struct(AddressSet)1870_storage": {
        "encoding": "inplace",
        "label": "struct EnumerableSet.AddressSet",
        "members": [
          {
            "astId": 1869,
            "contract": "contracts/ETHVaultHandler.sol:ETHVaultHandler",
            "label": "_inner",
            "offset": 0,
            "slot": "0",
            "type": "t_struct(Set)1690_storage"
          }
        ],
        "numberOfBytes": "64"
      },
      "t_struct(Counter)1639_storage": {
        "encoding": "inplace",
        "label": "struct Counters.Counter",
        "members": [
          {
            "astId": 1638,
            "contract": "contracts/ETHVaultHandler.sol:ETHVaultHandler",
            "label": "_value",
            "offset": 0,
            "slot": "0",
            "type": "t_uint256"
          }
        ],
        "numberOfBytes": "32"
      },
      "t_struct(RoleData)87_storage": {
        "encoding": "inplace",
        "label": "struct AccessControl.RoleData",
        "members": [
          {
            "astId": 84,
            "contract": "contracts/ETHVaultHandler.sol:ETHVaultHandler",
            "label": "members",
            "offset": 0,
            "slot": "0",
            "type": "t_struct(AddressSet)1870_storage"
          },
          {
            "astId": 86,
            "contract": "contracts/ETHVaultHandler.sol:ETHVaultHandler",
            "label": "adminRole",
            "offset": 0,
            "slot": "2",
            "type": "t_bytes32"
          }
        ],
        "numberOfBytes": "96"
      },
      "t_struct(Set)1690_storage": {
        "encoding": "inplace",
        "label": "struct EnumerableSet.Set",
        "members": [
          {
            "astId": 1685,
            "contract": "contracts/ETHVaultHandler.sol:ETHVaultHandler",
            "label": "_values",
            "offset": 0,
            "slot": "0",
            "type": "t_array(t_bytes32)dyn_storage"
          },
          {
            "astId": 1689,
            "contract": "contracts/ETHVaultHandler.sol:ETHVaultHandler",
            "label": "_indexes",
            "offset": 0,
            "slot": "1",
            "type": "t_mapping(t_bytes32,t_uint256)"
          }
        ],
        "numberOfBytes": "64"
      },
      "t_struct(Vault)2900_storage": {
        "encoding": "inplace",
        "label": "struct IVaultHandler.Vault",
        "members": [
          {
            "astId": 2893,
            "contract": "contracts/ETHVaultHandler.sol:ETHVaultHandler",
            "label": "Id",
            "offset": 0,
            "slot": "0",
            "type": "t_uint256"
          },
          {
            "astId": 2895,
            "contract": "contracts/ETHVaultHandler.sol:ETHVaultHandler",
            "label": "Collateral",
            "offset": 0,
            "slot": "1",
            "type": "t_uint256"
          },
          {
            "astId": 2897,
            "contract": "contracts/ETHVaultHandler.sol:ETHVaultHandler",
            "label": "Debt",
            "offset": 0,
            "slot": "2",
            "type": "t_uint256"
          },
          {
            "astId": 2899,
            "contract": "contracts/ETHVaultHandler.sol:ETHVaultHandler",
            "label": "Owner",
            "offset": 0,
            "slot": "3",
            "type": "t_address"
          }
        ],
        "numberOfBytes": "128"
      },
      "t_uint256": {
        "encoding": "inplace",
        "label": "uint256",
        "numberOfBytes": "32"
      }
    }
  },
  "gasEstimates": {
    "creation": {
      "codeDepositCost": "3006200",
      "executionCost": "infinite",
      "totalCost": "infinite"
    },
    "external": {
      "DEFAULT_ADMIN_ROLE()": "310",
      "ETHPriceOracle()": "1105",
      "TCAPPrice()": "infinite",
      "TCAPToken()": "1193",
      "addCollateral(uint256)": "infinite",
      "addCollateralETH()": "infinite",
      "burn(uint256)": "infinite",
      "burnFee()": "1108",
      "collateralContract()": "1104",
      "collateralPriceOracle()": "1126",
      "createVault()": "96523",
      "divisor()": "1133",
      "getFee(uint256)": "infinite",
      "getRoleAdmin(bytes32)": "1203",
      "getRoleMember(bytes32,uint256)": "infinite",
      "getRoleMemberCount(bytes32)": "infinite",
      "getVault(uint256)": "4054",
      "getVaultRatio(uint256)": "infinite",
      "grantRole(bytes32,address)": "infinite",
      "hasRole(bytes32,address)": "infinite",
      "initialize(uint256,uint256,uint256,uint256,address,address,address,address,address)": "infinite",
      "liquidateVault(uint256,uint256)": "infinite",
      "liquidationPenalty()": "1067",
      "liquidationReward(uint256)": "infinite",
      "mint(uint256)": "infinite",
      "owner()": "1105",
      "pause()": "infinite",
      "paused()": "1122",
      "ratio()": "1110",
      "removeCollateral(uint256)": "infinite",
      "removeCollateralETH(uint256)": "infinite",
      "renounceOwnership()": "infinite",
      "renounceRole(bytes32,address)": "infinite",
      "requiredCollateral(uint256)": "infinite",
      "requiredLiquidationCollateral(uint256)": "infinite",
      "retrieveFees()": "infinite",
      "revokeRole(bytes32,address)": "infinite",
      "setBurnFee(uint256)": "infinite",
      "setCollateralContract(address)": "infinite",
      "setCollateralPriceOracle(address)": "infinite",
      "setDivisor(uint256)": "infinite",
      "setETHPriceOracle(address)": "infinite",
      "setLiquidationPenalty(uint256)": "infinite",
      "setRatio(uint256)": "infinite",
      "setTCAPContract(address)": "infinite",
      "setTCAPOracle(address)": "infinite",
      "supportsInterface(bytes4)": "412",
      "tcapOracle()": "1150",
      "transferOwnership(address)": "infinite",
      "unpause()": "infinite",
      "vaultToUser(address)": "1235",
      "vaults(uint256)": "3696"
    },
    "internal": {
      "safeTransferETH(address,uint256)": "infinite"
    }
  }
}