{
  "address": "0xe10e6c0a3067697dbE388f4F5Fb4E8e7e78E29dE",
  "abi": [
    {
      "inputs": [
        {
          "internalType": "contract Orchestrator",
          "name": "_orchestrator",
          "type": "address"
        },
        {
          "internalType": "uint256",
          "name": "_divisor",
          "type": "uint256"
        },
        {
          "internalType": "uint256",
          "name": "_ratio",
          "type": "uint256"
        },
        {
          "internalType": "uint256",
          "name": "_burnFee",
          "type": "uint256"
        },
        {
          "internalType": "uint256",
          "name": "_liquidationPenalty",
          "type": "uint256"
        },
        {
          "internalType": "address",
          "name": "_tcapOracle",
          "type": "address"
        },
        {
          "internalType": "contract TCAP",
          "name": "_tcapAddress",
          "type": "address"
        },
        {
          "internalType": "address",
          "name": "_collateralAddress",
          "type": "address"
        },
        {
          "internalType": "address",
          "name": "_collateralOracle",
          "type": "address"
        },
        {
          "internalType": "address",
          "name": "_ethOracle",
          "type": "address"
        },
        {
          "internalType": "address",
          "name": "_rewardHandler",
          "type": "address"
        },
        {
          "internalType": "address",
          "name": "_treasury",
          "type": "address"
        }
      ],
      "stateMutability": "nonpayable",
      "type": "constructor"
    },
    {
      "anonymous": false,
      "inputs": [
        {
          "indexed": true,
          "internalType": "address",
          "name": "_owner",
          "type": "address"
        },
        {
          "indexed": true,
          "internalType": "uint256",
          "name": "_id",
          "type": "uint256"
        },
        {
          "indexed": false,
          "internalType": "uint256",
          "name": "_amount",
          "type": "uint256"
        }
      ],
      "name": "CollateralAdded",
      "type": "event"
    },
    {
      "anonymous": false,
      "inputs": [
        {
          "indexed": true,
          "internalType": "address",
          "name": "_owner",
          "type": "address"
        },
        {
          "indexed": true,
          "internalType": "uint256",
          "name": "_id",
          "type": "uint256"
        },
        {
          "indexed": false,
          "internalType": "uint256",
          "name": "_amount",
          "type": "uint256"
        }
      ],
      "name": "CollateralRemoved",
      "type": "event"
    },
    {
      "anonymous": false,
      "inputs": [
        {
          "indexed": true,
          "internalType": "address",
          "name": "_owner",
          "type": "address"
        },
        {
          "indexed": false,
          "internalType": "uint256",
          "name": "_burnFee",
          "type": "uint256"
        }
      ],
      "name": "NewBurnFee",
      "type": "event"
    },
    {
      "anonymous": false,
      "inputs": [
        {
          "indexed": true,
          "internalType": "address",
          "name": "_owner",
          "type": "address"
        },
        {
          "indexed": false,
          "internalType": "uint256",
          "name": "_liquidationPenalty",
          "type": "uint256"
        }
      ],
      "name": "NewLiquidationPenalty",
      "type": "event"
    },
    {
      "anonymous": false,
      "inputs": [
        {
          "indexed": true,
          "internalType": "address",
          "name": "_owner",
          "type": "address"
        },
        {
          "indexed": false,
          "internalType": "uint256",
          "name": "_ratio",
          "type": "uint256"
        }
      ],
      "name": "NewRatio",
      "type": "event"
    },
    {
      "anonymous": false,
      "inputs": [
        {
          "indexed": true,
          "internalType": "address",
          "name": "_owner",
          "type": "address"
        },
        {
          "indexed": false,
          "internalType": "address",
          "name": "_rewardHandler",
          "type": "address"
        }
      ],
      "name": "NewRewardHandler",
      "type": "event"
    },
    {
      "anonymous": false,
      "inputs": [
        {
          "indexed": true,
          "internalType": "address",
          "name": "_owner",
          "type": "address"
        },
        {
          "indexed": false,
          "internalType": "address",
          "name": "_tresury",
          "type": "address"
        }
      ],
      "name": "NewTreasury",
      "type": "event"
    },
    {
      "anonymous": false,
      "inputs": [
        {
          "indexed": true,
          "internalType": "address",
          "name": "previousOwner",
          "type": "address"
        },
        {
          "indexed": true,
          "internalType": "address",
          "name": "newOwner",
          "type": "address"
        }
      ],
      "name": "OwnershipTransferred",
      "type": "event"
    },
    {
      "anonymous": false,
      "inputs": [
        {
          "indexed": false,
          "internalType": "address",
          "name": "account",
          "type": "address"
        }
      ],
      "name": "Paused",
      "type": "event"
    },
    {
      "anonymous": false,
      "inputs": [
        {
          "indexed": false,
          "internalType": "address",
          "name": "_token",
          "type": "address"
        },
        {
          "indexed": false,
          "internalType": "uint256",
          "name": "_amount",
          "type": "uint256"
        }
      ],
      "name": "Recovered",
      "type": "event"
    },
    {
      "anonymous": false,
      "inputs": [
        {
          "indexed": true,
          "internalType": "bytes32",
          "name": "role",
          "type": "bytes32"
        },
        {
          "indexed": true,
          "internalType": "bytes32",
          "name": "previousAdminRole",
          "type": "bytes32"
        },
        {
          "indexed": true,
          "internalType": "bytes32",
          "name": "newAdminRole",
          "type": "bytes32"
        }
      ],
      "name": "RoleAdminChanged",
      "type": "event"
    },
    {
      "anonymous": false,
      "inputs": [
        {
          "indexed": true,
          "internalType": "bytes32",
          "name": "role",
          "type": "bytes32"
        },
        {
          "indexed": true,
          "internalType": "address",
          "name": "account",
          "type": "address"
        },
        {
          "indexed": true,
          "internalType": "address",
          "name": "sender",
          "type": "address"
        }
      ],
      "name": "RoleGranted",
      "type": "event"
    },
    {
      "anonymous": false,
      "inputs": [
        {
          "indexed": true,
          "internalType": "bytes32",
          "name": "role",
          "type": "bytes32"
        },
        {
          "indexed": true,
          "internalType": "address",
          "name": "account",
          "type": "address"
        },
        {
          "indexed": true,
          "internalType": "address",
          "name": "sender",
          "type": "address"
        }
      ],
      "name": "RoleRevoked",
      "type": "event"
    },
    {
      "anonymous": false,
      "inputs": [
        {
          "indexed": true,
          "internalType": "address",
          "name": "_owner",
          "type": "address"
        },
        {
          "indexed": true,
          "internalType": "uint256",
          "name": "_id",
          "type": "uint256"
        },
        {
          "indexed": false,
          "internalType": "uint256",
          "name": "_amount",
          "type": "uint256"
        }
      ],
      "name": "TokensBurned",
      "type": "event"
    },
    {
      "anonymous": false,
      "inputs": [
        {
          "indexed": true,
          "internalType": "address",
          "name": "_owner",
          "type": "address"
        },
        {
          "indexed": true,
          "internalType": "uint256",
          "name": "_id",
          "type": "uint256"
        },
        {
          "indexed": false,
          "internalType": "uint256",
          "name": "_amount",
          "type": "uint256"
        }
      ],
      "name": "TokensMinted",
      "type": "event"
    },
    {
      "anonymous": false,
      "inputs": [
        {
          "indexed": false,
          "internalType": "address",
          "name": "account",
          "type": "address"
        }
      ],
      "name": "Unpaused",
      "type": "event"
    },
    {
      "anonymous": false,
      "inputs": [
        {
          "indexed": true,
          "internalType": "address",
          "name": "_owner",
          "type": "address"
        },
        {
          "indexed": true,
          "internalType": "uint256",
          "name": "_id",
          "type": "uint256"
        }
      ],
      "name": "VaultCreated",
      "type": "event"
    },
    {
      "anonymous": false,
      "inputs": [
        {
          "indexed": true,
          "internalType": "uint256",
          "name": "_vaultId",
          "type": "uint256"
        },
        {
          "indexed": true,
          "internalType": "address",
          "name": "_liquidator",
          "type": "address"
        },
        {
          "indexed": false,
          "internalType": "uint256",
          "name": "_liquidationCollateral",
          "type": "uint256"
        },
        {
          "indexed": false,
          "internalType": "uint256",
          "name": "_reward",
          "type": "uint256"
        }
      ],
      "name": "VaultLiquidated",
      "type": "event"
    },
    {
      "inputs": [],
      "name": "DEFAULT_ADMIN_ROLE",
      "outputs": [
        {
          "internalType": "bytes32",
          "name": "",
          "type": "bytes32"
        }
      ],
      "stateMutability": "view",
      "type": "function"
    },
    {
      "inputs": [],
      "name": "ETHPriceOracle",
      "outputs": [
        {
          "internalType": "contract ChainlinkOracle",
          "name": "",
          "type": "address"
        }
      ],
      "stateMutability": "view",
      "type": "function"
    },
    {
      "inputs": [],
      "name": "TCAPPrice",
      "outputs": [
        {
          "internalType": "uint256",
          "name": "price",
          "type": "uint256"
        }
      ],
      "stateMutability": "view",
      "type": "function"
    },
    {
      "inputs": [],
      "name": "TCAPToken",
      "outputs": [
        {
          "internalType": "contract TCAP",
          "name": "",
          "type": "address"
        }
      ],
      "stateMutability": "view",
      "type": "function"
    },
    {
      "inputs": [
        {
          "internalType": "uint256",
          "name": "_amount",
          "type": "uint256"
        }
      ],
      "name": "addCollateral",
      "outputs": [],
      "stateMutability": "nonpayable",
      "type": "function"
    },
    {
      "inputs": [],
      "name": "addCollateralETH",
      "outputs": [],
      "stateMutability": "payable",
      "type": "function"
    },
    {
      "inputs": [
        {
          "internalType": "uint256",
          "name": "_amount",
          "type": "uint256"
        }
      ],
      "name": "burn",
      "outputs": [],
      "stateMutability": "payable",
      "type": "function"
    },
    {
      "inputs": [],
      "name": "burnFee",
      "outputs": [
        {
          "internalType": "uint256",
          "name": "",
          "type": "uint256"
        }
      ],
      "stateMutability": "view",
      "type": "function"
    },
    {
      "inputs": [],
      "name": "collateralContract",
      "outputs": [
        {
          "internalType": "contract IERC20",
          "name": "",
          "type": "address"
        }
      ],
      "stateMutability": "view",
      "type": "function"
    },
    {
      "inputs": [],
      "name": "collateralPriceOracle",
      "outputs": [
        {
          "internalType": "contract ChainlinkOracle",
          "name": "",
          "type": "address"
        }
      ],
      "stateMutability": "view",
      "type": "function"
    },
    {
      "inputs": [],
      "name": "counter",
      "outputs": [
        {
          "internalType": "uint256",
          "name": "_value",
          "type": "uint256"
        }
      ],
      "stateMutability": "view",
      "type": "function"
    },
    {
      "inputs": [],
      "name": "createVault",
      "outputs": [],
      "stateMutability": "nonpayable",
      "type": "function"
    },
    {
      "inputs": [],
      "name": "divisor",
      "outputs": [
        {
          "internalType": "uint256",
          "name": "",
          "type": "uint256"
        }
      ],
      "stateMutability": "view",
      "type": "function"
    },
    {
      "inputs": [
        {
          "internalType": "uint256",
          "name": "_amount",
          "type": "uint256"
        }
      ],
      "name": "getFee",
      "outputs": [
        {
          "internalType": "uint256",
          "name": "fee",
          "type": "uint256"
        }
      ],
      "stateMutability": "view",
      "type": "function"
    },
    {
      "inputs": [
        {
          "internalType": "contract ChainlinkOracle",
          "name": "_oracle",
          "type": "address"
        }
      ],
      "name": "getOraclePrice",
      "outputs": [
        {
          "internalType": "uint256",
          "name": "price",
          "type": "uint256"
        }
      ],
      "stateMutability": "view",
      "type": "function"
    },
    {
      "inputs": [
        {
          "internalType": "bytes32",
          "name": "role",
          "type": "bytes32"
        }
      ],
      "name": "getRoleAdmin",
      "outputs": [
        {
          "internalType": "bytes32",
          "name": "",
          "type": "bytes32"
        }
      ],
      "stateMutability": "view",
      "type": "function"
    },
    {
      "inputs": [
        {
          "internalType": "bytes32",
          "name": "role",
          "type": "bytes32"
        },
        {
          "internalType": "uint256",
          "name": "index",
          "type": "uint256"
        }
      ],
      "name": "getRoleMember",
      "outputs": [
        {
          "internalType": "address",
          "name": "",
          "type": "address"
        }
      ],
      "stateMutability": "view",
      "type": "function"
    },
    {
      "inputs": [
        {
          "internalType": "bytes32",
          "name": "role",
          "type": "bytes32"
        }
      ],
      "name": "getRoleMemberCount",
      "outputs": [
        {
          "internalType": "uint256",
          "name": "",
          "type": "uint256"
        }
      ],
      "stateMutability": "view",
      "type": "function"
    },
    {
      "inputs": [
        {
          "internalType": "uint256",
          "name": "_id",
          "type": "uint256"
        }
      ],
      "name": "getVault",
      "outputs": [
        {
          "internalType": "uint256",
          "name": "",
          "type": "uint256"
        },
        {
          "internalType": "uint256",
          "name": "",
          "type": "uint256"
        },
        {
          "internalType": "address",
          "name": "",
          "type": "address"
        },
        {
          "internalType": "uint256",
          "name": "",
          "type": "uint256"
        }
      ],
      "stateMutability": "view",
      "type": "function"
    },
    {
      "inputs": [
        {
          "internalType": "uint256",
          "name": "_vaultId",
          "type": "uint256"
        }
      ],
      "name": "getVaultRatio",
      "outputs": [
        {
          "internalType": "uint256",
          "name": "currentRatio",
          "type": "uint256"
        }
      ],
      "stateMutability": "view",
      "type": "function"
    },
    {
      "inputs": [
        {
          "internalType": "bytes32",
          "name": "role",
          "type": "bytes32"
        },
        {
          "internalType": "address",
          "name": "account",
          "type": "address"
        }
      ],
      "name": "grantRole",
      "outputs": [],
      "stateMutability": "nonpayable",
      "type": "function"
    },
    {
      "inputs": [
        {
          "internalType": "bytes32",
          "name": "role",
          "type": "bytes32"
        },
        {
          "internalType": "address",
          "name": "account",
          "type": "address"
        }
      ],
      "name": "hasRole",
      "outputs": [
        {
          "internalType": "bool",
          "name": "",
          "type": "bool"
        }
      ],
      "stateMutability": "view",
      "type": "function"
    },
    {
      "inputs": [
        {
          "internalType": "uint256",
          "name": "_vaultId",
          "type": "uint256"
        },
        {
          "internalType": "uint256",
          "name": "_requiredTCAP",
          "type": "uint256"
        }
      ],
      "name": "liquidateVault",
      "outputs": [],
      "stateMutability": "payable",
      "type": "function"
    },
    {
      "inputs": [],
      "name": "liquidationPenalty",
      "outputs": [
        {
          "internalType": "uint256",
          "name": "",
          "type": "uint256"
        }
      ],
      "stateMutability": "view",
      "type": "function"
    },
    {
      "inputs": [
        {
          "internalType": "uint256",
          "name": "_vaultId",
          "type": "uint256"
        }
      ],
      "name": "liquidationReward",
      "outputs": [
        {
          "internalType": "uint256",
          "name": "rewardCollateral",
          "type": "uint256"
        }
      ],
      "stateMutability": "view",
      "type": "function"
    },
    {
      "inputs": [
        {
          "internalType": "uint256",
          "name": "_amount",
          "type": "uint256"
        }
      ],
      "name": "mint",
      "outputs": [],
      "stateMutability": "nonpayable",
      "type": "function"
    },
    {
      "inputs": [],
      "name": "oracleDigits",
      "outputs": [
        {
          "internalType": "uint256",
          "name": "",
          "type": "uint256"
        }
      ],
      "stateMutability": "view",
      "type": "function"
    },
    {
      "inputs": [],
      "name": "owner",
      "outputs": [
        {
          "internalType": "address",
          "name": "",
          "type": "address"
        }
      ],
      "stateMutability": "view",
      "type": "function"
    },
    {
      "inputs": [],
      "name": "pause",
      "outputs": [],
      "stateMutability": "nonpayable",
      "type": "function"
    },
    {
      "inputs": [],
      "name": "paused",
      "outputs": [
        {
          "internalType": "bool",
          "name": "",
          "type": "bool"
        }
      ],
      "stateMutability": "view",
      "type": "function"
    },
    {
      "inputs": [],
      "name": "ratio",
      "outputs": [
        {
          "internalType": "uint256",
          "name": "",
          "type": "uint256"
        }
      ],
      "stateMutability": "view",
      "type": "function"
    },
    {
      "inputs": [
        {
          "internalType": "address",
          "name": "_tokenAddress",
          "type": "address"
        },
        {
          "internalType": "uint256",
          "name": "_tokenAmount",
          "type": "uint256"
        }
      ],
      "name": "recoverERC20",
      "outputs": [],
      "stateMutability": "nonpayable",
      "type": "function"
    },
    {
      "inputs": [
        {
          "internalType": "uint256",
          "name": "_amount",
          "type": "uint256"
        }
      ],
      "name": "removeCollateral",
      "outputs": [],
      "stateMutability": "nonpayable",
      "type": "function"
    },
    {
      "inputs": [
        {
          "internalType": "uint256",
          "name": "_amount",
          "type": "uint256"
        }
      ],
      "name": "removeCollateralETH",
      "outputs": [],
      "stateMutability": "nonpayable",
      "type": "function"
    },
    {
      "inputs": [],
      "name": "renounceOwnership",
      "outputs": [],
      "stateMutability": "nonpayable",
      "type": "function"
    },
    {
      "inputs": [
        {
          "internalType": "bytes32",
          "name": "role",
          "type": "bytes32"
        },
        {
          "internalType": "address",
          "name": "account",
          "type": "address"
        }
      ],
      "name": "renounceRole",
      "outputs": [],
      "stateMutability": "nonpayable",
      "type": "function"
    },
    {
      "inputs": [
        {
          "internalType": "uint256",
          "name": "_amount",
          "type": "uint256"
        }
      ],
      "name": "requiredCollateral",
      "outputs": [
        {
          "internalType": "uint256",
          "name": "collateral",
          "type": "uint256"
        }
      ],
      "stateMutability": "view",
      "type": "function"
    },
    {
      "inputs": [
        {
          "internalType": "uint256",
          "name": "_vaultId",
          "type": "uint256"
        }
      ],
      "name": "requiredLiquidationTCAP",
      "outputs": [
        {
          "internalType": "uint256",
          "name": "amount",
          "type": "uint256"
        }
      ],
      "stateMutability": "view",
      "type": "function"
    },
    {
      "inputs": [
        {
          "internalType": "bytes32",
          "name": "role",
          "type": "bytes32"
        },
        {
          "internalType": "address",
          "name": "account",
          "type": "address"
        }
      ],
      "name": "revokeRole",
      "outputs": [],
      "stateMutability": "nonpayable",
      "type": "function"
    },
    {
      "inputs": [],
      "name": "rewardHandler",
      "outputs": [
        {
          "internalType": "contract IRewardHandler",
          "name": "",
          "type": "address"
        }
      ],
      "stateMutability": "view",
      "type": "function"
    },
    {
      "inputs": [
        {
          "internalType": "uint256",
          "name": "_burnFee",
          "type": "uint256"
        }
      ],
      "name": "setBurnFee",
      "outputs": [],
      "stateMutability": "nonpayable",
      "type": "function"
    },
    {
      "inputs": [
        {
          "internalType": "uint256",
          "name": "_liquidationPenalty",
          "type": "uint256"
        }
      ],
      "name": "setLiquidationPenalty",
      "outputs": [],
      "stateMutability": "nonpayable",
      "type": "function"
    },
    {
      "inputs": [
        {
          "internalType": "uint256",
          "name": "_ratio",
          "type": "uint256"
        }
      ],
      "name": "setRatio",
      "outputs": [],
      "stateMutability": "nonpayable",
      "type": "function"
    },
    {
      "inputs": [
        {
          "internalType": "address",
          "name": "_rewardHandler",
          "type": "address"
        }
      ],
      "name": "setRewardHandler",
      "outputs": [],
      "stateMutability": "nonpayable",
      "type": "function"
    },
    {
      "inputs": [
        {
          "internalType": "address",
          "name": "_treasury",
          "type": "address"
        }
      ],
      "name": "setTreasury",
      "outputs": [],
      "stateMutability": "nonpayable",
      "type": "function"
    },
    {
      "inputs": [
        {
          "internalType": "bytes4",
          "name": "_interfaceId",
          "type": "bytes4"
        }
      ],
      "name": "supportsInterface",
      "outputs": [
        {
          "internalType": "bool",
          "name": "",
          "type": "bool"
        }
      ],
      "stateMutability": "pure",
      "type": "function"
    },
    {
      "inputs": [],
      "name": "tcapOracle",
      "outputs": [
        {
          "internalType": "contract ChainlinkOracle",
          "name": "",
          "type": "address"
        }
      ],
      "stateMutability": "view",
      "type": "function"
    },
    {
      "inputs": [
        {
          "internalType": "address",
          "name": "newOwner",
          "type": "address"
        }
      ],
      "name": "transferOwnership",
      "outputs": [],
      "stateMutability": "nonpayable",
      "type": "function"
    },
    {
      "inputs": [],
      "name": "treasury",
      "outputs": [
        {
          "internalType": "address",
          "name": "",
          "type": "address"
        }
      ],
      "stateMutability": "view",
      "type": "function"
    },
    {
      "inputs": [],
      "name": "unpause",
      "outputs": [],
      "stateMutability": "nonpayable",
      "type": "function"
    },
    {
      "inputs": [
        {
          "internalType": "address",
          "name": "",
          "type": "address"
        }
      ],
      "name": "userToVault",
      "outputs": [
        {
          "internalType": "uint256",
          "name": "",
          "type": "uint256"
        }
      ],
      "stateMutability": "view",
      "type": "function"
    },
    {
      "inputs": [
        {
          "internalType": "uint256",
          "name": "",
          "type": "uint256"
        }
      ],
      "name": "vaults",
      "outputs": [
        {
          "internalType": "uint256",
          "name": "Id",
          "type": "uint256"
        },
        {
          "internalType": "uint256",
          "name": "Collateral",
          "type": "uint256"
        },
        {
          "internalType": "uint256",
          "name": "Debt",
          "type": "uint256"
        },
        {
          "internalType": "address",
          "name": "Owner",
          "type": "address"
        }
      ],
      "stateMutability": "view",
      "type": "function"
    },
    {
      "stateMutability": "payable",
      "type": "receive"
    }
  ],
  "transactionHash": "0x63e82499b2c52fd028e6dd211d67863efa730001085932821599fb93bad4c4d5",
  "args": [
    "0x3ad9D533DADAfeb31B25E90eDecc7B9B0EeCFeEc",
    "10000000000",
    "150",
    "1",
    "10",
    "0xfDe63dCB0509D7d21c85639fae21d57b58EE5518",
    "0x016197D96E8914a864335Db443B9B5a76eB388DD",
    "0x37AC78012f74Bd42fCdaf90E3388D46652c729Ca",
    "0x72077700Eb314590807D22903c4DC244F2ca56dD",
    "0x72077700Eb314590807D22903c4DC244F2ca56dD",
    "0x89D18691f81739D4A4E1c628D3c1d1B635d17AE9",
    "0xFB77c9BBd9Fd884A5078Ef0e97ec089C9B811243"
  ],
  "solcInputHash": "fc706826c5910c5a38e84d2cdac4c62c",
  "bytecode": "0x60806040523480156200001157600080fd5b506040516200443a3803806200443a83398181016040526101808110156200003857600080fd5b508051602082015160408301516060840151608085015160a086015160c087015160e08801516101008901516101208a01516101408b0151610160909b0151999a9899979896979596949593949293919290918b8b8b8b8b8b8b8b8b8b8b8b6000620000a362000213565b600080546001600160a01b0319166001600160a01b0383169081178255604051929350916000805160206200441a833981519152908290a35060016002556003805460ff19169055896200010589606462000217602090811b62002d4217901c565b10620001435760405162461bcd60e51b8152600401808060200182810382526036815260200180620043be6036913960400191505060405180910390fd5b600a8b9055600b8a9055600c899055600d889055600680546001600160a01b03199081166001600160a01b038a811691909117909255600780548216888416179055600880548216878416179055600980548216868416179055600580548216898416179055600e80548216858416179055600f8054909116918316919091179055620001dd60046200027b602090811b62002d9c17901c565b620001ea60003362000284565b620001f58c62000294565b50505050505050505050505050505050505050505050505062000485565b3390565b60008282018381101562000272576040805162461bcd60e51b815260206004820152601b60248201527f536166654d6174683a206164646974696f6e206f766572666c6f770000000000604482015290519081900360640190fd5b90505b92915050565b80546001019055565b62000290828262000392565b5050565b6200029e62000213565b6000546001600160a01b0390811691161462000301576040805162461bcd60e51b815260206004820181905260248201527f4f776e61626c653a2063616c6c6572206973206e6f7420746865206f776e6572604482015290519081900360640190fd5b6001600160a01b038116620003485760405162461bcd60e51b8152600401808060200182810382526026815260200180620043f46026913960400191505060405180910390fd5b600080546040516001600160a01b03808516939216916000805160206200441a83398151915291a3600080546001600160a01b0319166001600160a01b0392909216919091179055565b6000828152600160209081526040909120620003b991839062002da56200040d821b17901c565b156200029057620003c962000213565b6001600160a01b0316816001600160a01b0316837f2f8788117e7eff1d82e926ec794901d17c78024a50270940304540a733656f0d60405160405180910390a45050565b600062000272836001600160a01b03841660006200042c83836200046d565b620004645750815460018181018455600084815260208082209093018490558454848252828601909352604090209190915562000275565b50600062000275565b60009081526001919091016020526040902054151590565b613f2980620004956000396000f3fe6080604052600436106103035760003560e01c8063842e357c11610190578063abb7bc4a116100dc578063d318a7df11610095578063f0f442601161006f578063f0f4426014610a3e578063f2fde38b14610a71578063fce589d814610aa4578063fcee45f414610ab95761031e565b8063d318a7df146109b1578063d547741f146109db578063de9952c914610a145761031e565b8063abb7bc4a146108c1578063b2237ba3146108eb578063bc721a9614610915578063bcc46e8314610948578063c6e1c7c914610972578063ca15c873146109875761031e565b80639010d07c11610149578063952cc86a11610123578063952cc86a1461084a57806397994e301461086d578063a0712d6814610882578063a217fddf146108ac5761031e565b80639010d07c1461078957806391d14854146107b95780639403b634146107f25761031e565b8063842e357c1461068e5780638456cb59146106a35780638980f11f146106b85780638c01f211146106f15780638c64ea4a1461071b5780638da5cb5b146107745761031e565b806342966c681161024f57806361d027b3116102085780636ca2143c116101e25780636ca2143c1461061c578063715018a61461063157806371ca337d1461064657806375f620ac1461065b5761031e565b806361d027b3146105dd578063670fb821146105f25780636ae7adc1146106075761031e565b806342966c681461054257806346dc90071461055f5780634bf2c7c9146105745780635c975abb1461059e5780635d12928b146105b357806361bc221a146105c85761031e565b806323f5589a116102bc5780632f2ff15d116102965780632f2ff15d146104915780633237c158146104ca57806336568abe146104f45780633f4ba83a1461052d5761031e565b806323f5589a14610428578063248a9ca31461043d5780632806a743146104675761031e565b806301ffc9a7146103235780630d23cc791461036b57806311d850e8146103735780631cc244ba146103af5780631deee612146103e05780631f2dc5ef146104135761031e565b3661031e576007546001600160a01b0316331461031c57fe5b005b600080fd5b34801561032f57600080fd5b506103576004803603602081101561034657600080fd5b50356001600160e01b031916610ae3565b604080519115158252519081900360200190f35b61031c610b1a565b34801561037f57600080fd5b5061039d6004803603602081101561039657600080fd5b5035610d14565b60408051918252519081900360200190f35b3480156103bb57600080fd5b506103c4610d90565b604080516001600160a01b039092168252519081900360200190f35b3480156103ec57600080fd5b5061031c6004803603602081101561040357600080fd5b50356001600160a01b0316610d9f565b34801561041f57600080fd5b5061039d610e4e565b34801561043457600080fd5b5061039d610e54565b34801561044957600080fd5b5061039d6004803603602081101561046057600080fd5b5035610e5a565b34801561047357600080fd5b5061031c6004803603602081101561048a57600080fd5b5035610e6f565b34801561049d57600080fd5b5061031c600480360360408110156104b457600080fd5b50803590602001356001600160a01b0316610f4f565b3480156104d657600080fd5b5061031c600480360360208110156104ed57600080fd5b5035610fbb565b34801561050057600080fd5b5061031c6004803603604081101561051757600080fd5b50803590602001356001600160a01b03166112a9565b34801561053957600080fd5b5061031c61130a565b61031c6004803603602081101561055857600080fd5b503561136c565b34801561056b57600080fd5b5061039d611676565b34801561058057600080fd5b5061031c6004803603602081101561059757600080fd5b50356116ad565b3480156105aa57600080fd5b50610357611743565b3480156105bf57600080fd5b5061031c61174c565b3480156105d457600080fd5b5061039d6118af565b3480156105e957600080fd5b506103c46118b5565b3480156105fe57600080fd5b506103c46118c4565b34801561061357600080fd5b5061039d6118d3565b34801561062857600080fd5b506103c46118dc565b34801561063d57600080fd5b5061031c6118eb565b34801561065257600080fd5b5061039d61198d565b34801561066757600080fd5b5061039d6004803603602081101561067e57600080fd5b50356001600160a01b0316611993565b34801561069a57600080fd5b506103c4611a11565b3480156106af57600080fd5b5061031c611a20565b3480156106c457600080fd5b5061031c600480360360408110156106db57600080fd5b506001600160a01b038135169060200135611a80565b3480156106fd57600080fd5b5061039d6004803603602081101561071457600080fd5b5035611ba2565b34801561072757600080fd5b506107456004803603602081101561073e57600080fd5b5035611c6a565b604080519485526020850193909352838301919091526001600160a01b03166060830152519081900360800190f35b34801561078057600080fd5b506103c4611c9a565b34801561079557600080fd5b506103c4600480360360408110156107ac57600080fd5b5080359060200135611ca9565b3480156107c557600080fd5b50610357600480360360408110156107dc57600080fd5b50803590602001356001600160a01b0316611cc8565b3480156107fe57600080fd5b5061081c6004803603602081101561081557600080fd5b5035611ce0565b6040805194855260208501939093526001600160a01b03909116838301526060830152519081900360800190f35b61031c6004803603604081101561086057600080fd5b5080359060200135611d47565b34801561087957600080fd5b506103c46120d0565b34801561088e57600080fd5b5061031c600480360360208110156108a557600080fd5b50356120df565b3480156108b857600080fd5b5061039d6123f2565b3480156108cd57600080fd5b5061039d600480360360208110156108e457600080fd5b50356123f7565b3480156108f757600080fd5b5061031c6004803603602081101561090e57600080fd5b5035612441565b34801561092157600080fd5b5061039d6004803603602081101561093857600080fd5b50356001600160a01b03166124d7565b34801561095457600080fd5b5061031c6004803603602081101561096b57600080fd5b50356124e9565b34801561097e57600080fd5b506103c4612738565b34801561099357600080fd5b5061039d600480360360208110156109aa57600080fd5b5035612747565b3480156109bd57600080fd5b5061031c600480360360208110156109d457600080fd5b503561275e565b3480156109e757600080fd5b5061031c600480360360408110156109fe57600080fd5b50803590602001356001600160a01b0316612a01565b348015610a2057600080fd5b5061039d60048036036020811015610a3757600080fd5b5035612a5a565b348015610a4a57600080fd5b5061031c60048036036020811015610a6157600080fd5b50356001600160a01b0316612b5e565b348015610a7d57600080fd5b5061031c60048036036020811015610a9457600080fd5b50356001600160a01b0316612c0d565b348015610ab057600080fd5b5061039d612d05565b348015610ac557600080fd5b5061039d60048036036020811015610adc57600080fd5b5035612d0b565b60006001600160e01b0319821663279d6ac360e21b1480610b1457506001600160e01b031982166301ffc9a760e01b145b92915050565b600280541415610b5f576040805162461bcd60e51b815260206004820152601f6024820152600080516020613951833981519152604482015290519081900360640190fd5b6002805533600090815260106020526040902054610bae5760405162461bcd60e51b815260040180806020018281038252602b815260200180613971602b913960400191505060405180910390fd5b60035460ff1615610bf9576040805162461bcd60e51b815260206004820152601060248201526f14185d5cd8589b194e881c185d5cd95960821b604482015290519081900360640190fd5b60003411610c385760405162461bcd60e51b8152600401808060200182810382526033815260200180613d106033913960400191505060405180910390fd5b600760009054906101000a90046001600160a01b03166001600160a01b031663d0e30db0346040518263ffffffff1660e01b81526004016000604051808303818588803b158015610c8857600080fd5b505af1158015610c9c573d6000803e3d6000fd5b5050336000908152601060209081526040808320548352601190915290206001810154909350610ccf9250905034612d42565b6001820155805460408051348152905133917f11f8990ac38271f23dea447d5728e9914fca7cea2edda43af6c43c415f8bc30b919081900360200190a3506001600255565b600080610d2083612a5a565b90506000610d2c611676565b600854909150600090610d47906001600160a01b0316611993565b90506000610d766064610d70610d696064600d54612d4290919063ffffffff16565b8790612dba565b90612e13565b9050610d8682610d708386612dba565b9695505050505050565b6006546001600160a01b031681565b610da7612e55565b6000546001600160a01b03908116911614610df7576040805162461bcd60e51b81526020600482018190526024820152600080516020613d43833981519152604482015290519081900360640190fd5b600e80546001600160a01b0383166001600160a01b03199091168117909155604080519182525133917fe1c2748b5835544258b7509d498a12d43c93663bf09edb5f4db2a74f2efce3ec919081900360200190a250565b600a5481565b600d5481565b60009081526001602052604090206002015490565b610e77612e55565b6000546001600160a01b03908116911614610ec7576040805162461bcd60e51b81526020600482018190526024820152600080516020613d43833981519152604482015290519081900360640190fd5b600b54610ed5826064612d42565b10610f115760405162461bcd60e51b8152600401808060200182810382526041815260200180613bcc6041913960600191505060405180910390fd5b600d81905560408051828152905133917f76fea7ef18b6b073facb4f15d873d45dc60e1ac9448931a44b388f40c49e3267919081900360200190a250565b600082815260016020526040902060020154610f7290610f6d612e55565b611cc8565b610fad5760405162461bcd60e51b815260040180806020018281038252602f815260200180613922602f913960400191505060405180910390fd5b610fb78282612e59565b5050565b600280541415611000576040805162461bcd60e51b815260206004820152601f6024820152600080516020613951833981519152604482015290519081900360640190fd5b600280553360009081526010602052604090205461104f5760405162461bcd60e51b815260040180806020018281038252602b815260200180613971602b913960400191505060405180910390fd5b60035460ff161561109a576040805162461bcd60e51b815260206004820152601060248201526f14185d5cd8589b194e881c185d5cd95960821b604482015290519081900360640190fd5b80806110d75760405162461bcd60e51b8152600401808060200182810382526027815260200180613e0d6027913960400191505060405180910390fd5b33600090815260106020908152604080832054835260119091528120805490919061110190611ba2565b905083826001015410156111465760405162461bcd60e51b8152600401808060200182810382526046815260200180613b866046913960600191505060405180910390fd5b60018201546111559085612ec2565b600183015580156111ab57600b54825461116e90611ba2565b10156111ab5760405162461bcd60e51b8152600401808060200182810382526043815260200180613c436043913960600191505060405180910390fd5b6007546040805163a9059cbb60e01b81523360048201526024810187905290516001600160a01b039092169163a9059cbb916044808201926020929091908290030181600087803b1580156111ff57600080fd5b505af1158015611213573d6000803e3d6000fd5b505050506040513d602081101561122957600080fd5b50516112665760405162461bcd60e51b815260040180806020018281038252603e815260200180613d9a603e913960400191505060405180910390fd5b815460408051868152905133917f47e1336b6fdb5f42c3a1d28b558fa98786d820c3705d726358dcc8e63a401eef919081900360200190a3505060016002555050565b6112b1612e55565b6001600160a01b0316816001600160a01b0316146113005760405162461bcd60e51b815260040180806020018281038252602f815260200180613ec5602f913960400191505060405180910390fd5b610fb78282612f04565b611312612e55565b6000546001600160a01b03908116911614611362576040805162461bcd60e51b81526020600482018190526024820152600080516020613d43833981519152604482015290519081900360640190fd5b61136a612f6d565b565b6002805414156113b1576040805162461bcd60e51b815260206004820152601f6024820152600080516020613951833981519152604482015290519081900360640190fd5b60028055336000908152601060205260409020546114005760405162461bcd60e51b815260040180806020018281038252602b815260200180613971602b913960400191505060405180910390fd5b60035460ff161561144b576040805162461bcd60e51b815260206004820152601060248201526f14185d5cd8589b194e881c185d5cd95960821b604482015290519081900360640190fd5b80600061145782612d0b565b90503481146114975760405162461bcd60e51b8152600401808060200182810382526034815260200180613cbb6034913960400191505060405180910390fd5b82806114d45760405162461bcd60e51b8152600401808060200182810382526027815260200180613e0d6027913960400191505060405180910390fd5b6114dc613863565b50336000908152601060209081526040808320548352601182529182902082516080810184528154808252600183015493820193909352600282015493810193909352600301546001600160a01b0316606083015261153b908661300b565b600e546001600160a01b03161561161c57600e546040805163f3fef3a360e01b81523360048201526024810188905290516001600160a01b039092169163f3fef3a39160448082019260009290919082900301818387803b15801561159f57600080fd5b505af11580156115b3573d6000803e3d6000fd5b5050600e546040805163e0588af760e01b815233600482015290516001600160a01b03909216935063e0588af7925060248082019260009290919082900301818387803b15801561160357600080fd5b505af1158015611617573d6000803e3d6000fd5b505050505b600f54611632906001600160a01b0316346130e0565b805160408051878152905133917fccbea4088a3b7ae9ca2d15fab9a9742a4075b4d7247768a1eecea917565aba00919081900360200190a350506001600255505050565b6006546000908190611690906001600160a01b0316611993565b90506116a7600a5482612e1390919063ffffffff16565b91505090565b6116b5612e55565b6000546001600160a01b03908116911614611705576040805162461bcd60e51b81526020600482018190526024820152600080516020613d43833981519152604482015290519081900360640190fd5b600c81905560408051828152905133917f2b29c7e5fe28010036a94929b56a0eb76bf5e90700e842a971eaa6e4abc45f04919081900360200190a250565b60035460ff1690565b60035460ff1615611797576040805162461bcd60e51b815260206004820152601060248201526f14185d5cd8589b194e881c185d5cd95960821b604482015290519081900360640190fd5b33600090815260106020526040902054156117e35760405162461bcd60e51b81526004018080602001828103825260308152602001806138956030913960400191505060405180910390fd5b60006117ef60046131d8565b336000908152601060205260409020819055905061180b613863565b50604080516080810182528281526000602080830182815283850183815233606086019081528785526011909352949092208351815591516001830155925160028201559151600390920180546001600160a01b0319166001600160a01b039093169290921790915561187e6004612d9c565b604051829033907fa510df27d6e51efd91d3f55722bad1f26bf924a63e5dcee07c2ab4c3d4992dcc90600090a35050565b60045481565b600f546001600160a01b031681565b600e546001600160a01b031681565b6402540be40081565b6005546001600160a01b031681565b6118f3612e55565b6000546001600160a01b03908116911614611943576040805162461bcd60e51b81526020600482018190526024820152600080516020613d43833981519152604482015290519081900360640190fd5b600080546040516001600160a01b03909116907f8be0079c531659141344cd1fd0a4f28419497f9722a3daafe3b4186f6b6457e0908390a3600080546001600160a01b0319169055565b600b5481565b6000610b146402540be400611a0b846001600160a01b03166396237c026040518163ffffffff1660e01b815260040160206040518083038186803b1580156119da57600080fd5b505afa1580156119ee573d6000803e3d6000fd5b505050506040513d6020811015611a0457600080fd5b50516131dc565b90612dba565b6008546001600160a01b031681565b611a28612e55565b6000546001600160a01b03908116911614611a78576040805162461bcd60e51b81526020600482018190526024820152600080516020613d43833981519152604482015290519081900360640190fd5b61136a613237565b611a88612e55565b6000546001600160a01b03908116911614611ad8576040805162461bcd60e51b81526020600482018190526024820152600080516020613d43833981519152604482015290519081900360640190fd5b6005546001600160a01b038381169116141580611b0357506007546001600160a01b03838116911614155b611b3e5760405162461bcd60e51b8152600401808060200182810382526039815260200180613e8c6039913960400191505060405180910390fd5b611b5a611b49611c9a565b6001600160a01b03841690836132b8565b604080516001600160a01b03841681526020810183905281517f8c1256b8896378cd5044f80c202f9772b9d77dc85c8a6eb51967210b09bfaa28929181900390910190a15050565b6000611bac613863565b5060008281526011602090815260409182902082516080810184528154808252600183015493820193909352600282015493810193909352600301546001600160a01b031660608301521580611c0457506040810151155b15611c125760009150611c64565b600854600090611c2a906001600160a01b0316611993565b9050611c60611c45611c3a611676565b604085015190612dba565b6020840151610d7090611c59906064612dba565b8490612dba565b9250505b50919050565b6011602052600090815260409020805460018201546002830154600390930154919290916001600160a01b031684565b6000546001600160a01b031690565b6000828152600160205260408120611cc1908361330a565b9392505050565b6000828152600160205260408120611cc19083613316565b600080600080611cee613863565b505050600092835250506011602090815260409182902082516080810184528154808252600183015493820184905260028301549482018590526003909201546001600160a01b03166060909101819052909391929091565b600280541415611d8c576040805162461bcd60e51b815260206004820152601f6024820152600080516020613951833981519152604482015290519081900360640190fd5b6002805560035460ff1615611ddb576040805162461bcd60e51b815260206004820152601060248201526f14185d5cd8589b194e881c185d5cd95960821b604482015290519081900360640190fd5b806000611de782612d0b565b9050348114611e275760405162461bcd60e51b8152600401808060200182810382526034815260200180613cbb6034913960400191505060405180910390fd5b60008481526011602052604090208054611e725760405162461bcd60e51b815260040180806020018281038252602e815260200180613e5e602e913960400191505060405180910390fd5b6000611e818260000154611ba2565b9050600b548110611ec35760405162461bcd60e51b8152600401808060200182810382526035815260200180613dd86035913960400191505060405180910390fd5b6000611ed28360000154612a5a565b9050808614611f125760405162461bcd60e51b8152600401808060200182810382526048815260200180613a806048913960600191505060405180910390fd5b6000611f218460000154610d14565b9050611f3184600001548861300b565b6001840154611f409082612ec2565b6001850155600e546001600160a01b031615611fc957600e5460038501546040805163f3fef3a360e01b81526001600160a01b039283166004820152602481018b90529051919092169163f3fef3a391604480830192600092919082900301818387803b158015611fb057600080fd5b505af1158015611fc4573d6000803e3d6000fd5b505050505b6007546040805163a9059cbb60e01b81523360048201526024810184905290516001600160a01b039092169163a9059cbb916044808201926020929091908290030181600087803b15801561201d57600080fd5b505af1158015612031573d6000803e3d6000fd5b505050506040513d602081101561204757600080fd5b50516120845760405162461bcd60e51b815260040180806020018281038252603c815260200180613ac8603c913960400191505060405180910390fd5b8354604080518481526020810184905281513393927fba5789da846390370bbfbf693007be2c95d0cfac69a8d175805f742dc7938321928290030190a350506001600255505050505050565b6009546001600160a01b031681565b600280541415612124576040805162461bcd60e51b815260206004820152601f6024820152600080516020613951833981519152604482015290519081900360640190fd5b60028055336000908152601060205260409020546121735760405162461bcd60e51b815260040180806020018281038252602b815260200180613971602b913960400191505060405180910390fd5b60035460ff16156121be576040805162461bcd60e51b815260206004820152601060248201526f14185d5cd8589b194e881c185d5cd95960821b604482015290519081900360640190fd5b80806121fb5760405162461bcd60e51b8152600401808060200182810382526027815260200180613e0d6027913960400191505060405180910390fd5b3360009081526010602090815260408083205483526011909152812090612221846123f7565b905080826001015410156122665760405162461bcd60e51b81526004018080602001828103825260298152602001806139c26029913960400191505060405180910390fd5b60028201546122759085612d42565b6002830155600b54825461228890611ba2565b10156122c55760405162461bcd60e51b8152600401808060200182810382526037815260200180613d636037913960400191505060405180910390fd5b600e546001600160a01b03161561234257600e54604080516356e4bb9760e11b81523360048201526024810187905290516001600160a01b039092169163adc9772e9160448082019260009290919082900301818387803b15801561232957600080fd5b505af115801561233d573d6000803e3d6000fd5b505050505b600554604080516340c10f1960e01b81523360048201526024810187905290516001600160a01b03909216916340c10f199160448082019260009290919082900301818387803b15801561239557600080fd5b505af11580156123a9573d6000803e3d6000fd5b505083546040805188815290519193503392507f2e8ac5177a616f2aec08c3048f5021e4e9743ece034e8d83ba5caf76688bb475919081900360200190a3505060016002555050565b600081565b600080612402611676565b60085490915060009061241d906001600160a01b0316611993565b9050611c6081610d706064610d70600b54611a0b8a89612dba90919063ffffffff16565b612449612e55565b6000546001600160a01b03908116911614612499576040805162461bcd60e51b81526020600482018190526024820152600080516020613d43833981519152604482015290519081900360640190fd5b600b81905560408051828152905133917f6126d9241e4aeb647b01ddffba35de720a5b4ad692f117a43b5b281e49126fc4919081900360200190a250565b60106020526000908152604090205481565b60028054141561252e576040805162461bcd60e51b815260206004820152601f6024820152600080516020613951833981519152604482015290519081900360640190fd5b600280553360009081526010602052604090205461257d5760405162461bcd60e51b815260040180806020018281038252602b815260200180613971602b913960400191505060405180910390fd5b60035460ff16156125c8576040805162461bcd60e51b815260206004820152601060248201526f14185d5cd8589b194e881c185d5cd95960821b604482015290519081900360640190fd5b80806126055760405162461bcd60e51b8152600401808060200182810382526027815260200180613e0d6027913960400191505060405180910390fd5b600754604080516323b872dd60e01b81523360048201523060248201526044810185905290516001600160a01b03909216916323b872dd916064808201926020929091908290030181600087803b15801561265f57600080fd5b505af1158015612673573d6000803e3d6000fd5b505050506040513d602081101561268957600080fd5b50516126c65760405162461bcd60e51b815260040180806020018281038252603b8152602001806138e7603b913960400191505060405180910390fd5b3360009081526010602090815260408083205483526011909152902060018101546126f19084612d42565b6001820155805460408051858152905133917f11f8990ac38271f23dea447d5728e9914fca7cea2edda43af6c43c415f8bc30b919081900360200190a35050600160025550565b6007546001600160a01b031681565b6000818152600160205260408120610b149061332b565b6002805414156127a3576040805162461bcd60e51b815260206004820152601f6024820152600080516020613951833981519152604482015290519081900360640190fd5b60028055336000908152601060205260409020546127f25760405162461bcd60e51b815260040180806020018281038252602b815260200180613971602b913960400191505060405180910390fd5b60035460ff161561283d576040805162461bcd60e51b815260206004820152601060248201526f14185d5cd8589b194e881c185d5cd95960821b604482015290519081900360640190fd5b6000811161287c5760405162461bcd60e51b8152600401808060200182810382526036815260200180613c0d6036913960400191505060405180910390fd5b3360009081526010602090815260408083205483526011909152812080549091906128a690611ba2565b905082826001015410156128eb5760405162461bcd60e51b815260040180806020018281038252604c8152602001806139eb604c913960600191505060405180910390fd5b60018201546128fa9084612ec2565b6001830155801561295057600b54825461291390611ba2565b10156129505760405162461bcd60e51b8152600401808060200182810382526049815260200180613a376049913960600191505060405180910390fd5b60075460408051632e1a7d4d60e01b81526004810186905290516001600160a01b0390921691632e1a7d4d9160248082019260009290919082900301818387803b15801561299d57600080fd5b505af11580156129b1573d6000803e3d6000fd5b505050506129bf33846130e0565b815460408051858152905133917f47e1336b6fdb5f42c3a1d28b558fa98786d820c3705d726358dcc8e63a401eef919081900360200190a35050600160025550565b600082815260016020526040902060020154612a1f90610f6d612e55565b6113005760405162461bcd60e51b8152600401808060200182810382526030815260200180613b2a6030913960400191505060405180910390fd5b6000612a64613863565b506000828152601160209081526040808320815160808101835281548152600182015493810193909352600281015491830191909152600301546001600160a01b0316606082015290612ab5611676565b600854909150600090612ad0906001600160a01b0316611993565b90506000612aef83610d70848760200151612dba90919063ffffffff16565b90506000612b206064611a0b84612b1a6064610d70600b548c60400151612dba90919063ffffffff16565b90612ec2565b90506000612b46612b3d6064600d54612d4290919063ffffffff16565b600b5490612ec2565b9050612b528282612e13565b98975050505050505050565b612b66612e55565b6000546001600160a01b03908116911614612bb6576040805162461bcd60e51b81526020600482018190526024820152600080516020613d43833981519152604482015290519081900360640190fd5b600f80546001600160a01b0383166001600160a01b03199091168117909155604080519182525133917f567657fa3f286518b318f4a29870674f433f622fdfc819691acb13105b228225919081900360200190a250565b612c15612e55565b6000546001600160a01b03908116911614612c65576040805162461bcd60e51b81526020600482018190526024820152600080516020613d43833981519152604482015290519081900360640190fd5b6001600160a01b038116612caa5760405162461bcd60e51b815260040180806020018281038252602681526020018061399c6026913960400191505060405180910390fd5b600080546040516001600160a01b03808516939216917f8be0079c531659141344cd1fd0a4f28419497f9722a3daafe3b4186f6b6457e091a3600080546001600160a01b0319166001600160a01b0392909216919091179055565b600c5481565b6009546000908190612d25906001600160a01b0316611993565b9050611cc181610d706064610d70600c54611a0b89611a0b611676565b600082820183811015611cc1576040805162461bcd60e51b815260206004820152601b60248201527f536166654d6174683a206164646974696f6e206f766572666c6f770000000000604482015290519081900360640190fd5b80546001019055565b6000611cc1836001600160a01b038416613336565b600082612dc957506000610b14565b82820282848281612dd657fe5b0414611cc15760405162461bcd60e51b8152600401808060200182810382526021815260200180613cef6021913960400191505060405180910390fd5b6000611cc183836040518060400160405280601a81526020017f536166654d6174683a206469766973696f6e206279207a65726f000000000000815250613380565b3390565b6000828152600160205260409020612e719082612da5565b15610fb757612e7e612e55565b6001600160a01b0316816001600160a01b0316837f2f8788117e7eff1d82e926ec794901d17c78024a50270940304540a733656f0d60405160405180910390a45050565b6000611cc183836040518060400160405280601e81526020017f536166654d6174683a207375627472616374696f6e206f766572666c6f770000815250613422565b6000828152600160205260409020612f1c908261347c565b15610fb757612f29612e55565b6001600160a01b0316816001600160a01b0316837ff6391f5c32d9c69d2a47ea670b442974b53935d1edc7fd64eb21e047a839171b60405160405180910390a45050565b60035460ff16612fbb576040805162461bcd60e51b815260206004820152601460248201527314185d5cd8589b194e881b9bdd081c185d5cd95960621b604482015290519081900360640190fd5b6003805460ff191690557f5db9ee0a495bf2e6ff9c91a7834c1ba4fdd244a5e8aa4e537bd38aeae4b073aa612fee612e55565b604080516001600160a01b039092168252519081900360200190a1565b6000828152601160205260409020600281015482111561305c5760405162461bcd60e51b815260040180806020018281038252602c815260200180613b5a602c913960400191505060405180910390fd5b600281015461306b9083612ec2565b600282015560055460408051632770a7eb60e21b81523360048201526024810185905290516001600160a01b0390921691639dc29fac9160448082019260009290919082900301818387803b1580156130c357600080fd5b505af11580156130d7573d6000803e3d6000fd5b50505050505050565b604080516000808252602082019092526001600160a01b0384169083906040518082805190602001908083835b6020831061312c5780518252601f19909201916020918201910161310d565b6001836020036101000a03801982511681845116808217855250505050505090500191505060006040518083038185875af1925050503d806000811461318e576040519150601f19603f3d011682016040523d82523d6000602084013e613193565b606091505b50509050806131d35760405162461bcd60e51b8152600401808060200182810382526035815260200180613c866035913960400191505060405180910390fd5b505050565b5490565b600080821215613233576040805162461bcd60e51b815260206004820181905260248201527f53616665436173743a2076616c7565206d75737420626520706f736974697665604482015290519081900360640190fd5b5090565b60035460ff1615613282576040805162461bcd60e51b815260206004820152601060248201526f14185d5cd8589b194e881c185d5cd95960821b604482015290519081900360640190fd5b6003805460ff191660011790557f62e78cea01bee320cd4e420270b5ea74000d11b0c9f74754ebdbfc544b05a258612fee612e55565b604080516001600160a01b038416602482015260448082018490528251808303909101815260649091019091526020810180516001600160e01b031663a9059cbb60e01b1790526131d3908490613491565b6000611cc18383613542565b6000611cc1836001600160a01b0384166135a6565b6000610b14826131d8565b600061334283836135a6565b61337857508154600181810184556000848152602080822090930184905584548482528286019093526040902091909155610b14565b506000610b14565b6000818361340c5760405162461bcd60e51b81526004018080602001828103825283818151815260200191508051906020019080838360005b838110156133d15781810151838201526020016133b9565b50505050905090810190601f1680156133fe5780820380516001836020036101000a031916815260200191505b509250505060405180910390fd5b50600083858161341857fe5b0495945050505050565b600081848411156134745760405162461bcd60e51b81526020600482018181528351602484015283519092839260449091019190850190808383600083156133d15781810151838201526020016133b9565b505050900390565b6000611cc1836001600160a01b0384166135be565b60606134e6826040518060400160405280602081526020017f5361666545524332303a206c6f772d6c6576656c2063616c6c206661696c6564815250856001600160a01b03166136849092919063ffffffff16565b8051909150156131d35780806020019051602081101561350557600080fd5b50516131d35760405162461bcd60e51b815260040180806020018281038252602a815260200180613e34602a913960400191505060405180910390fd5b815460009082106135845760405162461bcd60e51b81526004018080602001828103825260228152602001806138c56022913960400191505060405180910390fd5b82600001828154811061359357fe5b9060005260206000200154905092915050565b60009081526001919091016020526040902054151590565b6000818152600183016020526040812054801561367a57835460001980830191908101906000908790839081106135f157fe5b906000526020600020015490508087600001848154811061360e57fe5b60009182526020808320909101929092558281526001898101909252604090209084019055865487908061363e57fe5b60019003818190600052602060002001600090559055866001016000878152602001908152602001600020600090556001945050505050610b14565b6000915050610b14565b6060613693848460008561369b565b949350505050565b6060824710156136dc5760405162461bcd60e51b8152600401808060200182810382526026815260200180613b046026913960400191505060405180910390fd5b6136e5856137f7565b613736576040805162461bcd60e51b815260206004820152601d60248201527f416464726573733a2063616c6c20746f206e6f6e2d636f6e7472616374000000604482015290519081900360640190fd5b60006060866001600160a01b031685876040518082805190602001908083835b602083106137755780518252601f199092019160209182019101613756565b6001836020036101000a03801982511681845116808217855250505050505090500191505060006040518083038185875af1925050503d80600081146137d7576040519150601f19603f3d011682016040523d82523d6000602084013e6137dc565b606091505b50915091506137ec8282866137fd565b979650505050505050565b3b151590565b6060831561380c575081611cc1565b82511561381c5782518084602001fd5b60405162461bcd60e51b81526020600482018181528451602484015284518593919283926044019190850190808383600083156133d15781810151838201526020016133b9565b604051806080016040528060008152602001600081526020016000815260200160006001600160a01b03168152509056fe5661756c7448616e646c65723a3a6372656174655661756c743a207661756c7420616c72656164792063726561746564456e756d657261626c655365743a20696e646578206f7574206f6620626f756e64735661756c7448616e646c65723a3a616464436f6c6c61746572616c3a204552433230207472616e7366657220646964206e6f742073756363656564416363657373436f6e74726f6c3a2073656e646572206d75737420626520616e2061646d696e20746f206772616e745265656e7472616e637947756172643a207265656e7472616e742063616c6c005661756c7448616e646c65723a3a7661756c744578697374733a206e6f207661756c7420637265617465644f776e61626c653a206e6577206f776e657220697320746865207a65726f20616464726573735661756c7448616e646c65723a3a6d696e743a206e6f7420656e6f75676820636f6c6c61746572616c4554485661756c7448616e646c65723a3a72656d6f7665436f6c6c61746572616c4554483a20726574726965766520616d6f756e7420686967686572207468616e20636f6c6c61746572616c4554485661756c7448616e646c65723a3a72656d6f7665436f6c6c61746572616c4554483a20636f6c6c61746572616c2062656c6f77206d696e20726571756972656420726174696f5661756c7448616e646c65723a3a6c69717569646174655661756c743a206c69717569646174696f6e20616d6f756e7420646966666572656e74207468616e2072657175697265645661756c7448616e646c65723a3a6c69717569646174655661756c743a204552433230207472616e7366657220646964206e6f742073756363656564416464726573733a20696e73756666696369656e742062616c616e636520666f722063616c6c416363657373436f6e74726f6c3a2073656e646572206d75737420626520616e2061646d696e20746f207265766f6b655661756c7448616e646c65723a3a6275726e3a20616d6f756e742067726561746572207468616e20646562745661756c7448616e646c65723a3a72656d6f7665436f6c6c61746572616c3a20726574726965766520616d6f756e7420686967686572207468616e20636f6c6c61746572616c5661756c7448616e646c65723a3a7365744c69717569646174696f6e50656e616c74793a206c69717569646174696f6e2070656e616c747920746f6f20686967684554485661756c7448616e646c65723a3a72656d6f7665436f6c6c61746572616c4554483a2076616c75652063616e277420626520305661756c7448616e646c65723a3a72656d6f7665436f6c6c61746572616c3a20636f6c6c61746572616c2062656c6f77206d696e20726571756972656420726174696f4554485661756c7448616e646c65723a3a736166655472616e736665724554483a20455448207472616e73666572206661696c65645661756c7448616e646c65723a3a6275726e3a206275726e2066656520646966666572656e74207468616e207265717569726564536166654d6174683a206d756c7469706c69636174696f6e206f766572666c6f774554485661756c7448616e646c65723a3a616464436f6c6c61746572616c4554483a2076616c75652063616e277420626520304f776e61626c653a2063616c6c6572206973206e6f7420746865206f776e65725661756c7448616e646c65723a3a6d696e743a20636f6c6c61746572616c2062656c6f77206d696e20726571756972656420726174696f5661756c7448616e646c65723a3a72656d6f7665436f6c6c61746572616c3a204552433230207472616e7366657220646964206e6f7420737563636565645661756c7448616e646c65723a3a6c69717569646174655661756c743a207661756c74206973206e6f74206c697175696461626c655661756c7448616e646c65723a3a6e6f745a65726f3a2076616c75652063616e277420626520305361666545524332303a204552433230206f7065726174696f6e20646964206e6f7420737563636565645661756c7448616e646c65723a3a6c69717569646174655661756c743a206e6f207661756c74206372656174656443616e6e6f7420776974686472617720746865207374616b696e672c20636f6c6c61746572616c206f72207265776172647320746f6b656e73416363657373436f6e74726f6c3a2063616e206f6e6c792072656e6f756e636520726f6c657320666f722073656c66a26469706673582212201060ab577b31ff29892a8b7d4db0b5841b62aab053a71cb9dae9ba29347465f964736f6c634300070500335661756c7448616e646c65723a3a696e697469616c697a653a206c69717569646174696f6e2070656e616c747920746f6f20686967684f776e61626c653a206e6577206f776e657220697320746865207a65726f20616464726573738be0079c531659141344cd1fd0a4f28419497f9722a3daafe3b4186f6b6457e0",
  "devdoc": {
    "author": "Cryptex.finance",
    "kind": "dev",
    "methods": {
      "TCAPPrice()": {
        "details": "TCAP token is 18 decimalsoracle totalMarketPrice must be in wei formatP = T / d P = TCAP Token Price T = Total Crypto Market Cap d = Divisor",
        "returns": {
          "price": "of the TCAP Token"
        }
      },
      "addCollateral(uint256)": {
        "details": "_amount should be higher than 0ERC20 token must be approved first",
        "params": {
          "_amount": "of collateral to be added"
        }
      },
      "addCollateralETH()": {
        "details": "value should be higher than 0ETH is turned into WETH"
      },
      "burn(uint256)": {
        "details": "_amount should be higher than 0A fee of exactly burnFee must be sent as value on ETHThe fee goes to the treasury contractif reward handler is set exit rewards",
        "params": {
          "_amount": "of tokens to burn"
        }
      },
      "constructor": {
        "params": {
          "_burnFee": "uint256",
          "_collateralAddress": "address",
          "_collateralOracle": "address",
          "_divisor": "uint256",
          "_ethOracle": "address",
          "_liquidationPenalty": "uint256",
          "_orchestrator": "address",
          "_ratio": "uint256",
          "_rewardHandler": "address",
          "_tcapAddress": "address",
          "_tcapOracle": "address",
          "_treasury": "address"
        }
      },
      "createVault()": {
        "details": "Only one vault per address can be created"
      },
      "getFee(uint256)": {
        "details": "The returned value is returned in weif = (((P * A * b)/ 100))/ EP f = Burn Fee Value P = TCAP Token Price A = Amount to Burn b = Burn Fee % EP = ETH Price",
        "params": {
          "_amount": "to burn"
        },
        "returns": {
          "fee": "fee"
        }
      },
      "getOraclePrice(address)": {
        "params": {
          "_oracle": "to be the price called"
        },
        "returns": {
          "price": "price"
        }
      },
      "getRoleAdmin(bytes32)": {
        "details": "Returns the admin role that controls `role`. See {grantRole} and {revokeRole}. To change a role's admin, use {_setRoleAdmin}."
      },
      "getRoleMember(bytes32,uint256)": {
        "details": "Returns one of the accounts that have `role`. `index` must be a value between 0 and {getRoleMemberCount}, non-inclusive. Role bearers are not sorted in any particular way, and their ordering may change at any point. WARNING: When using {getRoleMember} and {getRoleMemberCount}, make sure you perform all queries on the same block. See the following https://forum.openzeppelin.com/t/iterating-over-elements-on-enumerableset-in-openzeppelin-contracts/2296[forum post] for more information."
      },
      "getRoleMemberCount(bytes32)": {
        "details": "Returns the number of accounts that have `role`. Can be used together with {getRoleMember} to enumerate all bearers of a role."
      },
      "getVault(uint256)": {
        "params": {
          "_id": "of vault"
        },
        "returns": {
          "_0": "Id, Collateral, Owner, Debt"
        }
      },
      "getVaultRatio(uint256)": {
        "details": "vr = (cp * (C * 100)) / D * P vr = Vault Ratio C = Vault Collateral cp = Collateral Price D = Vault Debt P = TCAP Token Price",
        "params": {
          "_vaultId": "id of vault"
        },
        "returns": {
          "currentRatio": "currentRatio"
        }
      },
      "grantRole(bytes32,address)": {
        "details": "Grants `role` to `account`. If `account` had not been already granted `role`, emits a {RoleGranted} event. Requirements: - the caller must have ``role``'s admin role."
      },
      "hasRole(bytes32,address)": {
        "details": "Returns `true` if `account` has been granted `role`."
      },
      "liquidateVault(uint256,uint256)": {
        "details": "Resulting ratio must be above or equal minimun ratioA fee of exactly burnFee must be sent as value on ETHThe fee goes to the treasury contract",
        "params": {
          "_requiredTCAP": "amount of TCAP to liquidate vault",
          "_vaultId": "to liquidate"
        }
      },
      "liquidationReward(uint256)": {
        "details": "the returned value is returned as collateral currencyR = (LT * (p  + 100)) / 100 R = Liquidation Reward LT = Required Liquidation TCAP p = liquidation penalty",
        "params": {
          "_vaultId": "of the vault to liquidate"
        },
        "returns": {
          "rewardCollateral": "for liquidating Vault"
        }
      },
      "mint(uint256)": {
        "details": "_amount should be higher than 0requires to have a vault ratio above the minimum ratioif reward handler is set stake to earn rewards",
        "params": {
          "_amount": "of tokens to mint"
        }
      },
      "owner()": {
        "details": "Returns the address of the current owner."
      },
      "paused()": {
        "details": "Returns true if the contract is paused, and false otherwise."
      },
      "recoverERC20(address,uint256)": {
        "details": "Only owner  can call it",
        "params": {
          "_tokenAddress": "address",
          "_tokenAmount": "uint"
        }
      },
      "removeCollateral(uint256)": {
        "details": "reverts if the resulting ratio is less than the minimun ratio_amount should be higher than 0transfers the collateral back to the user",
        "params": {
          "_amount": "of collateral to remove"
        }
      },
      "removeCollateralETH(uint256)": {
        "details": "_amount should be higher than 0WETH is turned into ETH",
        "params": {
          "_amount": "of collateral to remove"
        }
      },
      "renounceOwnership()": {
        "details": "Leaves the contract without owner. It will not be possible to call `onlyOwner` functions anymore. Can only be called by the current owner. NOTE: Renouncing ownership will leave the contract without an owner, thereby removing any functionality that is only available to the owner."
      },
      "renounceRole(bytes32,address)": {
        "details": "Revokes `role` from the calling account. Roles are often managed via {grantRole} and {revokeRole}: this function's purpose is to provide a mechanism for accounts to lose their privileges if they are compromised (such as when a trusted device is misplaced). If the calling account had been granted `role`, emits a {RoleRevoked} event. Requirements: - the caller must be `account`."
      },
      "requiredCollateral(uint256)": {
        "details": "TCAP token is 18 decimalsC = ((P * A * r) / 100) / cp C = Required Collateral P = TCAP Token Price A = Amount to Mint cp = Collateral Price r = Minimun Ratio for Liquidation Is only divided by 100 as eth price comes in wei to cancel the additional 0s",
        "params": {
          "_amount": "uint amount to mint"
        },
        "returns": {
          "collateral": "of the TCAP Token"
        }
      },
      "requiredLiquidationTCAP(uint256)": {
        "details": "LT = ((((D * r) / 100) - cTcap) * 100) / (r - (p + 100)) cTcap = ((C * cp) / P) LT = Required TCAPif reward handler is set exit rewards D = Vault Debt C = Required Collateral P = TCAP Token Price cp = Collateral Price r = Min Vault Ratio p = Liquidation Penalty",
        "params": {
          "_vaultId": "of the vault to liquidate"
        },
        "returns": {
          "amount": "required of the TCAP Token"
        }
      },
      "revokeRole(bytes32,address)": {
        "details": "Revokes `role` from `account`. If `account` had been granted `role`, emits a {RoleRevoked} event. Requirements: - the caller must have ``role``'s admin role."
      },
      "setBurnFee(uint256)": {
        "details": "Only owner can call it",
        "params": {
          "_burnFee": "uint"
        }
      },
      "setLiquidationPenalty(uint256)": {
        "details": "Only owner can call itrecommended value is between 1-15% and can't be above 100%",
        "params": {
          "_liquidationPenalty": "uint"
        }
      },
      "setRatio(uint256)": {
        "details": "Only owner can call it",
        "params": {
          "_ratio": "uint"
        }
      },
      "setRewardHandler(address)": {
        "details": "Only owner can call itif not set, rewards are not given",
        "params": {
          "_rewardHandler": "address"
        }
      },
      "setTreasury(address)": {
        "details": "Only owner can call it",
        "params": {
          "_treasury": "address"
        }
      },
      "supportsInterface(bytes4)": {
        "params": {
          "_interfaceId": "bytes of interface"
        },
        "returns": {
          "_0": "bool"
        }
      },
      "transferOwnership(address)": {
        "details": "Transfers ownership of the contract to a new account (`newOwner`). Can only be called by the current owner."
      }
    },
    "title": "ETH TCAP Vault",
    "version": 1
  },
  "userdoc": {
    "events": {
      "CollateralAdded(address,uint256,uint256)": {
        "notice": "An event emitted when collateral is added to a vault"
      },
      "CollateralRemoved(address,uint256,uint256)": {
        "notice": "An event emitted when collateral is removed from a vault"
      },
      "NewBurnFee(address,uint256)": {
        "notice": "An event emitted when the burn fee is updated"
      },
      "NewLiquidationPenalty(address,uint256)": {
        "notice": "An event emitted when the liquidation penalty is updated"
      },
      "NewRatio(address,uint256)": {
        "notice": "An event emitted when the ratio is updated"
      },
      "NewRewardHandler(address,address)": {
        "notice": "An event emitted when the reward handler contract is updated"
      },
      "NewTreasury(address,address)": {
        "notice": "An event emitted when the treasury contract is updated"
      },
      "Recovered(address,uint256)": {
        "notice": "An event emitted when a erc20 token is recovered"
      },
      "TokensBurned(address,uint256,uint256)": {
        "notice": "An event emitted when tokens are burned"
      },
      "TokensMinted(address,uint256,uint256)": {
        "notice": "An event emitted when tokens are minted"
      },
      "VaultCreated(address,uint256)": {
        "notice": "An event emitted when a vault is created"
      },
      "VaultLiquidated(uint256,address,uint256,uint256)": {
        "notice": "An event emitted when a vault is liquidated"
      }
    },
    "kind": "user",
    "methods": {
      "ETHPriceOracle()": {
        "notice": "ETH/USD Oracle Address"
      },
      "TCAPPrice()": {
        "notice": "Returns the price of the TCAP token"
      },
      "TCAPToken()": {
        "notice": "TCAP Token Address"
      },
      "addCollateral(uint256)": {
        "notice": "Allows users to add collateral to their vaults"
      },
      "addCollateralETH()": {
        "notice": "Adds collateral to vault using ETH"
      },
      "burn(uint256)": {
        "notice": "Pays the debt of TCAP tokens resulting them on burn, this releases collateral up to minimun vault ratio"
      },
      "burnFee()": {
        "notice": "Fee percentage of the total amount to burn charged on ETH when burning TCAP Tokens"
      },
      "collateralContract()": {
        "notice": "Collateral Token Address"
      },
      "collateralPriceOracle()": {
        "notice": "Collateral/USD Oracle Address"
      },
      "constructor": {
        "notice": "Constructor"
      },
      "counter()": {
        "notice": "Vault Id counter"
      },
      "createVault()": {
        "notice": "Allows an user to create an unique Vault"
      },
      "divisor()": {
        "notice": "Value used as divisor with the total market cap, just like the S&P 500 or any major financial index would to define the final tcap token price"
      },
      "getFee(uint256)": {
        "notice": "Returns the required fee of ETH to burn the TCAP tokens"
      },
      "getOraclePrice(address)": {
        "notice": "Returns the price of the chainlink oracle multiplied by the digits to get 18 decimals format"
      },
      "getVault(uint256)": {
        "notice": "Returns the Vault information of specified identifier"
      },
      "getVaultRatio(uint256)": {
        "notice": "Returns the Collateral Ratio of the Vault"
      },
      "liquidateVault(uint256,uint256)": {
        "notice": "Allow users to burn TCAP tokens to liquidate vaults with vault collateral ratio under the minium ratio, the liquidator receives the staked collateral of the liquidated vault at a premium"
      },
      "liquidationPenalty()": {
        "notice": "Penalty charged to vault owner when a vault is liquidated, this value goes to the liquidator"
      },
      "liquidationReward(uint256)": {
        "notice": "Returns the Reward for liquidating a vault"
      },
      "mint(uint256)": {
        "notice": "Uses collateral to generate debt on TCAP Tokens which are minted and assigend to caller"
      },
      "oracleDigits()": {
        "notice": "value used to multiply chainlink oracle for handling decimals"
      },
      "pause()": {
        "notice": "Allows the owner to Pause the Contract"
      },
      "ratio()": {
        "notice": "Minimun ratio required to prevent liquidation of vault"
      },
      "recoverERC20(address,uint256)": {
        "notice": "Added to support recovering LP Rewards from other systems such as BAL to be distributed to holders"
      },
      "removeCollateral(uint256)": {
        "notice": "Allows users to remove collateral currently not being used to generate TCAP tokens from their vaults"
      },
      "removeCollateralETH(uint256)": {
        "notice": "Removes not used collateral from vault"
      },
      "requiredCollateral(uint256)": {
        "notice": "Returns the minimal required collateral to mint TCAP token"
      },
      "requiredLiquidationTCAP(uint256)": {
        "notice": "Returns the minimal required TCAP to liquidate a Vault"
      },
      "rewardHandler()": {
        "notice": "Address of the contract that gives rewards to minters of TCAP, rewards are only given if address is set before minting"
      },
      "setBurnFee(uint256)": {
        "notice": "Sets the burn fee percentage an user pays when burning tcap tokens"
      },
      "setLiquidationPenalty(uint256)": {
        "notice": "Sets the liquidation penalty % charged on liquidation"
      },
      "setRatio(uint256)": {
        "notice": "Sets the collateral ratio needed to mint tokens"
      },
      "setRewardHandler(address)": {
        "notice": "Sets the reward handler address used to give rewards to incentivize minting of TCAP."
      },
      "setTreasury(address)": {
        "notice": "Sets the treasury contract address where fees are transfered to"
      },
      "supportsInterface(bytes4)": {
        "notice": "ERC165 Standard for support of interfaces"
      },
      "tcapOracle()": {
        "notice": "Total Market Cap/USD Oracle Address"
      },
      "treasury()": {
        "notice": "Address of the treasury multisign contract that allows the multisign to control the rewards and funds generated by the protocol"
      },
      "unpause()": {
        "notice": "Allows the owner to Unpause the Contract"
      },
      "userToVault(address)": {
        "notice": "Owner address to Vault Id"
      },
      "vaults(uint256)": {
        "notice": "Id To Vault"
      }
    },
    "notice": "Contract in charge of handling the TCAP Vault and stake using a ETH and WETH",
    "version": 1
  },
  "storageLayout": {
    "storage": [
      {
        "astId": 359,
        "contract": "contracts/ETHVaultHandler.sol:ETHVaultHandler",
        "label": "_owner",
        "offset": 0,
        "slot": "0",
        "type": "t_address"
      },
      {
        "astId": 91,
        "contract": "contracts/ETHVaultHandler.sol:ETHVaultHandler",
        "label": "_roles",
        "offset": 0,
        "slot": "1",
        "type": "t_mapping(t_bytes32,t_struct(RoleData)87_storage)"
      },
      {
        "astId": 2509,
        "contract": "contracts/ETHVaultHandler.sol:ETHVaultHandler",
        "label": "_status",
        "offset": 0,
        "slot": "2",
        "type": "t_uint256"
      },
      {
        "astId": 2426,
        "contract": "contracts/ETHVaultHandler.sol:ETHVaultHandler",
        "label": "_paused",
        "offset": 0,
        "slot": "3",
        "type": "t_bool"
      },
      {
        "astId": 3195,
        "contract": "contracts/ETHVaultHandler.sol:ETHVaultHandler",
        "label": "counter",
        "offset": 0,
        "slot": "4",
        "type": "t_struct(Counter)1888_storage"
      },
      {
        "astId": 3198,
        "contract": "contracts/ETHVaultHandler.sol:ETHVaultHandler",
        "label": "TCAPToken",
        "offset": 0,
        "slot": "5",
        "type": "t_contract(TCAP)6925"
      },
      {
        "astId": 3201,
        "contract": "contracts/ETHVaultHandler.sol:ETHVaultHandler",
        "label": "tcapOracle",
        "offset": 0,
        "slot": "6",
        "type": "t_contract(ChainlinkOracle)7229"
      },
      {
        "astId": 3204,
        "contract": "contracts/ETHVaultHandler.sol:ETHVaultHandler",
        "label": "collateralContract",
        "offset": 0,
        "slot": "7",
        "type": "t_contract(IERC20)1421"
      },
      {
        "astId": 3207,
        "contract": "contracts/ETHVaultHandler.sol:ETHVaultHandler",
        "label": "collateralPriceOracle",
        "offset": 0,
        "slot": "8",
        "type": "t_contract(ChainlinkOracle)7229"
      },
      {
        "astId": 3210,
        "contract": "contracts/ETHVaultHandler.sol:ETHVaultHandler",
        "label": "ETHPriceOracle",
        "offset": 0,
        "slot": "9",
        "type": "t_contract(ChainlinkOracle)7229"
      },
      {
        "astId": 3213,
        "contract": "contracts/ETHVaultHandler.sol:ETHVaultHandler",
        "label": "divisor",
        "offset": 0,
        "slot": "10",
        "type": "t_uint256"
      },
      {
        "astId": 3216,
        "contract": "contracts/ETHVaultHandler.sol:ETHVaultHandler",
        "label": "ratio",
        "offset": 0,
        "slot": "11",
        "type": "t_uint256"
      },
      {
        "astId": 3219,
        "contract": "contracts/ETHVaultHandler.sol:ETHVaultHandler",
        "label": "burnFee",
        "offset": 0,
        "slot": "12",
        "type": "t_uint256"
      },
      {
        "astId": 3222,
        "contract": "contracts/ETHVaultHandler.sol:ETHVaultHandler",
        "label": "liquidationPenalty",
        "offset": 0,
        "slot": "13",
        "type": "t_uint256"
      },
      {
        "astId": 3225,
        "contract": "contracts/ETHVaultHandler.sol:ETHVaultHandler",
        "label": "rewardHandler",
        "offset": 0,
        "slot": "14",
        "type": "t_contract(IRewardHandler)3160"
      },
      {
        "astId": 3228,
        "contract": "contracts/ETHVaultHandler.sol:ETHVaultHandler",
        "label": "treasury",
        "offset": 0,
        "slot": "15",
        "type": "t_address"
      },
      {
        "astId": 3233,
        "contract": "contracts/ETHVaultHandler.sol:ETHVaultHandler",
        "label": "userToVault",
        "offset": 0,
        "slot": "16",
        "type": "t_mapping(t_address,t_uint256)"
      },
      {
        "astId": 3238,
        "contract": "contracts/ETHVaultHandler.sol:ETHVaultHandler",
        "label": "vaults",
        "offset": 0,
        "slot": "17",
        "type": "t_mapping(t_uint256,t_struct(Vault)3192_storage)"
      }
    ],
    "types": {
      "t_address": {
        "encoding": "inplace",
        "label": "address",
        "numberOfBytes": "20"
      },
      "t_array(t_bytes32)dyn_storage": {
        "base": "t_bytes32",
        "encoding": "dynamic_array",
        "label": "bytes32[]",
        "numberOfBytes": "32"
      },
      "t_bool": {
        "encoding": "inplace",
        "label": "bool",
        "numberOfBytes": "1"
      },
      "t_bytes32": {
        "encoding": "inplace",
        "label": "bytes32",
        "numberOfBytes": "32"
      },
      "t_contract(ChainlinkOracle)7229": {
        "encoding": "inplace",
        "label": "contract ChainlinkOracle",
        "numberOfBytes": "20"
      },
      "t_contract(IERC20)1421": {
        "encoding": "inplace",
        "label": "contract IERC20",
        "numberOfBytes": "20"
      },
      "t_contract(IRewardHandler)3160": {
        "encoding": "inplace",
        "label": "contract IRewardHandler",
        "numberOfBytes": "20"
      },
      "t_contract(TCAP)6925": {
        "encoding": "inplace",
        "label": "contract TCAP",
        "numberOfBytes": "20"
      },
      "t_mapping(t_address,t_uint256)": {
        "encoding": "mapping",
        "key": "t_address",
        "label": "mapping(address => uint256)",
        "numberOfBytes": "32",
        "value": "t_uint256"
      },
      "t_mapping(t_bytes32,t_struct(RoleData)87_storage)": {
        "encoding": "mapping",
        "key": "t_bytes32",
        "label": "mapping(bytes32 => struct AccessControl.RoleData)",
        "numberOfBytes": "32",
        "value": "t_struct(RoleData)87_storage"
      },
      "t_mapping(t_bytes32,t_uint256)": {
        "encoding": "mapping",
        "key": "t_bytes32",
        "label": "mapping(bytes32 => uint256)",
        "numberOfBytes": "32",
        "value": "t_uint256"
      },
      "t_mapping(t_uint256,t_struct(Vault)3192_storage)": {
        "encoding": "mapping",
        "key": "t_uint256",
        "label": "mapping(uint256 => struct IVaultHandler.Vault)",
        "numberOfBytes": "32",
        "value": "t_struct(Vault)3192_storage"
      },
      "t_struct(AddressSet)2204_storage": {
        "encoding": "inplace",
        "label": "struct EnumerableSet.AddressSet",
        "members": [
          {
            "astId": 2203,
            "contract": "contracts/ETHVaultHandler.sol:ETHVaultHandler",
            "label": "_inner",
            "offset": 0,
            "slot": "0",
            "type": "t_struct(Set)1939_storage"
          }
        ],
        "numberOfBytes": "64"
      },
      "t_struct(Counter)1888_storage": {
        "encoding": "inplace",
        "label": "struct Counters.Counter",
        "members": [
          {
            "astId": 1887,
            "contract": "contracts/ETHVaultHandler.sol:ETHVaultHandler",
            "label": "_value",
            "offset": 0,
            "slot": "0",
            "type": "t_uint256"
          }
        ],
        "numberOfBytes": "32"
      },
      "t_struct(RoleData)87_storage": {
        "encoding": "inplace",
        "label": "struct AccessControl.RoleData",
        "members": [
          {
            "astId": 84,
            "contract": "contracts/ETHVaultHandler.sol:ETHVaultHandler",
            "label": "members",
            "offset": 0,
            "slot": "0",
            "type": "t_struct(AddressSet)2204_storage"
          },
          {
            "astId": 86,
            "contract": "contracts/ETHVaultHandler.sol:ETHVaultHandler",
            "label": "adminRole",
            "offset": 0,
            "slot": "2",
            "type": "t_bytes32"
          }
        ],
        "numberOfBytes": "96"
      },
      "t_struct(Set)1939_storage": {
        "encoding": "inplace",
        "label": "struct EnumerableSet.Set",
        "members": [
          {
            "astId": 1934,
            "contract": "contracts/ETHVaultHandler.sol:ETHVaultHandler",
            "label": "_values",
            "offset": 0,
            "slot": "0",
            "type": "t_array(t_bytes32)dyn_storage"
          },
          {
            "astId": 1938,
            "contract": "contracts/ETHVaultHandler.sol:ETHVaultHandler",
            "label": "_indexes",
            "offset": 0,
            "slot": "1",
            "type": "t_mapping(t_bytes32,t_uint256)"
          }
        ],
        "numberOfBytes": "64"
      },
      "t_struct(Vault)3192_storage": {
        "encoding": "inplace",
        "label": "struct IVaultHandler.Vault",
        "members": [
          {
            "astId": 3185,
            "contract": "contracts/ETHVaultHandler.sol:ETHVaultHandler",
            "label": "Id",
            "offset": 0,
            "slot": "0",
            "type": "t_uint256"
          },
          {
            "astId": 3187,
            "contract": "contracts/ETHVaultHandler.sol:ETHVaultHandler",
            "label": "Collateral",
            "offset": 0,
            "slot": "1",
            "type": "t_uint256"
          },
          {
            "astId": 3189,
            "contract": "contracts/ETHVaultHandler.sol:ETHVaultHandler",
            "label": "Debt",
            "offset": 0,
            "slot": "2",
            "type": "t_uint256"
          },
          {
            "astId": 3191,
            "contract": "contracts/ETHVaultHandler.sol:ETHVaultHandler",
            "label": "Owner",
            "offset": 0,
            "slot": "3",
            "type": "t_address"
          }
        ],
        "numberOfBytes": "128"
      },
      "t_uint256": {
        "encoding": "inplace",
        "label": "uint256",
        "numberOfBytes": "32"
      }
    }
  }
}