{
  "address": "0xc2Ba6B8E0EE3cf48B045D966F1dCda767df74833",
  "abi": [
    {
      "inputs": [
        {
          "internalType": "contract Orchestrator",
          "name": "_orchestrator",
          "type": "address"
        },
        {
          "internalType": "uint256",
          "name": "_divisor",
          "type": "uint256"
        },
        {
          "internalType": "uint256",
          "name": "_ratio",
          "type": "uint256"
        },
        {
          "internalType": "uint256",
          "name": "_burnFee",
          "type": "uint256"
        },
        {
          "internalType": "uint256",
          "name": "_liquidationPenalty",
          "type": "uint256"
        },
        {
          "internalType": "address",
          "name": "_tcapOracle",
          "type": "address"
        },
        {
          "internalType": "contract TCAP",
          "name": "_tcapAddress",
          "type": "address"
        },
        {
          "internalType": "address",
          "name": "_collateralAddress",
          "type": "address"
        },
        {
          "internalType": "address",
          "name": "_collateralOracle",
          "type": "address"
        },
        {
          "internalType": "address",
          "name": "_ethOracle",
          "type": "address"
        },
        {
          "internalType": "address",
          "name": "_treasury",
          "type": "address"
        },
        {
          "internalType": "uint256",
          "name": "_minimumTCAP",
          "type": "uint256"
        }
      ],
      "stateMutability": "nonpayable",
      "type": "constructor"
    },
    {
      "anonymous": false,
      "inputs": [
        {
          "indexed": true,
          "internalType": "address",
          "name": "_owner",
          "type": "address"
        },
        {
          "indexed": true,
          "internalType": "uint256",
          "name": "_id",
          "type": "uint256"
        },
        {
          "indexed": false,
          "internalType": "uint256",
          "name": "_amount",
          "type": "uint256"
        }
      ],
      "name": "CollateralAdded",
      "type": "event"
    },
    {
      "anonymous": false,
      "inputs": [
        {
          "indexed": true,
          "internalType": "address",
          "name": "_owner",
          "type": "address"
        },
        {
          "indexed": true,
          "internalType": "uint256",
          "name": "_id",
          "type": "uint256"
        },
        {
          "indexed": false,
          "internalType": "uint256",
          "name": "_amount",
          "type": "uint256"
        }
      ],
      "name": "CollateralRemoved",
      "type": "event"
    },
    {
      "anonymous": false,
      "inputs": [
        {
          "indexed": true,
          "internalType": "address",
          "name": "_owner",
          "type": "address"
        },
        {
          "indexed": false,
          "internalType": "uint256",
          "name": "_burnFee",
          "type": "uint256"
        }
      ],
      "name": "NewBurnFee",
      "type": "event"
    },
    {
      "anonymous": false,
      "inputs": [
        {
          "indexed": true,
          "internalType": "address",
          "name": "_owner",
          "type": "address"
        },
        {
          "indexed": false,
          "internalType": "uint256",
          "name": "_liquidationPenalty",
          "type": "uint256"
        }
      ],
      "name": "NewLiquidationPenalty",
      "type": "event"
    },
    {
      "anonymous": false,
      "inputs": [
        {
          "indexed": true,
          "internalType": "address",
          "name": "_owner",
          "type": "address"
        },
        {
          "indexed": false,
          "internalType": "uint256",
          "name": "_minimumTCAP",
          "type": "uint256"
        }
      ],
      "name": "NewMinimumTCAP",
      "type": "event"
    },
    {
      "anonymous": false,
      "inputs": [
        {
          "indexed": true,
          "internalType": "address",
          "name": "_owner",
          "type": "address"
        },
        {
          "indexed": false,
          "internalType": "uint256",
          "name": "_ratio",
          "type": "uint256"
        }
      ],
      "name": "NewRatio",
      "type": "event"
    },
    {
      "anonymous": false,
      "inputs": [
        {
          "indexed": true,
          "internalType": "address",
          "name": "_owner",
          "type": "address"
        },
        {
          "indexed": false,
          "internalType": "address",
          "name": "_tresury",
          "type": "address"
        }
      ],
      "name": "NewTreasury",
      "type": "event"
    },
    {
      "anonymous": false,
      "inputs": [
        {
          "indexed": true,
          "internalType": "address",
          "name": "previousOwner",
          "type": "address"
        },
        {
          "indexed": true,
          "internalType": "address",
          "name": "newOwner",
          "type": "address"
        }
      ],
      "name": "OwnershipTransferred",
      "type": "event"
    },
    {
      "anonymous": false,
      "inputs": [
        {
          "indexed": false,
          "internalType": "address",
          "name": "account",
          "type": "address"
        }
      ],
      "name": "Paused",
      "type": "event"
    },
    {
      "anonymous": false,
      "inputs": [
        {
          "indexed": false,
          "internalType": "address",
          "name": "_token",
          "type": "address"
        },
        {
          "indexed": false,
          "internalType": "uint256",
          "name": "_amount",
          "type": "uint256"
        }
      ],
      "name": "Recovered",
      "type": "event"
    },
    {
      "anonymous": false,
      "inputs": [
        {
          "indexed": true,
          "internalType": "bytes32",
          "name": "role",
          "type": "bytes32"
        },
        {
          "indexed": true,
          "internalType": "bytes32",
          "name": "previousAdminRole",
          "type": "bytes32"
        },
        {
          "indexed": true,
          "internalType": "bytes32",
          "name": "newAdminRole",
          "type": "bytes32"
        }
      ],
      "name": "RoleAdminChanged",
      "type": "event"
    },
    {
      "anonymous": false,
      "inputs": [
        {
          "indexed": true,
          "internalType": "bytes32",
          "name": "role",
          "type": "bytes32"
        },
        {
          "indexed": true,
          "internalType": "address",
          "name": "account",
          "type": "address"
        },
        {
          "indexed": true,
          "internalType": "address",
          "name": "sender",
          "type": "address"
        }
      ],
      "name": "RoleGranted",
      "type": "event"
    },
    {
      "anonymous": false,
      "inputs": [
        {
          "indexed": true,
          "internalType": "bytes32",
          "name": "role",
          "type": "bytes32"
        },
        {
          "indexed": true,
          "internalType": "address",
          "name": "account",
          "type": "address"
        },
        {
          "indexed": true,
          "internalType": "address",
          "name": "sender",
          "type": "address"
        }
      ],
      "name": "RoleRevoked",
      "type": "event"
    },
    {
      "anonymous": false,
      "inputs": [
        {
          "indexed": true,
          "internalType": "address",
          "name": "_owner",
          "type": "address"
        },
        {
          "indexed": true,
          "internalType": "uint256",
          "name": "_id",
          "type": "uint256"
        },
        {
          "indexed": false,
          "internalType": "uint256",
          "name": "_amount",
          "type": "uint256"
        }
      ],
      "name": "TokensBurned",
      "type": "event"
    },
    {
      "anonymous": false,
      "inputs": [
        {
          "indexed": true,
          "internalType": "address",
          "name": "_owner",
          "type": "address"
        },
        {
          "indexed": true,
          "internalType": "uint256",
          "name": "_id",
          "type": "uint256"
        },
        {
          "indexed": false,
          "internalType": "uint256",
          "name": "_amount",
          "type": "uint256"
        }
      ],
      "name": "TokensMinted",
      "type": "event"
    },
    {
      "anonymous": false,
      "inputs": [
        {
          "indexed": false,
          "internalType": "address",
          "name": "account",
          "type": "address"
        }
      ],
      "name": "Unpaused",
      "type": "event"
    },
    {
      "anonymous": false,
      "inputs": [
        {
          "indexed": true,
          "internalType": "address",
          "name": "_owner",
          "type": "address"
        },
        {
          "indexed": true,
          "internalType": "uint256",
          "name": "_id",
          "type": "uint256"
        }
      ],
      "name": "VaultCreated",
      "type": "event"
    },
    {
      "anonymous": false,
      "inputs": [
        {
          "indexed": true,
          "internalType": "uint256",
          "name": "_vaultId",
          "type": "uint256"
        },
        {
          "indexed": true,
          "internalType": "address",
          "name": "_liquidator",
          "type": "address"
        },
        {
          "indexed": false,
          "internalType": "uint256",
          "name": "_liquidationCollateral",
          "type": "uint256"
        },
        {
          "indexed": false,
          "internalType": "uint256",
          "name": "_reward",
          "type": "uint256"
        }
      ],
      "name": "VaultLiquidated",
      "type": "event"
    },
    {
      "inputs": [],
      "name": "DEFAULT_ADMIN_ROLE",
      "outputs": [
        {
          "internalType": "bytes32",
          "name": "",
          "type": "bytes32"
        }
      ],
      "stateMutability": "view",
      "type": "function"
    },
    {
      "inputs": [],
      "name": "ETHPriceOracle",
      "outputs": [
        {
          "internalType": "contract ChainlinkOracle",
          "name": "",
          "type": "address"
        }
      ],
      "stateMutability": "view",
      "type": "function"
    },
    {
      "inputs": [],
      "name": "MAX_DECIMAL_PLACES",
      "outputs": [
        {
          "internalType": "uint8",
          "name": "",
          "type": "uint8"
        }
      ],
      "stateMutability": "view",
      "type": "function"
    },
    {
      "inputs": [],
      "name": "MAX_FEE",
      "outputs": [
        {
          "internalType": "uint256",
          "name": "",
          "type": "uint256"
        }
      ],
      "stateMutability": "view",
      "type": "function"
    },
    {
      "inputs": [],
      "name": "MIN_RATIO",
      "outputs": [
        {
          "internalType": "uint256",
          "name": "",
          "type": "uint256"
        }
      ],
      "stateMutability": "view",
      "type": "function"
    },
    {
      "inputs": [],
      "name": "TCAPPrice",
      "outputs": [
        {
          "internalType": "uint256",
          "name": "price",
          "type": "uint256"
        }
      ],
      "stateMutability": "view",
      "type": "function"
    },
    {
      "inputs": [],
      "name": "TCAPToken",
      "outputs": [
        {
          "internalType": "contract TCAP",
          "name": "",
          "type": "address"
        }
      ],
      "stateMutability": "view",
      "type": "function"
    },
    {
      "inputs": [
        {
          "internalType": "uint256",
          "name": "_amount",
          "type": "uint256"
        }
      ],
      "name": "addCollateral",
      "outputs": [],
      "stateMutability": "nonpayable",
      "type": "function"
    },
    {
      "inputs": [],
      "name": "addCollateralETH",
      "outputs": [],
      "stateMutability": "payable",
      "type": "function"
    },
    {
      "inputs": [
        {
          "internalType": "uint256",
          "name": "_amount",
          "type": "uint256"
        }
      ],
      "name": "burn",
      "outputs": [],
      "stateMutability": "payable",
      "type": "function"
    },
    {
      "inputs": [],
      "name": "burnFee",
      "outputs": [
        {
          "internalType": "uint256",
          "name": "",
          "type": "uint256"
        }
      ],
      "stateMutability": "view",
      "type": "function"
    },
    {
      "inputs": [],
      "name": "collateralContract",
      "outputs": [
        {
          "internalType": "contract IERC20",
          "name": "",
          "type": "address"
        }
      ],
      "stateMutability": "view",
      "type": "function"
    },
    {
      "inputs": [],
      "name": "collateralDecimalsAdjustmentFactor",
      "outputs": [
        {
          "internalType": "uint256",
          "name": "",
          "type": "uint256"
        }
      ],
      "stateMutability": "view",
      "type": "function"
    },
    {
      "inputs": [],
      "name": "collateralPriceOracle",
      "outputs": [
        {
          "internalType": "contract ChainlinkOracle",
          "name": "",
          "type": "address"
        }
      ],
      "stateMutability": "view",
      "type": "function"
    },
    {
      "inputs": [],
      "name": "counter",
      "outputs": [
        {
          "internalType": "uint256",
          "name": "_value",
          "type": "uint256"
        }
      ],
      "stateMutability": "view",
      "type": "function"
    },
    {
      "inputs": [],
      "name": "createVault",
      "outputs": [],
      "stateMutability": "nonpayable",
      "type": "function"
    },
    {
      "inputs": [],
      "name": "divisor",
      "outputs": [
        {
          "internalType": "uint256",
          "name": "",
          "type": "uint256"
        }
      ],
      "stateMutability": "view",
      "type": "function"
    },
    {
      "inputs": [
        {
          "internalType": "uint256",
          "name": "_amount",
          "type": "uint256"
        }
      ],
      "name": "getFee",
      "outputs": [
        {
          "internalType": "uint256",
          "name": "fee",
          "type": "uint256"
        }
      ],
      "stateMutability": "view",
      "type": "function"
    },
    {
      "inputs": [
        {
          "internalType": "contract ChainlinkOracle",
          "name": "_oracle",
          "type": "address"
        }
      ],
      "name": "getOraclePrice",
      "outputs": [
        {
          "internalType": "uint256",
          "name": "price",
          "type": "uint256"
        }
      ],
      "stateMutability": "view",
      "type": "function"
    },
    {
      "inputs": [
        {
          "internalType": "bytes32",
          "name": "role",
          "type": "bytes32"
        }
      ],
      "name": "getRoleAdmin",
      "outputs": [
        {
          "internalType": "bytes32",
          "name": "",
          "type": "bytes32"
        }
      ],
      "stateMutability": "view",
      "type": "function"
    },
    {
      "inputs": [
        {
          "internalType": "bytes32",
          "name": "role",
          "type": "bytes32"
        },
        {
          "internalType": "uint256",
          "name": "index",
          "type": "uint256"
        }
      ],
      "name": "getRoleMember",
      "outputs": [
        {
          "internalType": "address",
          "name": "",
          "type": "address"
        }
      ],
      "stateMutability": "view",
      "type": "function"
    },
    {
      "inputs": [
        {
          "internalType": "bytes32",
          "name": "role",
          "type": "bytes32"
        }
      ],
      "name": "getRoleMemberCount",
      "outputs": [
        {
          "internalType": "uint256",
          "name": "",
          "type": "uint256"
        }
      ],
      "stateMutability": "view",
      "type": "function"
    },
    {
      "inputs": [
        {
          "internalType": "uint256",
          "name": "_id",
          "type": "uint256"
        }
      ],
      "name": "getVault",
      "outputs": [
        {
          "internalType": "uint256",
          "name": "",
          "type": "uint256"
        },
        {
          "internalType": "uint256",
          "name": "",
          "type": "uint256"
        },
        {
          "internalType": "address",
          "name": "",
          "type": "address"
        },
        {
          "internalType": "uint256",
          "name": "",
          "type": "uint256"
        }
      ],
      "stateMutability": "view",
      "type": "function"
    },
    {
      "inputs": [
        {
          "internalType": "uint256",
          "name": "_vaultId",
          "type": "uint256"
        }
      ],
      "name": "getVaultRatio",
      "outputs": [
        {
          "internalType": "uint256",
          "name": "currentRatio",
          "type": "uint256"
        }
      ],
      "stateMutability": "view",
      "type": "function"
    },
    {
      "inputs": [
        {
          "internalType": "bytes32",
          "name": "role",
          "type": "bytes32"
        },
        {
          "internalType": "address",
          "name": "account",
          "type": "address"
        }
      ],
      "name": "grantRole",
      "outputs": [],
      "stateMutability": "nonpayable",
      "type": "function"
    },
    {
      "inputs": [
        {
          "internalType": "bytes32",
          "name": "role",
          "type": "bytes32"
        },
        {
          "internalType": "address",
          "name": "account",
          "type": "address"
        }
      ],
      "name": "hasRole",
      "outputs": [
        {
          "internalType": "bool",
          "name": "",
          "type": "bool"
        }
      ],
      "stateMutability": "view",
      "type": "function"
    },
    {
      "inputs": [
        {
          "internalType": "uint256",
          "name": "_vaultId",
          "type": "uint256"
        },
        {
          "internalType": "uint256",
          "name": "_maxTCAP",
          "type": "uint256"
        }
      ],
      "name": "liquidateVault",
      "outputs": [],
      "stateMutability": "payable",
      "type": "function"
    },
    {
      "inputs": [],
      "name": "liquidationPenalty",
      "outputs": [
        {
          "internalType": "uint256",
          "name": "",
          "type": "uint256"
        }
      ],
      "stateMutability": "view",
      "type": "function"
    },
    {
      "inputs": [
        {
          "internalType": "uint256",
          "name": "_vaultId",
          "type": "uint256"
        }
      ],
      "name": "liquidationReward",
      "outputs": [
        {
          "internalType": "uint256",
          "name": "rewardCollateral",
          "type": "uint256"
        }
      ],
      "stateMutability": "view",
      "type": "function"
    },
    {
      "inputs": [],
      "name": "minimumTCAP",
      "outputs": [
        {
          "internalType": "uint256",
          "name": "",
          "type": "uint256"
        }
      ],
      "stateMutability": "view",
      "type": "function"
    },
    {
      "inputs": [
        {
          "internalType": "uint256",
          "name": "_amount",
          "type": "uint256"
        }
      ],
      "name": "mint",
      "outputs": [],
      "stateMutability": "nonpayable",
      "type": "function"
    },
    {
      "inputs": [],
      "name": "oracleDigits",
      "outputs": [
        {
          "internalType": "uint256",
          "name": "",
          "type": "uint256"
        }
      ],
      "stateMutability": "view",
      "type": "function"
    },
    {
      "inputs": [],
      "name": "owner",
      "outputs": [
        {
          "internalType": "address",
          "name": "",
          "type": "address"
        }
      ],
      "stateMutability": "view",
      "type": "function"
    },
    {
      "inputs": [],
      "name": "pause",
      "outputs": [],
      "stateMutability": "nonpayable",
      "type": "function"
    },
    {
      "inputs": [],
      "name": "paused",
      "outputs": [
        {
          "internalType": "bool",
          "name": "",
          "type": "bool"
        }
      ],
      "stateMutability": "view",
      "type": "function"
    },
    {
      "inputs": [],
      "name": "ratio",
      "outputs": [
        {
          "internalType": "uint256",
          "name": "",
          "type": "uint256"
        }
      ],
      "stateMutability": "view",
      "type": "function"
    },
    {
      "inputs": [
        {
          "internalType": "address",
          "name": "_tokenAddress",
          "type": "address"
        },
        {
          "internalType": "uint256",
          "name": "_tokenAmount",
          "type": "uint256"
        }
      ],
      "name": "recoverERC20",
      "outputs": [],
      "stateMutability": "nonpayable",
      "type": "function"
    },
    {
      "inputs": [
        {
          "internalType": "uint256",
          "name": "_amount",
          "type": "uint256"
        }
      ],
      "name": "removeCollateral",
      "outputs": [],
      "stateMutability": "nonpayable",
      "type": "function"
    },
    {
      "inputs": [
        {
          "internalType": "uint256",
          "name": "_amount",
          "type": "uint256"
        }
      ],
      "name": "removeCollateralETH",
      "outputs": [],
      "stateMutability": "nonpayable",
      "type": "function"
    },
    {
      "inputs": [],
      "name": "renounceOwnership",
      "outputs": [],
      "stateMutability": "nonpayable",
      "type": "function"
    },
    {
      "inputs": [
        {
          "internalType": "bytes32",
          "name": "role",
          "type": "bytes32"
        },
        {
          "internalType": "address",
          "name": "account",
          "type": "address"
        }
      ],
      "name": "renounceRole",
      "outputs": [],
      "stateMutability": "nonpayable",
      "type": "function"
    },
    {
      "inputs": [
        {
          "internalType": "uint256",
          "name": "_amount",
          "type": "uint256"
        }
      ],
      "name": "requiredCollateral",
      "outputs": [
        {
          "internalType": "uint256",
          "name": "collateral",
          "type": "uint256"
        }
      ],
      "stateMutability": "view",
      "type": "function"
    },
    {
      "inputs": [
        {
          "internalType": "uint256",
          "name": "_vaultId",
          "type": "uint256"
        }
      ],
      "name": "requiredLiquidationTCAP",
      "outputs": [
        {
          "internalType": "uint256",
          "name": "amount",
          "type": "uint256"
        }
      ],
      "stateMutability": "view",
      "type": "function"
    },
    {
      "inputs": [
        {
          "internalType": "bytes32",
          "name": "role",
          "type": "bytes32"
        },
        {
          "internalType": "address",
          "name": "account",
          "type": "address"
        }
      ],
      "name": "revokeRole",
      "outputs": [],
      "stateMutability": "nonpayable",
      "type": "function"
    },
    {
      "inputs": [
        {
          "internalType": "uint256",
          "name": "_burnFee",
          "type": "uint256"
        }
      ],
      "name": "setBurnFee",
      "outputs": [],
      "stateMutability": "nonpayable",
      "type": "function"
    },
    {
      "inputs": [
        {
          "internalType": "uint256",
          "name": "_liquidationPenalty",
          "type": "uint256"
        }
      ],
      "name": "setLiquidationPenalty",
      "outputs": [],
      "stateMutability": "nonpayable",
      "type": "function"
    },
    {
      "inputs": [
        {
          "internalType": "uint256",
          "name": "_minimumTCAP",
          "type": "uint256"
        }
      ],
      "name": "setMinimumTCAP",
      "outputs": [],
      "stateMutability": "nonpayable",
      "type": "function"
    },
    {
      "inputs": [
        {
          "internalType": "uint256",
          "name": "_ratio",
          "type": "uint256"
        }
      ],
      "name": "setRatio",
      "outputs": [],
      "stateMutability": "nonpayable",
      "type": "function"
    },
    {
      "inputs": [
        {
          "internalType": "address",
          "name": "_treasury",
          "type": "address"
        }
      ],
      "name": "setTreasury",
      "outputs": [],
      "stateMutability": "nonpayable",
      "type": "function"
    },
    {
      "inputs": [
        {
          "internalType": "bytes4",
          "name": "_interfaceId",
          "type": "bytes4"
        }
      ],
      "name": "supportsInterface",
      "outputs": [
        {
          "internalType": "bool",
          "name": "",
          "type": "bool"
        }
      ],
      "stateMutability": "pure",
      "type": "function"
    },
    {
      "inputs": [],
      "name": "tcapOracle",
      "outputs": [
        {
          "internalType": "contract ChainlinkOracle",
          "name": "",
          "type": "address"
        }
      ],
      "stateMutability": "view",
      "type": "function"
    },
    {
      "inputs": [
        {
          "internalType": "address",
          "name": "newOwner",
          "type": "address"
        }
      ],
      "name": "transferOwnership",
      "outputs": [],
      "stateMutability": "nonpayable",
      "type": "function"
    },
    {
      "inputs": [],
      "name": "treasury",
      "outputs": [
        {
          "internalType": "address",
          "name": "",
          "type": "address"
        }
      ],
      "stateMutability": "view",
      "type": "function"
    },
    {
      "inputs": [],
      "name": "unpause",
      "outputs": [],
      "stateMutability": "nonpayable",
      "type": "function"
    },
    {
      "inputs": [
        {
          "internalType": "address",
          "name": "",
          "type": "address"
        }
      ],
      "name": "userToVault",
      "outputs": [
        {
          "internalType": "uint256",
          "name": "",
          "type": "uint256"
        }
      ],
      "stateMutability": "view",
      "type": "function"
    },
    {
      "inputs": [
        {
          "internalType": "uint256",
          "name": "",
          "type": "uint256"
        }
      ],
      "name": "vaults",
      "outputs": [
        {
          "internalType": "uint256",
          "name": "Id",
          "type": "uint256"
        },
        {
          "internalType": "uint256",
          "name": "Collateral",
          "type": "uint256"
        },
        {
          "internalType": "uint256",
          "name": "Debt",
          "type": "uint256"
        },
        {
          "internalType": "address",
          "name": "Owner",
          "type": "address"
        }
      ],
      "stateMutability": "view",
      "type": "function"
    },
    {
      "stateMutability": "payable",
      "type": "receive"
    }
  ],
  "transactionHash": "0x346034edc27d25b71540aa8c149a910ec52508db78d02e7cedfc2b1b97fd4e6a",
  "args": [
    "0x373c74bce7893097ab26d22f05691907d4f2c18e",
    "10000000000",
    "110",
    "50",
    "5",
    "0xa4e581BD159B869e8290707A7FBF841fe7FE97b6",
    "0x16c52ceece2ed57dad87319d91b5e3637d50afa4",
    "0xc02aaa39b223fe8d0a0e5c4f27ead9083c756cc2",
    "0x2cFeaf282FE9ae050b210e7BDa65D288C40c6104",
    "0x2cFeaf282FE9ae050b210e7BDa65D288C40c6104",
    "0xa54074b2cc0e96a43048d4a68472F7F046aC0DA8",
    "20000000000000000000"
  ],
  "solcInputHash": "3efeca14dc738eda541e04604926c891",
  "bytecode": "0x61014060405260006009553480156200001757600080fd5b5060405162004b2538038062004b2583398181016040526101808110156200003e57600080fd5b508051602082015160408301516060840151608085015160a086015160c087015160e08801516101008901516101208a01516101408b0151610160909b0151999a9899979896979596949593949293919290918b8b8b8b8b8b8b8b8b8b8b8b6000620000a96200034d565b600080546001600160a01b0319166001600160a01b03831690811782556040519293509160008051602062004b05833981519152908290a35060016002556003805460ff19169055896200010b89606462000351602090811b6200305f17901c565b10620001495760405162461bcd60e51b815260040180806020018281038252603781526020018062004a646037913960400191505060405180910390fd5b60648a10156200018b5760405162461bcd60e51b815260040180806020018281038252603581526020018062004a096035913960400191505060405180910390fd5b6103e8891115620001ce5760405162461bcd60e51b815260040180806020018281038252603781526020018062004a9b6037913960400191505060405180910390fd5b60058b905560068a9055600789905560088890556001600160601b0319606088811b821660c05286811b821660e05285811b82166101005284811b82166101205287901b1660a052600a80546001600160a01b038481166001600160a01b03199092169190911790915560098290556040805163313ce56760e01b8152905160009288169163313ce567916004808301926020929190829003018186803b1580156200027957600080fd5b505afa1580156200028e573d6000803e3d6000fd5b505050506040513d6020811015620002a557600080fd5b50519050601260ff82161115620002ee5760405162461bcd60e51b815260040180806020018281038252603381526020018062004ad26033913960400191505060405180910390fd5b8060120360ff16600a0a60808181525050620003166004620003b560201b620030b91760201c565b62000323600033620003be565b6200032e8d620003ce565b50505050505050505050505050505050505050505050505050620005bf565b3390565b600082820183811015620003ac576040805162461bcd60e51b815260206004820152601b60248201527f536166654d6174683a206164646974696f6e206f766572666c6f770000000000604482015290519081900360640190fd5b90505b92915050565b80546001019055565b620003ca8282620004cc565b5050565b620003d86200034d565b6000546001600160a01b039081169116146200043b576040805162461bcd60e51b815260206004820181905260248201527f4f776e61626c653a2063616c6c6572206973206e6f7420746865206f776e6572604482015290519081900360640190fd5b6001600160a01b038116620004825760405162461bcd60e51b815260040180806020018281038252602681526020018062004a3e6026913960400191505060405180910390fd5b600080546040516001600160a01b038085169392169160008051602062004b0583398151915291a3600080546001600160a01b0319166001600160a01b0392909216919091179055565b6000828152600160209081526040909120620004f3918390620030c262000547821b17901c565b15620003ca57620005036200034d565b6001600160a01b0316816001600160a01b0316837f2f8788117e7eff1d82e926ec794901d17c78024a50270940304540a733656f0d60405160405180910390a45050565b6000620003ac836001600160a01b0384166000620005668383620005a7565b6200059e57508154600181810184556000848152602080822090930184905584548482528286019093526040902091909155620003af565b506000620003af565b60009081526001919091016020526040902054151590565b60805160a05160601c60c05160601c60e05160601c6101005160601c6101205160601c6143926200067760003980612231528061301d525080610e805280611b595280611d7f52806125865280612d4a52508061037f5280610d2552806112d75280611c355280612111528061287552806129985280612bc5525080610f2c52806116d5525080611a0f52806124c952806133ca525080610ed15280611dc6528061225552806125b15280612d7f52506143926000f3fe60806040526004361061036f5760003560e01c8063842e357c116101c6578063abb7bc4a116100f7578063d318a7df11610095578063f0f442601161006f578063f0f4426014610b29578063f2fde38b14610b5c578063fce589d814610b8f578063fcee45f414610ba4576103a8565b8063d318a7df14610a9c578063d547741f14610ac6578063de9952c914610aff576103a8565b8063bc721a96116100d1578063bc721a9614610a00578063bcc46e8314610a33578063c6e1c7c914610a5d578063ca15c87314610a72576103a8565b8063abb7bc4a14610997578063b2237ba3146109c1578063bc063e1a146109eb576103a8565b806391d148541161016457806397994e301161013e57806397994e301461092e5780639d9b581814610943578063a0712d6814610958578063a217fddf14610982576103a8565b806391d148541461087a5780639403b634146108b3578063952cc86a1461090b576103a8565b80638c01f211116101a05780638c01f211146107b25780638c64ea4a146107dc5780638da5cb5b146108355780639010d07c1461084a576103a8565b8063842e357c1461074f5780638456cb59146107645780638980f11f14610779576103a8565b8063422b9181116102a057806361bc221a1161023e5780636ca2143c116102185780636ca2143c146106dd578063715018a6146106f257806371ca337d1461070757806375f620ac1461071c576103a8565b806361bc221a1461069e57806361d027b3146106b35780636ae7adc1146106c8576103a8565b80634bf2c7c91161027a5780634bf2c7c914610620578063574b786d1461064a5780635c975abb146106745780635d12928b14610689576103a8565b8063422b9181146105d957806342966c68146105ee57806346dc90071461060b576103a8565b8063248a9ca31161030d5780632f2ff15d116102e75780632f2ff15d146105285780633237c1581461056157806336568abe1461058b5780633f4ba83a146105c4576103a8565b8063248a9ca3146104a95780632806a743146104d35780632c5a8142146104fd576103a8565b806311d850e81161034957806311d850e8146104245780631cc244ba1461044e5780631f2dc5ef1461047f57806323f5589a14610494576103a8565b806301ffc9a7146103ad5780630d23cc79146103f55780630f0aeb8d146103fd576103a8565b366103a857336001600160a01b037f000000000000000000000000000000000000000000000000000000000000000016146103a657fe5b005b600080fd5b3480156103b957600080fd5b506103e1600480360360208110156103d057600080fd5b50356001600160e01b031916610bce565b604080519115158252519081900360200190f35b6103a6610c05565b34801561040957600080fd5b50610412610e0a565b60408051918252519081900360200190f35b34801561043057600080fd5b506104126004803603602081101561044757600080fd5b5035610e0f565b34801561045a57600080fd5b50610463610f2a565b604080516001600160a01b039092168252519081900360200190f35b34801561048b57600080fd5b50610412610f4e565b3480156104a057600080fd5b50610412610f54565b3480156104b557600080fd5b50610412600480360360208110156104cc57600080fd5b5035610f5a565b3480156104df57600080fd5b506103a6600480360360208110156104f657600080fd5b5035610f6f565b34801561050957600080fd5b5061051261104f565b6040805160ff9092168252519081900360200190f35b34801561053457600080fd5b506103a66004803603604081101561054b57600080fd5b50803590602001356001600160a01b0316611054565b34801561056d57600080fd5b506103a66004803603602081101561058457600080fd5b50356110c0565b34801561059757600080fd5b506103a6600480360360408110156105ae57600080fd5b50803590602001356001600160a01b03166113c9565b3480156105d057600080fd5b506103a661142a565b3480156105e557600080fd5b5061041261148c565b6103a66004803603602081101561060457600080fd5b5035611492565b34801561061757600080fd5b506104126116cd565b34801561062c57600080fd5b506103a66004803603602081101561064357600080fd5b5035611716565b34801561065657600080fd5b506103a66004803603602081101561066d57600080fd5b50356117ed565b34801561068057600080fd5b506103e1611883565b34801561069557600080fd5b506103a661188c565b3480156106aa57600080fd5b506104126119ef565b3480156106bf57600080fd5b506104636119f5565b3480156106d457600080fd5b50610412611a04565b3480156106e957600080fd5b50610463611a0d565b3480156106fe57600080fd5b506103a6611a31565b34801561071357600080fd5b50610412611ad3565b34801561072857600080fd5b506104126004803603602081101561073f57600080fd5b50356001600160a01b0316611ad9565b34801561075b57600080fd5b50610463611b57565b34801561077057600080fd5b506103a6611b7b565b34801561078557600080fd5b506103a66004803603604081101561079c57600080fd5b506001600160a01b038135169060200135611bdb565b3480156107be57600080fd5b50610412600480360360208110156107d557600080fd5b5035611d08565b3480156107e857600080fd5b50610806600480360360208110156107ff57600080fd5b5035611e0e565b604080519485526020850193909352838301919091526001600160a01b03166060830152519081900360800190f35b34801561084157600080fd5b50610463611e3e565b34801561085657600080fd5b506104636004803603604081101561086d57600080fd5b5080359060200135611e4d565b34801561088657600080fd5b506103e16004803603604081101561089d57600080fd5b50803590602001356001600160a01b0316611e6c565b3480156108bf57600080fd5b506108dd600480360360208110156108d657600080fd5b5035611e84565b6040805194855260208501939093526001600160a01b03909116838301526060830152519081900360800190f35b6103a66004803603604081101561092157600080fd5b5080359060200135611eeb565b34801561093a57600080fd5b5061046361222f565b34801561094f57600080fd5b50610412612253565b34801561096457600080fd5b506103a66004803603602081101561097b57600080fd5b5035612277565b34801561098e57600080fd5b5061041261256d565b3480156109a357600080fd5b50610412600480360360208110156109ba57600080fd5b5035612572565b3480156109cd57600080fd5b506103a6600480360360208110156109e457600080fd5b50356125f2565b3480156109f757600080fd5b50610412612714565b348015610a0c57600080fd5b5061041260048036036020811015610a2357600080fd5b50356001600160a01b031661271a565b348015610a3f57600080fd5b506103a660048036036020811015610a5657600080fd5b503561272c565b348015610a6957600080fd5b50610463612996565b348015610a7e57600080fd5b5061041260048036036020811015610a9557600080fd5b50356129ba565b348015610aa857600080fd5b506103a660048036036020811015610abf57600080fd5b50356129d1565b348015610ad257600080fd5b506103a660048036036040811015610ae957600080fd5b50803590602001356001600160a01b0316612c8d565b348015610b0b57600080fd5b5061041260048036036020811015610b2257600080fd5b5035612ce6565b348015610b3557600080fd5b506103a660048036036020811015610b4c57600080fd5b50356001600160a01b0316612e23565b348015610b6857600080fd5b506103a660048036036020811015610b7f57600080fd5b50356001600160a01b0316612f17565b348015610b9b57600080fd5b5061041261300f565b348015610bb057600080fd5b5061041260048036036020811015610bc757600080fd5b5035613015565b60006001600160e01b0319821663279d6ac360e21b1480610bff57506001600160e01b031982166301ffc9a760e01b145b92915050565b600280541415610c4a576040805162461bcd60e51b815260206004820152601f6024820152600080516020613c9f833981519152604482015290519081900360640190fd5b60028055336000908152600b6020526040902054610c995760405162461bcd60e51b815260040180806020018281038252602b815260200180613ce4602b913960400191505060405180910390fd5b60035460ff1615610ce4576040805162461bcd60e51b815260206004820152601060248201526f14185d5cd8589b194e881c185d5cd95960821b604482015290519081900360640190fd5b60003411610d235760405162461bcd60e51b815260040180806020018281038252603381526020018061414a6033913960400191505060405180910390fd5b7f00000000000000000000000000000000000000000000000000000000000000006001600160a01b031663d0e30db0346040518263ffffffff1660e01b81526004016000604051808303818588803b158015610d7e57600080fd5b505af1158015610d92573d6000803e3d6000fd5b5050336000908152600b60209081526040808320548352600c90915290206001810154909350610dc5925090503461305f565b6001820155805460408051348152905133917f11f8990ac38271f23dea447d5728e9914fca7cea2edda43af6c43c415f8bc30b919081900360200190a3506001600255565b606481565b6000610e19613bb1565b506000828152600c60209081526040808320815160808101835281548152600182015493810193909352600281015491830191909152600301546001600160a01b0316606082015290610e6b84612ce6565b90506000610e776116cd565b90506000610ea47f0000000000000000000000000000000000000000000000000000000000000000611ad9565b90506000610ec8610ec1606460085461305f90919063ffffffff16565b85906130d7565b90506000610f0e7f0000000000000000000000000000000000000000000000000000000000000000610f08610efe8660646130d7565b610f0886896130d7565b90613130565b9050610f1e866020015182613172565b98975050505050505050565b7f000000000000000000000000000000000000000000000000000000000000000081565b60055481565b60085481565b60009081526001602052604090206002015490565b610f77613188565b6000546001600160a01b03908116911614610fc7576040805162461bcd60e51b8152602060048201819052602482015260008051602061417d833981519152604482015290519081900360640190fd5b600654610fd582606461305f565b106110115760405162461bcd60e51b815260040180806020018281038252604181526020018061403c6041913960600191505060405180910390fd5b600881905560408051828152905133917f76fea7ef18b6b073facb4f15d873d45dc60e1ac9448931a44b388f40c49e3267919081900360200190a250565b601281565b60008281526001602052604090206002015461107790611072613188565b611e6c565b6110b25760405162461bcd60e51b815260040180806020018281038252602f815260200180613c70602f913960400191505060405180910390fd5b6110bc828261318c565b5050565b600280541415611105576040805162461bcd60e51b815260206004820152601f6024820152600080516020613c9f833981519152604482015290519081900360640190fd5b60028055336000908152600b60205260409020546111545760405162461bcd60e51b815260040180806020018281038252602b815260200180613ce4602b913960400191505060405180910390fd5b60035460ff161561119f576040805162461bcd60e51b815260206004820152601060248201526f14185d5cd8589b194e881c185d5cd95960821b604482015290519081900360640190fd5b80806111dc5760405162461bcd60e51b81526004018080602001828103825260278152602001806142476027913960400191505060405180910390fd5b336000908152600b60209081526040808320548352600c9091528120805490919061120690611d08565b9050838260010154101561124b5760405162461bcd60e51b8152600401808060200182810382526046815260200180613ff66046913960600191505060405180910390fd5b600182015461125a90856131f5565b600183015580156112b057600654825461127390611d08565b10156112b05760405162461bcd60e51b81526004018080602001828103825260438152602001806140b36043913960600191505060405180910390fd5b6040805163a9059cbb60e01b81523360048201526024810186905290516001600160a01b037f0000000000000000000000000000000000000000000000000000000000000000169163a9059cbb9160448083019260209291908290030181600087803b15801561131f57600080fd5b505af1158015611333573d6000803e3d6000fd5b505050506040513d602081101561134957600080fd5b50516113865760405162461bcd60e51b815260040180806020018281038252603e8152602001806141d4603e913960400191505060405180910390fd5b815460408051868152905133917f47e1336b6fdb5f42c3a1d28b558fa98786d820c3705d726358dcc8e63a401eef919081900360200190a3505060016002555050565b6113d1613188565b6001600160a01b0316816001600160a01b0316146114205760405162461bcd60e51b815260040180806020018281038252602f81526020018061432e602f913960400191505060405180910390fd5b6110bc8282613237565b611432613188565b6000546001600160a01b03908116911614611482576040805162461bcd60e51b8152602060048201819052602482015260008051602061417d833981519152604482015290519081900360640190fd5b61148a6132a0565b565b60095481565b6002805414156114d7576040805162461bcd60e51b815260206004820152601f6024820152600080516020613c9f833981519152604482015290519081900360640190fd5b60028055336000908152600b60205260409020546115265760405162461bcd60e51b815260040180806020018281038252602b815260200180613ce4602b913960400191505060405180910390fd5b60035460ff1615611571576040805162461bcd60e51b815260206004820152601060248201526f14185d5cd8589b194e881c185d5cd95960821b604482015290519081900360640190fd5b80806115ae5760405162461bcd60e51b81526004018080602001828103825260278152602001806142476027913960400191505060405180910390fd5b60006115b983613015565b9050803410156115fa5760405162461bcd60e51b815260040180806020018281038252602f8152602001806142c6602f913960400191505060405180910390fd5b611602613bb1565b50336000908152600b60209081526040808320548352600c82529182902082516080810184528154808252600183015493820193909352600282015493810193909352600301546001600160a01b03166060830152611661908561333e565b600a54611677906001600160a01b03168361342e565b61168a3361168534856131f5565b61342e565b805160408051868152905133917fccbea4088a3b7ae9ca2d15fab9a9742a4075b4d7247768a1eecea917565aba00919081900360200190a3505060016002555050565b6000806116f97f0000000000000000000000000000000000000000000000000000000000000000611ad9565b90506117106005548261313090919063ffffffff16565b91505090565b61171e613188565b6000546001600160a01b0390811691161461176e576040805162461bcd60e51b8152602060048201819052602482015260008051602061417d833981519152604482015290519081900360640190fd5b6103e88111156117af5760405162461bcd60e51b8152600401808060200182810382526036815260200180613fc06036913960400191505060405180910390fd5b600781905560408051828152905133917f2b29c7e5fe28010036a94929b56a0eb76bf5e90700e842a971eaa6e4abc45f04919081900360200190a250565b6117f5613188565b6000546001600160a01b03908116911614611845576040805162461bcd60e51b8152602060048201819052602482015260008051602061417d833981519152604482015290519081900360640190fd5b600981905560408051828152905133917fb276aeff8481b22fb866569892ac1e4127fe82fefd28354c38957d5dc76bd86c919081900360200190a250565b60035460ff1690565b60035460ff16156118d7576040805162461bcd60e51b815260206004820152601060248201526f14185d5cd8589b194e881c185d5cd95960821b604482015290519081900360640190fd5b336000908152600b6020526040902054156119235760405162461bcd60e51b8152600401808060200182810382526030815260200180613be36030913960400191505060405180910390fd5b600061192f6004613526565b336000908152600b60205260409020819055905061194b613bb1565b5060408051608081018252828152600060208083018281528385018381523360608601908152878552600c909352949092208351815591516001830155925160028201559151600390920180546001600160a01b0319166001600160a01b03909316929092179091556119be60046130b9565b604051829033907fa510df27d6e51efd91d3f55722bad1f26bf924a63e5dcee07c2ab4c3d4992dcc90600090a35050565b60045481565b600a546001600160a01b031681565b6402540be40081565b7f000000000000000000000000000000000000000000000000000000000000000081565b611a39613188565b6000546001600160a01b03908116911614611a89576040805162461bcd60e51b8152602060048201819052602482015260008051602061417d833981519152604482015290519081900360640190fd5b600080546040516001600160a01b03909116907f8be0079c531659141344cd1fd0a4f28419497f9722a3daafe3b4186f6b6457e0908390a3600080546001600160a01b0319169055565b60065481565b6000610bff6402540be400611b51846001600160a01b03166396237c026040518163ffffffff1660e01b815260040160206040518083038186803b158015611b2057600080fd5b505afa158015611b34573d6000803e3d6000fd5b505050506040513d6020811015611b4a57600080fd5b505161352a565b906130d7565b7f000000000000000000000000000000000000000000000000000000000000000081565b611b83613188565b6000546001600160a01b03908116911614611bd3576040805162461bcd60e51b8152602060048201819052602482015260008051602061417d833981519152604482015290519081900360640190fd5b61148a613585565b611be3613188565b6000546001600160a01b03908116911614611c33576040805162461bcd60e51b8152602060048201819052602482015260008051602061417d833981519152604482015290519081900360640190fd5b7f00000000000000000000000000000000000000000000000000000000000000006001600160a01b0316826001600160a01b03161415611ca45760405162461bcd60e51b8152600401808060200182810382526025815260200180613cbf6025913960400191505060405180910390fd5b611cc0611caf611e3e565b6001600160a01b0384169083613606565b604080516001600160a01b03841681526020810183905281517f8c1256b8896378cd5044f80c202f9772b9d77dc85c8a6eb51967210b09bfaa28929181900390910190a15050565b6000611d12613bb1565b506000828152600c602090815260409182902082516080810184528154808252600183015493820193909352600282015493810193909352600301546001600160a01b031660608301521580611d6a57506040810151155b15611d785760009150611e08565b6000611da37f0000000000000000000000000000000000000000000000000000000000000000611ad9565b9050611e04611dbe611db36116cd565b6040850151906130d7565b610f08611dfd7f0000000000000000000000000000000000000000000000000000000000000000611b51606488602001516130d790919063ffffffff16565b84906130d7565b9250505b50919050565b600c602052600090815260409020805460018201546002830154600390930154919290916001600160a01b031684565b6000546001600160a01b031690565b6000828152600160205260408120611e659083613658565b9392505050565b6000828152600160205260408120611e659083613664565b600080600080611e92613bb1565b50505060009283525050600c602090815260409182902082516080810184528154808252600183015493820184905260028301549482018590526003909201546001600160a01b03166060909101819052909391929091565b600280541415611f30576040805162461bcd60e51b815260206004820152601f6024820152600080516020613c9f833981519152604482015290519081900360640190fd5b6002805560035460ff1615611f7f576040805162461bcd60e51b815260206004820152601060248201526f14185d5cd8589b194e881c185d5cd95960821b604482015290519081900360640190fd5b6000828152600c602052604090208054611fca5760405162461bcd60e51b815260040180806020018281038252602e815260200180614298602e913960400191505060405180910390fd5b6000611fd98260000154611d08565b9050600654811061201b5760405162461bcd60e51b81526004018080602001828103825260358152602001806142126035913960400191505060405180910390fd5b600061202a8360000154612ce6565b90508084101561206b5760405162461bcd60e51b8152600401808060200182810382526048815260200180613e546048913960600191505060405180910390fd5b600061207682613015565b9050803410156120b75760405162461bcd60e51b81526004018080602001828103825260398152602001806142f56039913960400191505060405180910390fd5b60006120c68560000154610e0f565b90506120d685600001548461333e565b60018501546120e590826131f5565b60018601556040805163a9059cbb60e01b81523360048201526024810183905290516001600160a01b037f0000000000000000000000000000000000000000000000000000000000000000169163a9059cbb9160448083019260209291908290030181600087803b15801561215957600080fd5b505af115801561216d573d6000803e3d6000fd5b505050506040513d602081101561218357600080fd5b50516121c05760405162461bcd60e51b815260040180806020018281038252603c815260200180613e9c603c913960400191505060405180910390fd5b600a546121d6906001600160a01b03168361342e565b6121e43361168534856131f5565b8454604080518581526020810184905281513393927fba5789da846390370bbfbf693007be2c95d0cfac69a8d175805f742dc7938321928290030190a3505060016002555050505050565b7f000000000000000000000000000000000000000000000000000000000000000081565b7f000000000000000000000000000000000000000000000000000000000000000081565b6002805414156122bc576040805162461bcd60e51b815260206004820152601f6024820152600080516020613c9f833981519152604482015290519081900360640190fd5b60028055336000908152600b602052604090205461230b5760405162461bcd60e51b815260040180806020018281038252602b815260200180613ce4602b913960400191505060405180910390fd5b60035460ff1615612356576040805162461bcd60e51b815260206004820152601060248201526f14185d5cd8589b194e881c185d5cd95960821b604482015290519081900360640190fd5b80806123935760405162461bcd60e51b81526004018080602001828103825260278152602001806142476027913960400191505060405180910390fd5b336000908152600b60209081526040808320548352600c9091528120906123b984612572565b905080826001015410156123fe5760405162461bcd60e51b8152600401808060200182810382526029815260200180613d646029913960400191505060405180910390fd5b600282015461240d908561305f565b6002830155600654825461242090611d08565b101561245d5760405162461bcd60e51b815260040180806020018281038252603781526020018061419d6037913960400191505060405180910390fd5b600954826002015410156124a25760405162461bcd60e51b8152600401808060200182810382526032815260200180613e226032913960400191505060405180910390fd5b604080516340c10f1960e01b81523360048201526024810186905290516001600160a01b037f000000000000000000000000000000000000000000000000000000000000000016916340c10f1991604480830192600092919082900301818387803b15801561251057600080fd5b505af1158015612524573d6000803e3d6000fd5b505083546040805188815290519193503392507f2e8ac5177a616f2aec08c3048f5021e4e9743ece034e8d83ba5caf76688bb475919081900360200190a3505060016002555050565b600081565b60008061257d6116cd565b905060006125aa7f0000000000000000000000000000000000000000000000000000000000000000611ad9565b9050611e047f0000000000000000000000000000000000000000000000000000000000000000610f0883610f086064610f08600654611b518c8b6130d790919063ffffffff16565b6125fa613188565b6000546001600160a01b0390811691161461264a576040805162461bcd60e51b8152602060048201819052602482015260008051602061417d833981519152604482015290519081900360640190fd5b606481101561268a5760405162461bcd60e51b8152600401808060200182810382526032815260200180613f8e6032913960400191505060405180910390fd5b600854819061269a90606461305f565b106126d65760405162461bcd60e51b8152600401808060200182810382526034815260200180613efe6034913960400191505060405180910390fd5b600681905560408051828152905133917f6126d9241e4aeb647b01ddffba35de720a5b4ad692f117a43b5b281e49126fc4919081900360200190a250565b6103e881565b600b6020526000908152604090205481565b600280541415612771576040805162461bcd60e51b815260206004820152601f6024820152600080516020613c9f833981519152604482015290519081900360640190fd5b60028055336000908152600b60205260409020546127c05760405162461bcd60e51b815260040180806020018281038252602b815260200180613ce4602b913960400191505060405180910390fd5b60035460ff161561280b576040805162461bcd60e51b815260206004820152601060248201526f14185d5cd8589b194e881c185d5cd95960821b604482015290519081900360640190fd5b80806128485760405162461bcd60e51b81526004018080602001828103825260278152602001806142476027913960400191505060405180910390fd5b604080516323b872dd60e01b81523360048201523060248201526044810184905290516001600160a01b037f000000000000000000000000000000000000000000000000000000000000000016916323b872dd9160648083019260209291908290030181600087803b1580156128bd57600080fd5b505af11580156128d1573d6000803e3d6000fd5b505050506040513d60208110156128e757600080fd5b50516129245760405162461bcd60e51b815260040180806020018281038252603b815260200180613c35603b913960400191505060405180910390fd5b336000908152600b60209081526040808320548352600c9091529020600181015461294f908461305f565b6001820155805460408051858152905133917f11f8990ac38271f23dea447d5728e9914fca7cea2edda43af6c43c415f8bc30b919081900360200190a35050600160025550565b7f000000000000000000000000000000000000000000000000000000000000000081565b6000818152600160205260408120610bff90613679565b600280541415612a16576040805162461bcd60e51b815260206004820152601f6024820152600080516020613c9f833981519152604482015290519081900360640190fd5b60028055336000908152600b6020526040902054612a655760405162461bcd60e51b815260040180806020018281038252602b815260200180613ce4602b913960400191505060405180910390fd5b60035460ff1615612ab0576040805162461bcd60e51b815260206004820152601060248201526f14185d5cd8589b194e881c185d5cd95960821b604482015290519081900360640190fd5b60008111612aef5760405162461bcd60e51b815260040180806020018281038252603681526020018061407d6036913960400191505060405180910390fd5b336000908152600b60209081526040808320548352600c90915281208054909190612b1990611d08565b90508282600101541015612b5e5760405162461bcd60e51b815260040180806020018281038252604c815260200180613d8d604c913960600191505060405180910390fd5b6001820154612b6d90846131f5565b60018301558015612bc3576006548254612b8690611d08565b1015612bc35760405162461bcd60e51b8152600401808060200182810382526049815260200180613dd96049913960600191505060405180910390fd5b7f00000000000000000000000000000000000000000000000000000000000000006001600160a01b0316632e1a7d4d846040518263ffffffff1660e01b815260040180828152602001915050600060405180830381600087803b158015612c2957600080fd5b505af1158015612c3d573d6000803e3d6000fd5b50505050612c4b338461342e565b815460408051858152905133917f47e1336b6fdb5f42c3a1d28b558fa98786d820c3705d726358dcc8e63a401eef919081900360200190a35050600160025550565b600082815260016020526040902060020154612cab90611072613188565b6114205760405162461bcd60e51b8152600401808060200182810382526030815260200180613f326030913960400191505060405180910390fd5b6000612cf0613bb1565b506000828152600c60209081526040808320815160808101835281548152600182015493810193909352600281015491830191909152600301546001600160a01b0316606082015290612d416116cd565b90506000612d6e7f0000000000000000000000000000000000000000000000000000000000000000611ad9565b90506000612db183610f0884611b517f000000000000000000000000000000000000000000000000000000000000000089602001516130d790919063ffffffff16565b90506000612de26064611b5184612ddc6064610f086006548c604001516130d790919063ffffffff16565b906131f5565b90506000612e08612dff606460085461305f90919063ffffffff16565b600654906131f5565b6040870151909150610f1e90612e1e8484613130565b613172565b612e2b613188565b6000546001600160a01b03908116911614612e7b576040805162461bcd60e51b8152602060048201819052602482015260008051602061417d833981519152604482015290519081900360640190fd5b6001600160a01b038116612ec05760405162461bcd60e51b815260040180806020018281038252602f815260200180613d35602f913960400191505060405180910390fd5b600a80546001600160a01b0383166001600160a01b03199091168117909155604080519182525133917f567657fa3f286518b318f4a29870674f433f622fdfc819691acb13105b228225919081900360200190a250565b612f1f613188565b6000546001600160a01b03908116911614612f6f576040805162461bcd60e51b8152602060048201819052602482015260008051602061417d833981519152604482015290519081900360640190fd5b6001600160a01b038116612fb45760405162461bcd60e51b8152600401808060200182810382526026815260200180613d0f6026913960400191505060405180910390fd5b600080546040516001600160a01b03808516939216917f8be0079c531659141344cd1fd0a4f28419497f9722a3daafe3b4186f6b6457e091a3600080546001600160a01b0319166001600160a01b0392909216919091179055565b60075481565b6000806130417f0000000000000000000000000000000000000000000000000000000000000000611ad9565b9050611e6581610f08612710610f08600754611b5189611b516116cd565b600082820183811015611e65576040805162461bcd60e51b815260206004820152601b60248201527f536166654d6174683a206164646974696f6e206f766572666c6f770000000000604482015290519081900360640190fd5b80546001019055565b6000611e65836001600160a01b038416613684565b6000826130e657506000610bff565b828202828482816130f357fe5b0414611e655760405162461bcd60e51b81526004018080602001828103825260218152602001806141296021913960400191505060405180910390fd5b6000611e6583836040518060400160405280601a81526020017f536166654d6174683a206469766973696f6e206279207a65726f0000000000008152506136ce565b60008183106131815781611e65565b5090919050565b3390565b60008281526001602052604090206131a490826130c2565b156110bc576131b1613188565b6001600160a01b0316816001600160a01b0316837f2f8788117e7eff1d82e926ec794901d17c78024a50270940304540a733656f0d60405160405180910390a45050565b6000611e6583836040518060400160405280601e81526020017f536166654d6174683a207375627472616374696f6e206f766572666c6f770000815250613770565b600082815260016020526040902061324f90826137ca565b156110bc5761325c613188565b6001600160a01b0316816001600160a01b0316837ff6391f5c32d9c69d2a47ea670b442974b53935d1edc7fd64eb21e047a839171b60405160405180910390a45050565b60035460ff166132ee576040805162461bcd60e51b815260206004820152601460248201527314185d5cd8589b194e881b9bdd081c185d5cd95960621b604482015290519081900360640190fd5b6003805460ff191690557f5db9ee0a495bf2e6ff9c91a7834c1ba4fdd244a5e8aa4e537bd38aeae4b073aa613321613188565b604080516001600160a01b039092168252519081900360200190a1565b6000828152600c60205260409020600281015482111561338f5760405162461bcd60e51b815260040180806020018281038252602c815260200180613f62602c913960400191505060405180910390fd5b600281015461339e90836131f5565b600282015560408051632770a7eb60e21b81523360048201526024810184905290516001600160a01b037f00000000000000000000000000000000000000000000000000000000000000001691639dc29fac91604480830192600092919082900301818387803b15801561341157600080fd5b505af1158015613425573d6000803e3d6000fd5b50505050505050565b604080516000808252602082019092526001600160a01b0384169083906040518082805190602001908083835b6020831061347a5780518252601f19909201916020918201910161345b565b6001836020036101000a03801982511681845116808217855250505050505090500191505060006040518083038185875af1925050503d80600081146134dc576040519150601f19603f3d011682016040523d82523d6000602084013e6134e1565b606091505b50509050806135215760405162461bcd60e51b81526004018080602001828103825260338152602001806140f66033913960400191505060405180910390fd5b505050565b5490565b600080821215613581576040805162461bcd60e51b815260206004820181905260248201527f53616665436173743a2076616c7565206d75737420626520706f736974697665604482015290519081900360640190fd5b5090565b60035460ff16156135d0576040805162461bcd60e51b815260206004820152601060248201526f14185d5cd8589b194e881c185d5cd95960821b604482015290519081900360640190fd5b6003805460ff191660011790557f62e78cea01bee320cd4e420270b5ea74000d11b0c9f74754ebdbfc544b05a258613321613188565b604080516001600160a01b038416602482015260448082018490528251808303909101815260649091019091526020810180516001600160e01b031663a9059cbb60e01b1790526135219084906137df565b6000611e658383613890565b6000611e65836001600160a01b0384166138f4565b6000610bff82613526565b600061369083836138f4565b6136c657508154600181810184556000848152602080822090930184905584548482528286019093526040902091909155610bff565b506000610bff565b6000818361375a5760405162461bcd60e51b81526004018080602001828103825283818151815260200191508051906020019080838360005b8381101561371f578181015183820152602001613707565b50505050905090810190601f16801561374c5780820380516001836020036101000a031916815260200191505b509250505060405180910390fd5b50600083858161376657fe5b0495945050505050565b600081848411156137c25760405162461bcd60e51b815260206004820181815283516024840152835190928392604490910191908501908083836000831561371f578181015183820152602001613707565b505050900390565b6000611e65836001600160a01b03841661390c565b6060613834826040518060400160405280602081526020017f5361666545524332303a206c6f772d6c6576656c2063616c6c206661696c6564815250856001600160a01b03166139d29092919063ffffffff16565b8051909150156135215780806020019051602081101561385357600080fd5b50516135215760405162461bcd60e51b815260040180806020018281038252602a81526020018061426e602a913960400191505060405180910390fd5b815460009082106138d25760405162461bcd60e51b8152600401808060200182810382526022815260200180613c136022913960400191505060405180910390fd5b8260000182815481106138e157fe5b9060005260206000200154905092915050565b60009081526001919091016020526040902054151590565b600081815260018301602052604081205480156139c8578354600019808301919081019060009087908390811061393f57fe5b906000526020600020015490508087600001848154811061395c57fe5b60009182526020808320909101929092558281526001898101909252604090209084019055865487908061398c57fe5b60019003818190600052602060002001600090559055866001016000878152602001908152602001600020600090556001945050505050610bff565b6000915050610bff565b60606139e184846000856139e9565b949350505050565b606082471015613a2a5760405162461bcd60e51b8152600401808060200182810382526026815260200180613ed86026913960400191505060405180910390fd5b613a3385613b45565b613a84576040805162461bcd60e51b815260206004820152601d60248201527f416464726573733a2063616c6c20746f206e6f6e2d636f6e7472616374000000604482015290519081900360640190fd5b60006060866001600160a01b031685876040518082805190602001908083835b60208310613ac35780518252601f199092019160209182019101613aa4565b6001836020036101000a03801982511681845116808217855250505050505090500191505060006040518083038185875af1925050503d8060008114613b25576040519150601f19603f3d011682016040523d82523d6000602084013e613b2a565b606091505b5091509150613b3a828286613b4b565b979650505050505050565b3b151590565b60608315613b5a575081611e65565b825115613b6a5782518084602001fd5b60405162461bcd60e51b815260206004820181815284516024840152845185939192839260440191908501908083836000831561371f578181015183820152602001613707565b604051806080016040528060008152602001600081526020016000815260200160006001600160a01b03168152509056fe5661756c7448616e646c65723a3a6372656174655661756c743a207661756c7420616c72656164792063726561746564456e756d657261626c655365743a20696e646578206f7574206f6620626f756e64735661756c7448616e646c65723a3a616464436f6c6c61746572616c3a204552433230207472616e7366657220646964206e6f742073756363656564416363657373436f6e74726f6c3a2073656e646572206d75737420626520616e2061646d696e20746f206772616e745265656e7472616e637947756172643a207265656e7472616e742063616c6c0043616e6e6f742077697468647261772074686520636f6c6c61746572616c20746f6b656e735661756c7448616e646c65723a3a7661756c744578697374733a206e6f207661756c7420637265617465644f776e61626c653a206e6577206f776e657220697320746865207a65726f20616464726573735661756c7448616e646c65723a3a73657454726561737572793a206e6f7420612076616c69642074726561737572795661756c7448616e646c65723a3a6d696e743a206e6f7420656e6f75676820636f6c6c61746572616c4554485661756c7448616e646c65723a3a72656d6f7665436f6c6c61746572616c4554483a20726574726965766520616d6f756e7420686967686572207468616e20636f6c6c61746572616c4554485661756c7448616e646c65723a3a72656d6f7665436f6c6c61746572616c4554483a20636f6c6c61746572616c2062656c6f77206d696e20726571756972656420726174696f5661756c7448616e646c65723a3a6d696e743a206d696e7420616d6f756e74206c657373207468616e2072657175697265645661756c7448616e646c65723a3a6c69717569646174655661756c743a206c69717569646174696f6e20616d6f756e7420646966666572656e74207468616e2072657175697265645661756c7448616e646c65723a3a6c69717569646174655661756c743a204552433230207472616e7366657220646964206e6f742073756363656564416464726573733a20696e73756666696369656e742062616c616e636520666f722063616c6c5661756c7448616e646c65723a3a736574526174696f3a206c69717569646174696f6e2070656e616c747920746f6f2068696768416363657373436f6e74726f6c3a2073656e646572206d75737420626520616e2061646d696e20746f207265766f6b655661756c7448616e646c65723a3a6275726e3a20616d6f756e742067726561746572207468616e20646562745661756c7448616e646c65723a3a736574526174696f3a20726174696f206c6f776572207468616e204d494e5f524154494f5661756c7448616e646c65723a3a7365744275726e4665653a206275726e2066656520686967686572207468616e204d41585f4645455661756c7448616e646c65723a3a72656d6f7665436f6c6c61746572616c3a20726574726965766520616d6f756e7420686967686572207468616e20636f6c6c61746572616c5661756c7448616e646c65723a3a7365744c69717569646174696f6e50656e616c74793a206c69717569646174696f6e2070656e616c747920746f6f20686967684554485661756c7448616e646c65723a3a72656d6f7665436f6c6c61746572616c4554483a2076616c75652063616e277420626520305661756c7448616e646c65723a3a72656d6f7665436f6c6c61746572616c3a20636f6c6c61746572616c2062656c6f77206d696e20726571756972656420726174696f495661756c7448616e646c65723a3a736166655472616e736665724554483a20455448207472616e73666572206661696c6564536166654d6174683a206d756c7469706c69636174696f6e206f766572666c6f774554485661756c7448616e646c65723a3a616464436f6c6c61746572616c4554483a2076616c75652063616e277420626520304f776e61626c653a2063616c6c6572206973206e6f7420746865206f776e65725661756c7448616e646c65723a3a6d696e743a20636f6c6c61746572616c2062656c6f77206d696e20726571756972656420726174696f5661756c7448616e646c65723a3a72656d6f7665436f6c6c61746572616c3a204552433230207472616e7366657220646964206e6f7420737563636565645661756c7448616e646c65723a3a6c69717569646174655661756c743a207661756c74206973206e6f74206c697175696461626c655661756c7448616e646c65723a3a6e6f745a65726f3a2076616c75652063616e277420626520305361666545524332303a204552433230206f7065726174696f6e20646964206e6f7420737563636565645661756c7448616e646c65723a3a6c69717569646174655661756c743a206e6f207661756c7420637265617465645661756c7448616e646c65723a3a6275726e3a206275726e20666565206c657373207468616e2072657175697265645661756c7448616e646c65723a3a6c69717569646174655661756c743a206275726e20666565206c657373207468616e207265717569726564416363657373436f6e74726f6c3a2063616e206f6e6c792072656e6f756e636520726f6c657320666f722073656c66a264697066735822122099a764c5cc3339c791fdfcf7fd01a9d031fc2276fe56cc98fc19d2462074ee7f64736f6c634300070500335661756c7448616e646c65723a3a636f6e7374727563746f723a20726174696f206c6f776572207468616e204d494e5f524154494f4f776e61626c653a206e6577206f776e657220697320746865207a65726f20616464726573735661756c7448616e646c65723a3a636f6e7374727563746f723a206c69717569646174696f6e2070656e616c747920746f6f20686967685661756c7448616e646c65723a3a636f6e7374727563746f723a206275726e2066656520686967686572207468616e204d41585f464545436f6c6c61746572616c20646563696d616c732067726561746572207468616e204d41585f444543494d414c5f504c414345538be0079c531659141344cd1fd0a4f28419497f9722a3daafe3b4186f6b6457e0",
  "devdoc": {
    "author": "Cryptex.finance",
    "kind": "dev",
    "methods": {
      "TCAPPrice()": {
        "details": "TCAP token is 18 decimalsoracle totalMarketPrice must be in wei formatP = T / d P = TCAP Token Price T = Total Crypto Market Cap d = Divisor",
        "returns": {
          "price": "of the TCAP Token"
        }
      },
      "addCollateral(uint256)": {
        "details": "_amount should be higher than 0ERC20 token must be approved first",
        "params": {
          "_amount": "of collateral to be added"
        }
      },
      "addCollateralETH()": {
        "details": "value should be higher than 0ETH is turned into WETH"
      },
      "burn(uint256)": {
        "details": "_amount should be higher than 0A fee of exactly burnFee must be sent as value on ETHThe fee goes to the treasury contractif reward handler is set exit rewards",
        "params": {
          "_amount": "of tokens to burn"
        }
      },
      "constructor": {
        "params": {
          "_burnFee": "uint256",
          "_collateralAddress": "address",
          "_collateralOracle": "address",
          "_divisor": "uint256",
          "_ethOracle": "address",
          "_liquidationPenalty": "uint256",
          "_minimumTCAP": "uint256",
          "_orchestrator": "address",
          "_ratio": "uint256",
          "_tcapAddress": "address",
          "_tcapOracle": "address",
          "_treasury": "address"
        }
      },
      "createVault()": {
        "details": "Only one vault per address can be created"
      },
      "getFee(uint256)": {
        "details": "The returned value is returned in weif = (((P * A * b)/ 10000))/ EP f = Burn Fee Value in wei P = TCAP Token Price A = TCAP Amount to Burn b = Burn Fee % EP = ETH Price 10000 = the value is 100 multiplied by 100 to support two decimals on the burn fee",
        "params": {
          "_amount": "to burn"
        },
        "returns": {
          "fee": "fee"
        }
      },
      "getOraclePrice(address)": {
        "details": "The price returned here is in USD is equivalent to 1 `ether` unit  times 10 ** 18 eg. For ETH This will return the price of USD of 1 ETH * 10 ** 18 and **not** 1 wei * 10 ** 18 eg. For DAI This will return the price of USD of 1 DAI * 10 ** 18 and **not** (1 / 10 ** 18) * 10 ** 18",
        "params": {
          "_oracle": "to be the price called"
        },
        "returns": {
          "price": "price"
        }
      },
      "getRoleAdmin(bytes32)": {
        "details": "Returns the admin role that controls `role`. See {grantRole} and {revokeRole}. To change a role's admin, use {_setRoleAdmin}."
      },
      "getRoleMember(bytes32,uint256)": {
        "details": "Returns one of the accounts that have `role`. `index` must be a value between 0 and {getRoleMemberCount}, non-inclusive. Role bearers are not sorted in any particular way, and their ordering may change at any point. WARNING: When using {getRoleMember} and {getRoleMemberCount}, make sure you perform all queries on the same block. See the following https://forum.openzeppelin.com/t/iterating-over-elements-on-enumerableset-in-openzeppelin-contracts/2296[forum post] for more information."
      },
      "getRoleMemberCount(bytes32)": {
        "details": "Returns the number of accounts that have `role`. Can be used together with {getRoleMember} to enumerate all bearers of a role."
      },
      "getVault(uint256)": {
        "params": {
          "_id": "of vault"
        },
        "returns": {
          "_0": "Id, Collateral, Owner, Debt"
        }
      },
      "getVaultRatio(uint256)": {
        "details": "vr = (cp * (C * 100 * cdaf)) / D * P vr = Vault Ratio C = Vault Collateral cdaf = Collateral Decimals Adjustment Factor cp = Collateral Price D = Vault Debt P = TCAP Token Price",
        "params": {
          "_vaultId": "id of vault"
        },
        "returns": {
          "currentRatio": "currentRatio"
        }
      },
      "grantRole(bytes32,address)": {
        "details": "Grants `role` to `account`. If `account` had not been already granted `role`, emits a {RoleGranted} event. Requirements: - the caller must have ``role``'s admin role."
      },
      "hasRole(bytes32,address)": {
        "details": "Returns `true` if `account` has been granted `role`."
      },
      "liquidateVault(uint256,uint256)": {
        "details": "Resulting ratio must be above or equal minimum ratioA fee of exactly burnFee must be sent as value on ETHThe fee goes to the treasury contract",
        "params": {
          "_maxTCAP": "max amount of TCAP the liquidator is willing to pay to liquidate vault",
          "_vaultId": "to liquidate"
        }
      },
      "liquidationReward(uint256)": {
        "details": "the returned value is returned as collateral currencyR = (LT * (p  + 100)) / 100RC = R / (cp * cdaf) R = Liquidation Reward RC = Liquidation Reward Collateral LT = Required Liquidation TCAP p = liquidation penalty cp = Collateral Price cdaf = Collateral Decimals adjustment factor",
        "params": {
          "_vaultId": "of the vault to liquidate"
        },
        "returns": {
          "rewardCollateral": "for liquidating Vault"
        }
      },
      "mint(uint256)": {
        "details": "_amount should be higher than 0requires to have a vault ratio above the minimum ratioif reward handler is set stake to earn rewards",
        "params": {
          "_amount": "of tokens to mint"
        }
      },
      "owner()": {
        "details": "Returns the address of the current owner."
      },
      "paused()": {
        "details": "Returns true if the contract is paused, and false otherwise."
      },
      "recoverERC20(address,uint256)": {
        "details": "Only owner  can call it",
        "params": {
          "_tokenAddress": "address",
          "_tokenAmount": "uint"
        }
      },
      "removeCollateral(uint256)": {
        "details": "reverts if the resulting ratio is less than the minimum ratio_amount should be higher than 0transfers the collateral back to the user",
        "params": {
          "_amount": "of collateral to remove"
        }
      },
      "removeCollateralETH(uint256)": {
        "details": "_amount should be higher than 0WETH is turned into ETH",
        "params": {
          "_amount": "of collateral to remove"
        }
      },
      "renounceOwnership()": {
        "details": "Leaves the contract without owner. It will not be possible to call `onlyOwner` functions anymore. Can only be called by the current owner. NOTE: Renouncing ownership will leave the contract without an owner, thereby removing any functionality that is only available to the owner."
      },
      "renounceRole(bytes32,address)": {
        "details": "Revokes `role` from the calling account. Roles are often managed via {grantRole} and {revokeRole}: this function's purpose is to provide a mechanism for accounts to lose their privileges if they are compromised (such as when a trusted device is misplaced). If the calling account had been granted `role`, emits a {RoleRevoked} event. Requirements: - the caller must be `account`."
      },
      "requiredCollateral(uint256)": {
        "details": "TCAP token is 18 decimalsC = ((P * A * r) / 100) / (cp * cdaf) C = Required Collateral P = TCAP Token Price A = Amount to Mint cp = Collateral Price r = Minimum Ratio for Liquidation cdaf = Collateral decimals adjust factor",
        "params": {
          "_amount": "uint amount to mint"
        },
        "returns": {
          "collateral": "of the TCAP Token"
        }
      },
      "requiredLiquidationTCAP(uint256)": {
        "details": "LT = ((((D * r) / 100) - cTcap) * 100) / (r - (p + 100)) cTcap = ((C * cdaf * cp) / P) LT = Required TCAP D = Vault Debt C = Required Collateral P = TCAP Token Price cdaf = Collateral Decimals adjustment Factor cp = Collateral Price r = Min Vault Ratio p = Liquidation Penalty",
        "params": {
          "_vaultId": "of the vault to liquidate"
        },
        "returns": {
          "amount": "required of the TCAP Token"
        }
      },
      "revokeRole(bytes32,address)": {
        "details": "Revokes `role` from `account`. If `account` had been granted `role`, emits a {RoleRevoked} event. Requirements: - the caller must have ``role``'s admin role."
      },
      "setBurnFee(uint256)": {
        "details": "Only owner can call it",
        "params": {
          "_burnFee": "uint"
        }
      },
      "setLiquidationPenalty(uint256)": {
        "details": "Only owner can call itrecommended value is between 1-15% and can't be above 100%",
        "params": {
          "_liquidationPenalty": "uint"
        }
      },
      "setMinimumTCAP(uint256)": {
        "details": "Only owner can call itthis is mostly used on hard mode vaults with low collateral ratio vaults",
        "params": {
          "_minimumTCAP": "uint"
        }
      },
      "setRatio(uint256)": {
        "details": "Only owner can call it",
        "params": {
          "_ratio": "uint"
        }
      },
      "setTreasury(address)": {
        "details": "Only owner can call it",
        "params": {
          "_treasury": "address"
        }
      },
      "supportsInterface(bytes4)": {
        "params": {
          "_interfaceId": "bytes of interface"
        },
        "returns": {
          "_0": "bool"
        }
      },
      "transferOwnership(address)": {
        "details": "Transfers ownership of the contract to a new account (`newOwner`). Can only be called by the current owner."
      }
    },
    "title": "ETH TCAP Vault",
    "version": 1
  },
  "userdoc": {
    "events": {
      "CollateralAdded(address,uint256,uint256)": {
        "notice": "An event emitted when collateral is added to a vault"
      },
      "CollateralRemoved(address,uint256,uint256)": {
        "notice": "An event emitted when collateral is removed from a vault"
      },
      "NewBurnFee(address,uint256)": {
        "notice": "An event emitted when the burn fee is updated"
      },
      "NewLiquidationPenalty(address,uint256)": {
        "notice": "An event emitted when the liquidation penalty is updated"
      },
      "NewMinimumTCAP(address,uint256)": {
        "notice": "An event emitted when the minimum required TCAP is updated"
      },
      "NewRatio(address,uint256)": {
        "notice": "An event emitted when the ratio is updated"
      },
      "NewTreasury(address,address)": {
        "notice": "An event emitted when the treasury contract is updated"
      },
      "Recovered(address,uint256)": {
        "notice": "An event emitted when a erc20 token is recovered"
      },
      "TokensBurned(address,uint256,uint256)": {
        "notice": "An event emitted when tokens are burned"
      },
      "TokensMinted(address,uint256,uint256)": {
        "notice": "An event emitted when tokens are minted"
      },
      "VaultCreated(address,uint256)": {
        "notice": "An event emitted when a vault is created"
      },
      "VaultLiquidated(uint256,address,uint256,uint256)": {
        "notice": "An event emitted when a vault is liquidated"
      }
    },
    "kind": "user",
    "methods": {
      "ETHPriceOracle()": {
        "notice": "ETH/USD Oracle Address"
      },
      "MAX_DECIMAL_PLACES()": {
        "notice": "Maximum decimal places that are supported by the collateral"
      },
      "MAX_FEE()": {
        "notice": "Maximum value that the burn fee can be set to, the fee has two decimals, so it's multiplied by 100"
      },
      "MIN_RATIO()": {
        "notice": "Minimum value that the ratio can be set to"
      },
      "TCAPPrice()": {
        "notice": "Returns the price of the TCAP token"
      },
      "TCAPToken()": {
        "notice": "TCAP Token Address"
      },
      "addCollateral(uint256)": {
        "notice": "Allows users to add collateral to their vaults"
      },
      "addCollateralETH()": {
        "notice": "Adds collateral to vault using ETH"
      },
      "burn(uint256)": {
        "notice": "Pays the debt of TCAP tokens resulting them on burn, this releases collateral up to minimum vault ratio"
      },
      "burnFee()": {
        "notice": "Fee percentage of the total amount to burn charged on ETH when burning TCAP Tokens"
      },
      "collateralContract()": {
        "notice": "Collateral Token Address"
      },
      "collateralDecimalsAdjustmentFactor()": {
        "notice": "value used to divide collateral to adjust the decimal places"
      },
      "collateralPriceOracle()": {
        "notice": "Collateral/USD Oracle Address"
      },
      "constructor": {
        "notice": "Constructor"
      },
      "counter()": {
        "notice": "Vault Id counter"
      },
      "createVault()": {
        "notice": "Allows an user to create an unique Vault"
      },
      "divisor()": {
        "notice": "Value used as divisor with the total market cap, just like the S&P 500 or any major financial index would to define the final tcap token price"
      },
      "getFee(uint256)": {
        "notice": "Returns the required fee of ETH to burn the TCAP tokens"
      },
      "getOraclePrice(address)": {
        "notice": "Returns the price of the chainlink oracle multiplied by the digits to get 18 decimals format"
      },
      "getVault(uint256)": {
        "notice": "Returns the Vault information of specified identifier"
      },
      "getVaultRatio(uint256)": {
        "notice": "Returns the Collateral Ratio of the Vault"
      },
      "liquidateVault(uint256,uint256)": {
        "notice": "Allow users to burn TCAP tokens to liquidate vaults with vault collateral ratio under the minimum ratio, the liquidator receives the staked collateral of the liquidated vault at a premium"
      },
      "liquidationPenalty()": {
        "notice": "Penalty charged to vault owner when a vault is liquidated, this value goes to the liquidator"
      },
      "liquidationReward(uint256)": {
        "notice": "Returns the Reward Collateral amount for liquidating a vault"
      },
      "minimumTCAP()": {
        "notice": "Minimum amount of TCAP an user can mint"
      },
      "mint(uint256)": {
        "notice": "Uses collateral to generate debt on TCAP Tokens which are minted and assigned to caller"
      },
      "oracleDigits()": {
        "notice": "value used to multiply chainlink oracle for handling decimals"
      },
      "pause()": {
        "notice": "Allows the owner to Pause the Contract"
      },
      "ratio()": {
        "notice": "Minimum ratio required to prevent liquidation of vault"
      },
      "recoverERC20(address,uint256)": {
        "notice": "Added to support recovering LP Rewards from other systems such as BAL to be distributed to holders"
      },
      "removeCollateral(uint256)": {
        "notice": "Allows users to remove collateral currently not being used to generate TCAP tokens from their vaults"
      },
      "removeCollateralETH(uint256)": {
        "notice": "Removes not used collateral from vault"
      },
      "requiredCollateral(uint256)": {
        "notice": "Returns the minimal required collateral to mint TCAP token"
      },
      "requiredLiquidationTCAP(uint256)": {
        "notice": "Returns the minimal required TCAP to liquidate a Vault"
      },
      "setBurnFee(uint256)": {
        "notice": "Sets the burn fee percentage an user pays when burning tcap tokens"
      },
      "setLiquidationPenalty(uint256)": {
        "notice": "Sets the liquidation penalty % charged on liquidation"
      },
      "setMinimumTCAP(uint256)": {
        "notice": "Sets the minimum TCAP a vault owner can mint"
      },
      "setRatio(uint256)": {
        "notice": "Sets the collateral ratio needed to mint tokens"
      },
      "setTreasury(address)": {
        "notice": "Sets the treasury contract address where fees are transferred to"
      },
      "supportsInterface(bytes4)": {
        "notice": "ERC165 Standard for support of interfaces"
      },
      "tcapOracle()": {
        "notice": "Total Market Cap/USD Oracle Address"
      },
      "treasury()": {
        "notice": "Address of the treasury contract (usually the timelock) where the funds generated by the protocol are sent"
      },
      "unpause()": {
        "notice": "Allows the owner to Unpause the Contract"
      },
      "userToVault(address)": {
        "notice": "Owner address to Vault Id"
      },
      "vaults(uint256)": {
        "notice": "Id To Vault"
      }
    },
    "notice": "Contract in charge of handling the TCAP Vault and stake using a ETH and WETH",
    "version": 1
  },
  "storageLayout": {
    "storage": [
      {
        "astId": 359,
        "contract": "contracts/ETHVaultHandler.sol:ETHVaultHandler",
        "label": "_owner",
        "offset": 0,
        "slot": "0",
        "type": "t_address"
      },
      {
        "astId": 91,
        "contract": "contracts/ETHVaultHandler.sol:ETHVaultHandler",
        "label": "_roles",
        "offset": 0,
        "slot": "1",
        "type": "t_mapping(t_bytes32,t_struct(RoleData)87_storage)"
      },
      {
        "astId": 2582,
        "contract": "contracts/ETHVaultHandler.sol:ETHVaultHandler",
        "label": "_status",
        "offset": 0,
        "slot": "2",
        "type": "t_uint256"
      },
      {
        "astId": 2499,
        "contract": "contracts/ETHVaultHandler.sol:ETHVaultHandler",
        "label": "_paused",
        "offset": 0,
        "slot": "3",
        "type": "t_bool"
      },
      {
        "astId": 4008,
        "contract": "contracts/ETHVaultHandler.sol:ETHVaultHandler",
        "label": "counter",
        "offset": 0,
        "slot": "4",
        "type": "t_struct(Counter)1961_storage"
      },
      {
        "astId": 4029,
        "contract": "contracts/ETHVaultHandler.sol:ETHVaultHandler",
        "label": "divisor",
        "offset": 0,
        "slot": "5",
        "type": "t_uint256"
      },
      {
        "astId": 4032,
        "contract": "contracts/ETHVaultHandler.sol:ETHVaultHandler",
        "label": "ratio",
        "offset": 0,
        "slot": "6",
        "type": "t_uint256"
      },
      {
        "astId": 4035,
        "contract": "contracts/ETHVaultHandler.sol:ETHVaultHandler",
        "label": "burnFee",
        "offset": 0,
        "slot": "7",
        "type": "t_uint256"
      },
      {
        "astId": 4038,
        "contract": "contracts/ETHVaultHandler.sol:ETHVaultHandler",
        "label": "liquidationPenalty",
        "offset": 0,
        "slot": "8",
        "type": "t_uint256"
      },
      {
        "astId": 4042,
        "contract": "contracts/ETHVaultHandler.sol:ETHVaultHandler",
        "label": "minimumTCAP",
        "offset": 0,
        "slot": "9",
        "type": "t_uint256"
      },
      {
        "astId": 4045,
        "contract": "contracts/ETHVaultHandler.sol:ETHVaultHandler",
        "label": "treasury",
        "offset": 0,
        "slot": "10",
        "type": "t_address"
      },
      {
        "astId": 4050,
        "contract": "contracts/ETHVaultHandler.sol:ETHVaultHandler",
        "label": "userToVault",
        "offset": 0,
        "slot": "11",
        "type": "t_mapping(t_address,t_uint256)"
      },
      {
        "astId": 4055,
        "contract": "contracts/ETHVaultHandler.sol:ETHVaultHandler",
        "label": "vaults",
        "offset": 0,
        "slot": "12",
        "type": "t_mapping(t_uint256,t_struct(Vault)4005_storage)"
      }
    ],
    "types": {
      "t_address": {
        "encoding": "inplace",
        "label": "address",
        "numberOfBytes": "20"
      },
      "t_array(t_bytes32)dyn_storage": {
        "base": "t_bytes32",
        "encoding": "dynamic_array",
        "label": "bytes32[]",
        "numberOfBytes": "32"
      },
      "t_bool": {
        "encoding": "inplace",
        "label": "bool",
        "numberOfBytes": "1"
      },
      "t_bytes32": {
        "encoding": "inplace",
        "label": "bytes32",
        "numberOfBytes": "32"
      },
      "t_mapping(t_address,t_uint256)": {
        "encoding": "mapping",
        "key": "t_address",
        "label": "mapping(address => uint256)",
        "numberOfBytes": "32",
        "value": "t_uint256"
      },
      "t_mapping(t_bytes32,t_struct(RoleData)87_storage)": {
        "encoding": "mapping",
        "key": "t_bytes32",
        "label": "mapping(bytes32 => struct AccessControl.RoleData)",
        "numberOfBytes": "32",
        "value": "t_struct(RoleData)87_storage"
      },
      "t_mapping(t_bytes32,t_uint256)": {
        "encoding": "mapping",
        "key": "t_bytes32",
        "label": "mapping(bytes32 => uint256)",
        "numberOfBytes": "32",
        "value": "t_uint256"
      },
      "t_mapping(t_uint256,t_struct(Vault)4005_storage)": {
        "encoding": "mapping",
        "key": "t_uint256",
        "label": "mapping(uint256 => struct IVaultHandler.Vault)",
        "numberOfBytes": "32",
        "value": "t_struct(Vault)4005_storage"
      },
      "t_struct(AddressSet)2277_storage": {
        "encoding": "inplace",
        "label": "struct EnumerableSet.AddressSet",
        "members": [
          {
            "astId": 2276,
            "contract": "contracts/ETHVaultHandler.sol:ETHVaultHandler",
            "label": "_inner",
            "offset": 0,
            "slot": "0",
            "type": "t_struct(Set)2012_storage"
          }
        ],
        "numberOfBytes": "64"
      },
      "t_struct(Counter)1961_storage": {
        "encoding": "inplace",
        "label": "struct Counters.Counter",
        "members": [
          {
            "astId": 1960,
            "contract": "contracts/ETHVaultHandler.sol:ETHVaultHandler",
            "label": "_value",
            "offset": 0,
            "slot": "0",
            "type": "t_uint256"
          }
        ],
        "numberOfBytes": "32"
      },
      "t_struct(RoleData)87_storage": {
        "encoding": "inplace",
        "label": "struct AccessControl.RoleData",
        "members": [
          {
            "astId": 84,
            "contract": "contracts/ETHVaultHandler.sol:ETHVaultHandler",
            "label": "members",
            "offset": 0,
            "slot": "0",
            "type": "t_struct(AddressSet)2277_storage"
          },
          {
            "astId": 86,
            "contract": "contracts/ETHVaultHandler.sol:ETHVaultHandler",
            "label": "adminRole",
            "offset": 0,
            "slot": "2",
            "type": "t_bytes32"
          }
        ],
        "numberOfBytes": "96"
      },
      "t_struct(Set)2012_storage": {
        "encoding": "inplace",
        "label": "struct EnumerableSet.Set",
        "members": [
          {
            "astId": 2007,
            "contract": "contracts/ETHVaultHandler.sol:ETHVaultHandler",
            "label": "_values",
            "offset": 0,
            "slot": "0",
            "type": "t_array(t_bytes32)dyn_storage"
          },
          {
            "astId": 2011,
            "contract": "contracts/ETHVaultHandler.sol:ETHVaultHandler",
            "label": "_indexes",
            "offset": 0,
            "slot": "1",
            "type": "t_mapping(t_bytes32,t_uint256)"
          }
        ],
        "numberOfBytes": "64"
      },
      "t_struct(Vault)4005_storage": {
        "encoding": "inplace",
        "label": "struct IVaultHandler.Vault",
        "members": [
          {
            "astId": 3998,
            "contract": "contracts/ETHVaultHandler.sol:ETHVaultHandler",
            "label": "Id",
            "offset": 0,
            "slot": "0",
            "type": "t_uint256"
          },
          {
            "astId": 4000,
            "contract": "contracts/ETHVaultHandler.sol:ETHVaultHandler",
            "label": "Collateral",
            "offset": 0,
            "slot": "1",
            "type": "t_uint256"
          },
          {
            "astId": 4002,
            "contract": "contracts/ETHVaultHandler.sol:ETHVaultHandler",
            "label": "Debt",
            "offset": 0,
            "slot": "2",
            "type": "t_uint256"
          },
          {
            "astId": 4004,
            "contract": "contracts/ETHVaultHandler.sol:ETHVaultHandler",
            "label": "Owner",
            "offset": 0,
            "slot": "3",
            "type": "t_address"
          }
        ],
        "numberOfBytes": "128"
      },
      "t_uint256": {
        "encoding": "inplace",
        "label": "uint256",
        "numberOfBytes": "32"
      }
    }
  }
}