{
  "address": "0xC77Ba9Ec1344a69C6b2CDF169F63E247dB237a68",
  "abi": [
    {
      "inputs": [
        {
          "internalType": "address",
          "name": "_timeLock",
          "type": "address"
        },
        {
          "internalType": "address",
          "name": "_l2MessageExecutor",
          "type": "address"
        },
        {
          "internalType": "address",
          "name": "_inbox",
          "type": "address"
        }
      ],
      "stateMutability": "nonpayable",
      "type": "constructor"
    },
    {
      "anonymous": false,
      "inputs": [
        {
          "indexed": true,
          "internalType": "address",
          "name": "previousOwner",
          "type": "address"
        },
        {
          "indexed": true,
          "internalType": "address",
          "name": "newOwner",
          "type": "address"
        }
      ],
      "name": "OwnershipTransferred",
      "type": "event"
    },
    {
      "anonymous": false,
      "inputs": [
        {
          "indexed": true,
          "internalType": "uint256",
          "name": "ticketId",
          "type": "uint256"
        }
      ],
      "name": "RetryableTicketCreated",
      "type": "event"
    },
    {
      "inputs": [],
      "name": "inbox",
      "outputs": [
        {
          "internalType": "contract IInbox",
          "name": "",
          "type": "address"
        }
      ],
      "stateMutability": "view",
      "type": "function"
    },
    {
      "inputs": [],
      "name": "l2MessageExecutor",
      "outputs": [
        {
          "internalType": "address",
          "name": "",
          "type": "address"
        }
      ],
      "stateMutability": "view",
      "type": "function"
    },
    {
      "inputs": [],
      "name": "owner",
      "outputs": [
        {
          "internalType": "address",
          "name": "",
          "type": "address"
        }
      ],
      "stateMutability": "view",
      "type": "function"
    },
    {
      "inputs": [
        {
          "internalType": "bytes",
          "name": "payLoad",
          "type": "bytes"
        },
        {
          "internalType": "uint256",
          "name": "maxSubmissionCost",
          "type": "uint256"
        },
        {
          "internalType": "uint256",
          "name": "maxGas",
          "type": "uint256"
        },
        {
          "internalType": "uint256",
          "name": "gasPriceBid",
          "type": "uint256"
        }
      ],
      "name": "relayMessage",
      "outputs": [
        {
          "internalType": "uint256",
          "name": "",
          "type": "uint256"
        }
      ],
      "stateMutability": "payable",
      "type": "function"
    },
    {
      "inputs": [],
      "name": "renounceOwnership",
      "outputs": [],
      "stateMutability": "nonpayable",
      "type": "function"
    },
    {
      "inputs": [],
      "name": "timeLock",
      "outputs": [
        {
          "internalType": "address",
          "name": "",
          "type": "address"
        }
      ],
      "stateMutability": "view",
      "type": "function"
    },
    {
      "inputs": [
        {
          "internalType": "address",
          "name": "newOwner",
          "type": "address"
        }
      ],
      "name": "transferOwnership",
      "outputs": [],
      "stateMutability": "nonpayable",
      "type": "function"
    },
    {
      "inputs": [
        {
          "internalType": "address",
          "name": "_l2MessageExecutor",
          "type": "address"
        }
      ],
      "name": "updateL2MessageExecutor",
      "outputs": [],
      "stateMutability": "nonpayable",
      "type": "function"
    }
  ],
  "transactionHash": "0x1316dc8102318aa3232739f3e051dc0e443f38bb82edcb7e3e2659a80ede4efc",
  "args": [
    "0x570f581D23a2AB09FD1990279D9DB6f5DcE18F4A",
    "0x0000000000000000000000000000000000000000",
    "0x6BEbC4925716945D46F0Ec336D5C2564F419682C"
  ],
  "solcInputHash": "07b06ade6e2f75c07dc387e7feb39cdd",
  "bytecode": "0x608060405234801561001057600080fd5b506040516109123803806109128339818101604052606081101561003357600080fd5b5080516020820151604090920151909190600061004e6100da565b600080546001600160a01b0319166001600160a01b0383169081178255604051929350917f8be0079c531659141344cd1fd0a4f28419497f9722a3daafe3b4186f6b6457e0908290a350600180546001600160a01b039485166001600160a01b0319918216179091556002805493851693821693909317909255600380549190931691161790556100de565b3390565b610825806100ed6000396000f3fe60806040526004361061007b5760003560e01c8063b8c169921161004e578063b8c1699214610189578063d085835a1461019e578063f2fde38b146101b3578063fb0e722b146101e65761007b565b8063715018a614610080578063885d6ba0146100975780638da5cb5b146101255780639a71038214610156575b600080fd5b34801561008c57600080fd5b506100956101fb565b005b610113600480360360808110156100ad57600080fd5b8101906020810181356401000000008111156100c857600080fd5b8201836020820111156100da57600080fd5b803590602001918460018302840111640100000000831117156100fc57600080fd5b9193509150803590602081013590604001356102b9565b60408051918252519081900360200190f35b34801561013157600080fd5b5061013a61050f565b604080516001600160a01b039092168252519081900360200190f35b34801561016257600080fd5b506100956004803603602081101561017957600080fd5b50356001600160a01b031661051e565b34801561019557600080fd5b5061013a6105f9565b3480156101aa57600080fd5b5061013a610608565b3480156101bf57600080fd5b50610095600480360360208110156101d657600080fd5b50356001600160a01b0316610617565b3480156101f257600080fd5b5061013a61072b565b61020361073a565b6001600160a01b031661021461050f565b6001600160a01b03161461026f576040805162461bcd60e51b815260206004820181905260248201527f4f776e61626c653a2063616c6c6572206973206e6f7420746865206f776e6572604482015290519081900360640190fd5b600080546040516001600160a01b03909116907f8be0079c531659141344cd1fd0a4f28419497f9722a3daafe3b4186f6b6457e0908390a3600080546001600160a01b0319169055565b6001546000906001600160a01b031633146103055760405162461bcd60e51b815260040180806020018281038252603b8152602001806107b5603b913960400191505060405180910390fd5b606063e0299bf560e01b878760405160240180806020018281038252848482818152602001925080828437600081840152601f19601f8201169050808301925050509350505050604051602081830303815290604052906001600160e01b0319166020820180516001600160e01b03838183161783525050505090506000600360009054906101000a90046001600160a01b03166001600160a01b031663679b6ded34600260009054906101000a90046001600160a01b031660008a33338c8c8b6040518a63ffffffff1660e01b815260040180896001600160a01b03168152602001888152602001878152602001866001600160a01b03168152602001856001600160a01b0316815260200184815260200183815260200180602001828103825283818151815260200191508051906020019080838360005b8381101561045757818101518382015260200161043f565b50505050905090810190601f1680156104845780820380516001836020036101000a031916815260200191505b5099505050505050505050506020604051808303818588803b1580156104a957600080fd5b505af11580156104bd573d6000803e3d6000fd5b50505050506040513d60208110156104d457600080fd5b505160405190915081907fde92b5b7839f4a2c640f5e3bbb66d415458dadc57a487b0c7fa562ed7c9c896f90600090a2979650505050505050565b6000546001600160a01b031690565b61052661073a565b6001600160a01b031661053761050f565b6001600160a01b031614610592576040805162461bcd60e51b815260206004820181905260248201527f4f776e61626c653a2063616c6c6572206973206e6f7420746865206f776e6572604482015290519081900360640190fd5b6001600160a01b0381166105d75760405162461bcd60e51b81526004018080602001828103825260508152602001806107656050913960600191505060405180910390fd5b600280546001600160a01b0319166001600160a01b0392909216919091179055565b6002546001600160a01b031681565b6001546001600160a01b031681565b61061f61073a565b6001600160a01b031661063061050f565b6001600160a01b03161461068b576040805162461bcd60e51b815260206004820181905260248201527f4f776e61626c653a2063616c6c6572206973206e6f7420746865206f776e6572604482015290519081900360640190fd5b6001600160a01b0381166106d05760405162461bcd60e51b815260040180806020018281038252602681526020018061073f6026913960400191505060405180910390fd5b600080546040516001600160a01b03808516939216917f8be0079c531659141344cd1fd0a4f28419497f9722a3daafe3b4186f6b6457e091a3600080546001600160a01b0319166001600160a01b0392909216919091179055565b6003546001600160a01b031681565b339056fe4f776e61626c653a206e6577206f776e657220697320746865207a65726f20616464726573734c314d65737361676552656c617965723a3a7570646174654c324d6573736167654578656375746f72205f6c324d6573736167654578656375746f7220697320746865207a65726f20616464726573734c314d65737361676552656c617965723a3a6f6e6c7954696d654c6f636b3a20556e617574686f72697a6564206d6573736167652073656e646572a264697066735822122023455ba9cf06aa5afc60fbc3c3ceed1c6fd900eaf6562011401f3f215a0739ae64736f6c63430007050033",
  "devdoc": {
    "kind": "dev",
    "methods": {
      "owner()": {
        "details": "Returns the address of the current owner."
      },
      "relayMessage(bytes,uint256,uint256,uint256)": {
        "params": {
          "payLoad": "message received from L1 that needs to be executed.*"
        }
      },
      "renounceOwnership()": {
        "details": "Leaves the contract without owner. It will not be possible to call `onlyOwner` functions anymore. Can only be called by the current owner. NOTE: Renouncing ownership will leave the contract without an owner, thereby removing any functionality that is only available to the owner."
      },
      "transferOwnership(address)": {
        "details": "Transfers ownership of the contract to a new account (`newOwner`). Can only be called by the current owner."
      },
      "updateL2MessageExecutor(address)": {
        "details": "Update the address of the L2MessageExecutor contract.",
        "params": {
          "_l2MessageExecutor": "the address of L2 contract used to relay L1 messages.*"
        }
      }
    },
    "version": 1
  },
  "userdoc": {
    "events": {
      "RetryableTicketCreated(uint256)": {
        "notice": "Emitted when a retryable ticket is created for relaying L1 message to L2."
      }
    },
    "kind": "user",
    "methods": {
      "inbox()": {
        "notice": "Address of arbitrum's L1 inbox contract."
      },
      "l2MessageExecutor()": {
        "notice": "Address of the L2MessageExecutor contract on arbitrum."
      },
      "relayMessage(bytes,uint256,uint256,uint256)": {
        "notice": "sends message received from timeLock to L2MessageExecutor."
      },
      "timeLock()": {
        "notice": "Address of the governance TimeLock contract."
      }
    },
    "version": 1
  },
  "storageLayout": {
    "storage": [
      {
        "astId": 674,
        "contract": "contracts/arbitrum/L1MessageRelayer.sol:L1MessageRelayer",
        "label": "_owner",
        "offset": 0,
        "slot": "0",
        "type": "t_address"
      },
      {
        "astId": 9031,
        "contract": "contracts/arbitrum/L1MessageRelayer.sol:L1MessageRelayer",
        "label": "timeLock",
        "offset": 0,
        "slot": "1",
        "type": "t_address"
      },
      {
        "astId": 9034,
        "contract": "contracts/arbitrum/L1MessageRelayer.sol:L1MessageRelayer",
        "label": "l2MessageExecutor",
        "offset": 0,
        "slot": "2",
        "type": "t_address"
      },
      {
        "astId": 9037,
        "contract": "contracts/arbitrum/L1MessageRelayer.sol:L1MessageRelayer",
        "label": "inbox",
        "offset": 0,
        "slot": "3",
        "type": "t_contract(IInbox)326"
      }
    ],
    "types": {
      "t_address": {
        "encoding": "inplace",
        "label": "address",
        "numberOfBytes": "20"
      },
      "t_contract(IInbox)326": {
        "encoding": "inplace",
        "label": "contract IInbox",
        "numberOfBytes": "20"
      }
    }
  }
}