{
  "address": "0x30743989937AFCF2Ccd9205046289Fa67524bef8",
  "abi": [
    {
      "inputs": [
        {
          "internalType": "address",
          "name": "_timeLock",
          "type": "address"
        },
        {
          "internalType": "address",
          "name": "_inbox",
          "type": "address"
        }
      ],
      "stateMutability": "nonpayable",
      "type": "constructor"
    },
    {
      "anonymous": false,
      "inputs": [
        {
          "indexed": true,
          "internalType": "address",
          "name": "previousOwner",
          "type": "address"
        },
        {
          "indexed": true,
          "internalType": "address",
          "name": "newOwner",
          "type": "address"
        }
      ],
      "name": "OwnershipTransferred",
      "type": "event"
    },
    {
      "anonymous": false,
      "inputs": [
        {
          "indexed": true,
          "internalType": "uint256",
          "name": "ticketId",
          "type": "uint256"
        }
      ],
      "name": "RetryableTicketCreated",
      "type": "event"
    },
    {
      "inputs": [],
      "name": "inbox",
      "outputs": [
        {
          "internalType": "contract IInbox",
          "name": "",
          "type": "address"
        }
      ],
      "stateMutability": "view",
      "type": "function"
    },
    {
      "inputs": [],
      "name": "owner",
      "outputs": [
        {
          "internalType": "address",
          "name": "",
          "type": "address"
        }
      ],
      "stateMutability": "view",
      "type": "function"
    },
    {
      "inputs": [
        {
          "internalType": "address",
          "name": "target",
          "type": "address"
        },
        {
          "internalType": "bytes",
          "name": "payLoad",
          "type": "bytes"
        },
        {
          "internalType": "uint256",
          "name": "maxSubmissionCost",
          "type": "uint256"
        },
        {
          "internalType": "uint256",
          "name": "maxGas",
          "type": "uint256"
        },
        {
          "internalType": "uint256",
          "name": "gasPriceBid",
          "type": "uint256"
        }
      ],
      "name": "relayMessage",
      "outputs": [
        {
          "internalType": "uint256",
          "name": "",
          "type": "uint256"
        }
      ],
      "stateMutability": "payable",
      "type": "function"
    },
    {
      "inputs": [],
      "name": "renounceOwnership",
      "outputs": [],
      "stateMutability": "nonpayable",
      "type": "function"
    },
    {
      "inputs": [],
      "name": "timeLock",
      "outputs": [
        {
          "internalType": "address",
          "name": "",
          "type": "address"
        }
      ],
      "stateMutability": "view",
      "type": "function"
    },
    {
      "inputs": [
        {
          "internalType": "address",
          "name": "newOwner",
          "type": "address"
        }
      ],
      "name": "transferOwnership",
      "outputs": [],
      "stateMutability": "nonpayable",
      "type": "function"
    }
  ],
  "transactionHash": "0xce37462c994221d80b6d585d3c5d4fef1d9d1708f91b86d12199d867d807021a",
  "args": [
    "0x6A56BbF8823794C1841c02061627E6349288403E",
    "0x6BEbC4925716945D46F0Ec336D5C2564F419682C"
  ],
  "numDeployments": 1,
  "solcInputHash": "5c91186ce59de7680b65d4ddddd80c54",
  "bytecode": "0x608060405234801561001057600080fd5b5060405161084a38038061084a8339818101604052604081101561003357600080fd5b5080516020909101516000610046610177565b600080546001600160a01b0319166001600160a01b0383169081178255604051929350917f8be0079c531659141344cd1fd0a4f28419497f9722a3daafe3b4186f6b6457e0908290a3506001600160a01b0382166100eb576040805162461bcd60e51b815260206004820181905260248201527f5f74696d654c6f636b2063616e277420746865207a65726f2061646472657373604482015290519081900360640190fd5b6001600160a01b038116610146576040805162461bcd60e51b815260206004820152601d60248201527f5f696e626f782063616e277420746865207a65726f2061646472657373000000604482015290519081900360640190fd5b600180546001600160a01b039384166001600160a01b0319918216179091556002805492909316911617905561017b565b3390565b6106c08061018a6000396000f3fe6080604052600436106100555760003560e01c8063715018a61461005a5780638cefc434146100715780638da5cb5b14610144578063d085835a14610175578063f2fde38b1461018a578063fb0e722b146101bd575b600080fd5b34801561006657600080fd5b5061006f6101d2565b005b610132600480360360a081101561008757600080fd5b6001600160a01b0382351691908101906040810160208201356401000000008111156100b257600080fd5b8201836020820111156100c457600080fd5b803590602001918460018302840111640100000000831117156100e657600080fd5b91908080601f0160208091040260200160405190810160405280939291908181526020018383808284376000920191909152509295505082359350505060208101359060400135610287565b60408051918252519081900360200190f35b34801561015057600080fd5b506101596104e4565b604080516001600160a01b039092168252519081900360200190f35b34801561018157600080fd5b506101596104f3565b34801561019657600080fd5b5061006f600480360360208110156101ad57600080fd5b50356001600160a01b0316610502565b3480156101c957600080fd5b50610159610616565b6101da610625565b6001600160a01b03166101eb6104e4565b6001600160a01b031614610246576040805162461bcd60e51b815260206004820181905260248201527f4f776e61626c653a2063616c6c6572206973206e6f7420746865206f776e6572604482015290519081900360640190fd5b6040805162461bcd60e51b8152602060048201526011602482015270199d5b98dd1a5bdb88191a5cd8589b1959607a1b604482015290519081900360640190fd5b6001546000906001600160a01b031633146102d35760405162461bcd60e51b815260040180806020018281038252603b815260200180610650603b913960400191505060405180910390fd5b826001141561031d576040805162461bcd60e51b81526020600482015260116024820152706d61784761732063616e2774206265203160781b604482015290519081900360640190fd5b816001141561036c576040805162461bcd60e51b815260206004820152601660248201527567617350726963654269642063616e2774206265203160501b604482015290519081900360640190fd5b6000600260009054906101000a90046001600160a01b03166001600160a01b031663679b6ded348960008933338b8b8f6040518a63ffffffff1660e01b815260040180896001600160a01b03168152602001888152602001878152602001866001600160a01b03168152602001856001600160a01b0316815260200184815260200183815260200180602001828103825283818151815260200191508051906020019080838360005b8381101561042d578181015183820152602001610415565b50505050905090810190601f16801561045a5780820380516001836020036101000a031916815260200191505b5099505050505050505050506020604051808303818588803b15801561047f57600080fd5b505af1158015610493573d6000803e3d6000fd5b50505050506040513d60208110156104aa57600080fd5b505160405190915081907fde92b5b7839f4a2c640f5e3bbb66d415458dadc57a487b0c7fa562ed7c9c896f90600090a29695505050505050565b6000546001600160a01b031690565b6001546001600160a01b031681565b61050a610625565b6001600160a01b031661051b6104e4565b6001600160a01b031614610576576040805162461bcd60e51b815260206004820181905260248201527f4f776e61626c653a2063616c6c6572206973206e6f7420746865206f776e6572604482015290519081900360640190fd5b6001600160a01b0381166105bb5760405162461bcd60e51b815260040180806020018281038252602681526020018061062a6026913960400191505060405180910390fd5b600080546040516001600160a01b03808516939216917f8be0079c531659141344cd1fd0a4f28419497f9722a3daafe3b4186f6b6457e091a3600080546001600160a01b0319166001600160a01b0392909216919091179055565b6002546001600160a01b031681565b339056fe4f776e61626c653a206e6577206f776e657220697320746865207a65726f20616464726573734c314d65737361676552656c617965723a3a6f6e6c7954696d654c6f636b3a20556e617574686f72697a6564206d6573736167652073656e646572a26469706673582212201989498ce37004791ee0f22b6f058e8ca3401d549c5f00a2204bff524d89301364736f6c63430007050033",
  "devdoc": {
    "kind": "dev",
    "methods": {
      "owner()": {
        "details": "Returns the address of the current owner."
      },
      "relayMessage(address,bytes,uint256,uint256,uint256)": {
        "params": {
          "gasPriceBid": "same as gasPriceBid parameter of inbox.createRetryableTicket*",
          "maxGas": "same as maxGas parameter of inbox.createRetryableTicket",
          "maxSubmissionCost": "same as maxSubmissionCost parameter of inbox.createRetryableTicket",
          "payLoad": "message calldata that will be executed by l2MessageExecutorProxy.",
          "target": "address of the target contract on arbitrum."
        }
      },
      "renounceOwnership()": {
        "details": "Leaves the contract without owner. It will not be possible to call `onlyOwner` functions anymore. Can only be called by the current owner. NOTE: Renouncing ownership will leave the contract without an owner, thereby removing any functionality that is only available to the owner."
      },
      "transferOwnership(address)": {
        "details": "Transfers ownership of the contract to a new account (`newOwner`). Can only be called by the current owner."
      }
    },
    "version": 1
  },
  "userdoc": {
    "events": {
      "RetryableTicketCreated(uint256)": {
        "notice": "Emitted when a retryable ticket is created for relaying L1 message to L2."
      }
    },
    "kind": "user",
    "methods": {
      "inbox()": {
        "notice": "Address of arbitrum's L1 inbox contract."
      },
      "relayMessage(address,bytes,uint256,uint256,uint256)": {
        "notice": "sends message received from timeLock to L2MessageExecutorProxy."
      },
      "renounceOwnership()": {
        "notice": "renounceOwnership has been disabled so that the contract is never left without a onwer"
      },
      "timeLock()": {
        "notice": "Address of the governance TimeLock contract."
      }
    },
    "version": 1
  },
  "storageLayout": {
    "storage": [
      {
        "astId": 674,
        "contract": "contracts/arbitrum/L1MessageRelayer.sol:L1MessageRelayer",
        "label": "_owner",
        "offset": 0,
        "slot": "0",
        "type": "t_address"
      },
      {
        "astId": 10095,
        "contract": "contracts/arbitrum/L1MessageRelayer.sol:L1MessageRelayer",
        "label": "timeLock",
        "offset": 0,
        "slot": "1",
        "type": "t_address"
      },
      {
        "astId": 10098,
        "contract": "contracts/arbitrum/L1MessageRelayer.sol:L1MessageRelayer",
        "label": "inbox",
        "offset": 0,
        "slot": "2",
        "type": "t_contract(IInbox)326"
      }
    ],
    "types": {
      "t_address": {
        "encoding": "inplace",
        "label": "address",
        "numberOfBytes": "20"
      },
      "t_contract(IInbox)326": {
        "encoding": "inplace",
        "label": "contract IInbox",
        "numberOfBytes": "20"
      }
    }
  }
}