{
  "address": "0xE2dDFfC0d9D0151e633a247Fa96548fb12969131",
  "abi": [
    {
      "inputs": [
        {
          "internalType": "address",
          "name": "_timeLock",
          "type": "address"
        },
        {
          "internalType": "address",
          "name": "_inbox",
          "type": "address"
        }
      ],
      "stateMutability": "nonpayable",
      "type": "constructor"
    },
    {
      "anonymous": false,
      "inputs": [
        {
          "indexed": true,
          "internalType": "address",
          "name": "previousOwner",
          "type": "address"
        },
        {
          "indexed": true,
          "internalType": "address",
          "name": "newOwner",
          "type": "address"
        }
      ],
      "name": "OwnershipTransferred",
      "type": "event"
    },
    {
      "anonymous": false,
      "inputs": [
        {
          "indexed": true,
          "internalType": "uint256",
          "name": "ticketId",
          "type": "uint256"
        }
      ],
      "name": "RetryableTicketCreated",
      "type": "event"
    },
    {
      "inputs": [],
      "name": "inbox",
      "outputs": [
        {
          "internalType": "contract IInbox",
          "name": "",
          "type": "address"
        }
      ],
      "stateMutability": "view",
      "type": "function"
    },
    {
      "inputs": [],
      "name": "l2MessageExecutorProxy",
      "outputs": [
        {
          "internalType": "address",
          "name": "",
          "type": "address"
        }
      ],
      "stateMutability": "view",
      "type": "function"
    },
    {
      "inputs": [],
      "name": "owner",
      "outputs": [
        {
          "internalType": "address",
          "name": "",
          "type": "address"
        }
      ],
      "stateMutability": "view",
      "type": "function"
    },
    {
      "inputs": [
        {
          "internalType": "bytes",
          "name": "payLoad",
          "type": "bytes"
        },
        {
          "internalType": "uint256",
          "name": "maxSubmissionCost",
          "type": "uint256"
        },
        {
          "internalType": "uint256",
          "name": "maxGas",
          "type": "uint256"
        },
        {
          "internalType": "uint256",
          "name": "gasPriceBid",
          "type": "uint256"
        }
      ],
      "name": "relayMessage",
      "outputs": [
        {
          "internalType": "uint256",
          "name": "",
          "type": "uint256"
        }
      ],
      "stateMutability": "payable",
      "type": "function"
    },
    {
      "inputs": [],
      "name": "renounceOwnership",
      "outputs": [],
      "stateMutability": "nonpayable",
      "type": "function"
    },
    {
      "inputs": [
        {
          "internalType": "address",
          "name": "_l2MessageExecutorProxy",
          "type": "address"
        }
      ],
      "name": "setL2MessageExecutorProxy",
      "outputs": [],
      "stateMutability": "nonpayable",
      "type": "function"
    },
    {
      "inputs": [],
      "name": "timeLock",
      "outputs": [
        {
          "internalType": "address",
          "name": "",
          "type": "address"
        }
      ],
      "stateMutability": "view",
      "type": "function"
    },
    {
      "inputs": [
        {
          "internalType": "address",
          "name": "newOwner",
          "type": "address"
        }
      ],
      "name": "transferOwnership",
      "outputs": [],
      "stateMutability": "nonpayable",
      "type": "function"
    },
    {
      "inputs": [
        {
          "internalType": "address",
          "name": "_l2MessageExecutorProxy",
          "type": "address"
        }
      ],
      "name": "updateL2MessageExecutorProxy",
      "outputs": [],
      "stateMutability": "nonpayable",
      "type": "function"
    }
  ],
  "transactionHash": "0xa90ec1eeda4fe9343f3fb8298382e485cf9043c42fe04323d2222d6844d54eac",
  "args": [
    "0x49Ae0618578D12cc06eE992C23DB683D8ADAf43E",
    "0x6BEbC4925716945D46F0Ec336D5C2564F419682C"
  ],
  "numDeployments": 2,
  "solcInputHash": "57fd964943961eb21329ffa8c2b6f646",
  "bytecode": "0x608060405234801561001057600080fd5b50604051610b6a380380610b6a8339818101604052604081101561003357600080fd5b5080516020909101516000610046610177565b600080546001600160a01b0319166001600160a01b0383169081178255604051929350917f8be0079c531659141344cd1fd0a4f28419497f9722a3daafe3b4186f6b6457e0908290a3506001600160a01b0382166100eb576040805162461bcd60e51b815260206004820181905260248201527f5f74696d654c6f636b2063616e277420746865207a65726f2061646472657373604482015290519081900360640190fd5b6001600160a01b038116610146576040805162461bcd60e51b815260206004820152601d60248201527f5f696e626f782063616e277420746865207a65726f2061646472657373000000604482015290519081900360640190fd5b600180546001600160a01b039384166001600160a01b0319918216179091556003805492909316911617905561017b565b3390565b6109e08061018a6000396000f3fe6080604052600436106100865760003560e01c8063a6040be911610059578063a6040be914610194578063d085835a146101c7578063f2fde38b146101dc578063f781d2111461020f578063fb0e722b1461022457610086565b80630cf9fdb01461008b578063715018a6146100c0578063885d6ba0146100d55780638da5cb5b14610163575b600080fd5b34801561009757600080fd5b506100be600480360360208110156100ae57600080fd5b50356001600160a01b0316610239565b005b3480156100cc57600080fd5b506100be6102e9565b610151600480360360808110156100eb57600080fd5b81019060208101813564010000000081111561010657600080fd5b82018360208201111561011857600080fd5b8035906020019184600183028401116401000000008311171561013a57600080fd5b91935091508035906020810135906040013561039e565b60408051918252519081900360200190f35b34801561016f57600080fd5b5061017861068d565b604080516001600160a01b039092168252519081900360200190f35b3480156101a057600080fd5b506100be600480360360208110156101b757600080fd5b50356001600160a01b031661069c565b3480156101d357600080fd5b50610178610758565b3480156101e857600080fd5b506100be600480360360208110156101ff57600080fd5b50356001600160a01b0316610767565b34801561021b57600080fd5b5061017861087b565b34801561023057600080fd5b5061017861088a565b6001546001600160a01b031633146102825760405162461bcd60e51b815260040180806020018281038252603b815260200180610970603b913960400191505060405180910390fd5b6001600160a01b0381166102c75760405162461bcd60e51b815260040180806020018281038252605a81526020018061089e605a913960600191505060405180910390fd5b600280546001600160a01b0319166001600160a01b0392909216919091179055565b6102f1610899565b6001600160a01b031661030261068d565b6001600160a01b03161461035d576040805162461bcd60e51b815260206004820181905260248201527f4f776e61626c653a2063616c6c6572206973206e6f7420746865206f776e6572604482015290519081900360640190fd5b6040805162461bcd60e51b8152602060048201526011602482015270199d5b98dd1a5bdb88191a5cd8589b1959607a1b604482015290519081900360640190fd5b6001546000906001600160a01b031633146103ea5760405162461bcd60e51b815260040180806020018281038252603b815260200180610970603b913960400191505060405180910390fd5b8260011415610434576040805162461bcd60e51b81526020600482015260116024820152706d61784761732063616e2774206265203160781b604482015290519081900360640190fd5b8160011415610483576040805162461bcd60e51b815260206004820152601660248201527567617350726963654269642063616e2774206265203160501b604482015290519081900360640190fd5b606063e0299bf560e01b878760405160240180806020018281038252848482818152602001925080828437600081840152601f19601f8201169050808301925050509350505050604051602081830303815290604052906001600160e01b0319166020820180516001600160e01b03838183161783525050505090506000600360009054906101000a90046001600160a01b03166001600160a01b031663679b6ded34600260009054906101000a90046001600160a01b031660008a33338c8c8b6040518a63ffffffff1660e01b815260040180896001600160a01b03168152602001888152602001878152602001866001600160a01b03168152602001856001600160a01b0316815260200184815260200183815260200180602001828103825283818151815260200191508051906020019080838360005b838110156105d55781810151838201526020016105bd565b50505050905090810190601f1680156106025780820380516001836020036101000a031916815260200191505b5099505050505050505050506020604051808303818588803b15801561062757600080fd5b505af115801561063b573d6000803e3d6000fd5b50505050506040513d602081101561065257600080fd5b505160405190915081907fde92b5b7839f4a2c640f5e3bbb66d415458dadc57a487b0c7fa562ed7c9c896f90600090a2979650505050505050565b6000546001600160a01b031690565b6106a4610899565b6001600160a01b03166106b561068d565b6001600160a01b031614610710576040805162461bcd60e51b815260206004820181905260248201527f4f776e61626c653a2063616c6c6572206973206e6f7420746865206f776e6572604482015290519081900360640190fd5b6002546001600160a01b0316156102c75760405162461bcd60e51b815260040180806020018281038252605281526020018061091e6052913960600191505060405180910390fd5b6001546001600160a01b031681565b61076f610899565b6001600160a01b031661078061068d565b6001600160a01b0316146107db576040805162461bcd60e51b815260206004820181905260248201527f4f776e61626c653a2063616c6c6572206973206e6f7420746865206f776e6572604482015290519081900360640190fd5b6001600160a01b0381166108205760405162461bcd60e51b81526004018080602001828103825260268152602001806108f86026913960400191505060405180910390fd5b600080546040516001600160a01b03808516939216917f8be0079c531659141344cd1fd0a4f28419497f9722a3daafe3b4186f6b6457e091a3600080546001600160a01b0319166001600160a01b0392909216919091179055565b6002546001600160a01b031681565b6003546001600160a01b031681565b339056fe4c314d65737361676552656c617965723a3a7570646174654c324d6573736167654578656375746f7250726f7879205f6c324d6573736167654578656375746f7250726f787920697320746865207a65726f20616464726573734f776e61626c653a206e6577206f776e657220697320746865207a65726f20616464726573734c314d65737361676552656c617965723a3a7365744c324d6573736167654578656375746f7250726f78793a206c324d6573736167654578656375746f7250726f787920697320616c7265616479207365744c314d65737361676552656c617965723a3a6f6e6c7954696d654c6f636b3a20556e617574686f72697a6564206d6573736167652073656e646572a2646970667358221220e2372f275f2526bd64611d469b485e1ff2add76871131e84288bc0cf9210abdd64736f6c63430007050033",
  "devdoc": {
    "kind": "dev",
    "methods": {
      "owner()": {
        "details": "Returns the address of the current owner."
      },
      "relayMessage(bytes,uint256,uint256,uint256)": {
        "params": {
          "payLoad": "message received from L1 that needs to be executed.*"
        }
      },
      "renounceOwnership()": {
        "details": "Leaves the contract without owner. It will not be possible to call `onlyOwner` functions anymore. Can only be called by the current owner. NOTE: Renouncing ownership will leave the contract without an owner, thereby removing any functionality that is only available to the owner."
      },
      "setL2MessageExecutorProxy(address)": {
        "details": "Initialises the address of the l2MessageExecutorProxy contract.",
        "params": {
          "_l2MessageExecutorProxy": "the address of L2 contract used to relay L1 messages.*"
        }
      },
      "transferOwnership(address)": {
        "details": "Transfers ownership of the contract to a new account (`newOwner`). Can only be called by the current owner."
      },
      "updateL2MessageExecutorProxy(address)": {
        "details": "Update the address of the L2MessageExecutorProxy contract.",
        "params": {
          "_l2MessageExecutorProxy": "the address of L2 contract used to relay L1 messages.*"
        }
      }
    },
    "version": 1
  },
  "userdoc": {
    "events": {
      "RetryableTicketCreated(uint256)": {
        "notice": "Emitted when a retryable ticket is created for relaying L1 message to L2."
      }
    },
    "kind": "user",
    "methods": {
      "inbox()": {
        "notice": "Address of arbitrum's L1 inbox contract."
      },
      "l2MessageExecutorProxy()": {
        "notice": "Address of the L2MessageExecutorProxy contract on arbitrum."
      },
      "relayMessage(bytes,uint256,uint256,uint256)": {
        "notice": "sends message received from timeLock to L2MessageExecutorProxy."
      },
      "renounceOwnership()": {
        "notice": "renounceOwnership has been disabled so that the contract is never left without a onwer"
      },
      "timeLock()": {
        "notice": "Address of the governance TimeLock contract."
      }
    },
    "version": 1
  },
  "storageLayout": {
    "storage": [
      {
        "astId": 674,
        "contract": "contracts/arbitrum/L1MessageRelayer.sol:L1MessageRelayer",
        "label": "_owner",
        "offset": 0,
        "slot": "0",
        "type": "t_address"
      },
      {
        "astId": 9727,
        "contract": "contracts/arbitrum/L1MessageRelayer.sol:L1MessageRelayer",
        "label": "timeLock",
        "offset": 0,
        "slot": "1",
        "type": "t_address"
      },
      {
        "astId": 9730,
        "contract": "contracts/arbitrum/L1MessageRelayer.sol:L1MessageRelayer",
        "label": "l2MessageExecutorProxy",
        "offset": 0,
        "slot": "2",
        "type": "t_address"
      },
      {
        "astId": 9733,
        "contract": "contracts/arbitrum/L1MessageRelayer.sol:L1MessageRelayer",
        "label": "inbox",
        "offset": 0,
        "slot": "3",
        "type": "t_contract(IInbox)326"
      }
    ],
    "types": {
      "t_address": {
        "encoding": "inplace",
        "label": "address",
        "numberOfBytes": "20"
      },
      "t_contract(IInbox)326": {
        "encoding": "inplace",
        "label": "contract IInbox",
        "numberOfBytes": "20"
      }
    }
  }
}