{
  "address": "0x8F7159ceD91E66Be8ed94cd3325cd29b099c758F",
  "abi": [
    {
      "inputs": [
        {
          "internalType": "address",
          "name": "_owner",
          "type": "address"
        },
        {
          "internalType": "address",
          "name": "_arbitrumMessageExecutor",
          "type": "address"
        }
      ],
      "stateMutability": "nonpayable",
      "type": "constructor"
    },
    {
      "anonymous": false,
      "inputs": [
        {
          "indexed": true,
          "internalType": "address",
          "name": "previousOwner",
          "type": "address"
        },
        {
          "indexed": true,
          "internalType": "address",
          "name": "newOwner",
          "type": "address"
        }
      ],
      "name": "OwnershipTransferred",
      "type": "event"
    },
    {
      "anonymous": false,
      "inputs": [
        {
          "indexed": true,
          "internalType": "address",
          "name": "target",
          "type": "address"
        },
        {
          "indexed": false,
          "internalType": "uint256",
          "name": "value",
          "type": "uint256"
        },
        {
          "indexed": false,
          "internalType": "string",
          "name": "signature",
          "type": "string"
        },
        {
          "indexed": false,
          "internalType": "bytes",
          "name": "data",
          "type": "bytes"
        }
      ],
      "name": "TransactionExecuted",
      "type": "event"
    },
    {
      "anonymous": false,
      "inputs": [
        {
          "indexed": false,
          "internalType": "address",
          "name": "oldMessageExecutor",
          "type": "address"
        },
        {
          "indexed": false,
          "internalType": "address",
          "name": "newMessageExecutor",
          "type": "address"
        }
      ],
      "name": "UpdatedMessageExecutor",
      "type": "event"
    },
    {
      "inputs": [],
      "name": "arbitrumMessageExecutor",
      "outputs": [
        {
          "internalType": "address",
          "name": "",
          "type": "address"
        }
      ],
      "stateMutability": "view",
      "type": "function"
    },
    {
      "inputs": [
        {
          "internalType": "address",
          "name": "target",
          "type": "address"
        },
        {
          "internalType": "uint256",
          "name": "value",
          "type": "uint256"
        },
        {
          "internalType": "string",
          "name": "signature",
          "type": "string"
        },
        {
          "internalType": "bytes",
          "name": "data",
          "type": "bytes"
        }
      ],
      "name": "executeTransaction",
      "outputs": [
        {
          "internalType": "bytes",
          "name": "",
          "type": "bytes"
        }
      ],
      "stateMutability": "payable",
      "type": "function"
    },
    {
      "inputs": [],
      "name": "owner",
      "outputs": [
        {
          "internalType": "address",
          "name": "",
          "type": "address"
        }
      ],
      "stateMutability": "view",
      "type": "function"
    },
    {
      "inputs": [],
      "name": "renounceOwnership",
      "outputs": [],
      "stateMutability": "nonpayable",
      "type": "function"
    },
    {
      "inputs": [
        {
          "internalType": "address",
          "name": "_to",
          "type": "address"
        }
      ],
      "name": "retrieveETH",
      "outputs": [],
      "stateMutability": "nonpayable",
      "type": "function"
    },
    {
      "inputs": [
        {
          "internalType": "address",
          "name": "newOwner",
          "type": "address"
        }
      ],
      "name": "transferOwnership",
      "outputs": [],
      "stateMutability": "nonpayable",
      "type": "function"
    },
    {
      "inputs": [
        {
          "internalType": "address",
          "name": "newMessageExecutor",
          "type": "address"
        }
      ],
      "name": "updateMessageExecutor",
      "outputs": [],
      "stateMutability": "nonpayable",
      "type": "function"
    },
    {
      "stateMutability": "payable",
      "type": "receive"
    }
  ],
  "transactionHash": "0x9d34e60267a5736ac9372c5cf0f9223f216f994b32c2e5adff462246e962729d",
  "args": [
    "0x1a7Ab9Cf14F1997845A91cF2f549753BA9A1496e",
    "0x1a7Ab9Cf14F1997845A91cF2f549753BA9A1496e"
  ],
  "numDeployments": 1,
  "solcInputHash": "df2a634369016dfaa0a954e162dd8181",
  "bytecode": "0x608060405234801561001057600080fd5b50604051610cb4380380610cb48339818101604052604081101561003357600080fd5b50805160209091015181806001600160a01b0381166100835760405162461bcd60e51b815260040180806020018281038252602e815260200180610c86602e913960400191505060405180910390fd5b600080546001600160a01b0319166001600160a01b0383811691909117808355604051911691907f8be0079c531659141344cd1fd0a4f28419497f9722a3daafe3b4186f6b6457e0908290a350506001600160a01b0381166101165760405162461bcd60e51b8152600401808060200182810382526034815260200180610c526034913960400191505060405180910390fd5b600180546001600160a01b0319166001600160a01b039290921691909117905550610b0c806101466000396000f3fe6080604052600436106100745760003560e01c80635e8249761161004e5780635e8249761461029d578063715018a6146102d05780638da5cb5b146102e5578063f2fde38b146102fa5761007b565b806310a76fb1146100805780632224fa25146100b5578063297d672a1461026c5761007b565b3661007b57005b600080fd5b34801561008c57600080fd5b506100b3600480360360208110156100a357600080fd5b50356001600160a01b031661032d565b005b6101f7600480360360808110156100cb57600080fd5b6001600160a01b03823516916020810135918101906060810160408201356401000000008111156100fb57600080fd5b82018360208201111561010d57600080fd5b8035906020019184600183028401116401000000008311171561012f57600080fd5b91908080601f016020809104026020016040519081016040528093929190818152602001838380828437600092019190915250929594936020810193503591505064010000000081111561018257600080fd5b82018360208201111561019457600080fd5b803590602001918460018302840111640100000000831117156101b657600080fd5b91908080601f0160208091040260200160405190810160405280939291908181526020018383808284376000920191909152509295506103f8945050505050565b6040805160208082528351818301528351919283929083019185019080838360005b83811015610231578181015183820152602001610219565b50505050905090810190601f16801561025e5780820380516001836020036101000a031916815260200191505b509250505060405180910390f35b34801561027857600080fd5b50610281610723565b604080516001600160a01b039092168252519081900360200190f35b3480156102a957600080fd5b506100b3600480360360208110156102c057600080fd5b50356001600160a01b0316610732565b3480156102dc57600080fd5b506100b361082a565b3480156102f157600080fd5b506102816108bd565b34801561030657600080fd5b506100b36004803603602081101561031d57600080fd5b50356001600160a01b03166108cc565b6001546001600160a01b031633146103765760405162461bcd60e51b815260040180806020018281038252602b815260200180610a7d602b913960400191505060405180910390fd5b6001600160a01b0381166103bb5760405162461bcd60e51b815260040180806020018281038252602d815260200180610a1d602d913960400191505060405180910390fd5b60405147906001600160a01b0383169082156108fc029083906000818181858888f193505050501580156103f3573d6000803e3d6000fd5b505050565b6001546060906001600160a01b031633146104445760405162461bcd60e51b815260040180806020018281038252602b815260200180610a7d602b913960400191505060405180910390fd5b60608351600014156104575750816104da565b83805190602001208360405160200180836001600160e01b031916815260040182805190602001908083835b602083106104a25780518252601f199092019160209182019101610483565b6001836020036101000a0380198251168184511680821785525050505050509050019250505060405160208183030381529060405290505b6001600160a01b03861661051f5760405162461bcd60e51b8152600401808060200182810382526033815260200180610a4a6033913960400191505060405180910390fd5b60006060876001600160a01b031687846040518082805190602001908083835b6020831061055e5780518252601f19909201916020918201910161053f565b6001836020036101000a03801982511681845116808217855250505050505090500191505060006040518083038185875af1925050503d80600081146105c0576040519150601f19603f3d011682016040523d82523d6000602084013e6105c5565b606091505b5091509150816106065760405162461bcd60e51b815260040180806020018281038252603e8152602001806109b6603e913960400191505060405180910390fd5b876001600160a01b03167f02351f450e2fc766dda692922cd0e080a07d702d68757f2154bf686ee052be6e888888604051808481526020018060200180602001838103835285818151815260200191508051906020019080838360005b8381101561067b578181015183820152602001610663565b50505050905090810190601f1680156106a85780820380516001836020036101000a031916815260200191505b50838103825284518152845160209182019186019080838360005b838110156106db5781810151838201526020016106c3565b50505050905090810190601f1680156107085780820380516001836020036101000a031916815260200191505b509550505050505060405180910390a2979650505050505050565b6001546001600160a01b031681565b6001546001600160a01b0316331461077b5760405162461bcd60e51b815260040180806020018281038252602b815260200180610a7d602b913960400191505060405180910390fd5b6001600160a01b0381166107c05760405162461bcd60e51b815260040180806020018281038252602f815260200180610aa8602f913960400191505060405180910390fd5b600154604080516001600160a01b039283168152918316602083015280517f94456adb4b9812662b64d8ac32954e002653707af1ff17cc356ccd5cc119c2699281900390910190a1600180546001600160a01b0319166001600160a01b0392909216919091179055565b6001546001600160a01b031633146108735760405162461bcd60e51b815260040180806020018281038252602b815260200180610a7d602b913960400191505060405180910390fd5b600080546040516001600160a01b03909116907f8be0079c531659141344cd1fd0a4f28419497f9722a3daafe3b4186f6b6457e0908390a3600080546001600160a01b0319169055565b6000546001600160a01b031681565b6001546001600160a01b031633146109155760405162461bcd60e51b815260040180806020018281038252602b815260200180610a7d602b913960400191505060405180910390fd5b6001600160a01b03811661095a5760405162461bcd60e51b81526004018080602001828103825260298152602001806109f46029913960400191505060405180910390fd5b600080546040516001600160a01b03808516939216917f8be0079c531659141344cd1fd0a4f28419497f9722a3daafe3b4186f6b6457e091a3600080546001600160a01b0319166001600160a01b039290921691909117905556fe4954726561737572793a3a657865637574655472616e73616374696f6e3a205472616e73616374696f6e20657865637574696f6e2072657665727465642e50726f70726965746f723a206e6577206f776e657220697320746865207a65726f20616464726573734954726561737572793a3a72657472696576654554483a20616464726573732063616e2774206265207a65726f4954726561737572793a3a657865637574655472616e73616374696f6e3a207461726765742063616e2774206265207a65726f417262697472756d54726561737572793a203a2063616c6c6572206973206e6f7420746865206f776e6572417262697472756d54726561737572793a206e6577206f776e657220697320746865207a65726f2061646472657373a2646970667358221220e4de75687f700ef0d05afc75c2124cc3f4aa68c8d82e3ed7e58f9590e251086264736f6c63430007050033417262697472756d54726561737572793a3a636f6e7374727563746f723a20616464726573732063616e2774206265207a65726f50726f70726965746f723a3a636f6e7374727563746f723a20616464726573732063616e2774206265207a65726f",
  "devdoc": {
    "author": "Cryptex.finance",
    "kind": "dev",
    "methods": {
      "constructor": {
        "params": {
          "_arbitrumMessageExecutor": "address of the arbitrum L2MessageExecutor contract",
          "_owner": "the owner of the contract"
        }
      },
      "executeTransaction(address,uint256,string,bytes)": {
        "details": "Only owner can call it",
        "params": {
          "data": "bytes",
          "signature": "string",
          "target": "address",
          "value": "uint256"
        }
      },
      "renounceOwnership()": {
        "details": "Leaves the contract without owner. It will not be possible to call `onlyOwner` functions anymore. Can only be called by the current owner. NOTE: Renouncing ownership will leave the contract without an owner, thereby removing any functionality that is only available to the owner."
      },
      "retrieveETH(address)": {
        "details": "Only owner can call it",
        "params": {
          "_to": "address"
        }
      },
      "transferOwnership(address)": {
        "details": "Transfers ownership of the contract to a new account (`newOwner`). Can only be called by the current owner."
      },
      "updateMessageExecutor(address)": {
        "params": {
          "newMessageExecutor": "address of the new L2MessageExecutor contract*"
        }
      }
    },
    "title": "TCAP Arbitrum Treasury",
    "version": 1
  },
  "userdoc": {
    "events": {
      "TransactionExecuted(address,uint256,string,bytes)": {
        "notice": "An event emitted when a transaction is executed"
      },
      "UpdatedMessageExecutor(address,address)": {
        "notice": "event emitted when arbitrumMessageExecutor is updated."
      }
    },
    "kind": "user",
    "methods": {
      "arbitrumMessageExecutor()": {
        "notice": "Address of the arbitrum L2MessageExecutor contract."
      },
      "constructor": {
        "notice": "Constructor"
      },
      "executeTransaction(address,uint256,string,bytes)": {
        "notice": "Allows the owner to execute custom transactions"
      },
      "retrieveETH(address)": {
        "notice": "Retrieves the eth stuck on the treasury"
      },
      "updateMessageExecutor(address)": {
        "notice": "updates arbitrumMessageExecutor address"
      }
    },
    "notice": "This contract will hold the assets generated by the arbitrum network.",
    "version": 1
  },
  "storageLayout": {
    "storage": [
      {
        "astId": 7895,
        "contract": "contracts/arbitrum/ArbitrumTreasury.sol:ArbitrumTreasury",
        "label": "owner",
        "offset": 0,
        "slot": "0",
        "type": "t_address"
      },
      {
        "astId": 9117,
        "contract": "contracts/arbitrum/ArbitrumTreasury.sol:ArbitrumTreasury",
        "label": "arbitrumMessageExecutor",
        "offset": 0,
        "slot": "1",
        "type": "t_address"
      }
    ],
    "types": {
      "t_address": {
        "encoding": "inplace",
        "label": "address",
        "numberOfBytes": "20"
      }
    }
  }
}