{
  "address": "0x464e8536e552Be1a969d6334D0A317C1e022abbb",
  "abi": [
    {
      "inputs": [
        {
          "internalType": "address",
          "name": "_owner",
          "type": "address"
        }
      ],
      "stateMutability": "nonpayable",
      "type": "constructor"
    },
    {
      "anonymous": false,
      "inputs": [
        {
          "indexed": true,
          "internalType": "address",
          "name": "previousOwner",
          "type": "address"
        },
        {
          "indexed": true,
          "internalType": "address",
          "name": "newOwner",
          "type": "address"
        }
      ],
      "name": "OwnershipTransferred",
      "type": "event"
    },
    {
      "anonymous": false,
      "inputs": [
        {
          "indexed": true,
          "internalType": "address",
          "name": "target",
          "type": "address"
        },
        {
          "indexed": false,
          "internalType": "uint256",
          "name": "value",
          "type": "uint256"
        },
        {
          "indexed": false,
          "internalType": "string",
          "name": "signature",
          "type": "string"
        },
        {
          "indexed": false,
          "internalType": "bytes",
          "name": "data",
          "type": "bytes"
        }
      ],
      "name": "TransactionExecuted",
      "type": "event"
    },
    {
      "inputs": [
        {
          "internalType": "address",
          "name": "target",
          "type": "address"
        },
        {
          "internalType": "uint256",
          "name": "value",
          "type": "uint256"
        },
        {
          "internalType": "string",
          "name": "signature",
          "type": "string"
        },
        {
          "internalType": "bytes",
          "name": "data",
          "type": "bytes"
        }
      ],
      "name": "executeTransaction",
      "outputs": [
        {
          "internalType": "bytes",
          "name": "",
          "type": "bytes"
        }
      ],
      "stateMutability": "payable",
      "type": "function"
    },
    {
      "inputs": [],
      "name": "owner",
      "outputs": [
        {
          "internalType": "address",
          "name": "",
          "type": "address"
        }
      ],
      "stateMutability": "view",
      "type": "function"
    },
    {
      "inputs": [],
      "name": "renounceOwnership",
      "outputs": [],
      "stateMutability": "nonpayable",
      "type": "function"
    },
    {
      "inputs": [
        {
          "internalType": "address",
          "name": "_to",
          "type": "address"
        }
      ],
      "name": "retrieveETH",
      "outputs": [],
      "stateMutability": "nonpayable",
      "type": "function"
    },
    {
      "inputs": [
        {
          "internalType": "address",
          "name": "newOwner",
          "type": "address"
        }
      ],
      "name": "transferOwnership",
      "outputs": [],
      "stateMutability": "nonpayable",
      "type": "function"
    },
    {
      "stateMutability": "payable",
      "type": "receive"
    }
  ],
  "transactionHash": "0x03feff92978ee92a1734326fe28a467bdfae0841900f9b582fe77e21535d5223",
  "args": [
    "0x4D51f466D4c6072d6F07A082ffD476bafB110Faf"
  ],
  "numDeployments": 1,
  "solcInputHash": "5c91186ce59de7680b65d4ddddd80c54",
  "bytecode": "0x608060405234801561001057600080fd5b50604051610a94380380610a948339818101604052602081101561003357600080fd5b505180806001600160a01b03811661007c5760405162461bcd60e51b815260040180806020018281038252602e815260200180610a66602e913960400191505060405180910390fd5b600080546001600160a01b0319166001600160a01b0383811691909117808355604051911691907f8be0079c531659141344cd1fd0a4f28419497f9722a3daafe3b4186f6b6457e0908290a350505061098c806100da6000396000f3fe60806040526004361061004e5760003560e01c806310a76fb11461005a5780632224fa251461008f578063715018a6146102465780638da5cb5b1461025b578063f2fde38b1461028c57610055565b3661005557005b600080fd5b34801561006657600080fd5b5061008d6004803603602081101561007d57600080fd5b50356001600160a01b03166102bf565b005b6101d1600480360360808110156100a557600080fd5b6001600160a01b03823516916020810135918101906060810160408201356401000000008111156100d557600080fd5b8201836020820111156100e757600080fd5b8035906020019184600183028401116401000000008311171561010957600080fd5b91908080601f016020809104026020016040519081016040528093929190818152602001838380828437600092019190915250929594936020810193503591505064010000000081111561015c57600080fd5b82018360208201111561016e57600080fd5b8035906020019184600183028401116401000000008311171561019057600080fd5b91908080601f01602080910402602001604051908101604052809392919081815260200183838082843760009201919091525092955061038a945050505050565b6040805160208082528351818301528351919283929083019185019080838360005b8381101561020b5781810151838201526020016101f3565b50505050905090810190601f1680156102385780820380516001836020036101000a031916815260200191505b509250505060405180910390f35b34801561025257600080fd5b5061008d6106b5565b34801561026757600080fd5b50610270610735565b604080516001600160a01b039092168252519081900360200190f35b34801561029857600080fd5b5061008d600480360360208110156102af57600080fd5b50356001600160a01b0316610744565b6000546001600160a01b031633146103085760405162461bcd60e51b81526004018080602001828103825260238152602001806108fe6023913960400191505060405180910390fd5b6001600160a01b03811661034d5760405162461bcd60e51b81526004018080602001828103825260308152602001806108ce6030913960400191505060405180910390fd5b60405147906001600160a01b0383169082156108fc029083906000818181858888f19350505050158015610385573d6000803e3d6000fd5b505050565b6000546060906001600160a01b031633146103d65760405162461bcd60e51b81526004018080602001828103825260238152602001806108fe6023913960400191505060405180910390fd5b60608351600014156103e957508161046c565b83805190602001208360405160200180836001600160e01b031916815260040182805190602001908083835b602083106104345780518252601f199092019160209182019101610415565b6001836020036101000a0380198251168184511680821785525050505050509050019250505060405160208183030381529060405290505b6001600160a01b0386166104b15760405162461bcd60e51b81526004018080602001828103825260368152602001806109216036913960400191505060405180910390fd5b60006060876001600160a01b031687846040518082805190602001908083835b602083106104f05780518252601f1990920191602091820191016104d1565b6001836020036101000a03801982511681845116808217855250505050505090500191505060006040518083038185875af1925050503d8060008114610552576040519150601f19603f3d011682016040523d82523d6000602084013e610557565b606091505b5091509150816105985760405162461bcd60e51b815260040180806020018281038252604181526020018061082e6041913960600191505060405180910390fd5b876001600160a01b03167f02351f450e2fc766dda692922cd0e080a07d702d68757f2154bf686ee052be6e888888604051808481526020018060200180602001838103835285818151815260200191508051906020019080838360005b8381101561060d5781810151838201526020016105f5565b50505050905090810190601f16801561063a5780820380516001836020036101000a031916815260200191505b50838103825284518152845160209182019186019080838360005b8381101561066d578181015183820152602001610655565b50505050905090810190601f16801561069a5780820380516001836020036101000a031916815260200191505b509550505050505060405180910390a2979650505050505050565b6000546001600160a01b031633146106fe5760405162461bcd60e51b81526004018080602001828103825260238152602001806108fe6023913960400191505060405180910390fd5b60405162461bcd60e51b815260040180806020018281038252603681526020018061086f6036913960400191505060405180910390fd5b6000546001600160a01b031681565b6000546001600160a01b0316331461078d5760405162461bcd60e51b81526004018080602001828103825260238152602001806108fe6023913960400191505060405180910390fd5b6001600160a01b0381166107d25760405162461bcd60e51b81526004018080602001828103825260298152602001806108a56029913960400191505060405180910390fd5b600080546040516001600160a01b03808516939216917f8be0079c531659141344cd1fd0a4f28419497f9722a3daafe3b4186f6b6457e091a3600080546001600160a01b0319166001600160a01b039290921691909117905556fe4261736554726561737572793a3a657865637574655472616e73616374696f6e3a205472616e73616374696f6e20657865637574696f6e2072657665727465642e417262697472756d54726561737572793a3a72656e6f756e63654f776e6572736869703a2066756e6374696f6e2064697361626c656450726f70726965746f723a206e6577206f776e657220697320746865207a65726f20616464726573734261736554726561737572793a3a72657472696576654554483a20616464726573732063616e2774206265207a65726f50726f70726965746f723a2063616c6c6572206973206e6f7420746865206f776e65724261736554726561737572793a3a657865637574655472616e73616374696f6e3a207461726765742063616e2774206265207a65726fa2646970667358221220ca403b920ba852545992466d905bd65c86500d6273c94a490abf3ea2f9bd706a64736f6c6343000705003350726f70726965746f723a3a636f6e7374727563746f723a20616464726573732063616e2774206265207a65726f",
  "devdoc": {
    "author": "Cryptex.finance",
    "kind": "dev",
    "methods": {
      "constructor": {
        "params": {
          "_owner": "the owner of the contract*"
        }
      },
      "executeTransaction(address,uint256,string,bytes)": {
        "details": "Only owner can call it",
        "params": {
          "data": "bytes",
          "signature": "string",
          "target": "address",
          "value": "uint256"
        }
      },
      "renounceOwnership()": {
        "details": "Leaves the contract without owner. It will not be possible to call `onlyOwner` functions anymore. Can only be called by the current owner. NOTE: Renouncing ownership will leave the contract without an owner, thereby removing any functionality that is only available to the owner."
      },
      "retrieveETH(address)": {
        "details": "Only owner can call it",
        "params": {
          "_to": "address"
        }
      },
      "transferOwnership(address)": {
        "details": "Transfers ownership of the contract to a new account (`newOwner`). Can only be called by the current owner."
      }
    },
    "title": "TCAP Arbitrum Treasury",
    "version": 1
  },
  "userdoc": {
    "events": {
      "TransactionExecuted(address,uint256,string,bytes)": {
        "notice": "An event emitted when a transaction is executed"
      }
    },
    "kind": "user",
    "methods": {
      "constructor": {
        "notice": "Constructor"
      },
      "executeTransaction(address,uint256,string,bytes)": {
        "notice": "Allows the owner to execute custom transactions"
      },
      "renounceOwnership()": {
        "notice": "renounceOwnership has been disabled so that the contract is never left without a owner"
      },
      "retrieveETH(address)": {
        "notice": "Retrieves the eth stuck on the treasury"
      }
    },
    "notice": "This contract will hold the assets generated by the arbitrum network.",
    "version": 1
  },
  "storageLayout": {
    "storage": [
      {
        "astId": 8898,
        "contract": "contracts/arbitrum/ArbitrumTreasury.sol:ArbitrumTreasury",
        "label": "owner",
        "offset": 0,
        "slot": "0",
        "type": "t_address"
      }
    ],
    "types": {
      "t_address": {
        "encoding": "inplace",
        "label": "address",
        "numberOfBytes": "20"
      }
    }
  }
}