{
  "address": "0x9409Ac28260E60e26f5475526cb9F7315edddd17",
  "abi": [
    {
      "inputs": [
        {
          "internalType": "address",
          "name": "_l1MessageRelayer",
          "type": "address"
        }
      ],
      "stateMutability": "nonpayable",
      "type": "constructor"
    },
    {
      "inputs": [
        {
          "internalType": "bytes",
          "name": "payLoad",
          "type": "bytes"
        }
      ],
      "name": "executeMessage",
      "outputs": [],
      "stateMutability": "nonpayable",
      "type": "function"
    },
    {
      "inputs": [],
      "name": "l1MessageRelayer",
      "outputs": [
        {
          "internalType": "address",
          "name": "",
          "type": "address"
        }
      ],
      "stateMutability": "view",
      "type": "function"
    },
    {
      "inputs": [
        {
          "internalType": "address",
          "name": "_l1MessageRelayer",
          "type": "address"
        }
      ],
      "name": "updateL2MessageRelayer",
      "outputs": [],
      "stateMutability": "nonpayable",
      "type": "function"
    }
  ],
  "transactionHash": "0x69b886367971589b54ae7cd013d0663869ad9dbe4d8a4573ca48603c6026c5dd",
  "args": [
    "0xC77Ba9Ec1344a69C6b2CDF169F63E247dB237a68"
  ],
  "numDeployments": 1,
  "solcInputHash": "715fb65cf14e98749b78cc46605e4979",
  "bytecode": "0x608060405234801561001057600080fd5b506040516105cf3803806105cf8339818101604052602081101561003357600080fd5b50516001600081905580546001600160a01b039092166001600160a01b03199092169190911790556105658061006a6000396000f3fe608060405234801561001057600080fd5b50600436106100415760003560e01c80633d1f867914610046578063cc5d781e1461006a578063e0299bf514610092575b600080fd5b61004e610102565b604080516001600160a01b039092168252519081900360200190f35b6100906004803603602081101561008057600080fd5b50356001600160a01b0316610111565b005b610090600480360360208110156100a857600080fd5b8101906020810181356401000000008111156100c357600080fd5b8201836020820111156100d557600080fd5b803590602001918460018302840111640100000000831117156100f757600080fd5b5090925090506101b6565b6001546001600160a01b031681565b33301461014f5760405162461bcd60e51b815260040180806020018281038252602e815260200180610502602e913960400191505060405180910390fd5b6001600160a01b0381166101945760405162461bcd60e51b81526004018080602001828103825260508152602001806104746050913960600191505060405180910390fd5b600180546001600160a01b0319166001600160a01b0392909216919091179055565b6002600054141561020e576040805162461bcd60e51b815260206004820152601f60248201527f5265656e7472616e637947756172643a207265656e7472616e742063616c6c00604482015290519081900360640190fd5b6002600055600154610228906001600160a01b031661041c565b6001600160a01b0316336001600160a01b0316146102775760405162461bcd60e51b815260040180806020018281038252603e815260200180610436603e913960400191505060405180910390fd5b600060608383604081101561028b57600080fd5b6001600160a01b0382351691908101906040810160208201356401000000008111156102b657600080fd5b8201836020820111156102c857600080fd5b803590602001918460018302840111640100000000831117156102ea57600080fd5b91908080601f01602080910402602001604051908101604052809392919081815260200183838082843760009201829052506040518551999b50949950976001600160a01b038b1697508996509394508493602087019350915081905083835b602083106103695780518252601f19909201916020918201910161034a565b6001836020036101000a0380198251168184511680821785525050505050509050019150506000604051808303816000865af19150503d80600081146103cb576040519150601f19603f3d011682016040523d82523d6000602084013e6103d0565b606091505b50509050806104105760405162461bcd60e51b815260040180806020018281038252603e8152602001806104c4603e913960400191505060405180910390fd5b50506001600055505050565b731111000000000000000000000000000000001111019056fe4c324d6573736167654578656375746f723a3a657865637574654d6573736167653a20556e617574686f72697a6564206d6573736167652073656e6465724c324d6573736167654578656375746f723a3a7570646174654c324d65737361676552656c617965723a205f6c314d65737361676552656c6179657220697320746865207a65726f20616464726573734c324d6573736167654578656375746f723a3a657865637574654d6573736167653a204d65737361676520657865637574696f6e2072657665727465642e4c324d6573736167654578656375746f723a20556e617574686f72697a6564206d6573736167652073656e646572a2646970667358221220701e81dbfffc7ebf445dbe8d1b57c308123c2f8f528e66733ca0f208ce9106fa64736f6c63430007050033",
  "devdoc": {
    "kind": "dev",
    "methods": {
      "executeMessage(bytes)": {
        "params": {
          "payLoad": "message received from L1 that needs to be executed.*"
        }
      },
      "updateL2MessageRelayer(address)": {
        "details": "Update the address of the L1MessageRelayer contract.",
        "params": {
          "_l1MessageRelayer": "the address of L1 contract used to relay messsages to L2.*"
        }
      }
    },
    "version": 1
  },
  "userdoc": {
    "kind": "user",
    "methods": {
      "executeMessage(bytes)": {
        "notice": "executes message received from L1."
      },
      "l1MessageRelayer()": {
        "notice": "Address of the L1MessageRelayer contract on mainnet."
      }
    },
    "version": 1
  },
  "storageLayout": {
    "storage": [
      {
        "astId": 3202,
        "contract": "contracts/arbitrum/L2MessageExecutor.sol:L2MessageExecutor",
        "label": "_status",
        "offset": 0,
        "slot": "0",
        "type": "t_uint256"
      },
      {
        "astId": 9166,
        "contract": "contracts/arbitrum/L2MessageExecutor.sol:L2MessageExecutor",
        "label": "l1MessageRelayer",
        "offset": 0,
        "slot": "1",
        "type": "t_address"
      }
    ],
    "types": {
      "t_address": {
        "encoding": "inplace",
        "label": "address",
        "numberOfBytes": "20"
      },
      "t_uint256": {
        "encoding": "inplace",
        "label": "uint256",
        "numberOfBytes": "32"
      }
    }
  }
}