{
  "address": "0x027591a373B7c3Dc5A372594F16A6134cE2870f0",
  "abi": [
    {
      "inputs": [
        {
          "internalType": "bytes",
          "name": "payLoad",
          "type": "bytes"
        }
      ],
      "name": "executeMessage",
      "outputs": [],
      "stateMutability": "nonpayable",
      "type": "function"
    },
    {
      "inputs": [
        {
          "internalType": "address",
          "name": "_l1MessageRelayer",
          "type": "address"
        }
      ],
      "name": "initialize",
      "outputs": [],
      "stateMutability": "nonpayable",
      "type": "function"
    },
    {
      "inputs": [],
      "name": "l1MessageRelayer",
      "outputs": [
        {
          "internalType": "address",
          "name": "",
          "type": "address"
        }
      ],
      "stateMutability": "view",
      "type": "function"
    }
  ],
  "transactionHash": "0xba0b251fd647be98ce5ab5407a6f9f21ae5adaec9b26397624d1b6bf252bfa3e",
  "args": [],
  "numDeployments": 1,
  "solcInputHash": "57fd964943961eb21329ffa8c2b6f646",
  "bytecode": "0x60806040526001805460ff60a01b1916905534801561001d57600080fd5b5060016000556105a1806100326000396000f3fe608060405234801561001057600080fd5b50600436106100415760003560e01c80633d1f867914610046578063c4d66de81461006a578063e0299bf514610092575b600080fd5b61004e610102565b604080516001600160a01b039092168252519081900360200190f35b6100906004803603602081101561008057600080fd5b50356001600160a01b0316610111565b005b610090600480360360208110156100a857600080fd5b8101906020810181356401000000008111156100c357600080fd5b8201836020820111156100d557600080fd5b803590602001918460018302840111640100000000831117156100f757600080fd5b5090925090506101ea565b6001546001600160a01b031681565b600154600160a01b900460ff1615610170576040805162461bcd60e51b815260206004820181905260248201527f436f6e747261637420697320616c726561647920696e697469616c697a656421604482015290519081900360640190fd5b6001805460ff60a01b1916600160a01b1790556001600160a01b0381166101c85760405162461bcd60e51b815260040180806020018281038252602b815260200180610541602b913960400191505060405180910390fd5b600180546001600160a01b0319166001600160a01b0392909216919091179055565b60026000541415610242576040805162461bcd60e51b815260206004820152601f60248201527f5265656e7472616e637947756172643a207265656e7472616e742063616c6c00604482015290519081900360640190fd5b600260005560015461025c906001600160a01b03166104ab565b6001600160a01b0316336001600160a01b0316146102ab5760405162461bcd60e51b815260040180806020018281038252603e8152602001806104c5603e913960400191505060405180910390fd5b60006060838360408110156102bf57600080fd5b6001600160a01b0382351691908101906040810160208201356401000000008111156102ea57600080fd5b8201836020820111156102fc57600080fd5b8035906020019184600183028401116401000000008311171561031e57600080fd5b91908080601f0160208091040260200160405190810160405280939291908181526020018383808284376000920191909152509698509196505050506001600160a01b038516151592506103bc915050576040805162461bcd60e51b815260206004820181905260248201527f7461726765742063616e277420626520746865207a65726f2061646472657373604482015290519081900360640190fd5b6000826001600160a01b0316826040518082805190602001908083835b602083106103f85780518252601f1990920191602091820191016103d9565b6001836020036101000a0380198251168184511680821785525050505050509050019150506000604051808303816000865af19150503d806000811461045a576040519150601f19603f3d011682016040523d82523d6000602084013e61045f565b606091505b505090508061049f5760405162461bcd60e51b815260040180806020018281038252603e815260200180610503603e913960400191505060405180910390fd5b50506001600055505050565b731111000000000000000000000000000000001111019056fe4c324d6573736167654578656375746f723a3a657865637574654d6573736167653a20556e617574686f72697a6564206d6573736167652073656e6465724c324d6573736167654578656375746f723a3a657865637574654d6573736167653a204d65737361676520657865637574696f6e2072657665727465642e5f6c314d65737361676552656c617965722063616e277420626520746865207a65726f2061646472657373a2646970667358221220d34e6c900e2089c9257e54be56774979a09095df8b605d06f858190e2e87d3e464736f6c63430007050033",
  "devdoc": {
    "details": "This contract executes messages received from layer1 governance on arbitrum. This meant to be an upgradeable contract and it should only be used with TransparentUpgradeableProxy.",
    "kind": "dev",
    "methods": {
      "executeMessage(bytes)": {
        "params": {
          "payLoad": "message received from L1 that needs to be executed.*"
        }
      }
    },
    "stateVariables": {
      "isInitialized": {
        "details": "flag to make sure that the initialize function is only called once"
      }
    },
    "version": 1
  },
  "userdoc": {
    "kind": "user",
    "methods": {
      "executeMessage(bytes)": {
        "notice": "executes message received from L1."
      },
      "l1MessageRelayer()": {
        "notice": "Address of the L1MessageRelayer contract on mainnet."
      }
    },
    "version": 1
  },
  "storageLayout": {
    "storage": [
      {
        "astId": 3566,
        "contract": "contracts/arbitrum/L2MessageExecutor.sol:L2MessageExecutor",
        "label": "_status",
        "offset": 0,
        "slot": "0",
        "type": "t_uint256"
      },
      {
        "astId": 9926,
        "contract": "contracts/arbitrum/L2MessageExecutor.sol:L2MessageExecutor",
        "label": "l1MessageRelayer",
        "offset": 0,
        "slot": "1",
        "type": "t_address"
      },
      {
        "astId": 9930,
        "contract": "contracts/arbitrum/L2MessageExecutor.sol:L2MessageExecutor",
        "label": "isInitialized",
        "offset": 20,
        "slot": "1",
        "type": "t_bool"
      }
    ],
    "types": {
      "t_address": {
        "encoding": "inplace",
        "label": "address",
        "numberOfBytes": "20"
      },
      "t_bool": {
        "encoding": "inplace",
        "label": "bool",
        "numberOfBytes": "1"
      },
      "t_uint256": {
        "encoding": "inplace",
        "label": "uint256",
        "numberOfBytes": "32"
      }
    }
  }
}