{
  "address": "0x443366a7a5821619D8d57405511E4fadD9964771",
  "abi": [
    {
      "inputs": [
        {
          "internalType": "contract Orchestrator",
          "name": "_orchestrator",
          "type": "address"
        },
        {
          "internalType": "uint256",
          "name": "_divisor",
          "type": "uint256"
        },
        {
          "internalType": "uint256",
          "name": "_ratio",
          "type": "uint256"
        },
        {
          "internalType": "uint256",
          "name": "_burnFee",
          "type": "uint256"
        },
        {
          "internalType": "uint256",
          "name": "_liquidationPenalty",
          "type": "uint256"
        },
        {
          "internalType": "address",
          "name": "_tcapOracle",
          "type": "address"
        },
        {
          "internalType": "contract TCAP",
          "name": "_tcapAddress",
          "type": "address"
        },
        {
          "internalType": "address",
          "name": "_collateralAddress",
          "type": "address"
        },
        {
          "internalType": "address",
          "name": "_collateralOracle",
          "type": "address"
        },
        {
          "internalType": "address",
          "name": "_ethOracle",
          "type": "address"
        },
        {
          "internalType": "address",
          "name": "_rewardHandler",
          "type": "address"
        },
        {
          "internalType": "address",
          "name": "_treasury",
          "type": "address"
        }
      ],
      "stateMutability": "nonpayable",
      "type": "constructor"
    },
    {
      "anonymous": false,
      "inputs": [
        {
          "indexed": true,
          "internalType": "address",
          "name": "_owner",
          "type": "address"
        },
        {
          "indexed": true,
          "internalType": "uint256",
          "name": "_id",
          "type": "uint256"
        },
        {
          "indexed": false,
          "internalType": "uint256",
          "name": "_amount",
          "type": "uint256"
        }
      ],
      "name": "CollateralAdded",
      "type": "event"
    },
    {
      "anonymous": false,
      "inputs": [
        {
          "indexed": true,
          "internalType": "address",
          "name": "_owner",
          "type": "address"
        },
        {
          "indexed": true,
          "internalType": "uint256",
          "name": "_id",
          "type": "uint256"
        },
        {
          "indexed": false,
          "internalType": "uint256",
          "name": "_amount",
          "type": "uint256"
        }
      ],
      "name": "CollateralRemoved",
      "type": "event"
    },
    {
      "anonymous": false,
      "inputs": [
        {
          "indexed": true,
          "internalType": "address",
          "name": "_owner",
          "type": "address"
        },
        {
          "indexed": false,
          "internalType": "uint256",
          "name": "_burnFee",
          "type": "uint256"
        }
      ],
      "name": "NewBurnFee",
      "type": "event"
    },
    {
      "anonymous": false,
      "inputs": [
        {
          "indexed": true,
          "internalType": "address",
          "name": "_owner",
          "type": "address"
        },
        {
          "indexed": false,
          "internalType": "uint256",
          "name": "_liquidationPenalty",
          "type": "uint256"
        }
      ],
      "name": "NewLiquidationPenalty",
      "type": "event"
    },
    {
      "anonymous": false,
      "inputs": [
        {
          "indexed": true,
          "internalType": "address",
          "name": "_owner",
          "type": "address"
        },
        {
          "indexed": false,
          "internalType": "uint256",
          "name": "_ratio",
          "type": "uint256"
        }
      ],
      "name": "NewRatio",
      "type": "event"
    },
    {
      "anonymous": false,
      "inputs": [
        {
          "indexed": true,
          "internalType": "address",
          "name": "_owner",
          "type": "address"
        },
        {
          "indexed": false,
          "internalType": "address",
          "name": "_tresury",
          "type": "address"
        }
      ],
      "name": "NewTreasury",
      "type": "event"
    },
    {
      "anonymous": false,
      "inputs": [
        {
          "indexed": true,
          "internalType": "address",
          "name": "previousOwner",
          "type": "address"
        },
        {
          "indexed": true,
          "internalType": "address",
          "name": "newOwner",
          "type": "address"
        }
      ],
      "name": "OwnershipTransferred",
      "type": "event"
    },
    {
      "anonymous": false,
      "inputs": [
        {
          "indexed": false,
          "internalType": "address",
          "name": "account",
          "type": "address"
        }
      ],
      "name": "Paused",
      "type": "event"
    },
    {
      "anonymous": false,
      "inputs": [
        {
          "indexed": false,
          "internalType": "address",
          "name": "_token",
          "type": "address"
        },
        {
          "indexed": false,
          "internalType": "uint256",
          "name": "_amount",
          "type": "uint256"
        }
      ],
      "name": "Recovered",
      "type": "event"
    },
    {
      "anonymous": false,
      "inputs": [
        {
          "indexed": true,
          "internalType": "bytes32",
          "name": "role",
          "type": "bytes32"
        },
        {
          "indexed": true,
          "internalType": "bytes32",
          "name": "previousAdminRole",
          "type": "bytes32"
        },
        {
          "indexed": true,
          "internalType": "bytes32",
          "name": "newAdminRole",
          "type": "bytes32"
        }
      ],
      "name": "RoleAdminChanged",
      "type": "event"
    },
    {
      "anonymous": false,
      "inputs": [
        {
          "indexed": true,
          "internalType": "bytes32",
          "name": "role",
          "type": "bytes32"
        },
        {
          "indexed": true,
          "internalType": "address",
          "name": "account",
          "type": "address"
        },
        {
          "indexed": true,
          "internalType": "address",
          "name": "sender",
          "type": "address"
        }
      ],
      "name": "RoleGranted",
      "type": "event"
    },
    {
      "anonymous": false,
      "inputs": [
        {
          "indexed": true,
          "internalType": "bytes32",
          "name": "role",
          "type": "bytes32"
        },
        {
          "indexed": true,
          "internalType": "address",
          "name": "account",
          "type": "address"
        },
        {
          "indexed": true,
          "internalType": "address",
          "name": "sender",
          "type": "address"
        }
      ],
      "name": "RoleRevoked",
      "type": "event"
    },
    {
      "anonymous": false,
      "inputs": [
        {
          "indexed": true,
          "internalType": "address",
          "name": "_owner",
          "type": "address"
        },
        {
          "indexed": true,
          "internalType": "uint256",
          "name": "_id",
          "type": "uint256"
        },
        {
          "indexed": false,
          "internalType": "uint256",
          "name": "_amount",
          "type": "uint256"
        }
      ],
      "name": "TokensBurned",
      "type": "event"
    },
    {
      "anonymous": false,
      "inputs": [
        {
          "indexed": true,
          "internalType": "address",
          "name": "_owner",
          "type": "address"
        },
        {
          "indexed": true,
          "internalType": "uint256",
          "name": "_id",
          "type": "uint256"
        },
        {
          "indexed": false,
          "internalType": "uint256",
          "name": "_amount",
          "type": "uint256"
        }
      ],
      "name": "TokensMinted",
      "type": "event"
    },
    {
      "anonymous": false,
      "inputs": [
        {
          "indexed": false,
          "internalType": "address",
          "name": "account",
          "type": "address"
        }
      ],
      "name": "Unpaused",
      "type": "event"
    },
    {
      "anonymous": false,
      "inputs": [
        {
          "indexed": true,
          "internalType": "address",
          "name": "_owner",
          "type": "address"
        },
        {
          "indexed": true,
          "internalType": "uint256",
          "name": "_id",
          "type": "uint256"
        }
      ],
      "name": "VaultCreated",
      "type": "event"
    },
    {
      "anonymous": false,
      "inputs": [
        {
          "indexed": true,
          "internalType": "uint256",
          "name": "_vaultId",
          "type": "uint256"
        },
        {
          "indexed": true,
          "internalType": "address",
          "name": "_liquidator",
          "type": "address"
        },
        {
          "indexed": false,
          "internalType": "uint256",
          "name": "_liquidationCollateral",
          "type": "uint256"
        },
        {
          "indexed": false,
          "internalType": "uint256",
          "name": "_reward",
          "type": "uint256"
        }
      ],
      "name": "VaultLiquidated",
      "type": "event"
    },
    {
      "inputs": [],
      "name": "DEFAULT_ADMIN_ROLE",
      "outputs": [
        {
          "internalType": "bytes32",
          "name": "",
          "type": "bytes32"
        }
      ],
      "stateMutability": "view",
      "type": "function"
    },
    {
      "inputs": [],
      "name": "ETHPriceOracle",
      "outputs": [
        {
          "internalType": "contract ChainlinkOracle",
          "name": "",
          "type": "address"
        }
      ],
      "stateMutability": "view",
      "type": "function"
    },
    {
      "inputs": [],
      "name": "MAX_FEE",
      "outputs": [
        {
          "internalType": "uint256",
          "name": "",
          "type": "uint256"
        }
      ],
      "stateMutability": "view",
      "type": "function"
    },
    {
      "inputs": [],
      "name": "MIN_RATIO",
      "outputs": [
        {
          "internalType": "uint256",
          "name": "",
          "type": "uint256"
        }
      ],
      "stateMutability": "view",
      "type": "function"
    },
    {
      "inputs": [],
      "name": "TCAPPrice",
      "outputs": [
        {
          "internalType": "uint256",
          "name": "price",
          "type": "uint256"
        }
      ],
      "stateMutability": "view",
      "type": "function"
    },
    {
      "inputs": [],
      "name": "TCAPToken",
      "outputs": [
        {
          "internalType": "contract TCAP",
          "name": "",
          "type": "address"
        }
      ],
      "stateMutability": "view",
      "type": "function"
    },
    {
      "inputs": [
        {
          "internalType": "uint256",
          "name": "_amount",
          "type": "uint256"
        }
      ],
      "name": "addCollateral",
      "outputs": [],
      "stateMutability": "nonpayable",
      "type": "function"
    },
    {
      "inputs": [
        {
          "internalType": "uint256",
          "name": "_amount",
          "type": "uint256"
        }
      ],
      "name": "burn",
      "outputs": [],
      "stateMutability": "payable",
      "type": "function"
    },
    {
      "inputs": [],
      "name": "burnFee",
      "outputs": [
        {
          "internalType": "uint256",
          "name": "",
          "type": "uint256"
        }
      ],
      "stateMutability": "view",
      "type": "function"
    },
    {
      "inputs": [],
      "name": "collateralContract",
      "outputs": [
        {
          "internalType": "contract IERC20",
          "name": "",
          "type": "address"
        }
      ],
      "stateMutability": "view",
      "type": "function"
    },
    {
      "inputs": [],
      "name": "collateralPriceOracle",
      "outputs": [
        {
          "internalType": "contract ChainlinkOracle",
          "name": "",
          "type": "address"
        }
      ],
      "stateMutability": "view",
      "type": "function"
    },
    {
      "inputs": [],
      "name": "counter",
      "outputs": [
        {
          "internalType": "uint256",
          "name": "_value",
          "type": "uint256"
        }
      ],
      "stateMutability": "view",
      "type": "function"
    },
    {
      "inputs": [],
      "name": "createVault",
      "outputs": [],
      "stateMutability": "nonpayable",
      "type": "function"
    },
    {
      "inputs": [],
      "name": "divisor",
      "outputs": [
        {
          "internalType": "uint256",
          "name": "",
          "type": "uint256"
        }
      ],
      "stateMutability": "view",
      "type": "function"
    },
    {
      "inputs": [
        {
          "internalType": "uint256",
          "name": "_amount",
          "type": "uint256"
        }
      ],
      "name": "getFee",
      "outputs": [
        {
          "internalType": "uint256",
          "name": "fee",
          "type": "uint256"
        }
      ],
      "stateMutability": "view",
      "type": "function"
    },
    {
      "inputs": [
        {
          "internalType": "contract ChainlinkOracle",
          "name": "_oracle",
          "type": "address"
        }
      ],
      "name": "getOraclePrice",
      "outputs": [
        {
          "internalType": "uint256",
          "name": "price",
          "type": "uint256"
        }
      ],
      "stateMutability": "view",
      "type": "function"
    },
    {
      "inputs": [
        {
          "internalType": "bytes32",
          "name": "role",
          "type": "bytes32"
        }
      ],
      "name": "getRoleAdmin",
      "outputs": [
        {
          "internalType": "bytes32",
          "name": "",
          "type": "bytes32"
        }
      ],
      "stateMutability": "view",
      "type": "function"
    },
    {
      "inputs": [
        {
          "internalType": "bytes32",
          "name": "role",
          "type": "bytes32"
        },
        {
          "internalType": "uint256",
          "name": "index",
          "type": "uint256"
        }
      ],
      "name": "getRoleMember",
      "outputs": [
        {
          "internalType": "address",
          "name": "",
          "type": "address"
        }
      ],
      "stateMutability": "view",
      "type": "function"
    },
    {
      "inputs": [
        {
          "internalType": "bytes32",
          "name": "role",
          "type": "bytes32"
        }
      ],
      "name": "getRoleMemberCount",
      "outputs": [
        {
          "internalType": "uint256",
          "name": "",
          "type": "uint256"
        }
      ],
      "stateMutability": "view",
      "type": "function"
    },
    {
      "inputs": [
        {
          "internalType": "uint256",
          "name": "_id",
          "type": "uint256"
        }
      ],
      "name": "getVault",
      "outputs": [
        {
          "internalType": "uint256",
          "name": "",
          "type": "uint256"
        },
        {
          "internalType": "uint256",
          "name": "",
          "type": "uint256"
        },
        {
          "internalType": "address",
          "name": "",
          "type": "address"
        },
        {
          "internalType": "uint256",
          "name": "",
          "type": "uint256"
        }
      ],
      "stateMutability": "view",
      "type": "function"
    },
    {
      "inputs": [
        {
          "internalType": "uint256",
          "name": "_vaultId",
          "type": "uint256"
        }
      ],
      "name": "getVaultRatio",
      "outputs": [
        {
          "internalType": "uint256",
          "name": "currentRatio",
          "type": "uint256"
        }
      ],
      "stateMutability": "view",
      "type": "function"
    },
    {
      "inputs": [
        {
          "internalType": "bytes32",
          "name": "role",
          "type": "bytes32"
        },
        {
          "internalType": "address",
          "name": "account",
          "type": "address"
        }
      ],
      "name": "grantRole",
      "outputs": [],
      "stateMutability": "nonpayable",
      "type": "function"
    },
    {
      "inputs": [
        {
          "internalType": "bytes32",
          "name": "role",
          "type": "bytes32"
        },
        {
          "internalType": "address",
          "name": "account",
          "type": "address"
        }
      ],
      "name": "hasRole",
      "outputs": [
        {
          "internalType": "bool",
          "name": "",
          "type": "bool"
        }
      ],
      "stateMutability": "view",
      "type": "function"
    },
    {
      "inputs": [
        {
          "internalType": "uint256",
          "name": "_vaultId",
          "type": "uint256"
        },
        {
          "internalType": "uint256",
          "name": "_maxTCAP",
          "type": "uint256"
        }
      ],
      "name": "liquidateVault",
      "outputs": [],
      "stateMutability": "payable",
      "type": "function"
    },
    {
      "inputs": [],
      "name": "liquidationPenalty",
      "outputs": [
        {
          "internalType": "uint256",
          "name": "",
          "type": "uint256"
        }
      ],
      "stateMutability": "view",
      "type": "function"
    },
    {
      "inputs": [
        {
          "internalType": "uint256",
          "name": "_vaultId",
          "type": "uint256"
        }
      ],
      "name": "liquidationReward",
      "outputs": [
        {
          "internalType": "uint256",
          "name": "rewardCollateral",
          "type": "uint256"
        }
      ],
      "stateMutability": "view",
      "type": "function"
    },
    {
      "inputs": [
        {
          "internalType": "uint256",
          "name": "_amount",
          "type": "uint256"
        }
      ],
      "name": "mint",
      "outputs": [],
      "stateMutability": "nonpayable",
      "type": "function"
    },
    {
      "inputs": [],
      "name": "oracleDigits",
      "outputs": [
        {
          "internalType": "uint256",
          "name": "",
          "type": "uint256"
        }
      ],
      "stateMutability": "view",
      "type": "function"
    },
    {
      "inputs": [],
      "name": "owner",
      "outputs": [
        {
          "internalType": "address",
          "name": "",
          "type": "address"
        }
      ],
      "stateMutability": "view",
      "type": "function"
    },
    {
      "inputs": [],
      "name": "pause",
      "outputs": [],
      "stateMutability": "nonpayable",
      "type": "function"
    },
    {
      "inputs": [],
      "name": "paused",
      "outputs": [
        {
          "internalType": "bool",
          "name": "",
          "type": "bool"
        }
      ],
      "stateMutability": "view",
      "type": "function"
    },
    {
      "inputs": [],
      "name": "ratio",
      "outputs": [
        {
          "internalType": "uint256",
          "name": "",
          "type": "uint256"
        }
      ],
      "stateMutability": "view",
      "type": "function"
    },
    {
      "inputs": [
        {
          "internalType": "address",
          "name": "_tokenAddress",
          "type": "address"
        },
        {
          "internalType": "uint256",
          "name": "_tokenAmount",
          "type": "uint256"
        }
      ],
      "name": "recoverERC20",
      "outputs": [],
      "stateMutability": "nonpayable",
      "type": "function"
    },
    {
      "inputs": [
        {
          "internalType": "uint256",
          "name": "_amount",
          "type": "uint256"
        }
      ],
      "name": "removeCollateral",
      "outputs": [],
      "stateMutability": "nonpayable",
      "type": "function"
    },
    {
      "inputs": [],
      "name": "renounceOwnership",
      "outputs": [],
      "stateMutability": "nonpayable",
      "type": "function"
    },
    {
      "inputs": [
        {
          "internalType": "bytes32",
          "name": "role",
          "type": "bytes32"
        },
        {
          "internalType": "address",
          "name": "account",
          "type": "address"
        }
      ],
      "name": "renounceRole",
      "outputs": [],
      "stateMutability": "nonpayable",
      "type": "function"
    },
    {
      "inputs": [
        {
          "internalType": "uint256",
          "name": "_amount",
          "type": "uint256"
        }
      ],
      "name": "requiredCollateral",
      "outputs": [
        {
          "internalType": "uint256",
          "name": "collateral",
          "type": "uint256"
        }
      ],
      "stateMutability": "view",
      "type": "function"
    },
    {
      "inputs": [
        {
          "internalType": "uint256",
          "name": "_vaultId",
          "type": "uint256"
        }
      ],
      "name": "requiredLiquidationTCAP",
      "outputs": [
        {
          "internalType": "uint256",
          "name": "amount",
          "type": "uint256"
        }
      ],
      "stateMutability": "view",
      "type": "function"
    },
    {
      "inputs": [
        {
          "internalType": "bytes32",
          "name": "role",
          "type": "bytes32"
        },
        {
          "internalType": "address",
          "name": "account",
          "type": "address"
        }
      ],
      "name": "revokeRole",
      "outputs": [],
      "stateMutability": "nonpayable",
      "type": "function"
    },
    {
      "inputs": [],
      "name": "rewardHandler",
      "outputs": [
        {
          "internalType": "contract IRewardHandler",
          "name": "",
          "type": "address"
        }
      ],
      "stateMutability": "view",
      "type": "function"
    },
    {
      "inputs": [
        {
          "internalType": "uint256",
          "name": "_burnFee",
          "type": "uint256"
        }
      ],
      "name": "setBurnFee",
      "outputs": [],
      "stateMutability": "nonpayable",
      "type": "function"
    },
    {
      "inputs": [
        {
          "internalType": "uint256",
          "name": "_liquidationPenalty",
          "type": "uint256"
        }
      ],
      "name": "setLiquidationPenalty",
      "outputs": [],
      "stateMutability": "nonpayable",
      "type": "function"
    },
    {
      "inputs": [
        {
          "internalType": "uint256",
          "name": "_ratio",
          "type": "uint256"
        }
      ],
      "name": "setRatio",
      "outputs": [],
      "stateMutability": "nonpayable",
      "type": "function"
    },
    {
      "inputs": [
        {
          "internalType": "address",
          "name": "_treasury",
          "type": "address"
        }
      ],
      "name": "setTreasury",
      "outputs": [],
      "stateMutability": "nonpayable",
      "type": "function"
    },
    {
      "inputs": [
        {
          "internalType": "bytes4",
          "name": "_interfaceId",
          "type": "bytes4"
        }
      ],
      "name": "supportsInterface",
      "outputs": [
        {
          "internalType": "bool",
          "name": "",
          "type": "bool"
        }
      ],
      "stateMutability": "pure",
      "type": "function"
    },
    {
      "inputs": [],
      "name": "tcapOracle",
      "outputs": [
        {
          "internalType": "contract ChainlinkOracle",
          "name": "",
          "type": "address"
        }
      ],
      "stateMutability": "view",
      "type": "function"
    },
    {
      "inputs": [
        {
          "internalType": "address",
          "name": "newOwner",
          "type": "address"
        }
      ],
      "name": "transferOwnership",
      "outputs": [],
      "stateMutability": "nonpayable",
      "type": "function"
    },
    {
      "inputs": [],
      "name": "treasury",
      "outputs": [
        {
          "internalType": "address",
          "name": "",
          "type": "address"
        }
      ],
      "stateMutability": "view",
      "type": "function"
    },
    {
      "inputs": [],
      "name": "unpause",
      "outputs": [],
      "stateMutability": "nonpayable",
      "type": "function"
    },
    {
      "inputs": [
        {
          "internalType": "address",
          "name": "",
          "type": "address"
        }
      ],
      "name": "userToVault",
      "outputs": [
        {
          "internalType": "uint256",
          "name": "",
          "type": "uint256"
        }
      ],
      "stateMutability": "view",
      "type": "function"
    },
    {
      "inputs": [
        {
          "internalType": "uint256",
          "name": "",
          "type": "uint256"
        }
      ],
      "name": "vaults",
      "outputs": [
        {
          "internalType": "uint256",
          "name": "Id",
          "type": "uint256"
        },
        {
          "internalType": "uint256",
          "name": "Collateral",
          "type": "uint256"
        },
        {
          "internalType": "uint256",
          "name": "Debt",
          "type": "uint256"
        },
        {
          "internalType": "address",
          "name": "Owner",
          "type": "address"
        }
      ],
      "stateMutability": "view",
      "type": "function"
    }
  ],
  "transactionHash": "0x5c33f991ed35645c2f1e9ab79cfbac500eb8b4e410e4698d86a1317a91e52a55",
  "args": [
    "0x373C74BcE7893097ab26d22f05691907D4f2c18e",
    "10000000000",
    "200",
    "1",
    "10",
    "0xa4e581BD159B869e8290707A7FBF841fe7FE97b6",
    "0x16c52CeeCE2ed57dAd87319D91B5e3637d50aFa4",
    "0x6B175474E89094C44Da98b954EedeAC495271d0F",
    "0x6b5a75f38BeA1Ef59Bc43A5d9602e77Bcbe65e46",
    "0x2cFeaf282FE9ae050b210e7BDa65D288C40c6104",
    "0xE0c99C503c4AE5eC50aC63C59C7eF4725C355fdD",
    "0xa54074b2cc0e96a43048d4a68472F7F046aC0DA8"
  ],
  "solcInputHash": "7a2ec06170535469f280147f73cb3aa1",
  "bytecode": "0x6101406040523480156200001257600080fd5b50604051620047023803806200470283398181016040526101808110156200003957600080fd5b508051602082015160408301516060840151608085015160a086015160c087015160e08801516101008901516101208a01516101408b0151610160909b0151999a9899979896979596949593949293919290918b8b8b8b8b8b8b8b8b8b8b8b6000620000a4620002de565b600080546001600160a01b0319166001600160a01b038316908117825560405192935091600080516020620046b3833981519152908290a35060016002556003805460ff191690558962000106896064620002e2602090811b62002abf17901c565b10620001445760405162461bcd60e51b8152600401808060200182810382526037815260200180620046456037913960400191505060405180910390fd5b60968a1015620001865760405162461bcd60e51b8152600401808060200182810382526035815260200180620045ea6035913960400191505060405180910390fd5b600a891115620001c85760405162461bcd60e51b81526004018080602001828103825260378152602001806200467c6037913960400191505060405180910390fd5b620001e681636b5cc77060e01b6200034660201b62002b191760201c565b620002235760405162461bcd60e51b815260040180806020018281038252602f815260200180620046d3602f913960400191505060405180910390fd5b60058b905560068a905560078990556008889055606087811b6001600160601b031990811660a05286821b811660c05285821b811660e05284821b81166101005287821b81166080529083901b1661012052600980546001600160a01b0319166001600160a01b038316179055620002a8600462000367602090811b62002b3517901c565b620002b560003362000370565b620002c08c62000380565b5050505050505050505050505050505050505050505050506200070c565b3390565b6000828201838110156200033d576040805162461bcd60e51b815260206004820152601b60248201527f536166654d6174683a206164646974696f6e206f766572666c6f770000000000604482015290519081900360640190fd5b90505b92915050565b600062000353836200047e565b80156200033d57506200033d8383620004b6565b80546001019055565b6200037c8282620004de565b5050565b6200038a620002de565b6000546001600160a01b03908116911614620003ed576040805162461bcd60e51b815260206004820181905260248201527f4f776e61626c653a2063616c6c6572206973206e6f7420746865206f776e6572604482015290519081900360640190fd5b6001600160a01b038116620004345760405162461bcd60e51b81526004018080602001828103825260268152602001806200461f6026913960400191505060405180910390fd5b600080546040516001600160a01b0380851693921691600080516020620046b383398151915291a3600080546001600160a01b0319166001600160a01b0392909216919091179055565b600062000493826301ffc9a760e01b620004b6565b8015620003405750620004af826001600160e01b0319620004b6565b1592915050565b60008080620004c6858562000559565b91509150818015620004d55750805b95945050505050565b60008281526001602090815260409091206200050591839062002b3e62000694821b17901c565b156200037c5762000515620002de565b6001600160a01b0316816001600160a01b0316837f2f8788117e7eff1d82e926ec794901d17c78024a50270940304540a733656f0d60405160405180910390a45050565b604080516001600160e01b0319831660248083019190915282518083039091018152604490910182526020810180516001600160e01b03166301ffc9a760e01b1781529151815160009384939284926060926001600160a01b038a169261753092879282918083835b60208310620005e35780518252601f199092019160209182019101620005c2565b6001836020036101000a0380198251168184511680821785525050505050509050019150506000604051808303818686fa925050503d806000811462000646576040519150601f19603f3d011682016040523d82523d6000602084013e6200064b565b606091505b50915091506020815110156200066b57600080945094505050506200068d565b818180602001905160208110156200068257600080fd5b505190955093505050505b9250929050565b60006200033d836001600160a01b0384166000620006b38383620006f4565b620006eb5750815460018181018455600084815260208082209093018490558454848252828601909352604090209190915562000340565b50600062000340565b60009081526001919091016020526040902054151590565b60805160601c60a05160601c60c05160601c60e05160601c6101005160601c6101205160601c613e23620007c76000398061126d52806112c1528061133e52806116ae5280611d8d5280611de8528061219c52806121f0525080611f925280612a7e525080610acd52806118255280611a4b528061233452806127cb525080610ee752806119015280611e7252806125b252806126d5525080610b4152806114145250806116db52806122775280612e305250613e236000f3fe6080604052600436106102e45760003560e01c8063842e357c11610190578063abb7bc4a116100dc578063ca15c87311610095578063f0f442601161006f578063f0f44260146109cb578063f2fde38b146109fe578063fce589d814610a31578063fcee45f414610a46576102e4565b8063ca15c8731461093e578063d547741f14610968578063de9952c9146109a1576102e4565b8063abb7bc4a14610863578063b2237ba31461088d578063bc063e1a146108b7578063bc721a96146108cc578063bcc46e83146108ff578063c6e1c7c914610929576102e4565b80639010d07c11610149578063952cc86a11610123578063952cc86a146107ec57806397994e301461080f578063a0712d6814610824578063a217fddf1461084e576102e4565b80639010d07c1461072b57806391d148541461075b5780639403b63414610794576102e4565b8063842e357c146106305780638456cb59146106455780638980f11f1461065a5780638c01f211146106935780638c64ea4a146106bd5780638da5cb5b14610716576102e4565b806342966c681161024f57806361d027b3116102085780636ca2143c116101e25780636ca2143c146105be578063715018a6146105d357806371ca337d146105e857806375f620ac146105fd576102e4565b806361d027b31461057f578063670fb821146105945780636ae7adc1146105a9576102e4565b806342966c68146104e457806346dc9007146105015780634bf2c7c9146105165780635c975abb146105405780635d12928b1461055557806361bc221a1461056a576102e4565b8063248a9ca3116102a1578063248a9ca3146103dd5780632806a743146104075780632f2ff15d146104335780633237c1581461046c57806336568abe146104965780633f4ba83a146104cf576102e4565b806301ffc9a7146102e95780630f0aeb8d1461033157806311d850e8146103585780631cc244ba146103825780631f2dc5ef146103b357806323f5589a146103c8575b600080fd5b3480156102f557600080fd5b5061031d6004803603602081101561030c57600080fd5b50356001600160e01b031916610a70565b604080519115158252519081900360200190f35b34801561033d57600080fd5b50610346610aa7565b60408051918252519081900360200190f35b34801561036457600080fd5b506103466004803603602081101561037b57600080fd5b5035610aac565b34801561038e57600080fd5b50610397610b3f565b604080516001600160a01b039092168252519081900360200190f35b3480156103bf57600080fd5b50610346610b63565b3480156103d457600080fd5b50610346610b69565b3480156103e957600080fd5b506103466004803603602081101561040057600080fd5b5035610b6f565b34801561041357600080fd5b506104316004803603602081101561042a57600080fd5b5035610b84565b005b34801561043f57600080fd5b506104316004803603604081101561045657600080fd5b50803590602001356001600160a01b0316610c64565b34801561047857600080fd5b506104316004803603602081101561048f57600080fd5b5035610cd0565b3480156104a257600080fd5b50610431600480360360408110156104b957600080fd5b50803590602001356001600160a01b0316610fd9565b3480156104db57600080fd5b5061043161103a565b610431600480360360208110156104fa57600080fd5b503561109c565b34801561050d57600080fd5b5061034661140c565b34801561052257600080fd5b506104316004803603602081101561053957600080fd5b5035611455565b34801561054c57600080fd5b5061031d61152b565b34801561056157600080fd5b50610431611534565b34801561057657600080fd5b50610346611697565b34801561058b57600080fd5b5061039761169d565b3480156105a057600080fd5b506103976116ac565b3480156105b557600080fd5b506103466116d0565b3480156105ca57600080fd5b506103976116d9565b3480156105df57600080fd5b506104316116fd565b3480156105f457600080fd5b5061034661179f565b34801561060957600080fd5b506103466004803603602081101561062057600080fd5b50356001600160a01b03166117a5565b34801561063c57600080fd5b50610397611823565b34801561065157600080fd5b50610431611847565b34801561066657600080fd5b506104316004803603604081101561067d57600080fd5b506001600160a01b0381351690602001356118a7565b34801561069f57600080fd5b50610346600480360360208110156106b657600080fd5b50356119d4565b3480156106c957600080fd5b506106e7600480360360208110156106e057600080fd5b5035611aaf565b604080519485526020850193909352838301919091526001600160a01b03166060830152519081900360800190f35b34801561072257600080fd5b50610397611adf565b34801561073757600080fd5b506103976004803603604081101561074e57600080fd5b5080359060200135611aee565b34801561076757600080fd5b5061031d6004803603604081101561077e57600080fd5b50803590602001356001600160a01b0316611b0d565b3480156107a057600080fd5b506107be600480360360208110156107b757600080fd5b5035611b25565b6040805194855260208501939093526001600160a01b03909116838301526060830152519081900360800190f35b6104316004803603604081101561080257600080fd5b5080359060200135611b8c565b34801561081b57600080fd5b50610397611f90565b34801561083057600080fd5b506104316004803603602081101561084757600080fd5b5035611fb4565b34801561085a57600080fd5b5061034661231b565b34801561086f57600080fd5b506103466004803603602081101561088657600080fd5b5035612320565b34801561089957600080fd5b50610431600480360360208110156108b057600080fd5b503561237c565b3480156108c357600080fd5b50610346612452565b3480156108d857600080fd5b50610346600480360360208110156108ef57600080fd5b50356001600160a01b0316612457565b34801561090b57600080fd5b506104316004803603602081101561092257600080fd5b5035612469565b34801561093557600080fd5b506103976126d3565b34801561094a57600080fd5b506103466004803603602081101561096157600080fd5b50356126f7565b34801561097457600080fd5b506104316004803603604081101561098b57600080fd5b50803590602001356001600160a01b031661270e565b3480156109ad57600080fd5b50610346600480360360208110156109c457600080fd5b5035612767565b3480156109d757600080fd5b50610431600480360360208110156109ee57600080fd5b50356001600160a01b031661287d565b348015610a0a57600080fd5b5061043160048036036020811015610a2157600080fd5b50356001600160a01b0316612978565b348015610a3d57600080fd5b50610346612a70565b348015610a5257600080fd5b5061034660048036036020811015610a6957600080fd5b5035612a76565b60006001600160e01b0319821663279d6ac360e21b1480610aa157506001600160e01b031982166301ffc9a760e01b145b92915050565b609681565b600080610ab883612767565b90506000610ac461140c565b90506000610af17f00000000000000000000000000000000000000000000000000000000000000006117a5565b90506000610b15610b0e6064600854612abf90919063ffffffff16565b8590612b53565b9050610b35610b25836064612b53565b610b2f8386612b53565b90612bac565b9695505050505050565b7f000000000000000000000000000000000000000000000000000000000000000081565b60055481565b60085481565b60009081526001602052604090206002015490565b610b8c612bee565b6000546001600160a01b03908116911614610bdc576040805162461bcd60e51b81526020600482018190526024820152600080516020613c0e833981519152604482015290519081900360640190fd5b600654610bea826064612abf565b10610c265760405162461bcd60e51b8152600401808060200182810382526041815260200180613b346041913960600191505060405180910390fd5b600881905560408051828152905133917f76fea7ef18b6b073facb4f15d873d45dc60e1ac9448931a44b388f40c49e3267919081900360200190a250565b600082815260016020526040902060020154610c8790610c82612bee565b611b0d565b610cc25760405162461bcd60e51b815260040180806020018281038252602f815260200180613863602f913960400191505060405180910390fd5b610ccc8282612bf2565b5050565b600280541415610d15576040805162461bcd60e51b815260206004820152601f6024820152600080516020613892833981519152604482015290519081900360640190fd5b60028055336000908152600a6020526040902054610d645760405162461bcd60e51b815260040180806020018281038252602b8152602001806138d7602b913960400191505060405180910390fd5b60035460ff1615610daf576040805162461bcd60e51b815260206004820152601060248201526f14185d5cd8589b194e881c185d5cd95960821b604482015290519081900360640190fd5b8080610dec5760405162461bcd60e51b8152600401808060200182810382526027815260200180613cd86027913960400191505060405180910390fd5b336000908152600a60209081526040808320548352600b90915281208054909190610e16906119d4565b90508382600101541015610e5b5760405162461bcd60e51b8152600401808060200182810382526046815260200180613aee6046913960600191505060405180910390fd5b6001820154610e6a9085612c5b565b60018301558015610ec0576006548254610e83906119d4565b1015610ec05760405162461bcd60e51b8152600401808060200182810382526043815260200180613b756043913960600191505060405180910390fd5b6040805163a9059cbb60e01b81523360048201526024810186905290516001600160a01b037f0000000000000000000000000000000000000000000000000000000000000000169163a9059cbb9160448083019260209291908290030181600087803b158015610f2f57600080fd5b505af1158015610f43573d6000803e3d6000fd5b505050506040513d6020811015610f5957600080fd5b5051610f965760405162461bcd60e51b815260040180806020018281038252603e815260200180613c65603e913960400191505060405180910390fd5b815460408051868152905133917f47e1336b6fdb5f42c3a1d28b558fa98786d820c3705d726358dcc8e63a401eef919081900360200190a3505060016002555050565b610fe1612bee565b6001600160a01b0316816001600160a01b0316146110305760405162461bcd60e51b815260040180806020018281038252602f815260200180613dbf602f913960400191505060405180910390fd5b610ccc8282612c9d565b611042612bee565b6000546001600160a01b03908116911614611092576040805162461bcd60e51b81526020600482018190526024820152600080516020613c0e833981519152604482015290519081900360640190fd5b61109a612d06565b565b6002805414156110e1576040805162461bcd60e51b815260206004820152601f6024820152600080516020613892833981519152604482015290519081900360640190fd5b60028055336000908152600a60205260409020546111305760405162461bcd60e51b815260040180806020018281038252602b8152602001806138d7602b913960400191505060405180910390fd5b60035460ff161561117b576040805162461bcd60e51b815260206004820152601060248201526f14185d5cd8589b194e881c185d5cd95960821b604482015290519081900360640190fd5b80806111b85760405162461bcd60e51b8152600401808060200182810382526027815260200180613cd86027913960400191505060405180910390fd5b60006111c383612a76565b9050803410156112045760405162461bcd60e51b815260040180806020018281038252602f815260200180613d57602f913960400191505060405180910390fd5b61120c6137a4565b50336000908152600a60209081526040808320548352600b82529182902082516080810184528154808252600183015493820193909352600282015493810193909352600301546001600160a01b0316606083015261126b9085612da4565b7f00000000000000000000000000000000000000000000000000000000000000006001600160a01b0316156113a0576040805163f3fef3a360e01b81523360048201526024810186905290516001600160a01b037f0000000000000000000000000000000000000000000000000000000000000000169163f3fef3a391604480830192600092919082900301818387803b15801561130857600080fd5b505af115801561131c573d6000803e3d6000fd5b50506040805163e0588af760e01b815233600482015290516001600160a01b037f000000000000000000000000000000000000000000000000000000000000000016935063e0588af79250602480830192600092919082900301818387803b15801561138757600080fd5b505af115801561139b573d6000803e3d6000fd5b505050505b6009546113b6906001600160a01b031683612e94565b6113c9336113c43485612c5b565b612e94565b805160408051868152905133917fccbea4088a3b7ae9ca2d15fab9a9742a4075b4d7247768a1eecea917565aba00919081900360200190a3505060016002555050565b6000806114387f00000000000000000000000000000000000000000000000000000000000000006117a5565b905061144f60055482612bac90919063ffffffff16565b91505090565b61145d612bee565b6000546001600160a01b039081169116146114ad576040805162461bcd60e51b81526020600482018190526024820152600080516020613c0e833981519152604482015290519081900360640190fd5b600a8111156114ed5760405162461bcd60e51b8152600401808060200182810382526036815260200180613ab86036913960400191505060405180910390fd5b600781905560408051828152905133917f2b29c7e5fe28010036a94929b56a0eb76bf5e90700e842a971eaa6e4abc45f04919081900360200190a250565b60035460ff1690565b60035460ff161561157f576040805162461bcd60e51b815260206004820152601060248201526f14185d5cd8589b194e881c185d5cd95960821b604482015290519081900360640190fd5b336000908152600a6020526040902054156115cb5760405162461bcd60e51b81526004018080602001828103825260308152602001806137d66030913960400191505060405180910390fd5b60006115d76004612f8c565b336000908152600a6020526040902081905590506115f36137a4565b5060408051608081018252828152600060208083018281528385018381523360608601908152878552600b909352949092208351815591516001830155925160028201559151600390920180546001600160a01b0319166001600160a01b03909316929092179091556116666004612b35565b604051829033907fa510df27d6e51efd91d3f55722bad1f26bf924a63e5dcee07c2ab4c3d4992dcc90600090a35050565b60045481565b6009546001600160a01b031681565b7f000000000000000000000000000000000000000000000000000000000000000081565b6402540be40081565b7f000000000000000000000000000000000000000000000000000000000000000081565b611705612bee565b6000546001600160a01b03908116911614611755576040805162461bcd60e51b81526020600482018190526024820152600080516020613c0e833981519152604482015290519081900360640190fd5b600080546040516001600160a01b03909116907f8be0079c531659141344cd1fd0a4f28419497f9722a3daafe3b4186f6b6457e0908390a3600080546001600160a01b0319169055565b60065481565b6000610aa16402540be40061181d846001600160a01b03166396237c026040518163ffffffff1660e01b815260040160206040518083038186803b1580156117ec57600080fd5b505afa158015611800573d6000803e3d6000fd5b505050506040513d602081101561181657600080fd5b5051612f90565b90612b53565b7f000000000000000000000000000000000000000000000000000000000000000081565b61184f612bee565b6000546001600160a01b0390811691161461189f576040805162461bcd60e51b81526020600482018190526024820152600080516020613c0e833981519152604482015290519081900360640190fd5b61109a612feb565b6118af612bee565b6000546001600160a01b039081169116146118ff576040805162461bcd60e51b81526020600482018190526024820152600080516020613c0e833981519152604482015290519081900360640190fd5b7f00000000000000000000000000000000000000000000000000000000000000006001600160a01b0316826001600160a01b031614156119705760405162461bcd60e51b81526004018080602001828103825260258152602001806138b26025913960400191505060405180910390fd5b61198c61197b611adf565b6001600160a01b038416908361306c565b604080516001600160a01b03841681526020810183905281517f8c1256b8896378cd5044f80c202f9772b9d77dc85c8a6eb51967210b09bfaa28929181900390910190a15050565b60006119de6137a4565b506000828152600b602090815260409182902082516080810184528154808252600183015493820193909352600282015493810193909352600301546001600160a01b031660608301521580611a3657506040810151155b15611a445760009150611aa9565b6000611a6f7f00000000000000000000000000000000000000000000000000000000000000006117a5565b9050611aa5611a8a611a7f61140c565b604085015190612b53565b6020840151610b2f90611a9e906064612b53565b8490612b53565b9250505b50919050565b600b602052600090815260409020805460018201546002830154600390930154919290916001600160a01b031684565b6000546001600160a01b031690565b6000828152600160205260408120611b0690836130be565b9392505050565b6000828152600160205260408120611b0690836130ca565b600080600080611b336137a4565b50505060009283525050600b602090815260409182902082516080810184528154808252600183015493820184905260028301549482018590526003909201546001600160a01b03166060909101819052909391929091565b600280541415611bd1576040805162461bcd60e51b815260206004820152601f6024820152600080516020613892833981519152604482015290519081900360640190fd5b6002805560035460ff1615611c20576040805162461bcd60e51b815260206004820152601060248201526f14185d5cd8589b194e881c185d5cd95960821b604482015290519081900360640190fd5b6000828152600b602052604090208054611c6b5760405162461bcd60e51b815260040180806020018281038252602e815260200180613d29602e913960400191505060405180910390fd5b6000611c7a82600001546119d4565b90506006548110611cbc5760405162461bcd60e51b8152600401808060200182810382526035815260200180613ca36035913960400191505060405180910390fd5b6000611ccb8360000154612767565b905080841015611d0c5760405162461bcd60e51b81526004018080602001828103825260488152602001806139806048913960600191505060405180910390fd5b6000611d1782612a76565b905080341015611d585760405162461bcd60e51b8152600401808060200182810382526039815260200180613d866039913960400191505060405180910390fd5b6000611d678560000154610aac565b9050611d77856000015484612da4565b6001850154611d869082612c5b565b60018601557f00000000000000000000000000000000000000000000000000000000000000006001600160a01b031615611e4b5760038501546040805163f3fef3a360e01b81526001600160a01b0392831660048201526024810186905290517f00000000000000000000000000000000000000000000000000000000000000009092169163f3fef3a39160448082019260009290919082900301818387803b158015611e3257600080fd5b505af1158015611e46573d6000803e3d6000fd5b505050505b6040805163a9059cbb60e01b81523360048201526024810183905290516001600160a01b037f0000000000000000000000000000000000000000000000000000000000000000169163a9059cbb9160448083019260209291908290030181600087803b158015611eba57600080fd5b505af1158015611ece573d6000803e3d6000fd5b505050506040513d6020811015611ee457600080fd5b5051611f215760405162461bcd60e51b815260040180806020018281038252603c8152602001806139c8603c913960400191505060405180910390fd5b600954611f37906001600160a01b031683612e94565b611f45336113c43485612c5b565b8454604080518581526020810184905281513393927fba5789da846390370bbfbf693007be2c95d0cfac69a8d175805f742dc7938321928290030190a3505060016002555050505050565b7f000000000000000000000000000000000000000000000000000000000000000081565b600280541415611ff9576040805162461bcd60e51b815260206004820152601f6024820152600080516020613892833981519152604482015290519081900360640190fd5b60028055336000908152600a60205260409020546120485760405162461bcd60e51b815260040180806020018281038252602b8152602001806138d7602b913960400191505060405180910390fd5b60035460ff1615612093576040805162461bcd60e51b815260206004820152601060248201526f14185d5cd8589b194e881c185d5cd95960821b604482015290519081900360640190fd5b80806120d05760405162461bcd60e51b8152600401808060200182810382526027815260200180613cd86027913960400191505060405180910390fd5b336000908152600a60209081526040808320548352600b9091528120906120f684612320565b9050808260010154101561213b5760405162461bcd60e51b81526004018080602001828103825260298152602001806139576029913960400191505060405180910390fd5b600282015461214a9085612abf565b6002830155600654825461215d906119d4565b101561219a5760405162461bcd60e51b8152600401808060200182810382526037815260200180613c2e6037913960400191505060405180910390fd5b7f00000000000000000000000000000000000000000000000000000000000000006001600160a01b03161561225057604080516356e4bb9760e11b81523360048201526024810186905290516001600160a01b037f0000000000000000000000000000000000000000000000000000000000000000169163adc9772e91604480830192600092919082900301818387803b15801561223757600080fd5b505af115801561224b573d6000803e3d6000fd5b505050505b604080516340c10f1960e01b81523360048201526024810186905290516001600160a01b037f000000000000000000000000000000000000000000000000000000000000000016916340c10f1991604480830192600092919082900301818387803b1580156122be57600080fd5b505af11580156122d2573d6000803e3d6000fd5b505083546040805188815290519193503392507f2e8ac5177a616f2aec08c3048f5021e4e9743ece034e8d83ba5caf76688bb475919081900360200190a3505060016002555050565b600081565b60008061232b61140c565b905060006123587f00000000000000000000000000000000000000000000000000000000000000006117a5565b9050611aa581610b2f6064610b2f60065461181d8a89612b5390919063ffffffff16565b612384612bee565b6000546001600160a01b039081169116146123d4576040805162461bcd60e51b81526020600482018190526024820152600080516020613c0e833981519152604482015290519081900360640190fd5b60968110156124145760405162461bcd60e51b8152600401808060200182810382526032815260200180613a866032913960400191505060405180910390fd5b600681905560408051828152905133917f6126d9241e4aeb647b01ddffba35de720a5b4ad692f117a43b5b281e49126fc4919081900360200190a250565b600a81565b600a6020526000908152604090205481565b6002805414156124ae576040805162461bcd60e51b815260206004820152601f6024820152600080516020613892833981519152604482015290519081900360640190fd5b60028055336000908152600a60205260409020546124fd5760405162461bcd60e51b815260040180806020018281038252602b8152602001806138d7602b913960400191505060405180910390fd5b60035460ff1615612548576040805162461bcd60e51b815260206004820152601060248201526f14185d5cd8589b194e881c185d5cd95960821b604482015290519081900360640190fd5b80806125855760405162461bcd60e51b8152600401808060200182810382526027815260200180613cd86027913960400191505060405180910390fd5b604080516323b872dd60e01b81523360048201523060248201526044810184905290516001600160a01b037f000000000000000000000000000000000000000000000000000000000000000016916323b872dd9160648083019260209291908290030181600087803b1580156125fa57600080fd5b505af115801561260e573d6000803e3d6000fd5b505050506040513d602081101561262457600080fd5b50516126615760405162461bcd60e51b815260040180806020018281038252603b815260200180613828603b913960400191505060405180910390fd5b336000908152600a60209081526040808320548352600b9091529020600181015461268c9084612abf565b6001820155805460408051858152905133917f11f8990ac38271f23dea447d5728e9914fca7cea2edda43af6c43c415f8bc30b919081900360200190a35050600160025550565b7f000000000000000000000000000000000000000000000000000000000000000081565b6000818152600160205260408120610aa1906130df565b60008281526001602052604090206002015461272c90610c82612bee565b6110305760405162461bcd60e51b8152600401808060200182810382526030815260200180613a2a6030913960400191505060405180910390fd5b60006127716137a4565b506000828152600b60209081526040808320815160808101835281548152600182015493810193909352600281015491830191909152600301546001600160a01b03166060820152906127c261140c565b905060006127ef7f00000000000000000000000000000000000000000000000000000000000000006117a5565b9050600061280e83610b2f848760200151612b5390919063ffffffff16565b9050600061283f606461181d846128396064610b2f6006548c60400151612b5390919063ffffffff16565b90612c5b565b9050600061286561285c6064600854612abf90919063ffffffff16565b60065490612c5b565b90506128718282612bac565b98975050505050505050565b612885612bee565b6000546001600160a01b039081169116146128d5576040805162461bcd60e51b81526020600482018190526024820152600080516020613c0e833981519152604482015290519081900360640190fd5b6128e6816306b5cc7760e41b612b19565b6129215760405162461bcd60e51b815260040180806020018281038252602f815260200180613928602f913960400191505060405180910390fd5b600980546001600160a01b0383166001600160a01b03199091168117909155604080519182525133917f567657fa3f286518b318f4a29870674f433f622fdfc819691acb13105b228225919081900360200190a250565b612980612bee565b6000546001600160a01b039081169116146129d0576040805162461bcd60e51b81526020600482018190526024820152600080516020613c0e833981519152604482015290519081900360640190fd5b6001600160a01b038116612a155760405162461bcd60e51b81526004018080602001828103825260268152602001806139026026913960400191505060405180910390fd5b600080546040516001600160a01b03808516939216917f8be0079c531659141344cd1fd0a4f28419497f9722a3daafe3b4186f6b6457e091a3600080546001600160a01b0319166001600160a01b0392909216919091179055565b60075481565b600080612aa27f00000000000000000000000000000000000000000000000000000000000000006117a5565b9050611b0681610b2f6064610b2f60075461181d8961181d61140c565b600082820183811015611b06576040805162461bcd60e51b815260206004820152601b60248201527f536166654d6174683a206164646974696f6e206f766572666c6f770000000000604482015290519081900360640190fd5b6000612b24836130ea565b8015611b065750611b06838361311d565b80546001019055565b6000611b06836001600160a01b038416613143565b600082612b6257506000610aa1565b82820282848281612b6f57fe5b0414611b065760405162461bcd60e51b8152600401808060200182810382526021815260200180613bed6021913960400191505060405180910390fd5b6000611b0683836040518060400160405280601a81526020017f536166654d6174683a206469766973696f6e206279207a65726f00000000000081525061318d565b3390565b6000828152600160205260409020612c0a9082612b3e565b15610ccc57612c17612bee565b6001600160a01b0316816001600160a01b0316837f2f8788117e7eff1d82e926ec794901d17c78024a50270940304540a733656f0d60405160405180910390a45050565b6000611b0683836040518060400160405280601e81526020017f536166654d6174683a207375627472616374696f6e206f766572666c6f77000081525061322f565b6000828152600160205260409020612cb59082613289565b15610ccc57612cc2612bee565b6001600160a01b0316816001600160a01b0316837ff6391f5c32d9c69d2a47ea670b442974b53935d1edc7fd64eb21e047a839171b60405160405180910390a45050565b60035460ff16612d54576040805162461bcd60e51b815260206004820152601460248201527314185d5cd8589b194e881b9bdd081c185d5cd95960621b604482015290519081900360640190fd5b6003805460ff191690557f5db9ee0a495bf2e6ff9c91a7834c1ba4fdd244a5e8aa4e537bd38aeae4b073aa612d87612bee565b604080516001600160a01b039092168252519081900360200190a1565b6000828152600b602052604090206002810154821115612df55760405162461bcd60e51b815260040180806020018281038252602c815260200180613a5a602c913960400191505060405180910390fd5b6002810154612e049083612c5b565b600282015560408051632770a7eb60e21b81523360048201526024810184905290516001600160a01b037f00000000000000000000000000000000000000000000000000000000000000001691639dc29fac91604480830192600092919082900301818387803b158015612e7757600080fd5b505af1158015612e8b573d6000803e3d6000fd5b50505050505050565b604080516000808252602082019092526001600160a01b0384169083906040518082805190602001908083835b60208310612ee05780518252601f199092019160209182019101612ec1565b6001836020036101000a03801982511681845116808217855250505050505090500191505060006040518083038185875af1925050503d8060008114612f42576040519150601f19603f3d011682016040523d82523d6000602084013e612f47565b606091505b5050905080612f875760405162461bcd60e51b8152600401808060200182810382526035815260200180613bb86035913960400191505060405180910390fd5b505050565b5490565b600080821215612fe7576040805162461bcd60e51b815260206004820181905260248201527f53616665436173743a2076616c7565206d75737420626520706f736974697665604482015290519081900360640190fd5b5090565b60035460ff1615613036576040805162461bcd60e51b815260206004820152601060248201526f14185d5cd8589b194e881c185d5cd95960821b604482015290519081900360640190fd5b6003805460ff191660011790557f62e78cea01bee320cd4e420270b5ea74000d11b0c9f74754ebdbfc544b05a258612d87612bee565b604080516001600160a01b038416602482015260448082018490528251808303909101815260649091019091526020810180516001600160e01b031663a9059cbb60e01b179052612f8790849061329e565b6000611b06838361334f565b6000611b06836001600160a01b0384166133b3565b6000610aa182612f8c565b60006130fd826301ffc9a760e01b61311d565b8015610aa15750613116826001600160e01b031961311d565b1592915050565b600080600061312c85856133cb565b9150915081801561313a5750805b95945050505050565b600061314f83836133b3565b61318557508154600181810184556000848152602080822090930184905584548482528286019093526040902091909155610aa1565b506000610aa1565b600081836132195760405162461bcd60e51b81526004018080602001828103825283818151815260200191508051906020019080838360005b838110156131de5781810151838201526020016131c6565b50505050905090810190601f16801561320b5780820380516001836020036101000a031916815260200191505b509250505060405180910390fd5b50600083858161322557fe5b0495945050505050565b600081848411156132815760405162461bcd60e51b81526020600482018181528351602484015283519092839260449091019190850190808383600083156131de5781810151838201526020016131c6565b505050900390565b6000611b06836001600160a01b0384166134ff565b60606132f3826040518060400160405280602081526020017f5361666545524332303a206c6f772d6c6576656c2063616c6c206661696c6564815250856001600160a01b03166135c59092919063ffffffff16565b805190915015612f875780806020019051602081101561331257600080fd5b5051612f875760405162461bcd60e51b815260040180806020018281038252602a815260200180613cff602a913960400191505060405180910390fd5b815460009082106133915760405162461bcd60e51b81526004018080602001828103825260228152602001806138066022913960400191505060405180910390fd5b8260000182815481106133a057fe5b9060005260206000200154905092915050565b60009081526001919091016020526040902054151590565b604080516001600160e01b0319831660248083019190915282518083039091018152604490910182526020810180516001600160e01b03166301ffc9a760e01b1781529151815160009384939284926060926001600160a01b038a169261753092879282918083835b602083106134535780518252601f199092019160209182019101613434565b6001836020036101000a0380198251168184511680821785525050505050509050019150506000604051808303818686fa925050503d80600081146134b4576040519150601f19603f3d011682016040523d82523d6000602084013e6134b9565b606091505b50915091506020815110156134d757600080945094505050506134f8565b818180602001905160208110156134ed57600080fd5b505190955093505050505b9250929050565b600081815260018301602052604081205480156135bb578354600019808301919081019060009087908390811061353257fe5b906000526020600020015490508087600001848154811061354f57fe5b60009182526020808320909101929092558281526001898101909252604090209084019055865487908061357f57fe5b60019003818190600052602060002001600090559055866001016000878152602001908152602001600020600090556001945050505050610aa1565b6000915050610aa1565b60606135d484846000856135dc565b949350505050565b60608247101561361d5760405162461bcd60e51b8152600401808060200182810382526026815260200180613a046026913960400191505060405180910390fd5b61362685613738565b613677576040805162461bcd60e51b815260206004820152601d60248201527f416464726573733a2063616c6c20746f206e6f6e2d636f6e7472616374000000604482015290519081900360640190fd5b60006060866001600160a01b031685876040518082805190602001908083835b602083106136b65780518252601f199092019160209182019101613697565b6001836020036101000a03801982511681845116808217855250505050505090500191505060006040518083038185875af1925050503d8060008114613718576040519150601f19603f3d011682016040523d82523d6000602084013e61371d565b606091505b509150915061372d82828661373e565b979650505050505050565b3b151590565b6060831561374d575081611b06565b82511561375d5782518084602001fd5b60405162461bcd60e51b81526020600482018181528451602484015284518593919283926044019190850190808383600083156131de5781810151838201526020016131c6565b604051806080016040528060008152602001600081526020016000815260200160006001600160a01b03168152509056fe5661756c7448616e646c65723a3a6372656174655661756c743a207661756c7420616c72656164792063726561746564456e756d657261626c655365743a20696e646578206f7574206f6620626f756e64735661756c7448616e646c65723a3a616464436f6c6c61746572616c3a204552433230207472616e7366657220646964206e6f742073756363656564416363657373436f6e74726f6c3a2073656e646572206d75737420626520616e2061646d696e20746f206772616e745265656e7472616e637947756172643a207265656e7472616e742063616c6c0043616e6e6f742077697468647261772074686520636f6c6c61746572616c20746f6b656e735661756c7448616e646c65723a3a7661756c744578697374733a206e6f207661756c7420637265617465644f776e61626c653a206e6577206f776e657220697320746865207a65726f20616464726573735661756c7448616e646c65723a3a73657454726561737572793a206e6f7420612076616c69642074726561737572795661756c7448616e646c65723a3a6d696e743a206e6f7420656e6f75676820636f6c6c61746572616c5661756c7448616e646c65723a3a6c69717569646174655661756c743a206c69717569646174696f6e20616d6f756e7420646966666572656e74207468616e2072657175697265645661756c7448616e646c65723a3a6c69717569646174655661756c743a204552433230207472616e7366657220646964206e6f742073756363656564416464726573733a20696e73756666696369656e742062616c616e636520666f722063616c6c416363657373436f6e74726f6c3a2073656e646572206d75737420626520616e2061646d696e20746f207265766f6b655661756c7448616e646c65723a3a6275726e3a20616d6f756e742067726561746572207468616e20646562745661756c7448616e646c65723a3a736574526174696f3a20726174696f206c6f776572207468616e204d494e5f524154494f5661756c7448616e646c65723a3a7365744275726e4665653a206275726e2066656520686967686572207468616e204d41585f4645455661756c7448616e646c65723a3a72656d6f7665436f6c6c61746572616c3a20726574726965766520616d6f756e7420686967686572207468616e20636f6c6c61746572616c5661756c7448616e646c65723a3a7365744c69717569646174696f6e50656e616c74793a206c69717569646174696f6e2070656e616c747920746f6f20686967685661756c7448616e646c65723a3a72656d6f7665436f6c6c61746572616c3a20636f6c6c61746572616c2062656c6f77206d696e20726571756972656420726174696f4554485661756c7448616e646c65723a3a736166655472616e736665724554483a20455448207472616e73666572206661696c6564536166654d6174683a206d756c7469706c69636174696f6e206f766572666c6f774f776e61626c653a2063616c6c6572206973206e6f7420746865206f776e65725661756c7448616e646c65723a3a6d696e743a20636f6c6c61746572616c2062656c6f77206d696e20726571756972656420726174696f5661756c7448616e646c65723a3a72656d6f7665436f6c6c61746572616c3a204552433230207472616e7366657220646964206e6f7420737563636565645661756c7448616e646c65723a3a6c69717569646174655661756c743a207661756c74206973206e6f74206c697175696461626c655661756c7448616e646c65723a3a6e6f745a65726f3a2076616c75652063616e277420626520305361666545524332303a204552433230206f7065726174696f6e20646964206e6f7420737563636565645661756c7448616e646c65723a3a6c69717569646174655661756c743a206e6f207661756c7420637265617465645661756c7448616e646c65723a3a6275726e3a206275726e20666565206c657373207468616e2072657175697265645661756c7448616e646c65723a3a6c69717569646174655661756c743a206275726e20666565206c657373207468616e207265717569726564416363657373436f6e74726f6c3a2063616e206f6e6c792072656e6f756e636520726f6c657320666f722073656c66a2646970667358221220ea13a66cafff062e83c4a2ce7761eb86edea775afb5f611921bd8877c1adddd264736f6c634300070500335661756c7448616e646c65723a3a636f6e7374727563746f723a20726174696f206c6f776572207468616e204d494e5f524154494f4f776e61626c653a206e6577206f776e657220697320746865207a65726f20616464726573735661756c7448616e646c65723a3a636f6e7374727563746f723a206c69717569646174696f6e2070656e616c747920746f6f20686967685661756c7448616e646c65723a3a636f6e7374727563746f723a206275726e2066656520686967686572207468616e204d41585f4645458be0079c531659141344cd1fd0a4f28419497f9722a3daafe3b4186f6b6457e05661756c7448616e646c65723a3a636f6e7374727563746f723a206e6f7420612076616c6964207472656173757279",
  "devdoc": {
    "author": "Cryptex.finance",
    "kind": "dev",
    "methods": {
      "TCAPPrice()": {
        "details": "TCAP token is 18 decimalsoracle totalMarketPrice must be in wei formatP = T / d P = TCAP Token Price T = Total Crypto Market Cap d = Divisor",
        "returns": {
          "price": "of the TCAP Token"
        }
      },
      "addCollateral(uint256)": {
        "details": "_amount should be higher than 0ERC20 token must be approved first",
        "params": {
          "_amount": "of collateral to be added"
        }
      },
      "burn(uint256)": {
        "details": "_amount should be higher than 0A fee of exactly burnFee must be sent as value on ETHThe fee goes to the treasury contractif reward handler is set exit rewards",
        "params": {
          "_amount": "of tokens to burn"
        }
      },
      "constructor": {
        "params": {
          "_burnFee": "uint256",
          "_collateralAddress": "address",
          "_collateralOracle": "address",
          "_divisor": "uint256",
          "_ethOracle": "address",
          "_liquidationPenalty": "uint256",
          "_orchestrator": "address",
          "_ratio": "uint256",
          "_rewardHandler": "address",
          "_tcapAddress": "address",
          "_tcapOracle": "address",
          "_treasury": "address"
        }
      },
      "createVault()": {
        "details": "Only one vault per address can be created"
      },
      "getFee(uint256)": {
        "details": "The returned value is returned in weif = (((P * A * b)/ 100))/ EP f = Burn Fee Value P = TCAP Token Price A = Amount to Burn b = Burn Fee % EP = ETH Price",
        "params": {
          "_amount": "to burn"
        },
        "returns": {
          "fee": "fee"
        }
      },
      "getOraclePrice(address)": {
        "params": {
          "_oracle": "to be the price called"
        },
        "returns": {
          "price": "price"
        }
      },
      "getRoleAdmin(bytes32)": {
        "details": "Returns the admin role that controls `role`. See {grantRole} and {revokeRole}. To change a role's admin, use {_setRoleAdmin}."
      },
      "getRoleMember(bytes32,uint256)": {
        "details": "Returns one of the accounts that have `role`. `index` must be a value between 0 and {getRoleMemberCount}, non-inclusive. Role bearers are not sorted in any particular way, and their ordering may change at any point. WARNING: When using {getRoleMember} and {getRoleMemberCount}, make sure you perform all queries on the same block. See the following https://forum.openzeppelin.com/t/iterating-over-elements-on-enumerableset-in-openzeppelin-contracts/2296[forum post] for more information."
      },
      "getRoleMemberCount(bytes32)": {
        "details": "Returns the number of accounts that have `role`. Can be used together with {getRoleMember} to enumerate all bearers of a role."
      },
      "getVault(uint256)": {
        "params": {
          "_id": "of vault"
        },
        "returns": {
          "_0": "Id, Collateral, Owner, Debt"
        }
      },
      "getVaultRatio(uint256)": {
        "details": "vr = (cp * (C * 100)) / D * P vr = Vault Ratio C = Vault Collateral cp = Collateral Price D = Vault Debt P = TCAP Token Price",
        "params": {
          "_vaultId": "id of vault"
        },
        "returns": {
          "currentRatio": "currentRatio"
        }
      },
      "grantRole(bytes32,address)": {
        "details": "Grants `role` to `account`. If `account` had not been already granted `role`, emits a {RoleGranted} event. Requirements: - the caller must have ``role``'s admin role."
      },
      "hasRole(bytes32,address)": {
        "details": "Returns `true` if `account` has been granted `role`."
      },
      "liquidateVault(uint256,uint256)": {
        "details": "Resulting ratio must be above or equal minimun ratioA fee of exactly burnFee must be sent as value on ETHThe fee goes to the treasury contract",
        "params": {
          "_maxTCAP": "max amount of TCAP the liquidator is willing to pay to liquidate vault",
          "_vaultId": "to liquidate"
        }
      },
      "liquidationReward(uint256)": {
        "details": "the returned value is returned as collateral currencyR = (LT * (p  + 100)) / 100 R = Liquidation Reward LT = Required Liquidation TCAP p = liquidation penalty",
        "params": {
          "_vaultId": "of the vault to liquidate"
        },
        "returns": {
          "rewardCollateral": "for liquidating Vault"
        }
      },
      "mint(uint256)": {
        "details": "_amount should be higher than 0requires to have a vault ratio above the minimum ratioif reward handler is set stake to earn rewards",
        "params": {
          "_amount": "of tokens to mint"
        }
      },
      "owner()": {
        "details": "Returns the address of the current owner."
      },
      "paused()": {
        "details": "Returns true if the contract is paused, and false otherwise."
      },
      "recoverERC20(address,uint256)": {
        "details": "Only owner  can call it",
        "params": {
          "_tokenAddress": "address",
          "_tokenAmount": "uint"
        }
      },
      "removeCollateral(uint256)": {
        "details": "reverts if the resulting ratio is less than the minimun ratio_amount should be higher than 0transfers the collateral back to the user",
        "params": {
          "_amount": "of collateral to remove"
        }
      },
      "renounceOwnership()": {
        "details": "Leaves the contract without owner. It will not be possible to call `onlyOwner` functions anymore. Can only be called by the current owner. NOTE: Renouncing ownership will leave the contract without an owner, thereby removing any functionality that is only available to the owner."
      },
      "renounceRole(bytes32,address)": {
        "details": "Revokes `role` from the calling account. Roles are often managed via {grantRole} and {revokeRole}: this function's purpose is to provide a mechanism for accounts to lose their privileges if they are compromised (such as when a trusted device is misplaced). If the calling account had been granted `role`, emits a {RoleRevoked} event. Requirements: - the caller must be `account`."
      },
      "requiredCollateral(uint256)": {
        "details": "TCAP token is 18 decimalsC = ((P * A * r) / 100) / cp C = Required Collateral P = TCAP Token Price A = Amount to Mint cp = Collateral Price r = Minimun Ratio for Liquidation Is only divided by 100 as eth price comes in wei to cancel the additional 0s",
        "params": {
          "_amount": "uint amount to mint"
        },
        "returns": {
          "collateral": "of the TCAP Token"
        }
      },
      "requiredLiquidationTCAP(uint256)": {
        "details": "LT = ((((D * r) / 100) - cTcap) * 100) / (r - (p + 100)) cTcap = ((C * cp) / P) LT = Required TCAP D = Vault Debt C = Required Collateral P = TCAP Token Price cp = Collateral Price r = Min Vault Ratio p = Liquidation Penalty",
        "params": {
          "_vaultId": "of the vault to liquidate"
        },
        "returns": {
          "amount": "required of the TCAP Token"
        }
      },
      "revokeRole(bytes32,address)": {
        "details": "Revokes `role` from `account`. If `account` had been granted `role`, emits a {RoleRevoked} event. Requirements: - the caller must have ``role``'s admin role."
      },
      "setBurnFee(uint256)": {
        "details": "Only owner can call it",
        "params": {
          "_burnFee": "uint"
        }
      },
      "setLiquidationPenalty(uint256)": {
        "details": "Only owner can call itrecommended value is between 1-15% and can't be above 100%",
        "params": {
          "_liquidationPenalty": "uint"
        }
      },
      "setRatio(uint256)": {
        "details": "Only owner can call it",
        "params": {
          "_ratio": "uint"
        }
      },
      "setTreasury(address)": {
        "details": "Only owner can call it",
        "params": {
          "_treasury": "address"
        }
      },
      "supportsInterface(bytes4)": {
        "params": {
          "_interfaceId": "bytes of interface"
        },
        "returns": {
          "_0": "bool"
        }
      },
      "transferOwnership(address)": {
        "details": "Transfers ownership of the contract to a new account (`newOwner`). Can only be called by the current owner."
      }
    },
    "title": "ERC-20 TCAP Vault",
    "version": 1
  },
  "userdoc": {
    "events": {
      "CollateralAdded(address,uint256,uint256)": {
        "notice": "An event emitted when collateral is added to a vault"
      },
      "CollateralRemoved(address,uint256,uint256)": {
        "notice": "An event emitted when collateral is removed from a vault"
      },
      "NewBurnFee(address,uint256)": {
        "notice": "An event emitted when the burn fee is updated"
      },
      "NewLiquidationPenalty(address,uint256)": {
        "notice": "An event emitted when the liquidation penalty is updated"
      },
      "NewRatio(address,uint256)": {
        "notice": "An event emitted when the ratio is updated"
      },
      "NewTreasury(address,address)": {
        "notice": "An event emitted when the treasury contract is updated"
      },
      "Recovered(address,uint256)": {
        "notice": "An event emitted when a erc20 token is recovered"
      },
      "TokensBurned(address,uint256,uint256)": {
        "notice": "An event emitted when tokens are burned"
      },
      "TokensMinted(address,uint256,uint256)": {
        "notice": "An event emitted when tokens are minted"
      },
      "VaultCreated(address,uint256)": {
        "notice": "An event emitted when a vault is created"
      },
      "VaultLiquidated(uint256,address,uint256,uint256)": {
        "notice": "An event emitted when a vault is liquidated"
      }
    },
    "kind": "user",
    "methods": {
      "ETHPriceOracle()": {
        "notice": "ETH/USD Oracle Address"
      },
      "MAX_FEE()": {
        "notice": "Maximum value that the burn fee can be set to"
      },
      "MIN_RATIO()": {
        "notice": "Minimum value that the ratio can be set to"
      },
      "TCAPPrice()": {
        "notice": "Returns the price of the TCAP token"
      },
      "TCAPToken()": {
        "notice": "TCAP Token Address"
      },
      "addCollateral(uint256)": {
        "notice": "Allows users to add collateral to their vaults"
      },
      "burn(uint256)": {
        "notice": "Pays the debt of TCAP tokens resulting them on burn, this releases collateral up to minimun vault ratio"
      },
      "burnFee()": {
        "notice": "Fee percentage of the total amount to burn charged on ETH when burning TCAP Tokens"
      },
      "collateralContract()": {
        "notice": "Collateral Token Address"
      },
      "collateralPriceOracle()": {
        "notice": "Collateral/USD Oracle Address"
      },
      "constructor": {
        "notice": "Constructor"
      },
      "counter()": {
        "notice": "Vault Id counter"
      },
      "createVault()": {
        "notice": "Allows an user to create an unique Vault"
      },
      "divisor()": {
        "notice": "Value used as divisor with the total market cap, just like the S&P 500 or any major financial index would to define the final tcap token price"
      },
      "getFee(uint256)": {
        "notice": "Returns the required fee of ETH to burn the TCAP tokens"
      },
      "getOraclePrice(address)": {
        "notice": "Returns the price of the chainlink oracle multiplied by the digits to get 18 decimals format"
      },
      "getVault(uint256)": {
        "notice": "Returns the Vault information of specified identifier"
      },
      "getVaultRatio(uint256)": {
        "notice": "Returns the Collateral Ratio of the Vault"
      },
      "liquidateVault(uint256,uint256)": {
        "notice": "Allow users to burn TCAP tokens to liquidate vaults with vault collateral ratio under the minium ratio, the liquidator receives the staked collateral of the liquidated vault at a premium"
      },
      "liquidationPenalty()": {
        "notice": "Penalty charged to vault owner when a vault is liquidated, this value goes to the liquidator"
      },
      "liquidationReward(uint256)": {
        "notice": "Returns the Reward for liquidating a vault"
      },
      "mint(uint256)": {
        "notice": "Uses collateral to generate debt on TCAP Tokens which are minted and assigend to caller"
      },
      "oracleDigits()": {
        "notice": "value used to multiply chainlink oracle for handling decimals"
      },
      "pause()": {
        "notice": "Allows the owner to Pause the Contract"
      },
      "ratio()": {
        "notice": "Minimun ratio required to prevent liquidation of vault"
      },
      "recoverERC20(address,uint256)": {
        "notice": "Added to support recovering LP Rewards from other systems such as BAL to be distributed to holders"
      },
      "removeCollateral(uint256)": {
        "notice": "Allows users to remove collateral currently not being used to generate TCAP tokens from their vaults"
      },
      "requiredCollateral(uint256)": {
        "notice": "Returns the minimal required collateral to mint TCAP token"
      },
      "requiredLiquidationTCAP(uint256)": {
        "notice": "Returns the minimal required TCAP to liquidate a Vault"
      },
      "rewardHandler()": {
        "notice": "Address of the contract that gives rewards to minters of TCAP, rewards are only given if address is set in constructor"
      },
      "setBurnFee(uint256)": {
        "notice": "Sets the burn fee percentage an user pays when burning tcap tokens"
      },
      "setLiquidationPenalty(uint256)": {
        "notice": "Sets the liquidation penalty % charged on liquidation"
      },
      "setRatio(uint256)": {
        "notice": "Sets the collateral ratio needed to mint tokens"
      },
      "setTreasury(address)": {
        "notice": "Sets the treasury contract address where fees are transfered to"
      },
      "supportsInterface(bytes4)": {
        "notice": "ERC165 Standard for support of interfaces"
      },
      "tcapOracle()": {
        "notice": "Total Market Cap/USD Oracle Address"
      },
      "treasury()": {
        "notice": "Address of the treasury contract (usually the timelock) where the funds generated by the protocol are sent"
      },
      "unpause()": {
        "notice": "Allows the owner to Unpause the Contract"
      },
      "userToVault(address)": {
        "notice": "Owner address to Vault Id"
      },
      "vaults(uint256)": {
        "notice": "Id To Vault"
      }
    },
    "notice": "Contract in charge of handling the TCAP Vault and stake using a Collateral ERC20",
    "version": 1
  },
  "storageLayout": {
    "storage": [
      {
        "astId": 359,
        "contract": "contracts/ERC20VaultHandler.sol:ERC20VaultHandler",
        "label": "_owner",
        "offset": 0,
        "slot": "0",
        "type": "t_address"
      },
      {
        "astId": 91,
        "contract": "contracts/ERC20VaultHandler.sol:ERC20VaultHandler",
        "label": "_roles",
        "offset": 0,
        "slot": "1",
        "type": "t_mapping(t_bytes32,t_struct(RoleData)87_storage)"
      },
      {
        "astId": 2509,
        "contract": "contracts/ERC20VaultHandler.sol:ERC20VaultHandler",
        "label": "_status",
        "offset": 0,
        "slot": "2",
        "type": "t_uint256"
      },
      {
        "astId": 2426,
        "contract": "contracts/ERC20VaultHandler.sol:ERC20VaultHandler",
        "label": "_paused",
        "offset": 0,
        "slot": "3",
        "type": "t_bool"
      },
      {
        "astId": 3195,
        "contract": "contracts/ERC20VaultHandler.sol:ERC20VaultHandler",
        "label": "counter",
        "offset": 0,
        "slot": "4",
        "type": "t_struct(Counter)1888_storage"
      },
      {
        "astId": 3213,
        "contract": "contracts/ERC20VaultHandler.sol:ERC20VaultHandler",
        "label": "divisor",
        "offset": 0,
        "slot": "5",
        "type": "t_uint256"
      },
      {
        "astId": 3216,
        "contract": "contracts/ERC20VaultHandler.sol:ERC20VaultHandler",
        "label": "ratio",
        "offset": 0,
        "slot": "6",
        "type": "t_uint256"
      },
      {
        "astId": 3219,
        "contract": "contracts/ERC20VaultHandler.sol:ERC20VaultHandler",
        "label": "burnFee",
        "offset": 0,
        "slot": "7",
        "type": "t_uint256"
      },
      {
        "astId": 3222,
        "contract": "contracts/ERC20VaultHandler.sol:ERC20VaultHandler",
        "label": "liquidationPenalty",
        "offset": 0,
        "slot": "8",
        "type": "t_uint256"
      },
      {
        "astId": 3228,
        "contract": "contracts/ERC20VaultHandler.sol:ERC20VaultHandler",
        "label": "treasury",
        "offset": 0,
        "slot": "9",
        "type": "t_address"
      },
      {
        "astId": 3233,
        "contract": "contracts/ERC20VaultHandler.sol:ERC20VaultHandler",
        "label": "userToVault",
        "offset": 0,
        "slot": "10",
        "type": "t_mapping(t_address,t_uint256)"
      },
      {
        "astId": 3238,
        "contract": "contracts/ERC20VaultHandler.sol:ERC20VaultHandler",
        "label": "vaults",
        "offset": 0,
        "slot": "11",
        "type": "t_mapping(t_uint256,t_struct(Vault)3192_storage)"
      }
    ],
    "types": {
      "t_address": {
        "encoding": "inplace",
        "label": "address",
        "numberOfBytes": "20"
      },
      "t_array(t_bytes32)dyn_storage": {
        "base": "t_bytes32",
        "encoding": "dynamic_array",
        "label": "bytes32[]",
        "numberOfBytes": "32"
      },
      "t_bool": {
        "encoding": "inplace",
        "label": "bool",
        "numberOfBytes": "1"
      },
      "t_bytes32": {
        "encoding": "inplace",
        "label": "bytes32",
        "numberOfBytes": "32"
      },
      "t_mapping(t_address,t_uint256)": {
        "encoding": "mapping",
        "key": "t_address",
        "label": "mapping(address => uint256)",
        "numberOfBytes": "32",
        "value": "t_uint256"
      },
      "t_mapping(t_bytes32,t_struct(RoleData)87_storage)": {
        "encoding": "mapping",
        "key": "t_bytes32",
        "label": "mapping(bytes32 => struct AccessControl.RoleData)",
        "numberOfBytes": "32",
        "value": "t_struct(RoleData)87_storage"
      },
      "t_mapping(t_bytes32,t_uint256)": {
        "encoding": "mapping",
        "key": "t_bytes32",
        "label": "mapping(bytes32 => uint256)",
        "numberOfBytes": "32",
        "value": "t_uint256"
      },
      "t_mapping(t_uint256,t_struct(Vault)3192_storage)": {
        "encoding": "mapping",
        "key": "t_uint256",
        "label": "mapping(uint256 => struct IVaultHandler.Vault)",
        "numberOfBytes": "32",
        "value": "t_struct(Vault)3192_storage"
      },
      "t_struct(AddressSet)2204_storage": {
        "encoding": "inplace",
        "label": "struct EnumerableSet.AddressSet",
        "members": [
          {
            "astId": 2203,
            "contract": "contracts/ERC20VaultHandler.sol:ERC20VaultHandler",
            "label": "_inner",
            "offset": 0,
            "slot": "0",
            "type": "t_struct(Set)1939_storage"
          }
        ],
        "numberOfBytes": "64"
      },
      "t_struct(Counter)1888_storage": {
        "encoding": "inplace",
        "label": "struct Counters.Counter",
        "members": [
          {
            "astId": 1887,
            "contract": "contracts/ERC20VaultHandler.sol:ERC20VaultHandler",
            "label": "_value",
            "offset": 0,
            "slot": "0",
            "type": "t_uint256"
          }
        ],
        "numberOfBytes": "32"
      },
      "t_struct(RoleData)87_storage": {
        "encoding": "inplace",
        "label": "struct AccessControl.RoleData",
        "members": [
          {
            "astId": 84,
            "contract": "contracts/ERC20VaultHandler.sol:ERC20VaultHandler",
            "label": "members",
            "offset": 0,
            "slot": "0",
            "type": "t_struct(AddressSet)2204_storage"
          },
          {
            "astId": 86,
            "contract": "contracts/ERC20VaultHandler.sol:ERC20VaultHandler",
            "label": "adminRole",
            "offset": 0,
            "slot": "2",
            "type": "t_bytes32"
          }
        ],
        "numberOfBytes": "96"
      },
      "t_struct(Set)1939_storage": {
        "encoding": "inplace",
        "label": "struct EnumerableSet.Set",
        "members": [
          {
            "astId": 1934,
            "contract": "contracts/ERC20VaultHandler.sol:ERC20VaultHandler",
            "label": "_values",
            "offset": 0,
            "slot": "0",
            "type": "t_array(t_bytes32)dyn_storage"
          },
          {
            "astId": 1938,
            "contract": "contracts/ERC20VaultHandler.sol:ERC20VaultHandler",
            "label": "_indexes",
            "offset": 0,
            "slot": "1",
            "type": "t_mapping(t_bytes32,t_uint256)"
          }
        ],
        "numberOfBytes": "64"
      },
      "t_struct(Vault)3192_storage": {
        "encoding": "inplace",
        "label": "struct IVaultHandler.Vault",
        "members": [
          {
            "astId": 3185,
            "contract": "contracts/ERC20VaultHandler.sol:ERC20VaultHandler",
            "label": "Id",
            "offset": 0,
            "slot": "0",
            "type": "t_uint256"
          },
          {
            "astId": 3187,
            "contract": "contracts/ERC20VaultHandler.sol:ERC20VaultHandler",
            "label": "Collateral",
            "offset": 0,
            "slot": "1",
            "type": "t_uint256"
          },
          {
            "astId": 3189,
            "contract": "contracts/ERC20VaultHandler.sol:ERC20VaultHandler",
            "label": "Debt",
            "offset": 0,
            "slot": "2",
            "type": "t_uint256"
          },
          {
            "astId": 3191,
            "contract": "contracts/ERC20VaultHandler.sol:ERC20VaultHandler",
            "label": "Owner",
            "offset": 0,
            "slot": "3",
            "type": "t_address"
          }
        ],
        "numberOfBytes": "128"
      },
      "t_uint256": {
        "encoding": "inplace",
        "label": "uint256",
        "numberOfBytes": "32"
      }
    }
  }
}