{
  "address": "0x373C74BcE7893097ab26d22f05691907D4f2c18e",
  "abi": [
    {
      "inputs": [
        {
          "internalType": "address",
          "name": "_guardian",
          "type": "address"
        }
      ],
      "stateMutability": "nonpayable",
      "type": "constructor"
    },
    {
      "anonymous": false,
      "inputs": [
        {
          "indexed": true,
          "internalType": "address",
          "name": "_owner",
          "type": "address"
        },
        {
          "indexed": false,
          "internalType": "address",
          "name": "guardian",
          "type": "address"
        }
      ],
      "name": "GuardianSet",
      "type": "event"
    },
    {
      "anonymous": false,
      "inputs": [
        {
          "indexed": true,
          "internalType": "address",
          "name": "previousOwner",
          "type": "address"
        },
        {
          "indexed": true,
          "internalType": "address",
          "name": "newOwner",
          "type": "address"
        }
      ],
      "name": "OwnershipTransferred",
      "type": "event"
    },
    {
      "anonymous": false,
      "inputs": [
        {
          "indexed": true,
          "internalType": "address",
          "name": "target",
          "type": "address"
        },
        {
          "indexed": false,
          "internalType": "uint256",
          "name": "value",
          "type": "uint256"
        },
        {
          "indexed": false,
          "internalType": "string",
          "name": "signature",
          "type": "string"
        },
        {
          "indexed": false,
          "internalType": "bytes",
          "name": "data",
          "type": "bytes"
        }
      ],
      "name": "TransactionExecuted",
      "type": "event"
    },
    {
      "inputs": [
        {
          "internalType": "contract TCAP",
          "name": "_tcap",
          "type": "address"
        },
        {
          "internalType": "contract IVaultHandler",
          "name": "_vault",
          "type": "address"
        }
      ],
      "name": "addTCAPVault",
      "outputs": [],
      "stateMutability": "nonpayable",
      "type": "function"
    },
    {
      "inputs": [
        {
          "internalType": "contract TCAP",
          "name": "_tcap",
          "type": "address"
        },
        {
          "internalType": "bool",
          "name": "_enable",
          "type": "bool"
        }
      ],
      "name": "enableTCAPCap",
      "outputs": [],
      "stateMutability": "nonpayable",
      "type": "function"
    },
    {
      "inputs": [
        {
          "internalType": "address",
          "name": "target",
          "type": "address"
        },
        {
          "internalType": "uint256",
          "name": "value",
          "type": "uint256"
        },
        {
          "internalType": "string",
          "name": "signature",
          "type": "string"
        },
        {
          "internalType": "bytes",
          "name": "data",
          "type": "bytes"
        }
      ],
      "name": "executeTransaction",
      "outputs": [
        {
          "internalType": "bytes",
          "name": "",
          "type": "bytes"
        }
      ],
      "stateMutability": "payable",
      "type": "function"
    },
    {
      "inputs": [],
      "name": "guardian",
      "outputs": [
        {
          "internalType": "address",
          "name": "",
          "type": "address"
        }
      ],
      "stateMutability": "view",
      "type": "function"
    },
    {
      "inputs": [],
      "name": "owner",
      "outputs": [
        {
          "internalType": "address",
          "name": "",
          "type": "address"
        }
      ],
      "stateMutability": "view",
      "type": "function"
    },
    {
      "inputs": [
        {
          "internalType": "contract IVaultHandler",
          "name": "_vault",
          "type": "address"
        }
      ],
      "name": "pauseVault",
      "outputs": [],
      "stateMutability": "nonpayable",
      "type": "function"
    },
    {
      "inputs": [
        {
          "internalType": "contract TCAP",
          "name": "_tcap",
          "type": "address"
        },
        {
          "internalType": "contract IVaultHandler",
          "name": "_vault",
          "type": "address"
        }
      ],
      "name": "removeTCAPVault",
      "outputs": [],
      "stateMutability": "nonpayable",
      "type": "function"
    },
    {
      "inputs": [],
      "name": "renounceOwnership",
      "outputs": [],
      "stateMutability": "nonpayable",
      "type": "function"
    },
    {
      "inputs": [
        {
          "internalType": "address",
          "name": "_to",
          "type": "address"
        }
      ],
      "name": "retrieveETH",
      "outputs": [],
      "stateMutability": "nonpayable",
      "type": "function"
    },
    {
      "inputs": [
        {
          "internalType": "contract IVaultHandler",
          "name": "_vault",
          "type": "address"
        },
        {
          "internalType": "uint256",
          "name": "_burnFee",
          "type": "uint256"
        }
      ],
      "name": "setBurnFee",
      "outputs": [],
      "stateMutability": "nonpayable",
      "type": "function"
    },
    {
      "inputs": [
        {
          "internalType": "contract IVaultHandler",
          "name": "_vault",
          "type": "address"
        }
      ],
      "name": "setEmergencyBurnFee",
      "outputs": [],
      "stateMutability": "nonpayable",
      "type": "function"
    },
    {
      "inputs": [
        {
          "internalType": "contract IVaultHandler",
          "name": "_vault",
          "type": "address"
        }
      ],
      "name": "setEmergencyLiquidationPenalty",
      "outputs": [],
      "stateMutability": "nonpayable",
      "type": "function"
    },
    {
      "inputs": [
        {
          "internalType": "address",
          "name": "_guardian",
          "type": "address"
        }
      ],
      "name": "setGuardian",
      "outputs": [],
      "stateMutability": "nonpayable",
      "type": "function"
    },
    {
      "inputs": [
        {
          "internalType": "contract IVaultHandler",
          "name": "_vault",
          "type": "address"
        },
        {
          "internalType": "uint256",
          "name": "_liquidationPenalty",
          "type": "uint256"
        }
      ],
      "name": "setLiquidationPenalty",
      "outputs": [],
      "stateMutability": "nonpayable",
      "type": "function"
    },
    {
      "inputs": [
        {
          "internalType": "contract IVaultHandler",
          "name": "_vault",
          "type": "address"
        },
        {
          "internalType": "uint256",
          "name": "_ratio",
          "type": "uint256"
        }
      ],
      "name": "setRatio",
      "outputs": [],
      "stateMutability": "nonpayable",
      "type": "function"
    },
    {
      "inputs": [
        {
          "internalType": "contract TCAP",
          "name": "_tcap",
          "type": "address"
        },
        {
          "internalType": "uint256",
          "name": "_cap",
          "type": "uint256"
        }
      ],
      "name": "setTCAPCap",
      "outputs": [],
      "stateMutability": "nonpayable",
      "type": "function"
    },
    {
      "inputs": [
        {
          "internalType": "address",
          "name": "newOwner",
          "type": "address"
        }
      ],
      "name": "transferOwnership",
      "outputs": [],
      "stateMutability": "nonpayable",
      "type": "function"
    },
    {
      "inputs": [
        {
          "internalType": "contract IVaultHandler",
          "name": "_vault",
          "type": "address"
        }
      ],
      "name": "unpauseVault",
      "outputs": [],
      "stateMutability": "nonpayable",
      "type": "function"
    },
    {
      "stateMutability": "payable",
      "type": "receive"
    }
  ],
  "transactionHash": "0x1f5c06f154e5b7a6d4bbe85b5ae8d99900e058e01f8836c94ed4e7e30f6c667e",
  "args": [
    "0xa70b638B70154EdfCbb8DbbBd04900F328F32c35"
  ],
  "solcInputHash": "7a2ec06170535469f280147f73cb3aa1",
  "bytecode": "0x608060405234801561001057600080fd5b50604051611ee2380380611ee28339818101604052602081101561003357600080fd5b5051600061003f6100f3565b600080546001600160a01b0319166001600160a01b0383169081178255604051929350917f8be0079c531659141344cd1fd0a4f28419497f9722a3daafe3b4186f6b6457e0908290a3506001600160a01b0381166100ce5760405162461bcd60e51b8152600401808060200182810382526031815260200180611eb16031913960400191505060405180910390fd5b600180546001600160a01b0319166001600160a01b03929092169190911790556100f7565b3390565b611dab806101066000396000f3fe60806040526004361061010d5760003560e01c80638a0dac4a11610095578063c0bd6f9e11610064578063c0bd6f9e14610522578063c1a017b914610555578063c5f20d7b14610588578063f2fde38b146105c1578063f4c7c76c146105f457610114565b80638a0dac4a146104665780638d887163146104995780638da5cb5b146104d25780639ab4e67f146104e757610114565b8063393179c4116100dc578063393179c414610371578063452a9320146103ac578063715018a6146103dd5780637532ce70146103f25780637e0e28011461042b57610114565b8063057520471461011957806310a76fb1146101545780632224fa25146101875780632efbab2c1461033e57610114565b3661011457005b600080fd5b34801561012557600080fd5b506101526004803603604081101561013c57600080fd5b506001600160a01b038135169060200135610627565b005b34801561016057600080fd5b506101526004803603602081101561017757600080fd5b50356001600160a01b031661072f565b6102c96004803603608081101561019d57600080fd5b6001600160a01b03823516916020810135918101906060810160408201356401000000008111156101cd57600080fd5b8201836020820111156101df57600080fd5b8035906020019184600183028401116401000000008311171561020157600080fd5b91908080601f016020809104026020016040519081016040528093929190818152602001838380828437600092019190915250929594936020810193503591505064010000000081111561025457600080fd5b82018360208201111561026657600080fd5b8035906020019184600183028401116401000000008311171561028857600080fd5b91908080601f016020809104026020016040519081016040528093929190818152602001838380828437600092019190915250929550610809945050505050565b6040805160208082528351818301528351919283929083019185019080838360005b838110156103035781810151838201526020016102eb565b50505050905090810190601f1680156103305780820380516001836020036101000a031916815260200191505b509250505060405180910390f35b34801561034a57600080fd5b506101526004803603602081101561036157600080fd5b50356001600160a01b0316610b42565b34801561037d57600080fd5b506101526004803603604081101561039457600080fd5b506001600160a01b0381358116916020013516610c2f565b3480156103b857600080fd5b506103c1610d8e565b604080516001600160a01b039092168252519081900360200190f35b3480156103e957600080fd5b50610152610d9d565b3480156103fe57600080fd5b506101526004803603604081101561041557600080fd5b506001600160a01b038135169060200135610e3f565b34801561043757600080fd5b506101526004803603604081101561044e57600080fd5b506001600160a01b0381351690602001351515610f2a565b34801561047257600080fd5b506101526004803603602081101561048957600080fd5b50356001600160a01b0316611017565b3480156104a557600080fd5b50610152600480360360408110156104bc57600080fd5b506001600160a01b03813516906020013561110b565b3480156104de57600080fd5b506103c16111f6565b3480156104f357600080fd5b506101526004803603604081101561050a57600080fd5b506001600160a01b0381358116916020013516611205565b34801561052e57600080fd5b506101526004803603602081101561054557600080fd5b50356001600160a01b0316611346565b34801561056157600080fd5b506101526004803603602081101561057857600080fd5b50356001600160a01b03166114a5565b34801561059457600080fd5b50610152600480360360408110156105ab57600080fd5b506001600160a01b03813516906020013561160d565b3480156105cd57600080fd5b50610152600480360360208110156105e457600080fd5b50356001600160a01b03166116f8565b34801561060057600080fd5b506101526004803603602081101561061757600080fd5b50356001600160a01b03166117f0565b61062f611956565b6000546001600160a01b0390811691161461067f576040805162461bcd60e51b81526020600482018190526024820152600080516020611c7d833981519152604482015290519081900360640190fd5b816106918163279d6ac360e21b61195a565b6106cc5760405162461bcd60e51b815260040180806020018281038252602b815260200180611d4b602b913960400191505060405180910390fd5b826001600160a01b031663b2237ba3836040518263ffffffff1660e01b815260040180828152602001915050600060405180830381600087803b15801561071257600080fd5b505af1158015610726573d6000803e3d6000fd5b50505050505050565b610737611956565b6000546001600160a01b03908116911614610787576040805162461bcd60e51b81526020600482018190526024820152600080516020611c7d833981519152604482015290519081900360640190fd5b6001600160a01b0381166107cc5760405162461bcd60e51b8152600401808060200182810382526030815260200180611ba96030913960400191505060405180910390fd5b60405147906001600160a01b0383169082156108fc029083906000818181858888f19350505050158015610804573d6000803e3d6000fd5b505050565b6060610813611956565b6000546001600160a01b03908116911614610863576040805162461bcd60e51b81526020600482018190526024820152600080516020611c7d833981519152604482015290519081900360640190fd5b60608351600014156108765750816108f9565b83805190602001208360405160200180836001600160e01b031916815260040182805190602001908083835b602083106108c15780518252601f1990920191602091820191016108a2565b6001836020036101000a0380198251168184511680821785525050505050509050019250505060405160208183030381529060405290505b6001600160a01b03861661093e5760405162461bcd60e51b8152600401808060200182810382526036815260200180611b326036913960400191505060405180910390fd5b60006060876001600160a01b031687846040518082805190602001908083835b6020831061097d5780518252601f19909201916020918201910161095e565b6001836020036101000a03801982511681845116808217855250505050505090500191505060006040518083038185875af1925050503d80600081146109df576040519150601f19603f3d011682016040523d82523d6000602084013e6109e4565b606091505b509150915081610a255760405162461bcd60e51b8152600401808060200182810382526041815260200180611b686041913960600191505060405180910390fd5b876001600160a01b03167f02351f450e2fc766dda692922cd0e080a07d702d68757f2154bf686ee052be6e888888604051808481526020018060200180602001838103835285818151815260200191508051906020019080838360005b83811015610a9a578181015183820152602001610a82565b50505050905090810190601f168015610ac75780820380516001836020036101000a031916815260200191505b50838103825284518152845160209182019186019080838360005b83811015610afa578181015183820152602001610ae2565b50505050905090810190601f168015610b275780820380516001836020036101000a031916815260200191505b509550505050505060405180910390a2979650505050505050565b6001546001600160a01b03163314610b8b5760405162461bcd60e51b8152600401808060200182810382526036815260200180611ce66036913960400191505060405180910390fd5b80610b9d8163279d6ac360e21b61195a565b610bd85760405162461bcd60e51b815260040180806020018281038252602b815260200180611d4b602b913960400191505060405180910390fd5b816001600160a01b0316633f4ba83a6040518163ffffffff1660e01b8152600401600060405180830381600087803b158015610c1357600080fd5b505af1158015610c27573d6000803e3d6000fd5b505050505050565b610c37611956565b6000546001600160a01b03908116911614610c87576040805162461bcd60e51b81526020600482018190526024820152600080516020611c7d833981519152604482015290519081900360640190fd5b81610c998163bd11593960e01b61195a565b610cd45760405162461bcd60e51b815260040180806020018281038252602f815260200180611d1c602f913960400191505060405180910390fd5b81610ce68163279d6ac360e21b61195a565b610d215760405162461bcd60e51b815260040180806020018281038252602b815260200180611d4b602b913960400191505060405180910390fd5b836001600160a01b0316633316b246846040518263ffffffff1660e01b815260040180826001600160a01b03168152602001915050600060405180830381600087803b158015610d7057600080fd5b505af1158015610d84573d6000803e3d6000fd5b5050505050505050565b6001546001600160a01b031681565b610da5611956565b6000546001600160a01b03908116911614610df5576040805162461bcd60e51b81526020600482018190526024820152600080516020611c7d833981519152604482015290519081900360640190fd5b600080546040516001600160a01b03909116907f8be0079c531659141344cd1fd0a4f28419497f9722a3daafe3b4186f6b6457e0908390a3600080546001600160a01b0319169055565b610e47611956565b6000546001600160a01b03908116911614610e97576040805162461bcd60e51b81526020600482018190526024820152600080516020611c7d833981519152604482015290519081900360640190fd5b81610ea98163279d6ac360e21b61195a565b610ee45760405162461bcd60e51b815260040180806020018281038252602b815260200180611d4b602b913960400191505060405180910390fd5b826001600160a01b0316634bf2c7c9836040518263ffffffff1660e01b815260040180828152602001915050600060405180830381600087803b15801561071257600080fd5b610f32611956565b6000546001600160a01b03908116911614610f82576040805162461bcd60e51b81526020600482018190526024820152600080516020611c7d833981519152604482015290519081900360640190fd5b81610f948163bd11593960e01b61195a565b610fcf5760405162461bcd60e51b815260040180806020018281038252602f815260200180611d1c602f913960400191505060405180910390fd5b826001600160a01b031663979f5f28836040518263ffffffff1660e01b8152600401808215158152602001915050600060405180830381600087803b15801561071257600080fd5b61101f611956565b6000546001600160a01b0390811691161461106f576040805162461bcd60e51b81526020600482018190526024820152600080516020611c7d833981519152604482015290519081900360640190fd5b6001600160a01b0381166110b45760405162461bcd60e51b8152600401808060200182810382526031815260200180611c4c6031913960400191505060405180910390fd5b600180546001600160a01b0383166001600160a01b03199091168117909155604080519182525133917fc3ce29e3ab42e524b6f6f1b4d3674898d503ee3577a64ac87b555904ebc14138919081900360200190a250565b611113611956565b6000546001600160a01b03908116911614611163576040805162461bcd60e51b81526020600482018190526024820152600080516020611c7d833981519152604482015290519081900360640190fd5b816111758163bd11593960e01b61195a565b6111b05760405162461bcd60e51b815260040180806020018281038252602f815260200180611d1c602f913960400191505060405180910390fd5b826001600160a01b03166347786d37836040518263ffffffff1660e01b815260040180828152602001915050600060405180830381600087803b15801561071257600080fd5b6000546001600160a01b031690565b61120d611956565b6000546001600160a01b0390811691161461125d576040805162461bcd60e51b81526020600482018190526024820152600080516020611c7d833981519152604482015290519081900360640190fd5b8161126f8163bd11593960e01b61195a565b6112aa5760405162461bcd60e51b815260040180806020018281038252602f815260200180611d1c602f913960400191505060405180910390fd5b816112bc8163279d6ac360e21b61195a565b6112f75760405162461bcd60e51b815260040180806020018281038252602b815260200180611d4b602b913960400191505060405180910390fd5b836001600160a01b031663165f7a5e846040518263ffffffff1660e01b815260040180826001600160a01b03168152602001915050600060405180830381600087803b158015610d7057600080fd5b6001546001600160a01b0316331461138f5760405162461bcd60e51b8152600401808060200182810382526036815260200180611ce66036913960400191505060405180910390fd5b806113a18163279d6ac360e21b61195a565b6113dc5760405162461bcd60e51b815260040180806020018281038252602b815260200180611d4b602b913960400191505060405180910390fd5b6001600160a01b038216600090815260026020818152604080842092845291905290205460ff161515600114156114445760405162461bcd60e51b8152600401808060200182810382526035815260200180611bd96035913960400191505060405180910390fd5b6001600160a01b0382166000818152600260208181526040808420928452919052808220805460ff191660011790558051638456cb5960e01b81529051638456cb599260048084019391929182900301818387803b158015610c1357600080fd5b6001546001600160a01b031633146114ee5760405162461bcd60e51b8152600401808060200182810382526036815260200180611ce66036913960400191505060405180910390fd5b806115008163279d6ac360e21b61195a565b61153b5760405162461bcd60e51b815260040180806020018281038252602b815260200180611d4b602b913960400191505060405180910390fd5b6001600160a01b0382166000908152600260209081526040808320600180855292529091205460ff16151514156115a35760405162461bcd60e51b8152600401808060200182810382526049815260200180611c9d6049913960600191505060405180910390fd5b6001600160a01b038216600081815260026020908152604080832060018085529252808320805460ff19169092179091558051632806a74360e01b8152600481018390529051632806a7439260248084019391929182900301818387803b158015610c1357600080fd5b611615611956565b6000546001600160a01b03908116911614611665576040805162461bcd60e51b81526020600482018190526024820152600080516020611c7d833981519152604482015290519081900360640190fd5b816116778163279d6ac360e21b61195a565b6116b25760405162461bcd60e51b815260040180806020018281038252602b815260200180611d4b602b913960400191505060405180910390fd5b826001600160a01b0316632806a743836040518263ffffffff1660e01b815260040180828152602001915050600060405180830381600087803b15801561071257600080fd5b611700611956565b6000546001600160a01b03908116911614611750576040805162461bcd60e51b81526020600482018190526024820152600080516020611c7d833981519152604482015290519081900360640190fd5b6001600160a01b0381166117955760405162461bcd60e51b8152600401808060200182810382526026815260200180611b0c6026913960400191505060405180910390fd5b600080546040516001600160a01b03808516939216917f8be0079c531659141344cd1fd0a4f28419497f9722a3daafe3b4186f6b6457e091a3600080546001600160a01b0319166001600160a01b0392909216919091179055565b6001546001600160a01b031633146118395760405162461bcd60e51b8152600401808060200182810382526036815260200180611ce66036913960400191505060405180910390fd5b8061184b8163279d6ac360e21b61195a565b6118865760405162461bcd60e51b815260040180806020018281038252602b815260200180611d4b602b913960400191505060405180910390fd5b6001600160a01b038216600090815260026020908152604080832083805290915290205460ff161515600114156118ee5760405162461bcd60e51b815260040180806020018281038252603e815260200180611c0e603e913960400191505060405180910390fd5b6001600160a01b0382166000818152600260209081526040808320838052909152808220805460ff191660011790558051634bf2c7c960e01b8152600481018390529051634bf2c7c99260248084019391929182900301818387803b158015610c1357600080fd5b3390565b60006119658361197d565b8015611976575061197683836119b1565b9392505050565b6000611990826301ffc9a760e01b6119b1565b80156119ab57506119a9826001600160e01b03196119b1565b155b92915050565b60008060006119c085856119d7565b915091508180156119ce5750805b95945050505050565b604080516001600160e01b0319831660248083019190915282518083039091018152604490910182526020810180516001600160e01b03166301ffc9a760e01b1781529151815160009384939284926060926001600160a01b038a169261753092879282918083835b60208310611a5f5780518252601f199092019160209182019101611a40565b6001836020036101000a0380198251168184511680821785525050505050509050019150506000604051808303818686fa925050503d8060008114611ac0576040519150601f19603f3d011682016040523d82523d6000602084013e611ac5565b606091505b5091509150602081511015611ae35760008094509450505050611b04565b81818060200190516020811015611af957600080fd5b505190955093505050505b925092905056fe4f776e61626c653a206e6577206f776e657220697320746865207a65726f20616464726573734f7263686573747261746f723a3a657865637574655472616e73616374696f6e3a207461726765742063616e2774206265207a65726f4f7263686573747261746f723a3a657865637574655472616e73616374696f6e3a205472616e73616374696f6e20657865637574696f6e2072657665727465642e4f7263686573747261746f723a3a72657472696576654554483a20616464726573732063616e2774206265207a65726f4f7263686573747261746f723a3a70617573655661756c743a20656d657267656e63792063616c6c20616c726561647920757365644f7263686573747261746f723a3a736574456d657267656e63794275726e4665653a20656d657267656e63792063616c6c20616c726561647920757365644f7263686573747261746f723a3a736574477561726469616e3a20677561726469616e2063616e2774206265207a65726f4f776e61626c653a2063616c6c6572206973206e6f7420746865206f776e65724f7263686573747261746f723a3a736574456d657267656e63794c69717569646174696f6e50656e616c74793a20656d657267656e63792063616c6c20616c726561647920757365644f7263686573747261746f723a3a6f6e6c79477561726469616e3a2063616c6c6572206973206e6f742074686520677561726469616e4f7263686573747261746f723a3a76616c6964544341503a206e6f7420612076616c696420544341502045524332304f7263686573747261746f723a3a76616c69645661756c743a206e6f7420612076616c6964207661756c74a26469706673582212209df5d0514d3d2a7e3d5de47d9ca18d91bda21c3b12186d641c72fd9b638f0d4d64736f6c634300070500334f7263686573747261746f723a3a636f6e7374727563746f723a20677561726469616e2063616e2774206265207a65726f",
  "devdoc": {
    "author": "Cryptex.finance",
    "kind": "dev",
    "methods": {
      "addTCAPVault(address,address)": {
        "details": "Only owner can call itValidates if _tcap is validValidates if _vault is valid",
        "params": {
          "_tcap": "address",
          "_vault": "address"
        }
      },
      "constructor": {
        "params": {
          "_guardian": "The guardian address"
        }
      },
      "enableTCAPCap(address,bool)": {
        "details": "Only owner can call itValidates if _tcap is valid",
        "params": {
          "_enable": "bool",
          "_tcap": "address"
        }
      },
      "executeTransaction(address,uint256,string,bytes)": {
        "details": "Only owner can call it",
        "params": {
          "data": "bytes",
          "signature": "string",
          "target": "address",
          "value": "uint256"
        }
      },
      "owner()": {
        "details": "Returns the address of the current owner."
      },
      "pauseVault(address)": {
        "details": "Only guardian can call itValidates if _vault is valid",
        "params": {
          "_vault": "address"
        }
      },
      "removeTCAPVault(address,address)": {
        "details": "Only owner can call itValidates if _tcap is validValidates if _vault is valid",
        "params": {
          "_tcap": "address",
          "_vault": "address"
        }
      },
      "renounceOwnership()": {
        "details": "Leaves the contract without owner. It will not be possible to call `onlyOwner` functions anymore. Can only be called by the current owner. NOTE: Renouncing ownership will leave the contract without an owner, thereby removing any functionality that is only available to the owner."
      },
      "retrieveETH(address)": {
        "details": "Only owner can call it",
        "params": {
          "_to": "address"
        }
      },
      "setBurnFee(address,uint256)": {
        "details": "Only owner can call it",
        "params": {
          "_burnFee": "value",
          "_vault": "address"
        }
      },
      "setEmergencyBurnFee(address)": {
        "details": "Only guardian can call itValidates if _vault is valid",
        "params": {
          "_vault": "address"
        }
      },
      "setEmergencyLiquidationPenalty(address)": {
        "details": "Only guardian can call itValidates if _vault is valid",
        "params": {
          "_vault": "address"
        }
      },
      "setGuardian(address)": {
        "details": "Only owner can call it",
        "params": {
          "_guardian": "address of the guardian"
        }
      },
      "setLiquidationPenalty(address,uint256)": {
        "details": "Only owner can call it",
        "params": {
          "_liquidationPenalty": "value",
          "_vault": "address"
        }
      },
      "setRatio(address,uint256)": {
        "details": "Only owner can call it",
        "params": {
          "_ratio": "value",
          "_vault": "address"
        }
      },
      "setTCAPCap(address,uint256)": {
        "details": "Only owner can call itValidates if _tcap is valid",
        "params": {
          "_cap": "uint value",
          "_tcap": "address"
        }
      },
      "transferOwnership(address)": {
        "details": "Transfers ownership of the contract to a new account (`newOwner`). Can only be called by the current owner."
      },
      "unpauseVault(address)": {
        "details": "Only guardian can call itValidates if _vault is valid",
        "params": {
          "_vault": "address"
        }
      }
    },
    "stateVariables": {
      "_INTERFACE_ID_IVAULT": {
        "details": "Interface constants"
      },
      "emergencyCalled": {
        "details": "tracks which vault was emergency called"
      }
    },
    "title": "TCAP Orchestrator",
    "version": 1
  },
  "userdoc": {
    "events": {
      "GuardianSet(address,address)": {
        "notice": "An event emitted when the guardian is updated"
      },
      "TransactionExecuted(address,uint256,string,bytes)": {
        "notice": "An event emitted when a transaction is executed"
      }
    },
    "kind": "user",
    "methods": {
      "addTCAPVault(address,address)": {
        "notice": "Adds Vault to TCAP ERC20"
      },
      "constructor": {
        "notice": "Constructor"
      },
      "enableTCAPCap(address,bool)": {
        "notice": "Enables or disables the TCAP Cap"
      },
      "executeTransaction(address,uint256,string,bytes)": {
        "notice": "Allows the owner to execute custom transactions"
      },
      "guardian()": {
        "notice": "Address that can set to 0 the fees or pause the vaults in an emergency event"
      },
      "pauseVault(address)": {
        "notice": "Pauses the Vault"
      },
      "removeTCAPVault(address,address)": {
        "notice": "Removes Vault to TCAP ERC20"
      },
      "retrieveETH(address)": {
        "notice": "Retrieves the eth stuck on the orchestrator"
      },
      "setBurnFee(address,uint256)": {
        "notice": "Sets the burn fee of a vault"
      },
      "setEmergencyBurnFee(address)": {
        "notice": "Sets the burn fee to 0, only used on a black swan event"
      },
      "setEmergencyLiquidationPenalty(address)": {
        "notice": "Sets the liquidation penalty of a vault to 0, only used on a black swan event"
      },
      "setGuardian(address)": {
        "notice": "Sets the guardian of the orchestrator"
      },
      "setLiquidationPenalty(address,uint256)": {
        "notice": "Sets the liquidation penalty of a vault"
      },
      "setRatio(address,uint256)": {
        "notice": "Sets the ratio of a vault"
      },
      "setTCAPCap(address,uint256)": {
        "notice": "Sets the TCAP maximum minting value"
      },
      "unpauseVault(address)": {
        "notice": "Unpauses the Vault"
      }
    },
    "notice": "Orchestrator contract in charge of managing the settings of the vaults, rewards and TCAP token. It acts as the owner of these contracts.",
    "version": 1
  },
  "storageLayout": {
    "storage": [
      {
        "astId": 359,
        "contract": "contracts/Orchestrator.sol:Orchestrator",
        "label": "_owner",
        "offset": 0,
        "slot": "0",
        "type": "t_address"
      },
      {
        "astId": 5467,
        "contract": "contracts/Orchestrator.sol:Orchestrator",
        "label": "guardian",
        "offset": 0,
        "slot": "1",
        "type": "t_address"
      },
      {
        "astId": 5484,
        "contract": "contracts/Orchestrator.sol:Orchestrator",
        "label": "emergencyCalled",
        "offset": 0,
        "slot": "2",
        "type": "t_mapping(t_contract(IVaultHandler)4622,t_mapping(t_enum(Functions)5464,t_bool))"
      }
    ],
    "types": {
      "t_address": {
        "encoding": "inplace",
        "label": "address",
        "numberOfBytes": "20"
      },
      "t_bool": {
        "encoding": "inplace",
        "label": "bool",
        "numberOfBytes": "1"
      },
      "t_contract(IVaultHandler)4622": {
        "encoding": "inplace",
        "label": "contract IVaultHandler",
        "numberOfBytes": "20"
      },
      "t_enum(Functions)5464": {
        "encoding": "inplace",
        "label": "enum Orchestrator.Functions",
        "numberOfBytes": "1"
      },
      "t_mapping(t_contract(IVaultHandler)4622,t_mapping(t_enum(Functions)5464,t_bool))": {
        "encoding": "mapping",
        "key": "t_contract(IVaultHandler)4622",
        "label": "mapping(contract IVaultHandler => mapping(enum Orchestrator.Functions => bool))",
        "numberOfBytes": "32",
        "value": "t_mapping(t_enum(Functions)5464,t_bool)"
      },
      "t_mapping(t_enum(Functions)5464,t_bool)": {
        "encoding": "mapping",
        "key": "t_enum(Functions)5464",
        "label": "mapping(enum Orchestrator.Functions => bool)",
        "numberOfBytes": "32",
        "value": "t_bool"
      }
    }
  }
}