{
  "address": "0xa4e581BD159B869e8290707A7FBF841fe7FE97b6",
  "abi": [
    {
      "inputs": [
        {
          "internalType": "address",
          "name": "_aggregator",
          "type": "address"
        }
      ],
      "stateMutability": "nonpayable",
      "type": "constructor"
    },
    {
      "anonymous": false,
      "inputs": [
        {
          "indexed": true,
          "internalType": "address",
          "name": "previousOwner",
          "type": "address"
        },
        {
          "indexed": true,
          "internalType": "address",
          "name": "newOwner",
          "type": "address"
        }
      ],
      "name": "OwnershipTransferred",
      "type": "event"
    },
    {
      "inputs": [],
      "name": "getLatestAnswer",
      "outputs": [
        {
          "internalType": "int256",
          "name": "",
          "type": "int256"
        }
      ],
      "stateMutability": "view",
      "type": "function"
    },
    {
      "inputs": [],
      "name": "getLatestRound",
      "outputs": [
        {
          "internalType": "uint80",
          "name": "",
          "type": "uint80"
        },
        {
          "internalType": "int256",
          "name": "",
          "type": "int256"
        },
        {
          "internalType": "uint256",
          "name": "",
          "type": "uint256"
        },
        {
          "internalType": "uint256",
          "name": "",
          "type": "uint256"
        },
        {
          "internalType": "uint80",
          "name": "",
          "type": "uint80"
        }
      ],
      "stateMutability": "view",
      "type": "function"
    },
    {
      "inputs": [],
      "name": "getLatestTimestamp",
      "outputs": [
        {
          "internalType": "uint256",
          "name": "",
          "type": "uint256"
        }
      ],
      "stateMutability": "view",
      "type": "function"
    },
    {
      "inputs": [
        {
          "internalType": "uint80",
          "name": "_id",
          "type": "uint80"
        }
      ],
      "name": "getPreviousAnswer",
      "outputs": [
        {
          "internalType": "int256",
          "name": "",
          "type": "int256"
        }
      ],
      "stateMutability": "view",
      "type": "function"
    },
    {
      "inputs": [
        {
          "internalType": "uint80",
          "name": "_id",
          "type": "uint80"
        }
      ],
      "name": "getPreviousTimestamp",
      "outputs": [
        {
          "internalType": "uint256",
          "name": "",
          "type": "uint256"
        }
      ],
      "stateMutability": "view",
      "type": "function"
    },
    {
      "inputs": [
        {
          "internalType": "uint80",
          "name": "_id",
          "type": "uint80"
        }
      ],
      "name": "getRound",
      "outputs": [
        {
          "internalType": "uint80",
          "name": "",
          "type": "uint80"
        },
        {
          "internalType": "int256",
          "name": "",
          "type": "int256"
        },
        {
          "internalType": "uint256",
          "name": "",
          "type": "uint256"
        },
        {
          "internalType": "uint256",
          "name": "",
          "type": "uint256"
        },
        {
          "internalType": "uint80",
          "name": "",
          "type": "uint80"
        }
      ],
      "stateMutability": "view",
      "type": "function"
    },
    {
      "inputs": [],
      "name": "owner",
      "outputs": [
        {
          "internalType": "address",
          "name": "",
          "type": "address"
        }
      ],
      "stateMutability": "view",
      "type": "function"
    },
    {
      "inputs": [],
      "name": "renounceOwnership",
      "outputs": [],
      "stateMutability": "nonpayable",
      "type": "function"
    },
    {
      "inputs": [
        {
          "internalType": "address",
          "name": "_aggregator",
          "type": "address"
        }
      ],
      "name": "setReferenceContract",
      "outputs": [],
      "stateMutability": "nonpayable",
      "type": "function"
    },
    {
      "inputs": [
        {
          "internalType": "bytes4",
          "name": "interfaceId",
          "type": "bytes4"
        }
      ],
      "name": "supportsInterface",
      "outputs": [
        {
          "internalType": "bool",
          "name": "",
          "type": "bool"
        }
      ],
      "stateMutability": "pure",
      "type": "function"
    },
    {
      "inputs": [
        {
          "internalType": "address",
          "name": "newOwner",
          "type": "address"
        }
      ],
      "name": "transferOwnership",
      "outputs": [],
      "stateMutability": "nonpayable",
      "type": "function"
    }
  ],
  "transactionHash": "0xaff7f1ce0926e6045cee5102e47eebe2b792c7df4bd4eac469f9d128c17131cc",
  "args": [
    "0xEC8761a0A73c34329CA5B1D3Dc7eD07F30e836e2"
  ],
  "solcInputHash": "7a2ec06170535469f280147f73cb3aa1",
  "bytecode": "0x608060405234801561001057600080fd5b50604051610bbf380380610bbf8339818101604052602081101561003357600080fd5b5051600061003f6100ae565b600080546001600160a01b0319166001600160a01b0383169081178255604051929350917f8be0079c531659141344cd1fd0a4f28419497f9722a3daafe3b4186f6b6457e0908290a350600180546001600160a01b0319166001600160a01b03929092169190911790556100b2565b3390565b610afe806100c16000396000f3fe608060405234801561001057600080fd5b50600436106100a95760003560e01c8063715018a611610071578063715018a6146101bb5780637498e6c2146101c35780638da5cb5b146101e957806396237c021461020d578063f2fde38b14610215578063f43b52cb1461023b576100a9565b806301ffc9a7146100ae57806324a343fa146100e95780633cf8a69714610153578063608bf1c31461017b578063708fe4df146101b3575b600080fd5b6100d5600480360360208110156100c457600080fd5b50356001600160e01b031916610243565b604080519115158252519081900360200190f35b61010f600480360360208110156100ff57600080fd5b50356001600160501b031661027a565b60405180866001600160501b03168152602001858152602001848152602001838152602001826001600160501b031681526020019550505050505060405180910390f35b6101796004803603602081101561016957600080fd5b50356001600160a01b0316610343565b005b6101a16004803603602081101561019157600080fd5b50356001600160501b03166103cf565b60408051918252519081900360200190f35b61010f6104b4565b610179610568565b6101a1600480360360208110156101d957600080fd5b50356001600160501b031661061c565b6101f16106fa565b604080516001600160a01b039092168252519081900360200190f35b6101a1610709565b6101796004803603602081101561022b57600080fd5b50356001600160a01b031661083c565b6101a1610946565b60006001600160e01b031982166385be402b60e01b148061027457506001600160e01b031982166301ffc9a760e01b145b92915050565b600080600080600080600080600080600160009054906101000a90046001600160a01b03166001600160a01b0316639a6fc8f58c6040518263ffffffff1660e01b815260040180826001600160501b0316815260200191505060a06040518083038186803b1580156102eb57600080fd5b505afa1580156102ff573d6000803e3d6000fd5b505050506040513d60a081101561031557600080fd5b508051602082015160408301516060840151608090940151929f919e509c50919a5098509650505050505050565b61034b6109cc565b6000546001600160a01b039081169116146103ad576040805162461bcd60e51b815260206004820181905260248201527f4f776e61626c653a2063616c6c6572206973206e6f7420746865206f776e6572604482015290519081900360640190fd5b600180546001600160a01b0319166001600160a01b0392909216919091179055565b60015460408051639a6fc8f560e01b81526001600160501b03841660048201529051600092839283926001600160a01b0390921691639a6fc8f59160248082019260a092909190829003018186803b15801561042a57600080fd5b505afa15801561043e573d6000803e3d6000fd5b505050506040513d60a081101561045457600080fd5b50805160609091015190925090506001600160501b0380831690851611156104ad5760405162461bcd60e51b8152600401808060200182810382526039815260200180610a5a6039913960400191505060405180910390fd5b9392505050565b600080600080600080600080600080600160009054906101000a90046001600160a01b03166001600160a01b031663feaf968c6040518163ffffffff1660e01b815260040160a06040518083038186803b15801561051157600080fd5b505afa158015610525573d6000803e3d6000fd5b505050506040513d60a081101561053b57600080fd5b508051602082015160408301516060840151608090940151929e919d509b50919950975095505050505050565b6105706109cc565b6000546001600160a01b039081169116146105d2576040805162461bcd60e51b815260206004820181905260248201527f4f776e61626c653a2063616c6c6572206973206e6f7420746865206f776e6572604482015290519081900360640190fd5b600080546040516001600160a01b03909116907f8be0079c531659141344cd1fd0a4f28419497f9722a3daafe3b4186f6b6457e0908390a3600080546001600160a01b0319169055565b60015460408051639a6fc8f560e01b81526001600160501b03841660048201529051600092839283926001600160a01b0390921691639a6fc8f59160248082019260a092909190829003018186803b15801561067757600080fd5b505afa15801561068b573d6000803e3d6000fd5b505050506040513d60a08110156106a157600080fd5b50805160209091015190925090506001600160501b0380831690851611156104ad5760405162461bcd60e51b8152600401808060200182810382526036815260200180610a936036913960400191505060405180910390fd5b6000546001600160a01b031690565b6000806000806000600160009054906101000a90046001600160a01b03166001600160a01b031663feaf968c6040518163ffffffff1660e01b815260040160a06040518083038186803b15801561075f57600080fd5b505afa158015610773573d6000803e3d6000fd5b505050506040513d60a081101561078957600080fd5b5080516020820151606083015160809093015191965094509092509050816107e25760405162461bcd60e51b81526004018080602001828103825260378152602001806109d16037913960400191505060405180910390fd5b836001600160501b0316816001600160501b031610156108335760405162461bcd60e51b815260040180806020018281038252602c815260200180610a2e602c913960400191505060405180910390fd5b50909250505090565b6108446109cc565b6000546001600160a01b039081169116146108a6576040805162461bcd60e51b815260206004820181905260248201527f4f776e61626c653a2063616c6c6572206973206e6f7420746865206f776e6572604482015290519081900360640190fd5b6001600160a01b0381166108eb5760405162461bcd60e51b8152600401808060200182810382526026815260200180610a086026913960400191505060405180910390fd5b600080546040516001600160a01b03808516939216917f8be0079c531659141344cd1fd0a4f28419497f9722a3daafe3b4186f6b6457e091a3600080546001600160a01b0319166001600160a01b0392909216919091179055565b600080600160009054906101000a90046001600160a01b03166001600160a01b031663feaf968c6040518163ffffffff1660e01b815260040160a06040518083038186803b15801561099757600080fd5b505afa1580156109ab573d6000803e3d6000fd5b505050506040513d60a08110156109c157600080fd5b506060015191505090565b339056fe436861696e6c696e6b4f7261636c653a3a6765744c6174657374416e737765723a20726f756e64206973206e6f7420636f6d706c6574654f776e61626c653a206e6577206f776e657220697320746865207a65726f2061646472657373436861696e6c696e6b4f7261636c653a3a6765744c6174657374416e737765723a207374616c652064617461436861696e6c696e6b4f7261636c653a3a67657450726576696f757354696d657374616d703a206e6f7420656e6f75676820686973746f7279436861696e6c696e6b4f7261636c653a3a67657450726576696f7573416e737765723a206e6f7420656e6f75676820686973746f7279a26469706673582212209b63b276a565f0464370ea796c503312e8948f518a38ae1c1d84828deaaf738564736f6c63430007050033",
  "devdoc": {
    "author": "Cryptex.finance",
    "kind": "dev",
    "methods": {
      "getLatestAnswer()": {
        "returns": {
          "_0": "price"
        }
      },
      "getPreviousAnswer(uint80)": {
        "params": {
          "_id": "of round"
        },
        "returns": {
          "_0": "price"
        }
      },
      "getPreviousTimestamp(uint80)": {
        "params": {
          "_id": "of round"
        },
        "returns": {
          "_0": "timeStamp"
        }
      },
      "getRound(uint80)": {
        "params": {
          "_id": "of round"
        }
      },
      "owner()": {
        "details": "Returns the address of the current owner."
      },
      "renounceOwnership()": {
        "details": "Leaves the contract without owner. It will not be possible to call `onlyOwner` functions anymore. Can only be called by the current owner. NOTE: Renouncing ownership will leave the contract without an owner, thereby removing any functionality that is only available to the owner."
      },
      "setReferenceContract(address)": {
        "details": "Only owner can call it."
      },
      "transferOwnership(address)": {
        "details": "Transfers ownership of the contract to a new account (`newOwner`). Can only be called by the current owner."
      }
    },
    "title": "Chainlink Oracle",
    "version": 1
  },
  "userdoc": {
    "kind": "user",
    "methods": {
      "constructor": {
        "notice": "Called once the contract is deployed. Set the Chainlink Oracle as an aggregator."
      },
      "getLatestAnswer()": {
        "notice": "Returns the latest answer from the reference contract."
      },
      "getLatestRound()": {
        "notice": "Returns the latest round from the reference contract."
      },
      "getLatestTimestamp()": {
        "notice": "Returns the last time the Oracle was updated."
      },
      "getPreviousAnswer(uint80)": {
        "notice": "Returns a previous answer updated on the Oracle."
      },
      "getPreviousTimestamp(uint80)": {
        "notice": "Returns a previous time the Oracle was updated."
      },
      "getRound(uint80)": {
        "notice": "Returns a given round from the reference contract."
      },
      "setReferenceContract(address)": {
        "notice": "Changes the reference contract."
      },
      "supportsInterface(bytes4)": {
        "notice": "ERC165 Standard for support of interfaces."
      }
    },
    "notice": "Contract in charge or reading the information from a Chainlink Oracle. TCAP contracts read the price directly from this contract. More information can be found on Chainlink Documentation",
    "version": 1
  },
  "storageLayout": {
    "storage": [
      {
        "astId": 359,
        "contract": "contracts/oracles/ChainlinkOracle.sol:ChainlinkOracle",
        "label": "_owner",
        "offset": 0,
        "slot": "0",
        "type": "t_address"
      },
      {
        "astId": 9284,
        "contract": "contracts/oracles/ChainlinkOracle.sol:ChainlinkOracle",
        "label": "aggregatorContract",
        "offset": 0,
        "slot": "1",
        "type": "t_contract(AggregatorV3Interface)45"
      }
    ],
    "types": {
      "t_address": {
        "encoding": "inplace",
        "label": "address",
        "numberOfBytes": "20"
      },
      "t_contract(AggregatorV3Interface)45": {
        "encoding": "inplace",
        "label": "contract AggregatorV3Interface",
        "numberOfBytes": "20"
      }
    }
  }
}