{
  "address": "0x0B3e7f177913452F8C7281Ebd5f4DE80849d3D54",
  "abi": [
    {
      "inputs": [
        {
          "internalType": "address",
          "name": "_owner",
          "type": "address"
        },
        {
          "internalType": "address",
          "name": "_rewardsToken",
          "type": "address"
        },
        {
          "internalType": "address",
          "name": "_vault",
          "type": "address"
        }
      ],
      "stateMutability": "nonpayable",
      "type": "constructor"
    },
    {
      "anonymous": false,
      "inputs": [
        {
          "indexed": true,
          "internalType": "address",
          "name": "previousOwner",
          "type": "address"
        },
        {
          "indexed": true,
          "internalType": "address",
          "name": "newOwner",
          "type": "address"
        }
      ],
      "name": "OwnershipTransferred",
      "type": "event"
    },
    {
      "anonymous": false,
      "inputs": [
        {
          "indexed": false,
          "internalType": "address",
          "name": "account",
          "type": "address"
        }
      ],
      "name": "Paused",
      "type": "event"
    },
    {
      "anonymous": false,
      "inputs": [
        {
          "indexed": false,
          "internalType": "address",
          "name": "token",
          "type": "address"
        },
        {
          "indexed": false,
          "internalType": "uint256",
          "name": "amount",
          "type": "uint256"
        }
      ],
      "name": "Recovered",
      "type": "event"
    },
    {
      "anonymous": false,
      "inputs": [
        {
          "indexed": false,
          "internalType": "uint256",
          "name": "reward",
          "type": "uint256"
        }
      ],
      "name": "RewardAdded",
      "type": "event"
    },
    {
      "anonymous": false,
      "inputs": [
        {
          "indexed": true,
          "internalType": "address",
          "name": "user",
          "type": "address"
        },
        {
          "indexed": false,
          "internalType": "uint256",
          "name": "reward",
          "type": "uint256"
        }
      ],
      "name": "RewardPaid",
      "type": "event"
    },
    {
      "anonymous": false,
      "inputs": [
        {
          "indexed": false,
          "internalType": "uint256",
          "name": "newDuration",
          "type": "uint256"
        }
      ],
      "name": "RewardsDurationUpdated",
      "type": "event"
    },
    {
      "anonymous": false,
      "inputs": [
        {
          "indexed": true,
          "internalType": "bytes32",
          "name": "role",
          "type": "bytes32"
        },
        {
          "indexed": true,
          "internalType": "bytes32",
          "name": "previousAdminRole",
          "type": "bytes32"
        },
        {
          "indexed": true,
          "internalType": "bytes32",
          "name": "newAdminRole",
          "type": "bytes32"
        }
      ],
      "name": "RoleAdminChanged",
      "type": "event"
    },
    {
      "anonymous": false,
      "inputs": [
        {
          "indexed": true,
          "internalType": "bytes32",
          "name": "role",
          "type": "bytes32"
        },
        {
          "indexed": true,
          "internalType": "address",
          "name": "account",
          "type": "address"
        },
        {
          "indexed": true,
          "internalType": "address",
          "name": "sender",
          "type": "address"
        }
      ],
      "name": "RoleGranted",
      "type": "event"
    },
    {
      "anonymous": false,
      "inputs": [
        {
          "indexed": true,
          "internalType": "bytes32",
          "name": "role",
          "type": "bytes32"
        },
        {
          "indexed": true,
          "internalType": "address",
          "name": "account",
          "type": "address"
        },
        {
          "indexed": true,
          "internalType": "address",
          "name": "sender",
          "type": "address"
        }
      ],
      "name": "RoleRevoked",
      "type": "event"
    },
    {
      "anonymous": false,
      "inputs": [
        {
          "indexed": true,
          "internalType": "address",
          "name": "user",
          "type": "address"
        },
        {
          "indexed": false,
          "internalType": "uint256",
          "name": "amount",
          "type": "uint256"
        }
      ],
      "name": "Staked",
      "type": "event"
    },
    {
      "anonymous": false,
      "inputs": [
        {
          "indexed": false,
          "internalType": "address",
          "name": "account",
          "type": "address"
        }
      ],
      "name": "Unpaused",
      "type": "event"
    },
    {
      "anonymous": false,
      "inputs": [
        {
          "indexed": true,
          "internalType": "address",
          "name": "user",
          "type": "address"
        },
        {
          "indexed": false,
          "internalType": "uint256",
          "name": "amount",
          "type": "uint256"
        }
      ],
      "name": "Withdrawn",
      "type": "event"
    },
    {
      "inputs": [],
      "name": "DEFAULT_ADMIN_ROLE",
      "outputs": [
        {
          "internalType": "bytes32",
          "name": "",
          "type": "bytes32"
        }
      ],
      "stateMutability": "view",
      "type": "function"
    },
    {
      "inputs": [
        {
          "internalType": "address",
          "name": "_account",
          "type": "address"
        }
      ],
      "name": "balanceOf",
      "outputs": [
        {
          "internalType": "uint256",
          "name": "",
          "type": "uint256"
        }
      ],
      "stateMutability": "view",
      "type": "function"
    },
    {
      "inputs": [
        {
          "internalType": "address",
          "name": "_account",
          "type": "address"
        }
      ],
      "name": "earned",
      "outputs": [
        {
          "internalType": "uint256",
          "name": "",
          "type": "uint256"
        }
      ],
      "stateMutability": "view",
      "type": "function"
    },
    {
      "inputs": [
        {
          "internalType": "address",
          "name": "_staker",
          "type": "address"
        }
      ],
      "name": "exit",
      "outputs": [],
      "stateMutability": "nonpayable",
      "type": "function"
    },
    {
      "inputs": [],
      "name": "getReward",
      "outputs": [],
      "stateMutability": "nonpayable",
      "type": "function"
    },
    {
      "inputs": [],
      "name": "getRewardForDuration",
      "outputs": [
        {
          "internalType": "uint256",
          "name": "",
          "type": "uint256"
        }
      ],
      "stateMutability": "view",
      "type": "function"
    },
    {
      "inputs": [
        {
          "internalType": "address",
          "name": "_staker",
          "type": "address"
        }
      ],
      "name": "getRewardFromVault",
      "outputs": [],
      "stateMutability": "nonpayable",
      "type": "function"
    },
    {
      "inputs": [
        {
          "internalType": "bytes32",
          "name": "role",
          "type": "bytes32"
        }
      ],
      "name": "getRoleAdmin",
      "outputs": [
        {
          "internalType": "bytes32",
          "name": "",
          "type": "bytes32"
        }
      ],
      "stateMutability": "view",
      "type": "function"
    },
    {
      "inputs": [
        {
          "internalType": "bytes32",
          "name": "role",
          "type": "bytes32"
        },
        {
          "internalType": "uint256",
          "name": "index",
          "type": "uint256"
        }
      ],
      "name": "getRoleMember",
      "outputs": [
        {
          "internalType": "address",
          "name": "",
          "type": "address"
        }
      ],
      "stateMutability": "view",
      "type": "function"
    },
    {
      "inputs": [
        {
          "internalType": "bytes32",
          "name": "role",
          "type": "bytes32"
        }
      ],
      "name": "getRoleMemberCount",
      "outputs": [
        {
          "internalType": "uint256",
          "name": "",
          "type": "uint256"
        }
      ],
      "stateMutability": "view",
      "type": "function"
    },
    {
      "inputs": [
        {
          "internalType": "bytes32",
          "name": "role",
          "type": "bytes32"
        },
        {
          "internalType": "address",
          "name": "account",
          "type": "address"
        }
      ],
      "name": "grantRole",
      "outputs": [],
      "stateMutability": "nonpayable",
      "type": "function"
    },
    {
      "inputs": [
        {
          "internalType": "bytes32",
          "name": "role",
          "type": "bytes32"
        },
        {
          "internalType": "address",
          "name": "account",
          "type": "address"
        }
      ],
      "name": "hasRole",
      "outputs": [
        {
          "internalType": "bool",
          "name": "",
          "type": "bool"
        }
      ],
      "stateMutability": "view",
      "type": "function"
    },
    {
      "inputs": [],
      "name": "lastTimeRewardApplicable",
      "outputs": [
        {
          "internalType": "uint256",
          "name": "",
          "type": "uint256"
        }
      ],
      "stateMutability": "view",
      "type": "function"
    },
    {
      "inputs": [],
      "name": "lastUpdateTime",
      "outputs": [
        {
          "internalType": "uint256",
          "name": "",
          "type": "uint256"
        }
      ],
      "stateMutability": "view",
      "type": "function"
    },
    {
      "inputs": [
        {
          "internalType": "uint256",
          "name": "_a",
          "type": "uint256"
        },
        {
          "internalType": "uint256",
          "name": "_b",
          "type": "uint256"
        }
      ],
      "name": "min",
      "outputs": [
        {
          "internalType": "uint256",
          "name": "",
          "type": "uint256"
        }
      ],
      "stateMutability": "pure",
      "type": "function"
    },
    {
      "inputs": [
        {
          "internalType": "uint256",
          "name": "_reward",
          "type": "uint256"
        }
      ],
      "name": "notifyRewardAmount",
      "outputs": [],
      "stateMutability": "nonpayable",
      "type": "function"
    },
    {
      "inputs": [],
      "name": "owner",
      "outputs": [
        {
          "internalType": "address",
          "name": "",
          "type": "address"
        }
      ],
      "stateMutability": "view",
      "type": "function"
    },
    {
      "inputs": [],
      "name": "paused",
      "outputs": [
        {
          "internalType": "bool",
          "name": "",
          "type": "bool"
        }
      ],
      "stateMutability": "view",
      "type": "function"
    },
    {
      "inputs": [],
      "name": "periodFinish",
      "outputs": [
        {
          "internalType": "uint256",
          "name": "",
          "type": "uint256"
        }
      ],
      "stateMutability": "view",
      "type": "function"
    },
    {
      "inputs": [
        {
          "internalType": "address",
          "name": "_tokenAddress",
          "type": "address"
        },
        {
          "internalType": "uint256",
          "name": "_tokenAmount",
          "type": "uint256"
        }
      ],
      "name": "recoverERC20",
      "outputs": [],
      "stateMutability": "nonpayable",
      "type": "function"
    },
    {
      "inputs": [],
      "name": "renounceOwnership",
      "outputs": [],
      "stateMutability": "nonpayable",
      "type": "function"
    },
    {
      "inputs": [
        {
          "internalType": "bytes32",
          "name": "role",
          "type": "bytes32"
        },
        {
          "internalType": "address",
          "name": "account",
          "type": "address"
        }
      ],
      "name": "renounceRole",
      "outputs": [],
      "stateMutability": "nonpayable",
      "type": "function"
    },
    {
      "inputs": [
        {
          "internalType": "bytes32",
          "name": "role",
          "type": "bytes32"
        },
        {
          "internalType": "address",
          "name": "account",
          "type": "address"
        }
      ],
      "name": "revokeRole",
      "outputs": [],
      "stateMutability": "nonpayable",
      "type": "function"
    },
    {
      "inputs": [],
      "name": "rewardPerToken",
      "outputs": [
        {
          "internalType": "uint256",
          "name": "",
          "type": "uint256"
        }
      ],
      "stateMutability": "view",
      "type": "function"
    },
    {
      "inputs": [],
      "name": "rewardPerTokenStored",
      "outputs": [
        {
          "internalType": "uint256",
          "name": "",
          "type": "uint256"
        }
      ],
      "stateMutability": "view",
      "type": "function"
    },
    {
      "inputs": [],
      "name": "rewardRate",
      "outputs": [
        {
          "internalType": "uint256",
          "name": "",
          "type": "uint256"
        }
      ],
      "stateMutability": "view",
      "type": "function"
    },
    {
      "inputs": [
        {
          "internalType": "address",
          "name": "",
          "type": "address"
        }
      ],
      "name": "rewards",
      "outputs": [
        {
          "internalType": "uint256",
          "name": "",
          "type": "uint256"
        }
      ],
      "stateMutability": "view",
      "type": "function"
    },
    {
      "inputs": [],
      "name": "rewardsDuration",
      "outputs": [
        {
          "internalType": "uint256",
          "name": "",
          "type": "uint256"
        }
      ],
      "stateMutability": "view",
      "type": "function"
    },
    {
      "inputs": [],
      "name": "rewardsToken",
      "outputs": [
        {
          "internalType": "contract IERC20",
          "name": "",
          "type": "address"
        }
      ],
      "stateMutability": "view",
      "type": "function"
    },
    {
      "inputs": [
        {
          "internalType": "uint256",
          "name": "_rewardsDuration",
          "type": "uint256"
        }
      ],
      "name": "setRewardsDuration",
      "outputs": [],
      "stateMutability": "nonpayable",
      "type": "function"
    },
    {
      "inputs": [
        {
          "internalType": "address",
          "name": "_staker",
          "type": "address"
        },
        {
          "internalType": "uint256",
          "name": "_amount",
          "type": "uint256"
        }
      ],
      "name": "stake",
      "outputs": [],
      "stateMutability": "nonpayable",
      "type": "function"
    },
    {
      "inputs": [],
      "name": "totalSupply",
      "outputs": [
        {
          "internalType": "uint256",
          "name": "",
          "type": "uint256"
        }
      ],
      "stateMutability": "view",
      "type": "function"
    },
    {
      "inputs": [
        {
          "internalType": "address",
          "name": "newOwner",
          "type": "address"
        }
      ],
      "name": "transferOwnership",
      "outputs": [],
      "stateMutability": "nonpayable",
      "type": "function"
    },
    {
      "inputs": [
        {
          "internalType": "address",
          "name": "",
          "type": "address"
        }
      ],
      "name": "userRewardPerTokenPaid",
      "outputs": [
        {
          "internalType": "uint256",
          "name": "",
          "type": "uint256"
        }
      ],
      "stateMutability": "view",
      "type": "function"
    },
    {
      "inputs": [],
      "name": "vault",
      "outputs": [
        {
          "internalType": "address",
          "name": "",
          "type": "address"
        }
      ],
      "stateMutability": "view",
      "type": "function"
    },
    {
      "inputs": [
        {
          "internalType": "address",
          "name": "_staker",
          "type": "address"
        },
        {
          "internalType": "uint256",
          "name": "_amount",
          "type": "uint256"
        }
      ],
      "name": "withdraw",
      "outputs": [],
      "stateMutability": "nonpayable",
      "type": "function"
    }
  ],
  "transactionHash": "0xa59cd29671670e6d7f86ea8c19cd38eb5e4bc4ac0d93c5c9bb37ecf3f0ff2665",
  "args": [
    "0x6e104a79885F1B6d038C0e4a73Ed28A67c86a958",
    "0xa400D66cE877f572c31Bb5483f17Fee4328da468",
    "0x0a916A660157E7663AA57aA5f7De23A909ab42dB"
  ],
  "solcInputHash": "ab268cce9239e734cefd30766c12815a",
  "bytecode": "0x60c060405260006004556000600555621275006006553480156200002257600080fd5b506040516200252738038062002527833981810160405260608110156200004857600080fd5b50805160208201516040909201519091906000620000656200015b565b600080546001600160a01b0319166001600160a01b03831690811782556040519293509160008051602062002507833981519152908290a35060016002556003805460ff191690556001600160a01b03831615801590620000ce57506001600160a01b03821615155b8015620000e357506001600160a01b03811615155b620001205760405162461bcd60e51b8152600401808060200182810382526031815260200180620024d66031913960400191505060405180910390fd5b6001600160601b0319606083811b821660805282901b1660a052620001476000336200015f565b62000152836200016f565b5050506200038a565b3390565b6200016b828262000279565b5050565b620001796200015b565b6001600160a01b03166200018c620002f4565b6001600160a01b031614620001e8576040805162461bcd60e51b815260206004820181905260248201527f4f776e61626c653a2063616c6c6572206973206e6f7420746865206f776e6572604482015290519081900360640190fd5b6001600160a01b0381166200022f5760405162461bcd60e51b8152600401808060200182810382526026815260200180620024b06026913960400191505060405180910390fd5b600080546040516001600160a01b03808516939216916000805160206200250783398151915291a3600080546001600160a01b0319166001600160a01b0392909216919091179055565b6000828152600160209081526040909120620002a09183906200170a62000303821b17901c565b156200016b57620002b06200015b565b6001600160a01b0316816001600160a01b0316837f2f8788117e7eff1d82e926ec794901d17c78024a50270940304540a733656f0d60405160405180910390a45050565b6000546001600160a01b031690565b60006200031a836001600160a01b03841662000323565b90505b92915050565b600062000331838362000372565b62000369575081546001818101845560008481526020808220909301849055845484825282860190935260409020919091556200031d565b5060006200031d565b60009081526001919091016020526040902054151590565b60805160601c60a05160601c6120d4620003dc60003980610dbc5280610fe9528061124b528061150e52806116e852508061089d5280610ab95280610c8852806111bf528061138a52506120d46000f3fe608060405234801561001057600080fd5b506004361061021b5760003560e01c80638da5cb5b11610125578063cd3daf9d116100ad578063e0588af71161007c578063e0588af714610554578063ebe2b12b1461057a578063f2fde38b14610582578063f3fef3a3146105a8578063fbfa77cf146105d45761021b565b8063cd3daf9d14610510578063d1af0c7d14610518578063d547741f14610520578063df136d651461054c5761021b565b8063adc9772e116100f4578063adc9772e1461047c578063b42652e9146104a8578063c8f33c91146104ce578063ca15c873146104d6578063cc1a378f146104f35761021b565b80638da5cb5b146104015780639010d07c1461042557806391d1485414610448578063a217fddf146104745761021b565b80633d18b912116101a85780637ae2b5c7116101775780637ae2b5c71461037c5780637b0a47ee1461039f57806380faa57d146103a75780638980f11f146103af5780638b876347146103db5761021b565b80633d18b9121461032a5780635c975abb1461033257806370a082311461034e578063715018a6146103745761021b565b8063248a9ca3116101ef578063248a9ca31461028e5780632f2ff15d146102ab57806336568abe146102d9578063386a9525146103055780633c6b16ab1461030d5761021b565b80628cc262146102205780630700037d1461025857806318160ddd1461027e5780631c1f78eb14610286575b600080fd5b6102466004803603602081101561023657600080fd5b50356001600160a01b03166105dc565b60408051918252519081900360200190f35b6102466004803603602081101561026e57600080fd5b50356001600160a01b031661065a565b61024661066c565b610246610673565b610246600480360360208110156102a457600080fd5b5035610691565b6102d7600480360360408110156102c157600080fd5b50803590602001356001600160a01b03166106a6565b005b6102d7600480360360408110156102ef57600080fd5b50803590602001356001600160a01b0316610712565b610246610773565b6102d76004803603602081101561032357600080fd5b5035610779565b6102d76109e9565b61033a610b28565b604080519115158252519081900360200190f35b6102466004803603602081101561036457600080fd5b50356001600160a01b0316610b31565b6102d7610b4c565b6102466004803603604081101561039257600080fd5b5080359060200135610bf8565b610246610c10565b610246610c16565b6102d7600480360360408110156103c557600080fd5b506001600160a01b038135169060200135610c24565b610246600480360360208110156103f157600080fd5b50356001600160a01b0316610d5b565b610409610d6d565b604080516001600160a01b039092168252519081900360200190f35b6104096004803603604081101561043b57600080fd5b5080359060200135610d7c565b61033a6004803603604081101561045e57600080fd5b50803590602001356001600160a01b0316610d94565b610246610dac565b6102d76004803603604081101561049257600080fd5b506001600160a01b038135169060200135610db1565b6102d7600480360360208110156104be57600080fd5b50356001600160a01b0316610fde565b610246611075565b610246600480360360208110156104ec57600080fd5b503561107b565b6102d76004803603602081101561050957600080fd5b5035611092565b61024661116f565b6104096111bd565b6102d76004803603604081101561053657600080fd5b50803590602001356001600160a01b03166111e1565b61024661123a565b6102d76004803603602081101561056a57600080fd5b50356001600160a01b0316611240565b6102466113fb565b6102d76004803603602081101561059857600080fd5b50356001600160a01b0316611401565b6102d7600480360360408110156105be57600080fd5b506001600160a01b038135169060200135611503565b6104096116e6565b6001600160a01b0381166000908152600a60209081526040808320546009909252822054610654919061064e90670de0b6b3a764000090610648906106299061062361116f565b9061171f565b6001600160a01b0388166000908152600c60205260409020549061177c565b906117d5565b9061183c565b92915050565b600a6020526000908152604090205481565b600b545b90565b600061068c60065460055461177c90919063ffffffff16565b905090565b60009081526001602052604090206002015490565b6000828152600160205260409020600201546106c9906106c4611896565b610d94565b6107045760405162461bcd60e51b815260040180806020018281038252602f815260200180611edd602f913960400191505060405180910390fd5b61070e828261189a565b5050565b61071a611896565b6001600160a01b0316816001600160a01b0316146107695760405162461bcd60e51b815260040180806020018281038252602f815260200180612070602f913960400191505060405180910390fd5b61070e8282611903565b60065481565b610781611896565b6001600160a01b0316610792610d6d565b6001600160a01b0316146107db576040805162461bcd60e51b81526020600482018190526024820152600080516020611ff9833981519152604482015290519081900360640190fd5b60006107e561116f565b6008556107f0610c16565b6007556001600160a01b038116156108375761080b816105dc565b6001600160a01b0382166000908152600a60209081526040808320939093556008546009909152919020555b60045442106108565760065461084e9083906117d5565b600555610899565b600454600090610866904261171f565b9050600061087f6005548361177c90919063ffffffff16565b60065490915061089390610648868461183c565b60055550505b60007f00000000000000000000000000000000000000000000000000000000000000006001600160a01b03166370a08231306040518263ffffffff1660e01b815260040180826001600160a01b0316815260200191505060206040518083038186803b15801561090857600080fd5b505afa15801561091c573d6000803e3d6000fd5b505050506040513d602081101561093257600080fd5b50516006549091506109459082906117d5565b600554111561099b576040805162461bcd60e51b815260206004820152601860248201527f50726f76696465642072657761726420746f6f20686967680000000000000000604482015290519081900360640190fd5b4260078190556006546109ae919061183c565b6004556040805184815290517fde88a922e0d3b88b24e9623efeb464919c6bf9f66857a65e2bfcf2ce87a9433d9181900360200190a1505050565b600280541415610a2e576040805162461bcd60e51b815260206004820152601f6024820152600080516020611f0c833981519152604482015290519081900360640190fd5b6002805533610a3b61116f565b600855610a46610c16565b6007556001600160a01b03811615610a8d57610a61816105dc565b6001600160a01b0382166000908152600a60209081526040808320939093556008546009909152919020555b336000908152600a60205260409020548015610b1f57336000818152600a6020526040812055610ae8907f00000000000000000000000000000000000000000000000000000000000000006001600160a01b0316908361196c565b60408051828152905133917fe2403640ba68fed3a2f88b7557551d1993f84b99bb10ff833f0cf8db0c5e0486919081900360200190a25b50506001600255565b60035460ff1690565b6001600160a01b03166000908152600c602052604090205490565b610b54611896565b6001600160a01b0316610b65610d6d565b6001600160a01b031614610bae576040805162461bcd60e51b81526020600482018190526024820152600080516020611ff9833981519152604482015290519081900360640190fd5b600080546040516001600160a01b03909116907f8be0079c531659141344cd1fd0a4f28419497f9722a3daafe3b4186f6b6457e0908390a3600080546001600160a01b0319169055565b6000818310610c075781610c09565b825b9392505050565b60055481565b600061068c42600454610bf8565b610c2c611896565b6001600160a01b0316610c3d610d6d565b6001600160a01b031614610c86576040805162461bcd60e51b81526020600482018190526024820152600080516020611ff9833981519152604482015290519081900360640190fd5b7f00000000000000000000000000000000000000000000000000000000000000006001600160a01b0316826001600160a01b03161415610cf75760405162461bcd60e51b815260040180806020018281038252602d815260200180612019602d913960400191505060405180910390fd5b610d13610d02610d6d565b6001600160a01b038416908361196c565b604080516001600160a01b03841681526020810183905281517f8c1256b8896378cd5044f80c202f9772b9d77dc85c8a6eb51967210b09bfaa28929181900390910190a15050565b60096020526000908152604090205481565b6000546001600160a01b031690565b6000828152600160205260408120610c0990836119c3565b6000828152600160205260408120610c0990836119cf565b600081565b336001600160a01b037f00000000000000000000000000000000000000000000000000000000000000001614610e185760405162461bcd60e51b8152600401808060200182810382526030815260200180611f526030913960400191505060405180910390fd5b600280541415610e5d576040805162461bcd60e51b815260206004820152601f6024820152600080516020611f0c833981519152604482015290519081900360640190fd5b60028055610e69610b28565b15610eae576040805162461bcd60e51b815260206004820152601060248201526f14185d5cd8589b194e881c185d5cd95960821b604482015290519081900360640190fd5b81610eb761116f565b600855610ec2610c16565b6007556001600160a01b03811615610f0957610edd816105dc565b6001600160a01b0382166000908152600a60209081526040808320939093556008546009909152919020555b60008211610f4f576040805162461bcd60e51b815260206004820152600e60248201526d043616e6e6f74207374616b6520360941b604482015290519081900360640190fd5b600b54610f5c908361183c565b600b556001600160a01b0383166000908152600c6020526040902054610f82908361183c565b6001600160a01b0384166000818152600c6020908152604091829020939093558051858152905191927f9e71bc8eea02a63969f509818f2dafb9254532904319f9dbda79b67bd34a5f3d92918290030190a25050600160025550565b336001600160a01b037f000000000000000000000000000000000000000000000000000000000000000016146110455760405162461bcd60e51b8152600401808060200182810382526030815260200180611f526030913960400191505060405180910390fd5b6001600160a01b0381166000908152600c6020526040902054611069908290611503565b61107281611240565b50565b60075481565b6000818152600160205260408120610654906119e4565b61109a611896565b6001600160a01b03166110ab610d6d565b6001600160a01b0316146110f4576040805162461bcd60e51b81526020600482018190526024820152600080516020611ff9833981519152604482015290519081900360640190fd5b60045442116111345760405162461bcd60e51b8152600401808060200182810382526058815260200180611e856058913960600191505060405180910390fd5b60068190556040805182815290517ffb46ca5a5e06d4540d6387b930a7c978bce0db5f449ec6b3f5d07c6e1d44f2d39181900360200190a150565b6000600b54600014156111855750600854610670565b61068c6111b4600b54610648670de0b6b3a76400006111ae6005546111ae600754610623610c16565b9061177c565b6008549061183c565b7f000000000000000000000000000000000000000000000000000000000000000081565b6000828152600160205260409020600201546111ff906106c4611896565b6107695760405162461bcd60e51b8152600401808060200182810382526030815260200180611fa86030913960400191505060405180910390fd5b60085481565b336001600160a01b037f000000000000000000000000000000000000000000000000000000000000000016146112a75760405162461bcd60e51b8152600401808060200182810382526030815260200180611f526030913960400191505060405180910390fd5b6002805414156112ec576040805162461bcd60e51b815260206004820152601f6024820152600080516020611f0c833981519152604482015290519081900360640190fd5b60028055806112f961116f565b600855611304610c16565b6007556001600160a01b0381161561134b5761131f816105dc565b6001600160a01b0382166000908152600a60209081526040808320939093556008546009909152919020555b6001600160a01b0382166000908152600a602052604090205480156113f1576001600160a01b038084166000908152600a60205260408120556113b1907f000000000000000000000000000000000000000000000000000000000000000016848361196c565b6040805182815290516001600160a01b038516917fe2403640ba68fed3a2f88b7557551d1993f84b99bb10ff833f0cf8db0c5e0486919081900360200190a25b5050600160025550565b60045481565b611409611896565b6001600160a01b031661141a610d6d565b6001600160a01b031614611463576040805162461bcd60e51b81526020600482018190526024820152600080516020611ff9833981519152604482015290519081900360640190fd5b6001600160a01b0381166114a85760405162461bcd60e51b8152600401808060200182810382526026815260200180611f2c6026913960400191505060405180910390fd5b600080546040516001600160a01b03808516939216917f8be0079c531659141344cd1fd0a4f28419497f9722a3daafe3b4186f6b6457e091a3600080546001600160a01b0319166001600160a01b0392909216919091179055565b336001600160a01b037f0000000000000000000000000000000000000000000000000000000000000000161461156a5760405162461bcd60e51b8152600401808060200182810382526030815260200180611f526030913960400191505060405180910390fd5b6002805414156115af576040805162461bcd60e51b815260206004820152601f6024820152600080516020611f0c833981519152604482015290519081900360640190fd5b60028055816115bc61116f565b6008556115c7610c16565b6007556001600160a01b0381161561160e576115e2816105dc565b6001600160a01b0382166000908152600a60209081526040808320939093556008546009909152919020555b60008211611657576040805162461bcd60e51b8152602060048201526011602482015270043616e6e6f74207769746864726177203607c1b604482015290519081900360640190fd5b600b54611664908361171f565b600b556001600160a01b0383166000908152600c602052604090205461168a908361171f565b6001600160a01b0384166000818152600c6020908152604091829020939093558051858152905191927f7084f5476618d8e60b11ef0d7d3f06914655adb8793e28ff7f018d4c76d505d592918290030190a25050600160025550565b7f000000000000000000000000000000000000000000000000000000000000000081565b6000610c09836001600160a01b0384166119ef565b600082821115611776576040805162461bcd60e51b815260206004820152601e60248201527f536166654d6174683a207375627472616374696f6e206f766572666c6f770000604482015290519081900360640190fd5b50900390565b60008261178b57506000610654565b8282028284828161179857fe5b0414610c095760405162461bcd60e51b8152600401808060200182810382526021815260200180611fd86021913960400191505060405180910390fd5b600080821161182b576040805162461bcd60e51b815260206004820152601a60248201527f536166654d6174683a206469766973696f6e206279207a65726f000000000000604482015290519081900360640190fd5b81838161183457fe5b049392505050565b600082820183811015610c09576040805162461bcd60e51b815260206004820152601b60248201527f536166654d6174683a206164646974696f6e206f766572666c6f770000000000604482015290519081900360640190fd5b3390565b60008281526001602052604090206118b2908261170a565b1561070e576118bf611896565b6001600160a01b0316816001600160a01b0316837f2f8788117e7eff1d82e926ec794901d17c78024a50270940304540a733656f0d60405160405180910390a45050565b600082815260016020526040902061191b9082611a39565b1561070e57611928611896565b6001600160a01b0316816001600160a01b0316837ff6391f5c32d9c69d2a47ea670b442974b53935d1edc7fd64eb21e047a839171b60405160405180910390a45050565b604080516001600160a01b038416602482015260448082018490528251808303909101815260649091019091526020810180516001600160e01b031663a9059cbb60e01b1790526119be908490611a4e565b505050565b6000610c098383611aff565b6000610c09836001600160a01b038416611b63565b600061065482611b7b565b60006119fb8383611b63565b611a3157508154600181810184556000848152602080822090930184905584548482528286019093526040902091909155610654565b506000610654565b6000610c09836001600160a01b038416611b7f565b6060611aa3826040518060400160405280602081526020017f5361666545524332303a206c6f772d6c6576656c2063616c6c206661696c6564815250856001600160a01b0316611c459092919063ffffffff16565b8051909150156119be57808060200190516020811015611ac257600080fd5b50516119be5760405162461bcd60e51b815260040180806020018281038252602a815260200180612046602a913960400191505060405180910390fd5b81546000908210611b415760405162461bcd60e51b8152600401808060200182810382526022815260200180611e636022913960400191505060405180910390fd5b826000018281548110611b5057fe5b9060005260206000200154905092915050565b60009081526001919091016020526040902054151590565b5490565b60008181526001830160205260408120548015611c3b5783546000198083019190810190600090879083908110611bb257fe5b9060005260206000200154905080876000018481548110611bcf57fe5b600091825260208083209091019290925582815260018981019092526040902090840190558654879080611bff57fe5b60019003818190600052602060002001600090559055866001016000878152602001908152602001600020600090556001945050505050610654565b6000915050610654565b6060611c548484600085611c5c565b949350505050565b606082471015611c9d5760405162461bcd60e51b8152600401808060200182810382526026815260200180611f826026913960400191505060405180910390fd5b611ca685611db8565b611cf7576040805162461bcd60e51b815260206004820152601d60248201527f416464726573733a2063616c6c20746f206e6f6e2d636f6e7472616374000000604482015290519081900360640190fd5b60006060866001600160a01b031685876040518082805190602001908083835b60208310611d365780518252601f199092019160209182019101611d17565b6001836020036101000a03801982511681845116808217855250505050505090500191505060006040518083038185875af1925050503d8060008114611d98576040519150601f19603f3d011682016040523d82523d6000602084013e611d9d565b606091505b5091509150611dad828286611dbe565b979650505050505050565b3b151590565b60608315611dcd575081610c09565b825115611ddd5782518084602001fd5b8160405162461bcd60e51b81526004018080602001828103825283818151815260200191508051906020019080838360005b83811015611e27578181015183820152602001611e0f565b50505050905090810190601f168015611e545780820380516001836020036101000a031916815260200191505b509250505060405180910390fdfe456e756d657261626c655365743a20696e646578206f7574206f6620626f756e647350726576696f7573207265776172647320706572696f64206d75737420626520636f6d706c657465206265666f7265206368616e67696e6720746865206475726174696f6e20666f7220746865206e657720706572696f64416363657373436f6e74726f6c3a2073656e646572206d75737420626520616e2061646d696e20746f206772616e745265656e7472616e637947756172643a207265656e7472616e742063616c6c004f776e61626c653a206e6577206f776e657220697320746865207a65726f206164647265737352657761726448616e646c65723a3a4f6e6c795661756c743a206e6f742063616c6c696e672066726f6d207661756c74416464726573733a20696e73756666696369656e742062616c616e636520666f722063616c6c416363657373436f6e74726f6c3a2073656e646572206d75737420626520616e2061646d696e20746f207265766f6b65536166654d6174683a206d756c7469706c69636174696f6e206f766572666c6f774f776e61626c653a2063616c6c6572206973206e6f7420746865206f776e657243616e6e6f7420776974686472617720746865207374616b696e67206f72207265776172647320746f6b656e735361666545524332303a204552433230206f7065726174696f6e20646964206e6f742073756363656564416363657373436f6e74726f6c3a2063616e206f6e6c792072656e6f756e636520726f6c657320666f722073656c66a2646970667358221220ed7b02efc49db06db9cfb45b918912dfff4cb35e245cf37197d534f06ef4b5db64736f6c634300070500334f776e61626c653a206e6577206f776e657220697320746865207a65726f206164647265737352657761726448616e646c65723a3a636f6e7374727563746f723a20616464726573732063616e2774206265207a65726f8be0079c531659141344cd1fd0a4f28419497f9722a3daafe3b4186f6b6457e0",
  "devdoc": {
    "kind": "dev",
    "methods": {
      "balanceOf(address)": {
        "params": {
          "_account": "address"
        }
      },
      "constructor": {
        "params": {
          "_owner": "address",
          "_rewardsToken": "address",
          "_vault": "uint256"
        }
      },
      "earned(address)": {
        "params": {
          "_account": "address"
        }
      },
      "exit(address)": {
        "details": "Only vault can call it",
        "params": {
          "_staker": "address"
        }
      },
      "getReward()": {
        "details": "Updates rewards on call"
      },
      "getRewardFromVault(address)": {
        "details": "Only vault can call itUpdates rewards on call",
        "params": {
          "_staker": "address"
        }
      },
      "getRoleAdmin(bytes32)": {
        "details": "Returns the admin role that controls `role`. See {grantRole} and {revokeRole}. To change a role's admin, use {_setRoleAdmin}."
      },
      "getRoleMember(bytes32,uint256)": {
        "details": "Returns one of the accounts that have `role`. `index` must be a value between 0 and {getRoleMemberCount}, non-inclusive. Role bearers are not sorted in any particular way, and their ordering may change at any point. WARNING: When using {getRoleMember} and {getRoleMemberCount}, make sure you perform all queries on the same block. See the following https://forum.openzeppelin.com/t/iterating-over-elements-on-enumerableset-in-openzeppelin-contracts/2296[forum post] for more information."
      },
      "getRoleMemberCount(bytes32)": {
        "details": "Returns the number of accounts that have `role`. Can be used together with {getRoleMember} to enumerate all bearers of a role."
      },
      "grantRole(bytes32,address)": {
        "details": "Grants `role` to `account`. If `account` had not been already granted `role`, emits a {RoleGranted} event. Requirements: - the caller must have ``role``'s admin role."
      },
      "hasRole(bytes32,address)": {
        "details": "Returns `true` if `account` has been granted `role`."
      },
      "min(uint256,uint256)": {
        "params": {
          "_a": "uint",
          "_b": "uint"
        }
      },
      "notifyRewardAmount(uint256)": {
        "details": "Only owner  can call itIncreases duration of rewards",
        "params": {
          "_reward": "uint"
        }
      },
      "owner()": {
        "details": "Returns the address of the current owner."
      },
      "paused()": {
        "details": "Returns true if the contract is paused, and false otherwise."
      },
      "recoverERC20(address,uint256)": {
        "details": "Only owner  can call it",
        "params": {
          "_tokenAddress": "address",
          "_tokenAmount": "uint"
        }
      },
      "renounceOwnership()": {
        "details": "Leaves the contract without owner. It will not be possible to call `onlyOwner` functions anymore. Can only be called by the current owner. NOTE: Renouncing ownership will leave the contract without an owner, thereby removing any functionality that is only available to the owner."
      },
      "renounceRole(bytes32,address)": {
        "details": "Revokes `role` from the calling account. Roles are often managed via {grantRole} and {revokeRole}: this function's purpose is to provide a mechanism for accounts to lose their privileges if they are compromised (such as when a trusted device is misplaced). If the calling account had been granted `role`, emits a {RoleRevoked} event. Requirements: - the caller must be `account`."
      },
      "revokeRole(bytes32,address)": {
        "details": "Revokes `role` from `account`. If `account` had been granted `role`, emits a {RoleRevoked} event. Requirements: - the caller must have ``role``'s admin role."
      },
      "setRewardsDuration(uint256)": {
        "details": "Only owner  can call itPrevious rewards must be complete",
        "params": {
          "_rewardsDuration": "uint"
        }
      },
      "stake(address,uint256)": {
        "details": "Only vault can call itUpdates rewards on call",
        "params": {
          "_amount": "uint",
          "_staker": "address"
        }
      },
      "transferOwnership(address)": {
        "details": "Transfers ownership of the contract to a new account (`newOwner`). Can only be called by the current owner."
      },
      "withdraw(address,uint256)": {
        "details": "Only vault can call itUpdates rewards on call",
        "params": {
          "_amount": "uint",
          "_staker": "address"
        }
      }
    },
    "stateVariables": {
      "_balances": {
        "details": "Tracks the amount of TCAP minted per user"
      },
      "_totalSupply": {
        "details": "Tracks the total supply of the minted TCAPs"
      }
    },
    "version": 1
  },
  "userdoc": {
    "events": {
      "Recovered(address,uint256)": {
        "notice": "An event emitted when a erc20 token is recovered"
      },
      "RewardAdded(uint256)": {
        "notice": "An event emitted when a reward is added"
      },
      "RewardPaid(address,uint256)": {
        "notice": "An event emitted when reward is paid to a user"
      },
      "RewardsDurationUpdated(uint256)": {
        "notice": "An event emitted when the rewards duration is updated"
      },
      "Staked(address,uint256)": {
        "notice": "An event emitted when TCAP is minted and staked to earn rewards"
      },
      "Withdrawn(address,uint256)": {
        "notice": "An event emitted when TCAP is burned and removed of stake"
      }
    },
    "kind": "user",
    "methods": {
      "balanceOf(address)": {
        "notice": "Returns the amount of TCAP tokens minted and getting reward from specific user."
      },
      "constructor": {
        "notice": "Constructor"
      },
      "earned(address)": {
        "notice": "Returns the amount of reward tokens a user has earned."
      },
      "exit(address)": {
        "notice": "Removes all stake and transfers all rewards to the staker."
      },
      "getReward()": {
        "notice": "Transfers to the caller the current amount of rewards tokens earned."
      },
      "getRewardForDuration()": {
        "notice": "Returns the Reward rate multiplied by the rewards duration time."
      },
      "getRewardFromVault(address)": {
        "notice": "Called when TCAP is burned or liquidated, transfers to the staker the current amount of rewards tokens earned."
      },
      "lastTimeRewardApplicable()": {
        "notice": "Returns the minimun between current block timestamp or the finish period of rewards."
      },
      "lastUpdateTime()": {
        "notice": "Last time rewards were updated"
      },
      "min(uint256,uint256)": {
        "notice": "Returns the minimun between two variables"
      },
      "notifyRewardAmount(uint256)": {
        "notice": "Notifies the contract that reward has been added to be given."
      },
      "periodFinish()": {
        "notice": "Tracks the period where users stop earning rewards"
      },
      "recoverERC20(address,uint256)": {
        "notice": "Added to support recovering LP Rewards from other systems such as BAL to be distributed to holders"
      },
      "rewardPerToken()": {
        "notice": "Returns the calculated reward per token deposited."
      },
      "rewards(address)": {
        "notice": "Tracks the user rewards"
      },
      "rewardsDuration()": {
        "notice": "How long the rewards last, it updates when more rewards are added"
      },
      "rewardsToken()": {
        "notice": "Address of the reward"
      },
      "setRewardsDuration(uint256)": {
        "notice": "Updates the reward duration"
      },
      "stake(address,uint256)": {
        "notice": "Called when TCAP is minted, adds the minted value as stake"
      },
      "totalSupply()": {
        "notice": "Returns the total amount of TCAP tokens minted and getting reward on this vault."
      },
      "userRewardPerTokenPaid(address)": {
        "notice": "Track the rewards paid to users"
      },
      "vault()": {
        "notice": "Address of the vault"
      },
      "withdraw(address,uint256)": {
        "notice": "Called when TCAP is burned or liquidated, removes the burned value as stake"
      }
    },
    "version": 1
  },
  "storageLayout": {
    "storage": [
      {
        "astId": 336,
        "contract": "contracts/RewardHandler.sol:RewardHandler",
        "label": "_owner",
        "offset": 0,
        "slot": "0",
        "type": "t_address"
      },
      {
        "astId": 68,
        "contract": "contracts/RewardHandler.sol:RewardHandler",
        "label": "_roles",
        "offset": 0,
        "slot": "1",
        "type": "t_mapping(t_bytes32,t_struct(RoleData)64_storage)"
      },
      {
        "astId": 2791,
        "contract": "contracts/RewardHandler.sol:RewardHandler",
        "label": "_status",
        "offset": 0,
        "slot": "2",
        "type": "t_uint256"
      },
      {
        "astId": 2706,
        "contract": "contracts/RewardHandler.sol:RewardHandler",
        "label": "_paused",
        "offset": 0,
        "slot": "3",
        "type": "t_bool"
      },
      {
        "astId": 6353,
        "contract": "contracts/RewardHandler.sol:RewardHandler",
        "label": "periodFinish",
        "offset": 0,
        "slot": "4",
        "type": "t_uint256"
      },
      {
        "astId": 6356,
        "contract": "contracts/RewardHandler.sol:RewardHandler",
        "label": "rewardRate",
        "offset": 0,
        "slot": "5",
        "type": "t_uint256"
      },
      {
        "astId": 6360,
        "contract": "contracts/RewardHandler.sol:RewardHandler",
        "label": "rewardsDuration",
        "offset": 0,
        "slot": "6",
        "type": "t_uint256"
      },
      {
        "astId": 6363,
        "contract": "contracts/RewardHandler.sol:RewardHandler",
        "label": "lastUpdateTime",
        "offset": 0,
        "slot": "7",
        "type": "t_uint256"
      },
      {
        "astId": 6365,
        "contract": "contracts/RewardHandler.sol:RewardHandler",
        "label": "rewardPerTokenStored",
        "offset": 0,
        "slot": "8",
        "type": "t_uint256"
      },
      {
        "astId": 6370,
        "contract": "contracts/RewardHandler.sol:RewardHandler",
        "label": "userRewardPerTokenPaid",
        "offset": 0,
        "slot": "9",
        "type": "t_mapping(t_address,t_uint256)"
      },
      {
        "astId": 6375,
        "contract": "contracts/RewardHandler.sol:RewardHandler",
        "label": "rewards",
        "offset": 0,
        "slot": "10",
        "type": "t_mapping(t_address,t_uint256)"
      },
      {
        "astId": 6378,
        "contract": "contracts/RewardHandler.sol:RewardHandler",
        "label": "_totalSupply",
        "offset": 0,
        "slot": "11",
        "type": "t_uint256"
      },
      {
        "astId": 6383,
        "contract": "contracts/RewardHandler.sol:RewardHandler",
        "label": "_balances",
        "offset": 0,
        "slot": "12",
        "type": "t_mapping(t_address,t_uint256)"
      }
    ],
    "types": {
      "t_address": {
        "encoding": "inplace",
        "label": "address",
        "numberOfBytes": "20"
      },
      "t_array(t_bytes32)dyn_storage": {
        "base": "t_bytes32",
        "encoding": "dynamic_array",
        "label": "bytes32[]",
        "numberOfBytes": "32"
      },
      "t_bool": {
        "encoding": "inplace",
        "label": "bool",
        "numberOfBytes": "1"
      },
      "t_bytes32": {
        "encoding": "inplace",
        "label": "bytes32",
        "numberOfBytes": "32"
      },
      "t_mapping(t_address,t_uint256)": {
        "encoding": "mapping",
        "key": "t_address",
        "label": "mapping(address => uint256)",
        "numberOfBytes": "32",
        "value": "t_uint256"
      },
      "t_mapping(t_bytes32,t_struct(RoleData)64_storage)": {
        "encoding": "mapping",
        "key": "t_bytes32",
        "label": "mapping(bytes32 => struct AccessControl.RoleData)",
        "numberOfBytes": "32",
        "value": "t_struct(RoleData)64_storage"
      },
      "t_mapping(t_bytes32,t_uint256)": {
        "encoding": "mapping",
        "key": "t_bytes32",
        "label": "mapping(bytes32 => uint256)",
        "numberOfBytes": "32",
        "value": "t_uint256"
      },
      "t_struct(AddressSet)2472_storage": {
        "encoding": "inplace",
        "label": "struct EnumerableSet.AddressSet",
        "members": [
          {
            "astId": 2471,
            "contract": "contracts/RewardHandler.sol:RewardHandler",
            "label": "_inner",
            "offset": 0,
            "slot": "0",
            "type": "t_struct(Set)2207_storage"
          }
        ],
        "numberOfBytes": "64"
      },
      "t_struct(RoleData)64_storage": {
        "encoding": "inplace",
        "label": "struct AccessControl.RoleData",
        "members": [
          {
            "astId": 61,
            "contract": "contracts/RewardHandler.sol:RewardHandler",
            "label": "members",
            "offset": 0,
            "slot": "0",
            "type": "t_struct(AddressSet)2472_storage"
          },
          {
            "astId": 63,
            "contract": "contracts/RewardHandler.sol:RewardHandler",
            "label": "adminRole",
            "offset": 0,
            "slot": "2",
            "type": "t_bytes32"
          }
        ],
        "numberOfBytes": "96"
      },
      "t_struct(Set)2207_storage": {
        "encoding": "inplace",
        "label": "struct EnumerableSet.Set",
        "members": [
          {
            "astId": 2202,
            "contract": "contracts/RewardHandler.sol:RewardHandler",
            "label": "_values",
            "offset": 0,
            "slot": "0",
            "type": "t_array(t_bytes32)dyn_storage"
          },
          {
            "astId": 2206,
            "contract": "contracts/RewardHandler.sol:RewardHandler",
            "label": "_indexes",
            "offset": 0,
            "slot": "1",
            "type": "t_mapping(t_bytes32,t_uint256)"
          }
        ],
        "numberOfBytes": "64"
      },
      "t_uint256": {
        "encoding": "inplace",
        "label": "uint256",
        "numberOfBytes": "32"
      }
    }
  }
}